{
  "contractName": "NftFractionsVendor",
  "abi": [
    {
      "inputs": [],
      "stateMutability": "nonpayable",
      "type": "constructor"
    },
    {
      "anonymous": false,
      "inputs": [
        {
          "indexed": false,
          "internalType": "address",
          "name": "buyer",
          "type": "address"
        },
        {
          "indexed": false,
          "internalType": "uint256",
          "name": "amountOfMATIC",
          "type": "uint256"
        },
        {
          "indexed": false,
          "internalType": "uint256",
          "name": "amountOfTokens",
          "type": "uint256"
        }
      ],
      "name": "BuyTokens",
      "type": "event"
    },
    {
      "anonymous": false,
      "inputs": [
        {
          "indexed": true,
          "internalType": "address",
          "name": "previousOwner",
          "type": "address"
        },
        {
          "indexed": true,
          "internalType": "address",
          "name": "newOwner",
          "type": "address"
        }
      ],
      "name": "OwnershipTransferred",
      "type": "event"
    },
    {
      "inputs": [
        {
          "internalType": "address",
          "name": "",
          "type": "address"
        }
      ],
      "name": "activeAddressVendor",
      "outputs": [
        {
          "internalType": "bool",
          "name": "",
          "type": "bool"
        }
      ],
      "stateMutability": "view",
      "type": "function",
      "constant": true
    },
    {
      "inputs": [],
      "name": "owner",
      "outputs": [
        {
          "internalType": "address",
          "name": "",
          "type": "address"
        }
      ],
      "stateMutability": "view",
      "type": "function",
      "constant": true
    },
    {
      "inputs": [],
      "name": "renounceOwnership",
      "outputs": [],
      "stateMutability": "nonpayable",
      "type": "function"
    },
    {
      "inputs": [
        {
          "internalType": "address",
          "name": "",
          "type": "address"
        }
      ],
      "name": "tokens",
      "outputs": [
        {
          "internalType": "address",
          "name": "tokenAddress",
          "type": "address"
        },
        {
          "internalType": "uint256",
          "name": "totalSupply",
          "type": "uint256"
        },
        {
          "internalType": "uint256",
          "name": "listingPrice",
          "type": "uint256"
        },
        {
          "internalType": "bool",
          "name": "enableSell",
          "type": "bool"
        }
      ],
      "stateMutability": "view",
      "type": "function",
      "constant": true
    },
    {
      "inputs": [
        {
          "internalType": "address",
          "name": "newOwner",
          "type": "address"
        }
      ],
      "name": "transferOwnership",
      "outputs": [],
      "stateMutability": "nonpayable",
      "type": "function"
    },
    {
      "inputs": [
        {
          "internalType": "address",
          "name": "tokenAddress",
          "type": "address"
        },
        {
          "internalType": "uint256",
          "name": "totalSupply",
          "type": "uint256"
        },
        {
          "internalType": "uint256",
          "name": "listingPrice",
          "type": "uint256"
        },
        {
          "internalType": "bool",
          "name": "enableSell",
          "type": "bool"
        }
      ],
      "name": "updateTokenVendor",
      "outputs": [],
      "stateMutability": "nonpayable",
      "type": "function"
    },
    {
      "inputs": [
        {
          "internalType": "address",
          "name": "tokenAddress",
          "type": "address"
        },
        {
          "internalType": "bool",
          "name": "state",
          "type": "bool"
        }
      ],
      "name": "updateTokenVendorSellState",
      "outputs": [],
      "stateMutability": "nonpayable",
      "type": "function"
    },
    {
      "inputs": [
        {
          "internalType": "address",
          "name": "tokenAddress",
          "type": "address"
        },
        {
          "internalType": "bool",
          "name": "state",
          "type": "bool"
        }
      ],
      "name": "updateStateAddressVendor",
      "outputs": [],
      "stateMutability": "nonpayable",
      "type": "function"
    },
    {
      "inputs": [
        {
          "internalType": "address",
          "name": "tokenAddress",
          "type": "address"
        }
      ],
      "name": "getUnitPrice",
      "outputs": [
        {
          "internalType": "uint256",
          "name": "",
          "type": "uint256"
        }
      ],
      "stateMutability": "view",
      "type": "function",
      "constant": true
    },
    {
      "inputs": [
        {
          "internalType": "address",
          "name": "tokenAddress",
          "type": "address"
        }
      ],
      "name": "buyTokens",
      "outputs": [
        {
          "internalType": "uint256",
          "name": "tokenAmount",
          "type": "uint256"
        }
      ],
      "stateMutability": "payable",
      "type": "function",
      "payable": true
    },
    {
      "inputs": [
        {
          "internalType": "uint256",
          "name": "tokenAmountToSell",
          "type": "uint256"
        },
        {
          "internalType": "address",
          "name": "tokenAddress",
          "type": "address"
        }
      ],
      "name": "sellTokens",
      "outputs": [],
      "stateMutability": "nonpayable",
      "type": "function"
    },
    {
      "inputs": [],
      "name": "withdraw",
      "outputs": [],
      "stateMutability": "nonpayable",
      "type": "function"
    }
  ],
  "bytecode": "0x608060405234801561001057600080fd5b5061001a3361001f565b61006f565b600080546001600160a01b038381166001600160a01b0319831681178455604051919092169283917f8be0079c531659141344cd1fd0a4f28419497f9722a3daafe3b4186f6b6457e09190a35050565b610df38061007e6000396000f3fe6080604052600436106100a75760003560e01c806399eec6451161006457806399eec6451461018e578063a2f016a8146101bc578063e4860339146101fc578063e8d59fa81461027a578063ec8ac4d81461029a578063f2fde38b146102ad57600080fd5b80633ccfd60b146100ac578063437e0ff6146100c3578063670f7151146100e3578063715018a61461010357806377f510ad146101185780638da5cb5b14610161575b600080fd5b3480156100b857600080fd5b506100c16102cd565b005b3480156100cf57600080fd5b506100c16100de366004610c30565b6103b9565b3480156100ef57600080fd5b506100c16100fe366004610c78565b61044e565b34801561010f57600080fd5b506100c16107e1565b34801561012457600080fd5b506100c1610133366004610ca4565b6001600160a01b03919091166000908152600160205260409020600301805460ff1916911515919091179055565b34801561016d57600080fd5b506000546040516001600160a01b0390911681526020015b60405180910390f35b34801561019a57600080fd5b506101ae6101a9366004610cdb565b6107f5565b604051908152602001610185565b3480156101c857600080fd5b506101ec6101d7366004610cdb565b60026020526000908152604090205460ff1681565b6040519015158152602001610185565b34801561020857600080fd5b5061024e610217366004610cdb565b600160208190526000918252604090912080549181015460028201546003909201546001600160a01b039093169290919060ff1684565b604080516001600160a01b03909516855260208501939093529183015215156060820152608001610185565b34801561028657600080fd5b506100c1610295366004610ca4565b610827565b6101ae6102a8366004610cdb565b61085a565b3480156102b957600080fd5b506100c16102c8366004610cdb565b610ae3565b6102d5610b5c565b47806103285760405162461bcd60e51b815260206004820152601860248201527f4e6f204554482070726573656e7420696e2056656e646f72000000000000000060448201526064015b60405180910390fd5b604051600090339047908381818185875af1925050503d806000811461036a576040519150601f19603f3d011682016040523d82523d6000602084013e61036f565b606091505b50509050806103b55760405162461bcd60e51b81526020600482015260126024820152714661696c656420746f20776974686472617760701b604482015260640161031f565b5050565b6103c1610b5c565b600083116103e15760405162461bcd60e51b815260040161031f90610cfd565b600082116104015760405162461bcd60e51b815260040161031f90610cfd565b6001600160a01b0393909316600081815260016020819052604090912080546001600160a01b03191690921782558101929092556002820155600301805460ff1916911515919091179055565b600082116104b35760405162461bcd60e51b815260206004820152602c60248201527f5370656369667920616e20616d6f756e74206f6620746f6b656e20677265617460448201526b6572207468616e207a65726f60a01b606482015260840161031f565b6001600160a01b03811660009081526001602081905260409091206003015460ff1615151461051a5760405162461bcd60e51b815260206004820152601360248201527214d95b1b081a5cc81b9bdd08195b98589b1959606a1b604482015260640161031f565b6040516370a0823160e01b81523360048201526000906001600160a01b038316906370a0823190602401602060405180830381865afa158015610561573d6000803e3d6000fd5b505050506040513d601f19601f820116820180604052508101906105859190610d40565b9050828110156105d75760405162461bcd60e51b815260206004820152601c60248201527f596f75206861766520696e73756666696369656e7420746f6b656e7300000000604482015260640161031f565b6001600160a01b03821660009081526001602081905260408220908101546002909101546106059086610d59565b61060f9190610d7e565b905047818110156106625760405162461bcd60e51b815260206004820152601d60248201527f56656e646f722068617320696e73756666696369656e742066756e6473000000604482015260640161031f565b6040516323b872dd60e01b8152336004820152306024820152604481018690526000906001600160a01b038616906323b872dd906064016020604051808303816000875af11580156106b8573d6000803e3d6000fd5b505050506040513d601f19601f820116820180604052508101906106dc9190610da0565b9050806107415760405162461bcd60e51b815260206004820152602d60248201527f4661696c656420746f207472616e7366657220746f6b656e732066726f6d207560448201526c39b2b9103a37903b32b73237b960991b606482015260840161031f565b60405133908490600081818185875af1925050503d8060008114610781576040519150601f19603f3d011682016040523d82523d6000602084013e610786565b606091505b505080915050806107d95760405162461bcd60e51b815260206004820152601e60248201527f4661696c656420746f2073656e642045544820746f2074686520757365720000604482015260640161031f565b505050505050565b6107e9610b5c565b6107f36000610bb6565b565b6001600160a01b0381166000908152600160208190526040822060028101549101546108219190610d7e565b92915050565b61082f610b5c565b6001600160a01b03919091166000908152600260205260409020805460ff1916911515919091179055565b60008034116108ba5760405162461bcd60e51b815260206004820152602660248201527f596f75206e65656420746f2073656e6420736f6d65204d4154494320746f20706044820152651c9bd8d9595960d21b606482015260840161031f565b6001600160a01b03821660009081526001602081905260409091206003015460ff161515146109215760405162461bcd60e51b815260206004820152601360248201527214d95b1b081a5cc81b9bdd08195b98589b1959606a1b604482015260640161031f565b6001600160a01b03821660009081526001602081905260408220600281015491015461094d9034610d59565b6109579190610d7e565b6040516370a0823160e01b81523060048201529091506000906001600160a01b038516906370a0823190602401602060405180830381865afa1580156109a1573d6000803e3d6000fd5b505050506040513d601f19601f820116820180604052508101906109c59190610d40565b905081811015610a175760405162461bcd60e51b815260206004820152601e60248201527f56656e646f722068617320696e73756666696369656e7420746f6b656e730000604482015260640161031f565b60405163a9059cbb60e01b8152336004820152602481018390526000906001600160a01b0386169063a9059cbb906044016020604051808303816000875af1158015610a67573d6000803e3d6000fd5b505050506040513d601f19601f82011682018060405250810190610a8b9190610da0565b905080610ada5760405162461bcd60e51b815260206004820181905260248201527f4661696c656420746f207472616e7366657220746f6b656e20746f2075736572604482015260640161031f565b50909392505050565b610aeb610b5c565b6001600160a01b038116610b505760405162461bcd60e51b815260206004820152602660248201527f4f776e61626c653a206e6577206f776e657220697320746865207a65726f206160448201526564647265737360d01b606482015260840161031f565b610b5981610bb6565b50565b6000546001600160a01b031633146107f35760405162461bcd60e51b815260206004820181905260248201527f4f776e61626c653a2063616c6c6572206973206e6f7420746865206f776e6572604482015260640161031f565b600080546001600160a01b038381166001600160a01b0319831681178455604051919092169283917f8be0079c531659141344cd1fd0a4f28419497f9722a3daafe3b4186f6b6457e09190a35050565b80356001600160a01b0381168114610c1d57600080fd5b919050565b8015158114610b5957600080fd5b60008060008060808587031215610c4657600080fd5b610c4f85610c06565b935060208501359250604085013591506060850135610c6d81610c22565b939692955090935050565b60008060408385031215610c8b57600080fd5b82359150610c9b60208401610c06565b90509250929050565b60008060408385031215610cb757600080fd5b610cc083610c06565b91506020830135610cd081610c22565b809150509250929050565b600060208284031215610ced57600080fd5b610cf682610c06565b9392505050565b60208082526023908201527f546f6b656e2070657220657468206d757374206265206869676865722074686160408201526206e20360ec1b606082015260800190565b600060208284031215610d5257600080fd5b5051919050565b808202811582820484141761082157634e487b7160e01b600052601160045260246000fd5b600082610d9b57634e487b7160e01b600052601260045260246000fd5b500490565b600060208284031215610db257600080fd5b8151610cf681610c2256fea2646970667358221220b1d1f91f3537bceaded410f10da0c085ec2dced1589e70ad114f99412d14e79064736f6c63430008110033",
  "immutableReferences": {},
  "source": "// SPDX-License-Identifier: Unlicense\npragma solidity ^0.8.4;\nimport './NftFractionsVendor.sol';\nimport '@openzeppelin/contracts/token/ERC20/ERC20.sol';\nimport '@openzeppelin/contracts/access/Ownable.sol';\n\ncontract NftFractionsVendor is Ownable {\n  struct TokenPaymentInfo {\n    address tokenAddress;\n    uint totalSupply;\n    uint listingPrice;\n    bool enableSell;\n  }\n\n  mapping(address => TokenPaymentInfo) public tokens;\n  mapping(address => bool) public activeAddressVendor;\n\n  event BuyTokens(address buyer, uint256 amountOfMATIC, uint256 amountOfTokens);\n\n  constructor() {}\n\n  function updateTokenVendor(\n    address tokenAddress,\n    uint256 totalSupply,\n    uint256 listingPrice,\n    bool enableSell\n  ) public onlyOwner {\n    require(totalSupply > 0, 'Token per eth must be higher than 0');\n    require(listingPrice > 0, 'Token per eth must be higher than 0');\n    tokens[tokenAddress].tokenAddress = tokenAddress;\n    tokens[tokenAddress].totalSupply = totalSupply;\n    tokens[tokenAddress].listingPrice = listingPrice;\n    tokens[tokenAddress].enableSell = enableSell;\n  }\n\n  function updateTokenVendorSellState(address tokenAddress, bool state) public {\n    tokens[tokenAddress].enableSell = state;\n  }\n\n  function updateStateAddressVendor(\n    address tokenAddress,\n    bool state\n  ) public onlyOwner {\n    activeAddressVendor[tokenAddress] = state;\n  }\n\n  function getUnitPrice(address tokenAddress) external view returns (uint256) {\n    return tokens[tokenAddress].totalSupply / tokens[tokenAddress].listingPrice;\n  }\n\n  function buyTokens(\n    address tokenAddress\n  ) public payable returns (uint256 tokenAmount) {\n    require(msg.value > 0, 'You need to send some MATIC to proceed');\n    require(tokens[tokenAddress].enableSell == true, 'Sell is not enabled');\n\n    uint256 amountToBuy = (msg.value * tokens[tokenAddress].totalSupply) /\n      tokens[tokenAddress].listingPrice;\n\n    uint256 vendorBalance = ERC20(tokenAddress).balanceOf(address(this));\n    require(vendorBalance >= amountToBuy, 'Vendor has insufficient tokens');\n\n    bool sent = ERC20(tokenAddress).transfer(msg.sender, amountToBuy);\n    require(sent, 'Failed to transfer token to user');\n\n    return amountToBuy;\n  }\n\n  function sellTokens(uint256 tokenAmountToSell, address tokenAddress) public {\n    require(\n      tokenAmountToSell > 0,\n      'Specify an amount of token greater than zero'\n    );\n    require(tokens[tokenAddress].enableSell == true, 'Sell is not enabled');\n    uint256 userBalance = ERC20(tokenAddress).balanceOf(msg.sender);\n    require(userBalance >= tokenAmountToSell, 'You have insufficient tokens');\n\n    uint256 amountOfETHToTransfer = (tokenAmountToSell *\n      tokens[tokenAddress].listingPrice) / tokens[tokenAddress].totalSupply;\n    uint256 ownerETHBalance = address(this).balance;\n    require(\n      ownerETHBalance >= amountOfETHToTransfer,\n      'Vendor has insufficient funds'\n    );\n    bool sent = ERC20(tokenAddress).transferFrom(\n      msg.sender,\n      address(this),\n      tokenAmountToSell\n    );\n    require(sent, 'Failed to transfer tokens from user to vendor');\n\n    (sent, ) = msg.sender.call{value: amountOfETHToTransfer}('');\n    require(sent, 'Failed to send ETH to the user');\n  }\n\n  function withdraw() public onlyOwner {\n    uint256 ownerBalance = address(this).balance;\n    require(ownerBalance > 0, 'No ETH present in Vendor');\n    (bool sent, ) = msg.sender.call{value: address(this).balance}('');\n    require(sent, 'Failed to withdraw');\n  }\n}\n",
  "sourcePath": "/Users/alberto/Desktop/Enalbis/caskchain/ethereum/contracts/NftFractionsVendor.sol",
  "compiler": {
    "name": "solc",
    "version": "0.8.17+commit.8df45f5f.Emscripten.clang"
  },
  "schemaVersion": "3.4.11",
  "updatedAt": "2023-02-21T23:00:08.495Z",
  "networkType": "ethereum",
  "devdoc": {
    "kind": "dev",
    "methods": {
      "owner()": {
        "details": "Returns the address of the current owner."
      },
      "renounceOwnership()": {
        "details": "Leaves the contract without owner. It will not be possible to call `onlyOwner` functions anymore. Can only be called by the current owner. NOTE: Renouncing ownership will leave the contract without an owner, thereby removing any functionality that is only available to the owner."
      },
      "transferOwnership(address)": {
        "details": "Transfers ownership of the contract to a new account (`newOwner`). Can only be called by the current owner."
      }
    },
    "version": 1
  },
  "userdoc": {
    "kind": "user",
    "methods": {},
    "version": 1
  }
}