{
  "contractName": "NftOffers",
  "abi": [
    {
      "inputs": [
        {
          "internalType": "address",
          "name": "_collection",
          "type": "address"
        },
        {
          "internalType": "address",
          "name": "_nftVendor",
          "type": "address"
        }
      ],
      "stateMutability": "nonpayable",
      "type": "constructor"
    },
    {
      "inputs": [],
      "name": "NotApprovedForMarketplace",
      "type": "error"
    },
    {
      "inputs": [],
      "name": "NotOffers",
      "type": "error"
    },
    {
      "inputs": [],
      "name": "NotOwner",
      "type": "error"
    },
    {
      "anonymous": false,
      "inputs": [
        {
          "indexed": false,
          "internalType": "uint256",
          "name": "tokenId",
          "type": "uint256"
        },
        {
          "indexed": false,
          "internalType": "address",
          "name": "bidder",
          "type": "address"
        },
        {
          "indexed": false,
          "internalType": "uint256",
          "name": "bid",
          "type": "uint256"
        }
      ],
      "name": "AcceptOffer",
      "type": "event"
    },
    {
      "anonymous": false,
      "inputs": [
        {
          "indexed": false,
          "internalType": "uint256",
          "name": "tokenId",
          "type": "uint256"
        },
        {
          "indexed": false,
          "internalType": "address",
          "name": "bidder",
          "type": "address"
        },
        {
          "indexed": false,
          "internalType": "uint256",
          "name": "bid",
          "type": "uint256"
        }
      ],
      "name": "NewOffer",
      "type": "event"
    },
    {
      "anonymous": false,
      "inputs": [
        {
          "indexed": false,
          "internalType": "uint256",
          "name": "tokenId",
          "type": "uint256"
        },
        {
          "indexed": false,
          "internalType": "address",
          "name": "bidder",
          "type": "address"
        },
        {
          "indexed": false,
          "internalType": "uint256",
          "name": "bid",
          "type": "uint256"
        }
      ],
      "name": "Withdraw",
      "type": "event"
    },
    {
      "inputs": [
        {
          "internalType": "uint256",
          "name": "",
          "type": "uint256"
        },
        {
          "internalType": "uint256",
          "name": "",
          "type": "uint256"
        }
      ],
      "name": "addressesFromTokenId",
      "outputs": [
        {
          "internalType": "address",
          "name": "",
          "type": "address"
        }
      ],
      "stateMutability": "view",
      "type": "function",
      "constant": true
    },
    {
      "inputs": [],
      "name": "collection",
      "outputs": [
        {
          "internalType": "address",
          "name": "",
          "type": "address"
        }
      ],
      "stateMutability": "view",
      "type": "function",
      "constant": true
    },
    {
      "inputs": [],
      "name": "nftVendor",
      "outputs": [
        {
          "internalType": "contract NftVendor",
          "name": "",
          "type": "address"
        }
      ],
      "stateMutability": "view",
      "type": "function",
      "constant": true
    },
    {
      "inputs": [
        {
          "internalType": "uint256",
          "name": "",
          "type": "uint256"
        },
        {
          "internalType": "address",
          "name": "",
          "type": "address"
        }
      ],
      "name": "offerBidsFromTokenId",
      "outputs": [
        {
          "internalType": "uint256",
          "name": "",
          "type": "uint256"
        }
      ],
      "stateMutability": "view",
      "type": "function",
      "constant": true
    },
    {
      "inputs": [
        {
          "internalType": "uint256",
          "name": "_tokenId",
          "type": "uint256"
        }
      ],
      "name": "makeOffer",
      "outputs": [],
      "stateMutability": "payable",
      "type": "function",
      "payable": true
    },
    {
      "inputs": [
        {
          "internalType": "uint256",
          "name": "_tokenId",
          "type": "uint256"
        }
      ],
      "name": "getAddressesBids",
      "outputs": [
        {
          "internalType": "address[]",
          "name": "",
          "type": "address[]"
        }
      ],
      "stateMutability": "view",
      "type": "function",
      "constant": true
    },
    {
      "inputs": [
        {
          "internalType": "uint256",
          "name": "_tokenId",
          "type": "uint256"
        }
      ],
      "name": "getNftOffer",
      "outputs": [
        {
          "components": [
            {
              "internalType": "uint256",
              "name": "nftId",
              "type": "uint256"
            },
            {
              "internalType": "address",
              "name": "seller",
              "type": "address"
            },
            {
              "internalType": "uint256",
              "name": "highestBid",
              "type": "uint256"
            },
            {
              "internalType": "address",
              "name": "highestBidder",
              "type": "address"
            }
          ],
          "internalType": "struct NftOffers.Offer",
          "name": "",
          "type": "tuple"
        }
      ],
      "stateMutability": "view",
      "type": "function",
      "constant": true
    },
    {
      "inputs": [
        {
          "internalType": "uint256",
          "name": "_tokenId",
          "type": "uint256"
        }
      ],
      "name": "getCountNftOffers",
      "outputs": [
        {
          "internalType": "uint256",
          "name": "",
          "type": "uint256"
        }
      ],
      "stateMutability": "view",
      "type": "function",
      "constant": true
    },
    {
      "inputs": [
        {
          "internalType": "uint256",
          "name": "_tokenId",
          "type": "uint256"
        }
      ],
      "name": "withdraw",
      "outputs": [
        {
          "internalType": "bool",
          "name": "",
          "type": "bool"
        }
      ],
      "stateMutability": "payable",
      "type": "function",
      "payable": true
    },
    {
      "inputs": [
        {
          "internalType": "uint256",
          "name": "_tokenId",
          "type": "uint256"
        }
      ],
      "name": "acceptOffer",
      "outputs": [],
      "stateMutability": "payable",
      "type": "function",
      "payable": true
    }
  ],
  "bytecode": "0x608060405234801561001057600080fd5b5060405161117238038061117283398101604081905261002f91610081565b6001600081905580546001600160a01b039384166001600160a01b031991821617909155600280549290931691161790556100b4565b80516001600160a01b038116811461007c57600080fd5b919050565b6000806040838503121561009457600080fd5b61009d83610065565b91506100ab60208401610065565b90509250929050565b6110af806100c36000396000f3fe6080604052600436106100915760003560e01c80639a2f6474116100595780639a2f647414610189578063a9cebfa91461019e578063b760f713146101cb578063c815729d146101eb578063e9cf32a0146101fe57600080fd5b80632e1a7d4d146100965780633ac23785146100be5780634405f981146101045780634880ba13146101315780637de1e53614610169575b600080fd5b6100a96100a4366004610ed6565b6102ce565b60405190151581526020015b60405180910390f35b3480156100ca57600080fd5b506100f66100d9366004610f07565b600460209081526000928352604080842090915290825290205481565b6040519081526020016100b5565b34801561011057600080fd5b5061012461011f366004610ed6565b610589565b6040516100b59190610f37565b34801561013d57600080fd5b5061015161014c366004610f84565b6105f5565b6040516001600160a01b0390911681526020016100b5565b34801561017557600080fd5b50600154610151906001600160a01b031681565b61019c610197366004610ed6565b61062d565b005b3480156101aa57600080fd5b506100f66101b9366004610ed6565b60009081526006602052604090205490565b3480156101d757600080fd5b50600254610151906001600160a01b031681565b61019c6101f9366004610ed6565b61084b565b34801561020a57600080fd5b5061028c610219366004610ed6565b6040805160808101825260008082526020820181905291810182905260608101919091525060009081526003602081815260409283902083516080810185528154815260018201546001600160a01b03908116938201939093526002820154948101949094529091015416606082015290565b6040516100b59190815181526020808301516001600160a01b039081169183019190915260408084015190830152606092830151169181019190915260800190565b600081815260046020908152604080832033845290915281205461034b5760405162461bcd60e51b815260206004820152602960248201527f596f75206d757374206861766520612062696420746f2062652061626c6520746044820152686f207769746472617760b81b60648201526084015b60405180910390fd5b6000828152600460209081526040808320338085529252808320549051909283156108fc02918491818181858888f19350505050158015610390573d6000803e3d6000fd5b5061039b8333610cac565b60008381526003602081905260409091200154336001600160a01b03909116036105405760008381526003602081905260408220600281018390556001810154910180546001600160a01b0319166001600160a01b039092169190911790555b60008481526006602052604090205481101561053e5760008481526003602090815260408083206002015460048352818420600690935290832080549193918590811061044a5761044a610fa6565b60009182526020808320909101546001600160a01b03168352820192909252604001902054111561052c576000848152600460209081526040808320600690925282208054919291849081106104a2576104a2610fa6565b60009182526020808320909101546001600160a01b031683528281019390935260409182018120548782526003845282822060020155600690925290208054829081106104f1576104f1610fa6565b600091825260208083209091015486835260039182905260409092200180546001600160a01b0319166001600160a01b039092169190911790555b8061053681610fd2565b9150506103fb565b505b604080518481523360208201529081018290527f9da6493a92039daf47d1f2d7a782299c5994c6323eb1e972f69c432089ec52bf9060600160405180910390a150600192915050565b60008181526006602090815260408083208054825181850281018501909352808352606094938301828280156105e857602002820191906000526020600020905b81546001600160a01b031681526001909101906020018083116105ca575b5093979650505050505050565b6006602052816000526040600020818154811061061157600080fd5b6000918252602090912001546001600160a01b03169150829050565b600034116106765760405162461bcd60e51b81526020600482015260166024820152754f6666657220707269636520697320746f6f206c6f7760501b6044820152606401610342565b6000818152600460209081526040808320338452909152902054156106dd576000818152600460209081526040808320338085529252808320549051909283156108fc02918491818181858888f193505050501580156106da573d6000803e3d6000fd5b50505b600081815260036020526040812060020154900361077b576001546040516331a9108f60e11b8152600481018390526001600160a01b03909116906000908290636352211e90602401602060405180830381865afa158015610743573d6000803e3d6000fd5b505050506040513d601f19601f820116820180604052508101906107679190610feb565b9050610774833483610df4565b505061080a565b60008181526003602052604090206002015434116107d45760405162461bcd60e51b81526020600482015260166024820152754f6666657220707269636520697320746f6f206c6f7760501b6044820152606401610342565b6107de8134610e75565b600081815260036020819052604090912090810180546001600160a01b03191633179055346002909101555b60408051828152336020820152348183015290517f807b4f3a2cbecd0aaf3901534108511941eb0791a301b39b3593e8e20a2c759d9181900360600190a150565b6001546040516331a9108f60e11b815260048101839052829133916001600160a01b03909116906000908290636352211e90602401602060405180830381865afa15801561089d573d6000803e3d6000fd5b505050506040513d601f19601f820116820180604052508101906108c19190610feb565b9050806001600160a01b0316836001600160a01b0316146108f5576040516330cd747160e01b815260040160405180910390fd5b60008581526006602052604081205486910361092457604051632f3ad84b60e11b815260040160405180910390fd5b60015460405163020604bf60e21b8152600481018890526001600160a01b03909116903090829063081812fc90602401602060405180830381865afa158015610971573d6000803e3d6000fd5b505050506040513d601f19601f820116820180604052508101906109959190610feb565b6001600160a01b0316146109bc57604051634be3a2c560e01b815260040160405180910390fd5b6000878152600360208181526040808420600280820154919094015493548251631a7a0a7f60e01b81529251339692956001600160a01b0390811695939485949390911692631a7a0a7f926004808401938290030181865afa158015610a26573d6000803e3d6000fd5b505050506040513d601f19601f82011682018060405250810190610a4a919061100f565b60025460405163654e609160e01b8152600481018f9052602481018790529192506001600160a01b03169063654e609190604401602060405180830381865afa158015610a9b573d6000803e3d6000fd5b505050506040513d601f19601f82011682018060405250810190610abf9190611031565b91508015610b03576040516001600160a01b0386169085156108fc029086906000818181858888f19350505050158015610afd573d6000803e3d6000fd5b50610ba4565b600254604051631ea4663d60e31b8152600481018490526001600160a01b039091169063f52331e890602401600060405180830381600087803b158015610b4957600080fd5b505af1158015610b5d573d6000803e3d6000fd5b50505050846001600160a01b03166108fc8386610b7a919061104a565b6040518115909202916000818181858888f19350505050158015610ba2573d6000803e3d6000fd5b505b6001546040516323b872dd60e01b81523360048201526001600160a01b038581166024830152604482018f9052909116906323b872dd90606401600060405180830381600087803b158015610bf857600080fd5b505af1158015610c0c573d6000803e3d6000fd5b50505050610c1a8c84610cac565b60008c81526003602081815260408084208481556001810180546001600160a01b03199081169091556002820195909555909201805490931690925580518e81526001600160a01b0386169281019290925281018590527f9f25f19f4c5c9535d6114be907c32cb1692ce9db9cad630da2d7296ceecd695a9060600160405180910390a1505050505050505050505050565b60008281526004602090815260408083206001600160a01b038516808552908352818420849055858452600583528184209084528252808320548584526006909252822054909190610d009060019061104a565b60008581526006602052604081208054929350909183908110610d2557610d25610fa6565b6000918252602080832091909101548783526005825260408084206001600160a01b039283168086529084528185208890559188168452808420849055888452600690925291208054919250829185908110610d8357610d83610fa6565b600091825260208083209190910180546001600160a01b0319166001600160a01b039490941693909317909255868152600690915260409020805480610dcb57610dcb611063565b600082815260209020810160001990810180546001600160a01b03191690550190555050505050565b610dfe8383610e75565b604080516080810182528481526001600160a01b039283166020808301918252828401958652336060840190815260009788526003918290529390962091518255516001820180549185166001600160a01b0319928316179055935160028201559051930180549390911692909116919091179055565b60008281526004602090815260408083203380855290835281842094909455938252600680825284832080546005845286852086865284529584208690559082526001850181558252902090910180546001600160a01b0319169091179055565b600060208284031215610ee857600080fd5b5035919050565b6001600160a01b0381168114610f0457600080fd5b50565b60008060408385031215610f1a57600080fd5b823591506020830135610f2c81610eef565b809150509250929050565b6020808252825182820181905260009190848201906040850190845b81811015610f785783516001600160a01b031683529284019291840191600101610f53565b50909695505050505050565b60008060408385031215610f9757600080fd5b50508035926020909101359150565b634e487b7160e01b600052603260045260246000fd5b634e487b7160e01b600052601160045260246000fd5b600060018201610fe457610fe4610fbc565b5060010190565b600060208284031215610ffd57600080fd5b815161100881610eef565b9392505050565b60006020828403121561102157600080fd5b8151801515811461100857600080fd5b60006020828403121561104357600080fd5b5051919050565b8181038181111561105d5761105d610fbc565b92915050565b634e487b7160e01b600052603160045260246000fdfea2646970667358221220f7a854eb1df2cb2873e7abae2fbb308fb3cc924197d941cf9a8b640c384c464d64736f6c63430008110033",
  "immutableReferences": {},
  "source": "// SPDX-License-Identifier: MIT\npragma solidity ^0.8.7;\n\nimport '@openzeppelin/contracts/token/ERC721/IERC721.sol';\nimport '@openzeppelin/contracts/security/ReentrancyGuard.sol';\nimport '@openzeppelin/contracts/token/common/ERC2981.sol';\nimport '@openzeppelin/contracts/utils/Counters.sol';\nimport './NftVendor.sol';\n\n// Check out https://github.com/Fantom-foundation/Artion-Contracts/blob/5c90d2bc0401af6fb5abf35b860b762b31dfee02/contracts/FantomMarketplace.sol\n// For a full decentralized nft marketplace\n\n// Error thrown for isNotOwner modifier\n// error IsNotOwner()\nerror NotOffers();\n\ncontract NftOffers is ReentrancyGuard {\n  struct Offer {\n    // Current owner of NFT\n    uint256 nftId;\n    address seller;\n    uint highestBid;\n    address highestBidder;\n  }\n\n  address public collection;\n  NftVendor public nftVendor;\n\n  // Map from token ID to their corresponding auction.\n  mapping(uint256 => Offer) tokenIdToOffer;\n  // NFT Id => Account Address => Bid\n  mapping(uint256 => mapping(address => uint256)) public offerBidsFromTokenId;\n  // NFT Id => Account Address => Index\n  mapping(uint256 => mapping(address => uint256)) indexOfofferBidsFromAddress;\n  // NFT Id => Address[]\n  mapping(uint256 => address[]) public addressesFromTokenId;\n\n  modifier hasOffers(uint256 tokenId) {\n    if (addressesFromTokenId[tokenId].length == 0) {\n      revert NotOffers();\n    }\n    _;\n  }\n\n  modifier isOwner(uint256 tokenId, address spender) {\n    IERC721 nft = IERC721(collection);\n    address owner = nft.ownerOf(tokenId);\n    if (spender != owner) {\n      revert NotOwner();\n    }\n    _;\n  }\n\n  event NewOffer(uint256 tokenId, address bidder, uint256 bid);\n  event Withdraw(uint256 tokenId, address bidder, uint256 bid);\n  event AcceptOffer(uint256 tokenId, address bidder, uint256 bid);\n\n  constructor(address _collection, address _nftVendor) {\n    collection = _collection;\n    nftVendor = NftVendor(_nftVendor);\n  }\n\n  function makeOffer(uint256 _tokenId) public payable {\n    // Ensure that the buyer is making a valid offer\n\n    require(msg.value > 0, 'Offer price is too low');\n\n    if (offerBidsFromTokenId[_tokenId][msg.sender] > 0) {\n      uint amount = offerBidsFromTokenId[_tokenId][msg.sender];\n      payable(msg.sender).transfer(amount);\n    }\n\n    // No offers made\n    if (tokenIdToOffer[_tokenId].highestBid == 0) {\n      IERC721 nft = IERC721(collection);\n      address owner = nft.ownerOf(_tokenId);\n      _createNftOffer(_tokenId, msg.value, owner);\n    } else {\n      require(\n        msg.value > tokenIdToOffer[_tokenId].highestBid,\n        'Offer price is too low'\n      );\n      _setOffer(_tokenId, msg.value);\n      tokenIdToOffer[_tokenId].highestBidder = msg.sender;\n      tokenIdToOffer[_tokenId].highestBid = msg.value;\n    }\n\n    emit NewOffer(_tokenId, msg.sender, msg.value);\n  }\n\n  function getAddressesBids(\n    uint256 _tokenId\n  ) public view returns (address[] memory) {\n    address[] memory bidders = addressesFromTokenId[_tokenId];\n    return bidders;\n  }\n\n  function getNftOffer(uint256 _tokenId) public view returns (Offer memory) {\n    Offer memory offer = tokenIdToOffer[_tokenId];\n    return offer;\n  }\n\n  function getCountNftOffers(uint256 _tokenId) public view returns (uint256) {\n    return addressesFromTokenId[_tokenId].length;\n  }\n\n  function withdraw(uint256 _tokenId) external payable returns (bool) {\n    require(\n      offerBidsFromTokenId[_tokenId][msg.sender] > 0,\n      'You must have a bid to be able to witdraw'\n    );\n\n    uint amount = offerBidsFromTokenId[_tokenId][msg.sender];\n    payable(msg.sender).transfer(amount);\n\n    _removeOffer(_tokenId, msg.sender);\n\n    if (tokenIdToOffer[_tokenId].highestBidder == msg.sender) {\n      tokenIdToOffer[_tokenId].highestBid = 0;\n      tokenIdToOffer[_tokenId].highestBidder = tokenIdToOffer[_tokenId].seller;\n      for (uint i = 0; i < addressesFromTokenId[_tokenId].length; i++) {\n        if (\n          offerBidsFromTokenId[_tokenId][addressesFromTokenId[_tokenId][i]] >\n          tokenIdToOffer[_tokenId].highestBid\n        ) {\n          tokenIdToOffer[_tokenId].highestBid = offerBidsFromTokenId[_tokenId][\n            addressesFromTokenId[_tokenId][i]\n          ];\n          tokenIdToOffer[_tokenId].highestBidder = addressesFromTokenId[\n            _tokenId\n          ][i];\n        }\n      }\n    }\n\n    emit Withdraw(_tokenId, msg.sender, amount);\n\n    return true;\n  }\n\n  function acceptOffer(\n    uint256 _tokenId\n  ) public payable isOwner(_tokenId, msg.sender) hasOffers(_tokenId) {\n    IERC721 nft = IERC721(collection);\n    if (nft.getApproved(_tokenId) != address(this)) {\n      revert NotApprovedForMarketplace();\n    }\n\n    address payable seller = payable(msg.sender);\n    uint256 highestBid = tokenIdToOffer[_tokenId].highestBid;\n    address highestBidder = tokenIdToOffer[_tokenId].highestBidder;\n    uint256 royalty;\n    bool excluded = nftVendor.isExcluded();\n\n    royalty = nftVendor.calculateRoyaltyForAcceptedOffer(_tokenId, highestBid);\n\n    if (excluded) {\n      seller.transfer(highestBid);\n    } else {\n      nftVendor._payTxFee(royalty);\n      seller.transfer(highestBid - royalty);\n    }\n\n    IERC721(collection).transferFrom(msg.sender, highestBidder, _tokenId);\n\n    _removeOffer(_tokenId, highestBidder);\n    delete tokenIdToOffer[_tokenId];\n\n    emit AcceptOffer(_tokenId, highestBidder, highestBid);\n  }\n\n  function _createNftOffer(\n    uint256 _tokenId,\n    uint256 _nftPrice,\n    address _seller\n  ) private {\n    // Sanity check that no inputs overflow how many bits we've allocated\n    // to store them in the auction struct.\n\n    _setOffer(_tokenId, _nftPrice);\n\n    Offer memory offer = Offer(_tokenId, _seller, _nftPrice, msg.sender);\n\n    _addAuction(_tokenId, offer);\n  }\n\n  function _removeOffer(uint256 _tokenId, address bidder) internal {\n    delete offerBidsFromTokenId[_tokenId][bidder];\n\n    uint index = indexOfofferBidsFromAddress[_tokenId][bidder];\n    uint lastIndex = addressesFromTokenId[_tokenId].length - 1;\n    address lastBidder = addressesFromTokenId[_tokenId][lastIndex];\n\n    indexOfofferBidsFromAddress[_tokenId][lastBidder] = index;\n    delete indexOfofferBidsFromAddress[_tokenId][bidder];\n\n    addressesFromTokenId[_tokenId][index] = lastBidder;\n    addressesFromTokenId[_tokenId].pop();\n  }\n\n  function _addAuction(uint256 _tokenId, Offer memory _offer) internal {\n    tokenIdToOffer[_tokenId] = _offer;\n  }\n\n  function _setOffer(uint256 _tokenId, uint256 offer) private {\n    offerBidsFromTokenId[_tokenId][msg.sender] = offer;\n    indexOfofferBidsFromAddress[_tokenId][msg.sender] = addressesFromTokenId[\n      _tokenId\n    ].length;\n    addressesFromTokenId[_tokenId].push(msg.sender);\n  }\n}\n",
  "sourcePath": "/Users/alberto/Desktop/Enalbis/caskchain/ethereum/contracts/NftOffers.sol",
  "compiler": {
    "name": "solc",
    "version": "0.8.17+commit.8df45f5f.Emscripten.clang"
  },
  "schemaVersion": "3.4.11",
  "updatedAt": "2023-02-21T23:00:07.771Z",
  "networkType": "ethereum",
  "devdoc": {
    "kind": "dev",
    "methods": {},
    "version": 1
  },
  "userdoc": {
    "kind": "user",
    "methods": {},
    "version": 1
  }
}