{
  "contractName": "CCNftData",
  "abi": [
    {
      "inputs": [],
      "stateMutability": "nonpayable",
      "type": "constructor"
    },
    {
      "anonymous": false,
      "inputs": [
        {
          "indexed": false,
          "internalType": "uint8",
          "name": "version",
          "type": "uint8"
        }
      ],
      "name": "Initialized",
      "type": "event"
    },
    {
      "anonymous": false,
      "inputs": [
        {
          "indexed": true,
          "internalType": "address",
          "name": "previousOwner",
          "type": "address"
        },
        {
          "indexed": true,
          "internalType": "address",
          "name": "newOwner",
          "type": "address"
        }
      ],
      "name": "OwnershipTransferred",
      "type": "event"
    },
    {
      "inputs": [
        {
          "internalType": "uint256",
          "name": "",
          "type": "uint256"
        }
      ],
      "name": "_allNfts",
      "outputs": [
        {
          "internalType": "uint256",
          "name": "",
          "type": "uint256"
        }
      ],
      "stateMutability": "view",
      "type": "function",
      "constant": true
    },
    {
      "inputs": [
        {
          "internalType": "uint256",
          "name": "",
          "type": "uint256"
        }
      ],
      "name": "_idToNftIndex",
      "outputs": [
        {
          "internalType": "uint256",
          "name": "",
          "type": "uint256"
        }
      ],
      "stateMutability": "view",
      "type": "function",
      "constant": true
    },
    {
      "inputs": [
        {
          "internalType": "uint256",
          "name": "",
          "type": "uint256"
        }
      ],
      "name": "_idToNftItem",
      "outputs": [
        {
          "internalType": "uint256",
          "name": "tokenId",
          "type": "uint256"
        },
        {
          "internalType": "address",
          "name": "creator",
          "type": "address"
        }
      ],
      "stateMutability": "view",
      "type": "function",
      "constant": true
    },
    {
      "inputs": [
        {
          "internalType": "uint256",
          "name": "",
          "type": "uint256"
        }
      ],
      "name": "_idToOwnedIndex",
      "outputs": [
        {
          "internalType": "uint256",
          "name": "",
          "type": "uint256"
        }
      ],
      "stateMutability": "view",
      "type": "function",
      "constant": true
    },
    {
      "inputs": [],
      "name": "_nftItem",
      "outputs": [
        {
          "internalType": "uint256",
          "name": "tokenId",
          "type": "uint256"
        },
        {
          "internalType": "address",
          "name": "creator",
          "type": "address"
        }
      ],
      "stateMutability": "view",
      "type": "function",
      "constant": true
    },
    {
      "inputs": [
        {
          "internalType": "address",
          "name": "",
          "type": "address"
        },
        {
          "internalType": "uint256",
          "name": "",
          "type": "uint256"
        }
      ],
      "name": "_ownedTokens",
      "outputs": [
        {
          "internalType": "uint256",
          "name": "",
          "type": "uint256"
        }
      ],
      "stateMutability": "view",
      "type": "function",
      "constant": true
    },
    {
      "inputs": [
        {
          "internalType": "uint256",
          "name": "",
          "type": "uint256"
        },
        {
          "internalType": "uint256",
          "name": "",
          "type": "uint256"
        }
      ],
      "name": "_tokensExtractionsByYear",
      "outputs": [
        {
          "internalType": "uint256",
          "name": "",
          "type": "uint256"
        }
      ],
      "stateMutability": "view",
      "type": "function",
      "constant": true
    },
    {
      "inputs": [
        {
          "internalType": "string",
          "name": "",
          "type": "string"
        }
      ],
      "name": "_usedTokenURIs",
      "outputs": [
        {
          "internalType": "bool",
          "name": "",
          "type": "bool"
        }
      ],
      "stateMutability": "view",
      "type": "function",
      "constant": true
    },
    {
      "inputs": [],
      "name": "owner",
      "outputs": [
        {
          "internalType": "address",
          "name": "",
          "type": "address"
        }
      ],
      "stateMutability": "view",
      "type": "function",
      "constant": true
    },
    {
      "inputs": [],
      "name": "renounceOwnership",
      "outputs": [],
      "stateMutability": "nonpayable",
      "type": "function"
    },
    {
      "inputs": [
        {
          "internalType": "address",
          "name": "newOwner",
          "type": "address"
        }
      ],
      "name": "transferOwnership",
      "outputs": [],
      "stateMutability": "nonpayable",
      "type": "function"
    },
    {
      "inputs": [
        {
          "internalType": "uint256",
          "name": "tokenId",
          "type": "uint256"
        }
      ],
      "name": "pushAllNfts",
      "outputs": [],
      "stateMutability": "nonpayable",
      "type": "function"
    },
    {
      "inputs": [
        {
          "internalType": "uint256",
          "name": "index",
          "type": "uint256"
        },
        {
          "internalType": "uint256",
          "name": "tokenId",
          "type": "uint256"
        }
      ],
      "name": "setAllNftsTokenIdByIndex",
      "outputs": [],
      "stateMutability": "nonpayable",
      "type": "function"
    },
    {
      "inputs": [
        {
          "internalType": "uint256",
          "name": "tokenId",
          "type": "uint256"
        },
        {
          "internalType": "uint256",
          "name": "year",
          "type": "uint256"
        },
        {
          "internalType": "uint256",
          "name": "extractions",
          "type": "uint256"
        }
      ],
      "name": "setTokenExtractionsByYear",
      "outputs": [],
      "stateMutability": "nonpayable",
      "type": "function"
    },
    {
      "inputs": [
        {
          "internalType": "uint256",
          "name": "tokenId",
          "type": "uint256"
        },
        {
          "internalType": "uint256",
          "name": "index",
          "type": "uint256"
        }
      ],
      "name": "setIdToNftIndex",
      "outputs": [],
      "stateMutability": "nonpayable",
      "type": "function"
    },
    {
      "inputs": [
        {
          "internalType": "uint256",
          "name": "tokenId",
          "type": "uint256"
        },
        {
          "internalType": "address",
          "name": "creator",
          "type": "address"
        }
      ],
      "name": "setIdToNftItem",
      "outputs": [],
      "stateMutability": "nonpayable",
      "type": "function"
    },
    {
      "inputs": [
        {
          "internalType": "uint256",
          "name": "tokenId",
          "type": "uint256"
        },
        {
          "internalType": "address",
          "name": "creator",
          "type": "address"
        }
      ],
      "name": "setIdToNftCreator",
      "outputs": [],
      "stateMutability": "nonpayable",
      "type": "function"
    },
    {
      "inputs": [
        {
          "internalType": "string",
          "name": "tokenURI",
          "type": "string"
        }
      ],
      "name": "setUsedTokenURI",
      "outputs": [],
      "stateMutability": "nonpayable",
      "type": "function"
    },
    {
      "inputs": [
        {
          "internalType": "address",
          "name": "owner",
          "type": "address"
        },
        {
          "internalType": "uint256",
          "name": "tokenId",
          "type": "uint256"
        },
        {
          "internalType": "uint256",
          "name": "index",
          "type": "uint256"
        }
      ],
      "name": "setOwnedTokens",
      "outputs": [],
      "stateMutability": "nonpayable",
      "type": "function"
    },
    {
      "inputs": [
        {
          "internalType": "uint256",
          "name": "tokenId",
          "type": "uint256"
        },
        {
          "internalType": "uint256",
          "name": "index",
          "type": "uint256"
        }
      ],
      "name": "setIdToOwnedIndex",
      "outputs": [],
      "stateMutability": "nonpayable",
      "type": "function"
    },
    {
      "inputs": [],
      "name": "getAllNFTsLength",
      "outputs": [
        {
          "internalType": "uint256",
          "name": "",
          "type": "uint256"
        }
      ],
      "stateMutability": "view",
      "type": "function",
      "constant": true
    },
    {
      "inputs": [
        {
          "internalType": "uint256",
          "name": "tokenId",
          "type": "uint256"
        }
      ],
      "name": "getNftIndex",
      "outputs": [
        {
          "internalType": "uint256",
          "name": "",
          "type": "uint256"
        }
      ],
      "stateMutability": "view",
      "type": "function",
      "constant": true
    },
    {
      "inputs": [
        {
          "internalType": "uint256",
          "name": "index",
          "type": "uint256"
        }
      ],
      "name": "getTokenIdByIndex",
      "outputs": [
        {
          "internalType": "uint256",
          "name": "",
          "type": "uint256"
        }
      ],
      "stateMutability": "view",
      "type": "function",
      "constant": true
    },
    {
      "inputs": [
        {
          "internalType": "address",
          "name": "owner",
          "type": "address"
        },
        {
          "internalType": "uint256",
          "name": "tokenId",
          "type": "uint256"
        }
      ],
      "name": "getOwnedTokens",
      "outputs": [
        {
          "internalType": "uint256",
          "name": "",
          "type": "uint256"
        }
      ],
      "stateMutability": "view",
      "type": "function",
      "constant": true
    },
    {
      "inputs": [
        {
          "internalType": "uint256",
          "name": "tokenId",
          "type": "uint256"
        }
      ],
      "name": "getIdToOwnedIndex",
      "outputs": [
        {
          "internalType": "uint256",
          "name": "",
          "type": "uint256"
        }
      ],
      "stateMutability": "view",
      "type": "function",
      "constant": true
    },
    {
      "inputs": [
        {
          "internalType": "uint256",
          "name": "tokenId",
          "type": "uint256"
        }
      ],
      "name": "getIdToNftItem",
      "outputs": [
        {
          "components": [
            {
              "internalType": "uint256",
              "name": "tokenId",
              "type": "uint256"
            },
            {
              "internalType": "address",
              "name": "creator",
              "type": "address"
            }
          ],
          "internalType": "struct CCNftData.NftItem",
          "name": "",
          "type": "tuple"
        }
      ],
      "stateMutability": "view",
      "type": "function",
      "constant": true
    },
    {
      "inputs": [
        {
          "internalType": "uint256",
          "name": "tokenId",
          "type": "uint256"
        }
      ],
      "name": "getNftCreator",
      "outputs": [
        {
          "internalType": "address",
          "name": "",
          "type": "address"
        }
      ],
      "stateMutability": "view",
      "type": "function",
      "constant": true
    },
    {
      "inputs": [
        {
          "internalType": "string",
          "name": "tokenURI",
          "type": "string"
        }
      ],
      "name": "getTokeURIUsed",
      "outputs": [
        {
          "internalType": "bool",
          "name": "",
          "type": "bool"
        }
      ],
      "stateMutability": "view",
      "type": "function",
      "constant": true
    },
    {
      "inputs": [
        {
          "internalType": "uint256",
          "name": "tokenId",
          "type": "uint256"
        }
      ],
      "name": "deleteIdToOwnedIndex",
      "outputs": [],
      "stateMutability": "nonpayable",
      "type": "function"
    },
    {
      "inputs": [
        {
          "internalType": "uint256",
          "name": "tokenId",
          "type": "uint256"
        }
      ],
      "name": "deleteIdToNftIndex",
      "outputs": [],
      "stateMutability": "nonpayable",
      "type": "function"
    },
    {
      "inputs": [
        {
          "internalType": "address",
          "name": "owner",
          "type": "address"
        },
        {
          "internalType": "uint256",
          "name": "tokenId",
          "type": "uint256"
        }
      ],
      "name": "deleteOwnedTokens",
      "outputs": [],
      "stateMutability": "nonpayable",
      "type": "function"
    },
    {
      "inputs": [],
      "name": "popAllNfts",
      "outputs": [],
      "stateMutability": "nonpayable",
      "type": "function"
    },
    {
      "inputs": [
        {
          "internalType": "uint256",
          "name": "tokenId",
          "type": "uint256"
        }
      ],
      "name": "getNftInfo",
      "outputs": [
        {
          "components": [
            {
              "internalType": "uint256",
              "name": "tokenId",
              "type": "uint256"
            },
            {
              "internalType": "address",
              "name": "creator",
              "type": "address"
            }
          ],
          "internalType": "struct CCNftData.NftItem",
          "name": "",
          "type": "tuple"
        }
      ],
      "stateMutability": "view",
      "type": "function",
      "constant": true
    },
    {
      "inputs": [
        {
          "internalType": "address",
          "name": "owner",
          "type": "address"
        },
        {
          "internalType": "uint256",
          "name": "index",
          "type": "uint256"
        }
      ],
      "name": "tokenOfOwnerByIndex",
      "outputs": [
        {
          "internalType": "uint256",
          "name": "",
          "type": "uint256"
        }
      ],
      "stateMutability": "view",
      "type": "function",
      "constant": true
    },
    {
      "inputs": [
        {
          "internalType": "uint256",
          "name": "index",
          "type": "uint256"
        }
      ],
      "name": "getTokenByIndex",
      "outputs": [
        {
          "internalType": "uint256",
          "name": "",
          "type": "uint256"
        }
      ],
      "stateMutability": "view",
      "type": "function",
      "constant": true
    },
    {
      "inputs": [],
      "name": "getTotalSupply",
      "outputs": [
        {
          "internalType": "uint256",
          "name": "",
          "type": "uint256"
        }
      ],
      "stateMutability": "view",
      "type": "function",
      "constant": true
    }
  ],
  "bytecode": "0x608060405234801561001057600080fd5b50606580546001600160a01b03191633179055610cfe806100326000396000f3fe608060405234801561001057600080fd5b506004361061021c5760003560e01c80638da5cb5b11610125578063d5ec2d83116100ad578063e46226631161007c578063e462266314610584578063e74dd646146105ad578063f2fde38b146105cd578063f31c8489146105e0578063fcc73a7b146105f357600080fd5b8063d5ec2d8314610464578063dab1070514610531578063dc42e96e14610539578063dc67508e1461055957600080fd5b8063c76337e8116100f4578063c76337e8146104f8578063c87bed431461025c578063c8e235ae1461050b578063d462eb9f146104f0578063d56e8ed81461051e57600080fd5b80638da5cb5b1461043f5780639d11209814610464578063aeb69454146104dd578063c4e41b22146104f057600080fd5b806358cc35f4116101a857806371ca79c51161017757806371ca79c5146103c357806375e05b88146103d6578063776eba961461040657806382b9ec691461041957806387eef8a51461042c57600080fd5b806358cc35f414610382578063644b7a43146103955780636d747b41146103a8578063715018a6146103bb57600080fd5b806349f202ff116101ef57806349f202ff146102b25780634c10f814146102c55780634de47d60146102f95780634ebce05d146103195780634f3c5f061461035757600080fd5b80632001b88514610221578063273f4b07146102475780632f745c591461025c578063382816a314610292575b600080fd5b61023461022f366004610a78565b610606565b6040519081526020015b60405180910390f35b61025a610255366004610a91565b610627565b005b61023461026a366004610acf565b6001600160a01b03919091166000908152606c60209081526040808320938352929052205490565b6102346102a0366004610a78565b6000908152606a602052604090205490565b6102346102c0366004610a78565b610641565b6066546067546102dc91906001600160a01b031682565b604080519283526001600160a01b0390911660208301520161023e565b610234610307366004610a78565b606a6020526000908152604090205481565b610347610327366004610b0f565b805160208183018101805160688252928201919093012091525460ff1681565b604051901515815260200161023e565b610234610365366004610acf565b606c60209081526000928352604080842090915290825290205481565b610347610390366004610b0f565b610668565b6102346103a3366004610a78565b610693565b61025a6103b6366004610a78565b6106fa565b61025a610713565b61025a6103d1366004610a91565b610727565b6102dc6103e4366004610a78565b606960205260009081526040902080546001909101546001600160a01b031682565b61025a610414366004610acf565b610753565b61025a610427366004610bc0565b610783565b61025a61043a366004610a78565b6107b1565b6033546001600160a01b03165b6040516001600160a01b03909116815260200161023e565b6104b9610472366004610a78565b604080518082019091526000808252602082015250600090815260696020908152604091829020825180840190935280548352600101546001600160a01b03169082015290565b60408051825181526020928301516001600160a01b0316928101929092520161023e565b61025a6104eb366004610b0f565b6107ca565b607054610234565b61025a610506366004610a78565b610807565b61025a610519366004610a91565b610844565b61025a61052c366004610bf3565b61085e565b61025a6108c8565b610234610547366004610a78565b606b6020526000908152604090205481565b610234610567366004610a91565b606d60209081526000928352604080842090915290825290205481565b61044c610592366004610a78565b6000908152606e60205260409020546001600160a01b031690565b6102346105bb366004610a78565b6000908152606b602052604090205490565b61025a6105db366004610c1f565b6108f9565b61025a6105ee366004610bf3565b610972565b61025a610601366004610c41565b6109a8565b6070818154811061061657600080fd5b600091825260209091200154905081565b61062f6109cc565b6000918252606b602052604090912055565b60006070828154811061065657610656610c6d565b90600052602060002001549050919050565b600060688260405161067a9190610c83565b9081526040519081900360200190205460ff1692915050565b600061069e60705490565b82106106e75760405162461bcd60e51b8152602060048201526013602482015272496e646578206f7574206f6620626f756e647360681b60448201526064015b60405180910390fd5b6070828154811061065657610656610c6d565b6107026109cc565b6000908152606a6020526040812055565b61071b6109cc565b6107256000610a26565b565b61072f6109cc565b806070838154811061074357610743610c6d565b6000918252602090912001555050565b61075b6109cc565b6001600160a01b039091166000908152606c6020908152604080832093835292905290812055565b61078b6109cc565b6001600160a01b039092166000908152606c602090815260408083209383529290522055565b6107b96109cc565b6000908152606b6020526040812055565b6107d26109cc565b60016068826040516107e49190610c83565b908152604051908190036020019020805491151560ff1990921691909117905550565b61080f6109cc565b607080546001810182556000919091527f8f6b23ffa15f0465e3176e15ca644cf24f86dc1312fe715484e3c4aead5eb78b0155565b61084c6109cc565b6000918252606a602052604090912055565b6108666109cc565b6040805180820182528381526001600160a01b0392831660209182018190526066859055606780546001600160a01b03199081169092178155600086815260699093529290912093845590546001939093018054939092169216919091179055565b6108d06109cc565b60708054806108e1576108e1610cb2565b60019003818190600052602060002001600090559055565b6109016109cc565b6001600160a01b0381166109665760405162461bcd60e51b815260206004820152602660248201527f4f776e61626c653a206e6577206f776e657220697320746865207a65726f206160448201526564647265737360d01b60648201526084016106de565b61096f81610a26565b50565b61097a6109cc565b6000918252606e602052604090912080546001600160a01b0319166001600160a01b03909216919091179055565b6109b06109cc565b6000928352606d60209081526040808520938552929052912055565b6033546001600160a01b031633146107255760405162461bcd60e51b815260206004820181905260248201527f4f776e61626c653a2063616c6c6572206973206e6f7420746865206f776e657260448201526064016106de565b603380546001600160a01b038381166001600160a01b0319831681179093556040519116919082907f8be0079c531659141344cd1fd0a4f28419497f9722a3daafe3b4186f6b6457e090600090a35050565b600060208284031215610a8a57600080fd5b5035919050565b60008060408385031215610aa457600080fd5b50508035926020909101359150565b80356001600160a01b0381168114610aca57600080fd5b919050565b60008060408385031215610ae257600080fd5b610aeb83610ab3565b946020939093013593505050565b634e487b7160e01b600052604160045260246000fd5b600060208284031215610b2157600080fd5b813567ffffffffffffffff80821115610b3957600080fd5b818401915084601f830112610b4d57600080fd5b813581811115610b5f57610b5f610af9565b604051601f8201601f19908116603f01168101908382118183101715610b8757610b87610af9565b81604052828152876020848701011115610ba057600080fd5b826020860160208301376000928101602001929092525095945050505050565b600080600060608486031215610bd557600080fd5b610bde84610ab3565b95602085013595506040909401359392505050565b60008060408385031215610c0657600080fd5b82359150610c1660208401610ab3565b90509250929050565b600060208284031215610c3157600080fd5b610c3a82610ab3565b9392505050565b600080600060608486031215610c5657600080fd5b505081359360208301359350604090920135919050565b634e487b7160e01b600052603260045260246000fd5b6000825160005b81811015610ca45760208186018101518583015201610c8a565b506000920191825250919050565b634e487b7160e01b600052603160045260246000fdfea2646970667358221220ece542f7314e5db630b93916a31be824ab541dc2311a173c13704091bb4ae81e64736f6c63430008110033",
  "immutableReferences": {},
  "source": "// SPDX-License-Identifier: MIT\npragma solidity ^0.8.0;\n\nimport \"@openzeppelin/contracts-upgradeable/access/OwnableUpgradeable.sol\";\n\ncontract CCNftData is OwnableUpgradeable {\n  address private _owner;\n\n  struct NftItem {\n    uint256 tokenId;\n    address creator;\n  }\n\n  NftItem public _nftItem;\n\n  // TokenURI => Bool (Is used?)\n  mapping(string => bool) public _usedTokenURIs;\n  // NFT id => NftItem\n  mapping(uint256 => NftItem) public _idToNftItem;\n  // NFT id => Index\n  mapping(uint256 => uint256) public _idToNftIndex;\n  // NFT id => ERC20 share\n  mapping(uint256 => uint256) public _idToOwnedIndex;\n  // Account address => NFT Id => Index\n  mapping(address => mapping(uint256 => uint256)) public _ownedTokens;\n  // NFT id => Year => Extractions\n  mapping(uint256 => mapping(uint256 => uint256))\n    public _tokensExtractionsByYear;\n  // NFT id => Address[]\n  mapping(uint256 => address) _idToNftCreator;\n  // Address => Booelan\n  mapping(uint256 => address[]) addressesFromTokenId;\n\n  uint256[] public _allNfts;\n\n  constructor() {\n    _owner = msg.sender;\n  }\n\n  function pushAllNfts(uint256 tokenId) external onlyOwner {\n    _allNfts.push(tokenId);\n  }\n\n  function setAllNftsTokenIdByIndex(\n    uint256 index,\n    uint256 tokenId\n  ) external onlyOwner {\n    _allNfts[index] = tokenId;\n  }\n\n  function setTokenExtractionsByYear(\n    uint256 tokenId,\n    uint256 year,\n    uint256 extractions\n  ) external onlyOwner {\n    _tokensExtractionsByYear[tokenId][year] = extractions;\n  }\n\n  function setIdToNftIndex(uint256 tokenId, uint256 index) external onlyOwner {\n    _idToNftIndex[tokenId] = index;\n  }\n\n  function setIdToNftItem(uint256 tokenId, address creator) external onlyOwner {\n    _nftItem = NftItem(tokenId, creator);\n    _idToNftItem[tokenId] = _nftItem;\n  }\n\n  function setIdToNftCreator(\n    uint256 tokenId,\n    address creator\n  ) external onlyOwner {\n    _idToNftCreator[tokenId] = creator;\n  }\n\n  function setUsedTokenURI(string memory tokenURI) external onlyOwner {\n    _usedTokenURIs[tokenURI] = true;\n  }\n\n  function setOwnedTokens(\n    address owner,\n    uint256 tokenId,\n    uint256 index\n  ) external onlyOwner {\n    _ownedTokens[owner][tokenId] = index;\n  }\n\n  function setIdToOwnedIndex(\n    uint256 tokenId,\n    uint256 index\n  ) external onlyOwner {\n    _idToOwnedIndex[tokenId] = index;\n  }\n\n  function getAllNFTsLength() external view returns (uint256) {\n    return _allNfts.length;\n  }\n\n  function getNftIndex(uint256 tokenId) external view returns (uint256) {\n    return _idToNftIndex[tokenId];\n  }\n\n  function getTokenIdByIndex(uint256 index) external view returns (uint256) {\n    return _allNfts[index];\n  }\n\n  function getOwnedTokens(\n    address owner,\n    uint256 tokenId\n  ) external view returns (uint256) {\n    return _ownedTokens[owner][tokenId];\n  }\n\n  function getIdToOwnedIndex(uint256 tokenId) external view returns (uint256) {\n    return _idToOwnedIndex[tokenId];\n  }\n\n  function getIdToNftItem(\n    uint256 tokenId\n  ) external view returns (NftItem memory) {\n    return _idToNftItem[tokenId];\n  }\n\n  function getNftCreator(uint256 tokenId) external view returns (address) {\n    return _idToNftCreator[tokenId];\n  }\n\n  function getTokeURIUsed(string memory tokenURI) external view returns (bool) {\n    return _usedTokenURIs[tokenURI];\n  }\n\n  function deleteIdToOwnedIndex(uint256 tokenId) external onlyOwner {\n    delete _idToOwnedIndex[tokenId];\n  }\n\n  function deleteIdToNftIndex(uint256 tokenId) external onlyOwner {\n    delete _idToNftIndex[tokenId];\n  }\n\n  function deleteOwnedTokens(\n    address owner,\n    uint256 tokenId\n  ) external onlyOwner {\n    delete _ownedTokens[owner][tokenId];\n  }\n\n  function popAllNfts() external onlyOwner {\n    _allNfts.pop();\n  }\n\n  function getNftInfo(uint256 tokenId) external view returns (NftItem memory) {\n    NftItem memory item = _idToNftItem[tokenId];\n    return item;\n  }\n\n  function tokenOfOwnerByIndex(\n    address owner,\n    uint index\n  ) public view returns (uint) {\n    return _ownedTokens[owner][index];\n  }\n\n  function getTokenByIndex(uint index) public view returns (uint) {\n    require(index < getTotalSupply(), \"Index out of bounds\");\n    return _allNfts[index];\n  }\n\n  function getTotalSupply() public view returns (uint256) {\n    return _allNfts.length;\n  }\n}\n",
  "sourcePath": "/Users/alberto/Desktop/Enalbis/caskchain-mono/apps/contracts/contracts/CCNftData.sol",
  "compiler": {
    "name": "solc",
    "version": "0.8.17+commit.8df45f5f.Emscripten.clang"
  },
  "schemaVersion": "3.4.11",
  "updatedAt": "2023-04-24T09:34:06.485Z",
  "networkType": "ethereum",
  "devdoc": {
    "kind": "dev",
    "methods": {
      "owner()": {
        "details": "Returns the address of the current owner."
      },
      "renounceOwnership()": {
        "details": "Leaves the contract without owner. It will not be possible to call `onlyOwner` functions anymore. Can only be called by the current owner. NOTE: Renouncing ownership will leave the contract without an owner, thereby removing any functionality that is only available to the owner."
      },
      "transferOwnership(address)": {
        "details": "Transfers ownership of the contract to a new account (`newOwner`). Can only be called by the current owner."
      }
    },
    "version": 1
  },
  "userdoc": {
    "kind": "user",
    "methods": {},
    "version": 1
  }
}