{
  "contractName": "CCNft",
  "abi": [
    {
      "anonymous": false,
      "inputs": [
        {
          "indexed": false,
          "internalType": "address",
          "name": "previousAdmin",
          "type": "address"
        },
        {
          "indexed": false,
          "internalType": "address",
          "name": "newAdmin",
          "type": "address"
        }
      ],
      "name": "AdminChanged",
      "type": "event"
    },
    {
      "anonymous": false,
      "inputs": [
        {
          "indexed": true,
          "internalType": "address",
          "name": "owner",
          "type": "address"
        },
        {
          "indexed": true,
          "internalType": "address",
          "name": "approved",
          "type": "address"
        },
        {
          "indexed": true,
          "internalType": "uint256",
          "name": "tokenId",
          "type": "uint256"
        }
      ],
      "name": "Approval",
      "type": "event"
    },
    {
      "anonymous": false,
      "inputs": [
        {
          "indexed": true,
          "internalType": "address",
          "name": "owner",
          "type": "address"
        },
        {
          "indexed": true,
          "internalType": "address",
          "name": "operator",
          "type": "address"
        },
        {
          "indexed": false,
          "internalType": "bool",
          "name": "approved",
          "type": "bool"
        }
      ],
      "name": "ApprovalForAll",
      "type": "event"
    },
    {
      "anonymous": false,
      "inputs": [
        {
          "indexed": true,
          "internalType": "address",
          "name": "beacon",
          "type": "address"
        }
      ],
      "name": "BeaconUpgraded",
      "type": "event"
    },
    {
      "anonymous": false,
      "inputs": [
        {
          "indexed": false,
          "internalType": "uint8",
          "name": "version",
          "type": "uint8"
        }
      ],
      "name": "Initialized",
      "type": "event"
    },
    {
      "anonymous": false,
      "inputs": [
        {
          "indexed": false,
          "internalType": "address",
          "name": "owner",
          "type": "address"
        },
        {
          "indexed": false,
          "internalType": "uint256",
          "name": "tokenId",
          "type": "uint256"
        },
        {
          "indexed": false,
          "internalType": "string",
          "name": "tokenURI",
          "type": "string"
        }
      ],
      "name": "Mint",
      "type": "event"
    },
    {
      "anonymous": false,
      "inputs": [
        {
          "indexed": false,
          "internalType": "uint256",
          "name": "tokenId",
          "type": "uint256"
        },
        {
          "indexed": false,
          "internalType": "address",
          "name": "creator",
          "type": "address"
        }
      ],
      "name": "NftItemCreated",
      "type": "event"
    },
    {
      "anonymous": false,
      "inputs": [
        {
          "indexed": true,
          "internalType": "address",
          "name": "previousOwner",
          "type": "address"
        },
        {
          "indexed": true,
          "internalType": "address",
          "name": "newOwner",
          "type": "address"
        }
      ],
      "name": "OwnershipTransferred",
      "type": "event"
    },
    {
      "anonymous": false,
      "inputs": [
        {
          "indexed": true,
          "internalType": "address",
          "name": "from",
          "type": "address"
        },
        {
          "indexed": true,
          "internalType": "address",
          "name": "to",
          "type": "address"
        },
        {
          "indexed": true,
          "internalType": "uint256",
          "name": "tokenId",
          "type": "uint256"
        }
      ],
      "name": "Transfer",
      "type": "event"
    },
    {
      "anonymous": false,
      "inputs": [
        {
          "indexed": true,
          "internalType": "address",
          "name": "implementation",
          "type": "address"
        }
      ],
      "name": "Upgraded",
      "type": "event"
    },
    {
      "inputs": [
        {
          "internalType": "address",
          "name": "to",
          "type": "address"
        },
        {
          "internalType": "uint256",
          "name": "tokenId",
          "type": "uint256"
        }
      ],
      "name": "approve",
      "outputs": [],
      "stateMutability": "nonpayable",
      "type": "function"
    },
    {
      "inputs": [
        {
          "internalType": "address",
          "name": "owner",
          "type": "address"
        }
      ],
      "name": "balanceOf",
      "outputs": [
        {
          "internalType": "uint256",
          "name": "",
          "type": "uint256"
        }
      ],
      "stateMutability": "view",
      "type": "function",
      "constant": true
    },
    {
      "inputs": [
        {
          "internalType": "uint256",
          "name": "tokenId",
          "type": "uint256"
        }
      ],
      "name": "getApproved",
      "outputs": [
        {
          "internalType": "address",
          "name": "",
          "type": "address"
        }
      ],
      "stateMutability": "view",
      "type": "function",
      "constant": true
    },
    {
      "inputs": [
        {
          "internalType": "address",
          "name": "owner",
          "type": "address"
        },
        {
          "internalType": "address",
          "name": "operator",
          "type": "address"
        }
      ],
      "name": "isApprovedForAll",
      "outputs": [
        {
          "internalType": "bool",
          "name": "",
          "type": "bool"
        }
      ],
      "stateMutability": "view",
      "type": "function",
      "constant": true
    },
    {
      "inputs": [],
      "name": "name",
      "outputs": [
        {
          "internalType": "string",
          "name": "",
          "type": "string"
        }
      ],
      "stateMutability": "view",
      "type": "function",
      "constant": true
    },
    {
      "inputs": [],
      "name": "owner",
      "outputs": [
        {
          "internalType": "address",
          "name": "",
          "type": "address"
        }
      ],
      "stateMutability": "view",
      "type": "function",
      "constant": true
    },
    {
      "inputs": [
        {
          "internalType": "uint256",
          "name": "tokenId",
          "type": "uint256"
        }
      ],
      "name": "ownerOf",
      "outputs": [
        {
          "internalType": "address",
          "name": "",
          "type": "address"
        }
      ],
      "stateMutability": "view",
      "type": "function",
      "constant": true
    },
    {
      "inputs": [],
      "name": "proxiableUUID",
      "outputs": [
        {
          "internalType": "bytes32",
          "name": "",
          "type": "bytes32"
        }
      ],
      "stateMutability": "view",
      "type": "function",
      "constant": true
    },
    {
      "inputs": [],
      "name": "renounceOwnership",
      "outputs": [],
      "stateMutability": "nonpayable",
      "type": "function"
    },
    {
      "inputs": [
        {
          "internalType": "uint256",
          "name": "_tokenId",
          "type": "uint256"
        },
        {
          "internalType": "uint256",
          "name": "_salePrice",
          "type": "uint256"
        }
      ],
      "name": "royaltyInfo",
      "outputs": [
        {
          "internalType": "address",
          "name": "",
          "type": "address"
        },
        {
          "internalType": "uint256",
          "name": "",
          "type": "uint256"
        }
      ],
      "stateMutability": "view",
      "type": "function",
      "constant": true
    },
    {
      "inputs": [
        {
          "internalType": "address",
          "name": "from",
          "type": "address"
        },
        {
          "internalType": "address",
          "name": "to",
          "type": "address"
        },
        {
          "internalType": "uint256",
          "name": "tokenId",
          "type": "uint256"
        }
      ],
      "name": "safeTransferFrom",
      "outputs": [],
      "stateMutability": "nonpayable",
      "type": "function"
    },
    {
      "inputs": [
        {
          "internalType": "address",
          "name": "from",
          "type": "address"
        },
        {
          "internalType": "address",
          "name": "to",
          "type": "address"
        },
        {
          "internalType": "uint256",
          "name": "tokenId",
          "type": "uint256"
        },
        {
          "internalType": "bytes",
          "name": "data",
          "type": "bytes"
        }
      ],
      "name": "safeTransferFrom",
      "outputs": [],
      "stateMutability": "nonpayable",
      "type": "function"
    },
    {
      "inputs": [
        {
          "internalType": "address",
          "name": "operator",
          "type": "address"
        },
        {
          "internalType": "bool",
          "name": "approved",
          "type": "bool"
        }
      ],
      "name": "setApprovalForAll",
      "outputs": [],
      "stateMutability": "nonpayable",
      "type": "function"
    },
    {
      "inputs": [],
      "name": "symbol",
      "outputs": [
        {
          "internalType": "string",
          "name": "",
          "type": "string"
        }
      ],
      "stateMutability": "view",
      "type": "function",
      "constant": true
    },
    {
      "inputs": [
        {
          "internalType": "uint256",
          "name": "tokenId",
          "type": "uint256"
        }
      ],
      "name": "tokenURI",
      "outputs": [
        {
          "internalType": "string",
          "name": "",
          "type": "string"
        }
      ],
      "stateMutability": "view",
      "type": "function",
      "constant": true
    },
    {
      "inputs": [
        {
          "internalType": "address",
          "name": "from",
          "type": "address"
        },
        {
          "internalType": "address",
          "name": "to",
          "type": "address"
        },
        {
          "internalType": "uint256",
          "name": "tokenId",
          "type": "uint256"
        }
      ],
      "name": "transferFrom",
      "outputs": [],
      "stateMutability": "nonpayable",
      "type": "function"
    },
    {
      "inputs": [
        {
          "internalType": "address",
          "name": "newOwner",
          "type": "address"
        }
      ],
      "name": "transferOwnership",
      "outputs": [],
      "stateMutability": "nonpayable",
      "type": "function"
    },
    {
      "inputs": [],
      "name": "txFeeToken",
      "outputs": [
        {
          "internalType": "address",
          "name": "",
          "type": "address"
        }
      ],
      "stateMutability": "view",
      "type": "function",
      "constant": true
    },
    {
      "inputs": [
        {
          "internalType": "address",
          "name": "newImplementation",
          "type": "address"
        }
      ],
      "name": "upgradeTo",
      "outputs": [],
      "stateMutability": "nonpayable",
      "type": "function"
    },
    {
      "inputs": [
        {
          "internalType": "address",
          "name": "newImplementation",
          "type": "address"
        },
        {
          "internalType": "bytes",
          "name": "data",
          "type": "bytes"
        }
      ],
      "name": "upgradeToAndCall",
      "outputs": [],
      "stateMutability": "payable",
      "type": "function",
      "payable": true
    },
    {
      "inputs": [
        {
          "internalType": "address",
          "name": "nftStorageAddress",
          "type": "address"
        }
      ],
      "name": "initialize",
      "outputs": [],
      "stateMutability": "nonpayable",
      "type": "function"
    },
    {
      "inputs": [
        {
          "internalType": "string",
          "name": "_tokenURI",
          "type": "string"
        }
      ],
      "name": "mintNFT",
      "outputs": [
        {
          "internalType": "uint256",
          "name": "",
          "type": "uint256"
        }
      ],
      "stateMutability": "nonpayable",
      "type": "function"
    },
    {
      "inputs": [
        {
          "internalType": "string",
          "name": "tokenURI",
          "type": "string"
        }
      ],
      "name": "checkIfTokenURIExists",
      "outputs": [
        {
          "internalType": "bool",
          "name": "",
          "type": "bool"
        }
      ],
      "stateMutability": "view",
      "type": "function",
      "constant": true
    },
    {
      "inputs": [
        {
          "internalType": "uint256",
          "name": "tokenId",
          "type": "uint256"
        }
      ],
      "name": "burn",
      "outputs": [],
      "stateMutability": "nonpayable",
      "type": "function"
    },
    {
      "inputs": [
        {
          "internalType": "uint256",
          "name": "tokenId",
          "type": "uint256"
        }
      ],
      "name": "getNftInfo",
      "outputs": [
        {
          "components": [
            {
              "internalType": "uint256",
              "name": "tokenId",
              "type": "uint256"
            },
            {
              "internalType": "address",
              "name": "creator",
              "type": "address"
            }
          ],
          "internalType": "struct CCNftData.NftItem",
          "name": "",
          "type": "tuple"
        }
      ],
      "stateMutability": "view",
      "type": "function",
      "constant": true
    },
    {
      "inputs": [],
      "name": "getAllNFTs",
      "outputs": [
        {
          "components": [
            {
              "internalType": "uint256",
              "name": "tokenId",
              "type": "uint256"
            },
            {
              "internalType": "address",
              "name": "creator",
              "type": "address"
            }
          ],
          "internalType": "struct CCNftData.NftItem[]",
          "name": "",
          "type": "tuple[]"
        }
      ],
      "stateMutability": "view",
      "type": "function",
      "constant": true
    },
    {
      "inputs": [
        {
          "internalType": "uint256[]",
          "name": "_tokensIds",
          "type": "uint256[]"
        }
      ],
      "name": "getAllNftsOnSale",
      "outputs": [
        {
          "components": [
            {
              "internalType": "uint256",
              "name": "tokenId",
              "type": "uint256"
            },
            {
              "internalType": "address",
              "name": "creator",
              "type": "address"
            }
          ],
          "internalType": "struct CCNftData.NftItem[]",
          "name": "",
          "type": "tuple[]"
        }
      ],
      "stateMutability": "view",
      "type": "function",
      "constant": true
    },
    {
      "inputs": [
        {
          "internalType": "uint256",
          "name": "ownedItemsCount",
          "type": "uint256"
        }
      ],
      "name": "getOwnedNfts",
      "outputs": [
        {
          "components": [
            {
              "internalType": "uint256",
              "name": "tokenId",
              "type": "uint256"
            },
            {
              "internalType": "address",
              "name": "creator",
              "type": "address"
            }
          ],
          "internalType": "struct CCNftData.NftItem[]",
          "name": "",
          "type": "tuple[]"
        }
      ],
      "stateMutability": "view",
      "type": "function",
      "constant": true
    },
    {
      "inputs": [
        {
          "internalType": "bytes4",
          "name": "interfaceId",
          "type": "bytes4"
        }
      ],
      "name": "supportsInterface",
      "outputs": [
        {
          "internalType": "bool",
          "name": "",
          "type": "bool"
        }
      ],
      "stateMutability": "view",
      "type": "function",
      "constant": true
    },
    {
      "inputs": [
        {
          "internalType": "address",
          "name": "owner",
          "type": "address"
        },
        {
          "internalType": "uint256",
          "name": "index",
          "type": "uint256"
        }
      ],
      "name": "tokenOfOwnerByIndex",
      "outputs": [
        {
          "internalType": "uint256",
          "name": "",
          "type": "uint256"
        }
      ],
      "stateMutability": "view",
      "type": "function",
      "constant": true
    }
  ],
  "bytecode": "0x60a06040523060805234801561001457600080fd5b50608051613e0261004c60003960008181610abc01528181610afc01528181610c9101528181610cd10152610d640152613e026000f3fe6080604052600436106101cd5760003560e01c8063715018a6116100f7578063c4d66de811610095578063e0391b0911610064578063e0391b091461055c578063e985e9c514610571578063f2fde38b146105ba578063fb37e883146105da57600080fd5b8063c4d66de8146104cf578063c87b56dd146104ef578063ca32232c1461050f578063d5ec2d831461052f57600080fd5b806395d89b41116100d157806395d89b411461045a5780639f60d9711461046f578063a22cb4651461048f578063b88d4fde146104af57600080fd5b8063715018a61461040557806377c567a71461041a5780638da5cb5b1461043b57600080fd5b80632f745c591161016f5780634f1ef2861161013e5780634f1ef2861461039d57806352d1902d146103b05780636352211e146103c557806370a08231146103e557600080fd5b80632f745c591461030f5780633659cfe61461033d57806342842e0e1461035d57806342966c681461037d57600080fd5b8063095ea7b3116101ab578063095ea7b31461026157806323b872dd146102835780632a55205a146102a35780632a7f2dff146102e257600080fd5b806301ffc9a7146101d257806306fdde0314610207578063081812fc14610229575b600080fd5b3480156101de57600080fd5b506101f26101ed3660046133a9565b6105fa565b60405190151581526020015b60405180910390f35b34801561021357600080fd5b5061021c61060b565b6040516101fe9190613416565b34801561023557600080fd5b50610249610244366004613429565b61069d565b6040516001600160a01b0390911681526020016101fe565b34801561026d57600080fd5b5061028161027c366004613457565b6106c4565b005b34801561028f57600080fd5b5061028161029e366004613483565b6107de565b3480156102af57600080fd5b506102c36102be3660046134c4565b61080f565b604080516001600160a01b0390931683526020830191909152016101fe565b3480156102ee57600080fd5b506103026102fd366004613429565b6108bb565b6040516101fe91906134e6565b34801561031b57600080fd5b5061032f61032a366004613457565b6109e6565b6040519081526020016101fe565b34801561034957600080fd5b50610281610358366004613546565b610ab2565b34801561036957600080fd5b50610281610378366004613483565b610b91565b34801561038957600080fd5b50610281610398366004613429565b610bac565b6102816103ab366004613622565b610c87565b3480156103bc57600080fd5b5061032f610d57565b3480156103d157600080fd5b506102496103e0366004613429565b610e0a565b3480156103f157600080fd5b5061032f610400366004613546565b610e6a565b34801561041157600080fd5b50610281610ef0565b34801561042657600080fd5b5061019254610249906001600160a01b031681565b34801561044757600080fd5b5061015f546001600160a01b0316610249565b34801561046657600080fd5b5061021c610f04565b34801561047b57600080fd5b506101f261048a366004613672565b610f13565b34801561049b57600080fd5b506102816104aa3660046136c9565b610f86565b3480156104bb57600080fd5b506102816104ca366004613702565b610f91565b3480156104db57600080fd5b506102816104ea366004613546565b610fc9565b3480156104fb57600080fd5b5061021c61050a366004613429565b611146565b34801561051b57600080fd5b5061030261052a36600461376e565b611256565b34801561053b57600080fd5b5061054f61054a366004613429565b6113df565b6040516101fe9190613814565b34801561056857600080fd5b5061030261151b565b34801561057d57600080fd5b506101f261058c366004613834565b6001600160a01b039182166000908152606a6020908152604080832093909416825291909152205460ff1690565b3480156105c657600080fd5b506102816105d5366004613546565b611715565b3480156105e657600080fd5b5061032f6105f5366004613672565b61178b565b600061060582611994565b92915050565b60606065805461061a90613862565b80601f016020809104026020016040519081016040528092919081815260200182805461064690613862565b80156106935780601f1061066857610100808354040283529160200191610693565b820191906000526020600020905b81548152906001019060200180831161067657829003601f168201915b5050505050905090565b60006106a8826119b9565b506000908152606960205260409020546001600160a01b031690565b60006106cf82610e0a565b9050806001600160a01b0316836001600160a01b0316036107415760405162461bcd60e51b815260206004820152602160248201527f4552433732313a20617070726f76616c20746f2063757272656e74206f776e656044820152603960f91b60648201526084015b60405180910390fd5b336001600160a01b038216148061075d575061075d813361058c565b6107cf5760405162461bcd60e51b815260206004820152603d60248201527f4552433732313a20617070726f76652063616c6c6572206973206e6f7420746f60448201527f6b656e206f776e6572206f7220617070726f76656420666f7220616c6c0000006064820152608401610738565b6107d98383611a18565b505050565b6107e83382611a86565b6108045760405162461bcd60e51b81526004016107389061389c565b6107d9838383611b04565b600082815260ca602090815260408083208151808301909252546001600160a01b038116808352600160a01b9091046001600160601b031692820192909252829161088457506040805180820190915260c9546001600160a01b0381168252600160a01b90046001600160601b031660208201525b6020810151600090612710906108a3906001600160601b0316876138ff565b6108ad919061392c565b915196919550909350505050565b606060008267ffffffffffffffff8111156108d8576108d8613563565b60405190808252806020026020018201604052801561091d57816020015b60408051808201909152600080825260208201528152602001906001900390816108f65790505b50905060005b838110156109df57600061093733836109e6565b610191546040516313a2241360e31b8152600481018390529192506000916001600160a01b0390911690639d112098906024016040805180830381865afa158015610986573d6000803e3d6000fd5b505050506040513d601f19601f820116820180604052508101906109aa919061394e565b9050808484815181106109bf576109bf6139a4565b6020026020010181905250505080806109d7906139ba565b915050610923565b5092915050565b60006109f183610e6a565b8210610a355760405162461bcd60e51b8152602060048201526013602482015272496e646578206f7574206f6620626f756e647360681b6044820152606401610738565b61019154604051632f745c5960e01b81526001600160a01b0385811660048301526024820185905290911690632f745c5990604401602060405180830381865afa158015610a87573d6000803e3d6000fd5b505050506040513d601f19601f82011682018060405250810190610aab91906139d3565b9392505050565b6001600160a01b037f0000000000000000000000000000000000000000000000000000000000000000163003610afa5760405162461bcd60e51b8152600401610738906139ec565b7f00000000000000000000000000000000000000000000000000000000000000006001600160a01b0316610b43600080516020613d86833981519152546001600160a01b031690565b6001600160a01b031614610b695760405162461bcd60e51b815260040161073890613a38565b610b7281611c75565b60408051600080825260208201909252610b8e91839190611c7d565b50565b6107d983838360405180602001604052806000815250610f91565b610bb4611de8565b6000818152606760205260409020546001600160a01b0316610c0f5760405162461bcd60e51b8152602060048201526014602482015273151bdad95b88191bd95cc81b9bdd08195e1a5cdd60621b6044820152606401610738565b33610c1982610e0a565b6001600160a01b031614610c6f5760405162461bcd60e51b815260206004820181905260248201527f4f776e61626c653a2063616c6c6572206973206e6f7420746865206f776e65726044820152606401610738565b600081815260ca6020526040812055610b8e81611e43565b6001600160a01b037f0000000000000000000000000000000000000000000000000000000000000000163003610ccf5760405162461bcd60e51b8152600401610738906139ec565b7f00000000000000000000000000000000000000000000000000000000000000006001600160a01b0316610d18600080516020613d86833981519152546001600160a01b031690565b6001600160a01b031614610d3e5760405162461bcd60e51b815260040161073890613a38565b610d4782611c75565b610d5382826001611c7d565b5050565b6000306001600160a01b037f00000000000000000000000000000000000000000000000000000000000000001614610df75760405162461bcd60e51b815260206004820152603860248201527f555550535570677261646561626c653a206d757374206e6f742062652063616c60448201527f6c6564207468726f7567682064656c656761746563616c6c00000000000000006064820152608401610738565b50600080516020613d8683398151915290565b6000818152606760205260408120546001600160a01b0316806106055760405162461bcd60e51b8152602060048201526018602482015277115490cdcc8c4e881a5b9d985b1a59081d1bdad95b88125160421b6044820152606401610738565b60006001600160a01b038216610ed45760405162461bcd60e51b815260206004820152602960248201527f4552433732313a2061646472657373207a65726f206973206e6f7420612076616044820152683634b21037bbb732b960b91b6064820152608401610738565b506001600160a01b031660009081526068602052604090205490565b610ef8611de8565b610f026000611e83565b565b60606066805461061a90613862565b610191546040516316330d7d60e21b81526000916001600160a01b0316906358cc35f490610f45908590600401613416565b602060405180830381865afa158015610f62573d6000803e3d6000fd5b505050506040513d601f19601f820116820180604052508101906106059190613a84565b610d53338383611ed6565b610f9b3383611a86565b610fb75760405162461bcd60e51b81526004016107389061389c565b610fc384848484611fa4565b50505050565b600054610100900460ff1615808015610fe95750600054600160ff909116105b806110035750303b158015611003575060005460ff166001145b6110665760405162461bcd60e51b815260206004820152602e60248201527f496e697469616c697a61626c653a20636f6e747261637420697320616c72656160448201526d191e481a5b9a5d1a585b1a5e995960921b6064820152608401610738565b6000805460ff191660011790558015611089576000805461ff0019166101001790555b6110d16040518060400160405280600881526020016710d85cdadcd3919560c21b8152506040518060400160405280600681526020016510d4d2d3919560d21b815250611fd7565b6110d9612008565b6110e161202f565b61019180546001600160a01b0319166001600160a01b0384161790558015610d53576000805461ff0019169055604051600181527f7f26b83ff96e1f2b6a682f133852f6798a09c465da95921460cefb38474024989060200160405180910390a15050565b6060611151826119b9565b6000828152609760205260408120805461116a90613862565b80601f016020809104026020016040519081016040528092919081815260200182805461119690613862565b80156111e35780601f106111b8576101008083540402835291602001916111e3565b820191906000526020600020905b8154815290600101906020018083116111c657829003601f168201915b50505050509050600061120160408051602081019091526000815290565b90508051600003611213575092915050565b81511561124557808260405160200161122d929190613aa1565b60405160208183030381529060405292505050919050565b61124e8461205e565b949350505050565b60606000825167ffffffffffffffff81111561127457611274613563565b6040519080825280602002602001820160405280156112b957816020015b60408051808201909152600080825260208201528152602001906001900390816112925790505b50905060005b83518110156109df57610191546040516349f202ff60e01b8152600481018390526000916001600160a01b0316906349f202ff90602401602060405180830381865afa158015611313573d6000803e3d6000fd5b505050506040513d601f19601f8201168201806040525081019061133791906139d3565b610191546040516313a2241360e31b8152600481018390529192506000916001600160a01b0390911690639d112098906024016040805180830381865afa158015611386573d6000803e3d6000fd5b505050506040513d601f19601f820116820180604052508101906113aa919061394e565b9050808484815181106113bf576113bf6139a4565b6020026020010181905250505080806113d7906139ba565b9150506112bf565b6040805180820190915260008082526020820152610193546040516331a9108f60e11b8152600481018490526000916001600160a01b031690636352211e90602401602060405180830381865afa15801561143e573d6000803e3d6000fd5b505050506040513d601f19601f820116820180604052508101906114629190613ad0565b6001600160a01b0316036114ad5760405162461bcd60e51b815260206004820152601260248201527113919508191bd95cc81b9bdd08195e1a5cdd60721b6044820152606401610738565b6101915460405163d5ec2d8360e01b8152600481018490526000916001600160a01b03169063d5ec2d83906024016040805180830381865afa1580156114f7573d6000803e3d6000fd5b505050506040513d601f19601f82011682018060405250810190610aab919061394e565b6060600061019160009054906101000a90046001600160a01b03166001600160a01b031663c4e41b226040518163ffffffff1660e01b8152600401602060405180830381865afa158015611573573d6000803e3d6000fd5b505050506040513d601f19601f8201168201806040525081019061159791906139d3565b905060008167ffffffffffffffff8111156115b4576115b4613563565b6040519080825280602002602001820160405280156115f957816020015b60408051808201909152600080825260208201528152602001906001900390816115d25790505b50905060005b828110156109df576101915460405163644b7a4360e01b8152600481018390526000916001600160a01b03169063644b7a4390602401602060405180830381865afa158015611652573d6000803e3d6000fd5b505050506040513d601f19601f8201168201806040525081019061167691906139d3565b610191546040516313a2241360e31b8152600481018390529192506001600160a01b031690639d112098906024016040805180830381865afa1580156116c0573d6000803e3d6000fd5b505050506040513d601f19601f820116820180604052508101906116e4919061394e565b8383815181106116f6576116f66139a4565b602002602001018190525050808061170d906139ba565b9150506115ff565b61171d611de8565b6001600160a01b0381166117825760405162461bcd60e51b815260206004820152602660248201527f4f776e61626c653a206e6577206f776e657220697320746865207a65726f206160448201526564647265737360d01b6064820152608401610738565b610b8e81611e83565b6000611795611de8565b60008251116117e65760405162461bcd60e51b815260206004820152601b60248201527f546f6b656e20555249206d757374206e6f7420626520656d70747900000000006044820152606401610738565b6117ef82610f13565b1561183c5760405162461bcd60e51b815260206004820152601860248201527f546f6b656e2055524920616c72656164792065786973747300000000000000006044820152606401610738565b61184b61019480546001019055565b60006118576101945490565b905061186333826120d1565b61186d81846120eb565b60006118784261217e565b6101915460405163fcc73a7b60e01b81526004810185905260248101839052600060448201529192506001600160a01b03169063fcc73a7b90606401600060405180830381600087803b1580156118ce57600080fd5b505af11580156118e2573d6000803e3d6000fd5b505061019154604051632bada51560e21b81526001600160a01b03909116925063aeb694549150611917908790600401613416565b600060405180830381600087803b15801561193157600080fd5b505af1158015611945573d6000803e3d6000fd5b505050506119528261219e565b7f85a66b9141978db9980f7e0ce3b468cebf4f7999f32b23091c5c03e798b1ba7a33838660405161198593929190613aed565b60405180910390a15092915050565b60006001600160e01b0319821663152a902d60e11b14806106055750610605826122a4565b6000818152606760205260409020546001600160a01b0316610b8e5760405162461bcd60e51b8152602060048201526018602482015277115490cdcc8c4e881a5b9d985b1a59081d1bdad95b88125160421b6044820152606401610738565b600081815260696020526040902080546001600160a01b0319166001600160a01b0384169081179091558190611a4d82610e0a565b6001600160a01b03167f8c5be1e5ebec7d5bd14f71427d1e84f3dd0314c0f7b2291e5b200ac8c7c3b92560405160405180910390a45050565b600080611a9283610e0a565b9050806001600160a01b0316846001600160a01b03161480611ad957506001600160a01b038082166000908152606a602090815260408083209388168352929052205460ff165b8061124e5750836001600160a01b0316611af28461069d565b6001600160a01b031614949350505050565b826001600160a01b0316611b1782610e0a565b6001600160a01b031614611b3d5760405162461bcd60e51b815260040161073890613b14565b6001600160a01b038216611b9f5760405162461bcd60e51b8152602060048201526024808201527f4552433732313a207472616e7366657220746f20746865207a65726f206164646044820152637265737360e01b6064820152608401610738565b611bac83838360016122f4565b826001600160a01b0316611bbf82610e0a565b6001600160a01b031614611be55760405162461bcd60e51b815260040161073890613b14565b600081815260696020908152604080832080546001600160a01b03199081169091556001600160a01b0387811680865260688552838620805460001901905590871680865283862080546001019055868652606790945282852080549092168417909155905184937fddf252ad1be2c89b69c2b068fc378daa952ba7f163c4a11628f55a4df523b3ef91a4505050565b610b8e611de8565b7f4910fdfa16fed3260ed0e7147f7cc6da11a60208b5b9406d12a635614ffd91435460ff1615611cb0576107d983612372565b826001600160a01b03166352d1902d6040518163ffffffff1660e01b8152600401602060405180830381865afa925050508015611d0a575060408051601f3d908101601f19168201909252611d07918101906139d3565b60015b611d6d5760405162461bcd60e51b815260206004820152602e60248201527f45524331393637557067726164653a206e657720696d706c656d656e7461746960448201526d6f6e206973206e6f74205555505360901b6064820152608401610738565b600080516020613d868339815191528114611ddc5760405162461bcd60e51b815260206004820152602960248201527f45524331393637557067726164653a20756e737570706f727465642070726f786044820152681a58589b195555525160ba1b6064820152608401610738565b506107d983838361240e565b61015f546001600160a01b03163314610f025760405162461bcd60e51b815260206004820181905260248201527f4f776e61626c653a2063616c6c6572206973206e6f7420746865206f776e65726044820152606401610738565b611e4c81612433565b60008181526097602052604090208054611e6590613862565b159050610b8e576000818152609760205260408120610b8e91613345565b61015f80546001600160a01b038381166001600160a01b0319831681179093556040519116919082907f8be0079c531659141344cd1fd0a4f28419497f9722a3daafe3b4186f6b6457e090600090a35050565b816001600160a01b0316836001600160a01b031603611f375760405162461bcd60e51b815260206004820152601960248201527f4552433732313a20617070726f766520746f2063616c6c6572000000000000006044820152606401610738565b6001600160a01b038381166000818152606a6020908152604080832094871680845294825291829020805460ff191686151590811790915591519182527f17307eab39ab6107e8899845ad3d59bd9653f200f220920489ca2b5937696c31910160405180910390a3505050565b611faf848484611b04565b611fbb848484846124d6565b610fc35760405162461bcd60e51b815260040161073890613b59565b600054610100900460ff16611ffe5760405162461bcd60e51b815260040161073890613bab565b610d5382826125d7565b600054610100900460ff16610f025760405162461bcd60e51b815260040161073890613bab565b600054610100900460ff166120565760405162461bcd60e51b815260040161073890613bab565b610f02612617565b6060612069826119b9565b600061208060408051602081019091526000815290565b905060008151116120a05760405180602001604052806000815250610aab565b806120aa84612647565b6040516020016120bb929190613aa1565b6040516020818303038152906040529392505050565b610d538282604051806020016040528060008152506126da565b6000828152606760205260409020546001600160a01b03166121665760405162461bcd60e51b815260206004820152602e60248201527f45524337323155524953746f726167653a2055524920736574206f66206e6f6e60448201526d32bc34b9ba32b73a103a37b5b2b760911b6064820152608401610738565b60008281526097602052604090206107d98282613c3c565b6000612195612190620151808461392c565b61270d565b50909392505050565b61019154604051631aadd1db60e31b8152600481018390523360248201526001600160a01b039091169063d56e8ed890604401600060405180830381600087803b1580156121eb57600080fd5b505af11580156121ff573d6000803e3d6000fd5b50506101915460405163f31c848960e01b8152600481018590523360248201526001600160a01b03909116925063f31c84899150604401600060405180830381600087803b15801561225057600080fd5b505af1158015612264573d6000803e3d6000fd5b5050604080518481523360208201527f93beb01ee4f5d2f89d0a0d55db47459601413c9ef0b552599f3ed68f27f82c79935001905060405180910390a150565b60006001600160e01b031982166380ac58cd60e01b14806122d557506001600160e01b03198216635b5e139f60e01b145b8061060557506301ffc9a760e01b6001600160e01b0319831614610605565b6001600160a01b0384166123105761230b826127a9565b612333565b826001600160a01b0316846001600160a01b0316146123335761233384836128e2565b6001600160a01b03831661234f5761234a82612b91565b610fc3565b836001600160a01b0316836001600160a01b031614610fc357610fc38383612e7c565b6001600160a01b0381163b6123df5760405162461bcd60e51b815260206004820152602d60248201527f455243313936373a206e657720696d706c656d656e746174696f6e206973206e60448201526c1bdd08184818dbdb9d1c9858dd609a1b6064820152608401610738565b600080516020613d8683398151915280546001600160a01b0319166001600160a01b0392909216919091179055565b61241783612f62565b6000825111806124245750805b156107d957610fc38383612fa2565b600061243e82610e0a565b905061244e8160008460016122f4565b61245782610e0a565b600083815260696020908152604080832080546001600160a01b03199081169091556001600160a01b0385168085526068845282852080546000190190558785526067909352818420805490911690555192935084927fddf252ad1be2c89b69c2b068fc378daa952ba7f163c4a11628f55a4df523b3ef908390a45050565b60006001600160a01b0384163b156125cc57604051630a85bd0160e11b81526001600160a01b0385169063150b7a029061251a903390899088908890600401613cfc565b6020604051808303816000875af1925050508015612555575060408051601f3d908101601f1916820190925261255291810190613d39565b60015b6125b2573d808015612583576040519150601f19603f3d011682016040523d82523d6000602084013e612588565b606091505b5080516000036125aa5760405162461bcd60e51b815260040161073890613b59565b805181602001fd5b6001600160e01b031916630a85bd0160e11b14905061124e565b506001949350505050565b600054610100900460ff166125fe5760405162461bcd60e51b815260040161073890613bab565b606561260a8382613c3c565b5060666107d98282613c3c565b600054610100900460ff1661263e5760405162461bcd60e51b815260040161073890613bab565b610f0233611e83565b6060600061265483613096565b600101905060008167ffffffffffffffff81111561267457612674613563565b6040519080825280601f01601f19166020018201604052801561269e576020820181803683370190505b5090508181016020015b600019016f181899199a1a9b1b9c1cb0b131b232b360811b600a86061a8153600a85049450846126a857509392505050565b6126e4838361316e565b6126f160008484846124d6565b6107d95760405162461bcd60e51b815260040161073890613b59565b60008080836226496581018262023ab1600483020590506004600362023ab18302010590910390600062164b09610fa0600185010205905060046105b58202058303601f019250600061098f846050028161276a5761276a613916565b0590506000605061098f83020585039050600b820560301994909401606402929092018301996002600c90940290910392909201975095509350505050565b610191546040805163d462eb9f60e01b815290516000926001600160a01b03169163d462eb9f9160048083019260209291908290030181865afa1580156127f4573d6000803e3d6000fd5b505050506040513d601f19601f8201168201806040525081019061281891906139d3565b610191546040516364711ad760e11b815260048101859052602481018390529192506001600160a01b03169063c8e235ae90604401600060405180830381600087803b15801561286757600080fd5b505af115801561287b573d6000803e3d6000fd5b5050610191546040516318ec66fd60e31b8152600481018690526001600160a01b03909116925063c76337e89150602401600060405180830381600087803b1580156128c657600080fd5b505af11580156128da573d6000803e3d6000fd5b505050505050565b600060016128ef84610e6a565b6128f99190613d56565b610191546040516373a6eb2360e11b8152600481018590529192506000916001600160a01b039091169063e74dd64690602401602060405180830381865afa158015612949573d6000803e3d6000fd5b505050506040513d601f19601f8201168201806040525081019061296d91906139d3565b9050818114612ac5576101915460405163c87bed4360e01b81526001600160a01b03868116600483015260248201859052600092169063c87bed4390604401602060405180830381865afa1580156129c9573d6000803e3d6000fd5b505050506040513d601f19601f820116820180604052508101906129ed91906139d3565b610191546040516382b9ec6960e01b81526001600160a01b03888116600483015260248201849052604482018690529293509116906382b9ec6990606401600060405180830381600087803b158015612a4557600080fd5b505af1158015612a59573d6000803e3d6000fd5b50506101915460405163273f4b0760e01b815260048101859052602481018690526001600160a01b03909116925063273f4b079150604401600060405180830381600087803b158015612aab57600080fd5b505af1158015612abf573d6000803e3d6000fd5b50505050505b610191546040516387eef8a560e01b8152600481018590526001600160a01b03909116906387eef8a590602401600060405180830381600087803b158015612b0c57600080fd5b505af1158015612b20573d6000803e3d6000fd5b505061019154604051633bb75d4b60e11b81526001600160a01b03888116600483015260248201879052909116925063776eba969150604401600060405180830381600087803b158015612b7357600080fd5b505af1158015612b87573d6000803e3d6000fd5b5050505050505050565b6000600161019160009054906101000a90046001600160a01b03166001600160a01b031663d462eb9f6040518163ffffffff1660e01b8152600401602060405180830381865afa158015612be9573d6000803e3d6000fd5b505050506040513d601f19601f82011682018060405250810190612c0d91906139d3565b612c179190613d56565b6101915460405163382816a360e01b8152600481018590529192506000916001600160a01b039091169063382816a390602401602060405180830381865afa158015612c67573d6000803e3d6000fd5b505050506040513d601f19601f82011682018060405250810190612c8b91906139d3565b610191546040516349f202ff60e01b8152600481018590529192506000916001600160a01b03909116906349f202ff90602401602060405180830381865afa158015612cdb573d6000803e3d6000fd5b505050506040513d601f19601f82011682018060405250810190612cff91906139d3565b610191546040516371ca79c560e01b815260048101859052602481018390529192506001600160a01b0316906371ca79c590604401600060405180830381600087803b158015612d4e57600080fd5b505af1158015612d62573d6000803e3d6000fd5b5050610191546040516364711ad760e11b815260048101859052602481018690526001600160a01b03909116925063c8e235ae9150604401600060405180830381600087803b158015612db457600080fd5b505af1158015612dc8573d6000803e3d6000fd5b505061019154604051636d747b4160e01b8152600481018890526001600160a01b039091169250636d747b419150602401600060405180830381600087803b158015612e1357600080fd5b505af1158015612e27573d6000803e3d6000fd5b5050505061019160009054906101000a90046001600160a01b03166001600160a01b031663dab107056040518163ffffffff1660e01b8152600401600060405180830381600087803b158015612b7357600080fd5b6000612e8783610e6a565b610191546040516382b9ec6960e01b81526001600160a01b03868116600483015260248201869052604482018490529293509116906382b9ec6990606401600060405180830381600087803b158015612edf57600080fd5b505af1158015612ef3573d6000803e3d6000fd5b50506101915460405163273f4b0760e01b815260048101869052602481018590526001600160a01b03909116925063273f4b079150604401600060405180830381600087803b158015612f4557600080fd5b505af1158015612f59573d6000803e3d6000fd5b50505050505050565b612f6b81612372565b6040516001600160a01b038216907fbc7cd75a20ee27fd9adebab32041f755214dbc6bffa90cc0225b39da2e5c2d3b90600090a250565b60606001600160a01b0383163b61300a5760405162461bcd60e51b815260206004820152602660248201527f416464726573733a2064656c65676174652063616c6c20746f206e6f6e2d636f6044820152651b9d1c9858dd60d21b6064820152608401610738565b600080846001600160a01b0316846040516130259190613d69565b600060405180830381855af49150503d8060008114613060576040519150601f19603f3d011682016040523d82523d6000602084013e613065565b606091505b509150915061308d8282604051806060016040528060278152602001613da660279139613307565b95945050505050565b60008072184f03e93ff9f4daa797ed6e38ed64bf6a1f0160401b83106130d55772184f03e93ff9f4daa797ed6e38ed64bf6a1f0160401b830492506040015b6d04ee2d6d415b85acef81000000008310613101576d04ee2d6d415b85acef8100000000830492506020015b662386f26fc10000831061311f57662386f26fc10000830492506010015b6305f5e1008310613137576305f5e100830492506008015b612710831061314b57612710830492506004015b6064831061315d576064830492506002015b600a83106106055760010192915050565b6001600160a01b0382166131c45760405162461bcd60e51b815260206004820181905260248201527f4552433732313a206d696e7420746f20746865207a65726f20616464726573736044820152606401610738565b6000818152606760205260409020546001600160a01b0316156132295760405162461bcd60e51b815260206004820152601c60248201527f4552433732313a20746f6b656e20616c7265616479206d696e746564000000006044820152606401610738565b6132376000838360016122f4565b6000818152606760205260409020546001600160a01b03161561329c5760405162461bcd60e51b815260206004820152601c60248201527f4552433732313a20746f6b656e20616c7265616479206d696e746564000000006044820152606401610738565b6001600160a01b038216600081815260686020908152604080832080546001019055848352606790915280822080546001600160a01b0319168417905551839291907fddf252ad1be2c89b69c2b068fc378daa952ba7f163c4a11628f55a4df523b3ef908290a45050565b60608315613316575081610aab565b610aab838381511561332b5781518083602001fd5b8060405162461bcd60e51b81526004016107389190613416565b50805461335190613862565b6000825580601f10613361575050565b601f016020900490600052602060002090810190610b8e91905b8082111561338f576000815560010161337b565b5090565b6001600160e01b031981168114610b8e57600080fd5b6000602082840312156133bb57600080fd5b8135610aab81613393565b60005b838110156133e15781810151838201526020016133c9565b50506000910152565b600081518084526134028160208601602086016133c6565b601f01601f19169290920160200192915050565b602081526000610aab60208301846133ea565b60006020828403121561343b57600080fd5b5035919050565b6001600160a01b0381168114610b8e57600080fd5b6000806040838503121561346a57600080fd5b823561347581613442565b946020939093013593505050565b60008060006060848603121561349857600080fd5b83356134a381613442565b925060208401356134b381613442565b929592945050506040919091013590565b600080604083850312156134d757600080fd5b50508035926020909101359150565b602080825282518282018190526000919060409081850190868401855b8281101561353957613529848351805182526020908101516001600160a01b0316910152565b9284019290850190600101613503565b5091979650505050505050565b60006020828403121561355857600080fd5b8135610aab81613442565b634e487b7160e01b600052604160045260246000fd5b604051601f8201601f1916810167ffffffffffffffff811182821017156135a2576135a2613563565b604052919050565b600067ffffffffffffffff8311156135c4576135c4613563565b6135d7601f8401601f1916602001613579565b90508281528383830111156135eb57600080fd5b828260208301376000602084830101529392505050565b600082601f83011261361357600080fd5b610aab838335602085016135aa565b6000806040838503121561363557600080fd5b823561364081613442565b9150602083013567ffffffffffffffff81111561365c57600080fd5b61366885828601613602565b9150509250929050565b60006020828403121561368457600080fd5b813567ffffffffffffffff81111561369b57600080fd5b8201601f810184136136ac57600080fd5b61124e848235602084016135aa565b8015158114610b8e57600080fd5b600080604083850312156136dc57600080fd5b82356136e781613442565b915060208301356136f7816136bb565b809150509250929050565b6000806000806080858703121561371857600080fd5b843561372381613442565b9350602085013561373381613442565b925060408501359150606085013567ffffffffffffffff81111561375657600080fd5b61376287828801613602565b91505092959194509250565b6000602080838503121561378157600080fd5b823567ffffffffffffffff8082111561379957600080fd5b818501915085601f8301126137ad57600080fd5b8135818111156137bf576137bf613563565b8060051b91506137d0848301613579565b81815291830184019184810190888411156137ea57600080fd5b938501935b83851015613808578435825293850193908501906137ef565b98975050505050505050565b815181526020808301516001600160a01b03169082015260408101610605565b6000806040838503121561384757600080fd5b823561385281613442565b915060208301356136f781613442565b600181811c9082168061387657607f821691505b60208210810361389657634e487b7160e01b600052602260045260246000fd5b50919050565b6020808252602d908201527f4552433732313a2063616c6c6572206973206e6f7420746f6b656e206f776e6560408201526c1c881bdc88185c1c1c9bdd9959609a1b606082015260800190565b634e487b7160e01b600052601160045260246000fd5b8082028115828204841417610605576106056138e9565b634e487b7160e01b600052601260045260246000fd5b60008261394957634e487b7160e01b600052601260045260246000fd5b500490565b60006040828403121561396057600080fd5b6040516040810181811067ffffffffffffffff8211171561398357613983613563565b60405282518152602083015161399881613442565b60208201529392505050565b634e487b7160e01b600052603260045260246000fd5b6000600182016139cc576139cc6138e9565b5060010190565b6000602082840312156139e557600080fd5b5051919050565b6020808252602c908201527f46756e6374696f6e206d7573742062652063616c6c6564207468726f7567682060408201526b19195b1959d85d1958d85b1b60a21b606082015260800190565b6020808252602c908201527f46756e6374696f6e206d7573742062652063616c6c6564207468726f7567682060408201526b6163746976652070726f787960a01b606082015260800190565b600060208284031215613a9657600080fd5b8151610aab816136bb565b60008351613ab38184602088016133c6565b835190830190613ac78183602088016133c6565b01949350505050565b600060208284031215613ae257600080fd5b8151610aab81613442565b60018060a01b038416815282602082015260606040820152600061308d60608301846133ea565b60208082526025908201527f4552433732313a207472616e736665722066726f6d20696e636f72726563742060408201526437bbb732b960d91b606082015260800190565b60208082526032908201527f4552433732313a207472616e7366657220746f206e6f6e20455243373231526560408201527131b2b4bb32b91034b6b83632b6b2b73a32b960711b606082015260800190565b6020808252602b908201527f496e697469616c697a61626c653a20636f6e7472616374206973206e6f74206960408201526a6e697469616c697a696e6760a81b606082015260800190565b601f8211156107d957600081815260208120601f850160051c81016020861015613c1d5750805b601f850160051c820191505b818110156128da57828155600101613c29565b815167ffffffffffffffff811115613c5657613c56613563565b613c6a81613c648454613862565b84613bf6565b602080601f831160018114613c9f5760008415613c875750858301515b600019600386901b1c1916600185901b1785556128da565b600085815260208120601f198616915b82811015613cce57888601518255948401946001909101908401613caf565b5085821015613cec5787850151600019600388901b60f8161c191681555b5050505050600190811b01905550565b6001600160a01b0385811682528416602082015260408101839052608060608201819052600090613d2f908301846133ea565b9695505050505050565b600060208284031215613d4b57600080fd5b8151610aab81613393565b81810381811115610605576106056138e9565b60008251613d7b8184602087016133c6565b919091019291505056fe360894a13ba1a3210667c828492db98dca3e2076cc3735a920a3ca505d382bbc416464726573733a206c6f772d6c6576656c2064656c65676174652063616c6c206661696c6564a26469706673582212205512146dfd3db183e0a3d0e97480434b5c63150296a3ccddb2957341912d488964736f6c63430008110033",
  "immutableReferences": {
    "739": [
      {
        "length": 32,
        "start": 2748
      },
      {
        "length": 32,
        "start": 2812
      },
      {
        "length": 32,
        "start": 3217
      },
      {
        "length": 32,
        "start": 3281
      },
      {
        "length": 32,
        "start": 3428
      }
    ]
  },
  "source": "// SPDX-License-Identifier: MIT\npragma solidity >=0.4.22 <0.9.0;\nimport \"@openzeppelin/contracts-upgradeable/proxy/utils/Initializable.sol\";\n\nimport \"@openzeppelin/contracts-upgradeable/token/common/ERC2981Upgradeable.sol\";\nimport \"@openzeppelin/contracts-upgradeable/token/ERC721/extensions/ERC721URIStorageUpgradeable.sol\";\nimport \"@openzeppelin/contracts-upgradeable/access/OwnableUpgradeable.sol\";\nimport \"@openzeppelin/contracts-upgradeable/utils/CountersUpgradeable.sol\";\nimport \"@openzeppelin/contracts-upgradeable/token/ERC20/IERC20Upgradeable.sol\";\nimport \"@openzeppelin/contracts-upgradeable/utils/math/SafeMathUpgradeable.sol\";\nimport \"@openzeppelin/contracts-upgradeable/proxy/utils/UUPSUpgradeable.sol\";\n\nimport \"./CCNftData.sol\";\n\ncontract CCNft is\n  Initializable,\n  ERC721URIStorageUpgradeable,\n  ERC2981Upgradeable,\n  UUPSUpgradeable,\n  OwnableUpgradeable\n{\n  using SafeMathUpgradeable for uint256;\n  using CountersUpgradeable for CountersUpgradeable.Counter;\n  CCNftData private _ccNftData;\n\n  struct ERC20Token {\n    address paytoken;\n    uint256 costvalue;\n  }\n\n  address public txFeeToken;\n\n  uint256 constant SECONDS_PER_DAY = 24 * 60 * 60;\n  int256 constant OFFSET19700101 = 2440588;\n\n  IERC721Upgradeable private _nft;\n  CountersUpgradeable.Counter private _tokenIds;\n\n  event Mint(address owner, uint256 tokenId, string tokenURI);\n\n  event NftItemCreated(uint256 tokenId, address creator);\n\n  // constructor() ERC721(\"CasksNFT\", \"CSKNFT\") {\n  //   _nft = IERC721(address(this));\n  // }\n\n  function initialize(address nftStorageAddress) public initializer {\n    __ERC721_init(\"CasksNFT\", \"CSKNFT\");\n    __UUPSUpgradeable_init();\n    __Ownable_init();\n    _ccNftData = CCNftData(nftStorageAddress);\n  }\n\n  function _authorizeUpgrade(address) internal override onlyOwner {}\n\n  /////////////////////\n  // Main Functions //\n  /////////////////////\n\n  function mintNFT(string memory _tokenURI) public onlyOwner returns (uint256) {\n    require(bytes(_tokenURI).length > 0, \"Token URI must not be empty\");\n    require(!checkIfTokenURIExists(_tokenURI), \"Token URI already exists\");\n\n    _tokenIds.increment();\n    uint256 newItemId = _tokenIds.current();\n\n    _safeMint(msg.sender, newItemId);\n    _setTokenURI(newItemId, _tokenURI);\n\n    uint256 year = getYear(block.timestamp);\n\n    _ccNftData.setTokenExtractionsByYear(newItemId, year, 0);\n    _ccNftData.setUsedTokenURI(_tokenURI);\n\n    _createNftItem(newItemId);\n\n    emit Mint(msg.sender, newItemId, _tokenURI);\n\n    return newItemId;\n  }\n\n  function checkIfTokenURIExists(\n    string memory tokenURI\n  ) public view returns (bool) {\n    return _ccNftData.getTokeURIUsed(tokenURI);\n  }\n\n  function burn(uint256 tokenId) public onlyOwner {\n    require(_exists(tokenId), \"Token does not exist\");\n    require(\n      ownerOf(tokenId) == _msgSender(),\n      \"Ownable: caller is not the owner\"\n    );\n    _resetTokenRoyalty(tokenId);\n    super._burn(tokenId);\n  }\n\n  function getNftInfo(\n    uint256 tokenId\n  ) external view returns (CCNftData.NftItem memory) {\n    require(_nft.ownerOf(tokenId) != address(0), \"NFT does not exist\");\n    CCNftData.NftItem memory item = _ccNftData.getNftInfo(tokenId);\n    return item;\n  }\n\n  function getAllNFTs() external view returns (CCNftData.NftItem[] memory) {\n    uint256 totalItemsCount = _ccNftData.getTotalSupply();\n    CCNftData.NftItem[] memory items = new CCNftData.NftItem[](totalItemsCount);\n\n    for (uint256 i = 0; i < totalItemsCount; i++) {\n      uint256 tokenId = _ccNftData.getTokenByIndex(i);\n      items[i] = _ccNftData.getIdToNftItem(tokenId);\n    }\n\n    return items;\n  }\n\n  function getAllNftsOnSale(\n    uint256[] memory _tokensIds\n  ) external view returns (CCNftData.NftItem[] memory) {\n    CCNftData.NftItem[] memory items = new CCNftData.NftItem[](\n      _tokensIds.length\n    );\n\n    for (uint256 i = 0; i < _tokensIds.length; i++) {\n      uint256 tokenId = _ccNftData.getTokenIdByIndex(i);\n      CCNftData.NftItem memory item = _ccNftData.getIdToNftItem(tokenId);\n      items[i] = item;\n    }\n\n    return items;\n  }\n\n  function getOwnedNfts(\n    uint256 ownedItemsCount\n  ) public view returns (CCNftData.NftItem[] memory) {\n    CCNftData.NftItem[] memory items = new CCNftData.NftItem[](ownedItemsCount);\n\n    for (uint256 i = 0; i < ownedItemsCount; i++) {\n      uint256 tokenId = tokenOfOwnerByIndex(msg.sender, i);\n      CCNftData.NftItem memory item = _ccNftData.getIdToNftItem(tokenId);\n      items[i] = item;\n    }\n\n    return items;\n  }\n\n  function supportsInterface(\n    bytes4 interfaceId\n  )\n    public\n    view\n    virtual\n    override(ERC721Upgradeable, ERC2981Upgradeable)\n    returns (bool)\n  {\n    return super.supportsInterface(interfaceId);\n  }\n\n  function tokenOfOwnerByIndex(\n    address owner,\n    uint index\n  ) public view returns (uint) {\n    require(index < ERC721Upgradeable.balanceOf(owner), \"Index out of bounds\");\n    return _ccNftData.tokenOfOwnerByIndex(owner, index);\n  }\n\n  function getYear(uint256 timestamp) internal pure returns (uint256 year) {\n    (year, , ) = _daysToDate(timestamp / SECONDS_PER_DAY);\n  }\n\n  function _createNftItem(uint _tokenId) private {\n    _ccNftData.setIdToNftItem(_tokenId, msg.sender);\n    _ccNftData.setIdToNftCreator(_tokenId, msg.sender);\n\n    emit NftItemCreated(_tokenId, msg.sender);\n  }\n\n  function _beforeTokenTransfer(\n    address from,\n    address to,\n    uint tokenId,\n    uint256 batchSize\n  ) internal virtual override {\n    super._beforeTokenTransfer(from, to, tokenId, batchSize);\n\n    if (from == address(0)) {\n      // MINTING CASE\n      _addTokenToAllTokensEnumeration(tokenId);\n    } else if (from != to) {\n      // TRANSFER CASE\n      _removeTokenFromOwnerEnumeration(from, tokenId);\n    }\n\n    if (to == address(0)) {\n      // BURNING CASE\n      _removeTokenFromAllTokensEnumeration(tokenId);\n    } else if (to != from) {\n      // TRANSFER CASE\n      _addTokenToOwnerEnumeration(to, tokenId);\n    }\n  }\n\n  function _addTokenToOwnerEnumeration(address to, uint tokenId) private {\n    uint index = ERC721Upgradeable.balanceOf(to);\n    _ccNftData.setOwnedTokens(to, tokenId, index);\n    _ccNftData.setIdToOwnedIndex(tokenId, index);\n  }\n\n  function _removeTokenFromOwnerEnumeration(\n    address from,\n    uint tokenId\n  ) private {\n    uint lastTokenIndex = ERC721Upgradeable.balanceOf(from) - 1;\n    uint tokenIndex = _ccNftData.getIdToOwnedIndex(tokenId);\n\n    if (tokenIndex != lastTokenIndex) {\n      uint lastTokenId = _ccNftData.getOwnedTokens(from, lastTokenIndex);\n\n      _ccNftData.setOwnedTokens(from, lastTokenId, tokenIndex);\n      _ccNftData.setIdToOwnedIndex(lastTokenId, tokenIndex);\n    }\n\n    _ccNftData.deleteIdToOwnedIndex(tokenId);\n    _ccNftData.deleteOwnedTokens(from, lastTokenIndex);\n  }\n\n  function _addTokenToAllTokensEnumeration(uint tokenId) private {\n    uint256 index = _ccNftData.getAllNFTsLength();\n    _ccNftData.setIdToNftIndex(tokenId, index);\n    _ccNftData.pushAllNfts(tokenId);\n  }\n\n  function _removeTokenFromAllTokensEnumeration(uint tokenId) private {\n    uint lastTokenIndex = _ccNftData.getAllNFTsLength() - 1;\n    uint tokenIndex = _ccNftData.getNftIndex(tokenId);\n    uint lastTokenId = _ccNftData.getTokenIdByIndex(lastTokenIndex);\n\n    _ccNftData.setAllNftsTokenIdByIndex(tokenIndex, lastTokenId);\n    _ccNftData.setIdToNftIndex(lastTokenId, tokenIndex);\n\n    _ccNftData.deleteIdToNftIndex(tokenId);\n    _ccNftData.popAllNfts();\n  }\n\n  function _daysToDate(\n    uint256 _days\n  ) internal pure returns (uint256 year, uint256 month, uint256 day) {\n    unchecked {\n      int256 __days = int256(_days);\n\n      int256 L = __days + 68569 + OFFSET19700101;\n      int256 N = (4 * L) / 146097;\n      L = L - (146097 * N + 3) / 4;\n      int256 _year = (4000 * (L + 1)) / 1461001;\n      L = L - (1461 * _year) / 4 + 31;\n      int256 _month = (80 * L) / 2447;\n      int256 _day = L - (2447 * _month) / 80;\n      L = _month / 11;\n      _month = _month + 2 - 12 * L;\n      _year = 100 * (N - 49) + _year + L;\n\n      year = uint256(_year);\n      month = uint256(_month);\n      day = uint256(_day);\n    }\n  }\n}\n",
  "sourcePath": "/Users/alberto/Desktop/Enalbis/caskchain-mono/apps/contracts/contracts/CCNft.sol",
  "compiler": {
    "name": "solc",
    "version": "0.8.17+commit.8df45f5f.Emscripten.clang"
  },
  "schemaVersion": "3.4.11",
  "updatedAt": "2023-04-24T09:34:06.468Z",
  "networkType": "ethereum",
  "devdoc": {
    "kind": "dev",
    "methods": {
      "approve(address,uint256)": {
        "details": "See {IERC721-approve}."
      },
      "balanceOf(address)": {
        "details": "See {IERC721-balanceOf}."
      },
      "getApproved(uint256)": {
        "details": "See {IERC721-getApproved}."
      },
      "isApprovedForAll(address,address)": {
        "details": "See {IERC721-isApprovedForAll}."
      },
      "name()": {
        "details": "See {IERC721Metadata-name}."
      },
      "owner()": {
        "details": "Returns the address of the current owner."
      },
      "ownerOf(uint256)": {
        "details": "See {IERC721-ownerOf}."
      },
      "proxiableUUID()": {
        "details": "Implementation of the ERC1822 {proxiableUUID} function. This returns the storage slot used by the implementation. It is used to validate the implementation's compatibility when performing an upgrade. IMPORTANT: A proxy pointing at a proxiable contract should not be considered proxiable itself, because this risks bricking a proxy that upgrades to it, by delegating to itself until out of gas. Thus it is critical that this function revert if invoked through a proxy. This is guaranteed by the `notDelegated` modifier."
      },
      "renounceOwnership()": {
        "details": "Leaves the contract without owner. It will not be possible to call `onlyOwner` functions anymore. Can only be called by the current owner. NOTE: Renouncing ownership will leave the contract without an owner, thereby removing any functionality that is only available to the owner."
      },
      "royaltyInfo(uint256,uint256)": {
        "details": "Returns how much royalty is owed and to whom, based on a sale price that may be denominated in any unit of exchange. The royalty amount is denominated and should be paid in that same unit of exchange."
      },
      "safeTransferFrom(address,address,uint256)": {
        "details": "See {IERC721-safeTransferFrom}."
      },
      "safeTransferFrom(address,address,uint256,bytes)": {
        "details": "See {IERC721-safeTransferFrom}."
      },
      "setApprovalForAll(address,bool)": {
        "details": "See {IERC721-setApprovalForAll}."
      },
      "symbol()": {
        "details": "See {IERC721Metadata-symbol}."
      },
      "tokenURI(uint256)": {
        "details": "See {IERC721Metadata-tokenURI}."
      },
      "transferFrom(address,address,uint256)": {
        "details": "See {IERC721-transferFrom}."
      },
      "transferOwnership(address)": {
        "details": "Transfers ownership of the contract to a new account (`newOwner`). Can only be called by the current owner."
      },
      "upgradeTo(address)": {
        "details": "Upgrade the implementation of the proxy to `newImplementation`. Calls {_authorizeUpgrade}. Emits an {Upgraded} event."
      },
      "upgradeToAndCall(address,bytes)": {
        "details": "Upgrade the implementation of the proxy to `newImplementation`, and subsequently execute the function call encoded in `data`. Calls {_authorizeUpgrade}. Emits an {Upgraded} event."
      }
    },
    "version": 1
  },
  "userdoc": {
    "kind": "user",
    "methods": {},
    "version": 1
  }
}