{
  "contractName": "CCNft",
  "abi": [
    {
      "inputs": [],
      "stateMutability": "nonpayable",
      "type": "constructor"
    },
    {
      "anonymous": false,
      "inputs": [
        {
          "indexed": true,
          "internalType": "address",
          "name": "owner",
          "type": "address"
        },
        {
          "indexed": true,
          "internalType": "address",
          "name": "approved",
          "type": "address"
        },
        {
          "indexed": true,
          "internalType": "uint256",
          "name": "tokenId",
          "type": "uint256"
        }
      ],
      "name": "Approval",
      "type": "event"
    },
    {
      "anonymous": false,
      "inputs": [
        {
          "indexed": true,
          "internalType": "address",
          "name": "owner",
          "type": "address"
        },
        {
          "indexed": true,
          "internalType": "address",
          "name": "operator",
          "type": "address"
        },
        {
          "indexed": false,
          "internalType": "bool",
          "name": "approved",
          "type": "bool"
        }
      ],
      "name": "ApprovalForAll",
      "type": "event"
    },
    {
      "anonymous": false,
      "inputs": [
        {
          "indexed": false,
          "internalType": "address",
          "name": "owner",
          "type": "address"
        },
        {
          "indexed": false,
          "internalType": "uint256",
          "name": "tokenId",
          "type": "uint256"
        },
        {
          "indexed": false,
          "internalType": "string",
          "name": "tokenURI",
          "type": "string"
        }
      ],
      "name": "Mint",
      "type": "event"
    },
    {
      "anonymous": false,
      "inputs": [
        {
          "indexed": false,
          "internalType": "uint256",
          "name": "tokenId",
          "type": "uint256"
        },
        {
          "indexed": false,
          "internalType": "address",
          "name": "creator",
          "type": "address"
        }
      ],
      "name": "NftItemCreated",
      "type": "event"
    },
    {
      "anonymous": false,
      "inputs": [
        {
          "indexed": true,
          "internalType": "address",
          "name": "previousOwner",
          "type": "address"
        },
        {
          "indexed": true,
          "internalType": "address",
          "name": "newOwner",
          "type": "address"
        }
      ],
      "name": "OwnershipTransferred",
      "type": "event"
    },
    {
      "anonymous": false,
      "inputs": [
        {
          "indexed": true,
          "internalType": "address",
          "name": "from",
          "type": "address"
        },
        {
          "indexed": true,
          "internalType": "address",
          "name": "to",
          "type": "address"
        },
        {
          "indexed": true,
          "internalType": "uint256",
          "name": "tokenId",
          "type": "uint256"
        }
      ],
      "name": "Transfer",
      "type": "event"
    },
    {
      "inputs": [],
      "name": "_minimumFee",
      "outputs": [
        {
          "internalType": "uint256",
          "name": "",
          "type": "uint256"
        }
      ],
      "stateMutability": "view",
      "type": "function",
      "constant": true
    },
    {
      "inputs": [
        {
          "internalType": "address",
          "name": "to",
          "type": "address"
        },
        {
          "internalType": "uint256",
          "name": "tokenId",
          "type": "uint256"
        }
      ],
      "name": "approve",
      "outputs": [],
      "stateMutability": "nonpayable",
      "type": "function"
    },
    {
      "inputs": [
        {
          "internalType": "address",
          "name": "owner",
          "type": "address"
        }
      ],
      "name": "balanceOf",
      "outputs": [
        {
          "internalType": "uint256",
          "name": "",
          "type": "uint256"
        }
      ],
      "stateMutability": "view",
      "type": "function",
      "constant": true
    },
    {
      "inputs": [],
      "name": "bottlePrice",
      "outputs": [
        {
          "internalType": "uint256",
          "name": "",
          "type": "uint256"
        }
      ],
      "stateMutability": "view",
      "type": "function",
      "constant": true
    },
    {
      "inputs": [
        {
          "internalType": "uint256",
          "name": "tokenId",
          "type": "uint256"
        }
      ],
      "name": "getApproved",
      "outputs": [
        {
          "internalType": "address",
          "name": "",
          "type": "address"
        }
      ],
      "stateMutability": "view",
      "type": "function",
      "constant": true
    },
    {
      "inputs": [
        {
          "internalType": "address",
          "name": "owner",
          "type": "address"
        },
        {
          "internalType": "address",
          "name": "operator",
          "type": "address"
        }
      ],
      "name": "isApprovedForAll",
      "outputs": [
        {
          "internalType": "bool",
          "name": "",
          "type": "bool"
        }
      ],
      "stateMutability": "view",
      "type": "function",
      "constant": true
    },
    {
      "inputs": [],
      "name": "name",
      "outputs": [
        {
          "internalType": "string",
          "name": "",
          "type": "string"
        }
      ],
      "stateMutability": "view",
      "type": "function",
      "constant": true
    },
    {
      "inputs": [],
      "name": "owner",
      "outputs": [
        {
          "internalType": "address",
          "name": "",
          "type": "address"
        }
      ],
      "stateMutability": "view",
      "type": "function",
      "constant": true
    },
    {
      "inputs": [
        {
          "internalType": "uint256",
          "name": "tokenId",
          "type": "uint256"
        }
      ],
      "name": "ownerOf",
      "outputs": [
        {
          "internalType": "address",
          "name": "",
          "type": "address"
        }
      ],
      "stateMutability": "view",
      "type": "function",
      "constant": true
    },
    {
      "inputs": [],
      "name": "paused",
      "outputs": [
        {
          "internalType": "bool",
          "name": "",
          "type": "bool"
        }
      ],
      "stateMutability": "view",
      "type": "function",
      "constant": true
    },
    {
      "inputs": [],
      "name": "renounceOwnership",
      "outputs": [],
      "stateMutability": "nonpayable",
      "type": "function"
    },
    {
      "inputs": [
        {
          "internalType": "uint256",
          "name": "_tokenId",
          "type": "uint256"
        },
        {
          "internalType": "uint256",
          "name": "_salePrice",
          "type": "uint256"
        }
      ],
      "name": "royaltyInfo",
      "outputs": [
        {
          "internalType": "address",
          "name": "",
          "type": "address"
        },
        {
          "internalType": "uint256",
          "name": "",
          "type": "uint256"
        }
      ],
      "stateMutability": "view",
      "type": "function",
      "constant": true
    },
    {
      "inputs": [
        {
          "internalType": "address",
          "name": "from",
          "type": "address"
        },
        {
          "internalType": "address",
          "name": "to",
          "type": "address"
        },
        {
          "internalType": "uint256",
          "name": "tokenId",
          "type": "uint256"
        }
      ],
      "name": "safeTransferFrom",
      "outputs": [],
      "stateMutability": "nonpayable",
      "type": "function"
    },
    {
      "inputs": [
        {
          "internalType": "address",
          "name": "from",
          "type": "address"
        },
        {
          "internalType": "address",
          "name": "to",
          "type": "address"
        },
        {
          "internalType": "uint256",
          "name": "tokenId",
          "type": "uint256"
        },
        {
          "internalType": "bytes",
          "name": "data",
          "type": "bytes"
        }
      ],
      "name": "safeTransferFrom",
      "outputs": [],
      "stateMutability": "nonpayable",
      "type": "function"
    },
    {
      "inputs": [
        {
          "internalType": "address",
          "name": "operator",
          "type": "address"
        },
        {
          "internalType": "bool",
          "name": "approved",
          "type": "bool"
        }
      ],
      "name": "setApprovalForAll",
      "outputs": [],
      "stateMutability": "nonpayable",
      "type": "function"
    },
    {
      "inputs": [],
      "name": "symbol",
      "outputs": [
        {
          "internalType": "string",
          "name": "",
          "type": "string"
        }
      ],
      "stateMutability": "view",
      "type": "function",
      "constant": true
    },
    {
      "inputs": [
        {
          "internalType": "uint256",
          "name": "tokenId",
          "type": "uint256"
        }
      ],
      "name": "tokenURI",
      "outputs": [
        {
          "internalType": "string",
          "name": "",
          "type": "string"
        }
      ],
      "stateMutability": "view",
      "type": "function",
      "constant": true
    },
    {
      "inputs": [
        {
          "internalType": "address",
          "name": "from",
          "type": "address"
        },
        {
          "internalType": "address",
          "name": "to",
          "type": "address"
        },
        {
          "internalType": "uint256",
          "name": "tokenId",
          "type": "uint256"
        }
      ],
      "name": "transferFrom",
      "outputs": [],
      "stateMutability": "nonpayable",
      "type": "function"
    },
    {
      "inputs": [
        {
          "internalType": "address",
          "name": "newOwner",
          "type": "address"
        }
      ],
      "name": "transferOwnership",
      "outputs": [],
      "stateMutability": "nonpayable",
      "type": "function"
    },
    {
      "inputs": [],
      "name": "txFeeToken",
      "outputs": [
        {
          "internalType": "address",
          "name": "",
          "type": "address"
        }
      ],
      "stateMutability": "view",
      "type": "function",
      "constant": true
    },
    {
      "inputs": [
        {
          "internalType": "string",
          "name": "tokenURI",
          "type": "string"
        }
      ],
      "name": "mintNFT",
      "outputs": [
        {
          "internalType": "uint256",
          "name": "",
          "type": "uint256"
        }
      ],
      "stateMutability": "nonpayable",
      "type": "function"
    },
    {
      "inputs": [
        {
          "internalType": "uint256",
          "name": "tokenId",
          "type": "uint256"
        }
      ],
      "name": "burn",
      "outputs": [],
      "stateMutability": "nonpayable",
      "type": "function"
    },
    {
      "inputs": [
        {
          "internalType": "uint256",
          "name": "tokenId",
          "type": "uint256"
        }
      ],
      "name": "getNftInfo",
      "outputs": [
        {
          "components": [
            {
              "internalType": "uint256",
              "name": "tokenId",
              "type": "uint256"
            },
            {
              "internalType": "address",
              "name": "creator",
              "type": "address"
            }
          ],
          "internalType": "struct CCNft.NftItem",
          "name": "",
          "type": "tuple"
        }
      ],
      "stateMutability": "view",
      "type": "function",
      "constant": true
    },
    {
      "inputs": [],
      "name": "getAllNFTs",
      "outputs": [
        {
          "components": [
            {
              "internalType": "uint256",
              "name": "tokenId",
              "type": "uint256"
            },
            {
              "internalType": "address",
              "name": "creator",
              "type": "address"
            }
          ],
          "internalType": "struct CCNft.NftItem[]",
          "name": "",
          "type": "tuple[]"
        }
      ],
      "stateMutability": "view",
      "type": "function",
      "constant": true
    },
    {
      "inputs": [
        {
          "internalType": "uint256[]",
          "name": "_tokensIds",
          "type": "uint256[]"
        }
      ],
      "name": "getAllNftsOnSale",
      "outputs": [
        {
          "components": [
            {
              "internalType": "uint256",
              "name": "tokenId",
              "type": "uint256"
            },
            {
              "internalType": "address",
              "name": "creator",
              "type": "address"
            }
          ],
          "internalType": "struct CCNft.NftItem[]",
          "name": "",
          "type": "tuple[]"
        }
      ],
      "stateMutability": "view",
      "type": "function",
      "constant": true
    },
    {
      "inputs": [],
      "name": "getOwnedNfts",
      "outputs": [
        {
          "components": [
            {
              "internalType": "uint256",
              "name": "tokenId",
              "type": "uint256"
            },
            {
              "internalType": "address",
              "name": "creator",
              "type": "address"
            }
          ],
          "internalType": "struct CCNft.NftItem[]",
          "name": "",
          "type": "tuple[]"
        }
      ],
      "stateMutability": "view",
      "type": "function",
      "constant": true
    },
    {
      "inputs": [
        {
          "internalType": "bytes4",
          "name": "interfaceId",
          "type": "bytes4"
        }
      ],
      "name": "supportsInterface",
      "outputs": [
        {
          "internalType": "bool",
          "name": "",
          "type": "bool"
        }
      ],
      "stateMutability": "view",
      "type": "function",
      "constant": true
    },
    {
      "inputs": [],
      "name": "totalSupply",
      "outputs": [
        {
          "internalType": "uint256",
          "name": "",
          "type": "uint256"
        }
      ],
      "stateMutability": "view",
      "type": "function",
      "constant": true
    },
    {
      "inputs": [
        {
          "internalType": "uint256",
          "name": "index",
          "type": "uint256"
        }
      ],
      "name": "tokenByIndex",
      "outputs": [
        {
          "internalType": "uint256",
          "name": "",
          "type": "uint256"
        }
      ],
      "stateMutability": "view",
      "type": "function",
      "constant": true
    },
    {
      "inputs": [
        {
          "internalType": "address",
          "name": "owner",
          "type": "address"
        },
        {
          "internalType": "uint256",
          "name": "index",
          "type": "uint256"
        }
      ],
      "name": "tokenOfOwnerByIndex",
      "outputs": [
        {
          "internalType": "uint256",
          "name": "",
          "type": "uint256"
        }
      ],
      "stateMutability": "view",
      "type": "function",
      "constant": true
    },
    {
      "inputs": [
        {
          "internalType": "uint256",
          "name": "_tokenId",
          "type": "uint256"
        }
      ],
      "name": "getNftCreator",
      "outputs": [
        {
          "internalType": "address",
          "name": "",
          "type": "address"
        }
      ],
      "stateMutability": "view",
      "type": "function",
      "constant": true
    }
  ],
  "bytecode": "0x6080604052662e2f6e5e148000600b5566470de4df820000600c55600d805460ff191690553480156200003157600080fd5b506040518060400160405280600881526020016710d85cdadcd3919560c21b8152506040518060400160405280600681526020016510d4d2d3919560d21b8152508160009081620000839190620001b0565b506001620000928282620001b0565b505050620000af620000a9620000b560201b60201c565b620000b9565b6200027c565b3390565b600980546001600160a01b038381166001600160a01b0319831681179093556040519116919082907f8be0079c531659141344cd1fd0a4f28419497f9722a3daafe3b4186f6b6457e090600090a35050565b634e487b7160e01b600052604160045260246000fd5b600181811c908216806200013657607f821691505b6020821081036200015757634e487b7160e01b600052602260045260246000fd5b50919050565b601f821115620001ab57600081815260208120601f850160051c81016020861015620001865750805b601f850160051c820191505b81811015620001a75782815560010162000192565b5050505b505050565b81516001600160401b03811115620001cc57620001cc6200010b565b620001e481620001dd845462000121565b846200015d565b602080601f8311600181146200021c5760008415620002035750858301515b600019600386901b1c1916600185901b178555620001a7565b600085815260208120601f198616915b828110156200024d578886015182559484019460019091019084016200022c565b50858210156200026c5787850151600019600388901b60f8161c191681555b5050505050600190811b01905550565b61277e806200028c6000396000f3fe608060405234801561001057600080fd5b50600436106101e55760003560e01c806370a082311161010f578063c87b56dd116100a2578063e462266311610071578063e46226631461044e578063e985e9c514610477578063f2fde38b146104b3578063fb37e883146104c657600080fd5b8063c87b56dd146103be578063ca32232c146103d1578063d5ec2d83146103e4578063e0391b091461044657600080fd5b80638da5cb5b116100de5780638da5cb5b1461037f57806395d89b4114610390578063a22cb46514610398578063b88d4fde146103ab57600080fd5b806370a082311461033c57806370cbcb431461034f578063715018a61461036457806377c567a71461036c57600080fd5b80632a55205a1161018757806342966c681161015657806342966c68146102f65780634f6ccce7146103095780635c975abb1461031c5780636352211e1461032957600080fd5b80632a55205a146102955780632f745c59146102c757806340fb561c146102da57806342842e0e146102e357600080fd5b8063095ea7b3116101c3578063095ea7b31461025257806318160ddd14610267578063203f12ce1461027957806323b872dd1461028257600080fd5b806301ffc9a7146101ea57806306fdde0314610212578063081812fc14610227575b600080fd5b6101fd6101f8366004611f2b565b6104d9565b60405190151581526020015b60405180910390f35b61021a6104ea565b6040516102099190611f98565b61023a610235366004611fab565b61057c565b6040516001600160a01b039091168152602001610209565b610265610260366004611fdb565b6105a3565b005b6017545b604051908152602001610209565b61026b600c5481565b610265610290366004612005565b6106bd565b6102a86102a3366004612041565b6106ee565b604080516001600160a01b039093168352602083019190915201610209565b61026b6102d5366004611fdb565b61079a565b61026b600b5481565b6102656102f1366004612005565b610812565b610265610304366004611fab565b61082d565b61026b610317366004611fab565b610852565b600d546101fd9060ff1681565b61023a610337366004611fab565b6108c6565b61026b61034a366004612063565b610926565b6103576109ac565b604051610209919061207e565b610265610aa7565b600a5461023a906001600160a01b031681565b6009546001600160a01b031661023a565b61021a610abb565b6102656103a63660046120de565b610aca565b6102656103b93660046121b9565b610ad9565b61021a6103cc366004611fab565b610b11565b6103576103df366004612235565b610c21565b6104396103f2366004611fab565b604080518082019091526000808252602082015250600090815260106020908152604091829020825180840190935280548352600101546001600160a01b03169082015290565b60405161020991906122db565b610357610d36565b61023a61045c366004611fab565b6000908152601560205260409020546001600160a01b031690565b6101fd6104853660046122fb565b6001600160a01b03918216600090815260056020908152604080832093909416825291909152205460ff1690565b6102656104c1366004612063565b610e3f565b61026b6104d436600461232e565b610eb5565b60006104e482610fe4565b92915050565b6060600080546104f990612377565b80601f016020809104026020016040519081016040528092919081815260200182805461052590612377565b80156105725780601f1061054757610100808354040283529160200191610572565b820191906000526020600020905b81548152906001019060200180831161055557829003601f168201915b5050505050905090565b600061058782611009565b506000908152600460205260409020546001600160a01b031690565b60006105ae826108c6565b9050806001600160a01b0316836001600160a01b0316036106205760405162461bcd60e51b815260206004820152602160248201527f4552433732313a20617070726f76616c20746f2063757272656e74206f776e656044820152603960f91b60648201526084015b60405180910390fd5b336001600160a01b038216148061063c575061063c8133610485565b6106ae5760405162461bcd60e51b815260206004820152603d60248201527f4552433732313a20617070726f76652063616c6c6572206973206e6f7420746f60448201527f6b656e206f776e6572206f7220617070726f76656420666f7220616c6c0000006064820152608401610617565b6106b88383611068565b505050565b6106c733826110d6565b6106e35760405162461bcd60e51b8152600401610617906123b1565b6106b8838383611154565b60008281526008602090815260408083208151808301909252546001600160a01b038116808352600160a01b9091046001600160601b03169282019290925282916107635750604080518082019091526007546001600160a01b0381168252600160a01b90046001600160601b031660208201525b602081015160009061271090610782906001600160601b031687612414565b61078c9190612441565b915196919550909350505050565b60006107a583610926565b82106107e95760405162461bcd60e51b8152602060048201526013602482015272496e646578206f7574206f6620626f756e647360681b6044820152606401610617565b506001600160a01b03919091166000908152601360209081526040808320938352929052205490565b6106b883838360405180602001604052806000815250610ad9565b6108356112c5565b61083e8161131f565b600090815260086020526040812055565b50565b600061085d60175490565b82106108a15760405162461bcd60e51b8152602060048201526013602482015272496e646578206f7574206f6620626f756e647360681b6044820152606401610617565b601782815481106108b4576108b4612463565b90600052602060002001549050919050565b6000818152600260205260408120546001600160a01b0316806104e45760405162461bcd60e51b8152602060048201526018602482015277115490cdcc8c4e881a5b9d985b1a59081d1bdad95b88125160421b6044820152606401610617565b60006001600160a01b0382166109905760405162461bcd60e51b815260206004820152602960248201527f4552433732313a2061646472657373207a65726f206973206e6f7420612076616044820152683634b21037bbb732b960b91b6064820152608401610617565b506001600160a01b031660009081526003602052604090205490565b606060006109b933610926565b905060008167ffffffffffffffff8111156109d6576109d661211a565b604051908082528060200260200182016040528015610a1b57816020015b60408051808201909152600080825260208201528152602001906001900390816109f45790505b50905060005b82811015610aa0576000610a35338361079a565b60008181526010602090815260409182902082518084019093528054835260018101546001600160a01b031691830191909152855192935091859085908110610a8057610a80612463565b602002602001018190525050508080610a9890612479565b915050610a21565b5092915050565b610aaf6112c5565b610ab9600061135f565b565b6060600180546104f990612377565b610ad53383836113b1565b5050565b610ae333836110d6565b610aff5760405162461bcd60e51b8152600401610617906123b1565b610b0b8484848461147f565b50505050565b6060610b1c82611009565b60008281526006602052604081208054610b3590612377565b80601f0160208091040260200160405190810160405280929190818152602001828054610b6190612377565b8015610bae5780601f10610b8357610100808354040283529160200191610bae565b820191906000526020600020905b815481529060010190602001808311610b9157829003601f168201915b505050505090506000610bcc60408051602081019091526000815290565b90508051600003610bde575092915050565b815115610c10578082604051602001610bf8929190612492565b60405160208183030381529060405292505050919050565b610c19846114b2565b949350505050565b6060600080835167ffffffffffffffff811115610c4057610c4061211a565b604051908082528060200260200182016040528015610c8557816020015b6040805180820190915260008082526020820152815260200190600190039081610c5e5790505b50905060005b8451811015610d2e57600060106000878481518110610cac57610cac612463565b602090810291909101810151825281810192909252604090810160002081518083019092528054825260018101546001600160a01b031692820192909252845191925090849086908110610d0257610d02612463565b6020908102919091010152610d186001856124c1565b9350508080610d2690612479565b915050610c8b565b509392505050565b60606000610d4360175490565b9050600080610d51600e5490565b67ffffffffffffffff811115610d6957610d6961211a565b604051908082528060200260200182016040528015610dae57816020015b6040805180820190915260008082526020820152815260200190600190039081610d875790505b50905060005b83811015610d2e576000610dc782610852565b60008181526010602090815260409182902082518084019093528054835260018101546001600160a01b031691830191909152855192935091859087908110610e1257610e12612463565b6020908102919091010152610e286001866124c1565b945050508080610e3790612479565b915050610db4565b610e476112c5565b6001600160a01b038116610eac5760405162461bcd60e51b815260206004820152602660248201527f4f776e61626c653a206e6577206f776e657220697320746865207a65726f206160448201526564647265737360d01b6064820152608401610617565b61084f8161135f565b6000610ebf6112c5565b610ec882611526565b15610f155760405162461bcd60e51b815260206004820152601860248201527f546f6b656e2055524920616c72656164792065786973747300000000000000006044820152606401610617565b610f23600e80546001019055565b6000610f2e600e5490565b90506000610f3b42611556565b9050610f473383611576565b610f518285611590565b610f5a82611623565b6001600f85604051610f6c91906124d4565b9081526040805160209281900383018120805460ff1916941515949094179093556000858152601483528181208582529092528120557f85a66b9141978db9980f7e0ce3b468cebf4f7999f32b23091c5c03e798b1ba7a90610fd3903390859088906124f0565b60405180910390a15090505b919050565b60006001600160e01b0319821663152a902d60e11b14806104e457506104e4826116b3565b6000818152600260205260409020546001600160a01b031661084f5760405162461bcd60e51b8152602060048201526018602482015277115490cdcc8c4e881a5b9d985b1a59081d1bdad95b88125160421b6044820152606401610617565b600081815260046020526040902080546001600160a01b0319166001600160a01b038416908117909155819061109d826108c6565b6001600160a01b03167f8c5be1e5ebec7d5bd14f71427d1e84f3dd0314c0f7b2291e5b200ac8c7c3b92560405160405180910390a45050565b6000806110e2836108c6565b9050806001600160a01b0316846001600160a01b0316148061112957506001600160a01b0380821660009081526005602090815260408083209388168352929052205460ff165b80610c195750836001600160a01b03166111428461057c565b6001600160a01b031614949350505050565b826001600160a01b0316611167826108c6565b6001600160a01b03161461118d5760405162461bcd60e51b815260040161061790612520565b6001600160a01b0382166111ef5760405162461bcd60e51b8152602060048201526024808201527f4552433732313a207472616e7366657220746f20746865207a65726f206164646044820152637265737360e01b6064820152608401610617565b6111fc8383836001611703565b826001600160a01b031661120f826108c6565b6001600160a01b0316146112355760405162461bcd60e51b815260040161061790612520565b600081815260046020908152604080832080546001600160a01b03199081169091556001600160a01b0387811680865260038552838620805460001901905590871680865283862080546001019055868652600290945282852080549092168417909155905184937fddf252ad1be2c89b69c2b068fc378daa952ba7f163c4a11628f55a4df523b3ef91a4505050565b6009546001600160a01b03163314610ab95760405162461bcd60e51b815260206004820181905260248201527f4f776e61626c653a2063616c6c6572206973206e6f7420746865206f776e65726044820152606401610617565b611328816117c0565b6000818152600660205260409020805461134190612377565b15905061084f57600081815260066020526040812061084f91611ec7565b600980546001600160a01b038381166001600160a01b0319831681179093556040519116919082907f8be0079c531659141344cd1fd0a4f28419497f9722a3daafe3b4186f6b6457e090600090a35050565b816001600160a01b0316836001600160a01b0316036114125760405162461bcd60e51b815260206004820152601960248201527f4552433732313a20617070726f766520746f2063616c6c6572000000000000006044820152606401610617565b6001600160a01b03838116600081815260056020908152604080832094871680845294825291829020805460ff191686151590811790915591519182527f17307eab39ab6107e8899845ad3d59bd9653f200f220920489ca2b5937696c31910160405180910390a3505050565b61148a848484611154565b61149684848484611863565b610b0b5760405162461bcd60e51b815260040161061790612565565b60606114bd82611009565b60006114d460408051602081019091526000815290565b905060008151116114f4576040518060200160405280600081525061151f565b806114fe84611964565b60405160200161150f929190612492565b6040516020818303038152906040525b9392505050565b6000600f8260405161153891906124d4565b9081526040519081900360200190205460ff16151560011492915050565b600061156d6115686201518084612441565b6119f7565b50909392505050565b610ad5828260405180602001604052806000815250611a93565b6000828152600260205260409020546001600160a01b031661160b5760405162461bcd60e51b815260206004820152602e60248201527f45524337323155524953746f726167653a2055524920736574206f66206e6f6e60448201526d32bc34b9ba32b73a103a37b5b2b760911b6064820152608401610617565b60008281526006602052604090206106b88282612605565b604080518082018252828152336020808301828152600086815260108352858120945185559051600190940180546001600160a01b039095166001600160a01b031995861617905560158252849020805490931682179092558251848152918201527f93beb01ee4f5d2f89d0a0d55db47459601413c9ef0b552599f3ed68f27f82c79910160405180910390a150565b60006001600160e01b031982166380ac58cd60e01b14806116e457506001600160e01b03198216635b5e139f60e01b145b806104e457506301ffc9a760e01b6001600160e01b03198316146104e4565b6001600160a01b03841661175e5761175982601780546000838152601160205260408120829055600182018355919091527fc624b66cc0138b8fabc209247f72d758e1cf3343756d543badbf24212bed8c150155565b611781565b826001600160a01b0316846001600160a01b031614611781576117818483611ac6565b6001600160a01b03831661179d5761179882611b63565b610b0b565b836001600160a01b0316836001600160a01b031614610b0b57610b0b8383611c12565b60006117cb826108c6565b90506117db816000846001611703565b6117e4826108c6565b600083815260046020908152604080832080546001600160a01b03199081169091556001600160a01b0385168085526003845282852080546000190190558785526002909352818420805490911690555192935084927fddf252ad1be2c89b69c2b068fc378daa952ba7f163c4a11628f55a4df523b3ef908390a45050565b60006001600160a01b0384163b1561195957604051630a85bd0160e11b81526001600160a01b0385169063150b7a02906118a79033908990889088906004016126c5565b6020604051808303816000875af19250505080156118e2575060408051601f3d908101601f191682019092526118df91810190612702565b60015b61193f573d808015611910576040519150601f19603f3d011682016040523d82523d6000602084013e611915565b606091505b5080516000036119375760405162461bcd60e51b815260040161061790612565565b805181602001fd5b6001600160e01b031916630a85bd0160e11b149050610c19565b506001949350505050565b6060600061197183611c56565b600101905060008167ffffffffffffffff8111156119915761199161211a565b6040519080825280601f01601f1916602001820160405280156119bb576020820181803683370190505b5090508181016020015b600019016f181899199a1a9b1b9c1cb0b131b232b360811b600a86061a8153600a85049450846119c557509392505050565b60008080836226496581018262023ab1600483020590506004600362023ab18302010590910390600062164b09610fa0600185010205905060046105b58202058303601f019250600061098f8460500281611a5457611a5461242b565b0590506000605061098f83020585039050600b820560301994909401606402929092018301996002600c90940290910392909201975095509350505050565b611a9d8383611d2e565b611aaa6000848484611863565b6106b85760405162461bcd60e51b815260040161061790612565565b60006001611ad384610926565b611add919061271f565b600083815260126020526040902054909150808214611b30576001600160a01b03841660009081526013602090815260408083208584528252808320548484528184208190558352601290915290208190555b5060009182526012602090815260408084208490556001600160a01b039094168352601381528383209183525290812055565b601754600090611b759060019061271f565b60008381526011602052604081205460178054939450909284908110611b9d57611b9d612463565b906000526020600020015490508060178381548110611bbe57611bbe612463565b6000918252602080832090910192909255828152601190915260408082208490558582528120556017805480611bf657611bf6612732565b6001900381819060005260206000200160009055905550505050565b6000611c1d83610926565b6001600160a01b039093166000908152601360209081526040808320868452825280832085905593825260129052919091209190915550565b60008072184f03e93ff9f4daa797ed6e38ed64bf6a1f0160401b8310611c955772184f03e93ff9f4daa797ed6e38ed64bf6a1f0160401b830492506040015b6d04ee2d6d415b85acef81000000008310611cc1576d04ee2d6d415b85acef8100000000830492506020015b662386f26fc100008310611cdf57662386f26fc10000830492506010015b6305f5e1008310611cf7576305f5e100830492506008015b6127108310611d0b57612710830492506004015b60648310611d1d576064830492506002015b600a83106104e45760010192915050565b6001600160a01b038216611d845760405162461bcd60e51b815260206004820181905260248201527f4552433732313a206d696e7420746f20746865207a65726f20616464726573736044820152606401610617565b6000818152600260205260409020546001600160a01b031615611de95760405162461bcd60e51b815260206004820152601c60248201527f4552433732313a20746f6b656e20616c7265616479206d696e746564000000006044820152606401610617565b611df7600083836001611703565b6000818152600260205260409020546001600160a01b031615611e5c5760405162461bcd60e51b815260206004820152601c60248201527f4552433732313a20746f6b656e20616c7265616479206d696e746564000000006044820152606401610617565b6001600160a01b038216600081815260036020908152604080832080546001019055848352600290915280822080546001600160a01b0319168417905551839291907fddf252ad1be2c89b69c2b068fc378daa952ba7f163c4a11628f55a4df523b3ef908290a45050565b508054611ed390612377565b6000825580601f10611ee3575050565b601f01602090049060005260206000209081019061084f91905b80821115611f115760008155600101611efd565b5090565b6001600160e01b03198116811461084f57600080fd5b600060208284031215611f3d57600080fd5b813561151f81611f15565b60005b83811015611f63578181015183820152602001611f4b565b50506000910152565b60008151808452611f84816020860160208601611f48565b601f01601f19169290920160200192915050565b60208152600061151f6020830184611f6c565b600060208284031215611fbd57600080fd5b5035919050565b80356001600160a01b0381168114610fdf57600080fd5b60008060408385031215611fee57600080fd5b611ff783611fc4565b946020939093013593505050565b60008060006060848603121561201a57600080fd5b61202384611fc4565b925061203160208501611fc4565b9150604084013590509250925092565b6000806040838503121561205457600080fd5b50508035926020909101359150565b60006020828403121561207557600080fd5b61151f82611fc4565b602080825282518282018190526000919060409081850190868401855b828110156120d1576120c1848351805182526020908101516001600160a01b0316910152565b928401929085019060010161209b565b5091979650505050505050565b600080604083850312156120f157600080fd5b6120fa83611fc4565b91506020830135801515811461210f57600080fd5b809150509250929050565b634e487b7160e01b600052604160045260246000fd5b604051601f8201601f1916810167ffffffffffffffff811182821017156121595761215961211a565b604052919050565b600067ffffffffffffffff83111561217b5761217b61211a565b61218e601f8401601f1916602001612130565b90508281528383830111156121a257600080fd5b828260208301376000602084830101529392505050565b600080600080608085870312156121cf57600080fd5b6121d885611fc4565b93506121e660208601611fc4565b925060408501359150606085013567ffffffffffffffff81111561220957600080fd5b8501601f8101871361221a57600080fd5b61222987823560208401612161565b91505092959194509250565b6000602080838503121561224857600080fd5b823567ffffffffffffffff8082111561226057600080fd5b818501915085601f83011261227457600080fd5b8135818111156122865761228661211a565b8060051b9150612297848301612130565b81815291830184019184810190888411156122b157600080fd5b938501935b838510156122cf578435825293850193908501906122b6565b98975050505050505050565b815181526020808301516001600160a01b031690820152604081016104e4565b6000806040838503121561230e57600080fd5b61231783611fc4565b915061232560208401611fc4565b90509250929050565b60006020828403121561234057600080fd5b813567ffffffffffffffff81111561235757600080fd5b8201601f8101841361236857600080fd5b610c1984823560208401612161565b600181811c9082168061238b57607f821691505b6020821081036123ab57634e487b7160e01b600052602260045260246000fd5b50919050565b6020808252602d908201527f4552433732313a2063616c6c6572206973206e6f7420746f6b656e206f776e6560408201526c1c881bdc88185c1c1c9bdd9959609a1b606082015260800190565b634e487b7160e01b600052601160045260246000fd5b80820281158282048414176104e4576104e46123fe565b634e487b7160e01b600052601260045260246000fd5b60008261245e57634e487b7160e01b600052601260045260246000fd5b500490565b634e487b7160e01b600052603260045260246000fd5b60006001820161248b5761248b6123fe565b5060010190565b600083516124a4818460208801611f48565b8351908301906124b8818360208801611f48565b01949350505050565b808201808211156104e4576104e46123fe565b600082516124e6818460208701611f48565b9190910192915050565b60018060a01b03841681528260208201526060604082015260006125176060830184611f6c565b95945050505050565b60208082526025908201527f4552433732313a207472616e736665722066726f6d20696e636f72726563742060408201526437bbb732b960d91b606082015260800190565b60208082526032908201527f4552433732313a207472616e7366657220746f206e6f6e20455243373231526560408201527131b2b4bb32b91034b6b83632b6b2b73a32b960711b606082015260800190565b601f8211156106b857600081815260208120601f850160051c810160208610156125de5750805b601f850160051c820191505b818110156125fd578281556001016125ea565b505050505050565b815167ffffffffffffffff81111561261f5761261f61211a565b6126338161262d8454612377565b846125b7565b602080601f83116001811461266857600084156126505750858301515b600019600386901b1c1916600185901b1785556125fd565b600085815260208120601f198616915b8281101561269757888601518255948401946001909101908401612678565b50858210156126b55787850151600019600388901b60f8161c191681555b5050505050600190811b01905550565b6001600160a01b03858116825284166020820152604081018390526080606082018190526000906126f890830184611f6c565b9695505050505050565b60006020828403121561271457600080fd5b815161151f81611f15565b818103818111156104e4576104e46123fe565b634e487b7160e01b600052603160045260246000fdfea2646970667358221220d3a67bfaf7df567096f3d5e2cfde363e7ed57400894e79cc3954d21c7fa3638d64736f6c63430008110033",
  "immutableReferences": {},
  "source": "// SPDX-License-Identifier: MIT\npragma solidity >=0.4.22 <0.9.0;\n\nimport '@openzeppelin/contracts/token/common/ERC2981.sol';\nimport '@openzeppelin/contracts/token/ERC721/extensions/ERC721URIStorage.sol';\nimport '@openzeppelin/contracts/access/Ownable.sol';\nimport '@openzeppelin/contracts/utils/Counters.sol';\nimport '@openzeppelin/contracts/token/ERC20/IERC20.sol';\nimport '@openzeppelin/contracts/utils/math/SafeMath.sol';\nimport '@openzeppelin/contracts/token/ERC20/ERC20.sol';\n\ncontract CCNft is ERC721URIStorage, ERC2981, Ownable {\n  using SafeMath for uint256;\n  using Counters for Counters.Counter;\n\n  struct ERC20Token {\n    address paytoken;\n    uint256 costvalue;\n  }\n\n  struct NftItem {\n    uint256 tokenId;\n    address creator;\n  }\n\n  address public txFeeToken;\n  uint public bottlePrice = 0.013 ether;\n  uint public _minimumFee = 0.02 ether;\n  uint256 constant SECONDS_PER_DAY = 24 * 60 * 60;\n  int256 constant OFFSET19700101 = 2440588;\n  bool public paused = false;\n\n  Counters.Counter private _tokenIds;\n\n  // TokenURI => Bool (Is used?)\n  mapping(string => bool) private _usedTokenURIs;\n  // NFT id => NftItem\n  mapping(uint256 => NftItem) private _idToNftItem;\n  // NFT id => Index\n  mapping(uint256 => uint256) private _idToNftIndex;\n  // NFT id => ERC20 share\n  mapping(uint256 => uint256) private _idToOwnedIndex;\n  // Account address => NFT Id => Index\n  mapping(address => mapping(uint256 => uint256)) private _ownedTokens;\n  // NFT id => Year => Extractions\n  mapping(uint256 => mapping(uint256 => uint256))\n    private _tokensExtractionsByYear;\n  // NFT id => Address[]\n  mapping(uint256 => address) _idToNftCreator;\n  // Address => Booelan\n  mapping(uint256 => address[]) addressesFromTokenId;\n\n  uint256[] private _allNfts;\n\n  event Mint(address owner, uint256 tokenId, string tokenURI);\n\n  event NftItemCreated(uint256 tokenId, address creator);\n\n  constructor() ERC721('CasksNFT', 'CSKNFT') {}\n\n  /////////////////////\n  // Main Functions //\n  /////////////////////\n\n  function mintNFT(string memory tokenURI) public onlyOwner returns (uint256) {\n    require(!_tokenURIExists(tokenURI), 'Token URI already exists');\n\n    _tokenIds.increment();\n\n    uint256 newItemId = _tokenIds.current();\n    uint256 year = getYear(block.timestamp);\n\n    _safeMint(msg.sender, newItemId);\n\n    _setTokenURI(newItemId, tokenURI);\n    _createNftItem(newItemId);\n    _usedTokenURIs[tokenURI] = true;\n    _tokensExtractionsByYear[newItemId][year] = 0;\n\n    // _createNftOffer(newItemId, price, msg.sender);\n\n    emit Mint(msg.sender, newItemId, tokenURI);\n\n    return newItemId;\n  }\n\n  function burn(uint256 tokenId) public onlyOwner {\n    super._burn(tokenId);\n    _resetTokenRoyalty(tokenId);\n  }\n\n  function getNftInfo(uint256 tokenId) external view returns (NftItem memory) {\n    NftItem storage item = _idToNftItem[tokenId];\n    return item;\n  }\n\n  function getAllNFTs() external view returns (NftItem[] memory) {\n    uint allItemsCounts = totalSupply();\n    uint currentIndex = 0;\n    NftItem[] memory items = new NftItem[](_tokenIds.current());\n\n    for (uint i = 0; i < allItemsCounts; i++) {\n      uint tokenId = tokenByIndex(i);\n      NftItem storage item = _idToNftItem[tokenId];\n      items[currentIndex] = item;\n      currentIndex += 1;\n    }\n\n    return items;\n  }\n\n  function getAllNftsOnSale(\n    uint256[] memory _tokensIds\n  ) external view returns (NftItem[] memory) {\n    uint currentIndex = 0;\n    NftItem[] memory items = new NftItem[](_tokensIds.length);\n\n    for (uint i = 0; i < _tokensIds.length; i++) {\n      NftItem storage item = _idToNftItem[_tokensIds[i]];\n      items[currentIndex] = item;\n      currentIndex += 1;\n    }\n\n    return items;\n  }\n\n  function getOwnedNfts() public view returns (NftItem[] memory) {\n    uint ownedItemsCount = ERC721.balanceOf(msg.sender);\n    NftItem[] memory items = new NftItem[](ownedItemsCount);\n\n    for (uint i = 0; i < ownedItemsCount; i++) {\n      uint tokenId = tokenOfOwnerByIndex(msg.sender, i);\n      NftItem storage item = _idToNftItem[tokenId];\n      items[i] = item;\n    }\n\n    return items;\n  }\n\n  function supportsInterface(\n    bytes4 interfaceId\n  ) public view virtual override(ERC721, ERC2981) returns (bool) {\n    return super.supportsInterface(interfaceId);\n  }\n\n  function totalSupply() public view returns (uint256) {\n    return _allNfts.length;\n  }\n\n  function tokenByIndex(uint index) public view returns (uint) {\n    require(index < totalSupply(), 'Index out of bounds');\n    return _allNfts[index];\n  }\n\n  function tokenOfOwnerByIndex(\n    address owner,\n    uint index\n  ) public view returns (uint) {\n    require(index < ERC721.balanceOf(owner), 'Index out of bounds');\n    return _ownedTokens[owner][index];\n  }\n\n  function getYear(uint256 timestamp) internal pure returns (uint256 year) {\n    (year, , ) = _daysToDate(timestamp / SECONDS_PER_DAY);\n  }\n\n  function _tokenURIExists(string memory tokenURI) private view returns (bool) {\n    return _usedTokenURIs[tokenURI] == true;\n  }\n\n  function _createNftItem(uint _tokenId) private {\n    _idToNftItem[_tokenId] = NftItem(_tokenId, msg.sender);\n    _idToNftCreator[_tokenId] = msg.sender;\n\n    emit NftItemCreated(_tokenId, msg.sender);\n  }\n\n  function getNftCreator(uint _tokenId) public view returns (address) {\n    return _idToNftCreator[_tokenId];\n  }\n\n  function _beforeTokenTransfer(\n    address from,\n    address to,\n    uint tokenId,\n    uint256 batchSize\n  ) internal virtual override {\n    super._beforeTokenTransfer(from, to, tokenId, batchSize);\n\n    if (from == address(0)) {\n      // MINTING CASE\n      _addTokenToAllTokensEnumeration(tokenId);\n    } else if (from != to) {\n      // TRANSFER CASE\n      _removeTokenFromOwnerEnumeration(from, tokenId);\n    }\n\n    if (to == address(0)) {\n      // BURNING CASE\n      _removeTokenFromAllTokensEnumeration(tokenId);\n    } else if (to != from) {\n      // TRANSFER CASE\n      _addTokenToOwnerEnumeration(to, tokenId);\n    }\n  }\n\n  function _addTokenToOwnerEnumeration(address to, uint tokenId) private {\n    uint length = ERC721.balanceOf(to);\n    _ownedTokens[to][length] = tokenId;\n    _idToOwnedIndex[tokenId] = length;\n  }\n\n  function _removeTokenFromOwnerEnumeration(\n    address from,\n    uint tokenId\n  ) private {\n    uint lastTokenIndex = ERC721.balanceOf(from) - 1;\n    uint tokenIndex = _idToOwnedIndex[tokenId];\n\n    if (tokenIndex != lastTokenIndex) {\n      uint lastTokenId = _ownedTokens[from][lastTokenIndex];\n\n      _ownedTokens[from][tokenIndex] = lastTokenId;\n      _idToOwnedIndex[lastTokenId] = tokenIndex;\n    }\n\n    delete _idToOwnedIndex[tokenId];\n    delete _ownedTokens[from][lastTokenIndex];\n  }\n\n  function _addTokenToAllTokensEnumeration(uint tokenId) private {\n    _idToNftIndex[tokenId] = _allNfts.length;\n    _allNfts.push(tokenId);\n  }\n\n  function _removeTokenFromAllTokensEnumeration(uint tokenId) private {\n    uint lastTokenIndex = _allNfts.length - 1;\n    uint tokenIndex = _idToNftIndex[tokenId];\n    uint lastTokenId = _allNfts[lastTokenIndex];\n\n    _allNfts[tokenIndex] = lastTokenId;\n    _idToNftIndex[lastTokenId] = tokenIndex;\n\n    delete _idToNftIndex[tokenId];\n    _allNfts.pop();\n  }\n\n  function _daysToDate(\n    uint256 _days\n  ) internal pure returns (uint256 year, uint256 month, uint256 day) {\n    unchecked {\n      int256 __days = int256(_days);\n\n      int256 L = __days + 68569 + OFFSET19700101;\n      int256 N = (4 * L) / 146097;\n      L = L - (146097 * N + 3) / 4;\n      int256 _year = (4000 * (L + 1)) / 1461001;\n      L = L - (1461 * _year) / 4 + 31;\n      int256 _month = (80 * L) / 2447;\n      int256 _day = L - (2447 * _month) / 80;\n      L = _month / 11;\n      _month = _month + 2 - 12 * L;\n      _year = 100 * (N - 49) + _year + L;\n\n      year = uint256(_year);\n      month = uint256(_month);\n      day = uint256(_day);\n    }\n  }\n}\n",
  "sourcePath": "/Users/alberto/Desktop/Enalbis/caskchain-mono/apps/contracts/contracts/CCNft.sol",
  "compiler": {
    "name": "solc",
    "version": "0.8.17+commit.8df45f5f.Emscripten.clang"
  },
  "schemaVersion": "3.4.11",
  "updatedAt": "2023-03-28T13:19:29.576Z",
  "networkType": "ethereum",
  "devdoc": {
    "kind": "dev",
    "methods": {
      "approve(address,uint256)": {
        "details": "See {IERC721-approve}."
      },
      "balanceOf(address)": {
        "details": "See {IERC721-balanceOf}."
      },
      "getApproved(uint256)": {
        "details": "See {IERC721-getApproved}."
      },
      "isApprovedForAll(address,address)": {
        "details": "See {IERC721-isApprovedForAll}."
      },
      "name()": {
        "details": "See {IERC721Metadata-name}."
      },
      "owner()": {
        "details": "Returns the address of the current owner."
      },
      "ownerOf(uint256)": {
        "details": "See {IERC721-ownerOf}."
      },
      "renounceOwnership()": {
        "details": "Leaves the contract without owner. It will not be possible to call `onlyOwner` functions anymore. Can only be called by the current owner. NOTE: Renouncing ownership will leave the contract without an owner, thereby removing any functionality that is only available to the owner."
      },
      "royaltyInfo(uint256,uint256)": {
        "details": "Returns how much royalty is owed and to whom, based on a sale price that may be denominated in any unit of exchange. The royalty amount is denominated and should be paid in that same unit of exchange."
      },
      "safeTransferFrom(address,address,uint256)": {
        "details": "See {IERC721-safeTransferFrom}."
      },
      "safeTransferFrom(address,address,uint256,bytes)": {
        "details": "See {IERC721-safeTransferFrom}."
      },
      "setApprovalForAll(address,bool)": {
        "details": "See {IERC721-setApprovalForAll}."
      },
      "symbol()": {
        "details": "See {IERC721Metadata-symbol}."
      },
      "tokenURI(uint256)": {
        "details": "See {IERC721Metadata-tokenURI}."
      },
      "transferFrom(address,address,uint256)": {
        "details": "See {IERC721-transferFrom}."
      },
      "transferOwnership(address)": {
        "details": "Transfers ownership of the contract to a new account (`newOwner`). Can only be called by the current owner."
      }
    },
    "version": 1
  },
  "userdoc": {
    "kind": "user",
    "methods": {},
    "version": 1
  }
}