{
  "contractName": "CCNftStorage",
  "abi": [
    {
      "anonymous": false,
      "inputs": [
        {
          "indexed": true,
          "internalType": "address",
          "name": "previousOwner",
          "type": "address"
        },
        {
          "indexed": true,
          "internalType": "address",
          "name": "newOwner",
          "type": "address"
        }
      ],
      "name": "OwnershipTransferred",
      "type": "event"
    },
    {
      "inputs": [
        {
          "internalType": "uint256",
          "name": "",
          "type": "uint256"
        }
      ],
      "name": "_allNfts",
      "outputs": [
        {
          "internalType": "uint256",
          "name": "",
          "type": "uint256"
        }
      ],
      "stateMutability": "view",
      "type": "function",
      "constant": true
    },
    {
      "inputs": [
        {
          "internalType": "uint256",
          "name": "",
          "type": "uint256"
        }
      ],
      "name": "_idToNftCreator",
      "outputs": [
        {
          "internalType": "address",
          "name": "",
          "type": "address"
        }
      ],
      "stateMutability": "view",
      "type": "function",
      "constant": true
    },
    {
      "inputs": [
        {
          "internalType": "uint256",
          "name": "",
          "type": "uint256"
        }
      ],
      "name": "_idToNftIndex",
      "outputs": [
        {
          "internalType": "uint256",
          "name": "",
          "type": "uint256"
        }
      ],
      "stateMutability": "view",
      "type": "function",
      "constant": true
    },
    {
      "inputs": [
        {
          "internalType": "uint256",
          "name": "",
          "type": "uint256"
        }
      ],
      "name": "_idToNftItem",
      "outputs": [
        {
          "internalType": "uint256",
          "name": "tokenId",
          "type": "uint256"
        },
        {
          "internalType": "address",
          "name": "creator",
          "type": "address"
        }
      ],
      "stateMutability": "view",
      "type": "function",
      "constant": true
    },
    {
      "inputs": [
        {
          "internalType": "uint256",
          "name": "",
          "type": "uint256"
        }
      ],
      "name": "_idToOwnedIndex",
      "outputs": [
        {
          "internalType": "uint256",
          "name": "",
          "type": "uint256"
        }
      ],
      "stateMutability": "view",
      "type": "function",
      "constant": true
    },
    {
      "inputs": [
        {
          "internalType": "address",
          "name": "",
          "type": "address"
        },
        {
          "internalType": "uint256",
          "name": "",
          "type": "uint256"
        }
      ],
      "name": "_ownedTokens",
      "outputs": [
        {
          "internalType": "uint256",
          "name": "",
          "type": "uint256"
        }
      ],
      "stateMutability": "view",
      "type": "function",
      "constant": true
    },
    {
      "inputs": [
        {
          "internalType": "uint256",
          "name": "",
          "type": "uint256"
        },
        {
          "internalType": "uint256",
          "name": "",
          "type": "uint256"
        }
      ],
      "name": "_tokensExtractionsByYear",
      "outputs": [
        {
          "internalType": "uint256",
          "name": "",
          "type": "uint256"
        }
      ],
      "stateMutability": "view",
      "type": "function",
      "constant": true
    },
    {
      "inputs": [
        {
          "internalType": "string",
          "name": "",
          "type": "string"
        }
      ],
      "name": "_usedTokenURIs",
      "outputs": [
        {
          "internalType": "bool",
          "name": "",
          "type": "bool"
        }
      ],
      "stateMutability": "view",
      "type": "function",
      "constant": true
    },
    {
      "inputs": [
        {
          "internalType": "address",
          "name": "",
          "type": "address"
        }
      ],
      "name": "allowedAddresses",
      "outputs": [
        {
          "internalType": "bool",
          "name": "",
          "type": "bool"
        }
      ],
      "stateMutability": "view",
      "type": "function",
      "constant": true
    },
    {
      "inputs": [],
      "name": "owner",
      "outputs": [
        {
          "internalType": "address",
          "name": "",
          "type": "address"
        }
      ],
      "stateMutability": "view",
      "type": "function",
      "constant": true
    },
    {
      "inputs": [],
      "name": "renounceOwnership",
      "outputs": [],
      "stateMutability": "nonpayable",
      "type": "function"
    },
    {
      "inputs": [
        {
          "internalType": "address",
          "name": "newOwner",
          "type": "address"
        }
      ],
      "name": "transferOwnership",
      "outputs": [],
      "stateMutability": "nonpayable",
      "type": "function"
    },
    {
      "inputs": [
        {
          "internalType": "address",
          "name": "_address",
          "type": "address"
        }
      ],
      "name": "addAllowedAddress",
      "outputs": [],
      "stateMutability": "nonpayable",
      "type": "function"
    },
    {
      "inputs": [
        {
          "internalType": "address",
          "name": "_address",
          "type": "address"
        }
      ],
      "name": "removeAllowedAddress",
      "outputs": [],
      "stateMutability": "nonpayable",
      "type": "function"
    },
    {
      "inputs": [
        {
          "internalType": "address",
          "name": "_address",
          "type": "address"
        }
      ],
      "name": "isAllowedAddress",
      "outputs": [
        {
          "internalType": "bool",
          "name": "",
          "type": "bool"
        }
      ],
      "stateMutability": "view",
      "type": "function",
      "constant": true
    },
    {
      "inputs": [
        {
          "internalType": "uint256",
          "name": "tokenId",
          "type": "uint256"
        }
      ],
      "name": "pushAllNfts",
      "outputs": [],
      "stateMutability": "nonpayable",
      "type": "function"
    },
    {
      "inputs": [
        {
          "internalType": "uint256",
          "name": "index",
          "type": "uint256"
        },
        {
          "internalType": "uint256",
          "name": "tokenId",
          "type": "uint256"
        }
      ],
      "name": "setAllNftsTokenIdByIndex",
      "outputs": [],
      "stateMutability": "nonpayable",
      "type": "function"
    },
    {
      "inputs": [
        {
          "internalType": "uint256",
          "name": "tokenId",
          "type": "uint256"
        },
        {
          "internalType": "uint256",
          "name": "year",
          "type": "uint256"
        },
        {
          "internalType": "uint256",
          "name": "extractions",
          "type": "uint256"
        }
      ],
      "name": "setTokenExtractionsByYear",
      "outputs": [],
      "stateMutability": "nonpayable",
      "type": "function"
    },
    {
      "inputs": [
        {
          "internalType": "uint256",
          "name": "tokenId",
          "type": "uint256"
        },
        {
          "internalType": "uint256",
          "name": "index",
          "type": "uint256"
        }
      ],
      "name": "setIdToNftIndex",
      "outputs": [],
      "stateMutability": "nonpayable",
      "type": "function"
    },
    {
      "inputs": [
        {
          "internalType": "uint256",
          "name": "tokenId",
          "type": "uint256"
        },
        {
          "internalType": "address",
          "name": "creator",
          "type": "address"
        }
      ],
      "name": "setIdToNftItem",
      "outputs": [],
      "stateMutability": "nonpayable",
      "type": "function"
    },
    {
      "inputs": [
        {
          "internalType": "uint256",
          "name": "tokenId",
          "type": "uint256"
        },
        {
          "internalType": "address",
          "name": "creator",
          "type": "address"
        }
      ],
      "name": "setIdToNftCreator",
      "outputs": [],
      "stateMutability": "nonpayable",
      "type": "function"
    },
    {
      "inputs": [
        {
          "internalType": "string",
          "name": "tokenURI",
          "type": "string"
        }
      ],
      "name": "setUsedTokenURI",
      "outputs": [],
      "stateMutability": "nonpayable",
      "type": "function"
    },
    {
      "inputs": [
        {
          "internalType": "address",
          "name": "owner",
          "type": "address"
        },
        {
          "internalType": "uint256",
          "name": "tokenId",
          "type": "uint256"
        },
        {
          "internalType": "uint256",
          "name": "index",
          "type": "uint256"
        }
      ],
      "name": "setOwnedTokens",
      "outputs": [],
      "stateMutability": "nonpayable",
      "type": "function"
    },
    {
      "inputs": [
        {
          "internalType": "uint256",
          "name": "tokenId",
          "type": "uint256"
        },
        {
          "internalType": "uint256",
          "name": "index",
          "type": "uint256"
        }
      ],
      "name": "setIdToOwnedIndex",
      "outputs": [],
      "stateMutability": "nonpayable",
      "type": "function"
    },
    {
      "inputs": [
        {
          "internalType": "address",
          "name": "owner",
          "type": "address"
        },
        {
          "internalType": "uint256",
          "name": "index",
          "type": "uint256"
        }
      ],
      "name": "getTokenIdOfOwnerByIndex",
      "outputs": [
        {
          "internalType": "uint256",
          "name": "",
          "type": "uint256"
        }
      ],
      "stateMutability": "view",
      "type": "function",
      "constant": true
    },
    {
      "inputs": [],
      "name": "getTotalSupply",
      "outputs": [
        {
          "internalType": "uint256",
          "name": "",
          "type": "uint256"
        }
      ],
      "stateMutability": "view",
      "type": "function",
      "constant": true
    },
    {
      "inputs": [
        {
          "internalType": "uint256",
          "name": "index",
          "type": "uint256"
        }
      ],
      "name": "getTokenByIndex",
      "outputs": [
        {
          "internalType": "uint256",
          "name": "",
          "type": "uint256"
        }
      ],
      "stateMutability": "view",
      "type": "function",
      "constant": true
    },
    {
      "inputs": [
        {
          "internalType": "uint256",
          "name": "tokenId",
          "type": "uint256"
        }
      ],
      "name": "getNftIndex",
      "outputs": [
        {
          "internalType": "uint256",
          "name": "",
          "type": "uint256"
        }
      ],
      "stateMutability": "view",
      "type": "function",
      "constant": true
    },
    {
      "inputs": [
        {
          "internalType": "uint256",
          "name": "index",
          "type": "uint256"
        }
      ],
      "name": "getTokenIdByIndex",
      "outputs": [
        {
          "internalType": "uint256",
          "name": "",
          "type": "uint256"
        }
      ],
      "stateMutability": "view",
      "type": "function",
      "constant": true
    },
    {
      "inputs": [
        {
          "internalType": "uint256",
          "name": "tokenId",
          "type": "uint256"
        }
      ],
      "name": "getIdToOwnedIndex",
      "outputs": [
        {
          "internalType": "uint256",
          "name": "",
          "type": "uint256"
        }
      ],
      "stateMutability": "view",
      "type": "function",
      "constant": true
    },
    {
      "inputs": [
        {
          "internalType": "uint256",
          "name": "tokenId",
          "type": "uint256"
        }
      ],
      "name": "getIdToNftItem",
      "outputs": [
        {
          "components": [
            {
              "internalType": "uint256",
              "name": "tokenId",
              "type": "uint256"
            },
            {
              "internalType": "address",
              "name": "creator",
              "type": "address"
            }
          ],
          "internalType": "struct CCNftStorage.NftItem",
          "name": "",
          "type": "tuple"
        }
      ],
      "stateMutability": "view",
      "type": "function",
      "constant": true
    },
    {
      "inputs": [
        {
          "internalType": "uint256",
          "name": "tokenId",
          "type": "uint256"
        }
      ],
      "name": "getNftCreator",
      "outputs": [
        {
          "internalType": "address",
          "name": "",
          "type": "address"
        }
      ],
      "stateMutability": "view",
      "type": "function",
      "constant": true
    },
    {
      "inputs": [
        {
          "internalType": "string",
          "name": "tokenURI",
          "type": "string"
        }
      ],
      "name": "getTokeURIUsed",
      "outputs": [
        {
          "internalType": "bool",
          "name": "",
          "type": "bool"
        }
      ],
      "stateMutability": "view",
      "type": "function",
      "constant": true
    },
    {
      "inputs": [
        {
          "internalType": "uint256",
          "name": "tokenId",
          "type": "uint256"
        }
      ],
      "name": "deleteIdToOwnedIndex",
      "outputs": [],
      "stateMutability": "nonpayable",
      "type": "function"
    },
    {
      "inputs": [
        {
          "internalType": "uint256",
          "name": "tokenId",
          "type": "uint256"
        }
      ],
      "name": "deleteIdToNftIndex",
      "outputs": [],
      "stateMutability": "nonpayable",
      "type": "function"
    },
    {
      "inputs": [
        {
          "internalType": "address",
          "name": "owner",
          "type": "address"
        },
        {
          "internalType": "uint256",
          "name": "index",
          "type": "uint256"
        }
      ],
      "name": "deleteOwnedTokens",
      "outputs": [],
      "stateMutability": "nonpayable",
      "type": "function"
    },
    {
      "inputs": [],
      "name": "popAllNfts",
      "outputs": [],
      "stateMutability": "nonpayable",
      "type": "function"
    }
  ],
  "bytecode": "0x608060405234801561001057600080fd5b5061001a3361001f565b61006f565b600080546001600160a01b038381166001600160a01b0319831681178455604051919092169283917f8be0079c531659141344cd1fd0a4f28419497f9722a3daafe3b4186f6b6457e09190a35050565b6110108061007e6000396000f3fe608060405234801561001057600080fd5b50600436106102275760003560e01c806382b9ec6911610130578063c8e235ae116100b8578063e46226631161007c578063e462266314610616578063e74dd6461461063f578063f2fde38b1461065f578063f31c848914610672578063fcc73a7b1461068557600080fd5b8063c8e235ae1461059d578063d56e8ed8146105b0578063dab10705146105c3578063dc42e96e146105cb578063dc67508e146105eb57600080fd5b80639d112098116100ff5780639d112098146104cd578063aeb6945414610546578063bd606b6e14610559578063c4e41b2214610582578063c76337e81461058a57600080fd5b806382b9ec69146104565780638345245e1461046957806387eef8a5146104955780638da5cb5b146104a857600080fd5b80634f3c5f06116101b3578063715018a611610182578063715018a6146103c857806371ca79c5146103d057806375e05b88146103e3578063776eba961461043057806381788e2b1461044357600080fd5b80634f3c5f061461036457806358cc35f41461038f578063644b7a43146103a25780636d747b41146103b557600080fd5b80633c9d93b8116101fa5780633c9d93b8146102bd5780634120657a146102d057806349f202ff146103035780634de47d60146103165780634ebce05d1461033657600080fd5b80632001b8851461022c578063273f4b07146102525780633469892114610267578063382816a31461029d575b600080fd5b61023f61023a366004610d5b565b610698565b6040519081526020015b60405180910390f35b610265610260366004610d74565b6106b9565b005b61023f610275366004610db2565b6001600160a01b03919091166000908152600860209081526040808320938352929052205490565b61023f6102ab366004610d5b565b60009081526006602052604090205490565b6102656102cb366004610ddc565b610703565b6102f36102de366004610ddc565b60036020526000908152604090205460ff1681565b6040519015158152602001610249565b61023f610311366004610d5b565b61072c565b61023f610324366004610d5b565b60066020526000908152604090205481565b6102f3610344366004610e14565b805160208183018101805160048252928201919093012091525460ff1681565b61023f610372366004610db2565b600860209081526000928352604080842090915290825290205481565b6102f361039d366004610e14565b610753565b61023f6103b0366004610d5b565b61077e565b6102656103c3366004610d5b565b6107e0565b610265610820565b6102656103de366004610d74565b610834565b6104136103f1366004610d5b565b600560205260009081526040902080546001909101546001600160a01b031682565b604080519283526001600160a01b03909116602083015201610249565b61026561043e366004610db2565b610887565b610265610451366004610ddc565b6108de565b610265610464366004610ec5565b61090a565b6102f3610477366004610ddc565b6001600160a01b031660009081526003602052604090205460ff1690565b6102656104a3366004610d5b565b610962565b6000546001600160a01b03165b6040516001600160a01b039091168152602001610249565b6105226104db366004610d5b565b604080518082019091526000808252602082015250600090815260056020908152604091829020825180840190935280548352600101546001600160a01b03169082015290565b60408051825181526020928301516001600160a01b03169281019290925201610249565b610265610554366004610e14565b6109a2565b6104b5610567366004610d5b565b600a602052600090815260409020546001600160a01b031681565b600b5461023f565b610265610598366004610d5b565b610a06565b6102656105ab366004610d74565b610a6a565b6102656105be366004610ef8565b610aab565b610265610b38565b61023f6105d9366004610d5b565b60076020526000908152604090205481565b61023f6105f9366004610d74565b600960209081526000928352604080842090915290825290205481565b6104b5610624366004610d5b565b6000908152600a60205260409020546001600160a01b031690565b61023f61064d366004610d5b565b60009081526007602052604090205490565b61026561066d366004610ddc565b610b90565b610265610680366004610ef8565b610c09565b610265610693366004610f24565b610c66565b600b81815481106106a857600080fd5b600091825260209091200154905081565b3360009081526003602052604090205460ff166106f15760405162461bcd60e51b81526004016106e890610f50565b60405180910390fd5b60009182526007602052604090912055565b61070b610cb1565b6001600160a01b03166000908152600360205260409020805460ff19169055565b6000600b828154811061074157610741610f7f565b90600052602060002001549050919050565b60006004826040516107659190610f95565b9081526040519081900360200190205460ff1692915050565b6000610789600b5490565b82106107cd5760405162461bcd60e51b8152602060048201526013602482015272496e646578206f7574206f6620626f756e647360681b60448201526064016106e8565b600b828154811061074157610741610f7f565b3360009081526003602052604090205460ff1661080f5760405162461bcd60e51b81526004016106e890610f50565b600090815260066020526040812055565b610828610cb1565b6108326000610d0b565b565b3360009081526003602052604090205460ff166108635760405162461bcd60e51b81526004016106e890610f50565b80600b838154811061087757610877610f7f565b6000918252602090912001555050565b3360009081526003602052604090205460ff166108b65760405162461bcd60e51b81526004016106e890610f50565b6001600160a01b03909116600090815260086020908152604080832093835292905290812055565b6108e6610cb1565b6001600160a01b03166000908152600360205260409020805460ff19166001179055565b3360009081526003602052604090205460ff166109395760405162461bcd60e51b81526004016106e890610f50565b6001600160a01b0390921660009081526008602090815260408083209483529390529190912055565b3360009081526003602052604090205460ff166109915760405162461bcd60e51b81526004016106e890610f50565b600090815260076020526040812055565b3360009081526003602052604090205460ff166109d15760405162461bcd60e51b81526004016106e890610f50565b60016004826040516109e39190610f95565b908152604051908190036020019020805491151560ff1990921691909117905550565b3360009081526003602052604090205460ff16610a355760405162461bcd60e51b81526004016106e890610f50565b600b80546001810182556000919091527f0175b7a638427703f0dbe7bb9bbf987a2551717b34e79f33b5b1008d1fa01db90155565b3360009081526003602052604090205460ff16610a995760405162461bcd60e51b81526004016106e890610f50565b60009182526006602052604090912055565b3360009081526003602052604090205460ff16610ada5760405162461bcd60e51b81526004016106e890610f50565b6040805180820182528381526001600160a01b0392831660209182018190526001858155600280546001600160a01b031990811690931781556000878152600590945293909220948555915493018054939092169216919091179055565b3360009081526003602052604090205460ff16610b675760405162461bcd60e51b81526004016106e890610f50565b600b805480610b7857610b78610fc4565b60019003818190600052602060002001600090559055565b610b98610cb1565b6001600160a01b038116610bfd5760405162461bcd60e51b815260206004820152602660248201527f4f776e61626c653a206e6577206f776e657220697320746865207a65726f206160448201526564647265737360d01b60648201526084016106e8565b610c0681610d0b565b50565b3360009081526003602052604090205460ff16610c385760405162461bcd60e51b81526004016106e890610f50565b6000918252600a602052604090912080546001600160a01b0319166001600160a01b03909216919091179055565b3360009081526003602052604090205460ff16610c955760405162461bcd60e51b81526004016106e890610f50565b6000928352600960209081526040808520938552929052912055565b6000546001600160a01b031633146108325760405162461bcd60e51b815260206004820181905260248201527f4f776e61626c653a2063616c6c6572206973206e6f7420746865206f776e657260448201526064016106e8565b600080546001600160a01b038381166001600160a01b0319831681178455604051919092169283917f8be0079c531659141344cd1fd0a4f28419497f9722a3daafe3b4186f6b6457e09190a35050565b600060208284031215610d6d57600080fd5b5035919050565b60008060408385031215610d8757600080fd5b50508035926020909101359150565b80356001600160a01b0381168114610dad57600080fd5b919050565b60008060408385031215610dc557600080fd5b610dce83610d96565b946020939093013593505050565b600060208284031215610dee57600080fd5b610df782610d96565b9392505050565b634e487b7160e01b600052604160045260246000fd5b600060208284031215610e2657600080fd5b813567ffffffffffffffff80821115610e3e57600080fd5b818401915084601f830112610e5257600080fd5b813581811115610e6457610e64610dfe565b604051601f8201601f19908116603f01168101908382118183101715610e8c57610e8c610dfe565b81604052828152876020848701011115610ea557600080fd5b826020860160208301376000928101602001929092525095945050505050565b600080600060608486031215610eda57600080fd5b610ee384610d96565b95602085013595506040909401359392505050565b60008060408385031215610f0b57600080fd5b82359150610f1b60208401610d96565b90509250929050565b600080600060608486031215610f3957600080fd5b505081359360208301359350604090920135919050565b60208082526015908201527410d85b1b195c881a5cc81b9bdd08185b1b1bddd959605a1b604082015260600190565b634e487b7160e01b600052603260045260246000fd5b6000825160005b81811015610fb65760208186018101518583015201610f9c565b506000920191825250919050565b634e487b7160e01b600052603160045260246000fdfea2646970667358221220d958bf85ed474b266906290a5081195bb50391ac5948a802e3191831c9ca17e064736f6c63430008110033",
  "immutableReferences": {},
  "source": "// SPDX-License-Identifier: MIT\npragma solidity ^0.8.7;\nimport \"@openzeppelin/contracts/access/Ownable.sol\";\n\ncontract CCNftStorage is Ownable {\n  struct NftItem {\n    uint256 tokenId;\n    address creator;\n  }\n\n  NftItem private _nftItem;\n\n  // Address => Boolean\n  mapping(address => bool) public allowedAddresses;\n\n  // TokenURI => Bool (Is used?)\n  mapping(string => bool) public _usedTokenURIs;\n  // NFT id => NftItem\n  mapping(uint256 => NftItem) public _idToNftItem;\n  // NFT id => Index\n  mapping(uint256 => uint256) public _idToNftIndex;\n  // NFT id => ERC20 share\n  mapping(uint256 => uint256) public _idToOwnedIndex;\n  // Account address => NFT Id => Index\n  mapping(address => mapping(uint256 => uint256)) public _ownedTokens;\n  // NFT id => Year => Extractions\n  mapping(uint256 => mapping(uint256 => uint256))\n    public _tokensExtractionsByYear;\n  // NFT id => Address[]\n  mapping(uint256 => address) public _idToNftCreator;\n\n  uint256[] public _allNfts;\n\n  /////////////////////\n  // MODIFIERS //\n  /////////////////////\n\n  modifier onlyAllowed() {\n    require(allowedAddresses[msg.sender], \"Caller is not allowed\");\n    _;\n  }\n\n  /////////////////////\n  // ALLOWED ADDRESSES MANAGEMENT //\n  /////////////////////\n\n  function addAllowedAddress(address _address) public onlyOwner {\n    allowedAddresses[_address] = true;\n  }\n\n  function removeAllowedAddress(address _address) public onlyOwner {\n    allowedAddresses[_address] = false;\n  }\n\n  function isAllowedAddress(address _address) public view returns (bool) {\n    return allowedAddresses[_address];\n  }\n\n  /////////////////////\n  // SETTERS //\n  /////////////////////\n\n  function pushAllNfts(uint256 tokenId) public onlyAllowed {\n    _allNfts.push(tokenId);\n  }\n\n  function setAllNftsTokenIdByIndex(\n    uint256 index,\n    uint256 tokenId\n  ) public onlyAllowed {\n    _allNfts[index] = tokenId;\n  }\n\n  function setTokenExtractionsByYear(\n    uint256 tokenId,\n    uint256 year,\n    uint256 extractions\n  ) public onlyAllowed {\n    _tokensExtractionsByYear[tokenId][year] = extractions;\n  }\n\n  function setIdToNftIndex(uint256 tokenId, uint256 index) public onlyAllowed {\n    _idToNftIndex[tokenId] = index;\n  }\n\n  function setIdToNftItem(uint256 tokenId, address creator) public onlyAllowed {\n    _nftItem = NftItem(tokenId, creator);\n    _idToNftItem[tokenId] = _nftItem;\n  }\n\n  function setIdToNftCreator(\n    uint256 tokenId,\n    address creator\n  ) public onlyAllowed {\n    _idToNftCreator[tokenId] = creator;\n  }\n\n  function setUsedTokenURI(string memory tokenURI) public onlyAllowed {\n    _usedTokenURIs[tokenURI] = true;\n  }\n\n  function setOwnedTokens(\n    address owner,\n    uint256 tokenId,\n    uint256 index\n  ) public onlyAllowed {\n    _ownedTokens[owner][index] = tokenId;\n  }\n\n  function setIdToOwnedIndex(\n    uint256 tokenId,\n    uint256 index\n  ) public onlyAllowed {\n    _idToOwnedIndex[tokenId] = index;\n  }\n\n  /////////////////////\n  // GETTERS //\n  /////////////////////\n\n  function getTokenIdOfOwnerByIndex(\n    address owner,\n    uint index\n  ) external view returns (uint) {\n    return _ownedTokens[owner][index];\n  }\n\n  function getTotalSupply() public view returns (uint256) {\n    return _allNfts.length;\n  }\n\n  function getTokenByIndex(uint index) external view returns (uint) {\n    require(index < getTotalSupply(), \"Index out of bounds\");\n    return _allNfts[index];\n  }\n\n  function getNftIndex(uint256 tokenId) external view returns (uint256) {\n    return _idToNftIndex[tokenId];\n  }\n\n  function getTokenIdByIndex(uint256 index) external view returns (uint256) {\n    return _allNfts[index];\n  }\n\n  function getIdToOwnedIndex(uint256 tokenId) external view returns (uint256) {\n    return _idToOwnedIndex[tokenId];\n  }\n\n  function getIdToNftItem(\n    uint256 tokenId\n  ) external view returns (NftItem memory) {\n    return _idToNftItem[tokenId];\n  }\n\n  function getNftCreator(uint256 tokenId) external view returns (address) {\n    return _idToNftCreator[tokenId];\n  }\n\n  function getTokeURIUsed(string memory tokenURI) external view returns (bool) {\n    return _usedTokenURIs[tokenURI];\n  }\n\n  /////////////////////\n  // DELETE //\n  /////////////////////\n\n  function deleteIdToOwnedIndex(uint256 tokenId) public onlyAllowed {\n    delete _idToOwnedIndex[tokenId];\n  }\n\n  function deleteIdToNftIndex(uint256 tokenId) public onlyAllowed {\n    delete _idToNftIndex[tokenId];\n  }\n\n  function deleteOwnedTokens(address owner, uint256 index) public onlyAllowed {\n    delete _ownedTokens[owner][index];\n  }\n\n  function popAllNfts() public onlyAllowed {\n    _allNfts.pop();\n  }\n}\n",
  "sourcePath": "/Users/alberto/Desktop/Enalbis/caskchain-mono/apps/contracts/contracts/CCNft/CCNftStorage.sol",
  "compiler": {
    "name": "solc",
    "version": "0.8.17+commit.8df45f5f.Emscripten.clang"
  },
  "schemaVersion": "3.4.11",
  "updatedAt": "2023-07-08T05:50:33.537Z",
  "networkType": "ethereum",
  "devdoc": {
    "kind": "dev",
    "methods": {
      "owner()": {
        "details": "Returns the address of the current owner."
      },
      "renounceOwnership()": {
        "details": "Leaves the contract without owner. It will not be possible to call `onlyOwner` functions anymore. Can only be called by the current owner. NOTE: Renouncing ownership will leave the contract without an owner, thereby removing any functionality that is only available to the owner."
      },
      "transferOwnership(address)": {
        "details": "Transfers ownership of the contract to a new account (`newOwner`). Can only be called by the current owner."
      }
    },
    "version": 1
  },
  "userdoc": {
    "kind": "user",
    "methods": {},
    "version": 1
  }
}