{
  "contractName": "CCNft",
  "abi": [
    {
      "inputs": [],
      "stateMutability": "nonpayable",
      "type": "constructor"
    },
    {
      "anonymous": false,
      "inputs": [
        {
          "indexed": true,
          "internalType": "address",
          "name": "owner",
          "type": "address"
        },
        {
          "indexed": true,
          "internalType": "address",
          "name": "approved",
          "type": "address"
        },
        {
          "indexed": true,
          "internalType": "uint256",
          "name": "tokenId",
          "type": "uint256"
        }
      ],
      "name": "Approval",
      "type": "event"
    },
    {
      "anonymous": false,
      "inputs": [
        {
          "indexed": true,
          "internalType": "address",
          "name": "owner",
          "type": "address"
        },
        {
          "indexed": true,
          "internalType": "address",
          "name": "operator",
          "type": "address"
        },
        {
          "indexed": false,
          "internalType": "bool",
          "name": "approved",
          "type": "bool"
        }
      ],
      "name": "ApprovalForAll",
      "type": "event"
    },
    {
      "anonymous": false,
      "inputs": [
        {
          "indexed": false,
          "internalType": "address",
          "name": "owner",
          "type": "address"
        },
        {
          "indexed": false,
          "internalType": "uint256",
          "name": "tokenId",
          "type": "uint256"
        },
        {
          "indexed": false,
          "internalType": "string",
          "name": "tokenURI",
          "type": "string"
        }
      ],
      "name": "Mint",
      "type": "event"
    },
    {
      "anonymous": false,
      "inputs": [
        {
          "indexed": false,
          "internalType": "uint256",
          "name": "tokenId",
          "type": "uint256"
        },
        {
          "indexed": false,
          "internalType": "address",
          "name": "creator",
          "type": "address"
        }
      ],
      "name": "NftItemCreated",
      "type": "event"
    },
    {
      "anonymous": false,
      "inputs": [
        {
          "indexed": true,
          "internalType": "address",
          "name": "previousOwner",
          "type": "address"
        },
        {
          "indexed": true,
          "internalType": "address",
          "name": "newOwner",
          "type": "address"
        }
      ],
      "name": "OwnershipTransferred",
      "type": "event"
    },
    {
      "anonymous": false,
      "inputs": [
        {
          "indexed": true,
          "internalType": "address",
          "name": "from",
          "type": "address"
        },
        {
          "indexed": true,
          "internalType": "address",
          "name": "to",
          "type": "address"
        },
        {
          "indexed": true,
          "internalType": "uint256",
          "name": "tokenId",
          "type": "uint256"
        }
      ],
      "name": "Transfer",
      "type": "event"
    },
    {
      "inputs": [],
      "name": "_minimumFee",
      "outputs": [
        {
          "internalType": "uint256",
          "name": "",
          "type": "uint256"
        }
      ],
      "stateMutability": "view",
      "type": "function",
      "constant": true
    },
    {
      "inputs": [
        {
          "internalType": "address",
          "name": "to",
          "type": "address"
        },
        {
          "internalType": "uint256",
          "name": "tokenId",
          "type": "uint256"
        }
      ],
      "name": "approve",
      "outputs": [],
      "stateMutability": "nonpayable",
      "type": "function"
    },
    {
      "inputs": [
        {
          "internalType": "address",
          "name": "owner",
          "type": "address"
        }
      ],
      "name": "balanceOf",
      "outputs": [
        {
          "internalType": "uint256",
          "name": "",
          "type": "uint256"
        }
      ],
      "stateMutability": "view",
      "type": "function",
      "constant": true
    },
    {
      "inputs": [],
      "name": "bottlePrice",
      "outputs": [
        {
          "internalType": "uint256",
          "name": "",
          "type": "uint256"
        }
      ],
      "stateMutability": "view",
      "type": "function",
      "constant": true
    },
    {
      "inputs": [
        {
          "internalType": "uint256",
          "name": "tokenId",
          "type": "uint256"
        }
      ],
      "name": "getApproved",
      "outputs": [
        {
          "internalType": "address",
          "name": "",
          "type": "address"
        }
      ],
      "stateMutability": "view",
      "type": "function",
      "constant": true
    },
    {
      "inputs": [
        {
          "internalType": "address",
          "name": "owner",
          "type": "address"
        },
        {
          "internalType": "address",
          "name": "operator",
          "type": "address"
        }
      ],
      "name": "isApprovedForAll",
      "outputs": [
        {
          "internalType": "bool",
          "name": "",
          "type": "bool"
        }
      ],
      "stateMutability": "view",
      "type": "function",
      "constant": true
    },
    {
      "inputs": [],
      "name": "name",
      "outputs": [
        {
          "internalType": "string",
          "name": "",
          "type": "string"
        }
      ],
      "stateMutability": "view",
      "type": "function",
      "constant": true
    },
    {
      "inputs": [],
      "name": "owner",
      "outputs": [
        {
          "internalType": "address",
          "name": "",
          "type": "address"
        }
      ],
      "stateMutability": "view",
      "type": "function",
      "constant": true
    },
    {
      "inputs": [
        {
          "internalType": "uint256",
          "name": "tokenId",
          "type": "uint256"
        }
      ],
      "name": "ownerOf",
      "outputs": [
        {
          "internalType": "address",
          "name": "",
          "type": "address"
        }
      ],
      "stateMutability": "view",
      "type": "function",
      "constant": true
    },
    {
      "inputs": [],
      "name": "paused",
      "outputs": [
        {
          "internalType": "bool",
          "name": "",
          "type": "bool"
        }
      ],
      "stateMutability": "view",
      "type": "function",
      "constant": true
    },
    {
      "inputs": [],
      "name": "renounceOwnership",
      "outputs": [],
      "stateMutability": "nonpayable",
      "type": "function"
    },
    {
      "inputs": [
        {
          "internalType": "uint256",
          "name": "_tokenId",
          "type": "uint256"
        },
        {
          "internalType": "uint256",
          "name": "_salePrice",
          "type": "uint256"
        }
      ],
      "name": "royaltyInfo",
      "outputs": [
        {
          "internalType": "address",
          "name": "",
          "type": "address"
        },
        {
          "internalType": "uint256",
          "name": "",
          "type": "uint256"
        }
      ],
      "stateMutability": "view",
      "type": "function",
      "constant": true
    },
    {
      "inputs": [
        {
          "internalType": "address",
          "name": "from",
          "type": "address"
        },
        {
          "internalType": "address",
          "name": "to",
          "type": "address"
        },
        {
          "internalType": "uint256",
          "name": "tokenId",
          "type": "uint256"
        }
      ],
      "name": "safeTransferFrom",
      "outputs": [],
      "stateMutability": "nonpayable",
      "type": "function"
    },
    {
      "inputs": [
        {
          "internalType": "address",
          "name": "from",
          "type": "address"
        },
        {
          "internalType": "address",
          "name": "to",
          "type": "address"
        },
        {
          "internalType": "uint256",
          "name": "tokenId",
          "type": "uint256"
        },
        {
          "internalType": "bytes",
          "name": "data",
          "type": "bytes"
        }
      ],
      "name": "safeTransferFrom",
      "outputs": [],
      "stateMutability": "nonpayable",
      "type": "function"
    },
    {
      "inputs": [
        {
          "internalType": "address",
          "name": "operator",
          "type": "address"
        },
        {
          "internalType": "bool",
          "name": "approved",
          "type": "bool"
        }
      ],
      "name": "setApprovalForAll",
      "outputs": [],
      "stateMutability": "nonpayable",
      "type": "function"
    },
    {
      "inputs": [],
      "name": "symbol",
      "outputs": [
        {
          "internalType": "string",
          "name": "",
          "type": "string"
        }
      ],
      "stateMutability": "view",
      "type": "function",
      "constant": true
    },
    {
      "inputs": [
        {
          "internalType": "uint256",
          "name": "tokenId",
          "type": "uint256"
        }
      ],
      "name": "tokenURI",
      "outputs": [
        {
          "internalType": "string",
          "name": "",
          "type": "string"
        }
      ],
      "stateMutability": "view",
      "type": "function",
      "constant": true
    },
    {
      "inputs": [
        {
          "internalType": "address",
          "name": "from",
          "type": "address"
        },
        {
          "internalType": "address",
          "name": "to",
          "type": "address"
        },
        {
          "internalType": "uint256",
          "name": "tokenId",
          "type": "uint256"
        }
      ],
      "name": "transferFrom",
      "outputs": [],
      "stateMutability": "nonpayable",
      "type": "function"
    },
    {
      "inputs": [
        {
          "internalType": "address",
          "name": "newOwner",
          "type": "address"
        }
      ],
      "name": "transferOwnership",
      "outputs": [],
      "stateMutability": "nonpayable",
      "type": "function"
    },
    {
      "inputs": [],
      "name": "txFeeToken",
      "outputs": [
        {
          "internalType": "address",
          "name": "",
          "type": "address"
        }
      ],
      "stateMutability": "view",
      "type": "function",
      "constant": true
    },
    {
      "inputs": [
        {
          "internalType": "string",
          "name": "_tokenURI",
          "type": "string"
        }
      ],
      "name": "mintNFT",
      "outputs": [
        {
          "internalType": "uint256",
          "name": "",
          "type": "uint256"
        }
      ],
      "stateMutability": "nonpayable",
      "type": "function"
    },
    {
      "inputs": [
        {
          "internalType": "uint256",
          "name": "tokenId",
          "type": "uint256"
        }
      ],
      "name": "burn",
      "outputs": [],
      "stateMutability": "nonpayable",
      "type": "function"
    },
    {
      "inputs": [
        {
          "internalType": "uint256",
          "name": "tokenId",
          "type": "uint256"
        }
      ],
      "name": "getNftInfo",
      "outputs": [
        {
          "components": [
            {
              "internalType": "uint256",
              "name": "tokenId",
              "type": "uint256"
            },
            {
              "internalType": "address",
              "name": "creator",
              "type": "address"
            }
          ],
          "internalType": "struct CCNft.NftItem",
          "name": "",
          "type": "tuple"
        }
      ],
      "stateMutability": "view",
      "type": "function",
      "constant": true
    },
    {
      "inputs": [],
      "name": "getAllNFTs",
      "outputs": [
        {
          "components": [
            {
              "internalType": "uint256",
              "name": "tokenId",
              "type": "uint256"
            },
            {
              "internalType": "address",
              "name": "creator",
              "type": "address"
            }
          ],
          "internalType": "struct CCNft.NftItem[]",
          "name": "",
          "type": "tuple[]"
        }
      ],
      "stateMutability": "view",
      "type": "function",
      "constant": true
    },
    {
      "inputs": [
        {
          "internalType": "uint256[]",
          "name": "_tokensIds",
          "type": "uint256[]"
        }
      ],
      "name": "getAllNftsOnSale",
      "outputs": [
        {
          "components": [
            {
              "internalType": "uint256",
              "name": "tokenId",
              "type": "uint256"
            },
            {
              "internalType": "address",
              "name": "creator",
              "type": "address"
            }
          ],
          "internalType": "struct CCNft.NftItem[]",
          "name": "",
          "type": "tuple[]"
        }
      ],
      "stateMutability": "view",
      "type": "function",
      "constant": true
    },
    {
      "inputs": [],
      "name": "getOwnedNfts",
      "outputs": [
        {
          "components": [
            {
              "internalType": "uint256",
              "name": "tokenId",
              "type": "uint256"
            },
            {
              "internalType": "address",
              "name": "creator",
              "type": "address"
            }
          ],
          "internalType": "struct CCNft.NftItem[]",
          "name": "",
          "type": "tuple[]"
        }
      ],
      "stateMutability": "view",
      "type": "function",
      "constant": true
    },
    {
      "inputs": [
        {
          "internalType": "bytes4",
          "name": "interfaceId",
          "type": "bytes4"
        }
      ],
      "name": "supportsInterface",
      "outputs": [
        {
          "internalType": "bool",
          "name": "",
          "type": "bool"
        }
      ],
      "stateMutability": "view",
      "type": "function",
      "constant": true
    },
    {
      "inputs": [],
      "name": "totalSupply",
      "outputs": [
        {
          "internalType": "uint256",
          "name": "",
          "type": "uint256"
        }
      ],
      "stateMutability": "view",
      "type": "function",
      "constant": true
    },
    {
      "inputs": [
        {
          "internalType": "uint256",
          "name": "index",
          "type": "uint256"
        }
      ],
      "name": "tokenByIndex",
      "outputs": [
        {
          "internalType": "uint256",
          "name": "",
          "type": "uint256"
        }
      ],
      "stateMutability": "view",
      "type": "function",
      "constant": true
    },
    {
      "inputs": [
        {
          "internalType": "address",
          "name": "owner",
          "type": "address"
        },
        {
          "internalType": "uint256",
          "name": "index",
          "type": "uint256"
        }
      ],
      "name": "tokenOfOwnerByIndex",
      "outputs": [
        {
          "internalType": "uint256",
          "name": "",
          "type": "uint256"
        }
      ],
      "stateMutability": "view",
      "type": "function",
      "constant": true
    },
    {
      "inputs": [
        {
          "internalType": "uint256",
          "name": "_tokenId",
          "type": "uint256"
        }
      ],
      "name": "getNftCreator",
      "outputs": [
        {
          "internalType": "address",
          "name": "",
          "type": "address"
        }
      ],
      "stateMutability": "view",
      "type": "function",
      "constant": true
    }
  ],
  "bytecode": "0x6080604052662e2f6e5e148000600b5566470de4df820000600c55600d805460ff191690553480156200003157600080fd5b506040518060400160405280600881526020016710d85cdadcd3919560c21b8152506040518060400160405280600681526020016510d4d2d3919560d21b8152508160009081620000839190620001c7565b506001620000928282620001c7565b505050620000af620000a9620000cc60201b60201c565b620000d0565b600d8054610100600160a81b031916306101000217905562000293565b3390565b600980546001600160a01b038381166001600160a01b0319831681179093556040519116919082907f8be0079c531659141344cd1fd0a4f28419497f9722a3daafe3b4186f6b6457e090600090a35050565b634e487b7160e01b600052604160045260246000fd5b600181811c908216806200014d57607f821691505b6020821081036200016e57634e487b7160e01b600052602260045260246000fd5b50919050565b601f821115620001c257600081815260208120601f850160051c810160208610156200019d5750805b601f850160051c820191505b81811015620001be57828155600101620001a9565b5050505b505050565b81516001600160401b03811115620001e357620001e362000122565b620001fb81620001f4845462000138565b8462000174565b602080601f8311600181146200023357600084156200021a5750858301515b600019600386901b1c1916600185901b178555620001be565b600085815260208120601f198616915b82811015620002645788860151825594840194600190910190840162000243565b5085821015620002835787850151600019600388901b60f8161c191681555b5050505050600190811b01905550565b61291d80620002a36000396000f3fe608060405234801561001057600080fd5b50600436106101e55760003560e01c806370a082311161010f578063c87b56dd116100a2578063e462266311610071578063e46226631461040c578063e985e9c514610435578063f2fde38b14610471578063fb37e8831461048457600080fd5b8063c87b56dd146103be578063ca32232c146103d1578063d5ec2d83146103e4578063e0391b091461040457600080fd5b80638da5cb5b116100de5780638da5cb5b1461037f57806395d89b4114610390578063a22cb46514610398578063b88d4fde146103ab57600080fd5b806370a082311461033c57806370cbcb431461034f578063715018a61461036457806377c567a71461036c57600080fd5b80632a55205a1161018757806342966c681161015657806342966c68146102f65780634f6ccce7146103095780635c975abb1461031c5780636352211e1461032957600080fd5b80632a55205a146102955780632f745c59146102c757806340fb561c146102da57806342842e0e146102e357600080fd5b8063095ea7b3116101c3578063095ea7b31461025257806318160ddd14610267578063203f12ce1461027957806323b872dd1461028257600080fd5b806301ffc9a7146101ea57806306fdde0314610212578063081812fc14610227575b600080fd5b6101fd6101f83660046120b8565b610497565b60405190151581526020015b60405180910390f35b61021a6104a8565b6040516102099190612125565b61023a610235366004612138565b61053a565b6040516001600160a01b039091168152602001610209565b610265610260366004612166565b610561565b005b6017545b604051908152602001610209565b61026b600c5481565b610265610290366004612192565b61067b565b6102a86102a33660046121d3565b6106ac565b604080516001600160a01b039093168352602083019190915201610209565b61026b6102d5366004612166565b610758565b61026b600b5481565b6102656102f1366004612192565b6107d0565b610265610304366004612138565b6107eb565b61026b610317366004612138565b6108c9565b600d546101fd9060ff1681565b61023a610337366004612138565b61093d565b61026b61034a3660046121f5565b61099d565b610357610a23565b6040516102099190612212565b610265610b1c565b600a5461023a906001600160a01b031681565b6009546001600160a01b031661023a565b61021a610b30565b6102656103a6366004612272565b610b3f565b6102656103b936600461234f565b610b4e565b61021a6103cc366004612138565b610b86565b6103576103df3660046123cf565b610c96565b6103f76103f2366004612138565b610d95565b6040516102099190612475565b610357610e9a565b61023a61041a366004612138565b6000908152601560205260409020546001600160a01b031690565b6101fd610443366004612495565b6001600160a01b03918216600090815260056020908152604080832093909416825291909152205460ff1690565b61026561047f3660046121f5565b610f88565b61026b6104923660046124c3565b610ffe565b60006104a2826111a1565b92915050565b6060600080546104b79061250c565b80601f01602080910402602001604051908101604052809291908181526020018280546104e39061250c565b80156105305780601f1061050557610100808354040283529160200191610530565b820191906000526020600020905b81548152906001019060200180831161051357829003601f168201915b5050505050905090565b6000610545826111c6565b506000908152600460205260409020546001600160a01b031690565b600061056c8261093d565b9050806001600160a01b0316836001600160a01b0316036105de5760405162461bcd60e51b815260206004820152602160248201527f4552433732313a20617070726f76616c20746f2063757272656e74206f776e656044820152603960f91b60648201526084015b60405180910390fd5b336001600160a01b03821614806105fa57506105fa8133610443565b61066c5760405162461bcd60e51b815260206004820152603d60248201527f4552433732313a20617070726f76652063616c6c6572206973206e6f7420746f60448201527f6b656e206f776e6572206f7220617070726f76656420666f7220616c6c00000060648201526084016105d5565b6106768383611225565b505050565b6106853382611293565b6106a15760405162461bcd60e51b81526004016105d590612546565b610676838383611311565b60008281526008602090815260408083208151808301909252546001600160a01b038116808352600160a01b9091046001600160601b03169282019290925282916107215750604080518082019091526007546001600160a01b0381168252600160a01b90046001600160601b031660208201525b602081015160009061271090610740906001600160601b0316876125a9565b61074a91906125d6565b915196919550909350505050565b60006107638361099d565b82106107a75760405162461bcd60e51b8152602060048201526013602482015272496e646578206f7574206f6620626f756e647360681b60448201526064016105d5565b506001600160a01b03919091166000908152601360209081526040808320938352929052205490565b61067683838360405180602001604052806000815250610b4e565b6107f3611482565b6000818152600260205260409020546001600160a01b031661084e5760405162461bcd60e51b8152602060048201526014602482015273151bdad95b88191bd95cc81b9bdd08195e1a5cdd60621b60448201526064016105d5565b336108588261093d565b6001600160a01b0316146108ae5760405162461bcd60e51b815260206004820181905260248201527f4f776e61626c653a2063616c6c6572206973206e6f7420746865206f776e657260448201526064016105d5565b6000818152600860205260408120556108c6816114dc565b50565b60006108d460175490565b82106109185760405162461bcd60e51b8152602060048201526013602482015272496e646578206f7574206f6620626f756e647360681b60448201526064016105d5565b6017828154811061092b5761092b6125f8565b90600052602060002001549050919050565b6000818152600260205260408120546001600160a01b0316806104a25760405162461bcd60e51b8152602060048201526018602482015277115490cdcc8c4e881a5b9d985b1a59081d1bdad95b88125160421b60448201526064016105d5565b60006001600160a01b038216610a075760405162461bcd60e51b815260206004820152602960248201527f4552433732313a2061646472657373207a65726f206973206e6f7420612076616044820152683634b21037bbb732b960b91b60648201526084016105d5565b506001600160a01b031660009081526003602052604090205490565b60606000610a303361099d565b905060008167ffffffffffffffff811115610a4d57610a4d6122b0565b604051908082528060200260200182016040528015610a9257816020015b6040805180820190915260008082526020820152815260200190600190039081610a6b5790505b50905060005b82811015610b15576000610aac3383610758565b600081815260106020908152604091829020825180840190935280548352600101546001600160a01b0316908201528451919250908190859085908110610af557610af56125f8565b602002602001018190525050508080610b0d9061260e565b915050610a98565b5092915050565b610b24611482565b610b2e600061151c565b565b6060600180546104b79061250c565b610b4a33838361156e565b5050565b610b583383611293565b610b745760405162461bcd60e51b81526004016105d590612546565b610b808484848461163c565b50505050565b6060610b91826111c6565b60008281526006602052604081208054610baa9061250c565b80601f0160208091040260200160405190810160405280929190818152602001828054610bd69061250c565b8015610c235780601f10610bf857610100808354040283529160200191610c23565b820191906000526020600020905b815481529060010190602001808311610c0657829003601f168201915b505050505090506000610c4160408051602081019091526000815290565b90508051600003610c53575092915050565b815115610c85578082604051602001610c6d929190612627565b60405160208183030381529060405292505050919050565b610c8e8461166f565b949350505050565b60606000825167ffffffffffffffff811115610cb457610cb46122b0565b604051908082528060200260200182016040528015610cf957816020015b6040805180820190915260008082526020820152815260200190600190039081610cd25790505b50905060005b8351811015610b1557600060106000868481518110610d2057610d206125f8565b6020908102919091018101518252818101929092526040908101600020815180830190925280548252600101546001600160a01b03169181019190915283519091508190849084908110610d7657610d766125f8565b6020026020010181905250508080610d8d9061260e565b915050610cff565b6040805180820190915260008082526020820152600d546040516331a9108f60e11b81526004810184905260009161010090046001600160a01b031690636352211e90602401602060405180830381865afa158015610df8573d6000803e3d6000fd5b505050506040513d601f19601f82011682018060405250810190610e1c9190612656565b6001600160a01b031603610e675760405162461bcd60e51b815260206004820152601260248201527113919508191bd95cc81b9bdd08195e1a5cdd60721b60448201526064016105d5565b50600090815260106020908152604091829020825180840190935280548352600101546001600160a01b03169082015290565b60606000610ea760175490565b905060008167ffffffffffffffff811115610ec457610ec46122b0565b604051908082528060200260200182016040528015610f0957816020015b6040805180820190915260008082526020820152815260200190600190039081610ee25790505b50905060005b82811015610b15576000610f22826108c9565b600081815260106020908152604091829020825180840190935280548352600101546001600160a01b031690820152845191925090849084908110610f6957610f696125f8565b6020026020010181905250508080610f809061260e565b915050610f0f565b610f90611482565b6001600160a01b038116610ff55760405162461bcd60e51b815260206004820152602660248201527f4f776e61626c653a206e6577206f776e657220697320746865207a65726f206160448201526564647265737360d01b60648201526084016105d5565b6108c68161151c565b6000611008611482565b60008251116110595760405162461bcd60e51b815260206004820152601b60248201527f546f6b656e20555249206d757374206e6f7420626520656d707479000000000060448201526064016105d5565b600f826040516110699190612673565b9081526040519081900360200190205460ff16156110c95760405162461bcd60e51b815260206004820152601860248201527f546f6b656e2055524920616c726561647920657869737473000000000000000060448201526064016105d5565b6110d7600e80546001019055565b60006110e2600e5490565b90506110ee33826116e3565b6110f881846116fd565b600061110342611790565b60008381526014602090815260408083208484529091528082209190915551909150600190600f90611136908790612673565b908152604051908190036020019020805491151560ff1990921691909117905561115f826117b0565b7f85a66b9141978db9980f7e0ce3b468cebf4f7999f32b23091c5c03e798b1ba7a3383866040516111929392919061268f565b60405180910390a15092915050565b60006001600160e01b0319821663152a902d60e11b14806104a257506104a282611840565b6000818152600260205260409020546001600160a01b03166108c65760405162461bcd60e51b8152602060048201526018602482015277115490cdcc8c4e881a5b9d985b1a59081d1bdad95b88125160421b60448201526064016105d5565b600081815260046020526040902080546001600160a01b0319166001600160a01b038416908117909155819061125a8261093d565b6001600160a01b03167f8c5be1e5ebec7d5bd14f71427d1e84f3dd0314c0f7b2291e5b200ac8c7c3b92560405160405180910390a45050565b60008061129f8361093d565b9050806001600160a01b0316846001600160a01b031614806112e657506001600160a01b0380821660009081526005602090815260408083209388168352929052205460ff165b80610c8e5750836001600160a01b03166112ff8461053a565b6001600160a01b031614949350505050565b826001600160a01b03166113248261093d565b6001600160a01b03161461134a5760405162461bcd60e51b81526004016105d5906126bf565b6001600160a01b0382166113ac5760405162461bcd60e51b8152602060048201526024808201527f4552433732313a207472616e7366657220746f20746865207a65726f206164646044820152637265737360e01b60648201526084016105d5565b6113b98383836001611890565b826001600160a01b03166113cc8261093d565b6001600160a01b0316146113f25760405162461bcd60e51b81526004016105d5906126bf565b600081815260046020908152604080832080546001600160a01b03199081169091556001600160a01b0387811680865260038552838620805460001901905590871680865283862080546001019055868652600290945282852080549092168417909155905184937fddf252ad1be2c89b69c2b068fc378daa952ba7f163c4a11628f55a4df523b3ef91a4505050565b6009546001600160a01b03163314610b2e5760405162461bcd60e51b815260206004820181905260248201527f4f776e61626c653a2063616c6c6572206973206e6f7420746865206f776e657260448201526064016105d5565b6114e58161194d565b600081815260066020526040902080546114fe9061250c565b1590506108c65760008181526006602052604081206108c691612054565b600980546001600160a01b038381166001600160a01b0319831681179093556040519116919082907f8be0079c531659141344cd1fd0a4f28419497f9722a3daafe3b4186f6b6457e090600090a35050565b816001600160a01b0316836001600160a01b0316036115cf5760405162461bcd60e51b815260206004820152601960248201527f4552433732313a20617070726f766520746f2063616c6c65720000000000000060448201526064016105d5565b6001600160a01b03838116600081815260056020908152604080832094871680845294825291829020805460ff191686151590811790915591519182527f17307eab39ab6107e8899845ad3d59bd9653f200f220920489ca2b5937696c31910160405180910390a3505050565b611647848484611311565b611653848484846119f0565b610b805760405162461bcd60e51b81526004016105d590612704565b606061167a826111c6565b600061169160408051602081019091526000815290565b905060008151116116b157604051806020016040528060008152506116dc565b806116bb84611af1565b6040516020016116cc929190612627565b6040516020818303038152906040525b9392505050565b610b4a828260405180602001604052806000815250611b84565b6000828152600260205260409020546001600160a01b03166117785760405162461bcd60e51b815260206004820152602e60248201527f45524337323155524953746f726167653a2055524920736574206f66206e6f6e60448201526d32bc34b9ba32b73a103a37b5b2b760911b60648201526084016105d5565b600082815260066020526040902061067682826127a4565b60006117a76117a262015180846125d6565b611bb7565b50909392505050565b604080518082018252828152336020808301828152600086815260108352858120945185559051600190940180546001600160a01b039095166001600160a01b031995861617905560158252849020805490931682179092558251848152918201527f93beb01ee4f5d2f89d0a0d55db47459601413c9ef0b552599f3ed68f27f82c79910160405180910390a150565b60006001600160e01b031982166380ac58cd60e01b148061187157506001600160e01b03198216635b5e139f60e01b145b806104a257506301ffc9a760e01b6001600160e01b03198316146104a2565b6001600160a01b0384166118eb576118e682601780546000838152601160205260408120829055600182018355919091527fc624b66cc0138b8fabc209247f72d758e1cf3343756d543badbf24212bed8c150155565b61190e565b826001600160a01b0316846001600160a01b03161461190e5761190e8483611c53565b6001600160a01b03831661192a5761192582611cf0565b610b80565b836001600160a01b0316836001600160a01b031614610b8057610b808383611d9f565b60006119588261093d565b9050611968816000846001611890565b6119718261093d565b600083815260046020908152604080832080546001600160a01b03199081169091556001600160a01b0385168085526003845282852080546000190190558785526002909352818420805490911690555192935084927fddf252ad1be2c89b69c2b068fc378daa952ba7f163c4a11628f55a4df523b3ef908390a45050565b60006001600160a01b0384163b15611ae657604051630a85bd0160e11b81526001600160a01b0385169063150b7a0290611a34903390899088908890600401612864565b6020604051808303816000875af1925050508015611a6f575060408051601f3d908101601f19168201909252611a6c918101906128a1565b60015b611acc573d808015611a9d576040519150601f19603f3d011682016040523d82523d6000602084013e611aa2565b606091505b508051600003611ac45760405162461bcd60e51b81526004016105d590612704565b805181602001fd5b6001600160e01b031916630a85bd0160e11b149050610c8e565b506001949350505050565b60606000611afe83611de3565b600101905060008167ffffffffffffffff811115611b1e57611b1e6122b0565b6040519080825280601f01601f191660200182016040528015611b48576020820181803683370190505b5090508181016020015b600019016f181899199a1a9b1b9c1cb0b131b232b360811b600a86061a8153600a8504945084611b5257509392505050565b611b8e8383611ebb565b611b9b60008484846119f0565b6106765760405162461bcd60e51b81526004016105d590612704565b60008080836226496581018262023ab1600483020590506004600362023ab18302010590910390600062164b09610fa0600185010205905060046105b58202058303601f019250600061098f8460500281611c1457611c146125c0565b0590506000605061098f83020585039050600b820560301994909401606402929092018301996002600c90940290910392909201975095509350505050565b60006001611c608461099d565b611c6a91906128be565b600083815260126020526040902054909150808214611cbd576001600160a01b03841660009081526013602090815260408083208584528252808320548484528184208190558352601290915290208190555b5060009182526012602090815260408084208490556001600160a01b039094168352601381528383209183525290812055565b601754600090611d02906001906128be565b60008381526011602052604081205460178054939450909284908110611d2a57611d2a6125f8565b906000526020600020015490508060178381548110611d4b57611d4b6125f8565b6000918252602080832090910192909255828152601190915260408082208490558582528120556017805480611d8357611d836128d1565b6001900381819060005260206000200160009055905550505050565b6000611daa8361099d565b6001600160a01b039093166000908152601360209081526040808320868452825280832085905593825260129052919091209190915550565b60008072184f03e93ff9f4daa797ed6e38ed64bf6a1f0160401b8310611e225772184f03e93ff9f4daa797ed6e38ed64bf6a1f0160401b830492506040015b6d04ee2d6d415b85acef81000000008310611e4e576d04ee2d6d415b85acef8100000000830492506020015b662386f26fc100008310611e6c57662386f26fc10000830492506010015b6305f5e1008310611e84576305f5e100830492506008015b6127108310611e9857612710830492506004015b60648310611eaa576064830492506002015b600a83106104a25760010192915050565b6001600160a01b038216611f115760405162461bcd60e51b815260206004820181905260248201527f4552433732313a206d696e7420746f20746865207a65726f206164647265737360448201526064016105d5565b6000818152600260205260409020546001600160a01b031615611f765760405162461bcd60e51b815260206004820152601c60248201527f4552433732313a20746f6b656e20616c7265616479206d696e7465640000000060448201526064016105d5565b611f84600083836001611890565b6000818152600260205260409020546001600160a01b031615611fe95760405162461bcd60e51b815260206004820152601c60248201527f4552433732313a20746f6b656e20616c7265616479206d696e7465640000000060448201526064016105d5565b6001600160a01b038216600081815260036020908152604080832080546001019055848352600290915280822080546001600160a01b0319168417905551839291907fddf252ad1be2c89b69c2b068fc378daa952ba7f163c4a11628f55a4df523b3ef908290a45050565b5080546120609061250c565b6000825580601f10612070575050565b601f0160209004906000526020600020908101906108c691905b8082111561209e576000815560010161208a565b5090565b6001600160e01b0319811681146108c657600080fd5b6000602082840312156120ca57600080fd5b81356116dc816120a2565b60005b838110156120f05781810151838201526020016120d8565b50506000910152565b600081518084526121118160208601602086016120d5565b601f01601f19169290920160200192915050565b6020815260006116dc60208301846120f9565b60006020828403121561214a57600080fd5b5035919050565b6001600160a01b03811681146108c657600080fd5b6000806040838503121561217957600080fd5b823561218481612151565b946020939093013593505050565b6000806000606084860312156121a757600080fd5b83356121b281612151565b925060208401356121c281612151565b929592945050506040919091013590565b600080604083850312156121e657600080fd5b50508035926020909101359150565b60006020828403121561220757600080fd5b81356116dc81612151565b602080825282518282018190526000919060409081850190868401855b8281101561226557612255848351805182526020908101516001600160a01b0316910152565b928401929085019060010161222f565b5091979650505050505050565b6000806040838503121561228557600080fd5b823561229081612151565b9150602083013580151581146122a557600080fd5b809150509250929050565b634e487b7160e01b600052604160045260246000fd5b604051601f8201601f1916810167ffffffffffffffff811182821017156122ef576122ef6122b0565b604052919050565b600067ffffffffffffffff831115612311576123116122b0565b612324601f8401601f19166020016122c6565b905082815283838301111561233857600080fd5b828260208301376000602084830101529392505050565b6000806000806080858703121561236557600080fd5b843561237081612151565b9350602085013561238081612151565b925060408501359150606085013567ffffffffffffffff8111156123a357600080fd5b8501601f810187136123b457600080fd5b6123c3878235602084016122f7565b91505092959194509250565b600060208083850312156123e257600080fd5b823567ffffffffffffffff808211156123fa57600080fd5b818501915085601f83011261240e57600080fd5b813581811115612420576124206122b0565b8060051b91506124318483016122c6565b818152918301840191848101908884111561244b57600080fd5b938501935b8385101561246957843582529385019390850190612450565b98975050505050505050565b815181526020808301516001600160a01b031690820152604081016104a2565b600080604083850312156124a857600080fd5b82356124b381612151565b915060208301356122a581612151565b6000602082840312156124d557600080fd5b813567ffffffffffffffff8111156124ec57600080fd5b8201601f810184136124fd57600080fd5b610c8e848235602084016122f7565b600181811c9082168061252057607f821691505b60208210810361254057634e487b7160e01b600052602260045260246000fd5b50919050565b6020808252602d908201527f4552433732313a2063616c6c6572206973206e6f7420746f6b656e206f776e6560408201526c1c881bdc88185c1c1c9bdd9959609a1b606082015260800190565b634e487b7160e01b600052601160045260246000fd5b80820281158282048414176104a2576104a2612593565b634e487b7160e01b600052601260045260246000fd5b6000826125f357634e487b7160e01b600052601260045260246000fd5b500490565b634e487b7160e01b600052603260045260246000fd5b60006001820161262057612620612593565b5060010190565b600083516126398184602088016120d5565b83519083019061264d8183602088016120d5565b01949350505050565b60006020828403121561266857600080fd5b81516116dc81612151565b600082516126858184602087016120d5565b9190910192915050565b60018060a01b03841681528260208201526060604082015260006126b660608301846120f9565b95945050505050565b60208082526025908201527f4552433732313a207472616e736665722066726f6d20696e636f72726563742060408201526437bbb732b960d91b606082015260800190565b60208082526032908201527f4552433732313a207472616e7366657220746f206e6f6e20455243373231526560408201527131b2b4bb32b91034b6b83632b6b2b73a32b960711b606082015260800190565b601f82111561067657600081815260208120601f850160051c8101602086101561277d5750805b601f850160051c820191505b8181101561279c57828155600101612789565b505050505050565b815167ffffffffffffffff8111156127be576127be6122b0565b6127d2816127cc845461250c565b84612756565b602080601f83116001811461280757600084156127ef5750858301515b600019600386901b1c1916600185901b17855561279c565b600085815260208120601f198616915b8281101561283657888601518255948401946001909101908401612817565b50858210156128545787850151600019600388901b60f8161c191681555b5050505050600190811b01905550565b6001600160a01b0385811682528416602082015260408101839052608060608201819052600090612897908301846120f9565b9695505050505050565b6000602082840312156128b357600080fd5b81516116dc816120a2565b818103818111156104a2576104a2612593565b634e487b7160e01b600052603160045260246000fdfea2646970667358221220a645492ac92b990e91b0db2d4594156f54acfd7ec04d49b7dc6ffca2d6b8b6fa64736f6c63430008110033",
  "immutableReferences": {},
  "source": "// SPDX-License-Identifier: MIT\npragma solidity >=0.4.22 <0.9.0;\n\nimport \"@openzeppelin/contracts/token/common/ERC2981.sol\";\nimport \"@openzeppelin/contracts/token/ERC721/extensions/ERC721URIStorage.sol\";\nimport \"@openzeppelin/contracts/access/Ownable.sol\";\nimport \"@openzeppelin/contracts/utils/Counters.sol\";\nimport \"@openzeppelin/contracts/token/ERC20/IERC20.sol\";\nimport \"@openzeppelin/contracts/utils/math/SafeMath.sol\";\nimport \"@openzeppelin/contracts/token/ERC20/ERC20.sol\";\n\ncontract CCNft is ERC721URIStorage, ERC2981, Ownable {\n  using SafeMath for uint256;\n  using Counters for Counters.Counter;\n\n  struct ERC20Token {\n    address paytoken;\n    uint256 costvalue;\n  }\n\n  struct NftItem {\n    uint256 tokenId;\n    address creator;\n  }\n\n  address public txFeeToken;\n  uint public bottlePrice = 0.013 ether;\n  uint public _minimumFee = 0.02 ether;\n  uint256 constant SECONDS_PER_DAY = 24 * 60 * 60;\n  int256 constant OFFSET19700101 = 2440588;\n  bool public paused = false;\n  IERC721 private _nft;\n  Counters.Counter private _tokenIds;\n\n  // TokenURI => Bool (Is used?)\n  mapping(string => bool) private _usedTokenURIs;\n  // NFT id => NftItem\n  mapping(uint256 => NftItem) private _idToNftItem;\n  // NFT id => Index\n  mapping(uint256 => uint256) private _idToNftIndex;\n  // NFT id => ERC20 share\n  mapping(uint256 => uint256) private _idToOwnedIndex;\n  // Account address => NFT Id => Index\n  mapping(address => mapping(uint256 => uint256)) private _ownedTokens;\n  // NFT id => Year => Extractions\n  mapping(uint256 => mapping(uint256 => uint256))\n    private _tokensExtractionsByYear;\n  // NFT id => Address[]\n  mapping(uint256 => address) _idToNftCreator;\n  // Address => Booelan\n  mapping(uint256 => address[]) addressesFromTokenId;\n\n  uint256[] private _allNfts;\n\n  event Mint(address owner, uint256 tokenId, string tokenURI);\n\n  event NftItemCreated(uint256 tokenId, address creator);\n\n  constructor() ERC721(\"CasksNFT\", \"CSKNFT\") {\n    _nft = IERC721(address(this));\n  }\n\n  /////////////////////\n  // Main Functions //\n  /////////////////////\n\n  function mintNFT(string memory _tokenURI) public onlyOwner returns (uint256) {\n    require(bytes(_tokenURI).length > 0, \"Token URI must not be empty\");\n    require(!_usedTokenURIs[_tokenURI], \"Token URI already exists\");\n\n    _tokenIds.increment();\n    uint256 newItemId = _tokenIds.current();\n\n    _safeMint(msg.sender, newItemId);\n    _setTokenURI(newItemId, _tokenURI);\n\n    uint256 year = getYear(block.timestamp);\n    _tokensExtractionsByYear[newItemId][year] = 0;\n\n    _usedTokenURIs[_tokenURI] = true;\n    _createNftItem(newItemId);\n\n    emit Mint(msg.sender, newItemId, _tokenURI);\n\n    return newItemId;\n  }\n\n  function burn(uint256 tokenId) public onlyOwner {\n    require(_exists(tokenId), \"Token does not exist\");\n    require(\n      ownerOf(tokenId) == _msgSender(),\n      \"Ownable: caller is not the owner\"\n    );\n    _resetTokenRoyalty(tokenId);\n    super._burn(tokenId);\n  }\n\n  function getNftInfo(uint256 tokenId) external view returns (NftItem memory) {\n    require(_nft.ownerOf(tokenId) != address(0), \"NFT does not exist\");\n    NftItem memory item = _idToNftItem[tokenId];\n    return item;\n  }\n\n  function getAllNFTs() external view returns (NftItem[] memory) {\n    uint256 totalItemsCount = totalSupply();\n    NftItem[] memory items = new NftItem[](totalItemsCount);\n\n    for (uint256 i = 0; i < totalItemsCount; i++) {\n      uint256 tokenId = tokenByIndex(i);\n      items[i] = _idToNftItem[tokenId];\n    }\n\n    return items;\n  }\n\n  function getAllNftsOnSale(\n    uint256[] memory _tokensIds\n  ) external view returns (NftItem[] memory) {\n    NftItem[] memory items = new NftItem[](_tokensIds.length);\n\n    for (uint256 i = 0; i < _tokensIds.length; i++) {\n      NftItem memory item = _idToNftItem[_tokensIds[i]];\n      items[i] = item;\n    }\n\n    return items;\n  }\n\n  function getOwnedNfts() public view returns (NftItem[] memory) {\n    uint ownedItemsCount = ERC721.balanceOf(msg.sender);\n    NftItem[] memory items = new NftItem[](ownedItemsCount);\n\n    for (uint256 i = 0; i < ownedItemsCount; i++) {\n      uint256 tokenId = tokenOfOwnerByIndex(msg.sender, i);\n      NftItem memory item = _idToNftItem[tokenId];\n      items[i] = item;\n    }\n\n    return items;\n  }\n\n  function supportsInterface(\n    bytes4 interfaceId\n  ) public view virtual override(ERC721, ERC2981) returns (bool) {\n    return super.supportsInterface(interfaceId);\n  }\n\n  function totalSupply() public view returns (uint256) {\n    return _allNfts.length;\n  }\n\n  function tokenByIndex(uint index) public view returns (uint) {\n    require(index < totalSupply(), \"Index out of bounds\");\n    return _allNfts[index];\n  }\n\n  function tokenOfOwnerByIndex(\n    address owner,\n    uint index\n  ) public view returns (uint) {\n    require(index < ERC721.balanceOf(owner), \"Index out of bounds\");\n    return _ownedTokens[owner][index];\n  }\n\n  function getYear(uint256 timestamp) internal pure returns (uint256 year) {\n    (year, , ) = _daysToDate(timestamp / SECONDS_PER_DAY);\n  }\n\n  function _tokenURIExists(string memory tokenURI) private view returns (bool) {\n    return _usedTokenURIs[tokenURI] == true;\n  }\n\n  function _createNftItem(uint _tokenId) private {\n    _idToNftItem[_tokenId] = NftItem(_tokenId, msg.sender);\n    _idToNftCreator[_tokenId] = msg.sender;\n\n    emit NftItemCreated(_tokenId, msg.sender);\n  }\n\n  function getNftCreator(uint _tokenId) public view returns (address) {\n    return _idToNftCreator[_tokenId];\n  }\n\n  function _beforeTokenTransfer(\n    address from,\n    address to,\n    uint tokenId,\n    uint256 batchSize\n  ) internal virtual override {\n    super._beforeTokenTransfer(from, to, tokenId, batchSize);\n\n    if (from == address(0)) {\n      // MINTING CASE\n      _addTokenToAllTokensEnumeration(tokenId);\n    } else if (from != to) {\n      // TRANSFER CASE\n      _removeTokenFromOwnerEnumeration(from, tokenId);\n    }\n\n    if (to == address(0)) {\n      // BURNING CASE\n      _removeTokenFromAllTokensEnumeration(tokenId);\n    } else if (to != from) {\n      // TRANSFER CASE\n      _addTokenToOwnerEnumeration(to, tokenId);\n    }\n  }\n\n  function _addTokenToOwnerEnumeration(address to, uint tokenId) private {\n    uint length = ERC721.balanceOf(to);\n    _ownedTokens[to][length] = tokenId;\n    _idToOwnedIndex[tokenId] = length;\n  }\n\n  function _removeTokenFromOwnerEnumeration(\n    address from,\n    uint tokenId\n  ) private {\n    uint lastTokenIndex = ERC721.balanceOf(from) - 1;\n    uint tokenIndex = _idToOwnedIndex[tokenId];\n\n    if (tokenIndex != lastTokenIndex) {\n      uint lastTokenId = _ownedTokens[from][lastTokenIndex];\n\n      _ownedTokens[from][tokenIndex] = lastTokenId;\n      _idToOwnedIndex[lastTokenId] = tokenIndex;\n    }\n\n    delete _idToOwnedIndex[tokenId];\n    delete _ownedTokens[from][lastTokenIndex];\n  }\n\n  function _addTokenToAllTokensEnumeration(uint tokenId) private {\n    _idToNftIndex[tokenId] = _allNfts.length;\n    _allNfts.push(tokenId);\n  }\n\n  function _removeTokenFromAllTokensEnumeration(uint tokenId) private {\n    uint lastTokenIndex = _allNfts.length - 1;\n    uint tokenIndex = _idToNftIndex[tokenId];\n    uint lastTokenId = _allNfts[lastTokenIndex];\n\n    _allNfts[tokenIndex] = lastTokenId;\n    _idToNftIndex[lastTokenId] = tokenIndex;\n\n    delete _idToNftIndex[tokenId];\n    _allNfts.pop();\n  }\n\n  function _daysToDate(\n    uint256 _days\n  ) internal pure returns (uint256 year, uint256 month, uint256 day) {\n    unchecked {\n      int256 __days = int256(_days);\n\n      int256 L = __days + 68569 + OFFSET19700101;\n      int256 N = (4 * L) / 146097;\n      L = L - (146097 * N + 3) / 4;\n      int256 _year = (4000 * (L + 1)) / 1461001;\n      L = L - (1461 * _year) / 4 + 31;\n      int256 _month = (80 * L) / 2447;\n      int256 _day = L - (2447 * _month) / 80;\n      L = _month / 11;\n      _month = _month + 2 - 12 * L;\n      _year = 100 * (N - 49) + _year + L;\n\n      year = uint256(_year);\n      month = uint256(_month);\n      day = uint256(_day);\n    }\n  }\n}\n",
  "sourcePath": "/Users/alberto/Desktop/Enalbis/caskchain-mono/apps/contracts/contracts/CCNft.sol",
  "compiler": {
    "name": "solc",
    "version": "0.8.17+commit.8df45f5f.Emscripten.clang"
  },
  "schemaVersion": "3.4.11",
  "updatedAt": "2023-04-16T11:40:01.480Z",
  "networkType": "ethereum",
  "devdoc": {
    "kind": "dev",
    "methods": {
      "approve(address,uint256)": {
        "details": "See {IERC721-approve}."
      },
      "balanceOf(address)": {
        "details": "See {IERC721-balanceOf}."
      },
      "getApproved(uint256)": {
        "details": "See {IERC721-getApproved}."
      },
      "isApprovedForAll(address,address)": {
        "details": "See {IERC721-isApprovedForAll}."
      },
      "name()": {
        "details": "See {IERC721Metadata-name}."
      },
      "owner()": {
        "details": "Returns the address of the current owner."
      },
      "ownerOf(uint256)": {
        "details": "See {IERC721-ownerOf}."
      },
      "renounceOwnership()": {
        "details": "Leaves the contract without owner. It will not be possible to call `onlyOwner` functions anymore. Can only be called by the current owner. NOTE: Renouncing ownership will leave the contract without an owner, thereby removing any functionality that is only available to the owner."
      },
      "royaltyInfo(uint256,uint256)": {
        "details": "Returns how much royalty is owed and to whom, based on a sale price that may be denominated in any unit of exchange. The royalty amount is denominated and should be paid in that same unit of exchange."
      },
      "safeTransferFrom(address,address,uint256)": {
        "details": "See {IERC721-safeTransferFrom}."
      },
      "safeTransferFrom(address,address,uint256,bytes)": {
        "details": "See {IERC721-safeTransferFrom}."
      },
      "setApprovalForAll(address,bool)": {
        "details": "See {IERC721-setApprovalForAll}."
      },
      "symbol()": {
        "details": "See {IERC721Metadata-symbol}."
      },
      "tokenURI(uint256)": {
        "details": "See {IERC721Metadata-tokenURI}."
      },
      "transferFrom(address,address,uint256)": {
        "details": "See {IERC721-transferFrom}."
      },
      "transferOwnership(address)": {
        "details": "Transfers ownership of the contract to a new account (`newOwner`). Can only be called by the current owner."
      }
    },
    "version": 1
  },
  "userdoc": {
    "kind": "user",
    "methods": {},
    "version": 1
  }
}