{
  "contractName": "CCNft",
  "abi": [
    {
      "anonymous": false,
      "inputs": [
        {
          "indexed": false,
          "internalType": "address",
          "name": "previousAdmin",
          "type": "address"
        },
        {
          "indexed": false,
          "internalType": "address",
          "name": "newAdmin",
          "type": "address"
        }
      ],
      "name": "AdminChanged",
      "type": "event"
    },
    {
      "anonymous": false,
      "inputs": [
        {
          "indexed": true,
          "internalType": "address",
          "name": "owner",
          "type": "address"
        },
        {
          "indexed": true,
          "internalType": "address",
          "name": "approved",
          "type": "address"
        },
        {
          "indexed": true,
          "internalType": "uint256",
          "name": "tokenId",
          "type": "uint256"
        }
      ],
      "name": "Approval",
      "type": "event"
    },
    {
      "anonymous": false,
      "inputs": [
        {
          "indexed": true,
          "internalType": "address",
          "name": "owner",
          "type": "address"
        },
        {
          "indexed": true,
          "internalType": "address",
          "name": "operator",
          "type": "address"
        },
        {
          "indexed": false,
          "internalType": "bool",
          "name": "approved",
          "type": "bool"
        }
      ],
      "name": "ApprovalForAll",
      "type": "event"
    },
    {
      "anonymous": false,
      "inputs": [
        {
          "indexed": true,
          "internalType": "address",
          "name": "beacon",
          "type": "address"
        }
      ],
      "name": "BeaconUpgraded",
      "type": "event"
    },
    {
      "anonymous": false,
      "inputs": [
        {
          "indexed": false,
          "internalType": "uint8",
          "name": "version",
          "type": "uint8"
        }
      ],
      "name": "Initialized",
      "type": "event"
    },
    {
      "anonymous": false,
      "inputs": [
        {
          "indexed": false,
          "internalType": "address",
          "name": "owner",
          "type": "address"
        },
        {
          "indexed": false,
          "internalType": "uint256",
          "name": "tokenId",
          "type": "uint256"
        },
        {
          "indexed": false,
          "internalType": "string",
          "name": "tokenURI",
          "type": "string"
        }
      ],
      "name": "Mint",
      "type": "event"
    },
    {
      "anonymous": false,
      "inputs": [
        {
          "indexed": false,
          "internalType": "uint256",
          "name": "tokenId",
          "type": "uint256"
        },
        {
          "indexed": false,
          "internalType": "address",
          "name": "creator",
          "type": "address"
        }
      ],
      "name": "NftItemCreated",
      "type": "event"
    },
    {
      "anonymous": false,
      "inputs": [
        {
          "indexed": true,
          "internalType": "address",
          "name": "previousOwner",
          "type": "address"
        },
        {
          "indexed": true,
          "internalType": "address",
          "name": "newOwner",
          "type": "address"
        }
      ],
      "name": "OwnershipTransferred",
      "type": "event"
    },
    {
      "anonymous": false,
      "inputs": [
        {
          "indexed": true,
          "internalType": "address",
          "name": "from",
          "type": "address"
        },
        {
          "indexed": true,
          "internalType": "address",
          "name": "to",
          "type": "address"
        },
        {
          "indexed": true,
          "internalType": "uint256",
          "name": "tokenId",
          "type": "uint256"
        }
      ],
      "name": "Transfer",
      "type": "event"
    },
    {
      "anonymous": false,
      "inputs": [
        {
          "indexed": true,
          "internalType": "address",
          "name": "implementation",
          "type": "address"
        }
      ],
      "name": "Upgraded",
      "type": "event"
    },
    {
      "inputs": [
        {
          "internalType": "address",
          "name": "to",
          "type": "address"
        },
        {
          "internalType": "uint256",
          "name": "tokenId",
          "type": "uint256"
        }
      ],
      "name": "approve",
      "outputs": [],
      "stateMutability": "nonpayable",
      "type": "function"
    },
    {
      "inputs": [
        {
          "internalType": "address",
          "name": "owner",
          "type": "address"
        }
      ],
      "name": "balanceOf",
      "outputs": [
        {
          "internalType": "uint256",
          "name": "",
          "type": "uint256"
        }
      ],
      "stateMutability": "view",
      "type": "function",
      "constant": true
    },
    {
      "inputs": [
        {
          "internalType": "uint256",
          "name": "tokenId",
          "type": "uint256"
        }
      ],
      "name": "getApproved",
      "outputs": [
        {
          "internalType": "address",
          "name": "",
          "type": "address"
        }
      ],
      "stateMutability": "view",
      "type": "function",
      "constant": true
    },
    {
      "inputs": [
        {
          "internalType": "address",
          "name": "owner",
          "type": "address"
        },
        {
          "internalType": "address",
          "name": "operator",
          "type": "address"
        }
      ],
      "name": "isApprovedForAll",
      "outputs": [
        {
          "internalType": "bool",
          "name": "",
          "type": "bool"
        }
      ],
      "stateMutability": "view",
      "type": "function",
      "constant": true
    },
    {
      "inputs": [],
      "name": "name",
      "outputs": [
        {
          "internalType": "string",
          "name": "",
          "type": "string"
        }
      ],
      "stateMutability": "view",
      "type": "function",
      "constant": true
    },
    {
      "inputs": [],
      "name": "owner",
      "outputs": [
        {
          "internalType": "address",
          "name": "",
          "type": "address"
        }
      ],
      "stateMutability": "view",
      "type": "function",
      "constant": true
    },
    {
      "inputs": [
        {
          "internalType": "uint256",
          "name": "tokenId",
          "type": "uint256"
        }
      ],
      "name": "ownerOf",
      "outputs": [
        {
          "internalType": "address",
          "name": "",
          "type": "address"
        }
      ],
      "stateMutability": "view",
      "type": "function",
      "constant": true
    },
    {
      "inputs": [],
      "name": "proxiableUUID",
      "outputs": [
        {
          "internalType": "bytes32",
          "name": "",
          "type": "bytes32"
        }
      ],
      "stateMutability": "view",
      "type": "function",
      "constant": true
    },
    {
      "inputs": [],
      "name": "renounceOwnership",
      "outputs": [],
      "stateMutability": "nonpayable",
      "type": "function"
    },
    {
      "inputs": [
        {
          "internalType": "uint256",
          "name": "_tokenId",
          "type": "uint256"
        },
        {
          "internalType": "uint256",
          "name": "_salePrice",
          "type": "uint256"
        }
      ],
      "name": "royaltyInfo",
      "outputs": [
        {
          "internalType": "address",
          "name": "",
          "type": "address"
        },
        {
          "internalType": "uint256",
          "name": "",
          "type": "uint256"
        }
      ],
      "stateMutability": "view",
      "type": "function",
      "constant": true
    },
    {
      "inputs": [
        {
          "internalType": "address",
          "name": "from",
          "type": "address"
        },
        {
          "internalType": "address",
          "name": "to",
          "type": "address"
        },
        {
          "internalType": "uint256",
          "name": "tokenId",
          "type": "uint256"
        }
      ],
      "name": "safeTransferFrom",
      "outputs": [],
      "stateMutability": "nonpayable",
      "type": "function"
    },
    {
      "inputs": [
        {
          "internalType": "address",
          "name": "from",
          "type": "address"
        },
        {
          "internalType": "address",
          "name": "to",
          "type": "address"
        },
        {
          "internalType": "uint256",
          "name": "tokenId",
          "type": "uint256"
        },
        {
          "internalType": "bytes",
          "name": "data",
          "type": "bytes"
        }
      ],
      "name": "safeTransferFrom",
      "outputs": [],
      "stateMutability": "nonpayable",
      "type": "function"
    },
    {
      "inputs": [
        {
          "internalType": "address",
          "name": "operator",
          "type": "address"
        },
        {
          "internalType": "bool",
          "name": "approved",
          "type": "bool"
        }
      ],
      "name": "setApprovalForAll",
      "outputs": [],
      "stateMutability": "nonpayable",
      "type": "function"
    },
    {
      "inputs": [],
      "name": "symbol",
      "outputs": [
        {
          "internalType": "string",
          "name": "",
          "type": "string"
        }
      ],
      "stateMutability": "view",
      "type": "function",
      "constant": true
    },
    {
      "inputs": [
        {
          "internalType": "uint256",
          "name": "tokenId",
          "type": "uint256"
        }
      ],
      "name": "tokenURI",
      "outputs": [
        {
          "internalType": "string",
          "name": "",
          "type": "string"
        }
      ],
      "stateMutability": "view",
      "type": "function",
      "constant": true
    },
    {
      "inputs": [
        {
          "internalType": "address",
          "name": "from",
          "type": "address"
        },
        {
          "internalType": "address",
          "name": "to",
          "type": "address"
        },
        {
          "internalType": "uint256",
          "name": "tokenId",
          "type": "uint256"
        }
      ],
      "name": "transferFrom",
      "outputs": [],
      "stateMutability": "nonpayable",
      "type": "function"
    },
    {
      "inputs": [
        {
          "internalType": "address",
          "name": "newOwner",
          "type": "address"
        }
      ],
      "name": "transferOwnership",
      "outputs": [],
      "stateMutability": "nonpayable",
      "type": "function"
    },
    {
      "inputs": [],
      "name": "txFeeToken",
      "outputs": [
        {
          "internalType": "address",
          "name": "",
          "type": "address"
        }
      ],
      "stateMutability": "view",
      "type": "function",
      "constant": true
    },
    {
      "inputs": [
        {
          "internalType": "address",
          "name": "newImplementation",
          "type": "address"
        }
      ],
      "name": "upgradeTo",
      "outputs": [],
      "stateMutability": "nonpayable",
      "type": "function"
    },
    {
      "inputs": [
        {
          "internalType": "address",
          "name": "newImplementation",
          "type": "address"
        },
        {
          "internalType": "bytes",
          "name": "data",
          "type": "bytes"
        }
      ],
      "name": "upgradeToAndCall",
      "outputs": [],
      "stateMutability": "payable",
      "type": "function",
      "payable": true
    },
    {
      "inputs": [
        {
          "internalType": "address",
          "name": "storageAddress",
          "type": "address"
        }
      ],
      "name": "initialize",
      "outputs": [],
      "stateMutability": "nonpayable",
      "type": "function"
    },
    {
      "inputs": [
        {
          "internalType": "string",
          "name": "tokenURI",
          "type": "string"
        }
      ],
      "name": "checkIfTokenURIExists",
      "outputs": [
        {
          "internalType": "bool",
          "name": "",
          "type": "bool"
        }
      ],
      "stateMutability": "view",
      "type": "function",
      "constant": true
    },
    {
      "inputs": [
        {
          "internalType": "string",
          "name": "_tokenURI",
          "type": "string"
        }
      ],
      "name": "mintNFT",
      "outputs": [
        {
          "internalType": "uint256",
          "name": "",
          "type": "uint256"
        }
      ],
      "stateMutability": "nonpayable",
      "type": "function"
    },
    {
      "inputs": [
        {
          "internalType": "uint256",
          "name": "tokenId",
          "type": "uint256"
        }
      ],
      "name": "burn",
      "outputs": [],
      "stateMutability": "nonpayable",
      "type": "function"
    },
    {
      "inputs": [],
      "name": "getNftTotalSupply",
      "outputs": [
        {
          "internalType": "uint256",
          "name": "",
          "type": "uint256"
        }
      ],
      "stateMutability": "view",
      "type": "function",
      "constant": true
    },
    {
      "inputs": [
        {
          "internalType": "uint256",
          "name": "tokenId",
          "type": "uint256"
        }
      ],
      "name": "getNftInfo",
      "outputs": [
        {
          "components": [
            {
              "internalType": "uint256",
              "name": "tokenId",
              "type": "uint256"
            },
            {
              "internalType": "address",
              "name": "creator",
              "type": "address"
            }
          ],
          "internalType": "struct ICCNftStorage.NftItem",
          "name": "",
          "type": "tuple"
        }
      ],
      "stateMutability": "view",
      "type": "function",
      "constant": true
    },
    {
      "inputs": [],
      "name": "getAllNFTs",
      "outputs": [
        {
          "components": [
            {
              "internalType": "uint256",
              "name": "tokenId",
              "type": "uint256"
            },
            {
              "internalType": "address",
              "name": "creator",
              "type": "address"
            }
          ],
          "internalType": "struct ICCNftStorage.NftItem[]",
          "name": "",
          "type": "tuple[]"
        }
      ],
      "stateMutability": "view",
      "type": "function",
      "constant": true
    },
    {
      "inputs": [
        {
          "internalType": "uint256[]",
          "name": "_tokensIds",
          "type": "uint256[]"
        }
      ],
      "name": "getAllNftsOnSale",
      "outputs": [
        {
          "components": [
            {
              "internalType": "uint256",
              "name": "tokenId",
              "type": "uint256"
            },
            {
              "internalType": "address",
              "name": "creator",
              "type": "address"
            }
          ],
          "internalType": "struct ICCNftStorage.NftItem[]",
          "name": "",
          "type": "tuple[]"
        }
      ],
      "stateMutability": "view",
      "type": "function",
      "constant": true
    },
    {
      "inputs": [
        {
          "internalType": "uint256",
          "name": "tokenId",
          "type": "uint256"
        }
      ],
      "name": "getCreatorNft",
      "outputs": [
        {
          "internalType": "address",
          "name": "",
          "type": "address"
        }
      ],
      "stateMutability": "view",
      "type": "function",
      "constant": true
    },
    {
      "inputs": [],
      "name": "getOwnedNfts",
      "outputs": [
        {
          "components": [
            {
              "internalType": "uint256",
              "name": "tokenId",
              "type": "uint256"
            },
            {
              "internalType": "address",
              "name": "creator",
              "type": "address"
            }
          ],
          "internalType": "struct ICCNftStorage.NftItem[]",
          "name": "",
          "type": "tuple[]"
        }
      ],
      "stateMutability": "view",
      "type": "function",
      "constant": true
    },
    {
      "inputs": [
        {
          "internalType": "bytes4",
          "name": "interfaceId",
          "type": "bytes4"
        }
      ],
      "name": "supportsInterface",
      "outputs": [
        {
          "internalType": "bool",
          "name": "",
          "type": "bool"
        }
      ],
      "stateMutability": "view",
      "type": "function",
      "constant": true
    }
  ],
  "bytecode": "0x60a06040523060805234801561001457600080fd5b50608051613e2461004c600039600081816108b0015281816108f001528181610a8501528181610ac50152610b580152613e246000f3fe6080604052600436106101d85760003560e01c806377c567a711610102578063c4d66de811610095578063e0391b0911610064578063e0391b0914610570578063e985e9c514610585578063f2fde38b146105a5578063fb37e883146105c557600080fd5b8063c4d66de8146104e3578063c87b56dd14610503578063ca32232c14610523578063d5ec2d831461054357600080fd5b806395d89b41116100d157806395d89b411461046e5780639f60d97114610483578063a22cb465146104a3578063b88d4fde146104c357600080fd5b806377c567a7146103fa57806387888b5b1461041b5780638da5cb5b146104305780638f2715311461044e57600080fd5b806342842e0e1161017a5780636352211e116101495780636352211e1461038357806370a08231146103a357806370cbcb43146103c3578063715018a6146103e557600080fd5b806342842e0e1461030d57806342966c681461032d5780634f1ef2861461034d57806352d1902d1461036057600080fd5b8063095ea7b3116101b6578063095ea7b31461026c57806323b872dd1461028e5780632a55205a146102ae5780633659cfe6146102ed57600080fd5b806301ffc9a7146101dd57806306fdde0314610212578063081812fc14610234575b600080fd5b3480156101e957600080fd5b506101fd6101f83660046133cb565b6105e5565b60405190151581526020015b60405180910390f35b34801561021e57600080fd5b506102276105f6565b6040516102099190613438565b34801561024057600080fd5b5061025461024f36600461344b565b610688565b6040516001600160a01b039091168152602001610209565b34801561027857600080fd5b5061028c610287366004613479565b6106af565b005b34801561029a57600080fd5b5061028c6102a93660046134a5565b6107c9565b3480156102ba57600080fd5b506102ce6102c93660046134e6565b6107fa565b604080516001600160a01b039093168352602083019190915201610209565b3480156102f957600080fd5b5061028c610308366004613508565b6108a6565b34801561031957600080fd5b5061028c6103283660046134a5565b610985565b34801561033957600080fd5b5061028c61034836600461344b565b6109a0565b61028c61035b3660046135e4565b610a7b565b34801561036c57600080fd5b50610375610b4b565b604051908152602001610209565b34801561038f57600080fd5b5061025461039e36600461344b565b610bfe565b3480156103af57600080fd5b506103756103be366004613508565b610c5e565b3480156103cf57600080fd5b506103d8610ce4565b6040516102099190613634565b3480156103f157600080fd5b5061028c610ed2565b34801561040657600080fd5b5061019154610254906001600160a01b031681565b34801561042757600080fd5b50610375610ee6565b34801561043c57600080fd5b5060fb546001600160a01b0316610254565b34801561045a57600080fd5b5061025461046936600461344b565b610f5a565b34801561047a57600080fd5b50610227610fd4565b34801561048f57600080fd5b506101fd61049e366004613694565b610fe3565b3480156104af57600080fd5b5061028c6104be3660046136eb565b611056565b3480156104cf57600080fd5b5061028c6104de366004613724565b611061565b3480156104ef57600080fd5b5061028c6104fe366004613508565b611099565b34801561050f57600080fd5b5061022761051e36600461344b565b611216565b34801561052f57600080fd5b506103d861053e366004613790565b611326565b34801561054f57600080fd5b5061056361055e36600461344b565b6114af565b6040516102099190613836565b34801561057c57600080fd5b506103d8611531565b34801561059157600080fd5b506101fd6105a0366004613856565b61172b565b3480156105b157600080fd5b5061028c6105c0366004613508565b611759565b3480156105d157600080fd5b506103756105e0366004613694565b6117cf565b60006105f0826119d8565b92915050565b60606065805461060590613884565b80601f016020809104026020016040519081016040528092919081815260200182805461063190613884565b801561067e5780601f106106535761010080835404028352916020019161067e565b820191906000526020600020905b81548152906001019060200180831161066157829003601f168201915b5050505050905090565b6000610693826119fd565b506000908152606960205260409020546001600160a01b031690565b60006106ba82610bfe565b9050806001600160a01b0316836001600160a01b03160361072c5760405162461bcd60e51b815260206004820152602160248201527f4552433732313a20617070726f76616c20746f2063757272656e74206f776e656044820152603960f91b60648201526084015b60405180910390fd5b336001600160a01b03821614806107485750610748813361172b565b6107ba5760405162461bcd60e51b815260206004820152603d60248201527f4552433732313a20617070726f76652063616c6c6572206973206e6f7420746f60448201527f6b656e206f776e6572206f7220617070726f76656420666f7220616c6c0000006064820152608401610723565b6107c48383611a5c565b505050565b6107d33382611aca565b6107ef5760405162461bcd60e51b8152600401610723906138be565b6107c4838383611b28565b600082815260ca602090815260408083208151808301909252546001600160a01b038116808352600160a01b9091046001600160601b031692820192909252829161086f57506040805180820190915260c9546001600160a01b0381168252600160a01b90046001600160601b031660208201525b60208101516000906127109061088e906001600160601b031687613921565b610898919061394e565b915196919550909350505050565b6001600160a01b037f00000000000000000000000000000000000000000000000000000000000000001630036108ee5760405162461bcd60e51b815260040161072390613970565b7f00000000000000000000000000000000000000000000000000000000000000006001600160a01b0316610937600080516020613da8833981519152546001600160a01b031690565b6001600160a01b03161461095d5760405162461bcd60e51b8152600401610723906139bc565b61096681611c99565b6040805160008082526020820190925261098291839190611ca1565b50565b6107c483838360405180602001604052806000815250611061565b6109a8611e0c565b6000818152606760205260409020546001600160a01b0316610a035760405162461bcd60e51b8152602060048201526014602482015273151bdad95b88191bd95cc81b9bdd08195e1a5cdd60621b6044820152606401610723565b33610a0d82610bfe565b6001600160a01b031614610a635760405162461bcd60e51b815260206004820181905260248201527f4f776e61626c653a2063616c6c6572206973206e6f7420746865206f776e65726044820152606401610723565b600081815260ca602052604081205561098281611e66565b6001600160a01b037f0000000000000000000000000000000000000000000000000000000000000000163003610ac35760405162461bcd60e51b815260040161072390613970565b7f00000000000000000000000000000000000000000000000000000000000000006001600160a01b0316610b0c600080516020613da8833981519152546001600160a01b031690565b6001600160a01b031614610b325760405162461bcd60e51b8152600401610723906139bc565b610b3b82611c99565b610b4782826001611ca1565b5050565b6000306001600160a01b037f00000000000000000000000000000000000000000000000000000000000000001614610beb5760405162461bcd60e51b815260206004820152603860248201527f555550535570677261646561626c653a206d757374206e6f742062652063616c60448201527f6c6564207468726f7567682064656c656761746563616c6c00000000000000006064820152608401610723565b50600080516020613da883398151915290565b6000818152606760205260408120546001600160a01b0316806105f05760405162461bcd60e51b8152602060048201526018602482015277115490cdcc8c4e881a5b9d985b1a59081d1bdad95b88125160421b6044820152606401610723565b60006001600160a01b038216610cc85760405162461bcd60e51b815260206004820152602960248201527f4552433732313a2061646472657373207a65726f206973206e6f7420612076616044820152683634b21037bbb732b960b91b6064820152608401610723565b506001600160a01b031660009081526068602052604090205490565b60606000610cf133610c5e565b905060008167ffffffffffffffff811115610d0e57610d0e613525565b604051908082528060200260200182016040528015610d5357816020015b6040805180820190915260008082526020820152815260200190600190039081610d2c5790505b50905060005b82811015610ecb57610d6a33610c5e565b8110610dae5760405162461bcd60e51b8152602060048201526013602482015272496e646578206f7574206f6620626f756e647360681b6044820152606401610723565b61019254604051633469892160e01b8152336004820152602481018390526000916001600160a01b031690633469892190604401602060405180830381865afa158015610dff573d6000803e3d6000fd5b505050506040513d601f19601f82011682018060405250810190610e239190613a08565b610192546040516313a2241360e31b8152600481018390529192506000916001600160a01b0390911690639d112098906024016040805180830381865afa158015610e72573d6000803e3d6000fd5b505050506040513d601f19601f82011682018060405250810190610e969190613a21565b905080848481518110610eab57610eab613a77565b602002602001018190525050508080610ec390613a8d565b915050610d59565b5092915050565b610eda611e0c565b610ee46000611ea6565b565b61019254604080516362720d9160e11b815290516000926001600160a01b03169163c4e41b229160048083019260209291908290030181865afa158015610f31573d6000803e3d6000fd5b505050506040513d601f19601f82011682018060405250810190610f559190613a08565b905090565b6101925460405163e462266360e01b81526004810183905260009182916001600160a01b039091169063e462266390602401602060405180830381865afa158015610fa9573d6000803e3d6000fd5b505050506040513d601f19601f82011682018060405250810190610fcd9190613aa6565b9392505050565b60606066805461060590613884565b610192546040516316330d7d60e21b81526000916001600160a01b0316906358cc35f490611015908590600401613438565b602060405180830381865afa158015611032573d6000803e3d6000fd5b505050506040513d601f19601f820116820180604052508101906105f09190613ac3565b610b47338383611ef8565b61106b3383611aca565b6110875760405162461bcd60e51b8152600401610723906138be565b61109384848484611fc6565b50505050565b600054610100900460ff16158080156110b95750600054600160ff909116105b806110d35750303b1580156110d3575060005460ff166001145b6111365760405162461bcd60e51b815260206004820152602e60248201527f496e697469616c697a61626c653a20636f6e747261637420697320616c72656160448201526d191e481a5b9a5d1a585b1a5e995960921b6064820152608401610723565b6000805460ff191660011790558015611159576000805461ff0019166101001790555b6111a16040518060400160405280600881526020016710d85cdadcd3919560c21b8152506040518060400160405280600681526020016510d4d2d3919560d21b815250611ff9565b6111a961202a565b6111b1612059565b61019280546001600160a01b0319166001600160a01b0384161790558015610b47576000805461ff0019169055604051600181527f7f26b83ff96e1f2b6a682f133852f6798a09c465da95921460cefb38474024989060200160405180910390a15050565b6060611221826119fd565b6000828152609760205260408120805461123a90613884565b80601f016020809104026020016040519081016040528092919081815260200182805461126690613884565b80156112b35780601f10611288576101008083540402835291602001916112b3565b820191906000526020600020905b81548152906001019060200180831161129657829003601f168201915b5050505050905060006112d160408051602081019091526000815290565b905080516000036112e3575092915050565b8151156113155780826040516020016112fd929190613ae0565b60405160208183030381529060405292505050919050565b61131e84612080565b949350505050565b60606000825167ffffffffffffffff81111561134457611344613525565b60405190808252806020026020018201604052801561138957816020015b60408051808201909152600080825260208201528152602001906001900390816113625790505b50905060005b8351811015610ecb57610192546040516349f202ff60e01b8152600481018390526000916001600160a01b0316906349f202ff90602401602060405180830381865afa1580156113e3573d6000803e3d6000fd5b505050506040513d601f19601f820116820180604052508101906114079190613a08565b610192546040516313a2241360e31b8152600481018390529192506000916001600160a01b0390911690639d112098906024016040805180830381865afa158015611456573d6000803e3d6000fd5b505050506040513d601f19601f8201168201806040525081019061147a9190613a21565b90508084848151811061148f5761148f613a77565b6020026020010181905250505080806114a790613a8d565b91505061138f565b6040805180820190915260008082526020820152610192546040516313a2241360e31b8152600481018490526000916001600160a01b031690639d112098906024016040805180830381865afa15801561150d573d6000803e3d6000fd5b505050506040513d601f19601f82011682018060405250810190610fcd9190613a21565b6060600061019260009054906101000a90046001600160a01b03166001600160a01b031663c4e41b226040518163ffffffff1660e01b8152600401602060405180830381865afa158015611589573d6000803e3d6000fd5b505050506040513d601f19601f820116820180604052508101906115ad9190613a08565b905060008167ffffffffffffffff8111156115ca576115ca613525565b60405190808252806020026020018201604052801561160f57816020015b60408051808201909152600080825260208201528152602001906001900390816115e85790505b50905060005b82811015610ecb576101925460405163644b7a4360e01b8152600481018390526000916001600160a01b03169063644b7a4390602401602060405180830381865afa158015611668573d6000803e3d6000fd5b505050506040513d601f19601f8201168201806040525081019061168c9190613a08565b610192546040516313a2241360e31b8152600481018390529192506001600160a01b031690639d112098906024016040805180830381865afa1580156116d6573d6000803e3d6000fd5b505050506040513d601f19601f820116820180604052508101906116fa9190613a21565b83838151811061170c5761170c613a77565b602002602001018190525050808061172390613a8d565b915050611615565b6001600160a01b039182166000908152606a6020908152604080832093909416825291909152205460ff1690565b611761611e0c565b6001600160a01b0381166117c65760405162461bcd60e51b815260206004820152602660248201527f4f776e61626c653a206e6577206f776e657220697320746865207a65726f206160448201526564647265737360d01b6064820152608401610723565b61098281611ea6565b60006117d9611e0c565b600082511161182a5760405162461bcd60e51b815260206004820152601b60248201527f546f6b656e20555249206d757374206e6f7420626520656d70747900000000006044820152606401610723565b61183382610fe3565b156118805760405162461bcd60e51b815260206004820152601860248201527f546f6b656e2055524920616c72656164792065786973747300000000000000006044820152606401610723565b61188f61019380546001019055565b600061189b6101935490565b90506118a733826120f3565b6118b1818461210d565b60006118bc426121a0565b6101925460405163fcc73a7b60e01b81526004810185905260248101839052600060448201529192506001600160a01b03169063fcc73a7b90606401600060405180830381600087803b15801561191257600080fd5b505af1158015611926573d6000803e3d6000fd5b505061019254604051632bada51560e21b81526001600160a01b03909116925063aeb69454915061195b908790600401613438565b600060405180830381600087803b15801561197557600080fd5b505af1158015611989573d6000803e3d6000fd5b50505050611996826121c0565b7f85a66b9141978db9980f7e0ce3b468cebf4f7999f32b23091c5c03e798b1ba7a3383866040516119c993929190613b0f565b60405180910390a15092915050565b60006001600160e01b0319821663152a902d60e11b14806105f057506105f0826122c6565b6000818152606760205260409020546001600160a01b03166109825760405162461bcd60e51b8152602060048201526018602482015277115490cdcc8c4e881a5b9d985b1a59081d1bdad95b88125160421b6044820152606401610723565b600081815260696020526040902080546001600160a01b0319166001600160a01b0384169081179091558190611a9182610bfe565b6001600160a01b03167f8c5be1e5ebec7d5bd14f71427d1e84f3dd0314c0f7b2291e5b200ac8c7c3b92560405160405180910390a45050565b600080611ad683610bfe565b9050806001600160a01b0316846001600160a01b03161480611afd5750611afd818561172b565b8061131e5750836001600160a01b0316611b1684610688565b6001600160a01b031614949350505050565b826001600160a01b0316611b3b82610bfe565b6001600160a01b031614611b615760405162461bcd60e51b815260040161072390613b36565b6001600160a01b038216611bc35760405162461bcd60e51b8152602060048201526024808201527f4552433732313a207472616e7366657220746f20746865207a65726f206164646044820152637265737360e01b6064820152608401610723565b611bd08383836001612316565b826001600160a01b0316611be382610bfe565b6001600160a01b031614611c095760405162461bcd60e51b815260040161072390613b36565b600081815260696020908152604080832080546001600160a01b03199081169091556001600160a01b0387811680865260688552838620805460001901905590871680865283862080546001019055868652606790945282852080549092168417909155905184937fddf252ad1be2c89b69c2b068fc378daa952ba7f163c4a11628f55a4df523b3ef91a4505050565b610982611e0c565b7f4910fdfa16fed3260ed0e7147f7cc6da11a60208b5b9406d12a635614ffd91435460ff1615611cd4576107c483612394565b826001600160a01b03166352d1902d6040518163ffffffff1660e01b8152600401602060405180830381865afa925050508015611d2e575060408051601f3d908101601f19168201909252611d2b91810190613a08565b60015b611d915760405162461bcd60e51b815260206004820152602e60248201527f45524331393637557067726164653a206e657720696d706c656d656e7461746960448201526d6f6e206973206e6f74205555505360901b6064820152608401610723565b600080516020613da88339815191528114611e005760405162461bcd60e51b815260206004820152602960248201527f45524331393637557067726164653a20756e737570706f727465642070726f786044820152681a58589b195555525160ba1b6064820152608401610723565b506107c4838383612430565b60fb546001600160a01b03163314610ee45760405162461bcd60e51b815260206004820181905260248201527f4f776e61626c653a2063616c6c6572206973206e6f7420746865206f776e65726044820152606401610723565b611e6f81612455565b60008181526097602052604090208054611e8890613884565b15905061098257600081815260976020526040812061098291613367565b60fb80546001600160a01b038381166001600160a01b0319831681179093556040519116919082907f8be0079c531659141344cd1fd0a4f28419497f9722a3daafe3b4186f6b6457e090600090a35050565b816001600160a01b0316836001600160a01b031603611f595760405162461bcd60e51b815260206004820152601960248201527f4552433732313a20617070726f766520746f2063616c6c6572000000000000006044820152606401610723565b6001600160a01b038381166000818152606a6020908152604080832094871680845294825291829020805460ff191686151590811790915591519182527f17307eab39ab6107e8899845ad3d59bd9653f200f220920489ca2b5937696c31910160405180910390a3505050565b611fd1848484611b28565b611fdd848484846124f8565b6110935760405162461bcd60e51b815260040161072390613b7b565b600054610100900460ff166120205760405162461bcd60e51b815260040161072390613bcd565b610b4782826125f9565b600054610100900460ff166120515760405162461bcd60e51b815260040161072390613bcd565b610ee4612639565b600054610100900460ff16610ee45760405162461bcd60e51b815260040161072390613bcd565b606061208b826119fd565b60006120a260408051602081019091526000815290565b905060008151116120c25760405180602001604052806000815250610fcd565b806120cc84612669565b6040516020016120dd929190613ae0565b6040516020818303038152906040529392505050565b610b478282604051806020016040528060008152506126fc565b6000828152606760205260409020546001600160a01b03166121885760405162461bcd60e51b815260206004820152602e60248201527f45524337323155524953746f726167653a2055524920736574206f66206e6f6e60448201526d32bc34b9ba32b73a103a37b5b2b760911b6064820152608401610723565b60008281526097602052604090206107c48282613c5e565b60006121b76121b2620151808461394e565b61272f565b50909392505050565b61019254604051631aadd1db60e31b8152600481018390523360248201526001600160a01b039091169063d56e8ed890604401600060405180830381600087803b15801561220d57600080fd5b505af1158015612221573d6000803e3d6000fd5b50506101925460405163f31c848960e01b8152600481018590523360248201526001600160a01b03909116925063f31c84899150604401600060405180830381600087803b15801561227257600080fd5b505af1158015612286573d6000803e3d6000fd5b5050604080518481523360208201527f93beb01ee4f5d2f89d0a0d55db47459601413c9ef0b552599f3ed68f27f82c79935001905060405180910390a150565b60006001600160e01b031982166380ac58cd60e01b14806122f757506001600160e01b03198216635b5e139f60e01b145b806105f057506301ffc9a760e01b6001600160e01b03198316146105f0565b6001600160a01b0384166123325761232d826127cb565b612355565b826001600160a01b0316846001600160a01b031614612355576123558483612904565b6001600160a01b0383166123715761236c82612bb3565b611093565b836001600160a01b0316836001600160a01b031614611093576110938383612e9e565b6001600160a01b0381163b6124015760405162461bcd60e51b815260206004820152602d60248201527f455243313936373a206e657720696d706c656d656e746174696f6e206973206e60448201526c1bdd08184818dbdb9d1c9858dd609a1b6064820152608401610723565b600080516020613da883398151915280546001600160a01b0319166001600160a01b0392909216919091179055565b61243983612f84565b6000825111806124465750805b156107c4576110938383612fc4565b600061246082610bfe565b9050612470816000846001612316565b61247982610bfe565b600083815260696020908152604080832080546001600160a01b03199081169091556001600160a01b0385168085526068845282852080546000190190558785526067909352818420805490911690555192935084927fddf252ad1be2c89b69c2b068fc378daa952ba7f163c4a11628f55a4df523b3ef908390a45050565b60006001600160a01b0384163b156125ee57604051630a85bd0160e11b81526001600160a01b0385169063150b7a029061253c903390899088908890600401613d1e565b6020604051808303816000875af1925050508015612577575060408051601f3d908101601f1916820190925261257491810190613d5b565b60015b6125d4573d8080156125a5576040519150601f19603f3d011682016040523d82523d6000602084013e6125aa565b606091505b5080516000036125cc5760405162461bcd60e51b815260040161072390613b7b565b805181602001fd5b6001600160e01b031916630a85bd0160e11b14905061131e565b506001949350505050565b600054610100900460ff166126205760405162461bcd60e51b815260040161072390613bcd565b606561262c8382613c5e565b5060666107c48282613c5e565b600054610100900460ff166126605760405162461bcd60e51b815260040161072390613bcd565b610ee433611ea6565b60606000612676836130b8565b600101905060008167ffffffffffffffff81111561269657612696613525565b6040519080825280601f01601f1916602001820160405280156126c0576020820181803683370190505b5090508181016020015b600019016f181899199a1a9b1b9c1cb0b131b232b360811b600a86061a8153600a85049450846126ca57509392505050565b6127068383613190565b61271360008484846124f8565b6107c45760405162461bcd60e51b815260040161072390613b7b565b60008080836226496581018262023ab1600483020590506004600362023ab18302010590910390600062164b09610fa0600185010205905060046105b58202058303601f019250600061098f846050028161278c5761278c613938565b0590506000605061098f83020585039050600b820560301994909401606402929092018301996002600c90940290910392909201975095509350505050565b61019254604080516362720d9160e11b815290516000926001600160a01b03169163c4e41b229160048083019260209291908290030181865afa158015612816573d6000803e3d6000fd5b505050506040513d601f19601f8201168201806040525081019061283a9190613a08565b610192546040516364711ad760e11b815260048101859052602481018390529192506001600160a01b03169063c8e235ae90604401600060405180830381600087803b15801561288957600080fd5b505af115801561289d573d6000803e3d6000fd5b5050610192546040516318ec66fd60e31b8152600481018690526001600160a01b03909116925063c76337e89150602401600060405180830381600087803b1580156128e857600080fd5b505af11580156128fc573d6000803e3d6000fd5b505050505050565b6000600161291184610c5e565b61291b9190613d78565b610192546040516373a6eb2360e11b8152600481018590529192506000916001600160a01b039091169063e74dd64690602401602060405180830381865afa15801561296b573d6000803e3d6000fd5b505050506040513d601f19601f8201168201806040525081019061298f9190613a08565b9050818114612ae75761019254604051633469892160e01b81526001600160a01b038681166004830152602482018590526000921690633469892190604401602060405180830381865afa1580156129eb573d6000803e3d6000fd5b505050506040513d601f19601f82011682018060405250810190612a0f9190613a08565b610192546040516382b9ec6960e01b81526001600160a01b03888116600483015260248201849052604482018690529293509116906382b9ec6990606401600060405180830381600087803b158015612a6757600080fd5b505af1158015612a7b573d6000803e3d6000fd5b50506101925460405163273f4b0760e01b815260048101859052602481018690526001600160a01b03909116925063273f4b079150604401600060405180830381600087803b158015612acd57600080fd5b505af1158015612ae1573d6000803e3d6000fd5b50505050505b610192546040516387eef8a560e01b8152600481018590526001600160a01b03909116906387eef8a590602401600060405180830381600087803b158015612b2e57600080fd5b505af1158015612b42573d6000803e3d6000fd5b505061019254604051633bb75d4b60e11b81526001600160a01b03888116600483015260248201879052909116925063776eba969150604401600060405180830381600087803b158015612b9557600080fd5b505af1158015612ba9573d6000803e3d6000fd5b5050505050505050565b6000600161019260009054906101000a90046001600160a01b03166001600160a01b031663c4e41b226040518163ffffffff1660e01b8152600401602060405180830381865afa158015612c0b573d6000803e3d6000fd5b505050506040513d601f19601f82011682018060405250810190612c2f9190613a08565b612c399190613d78565b6101925460405163382816a360e01b8152600481018590529192506000916001600160a01b039091169063382816a390602401602060405180830381865afa158015612c89573d6000803e3d6000fd5b505050506040513d601f19601f82011682018060405250810190612cad9190613a08565b610192546040516349f202ff60e01b8152600481018590529192506000916001600160a01b03909116906349f202ff90602401602060405180830381865afa158015612cfd573d6000803e3d6000fd5b505050506040513d601f19601f82011682018060405250810190612d219190613a08565b610192546040516371ca79c560e01b815260048101859052602481018390529192506001600160a01b0316906371ca79c590604401600060405180830381600087803b158015612d7057600080fd5b505af1158015612d84573d6000803e3d6000fd5b5050610192546040516364711ad760e11b815260048101859052602481018690526001600160a01b03909116925063c8e235ae9150604401600060405180830381600087803b158015612dd657600080fd5b505af1158015612dea573d6000803e3d6000fd5b505061019254604051636d747b4160e01b8152600481018890526001600160a01b039091169250636d747b419150602401600060405180830381600087803b158015612e3557600080fd5b505af1158015612e49573d6000803e3d6000fd5b5050505061019260009054906101000a90046001600160a01b03166001600160a01b031663dab107056040518163ffffffff1660e01b8152600401600060405180830381600087803b158015612b9557600080fd5b6000612ea983610c5e565b610192546040516382b9ec6960e01b81526001600160a01b03868116600483015260248201869052604482018490529293509116906382b9ec6990606401600060405180830381600087803b158015612f0157600080fd5b505af1158015612f15573d6000803e3d6000fd5b50506101925460405163273f4b0760e01b815260048101869052602481018590526001600160a01b03909116925063273f4b079150604401600060405180830381600087803b158015612f6757600080fd5b505af1158015612f7b573d6000803e3d6000fd5b50505050505050565b612f8d81612394565b6040516001600160a01b038216907fbc7cd75a20ee27fd9adebab32041f755214dbc6bffa90cc0225b39da2e5c2d3b90600090a250565b60606001600160a01b0383163b61302c5760405162461bcd60e51b815260206004820152602660248201527f416464726573733a2064656c65676174652063616c6c20746f206e6f6e2d636f6044820152651b9d1c9858dd60d21b6064820152608401610723565b600080846001600160a01b0316846040516130479190613d8b565b600060405180830381855af49150503d8060008114613082576040519150601f19603f3d011682016040523d82523d6000602084013e613087565b606091505b50915091506130af8282604051806060016040528060278152602001613dc860279139613329565b95945050505050565b60008072184f03e93ff9f4daa797ed6e38ed64bf6a1f0160401b83106130f75772184f03e93ff9f4daa797ed6e38ed64bf6a1f0160401b830492506040015b6d04ee2d6d415b85acef81000000008310613123576d04ee2d6d415b85acef8100000000830492506020015b662386f26fc10000831061314157662386f26fc10000830492506010015b6305f5e1008310613159576305f5e100830492506008015b612710831061316d57612710830492506004015b6064831061317f576064830492506002015b600a83106105f05760010192915050565b6001600160a01b0382166131e65760405162461bcd60e51b815260206004820181905260248201527f4552433732313a206d696e7420746f20746865207a65726f20616464726573736044820152606401610723565b6000818152606760205260409020546001600160a01b03161561324b5760405162461bcd60e51b815260206004820152601c60248201527f4552433732313a20746f6b656e20616c7265616479206d696e746564000000006044820152606401610723565b613259600083836001612316565b6000818152606760205260409020546001600160a01b0316156132be5760405162461bcd60e51b815260206004820152601c60248201527f4552433732313a20746f6b656e20616c7265616479206d696e746564000000006044820152606401610723565b6001600160a01b038216600081815260686020908152604080832080546001019055848352606790915280822080546001600160a01b0319168417905551839291907fddf252ad1be2c89b69c2b068fc378daa952ba7f163c4a11628f55a4df523b3ef908290a45050565b60608315613338575081610fcd565b610fcd838381511561334d5781518083602001fd5b8060405162461bcd60e51b81526004016107239190613438565b50805461337390613884565b6000825580601f10613383575050565b601f01602090049060005260206000209081019061098291905b808211156133b1576000815560010161339d565b5090565b6001600160e01b03198116811461098257600080fd5b6000602082840312156133dd57600080fd5b8135610fcd816133b5565b60005b838110156134035781810151838201526020016133eb565b50506000910152565b600081518084526134248160208601602086016133e8565b601f01601f19169290920160200192915050565b602081526000610fcd602083018461340c565b60006020828403121561345d57600080fd5b5035919050565b6001600160a01b038116811461098257600080fd5b6000806040838503121561348c57600080fd5b823561349781613464565b946020939093013593505050565b6000806000606084860312156134ba57600080fd5b83356134c581613464565b925060208401356134d581613464565b929592945050506040919091013590565b600080604083850312156134f957600080fd5b50508035926020909101359150565b60006020828403121561351a57600080fd5b8135610fcd81613464565b634e487b7160e01b600052604160045260246000fd5b604051601f8201601f1916810167ffffffffffffffff8111828210171561356457613564613525565b604052919050565b600067ffffffffffffffff83111561358657613586613525565b613599601f8401601f191660200161353b565b90508281528383830111156135ad57600080fd5b828260208301376000602084830101529392505050565b600082601f8301126135d557600080fd5b610fcd8383356020850161356c565b600080604083850312156135f757600080fd5b823561360281613464565b9150602083013567ffffffffffffffff81111561361e57600080fd5b61362a858286016135c4565b9150509250929050565b602080825282518282018190526000919060409081850190868401855b8281101561368757613677848351805182526020908101516001600160a01b0316910152565b9284019290850190600101613651565b5091979650505050505050565b6000602082840312156136a657600080fd5b813567ffffffffffffffff8111156136bd57600080fd5b8201601f810184136136ce57600080fd5b61131e8482356020840161356c565b801515811461098257600080fd5b600080604083850312156136fe57600080fd5b823561370981613464565b91506020830135613719816136dd565b809150509250929050565b6000806000806080858703121561373a57600080fd5b843561374581613464565b9350602085013561375581613464565b925060408501359150606085013567ffffffffffffffff81111561377857600080fd5b613784878288016135c4565b91505092959194509250565b600060208083850312156137a357600080fd5b823567ffffffffffffffff808211156137bb57600080fd5b818501915085601f8301126137cf57600080fd5b8135818111156137e1576137e1613525565b8060051b91506137f284830161353b565b818152918301840191848101908884111561380c57600080fd5b938501935b8385101561382a57843582529385019390850190613811565b98975050505050505050565b815181526020808301516001600160a01b031690820152604081016105f0565b6000806040838503121561386957600080fd5b823561387481613464565b9150602083013561371981613464565b600181811c9082168061389857607f821691505b6020821081036138b857634e487b7160e01b600052602260045260246000fd5b50919050565b6020808252602d908201527f4552433732313a2063616c6c6572206973206e6f7420746f6b656e206f776e6560408201526c1c881bdc88185c1c1c9bdd9959609a1b606082015260800190565b634e487b7160e01b600052601160045260246000fd5b80820281158282048414176105f0576105f061390b565b634e487b7160e01b600052601260045260246000fd5b60008261396b57634e487b7160e01b600052601260045260246000fd5b500490565b6020808252602c908201527f46756e6374696f6e206d7573742062652063616c6c6564207468726f7567682060408201526b19195b1959d85d1958d85b1b60a21b606082015260800190565b6020808252602c908201527f46756e6374696f6e206d7573742062652063616c6c6564207468726f7567682060408201526b6163746976652070726f787960a01b606082015260800190565b600060208284031215613a1a57600080fd5b5051919050565b600060408284031215613a3357600080fd5b6040516040810181811067ffffffffffffffff82111715613a5657613a56613525565b604052825181526020830151613a6b81613464565b60208201529392505050565b634e487b7160e01b600052603260045260246000fd5b600060018201613a9f57613a9f61390b565b5060010190565b600060208284031215613ab857600080fd5b8151610fcd81613464565b600060208284031215613ad557600080fd5b8151610fcd816136dd565b60008351613af28184602088016133e8565b835190830190613b068183602088016133e8565b01949350505050565b60018060a01b03841681528260208201526060604082015260006130af606083018461340c565b60208082526025908201527f4552433732313a207472616e736665722066726f6d20696e636f72726563742060408201526437bbb732b960d91b606082015260800190565b60208082526032908201527f4552433732313a207472616e7366657220746f206e6f6e20455243373231526560408201527131b2b4bb32b91034b6b83632b6b2b73a32b960711b606082015260800190565b6020808252602b908201527f496e697469616c697a61626c653a20636f6e7472616374206973206e6f74206960408201526a6e697469616c697a696e6760a81b606082015260800190565b601f8211156107c457600081815260208120601f850160051c81016020861015613c3f5750805b601f850160051c820191505b818110156128fc57828155600101613c4b565b815167ffffffffffffffff811115613c7857613c78613525565b613c8c81613c868454613884565b84613c18565b602080601f831160018114613cc15760008415613ca95750858301515b600019600386901b1c1916600185901b1785556128fc565b600085815260208120601f198616915b82811015613cf057888601518255948401946001909101908401613cd1565b5085821015613d0e5787850151600019600388901b60f8161c191681555b5050505050600190811b01905550565b6001600160a01b0385811682528416602082015260408101839052608060608201819052600090613d519083018461340c565b9695505050505050565b600060208284031215613d6d57600080fd5b8151610fcd816133b5565b818103818111156105f0576105f061390b565b60008251613d9d8184602087016133e8565b919091019291505056fe360894a13ba1a3210667c828492db98dca3e2076cc3735a920a3ca505d382bbc416464726573733a206c6f772d6c6576656c2064656c65676174652063616c6c206661696c6564a2646970667358221220e829fa31e56c488ad970581e359c1694fc95cb802debcfc577907aa40e8418a064736f6c63430008110033",
  "immutableReferences": {
    "746": [
      {
        "length": 32,
        "start": 2224
      },
      {
        "length": 32,
        "start": 2288
      },
      {
        "length": 32,
        "start": 2693
      },
      {
        "length": 32,
        "start": 2757
      },
      {
        "length": 32,
        "start": 2904
      }
    ]
  },
  "source": "// SPDX-License-Identifier: MIT\npragma solidity ^0.8.7;\n\nimport \"@openzeppelin/contracts-upgradeable/proxy/utils/Initializable.sol\";\n\nimport \"@openzeppelin/contracts-upgradeable/token/common/ERC2981Upgradeable.sol\";\nimport \"@openzeppelin/contracts-upgradeable/token/ERC721/extensions/ERC721URIStorageUpgradeable.sol\";\nimport \"@openzeppelin/contracts-upgradeable/access/OwnableUpgradeable.sol\";\nimport \"@openzeppelin/contracts-upgradeable/utils/CountersUpgradeable.sol\";\nimport \"@openzeppelin/contracts-upgradeable/token/ERC20/IERC20Upgradeable.sol\";\nimport \"@openzeppelin/contracts-upgradeable/utils/math/SafeMathUpgradeable.sol\";\nimport \"@openzeppelin/contracts-upgradeable/proxy/utils/UUPSUpgradeable.sol\";\n\nimport \"./ICCNftStorage.sol\";\n\ncontract CCNft is\n  Initializable,\n  ERC721URIStorageUpgradeable,\n  ERC2981Upgradeable,\n  OwnableUpgradeable,\n  UUPSUpgradeable\n{\n  using SafeMathUpgradeable for uint256;\n  using CountersUpgradeable for CountersUpgradeable.Counter;\n\n  // struct NftItem {\n  //   uint256 tokenId;\n  //   address creator;\n  // }\n\n  struct ERC20Token {\n    address paytoken;\n    uint256 costvalue;\n  }\n\n  address public txFeeToken;\n  ICCNftStorage private _storage;\n\n  uint256 constant SECONDS_PER_DAY = 24 * 60 * 60;\n  int256 constant OFFSET19700101 = 2440588;\n\n  CountersUpgradeable.Counter private _tokenIds;\n\n  event Mint(address owner, uint256 tokenId, string tokenURI);\n\n  event NftItemCreated(uint256 tokenId, address creator);\n\n  function initialize(address storageAddress) public initializer {\n    __ERC721_init(\"CasksNFT\", \"CSKNFT\");\n    __Ownable_init();\n    __UUPSUpgradeable_init();\n    _storage = ICCNftStorage(storageAddress);\n  }\n\n  function _authorizeUpgrade(address) internal override onlyOwner {}\n\n  /////////////////////\n  // Main Functions //\n  /////////////////////\n\n  function checkIfTokenURIExists(\n    string memory tokenURI\n  ) public view returns (bool) {\n    return _storage.getTokeURIUsed(tokenURI);\n  }\n\n  function mintNFT(string memory _tokenURI) public onlyOwner returns (uint256) {\n    require(bytes(_tokenURI).length > 0, \"Token URI must not be empty\");\n    require(!checkIfTokenURIExists(_tokenURI), \"Token URI already exists\");\n\n    _tokenIds.increment();\n    uint256 newItemId = _tokenIds.current();\n\n    _safeMint(msg.sender, newItemId);\n    _setTokenURI(newItemId, _tokenURI);\n\n    uint256 year = getYear(block.timestamp);\n\n    _storage.setTokenExtractionsByYear(newItemId, year, 0);\n    _storage.setUsedTokenURI(_tokenURI);\n\n    _createNftItem(newItemId);\n\n    emit Mint(msg.sender, newItemId, _tokenURI);\n\n    return newItemId;\n  }\n\n  function burn(uint256 tokenId) public onlyOwner {\n    require(_exists(tokenId), \"Token does not exist\");\n    require(\n      ownerOf(tokenId) == _msgSender(),\n      \"Ownable: caller is not the owner\"\n    );\n    _resetTokenRoyalty(tokenId);\n    super._burn(tokenId);\n  }\n\n  function getNftTotalSupply() external view returns (uint256) {\n    return _storage.getTotalSupply();\n  }\n\n  function getNftInfo(\n    uint256 tokenId\n  ) external view returns (ICCNftStorage.NftItem memory) {\n    ICCNftStorage.NftItem memory item = _storage.getIdToNftItem(tokenId);\n    return item;\n  }\n\n  function getAllNFTs() external view returns (ICCNftStorage.NftItem[] memory) {\n    uint256 totalItemsCount = _storage.getTotalSupply();\n    ICCNftStorage.NftItem[] memory items = new ICCNftStorage.NftItem[](\n      totalItemsCount\n    );\n\n    for (uint256 i = 0; i < totalItemsCount; i++) {\n      uint256 tokenId = _storage.getTokenByIndex(i);\n      items[i] = _storage.getIdToNftItem(tokenId);\n    }\n\n    return items;\n  }\n\n  function getAllNftsOnSale(\n    uint256[] memory _tokensIds\n  ) external view returns (ICCNftStorage.NftItem[] memory) {\n    ICCNftStorage.NftItem[] memory items = new ICCNftStorage.NftItem[](\n      _tokensIds.length\n    );\n\n    for (uint256 i = 0; i < _tokensIds.length; i++) {\n      uint256 tokenId = _storage.getTokenIdByIndex(i);\n      ICCNftStorage.NftItem memory item = _storage.getIdToNftItem(tokenId);\n      items[i] = item;\n    }\n\n    return items;\n  }\n\n  function getCreatorNft(uint256 tokenId) external view returns (address) {\n    address creator = _storage.getNftCreator(tokenId);\n    return creator;\n  }\n\n  function getOwnedNfts() public view returns (ICCNftStorage.NftItem[] memory) {\n    uint ownedItemsCount = ERC721Upgradeable.balanceOf(msg.sender);\n    ICCNftStorage.NftItem[] memory items = new ICCNftStorage.NftItem[](\n      ownedItemsCount\n    );\n    for (uint256 i = 0; i < ownedItemsCount; i++) {\n      require(\n        i < ERC721Upgradeable.balanceOf(msg.sender),\n        \"Index out of bounds\"\n      );\n      uint256 tokenId = _storage.getTokenIdOfOwnerByIndex(msg.sender, i);\n      ICCNftStorage.NftItem memory item = _storage.getIdToNftItem(tokenId);\n      items[i] = item;\n    }\n\n    return items;\n  }\n\n  function supportsInterface(\n    bytes4 interfaceId\n  )\n    public\n    view\n    virtual\n    override(ERC721Upgradeable, ERC2981Upgradeable)\n    returns (bool)\n  {\n    return super.supportsInterface(interfaceId);\n  }\n\n  function getYear(uint256 timestamp) internal pure returns (uint256 year) {\n    (year, , ) = _daysToDate(timestamp / SECONDS_PER_DAY);\n  }\n\n  function _createNftItem(uint _tokenId) private {\n    _storage.setIdToNftItem(_tokenId, msg.sender);\n    _storage.setIdToNftCreator(_tokenId, msg.sender);\n\n    emit NftItemCreated(_tokenId, msg.sender);\n  }\n\n  function _beforeTokenTransfer(\n    address from,\n    address to,\n    uint tokenId,\n    uint256 batchSize\n  ) internal virtual override {\n    super._beforeTokenTransfer(from, to, tokenId, batchSize);\n\n    if (from == address(0)) {\n      // MINTING CASE\n      _addTokenToAllTokensEnumeration(tokenId);\n    } else if (from != to) {\n      // TRANSFER CASE\n      _removeTokenFromOwnerEnumeration(from, tokenId);\n    }\n\n    if (to == address(0)) {\n      // BURNING CASE\n      _removeTokenFromAllTokensEnumeration(tokenId);\n    } else if (to != from) {\n      // TRANSFER CASE\n      _addTokenToOwnerEnumeration(to, tokenId);\n    }\n  }\n\n  function _addTokenToOwnerEnumeration(address to, uint tokenId) private {\n    uint index = ERC721Upgradeable.balanceOf(to);\n    _storage.setOwnedTokens(to, tokenId, index);\n    _storage.setIdToOwnedIndex(tokenId, index);\n  }\n\n  function _removeTokenFromOwnerEnumeration(\n    address from,\n    uint tokenId\n  ) private {\n    uint lastTokenIndex = ERC721Upgradeable.balanceOf(from) - 1;\n    uint tokenIndex = _storage.getIdToOwnedIndex(tokenId);\n\n    if (tokenIndex != lastTokenIndex) {\n      uint lastTokenId = _storage.getTokenIdOfOwnerByIndex(\n        from,\n        lastTokenIndex\n      );\n\n      _storage.setOwnedTokens(from, lastTokenId, tokenIndex);\n      _storage.setIdToOwnedIndex(lastTokenId, tokenIndex);\n    }\n\n    _storage.deleteIdToOwnedIndex(tokenId);\n    _storage.deleteOwnedTokens(from, lastTokenIndex);\n  }\n\n  function _addTokenToAllTokensEnumeration(uint tokenId) private {\n    uint256 index = _storage.getTotalSupply();\n    _storage.setIdToNftIndex(tokenId, index);\n    _storage.pushAllNfts(tokenId);\n  }\n\n  function _removeTokenFromAllTokensEnumeration(uint tokenId) private {\n    uint lastTokenIndex = _storage.getTotalSupply() - 1;\n    uint tokenIndex = _storage.getNftIndex(tokenId);\n    uint lastTokenId = _storage.getTokenIdByIndex(lastTokenIndex);\n\n    _storage.setAllNftsTokenIdByIndex(tokenIndex, lastTokenId);\n    _storage.setIdToNftIndex(lastTokenId, tokenIndex);\n\n    _storage.deleteIdToNftIndex(tokenId);\n    _storage.popAllNfts();\n  }\n\n  function _daysToDate(\n    uint256 _days\n  ) internal pure returns (uint256 year, uint256 month, uint256 day) {\n    unchecked {\n      int256 __days = int256(_days);\n\n      int256 L = __days + 68569 + OFFSET19700101;\n      int256 N = (4 * L) / 146097;\n      L = L - (146097 * N + 3) / 4;\n      int256 _year = (4000 * (L + 1)) / 1461001;\n      L = L - (1461 * _year) / 4 + 31;\n      int256 _month = (80 * L) / 2447;\n      int256 _day = L - (2447 * _month) / 80;\n      L = _month / 11;\n      _month = _month + 2 - 12 * L;\n      _year = 100 * (N - 49) + _year + L;\n\n      year = uint256(_year);\n      month = uint256(_month);\n      day = uint256(_day);\n    }\n  }\n}\n",
  "sourcePath": "/Users/alberto/Desktop/Enalbis/caskchain-mono/apps/contracts/contracts/CCNft/CCNft.sol",
  "compiler": {
    "name": "solc",
    "version": "0.8.17+commit.8df45f5f.Emscripten.clang"
  },
  "schemaVersion": "3.4.11",
  "updatedAt": "2023-05-02T09:01:52.517Z",
  "networkType": "ethereum",
  "devdoc": {
    "kind": "dev",
    "methods": {
      "approve(address,uint256)": {
        "details": "See {IERC721-approve}."
      },
      "balanceOf(address)": {
        "details": "See {IERC721-balanceOf}."
      },
      "getApproved(uint256)": {
        "details": "See {IERC721-getApproved}."
      },
      "isApprovedForAll(address,address)": {
        "details": "See {IERC721-isApprovedForAll}."
      },
      "name()": {
        "details": "See {IERC721Metadata-name}."
      },
      "owner()": {
        "details": "Returns the address of the current owner."
      },
      "ownerOf(uint256)": {
        "details": "See {IERC721-ownerOf}."
      },
      "proxiableUUID()": {
        "details": "Implementation of the ERC1822 {proxiableUUID} function. This returns the storage slot used by the implementation. It is used to validate the implementation's compatibility when performing an upgrade. IMPORTANT: A proxy pointing at a proxiable contract should not be considered proxiable itself, because this risks bricking a proxy that upgrades to it, by delegating to itself until out of gas. Thus it is critical that this function revert if invoked through a proxy. This is guaranteed by the `notDelegated` modifier."
      },
      "renounceOwnership()": {
        "details": "Leaves the contract without owner. It will not be possible to call `onlyOwner` functions anymore. Can only be called by the current owner. NOTE: Renouncing ownership will leave the contract without an owner, thereby removing any functionality that is only available to the owner."
      },
      "royaltyInfo(uint256,uint256)": {
        "details": "Returns how much royalty is owed and to whom, based on a sale price that may be denominated in any unit of exchange. The royalty amount is denominated and should be paid in that same unit of exchange."
      },
      "safeTransferFrom(address,address,uint256)": {
        "details": "See {IERC721-safeTransferFrom}."
      },
      "safeTransferFrom(address,address,uint256,bytes)": {
        "details": "See {IERC721-safeTransferFrom}."
      },
      "setApprovalForAll(address,bool)": {
        "details": "See {IERC721-setApprovalForAll}."
      },
      "symbol()": {
        "details": "See {IERC721Metadata-symbol}."
      },
      "tokenURI(uint256)": {
        "details": "See {IERC721Metadata-tokenURI}."
      },
      "transferFrom(address,address,uint256)": {
        "details": "See {IERC721-transferFrom}."
      },
      "transferOwnership(address)": {
        "details": "Transfers ownership of the contract to a new account (`newOwner`). Can only be called by the current owner."
      },
      "upgradeTo(address)": {
        "details": "Upgrade the implementation of the proxy to `newImplementation`. Calls {_authorizeUpgrade}. Emits an {Upgraded} event."
      },
      "upgradeToAndCall(address,bytes)": {
        "details": "Upgrade the implementation of the proxy to `newImplementation`, and subsequently execute the function call encoded in `data`. Calls {_authorizeUpgrade}. Emits an {Upgraded} event."
      }
    },
    "version": 1
  },
  "userdoc": {
    "kind": "user",
    "methods": {},
    "version": 1
  }
}