{
  "contractName": "CCNft",
  "abi": [
    {
      "anonymous": false,
      "inputs": [
        {
          "indexed": false,
          "internalType": "address",
          "name": "previousAdmin",
          "type": "address"
        },
        {
          "indexed": false,
          "internalType": "address",
          "name": "newAdmin",
          "type": "address"
        }
      ],
      "name": "AdminChanged",
      "type": "event"
    },
    {
      "anonymous": false,
      "inputs": [
        {
          "indexed": true,
          "internalType": "address",
          "name": "owner",
          "type": "address"
        },
        {
          "indexed": true,
          "internalType": "address",
          "name": "approved",
          "type": "address"
        },
        {
          "indexed": true,
          "internalType": "uint256",
          "name": "tokenId",
          "type": "uint256"
        }
      ],
      "name": "Approval",
      "type": "event"
    },
    {
      "anonymous": false,
      "inputs": [
        {
          "indexed": true,
          "internalType": "address",
          "name": "owner",
          "type": "address"
        },
        {
          "indexed": true,
          "internalType": "address",
          "name": "operator",
          "type": "address"
        },
        {
          "indexed": false,
          "internalType": "bool",
          "name": "approved",
          "type": "bool"
        }
      ],
      "name": "ApprovalForAll",
      "type": "event"
    },
    {
      "anonymous": false,
      "inputs": [
        {
          "indexed": true,
          "internalType": "address",
          "name": "beacon",
          "type": "address"
        }
      ],
      "name": "BeaconUpgraded",
      "type": "event"
    },
    {
      "anonymous": false,
      "inputs": [
        {
          "indexed": false,
          "internalType": "uint8",
          "name": "version",
          "type": "uint8"
        }
      ],
      "name": "Initialized",
      "type": "event"
    },
    {
      "anonymous": false,
      "inputs": [
        {
          "indexed": false,
          "internalType": "address",
          "name": "owner",
          "type": "address"
        },
        {
          "indexed": false,
          "internalType": "uint256",
          "name": "tokenId",
          "type": "uint256"
        },
        {
          "indexed": false,
          "internalType": "string",
          "name": "tokenURI",
          "type": "string"
        }
      ],
      "name": "Mint",
      "type": "event"
    },
    {
      "anonymous": false,
      "inputs": [
        {
          "indexed": false,
          "internalType": "uint256",
          "name": "tokenId",
          "type": "uint256"
        },
        {
          "indexed": false,
          "internalType": "address",
          "name": "creator",
          "type": "address"
        }
      ],
      "name": "NftItemCreated",
      "type": "event"
    },
    {
      "anonymous": false,
      "inputs": [
        {
          "indexed": true,
          "internalType": "address",
          "name": "previousOwner",
          "type": "address"
        },
        {
          "indexed": true,
          "internalType": "address",
          "name": "newOwner",
          "type": "address"
        }
      ],
      "name": "OwnershipTransferred",
      "type": "event"
    },
    {
      "anonymous": false,
      "inputs": [
        {
          "indexed": true,
          "internalType": "address",
          "name": "from",
          "type": "address"
        },
        {
          "indexed": true,
          "internalType": "address",
          "name": "to",
          "type": "address"
        },
        {
          "indexed": true,
          "internalType": "uint256",
          "name": "tokenId",
          "type": "uint256"
        }
      ],
      "name": "Transfer",
      "type": "event"
    },
    {
      "anonymous": false,
      "inputs": [
        {
          "indexed": true,
          "internalType": "address",
          "name": "implementation",
          "type": "address"
        }
      ],
      "name": "Upgraded",
      "type": "event"
    },
    {
      "inputs": [
        {
          "internalType": "address",
          "name": "to",
          "type": "address"
        },
        {
          "internalType": "uint256",
          "name": "tokenId",
          "type": "uint256"
        }
      ],
      "name": "approve",
      "outputs": [],
      "stateMutability": "nonpayable",
      "type": "function"
    },
    {
      "inputs": [
        {
          "internalType": "address",
          "name": "owner",
          "type": "address"
        }
      ],
      "name": "balanceOf",
      "outputs": [
        {
          "internalType": "uint256",
          "name": "",
          "type": "uint256"
        }
      ],
      "stateMutability": "view",
      "type": "function",
      "constant": true
    },
    {
      "inputs": [
        {
          "internalType": "uint256",
          "name": "tokenId",
          "type": "uint256"
        }
      ],
      "name": "getApproved",
      "outputs": [
        {
          "internalType": "address",
          "name": "",
          "type": "address"
        }
      ],
      "stateMutability": "view",
      "type": "function",
      "constant": true
    },
    {
      "inputs": [
        {
          "internalType": "address",
          "name": "owner",
          "type": "address"
        },
        {
          "internalType": "address",
          "name": "operator",
          "type": "address"
        }
      ],
      "name": "isApprovedForAll",
      "outputs": [
        {
          "internalType": "bool",
          "name": "",
          "type": "bool"
        }
      ],
      "stateMutability": "view",
      "type": "function",
      "constant": true
    },
    {
      "inputs": [],
      "name": "name",
      "outputs": [
        {
          "internalType": "string",
          "name": "",
          "type": "string"
        }
      ],
      "stateMutability": "view",
      "type": "function",
      "constant": true
    },
    {
      "inputs": [],
      "name": "owner",
      "outputs": [
        {
          "internalType": "address",
          "name": "",
          "type": "address"
        }
      ],
      "stateMutability": "view",
      "type": "function",
      "constant": true
    },
    {
      "inputs": [
        {
          "internalType": "uint256",
          "name": "tokenId",
          "type": "uint256"
        }
      ],
      "name": "ownerOf",
      "outputs": [
        {
          "internalType": "address",
          "name": "",
          "type": "address"
        }
      ],
      "stateMutability": "view",
      "type": "function",
      "constant": true
    },
    {
      "inputs": [],
      "name": "proxiableUUID",
      "outputs": [
        {
          "internalType": "bytes32",
          "name": "",
          "type": "bytes32"
        }
      ],
      "stateMutability": "view",
      "type": "function",
      "constant": true
    },
    {
      "inputs": [],
      "name": "renounceOwnership",
      "outputs": [],
      "stateMutability": "nonpayable",
      "type": "function"
    },
    {
      "inputs": [
        {
          "internalType": "uint256",
          "name": "_tokenId",
          "type": "uint256"
        },
        {
          "internalType": "uint256",
          "name": "_salePrice",
          "type": "uint256"
        }
      ],
      "name": "royaltyInfo",
      "outputs": [
        {
          "internalType": "address",
          "name": "",
          "type": "address"
        },
        {
          "internalType": "uint256",
          "name": "",
          "type": "uint256"
        }
      ],
      "stateMutability": "view",
      "type": "function",
      "constant": true
    },
    {
      "inputs": [
        {
          "internalType": "address",
          "name": "from",
          "type": "address"
        },
        {
          "internalType": "address",
          "name": "to",
          "type": "address"
        },
        {
          "internalType": "uint256",
          "name": "tokenId",
          "type": "uint256"
        }
      ],
      "name": "safeTransferFrom",
      "outputs": [],
      "stateMutability": "nonpayable",
      "type": "function"
    },
    {
      "inputs": [
        {
          "internalType": "address",
          "name": "from",
          "type": "address"
        },
        {
          "internalType": "address",
          "name": "to",
          "type": "address"
        },
        {
          "internalType": "uint256",
          "name": "tokenId",
          "type": "uint256"
        },
        {
          "internalType": "bytes",
          "name": "data",
          "type": "bytes"
        }
      ],
      "name": "safeTransferFrom",
      "outputs": [],
      "stateMutability": "nonpayable",
      "type": "function"
    },
    {
      "inputs": [
        {
          "internalType": "address",
          "name": "operator",
          "type": "address"
        },
        {
          "internalType": "bool",
          "name": "approved",
          "type": "bool"
        }
      ],
      "name": "setApprovalForAll",
      "outputs": [],
      "stateMutability": "nonpayable",
      "type": "function"
    },
    {
      "inputs": [],
      "name": "symbol",
      "outputs": [
        {
          "internalType": "string",
          "name": "",
          "type": "string"
        }
      ],
      "stateMutability": "view",
      "type": "function",
      "constant": true
    },
    {
      "inputs": [
        {
          "internalType": "uint256",
          "name": "tokenId",
          "type": "uint256"
        }
      ],
      "name": "tokenURI",
      "outputs": [
        {
          "internalType": "string",
          "name": "",
          "type": "string"
        }
      ],
      "stateMutability": "view",
      "type": "function",
      "constant": true
    },
    {
      "inputs": [
        {
          "internalType": "address",
          "name": "from",
          "type": "address"
        },
        {
          "internalType": "address",
          "name": "to",
          "type": "address"
        },
        {
          "internalType": "uint256",
          "name": "tokenId",
          "type": "uint256"
        }
      ],
      "name": "transferFrom",
      "outputs": [],
      "stateMutability": "nonpayable",
      "type": "function"
    },
    {
      "inputs": [
        {
          "internalType": "address",
          "name": "newOwner",
          "type": "address"
        }
      ],
      "name": "transferOwnership",
      "outputs": [],
      "stateMutability": "nonpayable",
      "type": "function"
    },
    {
      "inputs": [],
      "name": "txFeeToken",
      "outputs": [
        {
          "internalType": "address",
          "name": "",
          "type": "address"
        }
      ],
      "stateMutability": "view",
      "type": "function",
      "constant": true
    },
    {
      "inputs": [
        {
          "internalType": "address",
          "name": "newImplementation",
          "type": "address"
        }
      ],
      "name": "upgradeTo",
      "outputs": [],
      "stateMutability": "nonpayable",
      "type": "function"
    },
    {
      "inputs": [
        {
          "internalType": "address",
          "name": "newImplementation",
          "type": "address"
        },
        {
          "internalType": "bytes",
          "name": "data",
          "type": "bytes"
        }
      ],
      "name": "upgradeToAndCall",
      "outputs": [],
      "stateMutability": "payable",
      "type": "function",
      "payable": true
    },
    {
      "inputs": [
        {
          "internalType": "address",
          "name": "storageAddress",
          "type": "address"
        }
      ],
      "name": "initialize",
      "outputs": [],
      "stateMutability": "nonpayable",
      "type": "function"
    },
    {
      "inputs": [
        {
          "internalType": "string",
          "name": "tokenURI",
          "type": "string"
        }
      ],
      "name": "checkIfTokenURIExists",
      "outputs": [
        {
          "internalType": "bool",
          "name": "",
          "type": "bool"
        }
      ],
      "stateMutability": "view",
      "type": "function",
      "constant": true
    },
    {
      "inputs": [
        {
          "internalType": "string",
          "name": "_tokenURI",
          "type": "string"
        }
      ],
      "name": "mintNFT",
      "outputs": [
        {
          "internalType": "uint256",
          "name": "",
          "type": "uint256"
        }
      ],
      "stateMutability": "nonpayable",
      "type": "function"
    },
    {
      "inputs": [
        {
          "internalType": "uint256",
          "name": "tokenId",
          "type": "uint256"
        }
      ],
      "name": "burn",
      "outputs": [],
      "stateMutability": "nonpayable",
      "type": "function"
    },
    {
      "inputs": [],
      "name": "getNftTotalSupply",
      "outputs": [
        {
          "internalType": "uint256",
          "name": "",
          "type": "uint256"
        }
      ],
      "stateMutability": "view",
      "type": "function",
      "constant": true
    },
    {
      "inputs": [
        {
          "internalType": "uint256",
          "name": "tokenId",
          "type": "uint256"
        }
      ],
      "name": "getNftInfo",
      "outputs": [
        {
          "components": [
            {
              "internalType": "uint256",
              "name": "tokenId",
              "type": "uint256"
            },
            {
              "internalType": "address",
              "name": "creator",
              "type": "address"
            }
          ],
          "internalType": "struct ICCNftStorage.NftItem",
          "name": "",
          "type": "tuple"
        }
      ],
      "stateMutability": "view",
      "type": "function",
      "constant": true
    },
    {
      "inputs": [
        {
          "internalType": "uint256",
          "name": "page",
          "type": "uint256"
        },
        {
          "internalType": "uint256",
          "name": "pageSize",
          "type": "uint256"
        }
      ],
      "name": "getAllNFTs",
      "outputs": [
        {
          "components": [
            {
              "internalType": "uint256",
              "name": "tokenId",
              "type": "uint256"
            },
            {
              "internalType": "address",
              "name": "creator",
              "type": "address"
            }
          ],
          "internalType": "struct ICCNftStorage.NftItem[]",
          "name": "",
          "type": "tuple[]"
        }
      ],
      "stateMutability": "view",
      "type": "function",
      "constant": true
    },
    {
      "inputs": [
        {
          "internalType": "uint256[]",
          "name": "_tokensIds",
          "type": "uint256[]"
        }
      ],
      "name": "getAllNftsOnSale",
      "outputs": [
        {
          "components": [
            {
              "internalType": "uint256",
              "name": "tokenId",
              "type": "uint256"
            },
            {
              "internalType": "address",
              "name": "creator",
              "type": "address"
            }
          ],
          "internalType": "struct ICCNftStorage.NftItem[]",
          "name": "",
          "type": "tuple[]"
        }
      ],
      "stateMutability": "view",
      "type": "function",
      "constant": true
    },
    {
      "inputs": [
        {
          "internalType": "uint256",
          "name": "tokenId",
          "type": "uint256"
        }
      ],
      "name": "getCreatorNft",
      "outputs": [
        {
          "internalType": "address",
          "name": "",
          "type": "address"
        }
      ],
      "stateMutability": "view",
      "type": "function",
      "constant": true
    },
    {
      "inputs": [],
      "name": "getOwnedNfts",
      "outputs": [
        {
          "components": [
            {
              "internalType": "uint256",
              "name": "tokenId",
              "type": "uint256"
            },
            {
              "internalType": "address",
              "name": "creator",
              "type": "address"
            }
          ],
          "internalType": "struct ICCNftStorage.NftItem[]",
          "name": "",
          "type": "tuple[]"
        }
      ],
      "stateMutability": "view",
      "type": "function",
      "constant": true
    },
    {
      "inputs": [
        {
          "internalType": "bytes4",
          "name": "interfaceId",
          "type": "bytes4"
        }
      ],
      "name": "supportsInterface",
      "outputs": [
        {
          "internalType": "bool",
          "name": "",
          "type": "bool"
        }
      ],
      "stateMutability": "view",
      "type": "function",
      "constant": true
    }
  ],
  "bytecode": "0x60a06040523060805234801561001457600080fd5b50608051613f3561004c600039600081816108e40152818161092401528181610ab901528181610af90152610b8c0152613f356000f3fe6080604052600436106101d85760003560e01c806377c567a711610102578063b88d4fde11610095578063d5ec2d8311610064578063d5ec2d8314610563578063e985e9c514610590578063f2fde38b146105d9578063fb37e883146105f957600080fd5b8063b88d4fde146104e3578063c4d66de814610503578063c87b56dd14610523578063ca32232c1461054357600080fd5b80638f271531116100d15780638f2715311461046e57806395d89b411461048e5780639f60d971146104a3578063a22cb465146104c357600080fd5b806377c567a7146103fa5780637ab931801461041b57806387888b5b1461043b5780638da5cb5b1461045057600080fd5b806342842e0e1161017a5780636352211e116101495780636352211e1461038357806370a08231146103a357806370cbcb43146103c3578063715018a6146103e557600080fd5b806342842e0e1461030d57806342966c681461032d5780634f1ef2861461034d57806352d1902d1461036057600080fd5b8063095ea7b3116101b6578063095ea7b31461026c57806323b872dd1461028e5780632a55205a146102ae5780633659cfe6146102ed57600080fd5b806301ffc9a7146101dd57806306fdde0314610212578063081812fc14610234575b600080fd5b3480156101e957600080fd5b506101fd6101f83660046134c9565b610619565b60405190151581526020015b60405180910390f35b34801561021e57600080fd5b5061022761062a565b6040516102099190613536565b34801561024057600080fd5b5061025461024f366004613549565b6106bc565b6040516001600160a01b039091168152602001610209565b34801561027857600080fd5b5061028c610287366004613577565b6106e3565b005b34801561029a57600080fd5b5061028c6102a93660046135a3565b6107fd565b3480156102ba57600080fd5b506102ce6102c93660046135e4565b61082e565b604080516001600160a01b039093168352602083019190915201610209565b3480156102f957600080fd5b5061028c610308366004613606565b6108da565b34801561031957600080fd5b5061028c6103283660046135a3565b6109b9565b34801561033957600080fd5b5061028c610348366004613549565b6109d4565b61028c61035b3660046136e2565b610aaf565b34801561036c57600080fd5b50610375610b7f565b604051908152602001610209565b34801561038f57600080fd5b5061025461039e366004613549565b610c32565b3480156103af57600080fd5b506103756103be366004613606565b610c92565b3480156103cf57600080fd5b506103d8610d18565b6040516102099190613732565b3480156103f157600080fd5b5061028c610f06565b34801561040657600080fd5b5061019154610254906001600160a01b031681565b34801561042757600080fd5b506103d86104363660046135e4565b610f1a565b34801561044757600080fd5b506103756111ec565b34801561045c57600080fd5b5060fb546001600160a01b0316610254565b34801561047a57600080fd5b50610254610489366004613549565b611260565b34801561049a57600080fd5b506102276112da565b3480156104af57600080fd5b506101fd6104be366004613792565b6112e9565b3480156104cf57600080fd5b5061028c6104de3660046137e9565b61135c565b3480156104ef57600080fd5b5061028c6104fe366004613822565b611367565b34801561050f57600080fd5b5061028c61051e366004613606565b61139f565b34801561052f57600080fd5b5061022761053e366004613549565b61151c565b34801561054f57600080fd5b506103d861055e36600461388e565b61162c565b34801561056f57600080fd5b5061058361057e366004613549565b6117b5565b6040516102099190613934565b34801561059c57600080fd5b506101fd6105ab366004613954565b6001600160a01b039182166000908152606a6020908152604080832093909416825291909152205460ff1690565b3480156105e557600080fd5b5061028c6105f4366004613606565b611837565b34801561060557600080fd5b50610375610614366004613792565b6118ad565b600061062482611ab6565b92915050565b60606065805461063990613982565b80601f016020809104026020016040519081016040528092919081815260200182805461066590613982565b80156106b25780601f10610687576101008083540402835291602001916106b2565b820191906000526020600020905b81548152906001019060200180831161069557829003601f168201915b5050505050905090565b60006106c782611adb565b506000908152606960205260409020546001600160a01b031690565b60006106ee82610c32565b9050806001600160a01b0316836001600160a01b0316036107605760405162461bcd60e51b815260206004820152602160248201527f4552433732313a20617070726f76616c20746f2063757272656e74206f776e656044820152603960f91b60648201526084015b60405180910390fd5b336001600160a01b038216148061077c575061077c81336105ab565b6107ee5760405162461bcd60e51b815260206004820152603d60248201527f4552433732313a20617070726f76652063616c6c6572206973206e6f7420746f60448201527f6b656e206f776e6572206f7220617070726f76656420666f7220616c6c0000006064820152608401610757565b6107f88383611b3a565b505050565b6108073382611ba8565b6108235760405162461bcd60e51b8152600401610757906139bc565b6107f8838383611c26565b600082815260ca602090815260408083208151808301909252546001600160a01b038116808352600160a01b9091046001600160601b03169282019290925282916108a357506040805180820190915260c9546001600160a01b0381168252600160a01b90046001600160601b031660208201525b6020810151600090612710906108c2906001600160601b031687613a1f565b6108cc9190613a4c565b915196919550909350505050565b6001600160a01b037f00000000000000000000000000000000000000000000000000000000000000001630036109225760405162461bcd60e51b815260040161075790613a6e565b7f00000000000000000000000000000000000000000000000000000000000000006001600160a01b031661096b600080516020613eb9833981519152546001600160a01b031690565b6001600160a01b0316146109915760405162461bcd60e51b815260040161075790613aba565b61099a81611d97565b604080516000808252602082019092526109b691839190611d9f565b50565b6107f883838360405180602001604052806000815250611367565b6109dc611f0a565b6000818152606760205260409020546001600160a01b0316610a375760405162461bcd60e51b8152602060048201526014602482015273151bdad95b88191bd95cc81b9bdd08195e1a5cdd60621b6044820152606401610757565b33610a4182610c32565b6001600160a01b031614610a975760405162461bcd60e51b815260206004820181905260248201527f4f776e61626c653a2063616c6c6572206973206e6f7420746865206f776e65726044820152606401610757565b600081815260ca60205260408120556109b681611f64565b6001600160a01b037f0000000000000000000000000000000000000000000000000000000000000000163003610af75760405162461bcd60e51b815260040161075790613a6e565b7f00000000000000000000000000000000000000000000000000000000000000006001600160a01b0316610b40600080516020613eb9833981519152546001600160a01b031690565b6001600160a01b031614610b665760405162461bcd60e51b815260040161075790613aba565b610b6f82611d97565b610b7b82826001611d9f565b5050565b6000306001600160a01b037f00000000000000000000000000000000000000000000000000000000000000001614610c1f5760405162461bcd60e51b815260206004820152603860248201527f555550535570677261646561626c653a206d757374206e6f742062652063616c60448201527f6c6564207468726f7567682064656c656761746563616c6c00000000000000006064820152608401610757565b50600080516020613eb983398151915290565b6000818152606760205260408120546001600160a01b0316806106245760405162461bcd60e51b8152602060048201526018602482015277115490cdcc8c4e881a5b9d985b1a59081d1bdad95b88125160421b6044820152606401610757565b60006001600160a01b038216610cfc5760405162461bcd60e51b815260206004820152602960248201527f4552433732313a2061646472657373207a65726f206973206e6f7420612076616044820152683634b21037bbb732b960b91b6064820152608401610757565b506001600160a01b031660009081526068602052604090205490565b60606000610d2533610c92565b905060008167ffffffffffffffff811115610d4257610d42613623565b604051908082528060200260200182016040528015610d8757816020015b6040805180820190915260008082526020820152815260200190600190039081610d605790505b50905060005b82811015610eff57610d9e33610c92565b8110610de25760405162461bcd60e51b8152602060048201526013602482015272496e646578206f7574206f6620626f756e647360681b6044820152606401610757565b61019254604051633469892160e01b8152336004820152602481018390526000916001600160a01b031690633469892190604401602060405180830381865afa158015610e33573d6000803e3d6000fd5b505050506040513d601f19601f82011682018060405250810190610e579190613b06565b610192546040516313a2241360e31b8152600481018390529192506000916001600160a01b0390911690639d112098906024016040805180830381865afa158015610ea6573d6000803e3d6000fd5b505050506040513d601f19601f82011682018060405250810190610eca9190613b1f565b905080848481518110610edf57610edf613b75565b602002602001018190525050508080610ef790613b8b565b915050610d8d565b5092915050565b610f0e611f0a565b610f186000611fa4565b565b6060600061019260009054906101000a90046001600160a01b03166001600160a01b031663c4e41b226040518163ffffffff1660e01b8152600401602060405180830381865afa158015610f72573d6000803e3d6000fd5b505050506040513d601f19601f82011682018060405250810190610f969190613b06565b90506000836001610fa78285613ba4565b610fb19190613bb7565b610fbb9190613a4c565b90506001851080610fcb57508085115b1561100e5760405162461bcd60e51b815260206004820152601360248201527224b73b30b634b2103830b3b290373ab6b132b960691b6044820152606401610757565b60008461101c600188613bb7565b6110269190613a1f565b90506000836110358784613ba4565b11611049576110448683613ba4565b61104b565b835b905060006110598383613bb7565b905060008167ffffffffffffffff81111561107657611076613623565b6040519080825280602002602001820160405280156110bb57816020015b60408051808201909152600080825260208201528152602001906001900390816110945790505b509050835b838110156111df576101925460405163644b7a4360e01b8152600481018390526000916001600160a01b03169063644b7a4390602401602060405180830381865afa158015611113573d6000803e3d6000fd5b505050506040513d601f19601f820116820180604052508101906111379190613b06565b610192546040516313a2241360e31b8152600481018390529192506001600160a01b031690639d112098906024016040805180830381865afa158015611181573d6000803e3d6000fd5b505050506040513d601f19601f820116820180604052508101906111a59190613b1f565b836111b08885613bb7565b815181106111c0576111c0613b75565b60200260200101819052505080806111d790613b8b565b9150506110c0565b5098975050505050505050565b61019254604080516362720d9160e11b815290516000926001600160a01b03169163c4e41b229160048083019260209291908290030181865afa158015611237573d6000803e3d6000fd5b505050506040513d601f19601f8201168201806040525081019061125b9190613b06565b905090565b6101925460405163e462266360e01b81526004810183905260009182916001600160a01b039091169063e462266390602401602060405180830381865afa1580156112af573d6000803e3d6000fd5b505050506040513d601f19601f820116820180604052508101906112d39190613bca565b9392505050565b60606066805461063990613982565b610192546040516316330d7d60e21b81526000916001600160a01b0316906358cc35f49061131b908590600401613536565b602060405180830381865afa158015611338573d6000803e3d6000fd5b505050506040513d601f19601f820116820180604052508101906106249190613be7565b610b7b338383611ff6565b6113713383611ba8565b61138d5760405162461bcd60e51b8152600401610757906139bc565b611399848484846120c4565b50505050565b600054610100900460ff16158080156113bf5750600054600160ff909116105b806113d95750303b1580156113d9575060005460ff166001145b61143c5760405162461bcd60e51b815260206004820152602e60248201527f496e697469616c697a61626c653a20636f6e747261637420697320616c72656160448201526d191e481a5b9a5d1a585b1a5e995960921b6064820152608401610757565b6000805460ff19166001179055801561145f576000805461ff0019166101001790555b6114a76040518060400160405280600881526020016710d85cdadcd3919560c21b8152506040518060400160405280600681526020016510d4d2d3919560d21b8152506120f7565b6114af612128565b6114b7612157565b61019280546001600160a01b0319166001600160a01b0384161790558015610b7b576000805461ff0019169055604051600181527f7f26b83ff96e1f2b6a682f133852f6798a09c465da95921460cefb38474024989060200160405180910390a15050565b606061152782611adb565b6000828152609760205260408120805461154090613982565b80601f016020809104026020016040519081016040528092919081815260200182805461156c90613982565b80156115b95780601f1061158e576101008083540402835291602001916115b9565b820191906000526020600020905b81548152906001019060200180831161159c57829003601f168201915b5050505050905060006115d760408051602081019091526000815290565b905080516000036115e9575092915050565b81511561161b578082604051602001611603929190613c04565b60405160208183030381529060405292505050919050565b6116248461217e565b949350505050565b60606000825167ffffffffffffffff81111561164a5761164a613623565b60405190808252806020026020018201604052801561168f57816020015b60408051808201909152600080825260208201528152602001906001900390816116685790505b50905060005b8351811015610eff57610192546040516349f202ff60e01b8152600481018390526000916001600160a01b0316906349f202ff90602401602060405180830381865afa1580156116e9573d6000803e3d6000fd5b505050506040513d601f19601f8201168201806040525081019061170d9190613b06565b610192546040516313a2241360e31b8152600481018390529192506000916001600160a01b0390911690639d112098906024016040805180830381865afa15801561175c573d6000803e3d6000fd5b505050506040513d601f19601f820116820180604052508101906117809190613b1f565b90508084848151811061179557611795613b75565b6020026020010181905250505080806117ad90613b8b565b915050611695565b6040805180820190915260008082526020820152610192546040516313a2241360e31b8152600481018490526000916001600160a01b031690639d112098906024016040805180830381865afa158015611813573d6000803e3d6000fd5b505050506040513d601f19601f820116820180604052508101906112d39190613b1f565b61183f611f0a565b6001600160a01b0381166118a45760405162461bcd60e51b815260206004820152602660248201527f4f776e61626c653a206e6577206f776e657220697320746865207a65726f206160448201526564647265737360d01b6064820152608401610757565b6109b681611fa4565b60006118b7611f0a565b60008251116119085760405162461bcd60e51b815260206004820152601b60248201527f546f6b656e20555249206d757374206e6f7420626520656d70747900000000006044820152606401610757565b611911826112e9565b1561195e5760405162461bcd60e51b815260206004820152601860248201527f546f6b656e2055524920616c72656164792065786973747300000000000000006044820152606401610757565b61196d61019380546001019055565b60006119796101935490565b905061198533826121f1565b61198f818461220b565b600061199a4261229e565b6101925460405163fcc73a7b60e01b81526004810185905260248101839052600060448201529192506001600160a01b03169063fcc73a7b90606401600060405180830381600087803b1580156119f057600080fd5b505af1158015611a04573d6000803e3d6000fd5b505061019254604051632bada51560e21b81526001600160a01b03909116925063aeb694549150611a39908790600401613536565b600060405180830381600087803b158015611a5357600080fd5b505af1158015611a67573d6000803e3d6000fd5b50505050611a74826122be565b7f85a66b9141978db9980f7e0ce3b468cebf4f7999f32b23091c5c03e798b1ba7a338386604051611aa793929190613c33565b60405180910390a15092915050565b60006001600160e01b0319821663152a902d60e11b14806106245750610624826123c4565b6000818152606760205260409020546001600160a01b03166109b65760405162461bcd60e51b8152602060048201526018602482015277115490cdcc8c4e881a5b9d985b1a59081d1bdad95b88125160421b6044820152606401610757565b600081815260696020526040902080546001600160a01b0319166001600160a01b0384169081179091558190611b6f82610c32565b6001600160a01b03167f8c5be1e5ebec7d5bd14f71427d1e84f3dd0314c0f7b2291e5b200ac8c7c3b92560405160405180910390a45050565b600080611bb483610c32565b9050806001600160a01b0316846001600160a01b03161480611bfb57506001600160a01b038082166000908152606a602090815260408083209388168352929052205460ff165b806116245750836001600160a01b0316611c14846106bc565b6001600160a01b031614949350505050565b826001600160a01b0316611c3982610c32565b6001600160a01b031614611c5f5760405162461bcd60e51b815260040161075790613c5a565b6001600160a01b038216611cc15760405162461bcd60e51b8152602060048201526024808201527f4552433732313a207472616e7366657220746f20746865207a65726f206164646044820152637265737360e01b6064820152608401610757565b611cce8383836001612414565b826001600160a01b0316611ce182610c32565b6001600160a01b031614611d075760405162461bcd60e51b815260040161075790613c5a565b600081815260696020908152604080832080546001600160a01b03199081169091556001600160a01b0387811680865260688552838620805460001901905590871680865283862080546001019055868652606790945282852080549092168417909155905184937fddf252ad1be2c89b69c2b068fc378daa952ba7f163c4a11628f55a4df523b3ef91a4505050565b6109b6611f0a565b7f4910fdfa16fed3260ed0e7147f7cc6da11a60208b5b9406d12a635614ffd91435460ff1615611dd2576107f883612492565b826001600160a01b03166352d1902d6040518163ffffffff1660e01b8152600401602060405180830381865afa925050508015611e2c575060408051601f3d908101601f19168201909252611e2991810190613b06565b60015b611e8f5760405162461bcd60e51b815260206004820152602e60248201527f45524331393637557067726164653a206e657720696d706c656d656e7461746960448201526d6f6e206973206e6f74205555505360901b6064820152608401610757565b600080516020613eb98339815191528114611efe5760405162461bcd60e51b815260206004820152602960248201527f45524331393637557067726164653a20756e737570706f727465642070726f786044820152681a58589b195555525160ba1b6064820152608401610757565b506107f883838361252e565b60fb546001600160a01b03163314610f185760405162461bcd60e51b815260206004820181905260248201527f4f776e61626c653a2063616c6c6572206973206e6f7420746865206f776e65726044820152606401610757565b611f6d81612553565b60008181526097602052604090208054611f8690613982565b1590506109b65760008181526097602052604081206109b691613465565b60fb80546001600160a01b038381166001600160a01b0319831681179093556040519116919082907f8be0079c531659141344cd1fd0a4f28419497f9722a3daafe3b4186f6b6457e090600090a35050565b816001600160a01b0316836001600160a01b0316036120575760405162461bcd60e51b815260206004820152601960248201527f4552433732313a20617070726f766520746f2063616c6c6572000000000000006044820152606401610757565b6001600160a01b038381166000818152606a6020908152604080832094871680845294825291829020805460ff191686151590811790915591519182527f17307eab39ab6107e8899845ad3d59bd9653f200f220920489ca2b5937696c31910160405180910390a3505050565b6120cf848484611c26565b6120db848484846125f6565b6113995760405162461bcd60e51b815260040161075790613c9f565b600054610100900460ff1661211e5760405162461bcd60e51b815260040161075790613cf1565b610b7b82826126f7565b600054610100900460ff1661214f5760405162461bcd60e51b815260040161075790613cf1565b610f18612737565b600054610100900460ff16610f185760405162461bcd60e51b815260040161075790613cf1565b606061218982611adb565b60006121a060408051602081019091526000815290565b905060008151116121c057604051806020016040528060008152506112d3565b806121ca84612767565b6040516020016121db929190613c04565b6040516020818303038152906040529392505050565b610b7b8282604051806020016040528060008152506127fa565b6000828152606760205260409020546001600160a01b03166122865760405162461bcd60e51b815260206004820152602e60248201527f45524337323155524953746f726167653a2055524920736574206f66206e6f6e60448201526d32bc34b9ba32b73a103a37b5b2b760911b6064820152608401610757565b60008281526097602052604090206107f88282613d82565b60006122b56122b06201518084613a4c565b61282d565b50909392505050565b61019254604051631aadd1db60e31b8152600481018390523360248201526001600160a01b039091169063d56e8ed890604401600060405180830381600087803b15801561230b57600080fd5b505af115801561231f573d6000803e3d6000fd5b50506101925460405163f31c848960e01b8152600481018590523360248201526001600160a01b03909116925063f31c84899150604401600060405180830381600087803b15801561237057600080fd5b505af1158015612384573d6000803e3d6000fd5b5050604080518481523360208201527f93beb01ee4f5d2f89d0a0d55db47459601413c9ef0b552599f3ed68f27f82c79935001905060405180910390a150565b60006001600160e01b031982166380ac58cd60e01b14806123f557506001600160e01b03198216635b5e139f60e01b145b8061062457506301ffc9a760e01b6001600160e01b0319831614610624565b6001600160a01b0384166124305761242b826128c9565b612453565b826001600160a01b0316846001600160a01b031614612453576124538483612a02565b6001600160a01b03831661246f5761246a82612cb1565b611399565b836001600160a01b0316836001600160a01b031614611399576113998383612f9c565b6001600160a01b0381163b6124ff5760405162461bcd60e51b815260206004820152602d60248201527f455243313936373a206e657720696d706c656d656e746174696f6e206973206e60448201526c1bdd08184818dbdb9d1c9858dd609a1b6064820152608401610757565b600080516020613eb983398151915280546001600160a01b0319166001600160a01b0392909216919091179055565b61253783613082565b6000825111806125445750805b156107f85761139983836130c2565b600061255e82610c32565b905061256e816000846001612414565b61257782610c32565b600083815260696020908152604080832080546001600160a01b03199081169091556001600160a01b0385168085526068845282852080546000190190558785526067909352818420805490911690555192935084927fddf252ad1be2c89b69c2b068fc378daa952ba7f163c4a11628f55a4df523b3ef908390a45050565b60006001600160a01b0384163b156126ec57604051630a85bd0160e11b81526001600160a01b0385169063150b7a029061263a903390899088908890600401613e42565b6020604051808303816000875af1925050508015612675575060408051601f3d908101601f1916820190925261267291810190613e7f565b60015b6126d2573d8080156126a3576040519150601f19603f3d011682016040523d82523d6000602084013e6126a8565b606091505b5080516000036126ca5760405162461bcd60e51b815260040161075790613c9f565b805181602001fd5b6001600160e01b031916630a85bd0160e11b149050611624565b506001949350505050565b600054610100900460ff1661271e5760405162461bcd60e51b815260040161075790613cf1565b606561272a8382613d82565b5060666107f88282613d82565b600054610100900460ff1661275e5760405162461bcd60e51b815260040161075790613cf1565b610f1833611fa4565b60606000612774836131b6565b600101905060008167ffffffffffffffff81111561279457612794613623565b6040519080825280601f01601f1916602001820160405280156127be576020820181803683370190505b5090508181016020015b600019016f181899199a1a9b1b9c1cb0b131b232b360811b600a86061a8153600a85049450846127c857509392505050565b612804838361328e565b61281160008484846125f6565b6107f85760405162461bcd60e51b815260040161075790613c9f565b60008080836226496581018262023ab1600483020590506004600362023ab18302010590910390600062164b09610fa0600185010205905060046105b58202058303601f019250600061098f846050028161288a5761288a613a36565b0590506000605061098f83020585039050600b820560301994909401606402929092018301996002600c90940290910392909201975095509350505050565b61019254604080516362720d9160e11b815290516000926001600160a01b03169163c4e41b229160048083019260209291908290030181865afa158015612914573d6000803e3d6000fd5b505050506040513d601f19601f820116820180604052508101906129389190613b06565b610192546040516364711ad760e11b815260048101859052602481018390529192506001600160a01b03169063c8e235ae90604401600060405180830381600087803b15801561298757600080fd5b505af115801561299b573d6000803e3d6000fd5b5050610192546040516318ec66fd60e31b8152600481018690526001600160a01b03909116925063c76337e89150602401600060405180830381600087803b1580156129e657600080fd5b505af11580156129fa573d6000803e3d6000fd5b505050505050565b60006001612a0f84610c92565b612a199190613bb7565b610192546040516373a6eb2360e11b8152600481018590529192506000916001600160a01b039091169063e74dd64690602401602060405180830381865afa158015612a69573d6000803e3d6000fd5b505050506040513d601f19601f82011682018060405250810190612a8d9190613b06565b9050818114612be55761019254604051633469892160e01b81526001600160a01b038681166004830152602482018590526000921690633469892190604401602060405180830381865afa158015612ae9573d6000803e3d6000fd5b505050506040513d601f19601f82011682018060405250810190612b0d9190613b06565b610192546040516382b9ec6960e01b81526001600160a01b03888116600483015260248201849052604482018690529293509116906382b9ec6990606401600060405180830381600087803b158015612b6557600080fd5b505af1158015612b79573d6000803e3d6000fd5b50506101925460405163273f4b0760e01b815260048101859052602481018690526001600160a01b03909116925063273f4b079150604401600060405180830381600087803b158015612bcb57600080fd5b505af1158015612bdf573d6000803e3d6000fd5b50505050505b610192546040516387eef8a560e01b8152600481018590526001600160a01b03909116906387eef8a590602401600060405180830381600087803b158015612c2c57600080fd5b505af1158015612c40573d6000803e3d6000fd5b505061019254604051633bb75d4b60e11b81526001600160a01b03888116600483015260248201879052909116925063776eba969150604401600060405180830381600087803b158015612c9357600080fd5b505af1158015612ca7573d6000803e3d6000fd5b5050505050505050565b6000600161019260009054906101000a90046001600160a01b03166001600160a01b031663c4e41b226040518163ffffffff1660e01b8152600401602060405180830381865afa158015612d09573d6000803e3d6000fd5b505050506040513d601f19601f82011682018060405250810190612d2d9190613b06565b612d379190613bb7565b6101925460405163382816a360e01b8152600481018590529192506000916001600160a01b039091169063382816a390602401602060405180830381865afa158015612d87573d6000803e3d6000fd5b505050506040513d601f19601f82011682018060405250810190612dab9190613b06565b610192546040516349f202ff60e01b8152600481018590529192506000916001600160a01b03909116906349f202ff90602401602060405180830381865afa158015612dfb573d6000803e3d6000fd5b505050506040513d601f19601f82011682018060405250810190612e1f9190613b06565b610192546040516371ca79c560e01b815260048101859052602481018390529192506001600160a01b0316906371ca79c590604401600060405180830381600087803b158015612e6e57600080fd5b505af1158015612e82573d6000803e3d6000fd5b5050610192546040516364711ad760e11b815260048101859052602481018690526001600160a01b03909116925063c8e235ae9150604401600060405180830381600087803b158015612ed457600080fd5b505af1158015612ee8573d6000803e3d6000fd5b505061019254604051636d747b4160e01b8152600481018890526001600160a01b039091169250636d747b419150602401600060405180830381600087803b158015612f3357600080fd5b505af1158015612f47573d6000803e3d6000fd5b5050505061019260009054906101000a90046001600160a01b03166001600160a01b031663dab107056040518163ffffffff1660e01b8152600401600060405180830381600087803b158015612c9357600080fd5b6000612fa783610c92565b610192546040516382b9ec6960e01b81526001600160a01b03868116600483015260248201869052604482018490529293509116906382b9ec6990606401600060405180830381600087803b158015612fff57600080fd5b505af1158015613013573d6000803e3d6000fd5b50506101925460405163273f4b0760e01b815260048101869052602481018590526001600160a01b03909116925063273f4b079150604401600060405180830381600087803b15801561306557600080fd5b505af1158015613079573d6000803e3d6000fd5b50505050505050565b61308b81612492565b6040516001600160a01b038216907fbc7cd75a20ee27fd9adebab32041f755214dbc6bffa90cc0225b39da2e5c2d3b90600090a250565b60606001600160a01b0383163b61312a5760405162461bcd60e51b815260206004820152602660248201527f416464726573733a2064656c65676174652063616c6c20746f206e6f6e2d636f6044820152651b9d1c9858dd60d21b6064820152608401610757565b600080846001600160a01b0316846040516131459190613e9c565b600060405180830381855af49150503d8060008114613180576040519150601f19603f3d011682016040523d82523d6000602084013e613185565b606091505b50915091506131ad8282604051806060016040528060278152602001613ed960279139613427565b95945050505050565b60008072184f03e93ff9f4daa797ed6e38ed64bf6a1f0160401b83106131f55772184f03e93ff9f4daa797ed6e38ed64bf6a1f0160401b830492506040015b6d04ee2d6d415b85acef81000000008310613221576d04ee2d6d415b85acef8100000000830492506020015b662386f26fc10000831061323f57662386f26fc10000830492506010015b6305f5e1008310613257576305f5e100830492506008015b612710831061326b57612710830492506004015b6064831061327d576064830492506002015b600a83106106245760010192915050565b6001600160a01b0382166132e45760405162461bcd60e51b815260206004820181905260248201527f4552433732313a206d696e7420746f20746865207a65726f20616464726573736044820152606401610757565b6000818152606760205260409020546001600160a01b0316156133495760405162461bcd60e51b815260206004820152601c60248201527f4552433732313a20746f6b656e20616c7265616479206d696e746564000000006044820152606401610757565b613357600083836001612414565b6000818152606760205260409020546001600160a01b0316156133bc5760405162461bcd60e51b815260206004820152601c60248201527f4552433732313a20746f6b656e20616c7265616479206d696e746564000000006044820152606401610757565b6001600160a01b038216600081815260686020908152604080832080546001019055848352606790915280822080546001600160a01b0319168417905551839291907fddf252ad1be2c89b69c2b068fc378daa952ba7f163c4a11628f55a4df523b3ef908290a45050565b606083156134365750816112d3565b6112d3838381511561344b5781518083602001fd5b8060405162461bcd60e51b81526004016107579190613536565b50805461347190613982565b6000825580601f10613481575050565b601f0160209004906000526020600020908101906109b691905b808211156134af576000815560010161349b565b5090565b6001600160e01b0319811681146109b657600080fd5b6000602082840312156134db57600080fd5b81356112d3816134b3565b60005b838110156135015781810151838201526020016134e9565b50506000910152565b600081518084526135228160208601602086016134e6565b601f01601f19169290920160200192915050565b6020815260006112d3602083018461350a565b60006020828403121561355b57600080fd5b5035919050565b6001600160a01b03811681146109b657600080fd5b6000806040838503121561358a57600080fd5b823561359581613562565b946020939093013593505050565b6000806000606084860312156135b857600080fd5b83356135c381613562565b925060208401356135d381613562565b929592945050506040919091013590565b600080604083850312156135f757600080fd5b50508035926020909101359150565b60006020828403121561361857600080fd5b81356112d381613562565b634e487b7160e01b600052604160045260246000fd5b604051601f8201601f1916810167ffffffffffffffff8111828210171561366257613662613623565b604052919050565b600067ffffffffffffffff83111561368457613684613623565b613697601f8401601f1916602001613639565b90508281528383830111156136ab57600080fd5b828260208301376000602084830101529392505050565b600082601f8301126136d357600080fd5b6112d38383356020850161366a565b600080604083850312156136f557600080fd5b823561370081613562565b9150602083013567ffffffffffffffff81111561371c57600080fd5b613728858286016136c2565b9150509250929050565b602080825282518282018190526000919060409081850190868401855b8281101561378557613775848351805182526020908101516001600160a01b0316910152565b928401929085019060010161374f565b5091979650505050505050565b6000602082840312156137a457600080fd5b813567ffffffffffffffff8111156137bb57600080fd5b8201601f810184136137cc57600080fd5b6116248482356020840161366a565b80151581146109b657600080fd5b600080604083850312156137fc57600080fd5b823561380781613562565b91506020830135613817816137db565b809150509250929050565b6000806000806080858703121561383857600080fd5b843561384381613562565b9350602085013561385381613562565b925060408501359150606085013567ffffffffffffffff81111561387657600080fd5b613882878288016136c2565b91505092959194509250565b600060208083850312156138a157600080fd5b823567ffffffffffffffff808211156138b957600080fd5b818501915085601f8301126138cd57600080fd5b8135818111156138df576138df613623565b8060051b91506138f0848301613639565b818152918301840191848101908884111561390a57600080fd5b938501935b838510156139285784358252938501939085019061390f565b98975050505050505050565b815181526020808301516001600160a01b03169082015260408101610624565b6000806040838503121561396757600080fd5b823561397281613562565b9150602083013561381781613562565b600181811c9082168061399657607f821691505b6020821081036139b657634e487b7160e01b600052602260045260246000fd5b50919050565b6020808252602d908201527f4552433732313a2063616c6c6572206973206e6f7420746f6b656e206f776e6560408201526c1c881bdc88185c1c1c9bdd9959609a1b606082015260800190565b634e487b7160e01b600052601160045260246000fd5b808202811582820484141761062457610624613a09565b634e487b7160e01b600052601260045260246000fd5b600082613a6957634e487b7160e01b600052601260045260246000fd5b500490565b6020808252602c908201527f46756e6374696f6e206d7573742062652063616c6c6564207468726f7567682060408201526b19195b1959d85d1958d85b1b60a21b606082015260800190565b6020808252602c908201527f46756e6374696f6e206d7573742062652063616c6c6564207468726f7567682060408201526b6163746976652070726f787960a01b606082015260800190565b600060208284031215613b1857600080fd5b5051919050565b600060408284031215613b3157600080fd5b6040516040810181811067ffffffffffffffff82111715613b5457613b54613623565b604052825181526020830151613b6981613562565b60208201529392505050565b634e487b7160e01b600052603260045260246000fd5b600060018201613b9d57613b9d613a09565b5060010190565b8082018082111561062457610624613a09565b8181038181111561062457610624613a09565b600060208284031215613bdc57600080fd5b81516112d381613562565b600060208284031215613bf957600080fd5b81516112d3816137db565b60008351613c168184602088016134e6565b835190830190613c2a8183602088016134e6565b01949350505050565b60018060a01b03841681528260208201526060604082015260006131ad606083018461350a565b60208082526025908201527f4552433732313a207472616e736665722066726f6d20696e636f72726563742060408201526437bbb732b960d91b606082015260800190565b60208082526032908201527f4552433732313a207472616e7366657220746f206e6f6e20455243373231526560408201527131b2b4bb32b91034b6b83632b6b2b73a32b960711b606082015260800190565b6020808252602b908201527f496e697469616c697a61626c653a20636f6e7472616374206973206e6f74206960408201526a6e697469616c697a696e6760a81b606082015260800190565b601f8211156107f857600081815260208120601f850160051c81016020861015613d635750805b601f850160051c820191505b818110156129fa57828155600101613d6f565b815167ffffffffffffffff811115613d9c57613d9c613623565b613db081613daa8454613982565b84613d3c565b602080601f831160018114613de55760008415613dcd5750858301515b600019600386901b1c1916600185901b1785556129fa565b600085815260208120601f198616915b82811015613e1457888601518255948401946001909101908401613df5565b5085821015613e325787850151600019600388901b60f8161c191681555b5050505050600190811b01905550565b6001600160a01b0385811682528416602082015260408101839052608060608201819052600090613e759083018461350a565b9695505050505050565b600060208284031215613e9157600080fd5b81516112d3816134b3565b60008251613eae8184602087016134e6565b919091019291505056fe360894a13ba1a3210667c828492db98dca3e2076cc3735a920a3ca505d382bbc416464726573733a206c6f772d6c6576656c2064656c65676174652063616c6c206661696c6564a26469706673582212202a0ae6156c6bb7dc932c3b95c21e67b3b45ae088c343b64946c08756746661cf64736f6c63430008110033",
  "immutableReferences": {
    "746": [
      {
        "length": 32,
        "start": 2276
      },
      {
        "length": 32,
        "start": 2340
      },
      {
        "length": 32,
        "start": 2745
      },
      {
        "length": 32,
        "start": 2809
      },
      {
        "length": 32,
        "start": 2956
      }
    ]
  },
  "source": "// SPDX-License-Identifier: MIT\npragma solidity ^0.8.7;\n\nimport \"@openzeppelin/contracts-upgradeable/proxy/utils/Initializable.sol\";\n\nimport \"@openzeppelin/contracts-upgradeable/token/common/ERC2981Upgradeable.sol\";\nimport \"@openzeppelin/contracts-upgradeable/token/ERC721/extensions/ERC721URIStorageUpgradeable.sol\";\nimport \"@openzeppelin/contracts-upgradeable/access/OwnableUpgradeable.sol\";\nimport \"@openzeppelin/contracts-upgradeable/utils/CountersUpgradeable.sol\";\nimport \"@openzeppelin/contracts-upgradeable/token/ERC20/IERC20Upgradeable.sol\";\nimport \"@openzeppelin/contracts-upgradeable/utils/math/SafeMathUpgradeable.sol\";\nimport \"@openzeppelin/contracts-upgradeable/proxy/utils/UUPSUpgradeable.sol\";\n\nimport \"./ICCNftStorage.sol\";\n\ncontract CCNft is\n  Initializable,\n  ERC721URIStorageUpgradeable,\n  ERC2981Upgradeable,\n  OwnableUpgradeable,\n  UUPSUpgradeable\n{\n  using SafeMathUpgradeable for uint256;\n  using CountersUpgradeable for CountersUpgradeable.Counter;\n\n  // struct NftItem {\n  //   uint256 tokenId;\n  //   address creator;\n  // }\n\n  struct ERC20Token {\n    address paytoken;\n    uint256 costvalue;\n  }\n\n  address public txFeeToken;\n  ICCNftStorage private _storage;\n\n  uint256 constant SECONDS_PER_DAY = 24 * 60 * 60;\n  int256 constant OFFSET19700101 = 2440588;\n\n  CountersUpgradeable.Counter private _tokenIds;\n\n  event Mint(address owner, uint256 tokenId, string tokenURI);\n\n  event NftItemCreated(uint256 tokenId, address creator);\n\n  function initialize(address storageAddress) public initializer {\n    __ERC721_init(\"CasksNFT\", \"CSKNFT\");\n    __Ownable_init();\n    __UUPSUpgradeable_init();\n    _storage = ICCNftStorage(storageAddress);\n  }\n\n  function _authorizeUpgrade(address) internal override onlyOwner {}\n\n  /////////////////////\n  // Main Functions //\n  /////////////////////\n\n  function checkIfTokenURIExists(\n    string memory tokenURI\n  ) public view returns (bool) {\n    return _storage.getTokeURIUsed(tokenURI);\n  }\n\n  function mintNFT(string memory _tokenURI) public onlyOwner returns (uint256) {\n    require(bytes(_tokenURI).length > 0, \"Token URI must not be empty\");\n    require(!checkIfTokenURIExists(_tokenURI), \"Token URI already exists\");\n\n    _tokenIds.increment();\n    uint256 newItemId = _tokenIds.current();\n\n    _safeMint(msg.sender, newItemId);\n    _setTokenURI(newItemId, _tokenURI);\n\n    uint256 year = getYear(block.timestamp);\n\n    _storage.setTokenExtractionsByYear(newItemId, year, 0);\n    _storage.setUsedTokenURI(_tokenURI);\n\n    _createNftItem(newItemId);\n\n    emit Mint(msg.sender, newItemId, _tokenURI);\n\n    return newItemId;\n  }\n\n  function burn(uint256 tokenId) public onlyOwner {\n    require(_exists(tokenId), \"Token does not exist\");\n    require(\n      ownerOf(tokenId) == _msgSender(),\n      \"Ownable: caller is not the owner\"\n    );\n    _resetTokenRoyalty(tokenId);\n    super._burn(tokenId);\n  }\n\n  function getNftTotalSupply() external view returns (uint256) {\n    return _storage.getTotalSupply();\n  }\n\n  function getNftInfo(\n    uint256 tokenId\n  ) external view returns (ICCNftStorage.NftItem memory) {\n    ICCNftStorage.NftItem memory item = _storage.getIdToNftItem(tokenId);\n    return item;\n  }\n\n  function getAllNFTs(\n    uint256 page,\n    uint256 pageSize\n  ) external view returns (ICCNftStorage.NftItem[] memory) {\n    uint256 totalItemsCount = _storage.getTotalSupply();\n    uint256 totalPages = (totalItemsCount + pageSize - 1) / pageSize;\n\n    if (page < 1 || page > totalPages) {\n      revert(\"Invalid page number\");\n    }\n\n    uint256 startIndex = (page - 1) * pageSize;\n    uint256 endIndex = startIndex + pageSize > totalItemsCount\n      ? totalItemsCount\n      : startIndex + pageSize;\n\n    uint256 itemsLength = endIndex - startIndex;\n    ICCNftStorage.NftItem[] memory items = new ICCNftStorage.NftItem[](\n      itemsLength\n    );\n\n    for (uint256 i = startIndex; i < endIndex; i++) {\n      uint256 tokenId = _storage.getTokenByIndex(i);\n      items[i - startIndex] = _storage.getIdToNftItem(tokenId);\n    }\n\n    return items;\n  }\n\n  function getAllNftsOnSale(\n    uint256[] memory _tokensIds\n  ) external view returns (ICCNftStorage.NftItem[] memory) {\n    ICCNftStorage.NftItem[] memory items = new ICCNftStorage.NftItem[](\n      _tokensIds.length\n    );\n\n    for (uint256 i = 0; i < _tokensIds.length; i++) {\n      uint256 tokenId = _storage.getTokenIdByIndex(i);\n      ICCNftStorage.NftItem memory item = _storage.getIdToNftItem(tokenId);\n      items[i] = item;\n    }\n\n    return items;\n  }\n\n  function getCreatorNft(uint256 tokenId) external view returns (address) {\n    address creator = _storage.getNftCreator(tokenId);\n    return creator;\n  }\n\n  function getOwnedNfts() public view returns (ICCNftStorage.NftItem[] memory) {\n    uint ownedItemsCount = ERC721Upgradeable.balanceOf(msg.sender);\n    ICCNftStorage.NftItem[] memory items = new ICCNftStorage.NftItem[](\n      ownedItemsCount\n    );\n    for (uint256 i = 0; i < ownedItemsCount; i++) {\n      require(\n        i < ERC721Upgradeable.balanceOf(msg.sender),\n        \"Index out of bounds\"\n      );\n      uint256 tokenId = _storage.getTokenIdOfOwnerByIndex(msg.sender, i);\n      ICCNftStorage.NftItem memory item = _storage.getIdToNftItem(tokenId);\n      items[i] = item;\n    }\n\n    return items;\n  }\n\n  function supportsInterface(\n    bytes4 interfaceId\n  )\n    public\n    view\n    virtual\n    override(ERC721Upgradeable, ERC2981Upgradeable)\n    returns (bool)\n  {\n    return super.supportsInterface(interfaceId);\n  }\n\n  function getYear(uint256 timestamp) internal pure returns (uint256 year) {\n    (year, , ) = _daysToDate(timestamp / SECONDS_PER_DAY);\n  }\n\n  function _createNftItem(uint _tokenId) private {\n    _storage.setIdToNftItem(_tokenId, msg.sender);\n    _storage.setIdToNftCreator(_tokenId, msg.sender);\n\n    emit NftItemCreated(_tokenId, msg.sender);\n  }\n\n  function _beforeTokenTransfer(\n    address from,\n    address to,\n    uint tokenId,\n    uint256 batchSize\n  ) internal virtual override {\n    super._beforeTokenTransfer(from, to, tokenId, batchSize);\n\n    if (from == address(0)) {\n      // MINTING CASE\n      _addTokenToAllTokensEnumeration(tokenId);\n    } else if (from != to) {\n      // TRANSFER CASE\n      _removeTokenFromOwnerEnumeration(from, tokenId);\n    }\n\n    if (to == address(0)) {\n      // BURNING CASE\n      _removeTokenFromAllTokensEnumeration(tokenId);\n    } else if (to != from) {\n      // TRANSFER CASE\n      _addTokenToOwnerEnumeration(to, tokenId);\n    }\n  }\n\n  function _addTokenToOwnerEnumeration(address to, uint tokenId) private {\n    uint index = ERC721Upgradeable.balanceOf(to);\n    _storage.setOwnedTokens(to, tokenId, index);\n    _storage.setIdToOwnedIndex(tokenId, index);\n  }\n\n  function _removeTokenFromOwnerEnumeration(\n    address from,\n    uint tokenId\n  ) private {\n    uint lastTokenIndex = ERC721Upgradeable.balanceOf(from) - 1;\n    uint tokenIndex = _storage.getIdToOwnedIndex(tokenId);\n\n    if (tokenIndex != lastTokenIndex) {\n      uint lastTokenId = _storage.getTokenIdOfOwnerByIndex(\n        from,\n        lastTokenIndex\n      );\n\n      _storage.setOwnedTokens(from, lastTokenId, tokenIndex);\n      _storage.setIdToOwnedIndex(lastTokenId, tokenIndex);\n    }\n\n    _storage.deleteIdToOwnedIndex(tokenId);\n    _storage.deleteOwnedTokens(from, lastTokenIndex);\n  }\n\n  function _addTokenToAllTokensEnumeration(uint tokenId) private {\n    uint256 index = _storage.getTotalSupply();\n    _storage.setIdToNftIndex(tokenId, index);\n    _storage.pushAllNfts(tokenId);\n  }\n\n  function _removeTokenFromAllTokensEnumeration(uint tokenId) private {\n    uint lastTokenIndex = _storage.getTotalSupply() - 1;\n    uint tokenIndex = _storage.getNftIndex(tokenId);\n    uint lastTokenId = _storage.getTokenIdByIndex(lastTokenIndex);\n\n    _storage.setAllNftsTokenIdByIndex(tokenIndex, lastTokenId);\n    _storage.setIdToNftIndex(lastTokenId, tokenIndex);\n\n    _storage.deleteIdToNftIndex(tokenId);\n    _storage.popAllNfts();\n  }\n\n  function _daysToDate(\n    uint256 _days\n  ) internal pure returns (uint256 year, uint256 month, uint256 day) {\n    unchecked {\n      int256 __days = int256(_days);\n\n      int256 L = __days + 68569 + OFFSET19700101;\n      int256 N = (4 * L) / 146097;\n      L = L - (146097 * N + 3) / 4;\n      int256 _year = (4000 * (L + 1)) / 1461001;\n      L = L - (1461 * _year) / 4 + 31;\n      int256 _month = (80 * L) / 2447;\n      int256 _day = L - (2447 * _month) / 80;\n      L = _month / 11;\n      _month = _month + 2 - 12 * L;\n      _year = 100 * (N - 49) + _year + L;\n\n      year = uint256(_year);\n      month = uint256(_month);\n      day = uint256(_day);\n    }\n  }\n}\n",
  "sourcePath": "/Users/alberto/Desktop/Enalbis/caskchain-mono/apps/contracts/contracts/CCNft/CCNft.sol",
  "compiler": {
    "name": "solc",
    "version": "0.8.17+commit.8df45f5f.Emscripten.clang"
  },
  "schemaVersion": "3.4.11",
  "updatedAt": "2023-05-04T14:14:31.287Z",
  "networkType": "ethereum",
  "devdoc": {
    "kind": "dev",
    "methods": {
      "approve(address,uint256)": {
        "details": "See {IERC721-approve}."
      },
      "balanceOf(address)": {
        "details": "See {IERC721-balanceOf}."
      },
      "getApproved(uint256)": {
        "details": "See {IERC721-getApproved}."
      },
      "isApprovedForAll(address,address)": {
        "details": "See {IERC721-isApprovedForAll}."
      },
      "name()": {
        "details": "See {IERC721Metadata-name}."
      },
      "owner()": {
        "details": "Returns the address of the current owner."
      },
      "ownerOf(uint256)": {
        "details": "See {IERC721-ownerOf}."
      },
      "proxiableUUID()": {
        "details": "Implementation of the ERC1822 {proxiableUUID} function. This returns the storage slot used by the implementation. It is used to validate the implementation's compatibility when performing an upgrade. IMPORTANT: A proxy pointing at a proxiable contract should not be considered proxiable itself, because this risks bricking a proxy that upgrades to it, by delegating to itself until out of gas. Thus it is critical that this function revert if invoked through a proxy. This is guaranteed by the `notDelegated` modifier."
      },
      "renounceOwnership()": {
        "details": "Leaves the contract without owner. It will not be possible to call `onlyOwner` functions anymore. Can only be called by the current owner. NOTE: Renouncing ownership will leave the contract without an owner, thereby removing any functionality that is only available to the owner."
      },
      "royaltyInfo(uint256,uint256)": {
        "details": "Returns how much royalty is owed and to whom, based on a sale price that may be denominated in any unit of exchange. The royalty amount is denominated and should be paid in that same unit of exchange."
      },
      "safeTransferFrom(address,address,uint256)": {
        "details": "See {IERC721-safeTransferFrom}."
      },
      "safeTransferFrom(address,address,uint256,bytes)": {
        "details": "See {IERC721-safeTransferFrom}."
      },
      "setApprovalForAll(address,bool)": {
        "details": "See {IERC721-setApprovalForAll}."
      },
      "symbol()": {
        "details": "See {IERC721Metadata-symbol}."
      },
      "tokenURI(uint256)": {
        "details": "See {IERC721Metadata-tokenURI}."
      },
      "transferFrom(address,address,uint256)": {
        "details": "See {IERC721-transferFrom}."
      },
      "transferOwnership(address)": {
        "details": "Transfers ownership of the contract to a new account (`newOwner`). Can only be called by the current owner."
      },
      "upgradeTo(address)": {
        "details": "Upgrade the implementation of the proxy to `newImplementation`. Calls {_authorizeUpgrade}. Emits an {Upgraded} event."
      },
      "upgradeToAndCall(address,bytes)": {
        "details": "Upgrade the implementation of the proxy to `newImplementation`, and subsequently execute the function call encoded in `data`. Calls {_authorizeUpgrade}. Emits an {Upgraded} event."
      }
    },
    "version": 1
  },
  "userdoc": {
    "kind": "user",
    "methods": {},
    "version": 1
  }
}