{
  "contractName": "CCNftStorage",
  "abi": [
    {
      "anonymous": false,
      "inputs": [
        {
          "indexed": true,
          "internalType": "address",
          "name": "previousOwner",
          "type": "address"
        },
        {
          "indexed": true,
          "internalType": "address",
          "name": "newOwner",
          "type": "address"
        }
      ],
      "name": "OwnershipTransferred",
      "type": "event"
    },
    {
      "inputs": [
        {
          "internalType": "uint256",
          "name": "",
          "type": "uint256"
        }
      ],
      "name": "_allNfts",
      "outputs": [
        {
          "internalType": "uint256",
          "name": "",
          "type": "uint256"
        }
      ],
      "stateMutability": "view",
      "type": "function",
      "constant": true
    },
    {
      "inputs": [
        {
          "internalType": "uint256",
          "name": "",
          "type": "uint256"
        }
      ],
      "name": "_idToNftCreator",
      "outputs": [
        {
          "internalType": "address",
          "name": "",
          "type": "address"
        }
      ],
      "stateMutability": "view",
      "type": "function",
      "constant": true
    },
    {
      "inputs": [
        {
          "internalType": "uint256",
          "name": "",
          "type": "uint256"
        }
      ],
      "name": "_idToNftIndex",
      "outputs": [
        {
          "internalType": "uint256",
          "name": "",
          "type": "uint256"
        }
      ],
      "stateMutability": "view",
      "type": "function",
      "constant": true
    },
    {
      "inputs": [
        {
          "internalType": "uint256",
          "name": "",
          "type": "uint256"
        }
      ],
      "name": "_idToNftItem",
      "outputs": [
        {
          "internalType": "uint256",
          "name": "tokenId",
          "type": "uint256"
        },
        {
          "internalType": "address",
          "name": "creator",
          "type": "address"
        }
      ],
      "stateMutability": "view",
      "type": "function",
      "constant": true
    },
    {
      "inputs": [
        {
          "internalType": "uint256",
          "name": "",
          "type": "uint256"
        }
      ],
      "name": "_idToOwnedIndex",
      "outputs": [
        {
          "internalType": "uint256",
          "name": "",
          "type": "uint256"
        }
      ],
      "stateMutability": "view",
      "type": "function",
      "constant": true
    },
    {
      "inputs": [
        {
          "internalType": "address",
          "name": "",
          "type": "address"
        },
        {
          "internalType": "uint256",
          "name": "",
          "type": "uint256"
        }
      ],
      "name": "_ownedTokens",
      "outputs": [
        {
          "internalType": "uint256",
          "name": "",
          "type": "uint256"
        }
      ],
      "stateMutability": "view",
      "type": "function",
      "constant": true
    },
    {
      "inputs": [
        {
          "internalType": "uint256",
          "name": "",
          "type": "uint256"
        },
        {
          "internalType": "uint256",
          "name": "",
          "type": "uint256"
        }
      ],
      "name": "_tokensExtractionsByYear",
      "outputs": [
        {
          "internalType": "uint256",
          "name": "",
          "type": "uint256"
        }
      ],
      "stateMutability": "view",
      "type": "function",
      "constant": true
    },
    {
      "inputs": [
        {
          "internalType": "string",
          "name": "",
          "type": "string"
        }
      ],
      "name": "_usedTokenURIs",
      "outputs": [
        {
          "internalType": "bool",
          "name": "",
          "type": "bool"
        }
      ],
      "stateMutability": "view",
      "type": "function",
      "constant": true
    },
    {
      "inputs": [
        {
          "internalType": "uint256",
          "name": "",
          "type": "uint256"
        },
        {
          "internalType": "uint256",
          "name": "",
          "type": "uint256"
        }
      ],
      "name": "addressesFromTokenId",
      "outputs": [
        {
          "internalType": "address",
          "name": "",
          "type": "address"
        }
      ],
      "stateMutability": "view",
      "type": "function",
      "constant": true
    },
    {
      "inputs": [
        {
          "internalType": "address",
          "name": "",
          "type": "address"
        }
      ],
      "name": "allowedAddresses",
      "outputs": [
        {
          "internalType": "bool",
          "name": "",
          "type": "bool"
        }
      ],
      "stateMutability": "view",
      "type": "function",
      "constant": true
    },
    {
      "inputs": [],
      "name": "owner",
      "outputs": [
        {
          "internalType": "address",
          "name": "",
          "type": "address"
        }
      ],
      "stateMutability": "view",
      "type": "function",
      "constant": true
    },
    {
      "inputs": [],
      "name": "renounceOwnership",
      "outputs": [],
      "stateMutability": "nonpayable",
      "type": "function"
    },
    {
      "inputs": [
        {
          "internalType": "address",
          "name": "newOwner",
          "type": "address"
        }
      ],
      "name": "transferOwnership",
      "outputs": [],
      "stateMutability": "nonpayable",
      "type": "function"
    },
    {
      "inputs": [
        {
          "internalType": "address",
          "name": "_address",
          "type": "address"
        }
      ],
      "name": "addAllowedAddress",
      "outputs": [],
      "stateMutability": "nonpayable",
      "type": "function"
    },
    {
      "inputs": [
        {
          "internalType": "address",
          "name": "_address",
          "type": "address"
        }
      ],
      "name": "removeAllowedAddress",
      "outputs": [],
      "stateMutability": "nonpayable",
      "type": "function"
    },
    {
      "inputs": [
        {
          "internalType": "address",
          "name": "_address",
          "type": "address"
        }
      ],
      "name": "isAllowedAddress",
      "outputs": [
        {
          "internalType": "bool",
          "name": "",
          "type": "bool"
        }
      ],
      "stateMutability": "view",
      "type": "function",
      "constant": true
    },
    {
      "inputs": [
        {
          "internalType": "uint256",
          "name": "tokenId",
          "type": "uint256"
        },
        {
          "internalType": "address",
          "name": "creator",
          "type": "address"
        }
      ],
      "name": "pushAddressFromTokenId",
      "outputs": [],
      "stateMutability": "nonpayable",
      "type": "function"
    },
    {
      "inputs": [
        {
          "internalType": "uint256",
          "name": "tokenId",
          "type": "uint256"
        }
      ],
      "name": "pushAllNfts",
      "outputs": [],
      "stateMutability": "nonpayable",
      "type": "function"
    },
    {
      "inputs": [
        {
          "internalType": "uint256",
          "name": "index",
          "type": "uint256"
        },
        {
          "internalType": "uint256",
          "name": "tokenId",
          "type": "uint256"
        }
      ],
      "name": "setAllNftsTokenIdByIndex",
      "outputs": [],
      "stateMutability": "nonpayable",
      "type": "function"
    },
    {
      "inputs": [
        {
          "internalType": "uint256",
          "name": "tokenId",
          "type": "uint256"
        },
        {
          "internalType": "uint256",
          "name": "year",
          "type": "uint256"
        },
        {
          "internalType": "uint256",
          "name": "extractions",
          "type": "uint256"
        }
      ],
      "name": "setTokenExtractionsByYear",
      "outputs": [],
      "stateMutability": "nonpayable",
      "type": "function"
    },
    {
      "inputs": [
        {
          "internalType": "uint256",
          "name": "tokenId",
          "type": "uint256"
        },
        {
          "internalType": "uint256",
          "name": "index",
          "type": "uint256"
        }
      ],
      "name": "setIdToNftIndex",
      "outputs": [],
      "stateMutability": "nonpayable",
      "type": "function"
    },
    {
      "inputs": [
        {
          "internalType": "uint256",
          "name": "tokenId",
          "type": "uint256"
        },
        {
          "internalType": "address",
          "name": "creator",
          "type": "address"
        }
      ],
      "name": "setIdToNftItem",
      "outputs": [],
      "stateMutability": "nonpayable",
      "type": "function"
    },
    {
      "inputs": [
        {
          "internalType": "uint256",
          "name": "tokenId",
          "type": "uint256"
        },
        {
          "internalType": "address",
          "name": "creator",
          "type": "address"
        }
      ],
      "name": "setIdToNftCreator",
      "outputs": [],
      "stateMutability": "nonpayable",
      "type": "function"
    },
    {
      "inputs": [
        {
          "internalType": "string",
          "name": "tokenURI",
          "type": "string"
        }
      ],
      "name": "setUsedTokenURI",
      "outputs": [],
      "stateMutability": "nonpayable",
      "type": "function"
    },
    {
      "inputs": [
        {
          "internalType": "address",
          "name": "owner",
          "type": "address"
        },
        {
          "internalType": "uint256",
          "name": "tokenId",
          "type": "uint256"
        },
        {
          "internalType": "uint256",
          "name": "index",
          "type": "uint256"
        }
      ],
      "name": "setOwnedTokens",
      "outputs": [],
      "stateMutability": "nonpayable",
      "type": "function"
    },
    {
      "inputs": [
        {
          "internalType": "uint256",
          "name": "tokenId",
          "type": "uint256"
        },
        {
          "internalType": "uint256",
          "name": "index",
          "type": "uint256"
        }
      ],
      "name": "setIdToOwnedIndex",
      "outputs": [],
      "stateMutability": "nonpayable",
      "type": "function"
    },
    {
      "inputs": [
        {
          "internalType": "uint256",
          "name": "tokenId",
          "type": "uint256"
        }
      ],
      "name": "getAddressFromTokenId",
      "outputs": [
        {
          "internalType": "address[]",
          "name": "",
          "type": "address[]"
        }
      ],
      "stateMutability": "view",
      "type": "function",
      "constant": true
    },
    {
      "inputs": [
        {
          "internalType": "address",
          "name": "owner",
          "type": "address"
        },
        {
          "internalType": "uint256",
          "name": "index",
          "type": "uint256"
        }
      ],
      "name": "getTokenIdOfOwnerByIndex",
      "outputs": [
        {
          "internalType": "uint256",
          "name": "",
          "type": "uint256"
        }
      ],
      "stateMutability": "view",
      "type": "function",
      "constant": true
    },
    {
      "inputs": [],
      "name": "getTotalSupply",
      "outputs": [
        {
          "internalType": "uint256",
          "name": "",
          "type": "uint256"
        }
      ],
      "stateMutability": "view",
      "type": "function",
      "constant": true
    },
    {
      "inputs": [
        {
          "internalType": "uint256",
          "name": "index",
          "type": "uint256"
        }
      ],
      "name": "getTokenByIndex",
      "outputs": [
        {
          "internalType": "uint256",
          "name": "",
          "type": "uint256"
        }
      ],
      "stateMutability": "view",
      "type": "function",
      "constant": true
    },
    {
      "inputs": [
        {
          "internalType": "uint256",
          "name": "tokenId",
          "type": "uint256"
        }
      ],
      "name": "getNftIndex",
      "outputs": [
        {
          "internalType": "uint256",
          "name": "",
          "type": "uint256"
        }
      ],
      "stateMutability": "view",
      "type": "function",
      "constant": true
    },
    {
      "inputs": [
        {
          "internalType": "uint256",
          "name": "index",
          "type": "uint256"
        }
      ],
      "name": "getTokenIdByIndex",
      "outputs": [
        {
          "internalType": "uint256",
          "name": "",
          "type": "uint256"
        }
      ],
      "stateMutability": "view",
      "type": "function",
      "constant": true
    },
    {
      "inputs": [
        {
          "internalType": "uint256",
          "name": "tokenId",
          "type": "uint256"
        }
      ],
      "name": "getIdToOwnedIndex",
      "outputs": [
        {
          "internalType": "uint256",
          "name": "",
          "type": "uint256"
        }
      ],
      "stateMutability": "view",
      "type": "function",
      "constant": true
    },
    {
      "inputs": [
        {
          "internalType": "uint256",
          "name": "tokenId",
          "type": "uint256"
        }
      ],
      "name": "getIdToNftItem",
      "outputs": [
        {
          "components": [
            {
              "internalType": "uint256",
              "name": "tokenId",
              "type": "uint256"
            },
            {
              "internalType": "address",
              "name": "creator",
              "type": "address"
            }
          ],
          "internalType": "struct CCNftStorage.NftItem",
          "name": "",
          "type": "tuple"
        }
      ],
      "stateMutability": "view",
      "type": "function",
      "constant": true
    },
    {
      "inputs": [
        {
          "internalType": "uint256",
          "name": "tokenId",
          "type": "uint256"
        }
      ],
      "name": "getNftCreator",
      "outputs": [
        {
          "internalType": "address",
          "name": "",
          "type": "address"
        }
      ],
      "stateMutability": "view",
      "type": "function",
      "constant": true
    },
    {
      "inputs": [
        {
          "internalType": "string",
          "name": "tokenURI",
          "type": "string"
        }
      ],
      "name": "getTokeURIUsed",
      "outputs": [
        {
          "internalType": "bool",
          "name": "",
          "type": "bool"
        }
      ],
      "stateMutability": "view",
      "type": "function",
      "constant": true
    },
    {
      "inputs": [
        {
          "internalType": "uint256",
          "name": "tokenId",
          "type": "uint256"
        }
      ],
      "name": "deleteIdToOwnedIndex",
      "outputs": [],
      "stateMutability": "nonpayable",
      "type": "function"
    },
    {
      "inputs": [
        {
          "internalType": "uint256",
          "name": "tokenId",
          "type": "uint256"
        }
      ],
      "name": "deleteIdToNftIndex",
      "outputs": [],
      "stateMutability": "nonpayable",
      "type": "function"
    },
    {
      "inputs": [
        {
          "internalType": "address",
          "name": "owner",
          "type": "address"
        },
        {
          "internalType": "uint256",
          "name": "tokenId",
          "type": "uint256"
        }
      ],
      "name": "deleteOwnedTokens",
      "outputs": [],
      "stateMutability": "nonpayable",
      "type": "function"
    },
    {
      "inputs": [],
      "name": "popAllNfts",
      "outputs": [],
      "stateMutability": "nonpayable",
      "type": "function"
    },
    {
      "inputs": [
        {
          "internalType": "uint256",
          "name": "tokenId",
          "type": "uint256"
        }
      ],
      "name": "popAddressFromTokenId",
      "outputs": [],
      "stateMutability": "nonpayable",
      "type": "function"
    }
  ],
  "bytecode": "0x608060405234801561001057600080fd5b5061001a3361001f565b61006f565b600080546001600160a01b038381166001600160a01b0319831681178455604051919092169283917f8be0079c531659141344cd1fd0a4f28419497f9722a3daafe3b4186f6b6457e09190a35050565b6112698061007e6000396000f3fe608060405234801561001057600080fd5b50600436106102535760003560e01c806381788e2b11610146578063c76337e8116100c3578063dc67508e11610087578063dc67508e14610674578063e46226631461069f578063e74dd646146106c8578063f2fde38b146106e8578063f31c8489146106fb578063fcc73a7b1461070e57600080fd5b8063c76337e814610613578063c8e235ae14610626578063d56e8ed814610639578063dab107051461064c578063dc42e96e1461065457600080fd5b80638daa6fc91161010a5780638daa6fc9146105365780639d11209814610556578063aeb69454146105cf578063bd606b6e146105e2578063c4e41b221461060b57600080fd5b806381788e2b146104c057806382b9ec69146104d35780638345245e146104e657806387eef8a5146105125780638da5cb5b1461052557600080fd5b80634e38bfb4116101d45780636d747b41116101985780636d747b4114610432578063715018a61461044557806371ca79c51461044d57806375e05b8814610460578063776eba96146104ad57600080fd5b80634e38bfb4146103a05780634ebce05d146103b35780634f3c5f06146103e157806358cc35f41461040c578063644b7a431461041f57600080fd5b80633c9d93b81161021b5780633c9d93b8146102fc5780634120657a1461030f5780634880ba131461034257806349f202ff1461036d5780634de47d601461038057600080fd5b80632001b88514610258578063273f4b071461027e57806327bb428b1461029357806334698921146102a6578063382816a3146102dc575b600080fd5b61026b610266366004610f67565b610721565b6040519081526020015b60405180910390f35b61029161028c366004610f80565b610742565b005b6102916102a1366004610fbe565b61078c565b61026b6102b4366004610fea565b6001600160a01b03919091166000908152600860209081526040808320938352929052205490565b61026b6102ea366004610f67565b60009081526006602052604090205490565b61029161030a366004611014565b6107fa565b61033261031d366004611014565b60036020526000908152604090205460ff1681565b6040519015158152602001610275565b610355610350366004610f80565b610823565b6040516001600160a01b039091168152602001610275565b61026b61037b366004610f67565b61085b565b61026b61038e366004610f67565b60066020526000908152604090205481565b6102916103ae366004610f67565b610882565b6103326103c136600461104c565b805160208183018101805160048252928201919093012091525460ff1681565b61026b6103ef366004610fea565b600860209081526000928352604080842090915290825290205481565b61033261041a36600461104c565b6108f3565b61026b61042d366004610f67565b61091e565b610291610440366004610f67565b610980565b6102916109c0565b61029161045b366004610f80565b6109d4565b61049061046e366004610f67565b600560205260009081526040902080546001909101546001600160a01b031682565b604080519283526001600160a01b03909116602083015201610275565b6102916104bb366004610fea565b610a27565b6102916104ce366004611014565b610a7e565b6102916104e13660046110fd565b610aaa565b6103326104f4366004611014565b6001600160a01b031660009081526003602052604090205460ff1690565b610291610520366004610f67565b610b02565b6000546001600160a01b0316610355565b610549610544366004610f67565b610b42565b6040516102759190611130565b6105ab610564366004610f67565b604080518082019091526000808252602082015250600090815260056020908152604091829020825180840190935280548352600101546001600160a01b03169082015290565b60408051825181526020928301516001600160a01b03169281019290925201610275565b6102916105dd36600461104c565b610bae565b6103556105f0366004610f67565b600a602052600090815260409020546001600160a01b031681565b600c5461026b565b610291610621366004610f67565b610c12565b610291610634366004610f80565b610c76565b610291610647366004610fbe565b610cb7565b610291610d44565b61026b610662366004610f67565b60076020526000908152604090205481565b61026b610682366004610f80565b600960209081526000928352604080842090915290825290205481565b6103556106ad366004610f67565b6000908152600a60205260409020546001600160a01b031690565b61026b6106d6366004610f67565b60009081526007602052604090205490565b6102916106f6366004611014565b610d9c565b610291610709366004610fbe565b610e15565b61029161071c36600461117d565b610e72565b600c818154811061073157600080fd5b600091825260209091200154905081565b3360009081526003602052604090205460ff1661077a5760405162461bcd60e51b8152600401610771906111a9565b60405180910390fd5b60009182526007602052604090912055565b3360009081526003602052604090205460ff166107bb5760405162461bcd60e51b8152600401610771906111a9565b6000918252600b6020908152604083208054600181018255908452922090910180546001600160a01b0319166001600160a01b03909216919091179055565b610802610ebd565b6001600160a01b03166000908152600360205260409020805460ff19169055565b600b602052816000526040600020818154811061083f57600080fd5b6000918252602090912001546001600160a01b03169150829050565b6000600c8281548110610870576108706111d8565b90600052602060002001549050919050565b3360009081526003602052604090205460ff166108b15760405162461bcd60e51b8152600401610771906111a9565b6000818152600b602052604090208054806108ce576108ce6111ee565b600082815260209020810160001990810180546001600160a01b031916905501905550565b60006004826040516109059190611204565b9081526040519081900360200190205460ff1692915050565b6000610929600c5490565b821061096d5760405162461bcd60e51b8152602060048201526013602482015272496e646578206f7574206f6620626f756e647360681b6044820152606401610771565b600c8281548110610870576108706111d8565b3360009081526003602052604090205460ff166109af5760405162461bcd60e51b8152600401610771906111a9565b600090815260066020526040812055565b6109c8610ebd565b6109d26000610f17565b565b3360009081526003602052604090205460ff16610a035760405162461bcd60e51b8152600401610771906111a9565b80600c8381548110610a1757610a176111d8565b6000918252602090912001555050565b3360009081526003602052604090205460ff16610a565760405162461bcd60e51b8152600401610771906111a9565b6001600160a01b03909116600090815260086020908152604080832093835292905290812055565b610a86610ebd565b6001600160a01b03166000908152600360205260409020805460ff19166001179055565b3360009081526003602052604090205460ff16610ad95760405162461bcd60e51b8152600401610771906111a9565b6001600160a01b0390921660009081526008602090815260408083209483529390529190912055565b3360009081526003602052604090205460ff16610b315760405162461bcd60e51b8152600401610771906111a9565b600090815260076020526040812055565b6000818152600b6020908152604091829020805483518184028101840190945280845260609392830182828015610ba257602002820191906000526020600020905b81546001600160a01b03168152600190910190602001808311610b84575b50505050509050919050565b3360009081526003602052604090205460ff16610bdd5760405162461bcd60e51b8152600401610771906111a9565b6001600482604051610bef9190611204565b908152604051908190036020019020805491151560ff1990921691909117905550565b3360009081526003602052604090205460ff16610c415760405162461bcd60e51b8152600401610771906111a9565b600c80546001810182556000919091527fdf6966c971051c3d54ec59162606531493a51404a002842f56009d7e5cf4a8c70155565b3360009081526003602052604090205460ff16610ca55760405162461bcd60e51b8152600401610771906111a9565b60009182526006602052604090912055565b3360009081526003602052604090205460ff16610ce65760405162461bcd60e51b8152600401610771906111a9565b6040805180820182528381526001600160a01b0392831660209182018190526001858155600280546001600160a01b031990811690931781556000878152600590945293909220948555915493018054939092169216919091179055565b3360009081526003602052604090205460ff16610d735760405162461bcd60e51b8152600401610771906111a9565b600c805480610d8457610d846111ee565b60019003818190600052602060002001600090559055565b610da4610ebd565b6001600160a01b038116610e095760405162461bcd60e51b815260206004820152602660248201527f4f776e61626c653a206e6577206f776e657220697320746865207a65726f206160448201526564647265737360d01b6064820152608401610771565b610e1281610f17565b50565b3360009081526003602052604090205460ff16610e445760405162461bcd60e51b8152600401610771906111a9565b6000918252600a602052604090912080546001600160a01b0319166001600160a01b03909216919091179055565b3360009081526003602052604090205460ff16610ea15760405162461bcd60e51b8152600401610771906111a9565b6000928352600960209081526040808520938552929052912055565b6000546001600160a01b031633146109d25760405162461bcd60e51b815260206004820181905260248201527f4f776e61626c653a2063616c6c6572206973206e6f7420746865206f776e65726044820152606401610771565b600080546001600160a01b038381166001600160a01b0319831681178455604051919092169283917f8be0079c531659141344cd1fd0a4f28419497f9722a3daafe3b4186f6b6457e09190a35050565b600060208284031215610f7957600080fd5b5035919050565b60008060408385031215610f9357600080fd5b50508035926020909101359150565b80356001600160a01b0381168114610fb957600080fd5b919050565b60008060408385031215610fd157600080fd5b82359150610fe160208401610fa2565b90509250929050565b60008060408385031215610ffd57600080fd5b61100683610fa2565b946020939093013593505050565b60006020828403121561102657600080fd5b61102f82610fa2565b9392505050565b634e487b7160e01b600052604160045260246000fd5b60006020828403121561105e57600080fd5b813567ffffffffffffffff8082111561107657600080fd5b818401915084601f83011261108a57600080fd5b81358181111561109c5761109c611036565b604051601f8201601f19908116603f011681019083821181831017156110c4576110c4611036565b816040528281528760208487010111156110dd57600080fd5b826020860160208301376000928101602001929092525095945050505050565b60008060006060848603121561111257600080fd5b61111b84610fa2565b95602085013595506040909401359392505050565b6020808252825182820181905260009190848201906040850190845b818110156111715783516001600160a01b03168352928401929184019160010161114c565b50909695505050505050565b60008060006060848603121561119257600080fd5b505081359360208301359350604090920135919050565b60208082526015908201527410d85b1b195c881a5cc81b9bdd08185b1b1bddd959605a1b604082015260600190565b634e487b7160e01b600052603260045260246000fd5b634e487b7160e01b600052603160045260246000fd5b6000825160005b81811015611225576020818601810151858301520161120b565b50600092019182525091905056fea26469706673582212201d8327982c94e94391b4bca97f948615b1d247c86ab95145cd0ca4a7ba7e5d2464736f6c63430008110033",
  "immutableReferences": {},
  "source": "// SPDX-License-Identifier: MIT\npragma solidity ^0.8.7;\nimport \"@openzeppelin/contracts/access/Ownable.sol\";\n\ncontract CCNftStorage is Ownable {\n  struct NftItem {\n    uint256 tokenId;\n    address creator;\n  }\n\n  NftItem private _nftItem;\n\n  // Address => Boolean\n  mapping(address => bool) public allowedAddresses;\n\n  // TokenURI => Bool (Is used?)\n  mapping(string => bool) public _usedTokenURIs;\n  // NFT id => NftItem\n  mapping(uint256 => NftItem) public _idToNftItem;\n  // NFT id => Index\n  mapping(uint256 => uint256) public _idToNftIndex;\n  // NFT id => ERC20 share\n  mapping(uint256 => uint256) public _idToOwnedIndex;\n  // Account address => NFT Id => Index\n  mapping(address => mapping(uint256 => uint256)) public _ownedTokens;\n  // NFT id => Year => Extractions\n  mapping(uint256 => mapping(uint256 => uint256))\n    public _tokensExtractionsByYear;\n  // NFT id => Address[]\n  mapping(uint256 => address) public _idToNftCreator;\n  // Address => Booelan\n  mapping(uint256 => address[]) public addressesFromTokenId;\n\n  uint256[] public _allNfts;\n\n  /////////////////////\n  // MODIFIERS //\n  /////////////////////\n\n  modifier onlyAllowed() {\n    require(allowedAddresses[msg.sender], \"Caller is not allowed\");\n    _;\n  }\n\n  /////////////////////\n  // ALLOWED ADDRESSES MANAGEMENT //\n  /////////////////////\n\n  function addAllowedAddress(address _address) public onlyOwner {\n    allowedAddresses[_address] = true;\n  }\n\n  function removeAllowedAddress(address _address) public onlyOwner {\n    allowedAddresses[_address] = false;\n  }\n\n  function isAllowedAddress(address _address) public view returns (bool) {\n    return allowedAddresses[_address];\n  }\n\n  /////////////////////\n  // SETTERS //\n  /////////////////////\n\n  function pushAddressFromTokenId(\n    uint256 tokenId,\n    address creator\n  ) public onlyAllowed {\n    addressesFromTokenId[tokenId].push(creator);\n  }\n\n  function pushAllNfts(uint256 tokenId) public onlyAllowed {\n    _allNfts.push(tokenId);\n  }\n\n  function setAllNftsTokenIdByIndex(\n    uint256 index,\n    uint256 tokenId\n  ) public onlyAllowed {\n    _allNfts[index] = tokenId;\n  }\n\n  function setTokenExtractionsByYear(\n    uint256 tokenId,\n    uint256 year,\n    uint256 extractions\n  ) public onlyAllowed {\n    _tokensExtractionsByYear[tokenId][year] = extractions;\n  }\n\n  function setIdToNftIndex(uint256 tokenId, uint256 index) public onlyAllowed {\n    _idToNftIndex[tokenId] = index;\n  }\n\n  function setIdToNftItem(uint256 tokenId, address creator) public onlyAllowed {\n    _nftItem = NftItem(tokenId, creator);\n    _idToNftItem[tokenId] = _nftItem;\n  }\n\n  function setIdToNftCreator(\n    uint256 tokenId,\n    address creator\n  ) public onlyAllowed {\n    _idToNftCreator[tokenId] = creator;\n  }\n\n  function setUsedTokenURI(string memory tokenURI) public onlyAllowed {\n    _usedTokenURIs[tokenURI] = true;\n  }\n\n  function setOwnedTokens(\n    address owner,\n    uint256 tokenId,\n    uint256 index\n  ) public onlyAllowed {\n    _ownedTokens[owner][index] = tokenId;\n  }\n\n  function setIdToOwnedIndex(\n    uint256 tokenId,\n    uint256 index\n  ) public onlyAllowed {\n    _idToOwnedIndex[tokenId] = index;\n  }\n\n  /////////////////////\n  // GETTERS //\n  /////////////////////\n\n  function getAddressFromTokenId(\n    uint256 tokenId\n  ) public view returns (address[] memory) {\n    return addressesFromTokenId[tokenId];\n  }\n\n  function getTokenIdOfOwnerByIndex(\n    address owner,\n    uint index\n  ) external view returns (uint) {\n    return _ownedTokens[owner][index];\n  }\n\n  function getTotalSupply() public view returns (uint256) {\n    return _allNfts.length;\n  }\n\n  function getTokenByIndex(uint index) external view returns (uint) {\n    require(index < getTotalSupply(), \"Index out of bounds\");\n    return _allNfts[index];\n  }\n\n  function getNftIndex(uint256 tokenId) external view returns (uint256) {\n    return _idToNftIndex[tokenId];\n  }\n\n  function getTokenIdByIndex(uint256 index) external view returns (uint256) {\n    return _allNfts[index];\n  }\n\n  function getIdToOwnedIndex(uint256 tokenId) external view returns (uint256) {\n    return _idToOwnedIndex[tokenId];\n  }\n\n  function getIdToNftItem(\n    uint256 tokenId\n  ) external view returns (NftItem memory) {\n    return _idToNftItem[tokenId];\n  }\n\n  function getNftCreator(uint256 tokenId) external view returns (address) {\n    return _idToNftCreator[tokenId];\n  }\n\n  function getTokeURIUsed(string memory tokenURI) external view returns (bool) {\n    return _usedTokenURIs[tokenURI];\n  }\n\n  /////////////////////\n  // DELETE //\n  /////////////////////\n\n  function deleteIdToOwnedIndex(uint256 tokenId) public onlyAllowed {\n    delete _idToOwnedIndex[tokenId];\n  }\n\n  function deleteIdToNftIndex(uint256 tokenId) public onlyAllowed {\n    delete _idToNftIndex[tokenId];\n  }\n\n  function deleteOwnedTokens(\n    address owner,\n    uint256 tokenId\n  ) public onlyAllowed {\n    delete _ownedTokens[owner][tokenId];\n  }\n\n  function popAllNfts() public onlyAllowed {\n    _allNfts.pop();\n  }\n\n  function popAddressFromTokenId(uint256 tokenId) public onlyAllowed {\n    addressesFromTokenId[tokenId].pop();\n  }\n}\n",
  "sourcePath": "/Users/alberto/Desktop/Enalbis/caskchain-mono/apps/contracts/contracts/CCNft/CCNftStorage.sol",
  "compiler": {
    "name": "solc",
    "version": "0.8.17+commit.8df45f5f.Emscripten.clang"
  },
  "schemaVersion": "3.4.11",
  "updatedAt": "2023-05-01T20:11:01.627Z",
  "networkType": "ethereum",
  "devdoc": {
    "kind": "dev",
    "methods": {
      "owner()": {
        "details": "Returns the address of the current owner."
      },
      "renounceOwnership()": {
        "details": "Leaves the contract without owner. It will not be possible to call `onlyOwner` functions anymore. Can only be called by the current owner. NOTE: Renouncing ownership will leave the contract without an owner, thereby removing any functionality that is only available to the owner."
      },
      "transferOwnership(address)": {
        "details": "Transfers ownership of the contract to a new account (`newOwner`). Can only be called by the current owner."
      }
    },
    "version": 1
  },
  "userdoc": {
    "kind": "user",
    "methods": {},
    "version": 1
  }
}