{
  "contractName": "InitializedProxy",
  "abi": [
    {
      "inputs": [
        {
          "internalType": "address",
          "name": "_logic",
          "type": "address"
        },
        {
          "internalType": "bytes",
          "name": "_initializationCalldata",
          "type": "bytes"
        }
      ],
      "stateMutability": "nonpayable",
      "type": "constructor"
    },
    {
      "stateMutability": "payable",
      "type": "fallback"
    },
    {
      "inputs": [],
      "name": "logic",
      "outputs": [
        {
          "internalType": "address",
          "name": "",
          "type": "address"
        }
      ],
      "stateMutability": "view",
      "type": "function"
    },
    {
      "stateMutability": "payable",
      "type": "receive"
    }
  ],
  "bytecode": "0x60a060405234801561001057600080fd5b5060405161032d38038061032d83398101604081905261002f91610103565b6001600160a01b038216608081905260405160009182916100519085906101d1565b600060405180830381855af49150503d806000811461008c576040519150601f19603f3d011682016040523d82523d6000602084013e610091565b606091505b50915091508181906100bf5760405162461bcd60e51b81526004016100b691906101ed565b60405180910390fd5b5050505050610220565b634e487b7160e01b600052604160045260246000fd5b60005b838110156100fa5781810151838201526020016100e2565b50506000910152565b6000806040838503121561011657600080fd5b82516001600160a01b038116811461012d57600080fd5b60208401519092506001600160401b038082111561014a57600080fd5b818501915085601f83011261015e57600080fd5b815181811115610170576101706100c9565b604051601f8201601f19908116603f01168101908382118183101715610198576101986100c9565b816040528281528860208487010111156101b157600080fd5b6101c28360208301602088016100df565b80955050505050509250929050565b600082516101e38184602087016100df565b9190910192915050565b602081526000825180602084015261020c8160408501602087016100df565b601f01601f19169190910160400192915050565b60805160ef61023e60003960008181602a0152607b015260ef6000f3fe608060405260043610601f5760003560e01c8063d7dfa0dd14606b576025565b36602557005b6040517f00000000000000000000000000000000000000000000000000000000000000009036600082376000803683855af43d806000843e8180156067578184f35b8184fd5b348015607657600080fd5b50609d7f000000000000000000000000000000000000000000000000000000000000000081565b6040516001600160a01b03909116815260200160405180910390f3fea2646970667358221220721dba0b0f13e8126efca7f6b0e47ff18e162e7d4d64834a4dca4729eee7d6d464736f6c63430008110033",
  "immutableReferences": {
    "10802": [
      {
        "length": 32,
        "start": 42
      },
      {
        "length": 32,
        "start": 123
      }
    ]
  },
  "source": "// SPDX-License-Identifier: MIT\npragma solidity ^0.8.0;\n\n/**\n * @title InitializedProxy\n * @author Anna Carroll\n */\ncontract InitializedProxy {\n  // address of logic contract\n  address public immutable logic;\n\n  // ======== Constructor =========\n\n  constructor(address _logic, bytes memory _initializationCalldata) {\n    logic = _logic;\n    // Delegatecall into the logic contract, supplying initialization calldata\n    (bool _ok, bytes memory returnData) = _logic.delegatecall(\n      _initializationCalldata\n    );\n    // Revert if delegatecall to implementation reverts\n    require(_ok, string(returnData));\n  }\n\n  // ======== Fallback =========\n\n  fallback() external payable {\n    address _impl = logic;\n    assembly {\n      let ptr := mload(0x40)\n      calldatacopy(ptr, 0, calldatasize())\n      let result := delegatecall(gas(), _impl, ptr, calldatasize(), 0, 0)\n      let size := returndatasize()\n      returndatacopy(ptr, 0, size)\n\n      switch result\n      case 0 {\n        revert(ptr, size)\n      }\n      default {\n        return(ptr, size)\n      }\n    }\n  }\n\n  // ======== Receive =========\n\n  receive() external payable {} // solhint-disable-line no-empty-blocks\n}\n",
  "sourcePath": "/Users/alberto/Desktop/Enalbis/caskchain-mono/apps/contracts/contracts/InitializedProxy.sol",
  "compiler": {
    "name": "solc",
    "version": "0.8.17+commit.8df45f5f.Emscripten.clang"
  },
  "schemaVersion": "3.4.11",
  "updatedAt": "2023-07-07T08:13:54.833Z",
  "devdoc": {
    "author": "Anna Carroll",
    "kind": "dev",
    "methods": {},
    "title": "InitializedProxy",
    "version": 1
  },
  "userdoc": {
    "kind": "user",
    "methods": {},
    "version": 1
  }
}