{
  "contractName": "NftFractionsStorage",
  "abi": [
    {
      "inputs": [
        {
          "internalType": "address",
          "name": "",
          "type": "address"
        }
      ],
      "name": "activeAddressVendor",
      "outputs": [
        {
          "internalType": "bool",
          "name": "",
          "type": "bool"
        }
      ],
      "stateMutability": "view",
      "type": "function"
    },
    {
      "inputs": [
        {
          "internalType": "address",
          "name": "",
          "type": "address"
        },
        {
          "internalType": "uint256",
          "name": "",
          "type": "uint256"
        }
      ],
      "name": "nftToVault",
      "outputs": [
        {
          "internalType": "bool",
          "name": "",
          "type": "bool"
        }
      ],
      "stateMutability": "view",
      "type": "function"
    },
    {
      "inputs": [
        {
          "internalType": "uint256",
          "name": "",
          "type": "uint256"
        }
      ],
      "name": "tokenAddressCreated",
      "outputs": [
        {
          "internalType": "address",
          "name": "",
          "type": "address"
        }
      ],
      "stateMutability": "view",
      "type": "function"
    },
    {
      "inputs": [
        {
          "internalType": "address",
          "name": "",
          "type": "address"
        }
      ],
      "name": "tokens",
      "outputs": [
        {
          "internalType": "address",
          "name": "tokenAddress",
          "type": "address"
        },
        {
          "internalType": "uint256",
          "name": "totalSupply",
          "type": "uint256"
        },
        {
          "internalType": "uint256",
          "name": "listingPrice",
          "type": "uint256"
        },
        {
          "internalType": "bool",
          "name": "enableSell",
          "type": "bool"
        }
      ],
      "stateMutability": "view",
      "type": "function"
    },
    {
      "inputs": [],
      "name": "vaultCount",
      "outputs": [
        {
          "internalType": "uint256",
          "name": "",
          "type": "uint256"
        }
      ],
      "stateMutability": "view",
      "type": "function"
    },
    {
      "inputs": [
        {
          "internalType": "uint256",
          "name": "",
          "type": "uint256"
        }
      ],
      "name": "vaults",
      "outputs": [
        {
          "internalType": "address",
          "name": "vaultAddress",
          "type": "address"
        },
        {
          "internalType": "uint256",
          "name": "count",
          "type": "uint256"
        }
      ],
      "stateMutability": "view",
      "type": "function"
    }
  ],
  "bytecode": "0x608060405234801561001057600080fd5b506102b0806100206000396000f3fe608060405234801561001057600080fd5b50600436106100625760003560e01c80638c64ea4a14610067578063a2f016a8146100be578063a7c6a100146100f1578063b8e6e1a414610108578063e486033914610133578063ee35db5f146101a1575b600080fd5b61009a6100753660046101f9565b600460205260009081526040902080546001909101546001600160a01b039091169082565b604080516001600160a01b0390931683526020830191909152015b60405180910390f35b6100e16100cc36600461022e565b60016020526000908152604090205460ff1681565b60405190151581526020016100b5565b6100fa60025481565b6040519081526020016100b5565b61011b6101163660046101f9565b6101cf565b6040516001600160a01b0390911681526020016100b5565b61017561014136600461022e565b60006020819052908152604090208054600182015460028301546003909301546001600160a01b0390921692909160ff1684565b604080516001600160a01b039095168552602085019390935291830152151560608201526080016100b5565b6100e16101af366004610250565b600560209081526000928352604080842090915290825290205460ff1681565b600381815481106101df57600080fd5b6000918252602090912001546001600160a01b0316905081565b60006020828403121561020b57600080fd5b5035919050565b80356001600160a01b038116811461022957600080fd5b919050565b60006020828403121561024057600080fd5b61024982610212565b9392505050565b6000806040838503121561026357600080fd5b61026c83610212565b94602093909301359350505056fea264697066735822122038d847b39077d6af1eb35951a542f9cf78f9cd3dfdc7d9872d35e23929e93dcc64736f6c63430008110033",
  "immutableReferences": {},
  "source": "pragma solidity ^0.8.7;\n\ncontract NftFractionsStorage {\n  struct Vault {\n    address vaultAddress;\n    uint256 count;\n  }\n\n  struct TokenPaymentInfo {\n    address tokenAddress;\n    uint totalSupply;\n    uint listingPrice;\n    bool enableSell;\n  }\n\n  mapping(address => TokenPaymentInfo) public tokens;\n  mapping(address => bool) public activeAddressVendor;\n\n  /// @notice the number of ERC721 vaults\n  uint256 public vaultCount;\n  address[] public tokenAddressCreated;\n\n  /// @notice the mapping of vault number to vault contract\n  mapping(uint256 => Vault) public vaults;\n\n  mapping(address => mapping(uint256 => bool)) public nftToVault;\n}\n",
  "sourcePath": "/Users/alberto/Desktop/Enalbis/caskchain-mono/apps/contracts/contracts/NftFractions/NftFractionsStorage.sol",
  "compiler": {
    "name": "solc",
    "version": "0.8.17+commit.8df45f5f.Emscripten.clang"
  },
  "schemaVersion": "3.4.11",
  "updatedAt": "2023-05-25T14:12:00.014Z",
  "devdoc": {
    "kind": "dev",
    "methods": {},
    "version": 1
  },
  "userdoc": {
    "kind": "user",
    "methods": {
      "vaultCount()": {
        "notice": "the number of ERC721 vaults"
      },
      "vaults(uint256)": {
        "notice": "the mapping of vault number to vault contract"
      }
    },
    "version": 1
  }
}