{
  "contractName": "NftFractionsVendorStorage",
  "abi": [
    {
      "anonymous": false,
      "inputs": [
        {
          "indexed": true,
          "internalType": "address",
          "name": "previousOwner",
          "type": "address"
        },
        {
          "indexed": true,
          "internalType": "address",
          "name": "newOwner",
          "type": "address"
        }
      ],
      "name": "OwnershipTransferred",
      "type": "event"
    },
    {
      "inputs": [
        {
          "internalType": "address",
          "name": "",
          "type": "address"
        }
      ],
      "name": "activeAddressVendor",
      "outputs": [
        {
          "internalType": "bool",
          "name": "",
          "type": "bool"
        }
      ],
      "stateMutability": "view",
      "type": "function",
      "constant": true
    },
    {
      "inputs": [
        {
          "internalType": "address",
          "name": "",
          "type": "address"
        }
      ],
      "name": "allowedAddresses",
      "outputs": [
        {
          "internalType": "bool",
          "name": "",
          "type": "bool"
        }
      ],
      "stateMutability": "view",
      "type": "function",
      "constant": true
    },
    {
      "inputs": [],
      "name": "owner",
      "outputs": [
        {
          "internalType": "address",
          "name": "",
          "type": "address"
        }
      ],
      "stateMutability": "view",
      "type": "function",
      "constant": true
    },
    {
      "inputs": [],
      "name": "renounceOwnership",
      "outputs": [],
      "stateMutability": "nonpayable",
      "type": "function"
    },
    {
      "inputs": [
        {
          "internalType": "address",
          "name": "",
          "type": "address"
        }
      ],
      "name": "tokens",
      "outputs": [
        {
          "internalType": "address",
          "name": "tokenAddress",
          "type": "address"
        },
        {
          "internalType": "uint256",
          "name": "totalSupply",
          "type": "uint256"
        },
        {
          "internalType": "uint256",
          "name": "listingPrice",
          "type": "uint256"
        },
        {
          "internalType": "bool",
          "name": "enableSell",
          "type": "bool"
        }
      ],
      "stateMutability": "view",
      "type": "function",
      "constant": true
    },
    {
      "inputs": [
        {
          "internalType": "address",
          "name": "newOwner",
          "type": "address"
        }
      ],
      "name": "transferOwnership",
      "outputs": [],
      "stateMutability": "nonpayable",
      "type": "function"
    },
    {
      "inputs": [
        {
          "internalType": "address",
          "name": "_address",
          "type": "address"
        }
      ],
      "name": "addAllowedAddress",
      "outputs": [],
      "stateMutability": "nonpayable",
      "type": "function"
    },
    {
      "inputs": [
        {
          "internalType": "address",
          "name": "_address",
          "type": "address"
        }
      ],
      "name": "removeAllowedAddress",
      "outputs": [],
      "stateMutability": "nonpayable",
      "type": "function"
    },
    {
      "inputs": [
        {
          "internalType": "address",
          "name": "_address",
          "type": "address"
        }
      ],
      "name": "isAllowedAddress",
      "outputs": [
        {
          "internalType": "bool",
          "name": "",
          "type": "bool"
        }
      ],
      "stateMutability": "view",
      "type": "function",
      "constant": true
    },
    {
      "inputs": [
        {
          "internalType": "address",
          "name": "tokenAddress",
          "type": "address"
        }
      ],
      "name": "getTokenPaymentInfo",
      "outputs": [
        {
          "components": [
            {
              "internalType": "address",
              "name": "tokenAddress",
              "type": "address"
            },
            {
              "internalType": "uint256",
              "name": "totalSupply",
              "type": "uint256"
            },
            {
              "internalType": "uint256",
              "name": "listingPrice",
              "type": "uint256"
            },
            {
              "internalType": "bool",
              "name": "enableSell",
              "type": "bool"
            }
          ],
          "internalType": "struct NftFractionsVendorStorage.TokenPaymentInfo",
          "name": "",
          "type": "tuple"
        }
      ],
      "stateMutability": "view",
      "type": "function",
      "constant": true
    },
    {
      "inputs": [
        {
          "internalType": "address",
          "name": "tokenAddress",
          "type": "address"
        },
        {
          "internalType": "bool",
          "name": "state",
          "type": "bool"
        }
      ],
      "name": "updateTokenVendorSellState",
      "outputs": [],
      "stateMutability": "nonpayable",
      "type": "function"
    },
    {
      "inputs": [
        {
          "internalType": "address",
          "name": "tokenAddress",
          "type": "address"
        },
        {
          "internalType": "bool",
          "name": "state",
          "type": "bool"
        }
      ],
      "name": "updateStateAddressVendor",
      "outputs": [],
      "stateMutability": "nonpayable",
      "type": "function"
    },
    {
      "inputs": [
        {
          "internalType": "address",
          "name": "_token",
          "type": "address"
        },
        {
          "internalType": "uint256",
          "name": "_totalSupply",
          "type": "uint256"
        },
        {
          "internalType": "uint256",
          "name": "_listingPrice",
          "type": "uint256"
        },
        {
          "internalType": "bool",
          "name": "_enableSell",
          "type": "bool"
        }
      ],
      "name": "setToken",
      "outputs": [],
      "stateMutability": "nonpayable",
      "type": "function"
    }
  ],
  "bytecode": "0x608060405234801561001057600080fd5b5061001a3361001f565b61006f565b600080546001600160a01b038381166001600160a01b0319831681178455604051919092169283917f8be0079c531659141344cd1fd0a4f28419497f9722a3daafe3b4186f6b6457e09190a35050565b6107428061007e6000396000f3fe608060405234801561001057600080fd5b50600436106100cf5760003560e01c80638345245e1161008c578063a2f016a811610066578063a2f016a814610267578063e48603391461028a578063e8d59fa8146102fa578063f2fde38b1461030d57600080fd5b80638345245e146101625780638da5cb5b1461018e57806390bdc8f6146101a957600080fd5b8063082eb138146100d45780633c9d93b8146100e95780634120657a146100fc578063715018a61461013457806377f510ad1461013c57806381788e2b1461014f575b600080fd5b6100e76100e2366004610642565b610320565b005b6100e76100f7366004610688565b6103d0565b61011f61010a366004610688565b60016020526000908152604090205460ff1681565b60405190151581526020015b60405180910390f35b6100e76103f9565b6100e761014a3660046106aa565b61040d565b6100e761015d366004610688565b61046a565b61011f610170366004610688565b6001600160a01b031660009081526001602052604090205460ff1690565b6000546040516001600160a01b03909116815260200161012b565b6102296101b7366004610688565b60408051608080820183526000808352602080840182905283850182905260609384018290526001600160a01b03958616825260028082529185902085519384018652805490961683526001860154908301528401549281019290925260039092015460ff1615159181019190915290565b60405161012b919081516001600160a01b03168152602080830151908201526040808301519082015260609182015115159181019190915260800190565b61011f610275366004610688565b60036020526000908152604090205460ff1681565b6102ce610298366004610688565b600260208190526000918252604090912080546001820154928201546003909201546001600160a01b0390911692919060ff1684565b604080516001600160a01b0390951685526020850193909352918301521515606082015260800161012b565b6100e76103083660046106aa565b610499565b6100e761031b366004610688565b6104f3565b3360009081526001602052604090205460ff166103585760405162461bcd60e51b815260040161034f906106dd565b60405180910390fd5b604080516080810182526001600160a01b039586168082526020808301968752828401958652931515606083019081526000918252600294859052929020905181546001600160a01b031916961695909517855592516001850155905190830155516003909101805460ff1916911515919091179055565b6103d861056c565b6001600160a01b03166000908152600160205260409020805460ff19169055565b61040161056c565b61040b60006105c6565b565b3360009081526001602052604090205460ff1661043c5760405162461bcd60e51b815260040161034f906106dd565b6001600160a01b03919091166000908152600260205260409020600301805460ff1916911515919091179055565b61047261056c565b6001600160a01b03166000908152600160208190526040909120805460ff19169091179055565b3360009081526001602052604090205460ff166104c85760405162461bcd60e51b815260040161034f906106dd565b6001600160a01b03919091166000908152600360205260409020805460ff1916911515919091179055565b6104fb61056c565b6001600160a01b0381166105605760405162461bcd60e51b815260206004820152602660248201527f4f776e61626c653a206e6577206f776e657220697320746865207a65726f206160448201526564647265737360d01b606482015260840161034f565b610569816105c6565b50565b6000546001600160a01b0316331461040b5760405162461bcd60e51b815260206004820181905260248201527f4f776e61626c653a2063616c6c6572206973206e6f7420746865206f776e6572604482015260640161034f565b600080546001600160a01b038381166001600160a01b0319831681178455604051919092169283917f8be0079c531659141344cd1fd0a4f28419497f9722a3daafe3b4186f6b6457e09190a35050565b80356001600160a01b038116811461062d57600080fd5b919050565b8035801515811461062d57600080fd5b6000806000806080858703121561065857600080fd5b61066185610616565b9350602085013592506040850135915061067d60608601610632565b905092959194509250565b60006020828403121561069a57600080fd5b6106a382610616565b9392505050565b600080604083850312156106bd57600080fd5b6106c683610616565b91506106d460208401610632565b90509250929050565b60208082526015908201527410d85b1b195c881a5cc81b9bdd08185b1b1bddd959605a1b60408201526060019056fea264697066735822122005a502f7341825bb9f20d080ad40203a3a8a911c778cdf8861e2986adb09a61864736f6c63430008110033",
  "immutableReferences": {},
  "source": "//SPDX-License-Identifier: MIT\npragma solidity ^0.8.7;\nimport \"@openzeppelin/contracts/access/Ownable.sol\";\n\ncontract NftFractionsVendorStorage is Ownable {\n  struct TokenPaymentInfo {\n    address tokenAddress;\n    uint totalSupply;\n    uint listingPrice;\n    bool enableSell;\n  }\n\n  // Address => Boolean\n  mapping(address => bool) public allowedAddresses;\n\n  mapping(address => TokenPaymentInfo) public tokens;\n  mapping(address => bool) public activeAddressVendor;\n\n  modifier onlyAllowed() {\n    require(allowedAddresses[msg.sender], \"Caller is not allowed\");\n    _;\n  }\n\n  /////////////////////\n  // ALLOWED ADDRESSES MANAGEMENT //\n  /////////////////////\n\n  function addAllowedAddress(address _address) public onlyOwner {\n    allowedAddresses[_address] = true;\n  }\n\n  function removeAllowedAddress(address _address) public onlyOwner {\n    allowedAddresses[_address] = false;\n  }\n\n  function isAllowedAddress(address _address) public view returns (bool) {\n    return allowedAddresses[_address];\n  }\n\n  /////////////////////\n  // GETTER //\n  /////////////////////\n\n  function getTokenPaymentInfo(\n    address tokenAddress\n  ) public view returns (TokenPaymentInfo memory) {\n    return tokens[tokenAddress];\n  }\n\n  /////////////////////\n  // SETTER //\n  /////////////////////\n\n  function updateTokenVendorSellState(\n    address tokenAddress,\n    bool state\n  ) public onlyAllowed {\n    tokens[tokenAddress].enableSell = state;\n  }\n\n  function updateStateAddressVendor(\n    address tokenAddress,\n    bool state\n  ) public onlyAllowed {\n    activeAddressVendor[tokenAddress] = state;\n  }\n\n  function setToken(\n    address _token,\n    uint _totalSupply,\n    uint _listingPrice,\n    bool _enableSell\n  ) public onlyAllowed {\n    tokens[_token] = TokenPaymentInfo(\n      _token,\n      _totalSupply,\n      _listingPrice,\n      _enableSell\n    );\n  }\n}\n",
  "sourcePath": "/Users/alberto/Desktop/Enalbis/caskchain-mono/apps/contracts/contracts/NftFractions/NftFractionsVendorStorage.sol",
  "compiler": {
    "name": "solc",
    "version": "0.8.17+commit.8df45f5f.Emscripten.clang"
  },
  "schemaVersion": "3.4.11",
  "updatedAt": "2023-07-06T13:56:18.654Z",
  "networkType": "ethereum",
  "devdoc": {
    "kind": "dev",
    "methods": {
      "owner()": {
        "details": "Returns the address of the current owner."
      },
      "renounceOwnership()": {
        "details": "Leaves the contract without owner. It will not be possible to call `onlyOwner` functions anymore. Can only be called by the current owner. NOTE: Renouncing ownership will leave the contract without an owner, thereby removing any functionality that is only available to the owner."
      },
      "transferOwnership(address)": {
        "details": "Transfers ownership of the contract to a new account (`newOwner`). Can only be called by the current owner."
      }
    },
    "version": 1
  },
  "userdoc": {
    "kind": "user",
    "methods": {},
    "version": 1
  }
}