{
  "contractName": "NftFractionsFactory",
  "abi": [
    {
      "inputs": [],
      "stateMutability": "nonpayable",
      "type": "constructor"
    },
    {
      "anonymous": false,
      "inputs": [
        {
          "indexed": true,
          "internalType": "address",
          "name": "token",
          "type": "address"
        },
        {
          "indexed": false,
          "internalType": "uint256",
          "name": "id",
          "type": "uint256"
        },
        {
          "indexed": false,
          "internalType": "uint256",
          "name": "price",
          "type": "uint256"
        },
        {
          "indexed": false,
          "internalType": "address",
          "name": "vault",
          "type": "address"
        },
        {
          "indexed": false,
          "internalType": "uint256",
          "name": "vaultId",
          "type": "uint256"
        }
      ],
      "name": "Mint",
      "type": "event"
    },
    {
      "anonymous": false,
      "inputs": [
        {
          "indexed": true,
          "internalType": "address",
          "name": "previousOwner",
          "type": "address"
        },
        {
          "indexed": true,
          "internalType": "address",
          "name": "newOwner",
          "type": "address"
        }
      ],
      "name": "OwnershipTransferred",
      "type": "event"
    },
    {
      "anonymous": false,
      "inputs": [
        {
          "indexed": false,
          "internalType": "address",
          "name": "account",
          "type": "address"
        }
      ],
      "name": "Paused",
      "type": "event"
    },
    {
      "anonymous": false,
      "inputs": [
        {
          "indexed": false,
          "internalType": "address",
          "name": "account",
          "type": "address"
        }
      ],
      "name": "Unpaused",
      "type": "event"
    },
    {
      "stateMutability": "nonpayable",
      "type": "fallback"
    },
    {
      "inputs": [],
      "name": "logic",
      "outputs": [
        {
          "internalType": "address",
          "name": "",
          "type": "address"
        }
      ],
      "stateMutability": "view",
      "type": "function",
      "constant": true
    },
    {
      "inputs": [
        {
          "internalType": "address",
          "name": "",
          "type": "address"
        },
        {
          "internalType": "uint256",
          "name": "",
          "type": "uint256"
        }
      ],
      "name": "nftToVault",
      "outputs": [
        {
          "internalType": "bool",
          "name": "",
          "type": "bool"
        }
      ],
      "stateMutability": "view",
      "type": "function",
      "constant": true
    },
    {
      "inputs": [],
      "name": "owner",
      "outputs": [
        {
          "internalType": "address",
          "name": "",
          "type": "address"
        }
      ],
      "stateMutability": "view",
      "type": "function",
      "constant": true
    },
    {
      "inputs": [],
      "name": "paused",
      "outputs": [
        {
          "internalType": "bool",
          "name": "",
          "type": "bool"
        }
      ],
      "stateMutability": "view",
      "type": "function",
      "constant": true
    },
    {
      "inputs": [],
      "name": "renounceOwnership",
      "outputs": [],
      "stateMutability": "nonpayable",
      "type": "function"
    },
    {
      "inputs": [
        {
          "internalType": "uint256",
          "name": "",
          "type": "uint256"
        }
      ],
      "name": "tokenAddressCreated",
      "outputs": [
        {
          "internalType": "address",
          "name": "",
          "type": "address"
        }
      ],
      "stateMutability": "view",
      "type": "function",
      "constant": true
    },
    {
      "inputs": [
        {
          "internalType": "address",
          "name": "newOwner",
          "type": "address"
        }
      ],
      "name": "transferOwnership",
      "outputs": [],
      "stateMutability": "nonpayable",
      "type": "function"
    },
    {
      "inputs": [],
      "name": "vaultCount",
      "outputs": [
        {
          "internalType": "uint256",
          "name": "",
          "type": "uint256"
        }
      ],
      "stateMutability": "view",
      "type": "function",
      "constant": true
    },
    {
      "inputs": [
        {
          "internalType": "uint256",
          "name": "",
          "type": "uint256"
        }
      ],
      "name": "vaults",
      "outputs": [
        {
          "internalType": "address",
          "name": "vaultAddress",
          "type": "address"
        },
        {
          "internalType": "uint256",
          "name": "count",
          "type": "uint256"
        }
      ],
      "stateMutability": "view",
      "type": "function",
      "constant": true
    },
    {
      "inputs": [
        {
          "internalType": "string",
          "name": "_name",
          "type": "string"
        },
        {
          "internalType": "string",
          "name": "_symbol",
          "type": "string"
        },
        {
          "internalType": "address",
          "name": "_token",
          "type": "address"
        },
        {
          "internalType": "uint256",
          "name": "_id",
          "type": "uint256"
        },
        {
          "internalType": "uint256",
          "name": "_supply",
          "type": "uint256"
        },
        {
          "internalType": "uint256",
          "name": "_fee",
          "type": "uint256"
        },
        {
          "internalType": "uint256",
          "name": "_listPrice",
          "type": "uint256"
        }
      ],
      "name": "mint",
      "outputs": [
        {
          "internalType": "uint256",
          "name": "",
          "type": "uint256"
        }
      ],
      "stateMutability": "nonpayable",
      "type": "function"
    },
    {
      "inputs": [
        {
          "internalType": "address",
          "name": "_token",
          "type": "address"
        },
        {
          "internalType": "uint256",
          "name": "nftId",
          "type": "uint256"
        }
      ],
      "name": "vaultExists",
      "outputs": [
        {
          "internalType": "bool",
          "name": "",
          "type": "bool"
        }
      ],
      "stateMutability": "view",
      "type": "function",
      "constant": true
    },
    {
      "inputs": [
        {
          "internalType": "uint256",
          "name": "_tokenId",
          "type": "uint256"
        }
      ],
      "name": "getVaultContractByTokenId",
      "outputs": [
        {
          "components": [
            {
              "internalType": "address",
              "name": "vaultAddress",
              "type": "address"
            },
            {
              "internalType": "uint256",
              "name": "count",
              "type": "uint256"
            }
          ],
          "internalType": "struct NftFractionsFactory.Vault",
          "name": "",
          "type": "tuple"
        }
      ],
      "stateMutability": "view",
      "type": "function",
      "constant": true
    },
    {
      "inputs": [],
      "name": "getAllCreatedVaults",
      "outputs": [
        {
          "internalType": "address[]",
          "name": "",
          "type": "address[]"
        }
      ],
      "stateMutability": "view",
      "type": "function",
      "constant": true
    },
    {
      "inputs": [
        {
          "internalType": "uint256",
          "name": "_id",
          "type": "uint256"
        }
      ],
      "name": "getVaultContract",
      "outputs": [
        {
          "components": [
            {
              "internalType": "address",
              "name": "vaultAddress",
              "type": "address"
            },
            {
              "internalType": "uint256",
              "name": "count",
              "type": "uint256"
            }
          ],
          "internalType": "struct NftFractionsFactory.Vault",
          "name": "",
          "type": "tuple"
        }
      ],
      "stateMutability": "view",
      "type": "function",
      "constant": true
    },
    {
      "inputs": [],
      "name": "pause",
      "outputs": [],
      "stateMutability": "nonpayable",
      "type": "function"
    },
    {
      "inputs": [],
      "name": "unpause",
      "outputs": [],
      "stateMutability": "nonpayable",
      "type": "function"
    }
  ],
  "bytecode": "0x60a060405234801561001057600080fd5b5061001a33610061565b6000805460ff60a01b19169055604051610033906100b1565b604051809103906000f08015801561004f573d6000803e3d6000fd5b506001600160a01b03166080526100be565b600080546001600160a01b038381166001600160a01b0319831681178455604051919092169283917f8be0079c531659141344cd1fd0a4f28419497f9722a3daafe3b4186f6b6457e09190a35050565b6118ee806114ef83390190565b60805161140f6100e0600039600081816102f101526107aa015261140f6000f3fe60806040523480156200001157600080fd5b5060043610620001185760003560e01c8063b6bc53e311620000a5578063d7dfa0dd116200006f578063d7dfa0dd14620002eb578063e85e89261462000313578063ee35db5f146200036b578063f2fde38b146200039c5762000118565b8063b6bc53e31462000268578063b8e6e1a41462000281578063bdc011101462000298578063cd29b6f214620002af5762000118565b80638c64ea4a11620000e75780638c64ea4a14620001bc5780638da5cb5b1462000212578063932376fe1462000238578063a7c6a100146200024f5762000118565b80633f4ba83a14620001795780635c975abb1462000185578063715018a614620001a85780638456cb5914620001b2575b60405162461bcd60e51b815260206004820152602b60248201527f5468697320636f6e747261637420646f6573206e6f742061636365707420455460448201526a48206f7220746f6b656e7360a81b60648201526084015b60405180910390fd5b62000183620003b3565b005b600054600160a01b900460ff165b60405190151581526020015b60405180910390f35b6200018362000407565b620001836200041f565b620001f2620001cd36600462000d3f565b600360205260009081526040902080546001909101546001600160a01b039091169082565b604080516001600160a01b0390931683526020830191909152016200019f565b6000546001600160a01b03165b6040516001600160a01b0390911681526020016200019f565b620001936200024936600462000d6f565b6200046e565b6200025960015481565b6040519081526020016200019f565b620002726200049c565b6040516200019f919062000d9e565b6200021f6200029236600462000d3f565b62000500565b62000259620002a936600462000e98565b6200052b565b620002c6620002c036600462000d3f565b6200098d565b6040805182516001600160a01b0316815260209283015192810192909252016200019f565b6200021f7f000000000000000000000000000000000000000000000000000000000000000081565b620002c66200032436600462000d3f565b604080518082019091526000808252602082015250600090815260036020908152604091829020825180840190935280546001600160a01b03168352600101549082015290565b620001936200037c36600462000d6f565b600460209081526000928352604080842090915290825290205460ff1681565b62000183620003ad36600462000f3c565b62000a44565b620003bd62000ac3565b620003c762000b1f565b620003d162000b71565b6040513381527f5db9ee0a495bf2e6ff9c91a7834c1ba4fdd244a5e8aa4e537bd38aeae4b073aa906020015b60405180910390a1565b6200041162000ac3565b6200041d600062000bc4565b565b6200042962000ac3565b6200043362000c14565b6200043d62000c63565b6040513381527f62e78cea01bee320cd4e420270b5ea74000d11b0c9f74754ebdbfc544b05a25890602001620003fd565b6001600160a01b038216600090815260046020908152604080832084845290915290205460ff165b92915050565b60606002805480602002602001604051908101604052809291908181526020018280548015620004f657602002820191906000526020600020905b81546001600160a01b03168152600190910190602001808311620004d7575b5050505050905090565b600281815481106200051157600080fd5b6000918252602090912001546001600160a01b0316905081565b60006200053762000c14565b6001600160a01b038616600090815260046020908152604080832088845290915290205460ff1615620005ad5760405162461bcd60e51b815260206004820152601d60248201527f4e465420616c7265616479206c6f636b656420696e2061207661756c74000000604482015260640162000170565b60405163020604bf60e21b81526004810186905230906001600160a01b0388169063081812fc90602401602060405180830381865afa158015620005f5573d6000803e3d6000fd5b505050506040513d601f19601f820116820180604052508101906200061b919062000f63565b6001600160a01b03161480620006a557506040516331a9108f60e11b81526004810186905233906001600160a01b03881690636352211e90602401602060405180830381865afa15801562000674573d6000803e3d6000fd5b505050506040513d601f19601f820116820180604052508101906200069a919062000f63565b6001600160a01b0316145b620007055760405162461bcd60e51b815260206004820152602960248201527f43616c6c6572206d75737420626520617070726f766564206f72206f776e65726044820152681037b3103a37b5b2b760b91b606482015260840162000170565b600160046000886001600160a01b03166001600160a01b03168152602001908152602001600020600087815260200190815260200160002060006101000a81548160ff02191690831515021790555060003387878787878e8e6040516024016200077798979695949392919062000fcb565b60408051601f198184030181529181526020820180516001600160e01b0316630626fb2f60e41b179052519091506000907f0000000000000000000000000000000000000000000000000000000000000000908390620007d79062000d31565b620007e492919062001036565b604051809103906000f08015801562000801573d6000803e3d6000fd5b506040805180820182526001600160a01b03808416808352600180546020808601828152600092835260039091529581209451855494166001600160a01b03199485161785559451938101939093556002805480850182559085527f405787fa12a823e0f2b7631cc41b3ba8828b3321ca811111fa75cd3aa3bb5ace01805490921617905580549293509062000897836200107a565b9091555050604051632142170760e11b81523360048201526001600160a01b038281166024830152604482018990528916906342842e0e90606401600060405180830381600087803b158015620008ed57600080fd5b505af115801562000902573d6000803e3d6000fd5b50505050876001600160a01b03167ff9c32fbc56ff04f32a233ebc26e388564223745e28abd8d0781dd906537f563e88868460015460405162000967949392919093845260208401929092526001600160a01b03166040830152606082015260800190565b60405180910390a2600180546200097f919062001096565b9a9950505050505050505050565b60408051808201909152600080825260208201526000828152600360205260409020546001600160a01b031680620009fb5760405162461bcd60e51b815260206004820152601060248201526f125b9d985b1a5908151bdad95b88125160821b604482015260640162000170565b6003600062000a0a8362000ca9565b81526020808201929092526040908101600020815180830190925280546001600160a01b0316825260010154918101919091529392505050565b62000a4e62000ac3565b6001600160a01b03811662000ab55760405162461bcd60e51b815260206004820152602660248201527f4f776e61626c653a206e6577206f776e657220697320746865207a65726f206160448201526564647265737360d01b606482015260840162000170565b62000ac08162000bc4565b50565b6000546001600160a01b031633146200041d5760405162461bcd60e51b815260206004820181905260248201527f4f776e61626c653a2063616c6c6572206973206e6f7420746865206f776e6572604482015260640162000170565b600054600160a01b900460ff166200041d5760405162461bcd60e51b815260206004820152601460248201527314185d5cd8589b194e881b9bdd081c185d5cd95960621b604482015260640162000170565b62000b7b62000b1f565b6000805460ff60a01b191690557f5db9ee0a495bf2e6ff9c91a7834c1ba4fdd244a5e8aa4e537bd38aeae4b073aa335b6040516001600160a01b039091168152602001620003fd565b600080546001600160a01b038381166001600160a01b0319831681178455604051919092169283917f8be0079c531659141344cd1fd0a4f28419497f9722a3daafe3b4186f6b6457e09190a35050565b600054600160a01b900460ff16156200041d5760405162461bcd60e51b815260206004820152601060248201526f14185d5cd8589b194e881c185d5cd95960821b604482015260640162000170565b62000c6d62000c14565b6000805460ff60a01b1916600160a01b1790557f62e78cea01bee320cd4e420270b5ea74000d11b0c9f74754ebdbfc544b05a25862000bab3390565b6000805b60015481101562000cf5576000818152600360205260409020546001600160a01b0380851691160362000ce05792915050565b8062000cec816200107a565b91505062000cad565b5060405162461bcd60e51b815260206004820152600f60248201526e15985d5b1d081b9bdd08199bdd5b99608a1b604482015260640162000170565b61032d80620010ad83390190565b60006020828403121562000d5257600080fd5b5035919050565b6001600160a01b038116811462000ac057600080fd5b6000806040838503121562000d8357600080fd5b823562000d908162000d59565b946020939093013593505050565b6020808252825182820181905260009190848201906040850190845b8181101562000de15783516001600160a01b03168352928401929184019160010162000dba565b50909695505050505050565b634e487b7160e01b600052604160045260246000fd5b600082601f83011262000e1557600080fd5b813567ffffffffffffffff8082111562000e335762000e3362000ded565b604051601f8301601f19908116603f0116810190828211818310171562000e5e5762000e5e62000ded565b8160405283815286602085880101111562000e7857600080fd5b836020870160208301376000602085830101528094505050505092915050565b600080600080600080600060e0888a03121562000eb457600080fd5b873567ffffffffffffffff8082111562000ecd57600080fd5b62000edb8b838c0162000e03565b985060208a013591508082111562000ef257600080fd5b5062000f018a828b0162000e03565b965050604088013562000f148162000d59565b969995985095966060810135965060808101359560a0820135955060c0909101359350915050565b60006020828403121562000f4f57600080fd5b813562000f5c8162000d59565b9392505050565b60006020828403121562000f7657600080fd5b815162000f5c8162000d59565b6000815180845260005b8181101562000fab5760208185018101518683018201520162000f8d565b506000602082860101526020601f19601f83011685010191505092915050565b600061010060018060a01b03808c168452808b166020850152508860408401528760608401528660808401528560a08401528060c0840152620010118184018662000f83565b905082810360e084015262001027818562000f83565b9b9a5050505050505050505050565b6001600160a01b03831681526040602082018190526000906200105c9083018462000f83565b949350505050565b634e487b7160e01b600052601160045260246000fd5b6000600182016200108f576200108f62001064565b5060010190565b818103818111156200049657620004966200106456fe60a060405234801561001057600080fd5b5060405161032d38038061032d83398101604081905261002f91610103565b6001600160a01b038216608081905260405160009182916100519085906101d1565b600060405180830381855af49150503d806000811461008c576040519150601f19603f3d011682016040523d82523d6000602084013e610091565b606091505b50915091508181906100bf5760405162461bcd60e51b81526004016100b691906101ed565b60405180910390fd5b5050505050610220565b634e487b7160e01b600052604160045260246000fd5b60005b838110156100fa5781810151838201526020016100e2565b50506000910152565b6000806040838503121561011657600080fd5b82516001600160a01b038116811461012d57600080fd5b60208401519092506001600160401b038082111561014a57600080fd5b818501915085601f83011261015e57600080fd5b815181811115610170576101706100c9565b604051601f8201601f19908116603f01168101908382118183101715610198576101986100c9565b816040528281528860208487010111156101b157600080fd5b6101c28360208301602088016100df565b80955050505050509250929050565b600082516101e38184602087016100df565b9190910192915050565b602081526000825180602084015261020c8160408501602087016100df565b601f01601f19169190910160400192915050565b60805160ef61023e60003960008181602a0152607b015260ef6000f3fe608060405260043610601f5760003560e01c8063d7dfa0dd14606b576025565b36602557005b6040517f00000000000000000000000000000000000000000000000000000000000000009036600082376000803683855af43d806000843e8180156067578184f35b8184fd5b348015607657600080fd5b50609d7f000000000000000000000000000000000000000000000000000000000000000081565b6040516001600160a01b03909116815260200160405180910390f3fea2646970667358221220721dba0b0f13e8126efca7f6b0e47ff18e162e7d4d64834a4dca4729eee7d6d464736f6c63430008110033a264697066735822122019d1b3b7cb85b193467e6238720784319936123ffa91093d4c45129fe24aab9464736f6c63430008110033608060405234801561001057600080fd5b506118ce806100206000396000f3fe6080604052600436106101d85760003560e01c80637b5581ed11610102578063c91de64911610095578063ddca3f4311610064578063ddca3f4314610555578063e66f53b71461056b578063f97ed5091461058b578063fc0c546a146105aa57600080fd5b8063c91de649146104d3578063db006a7514610500578063db2e1eed14610520578063dd62ed3e1461053557600080fd5b8063a035b1fe116100d1578063a035b1fe14610467578063a457c2d71461047d578063a9059cbb1461049d578063af640d0f146104bd57600080fd5b80637b5581ed146104065780639012c4a81461041c57806395d89b411461043c5780639a4e6d341461045157600080fd5b80633ccfd60b1161017a578063626fb2f011610149578063626fb2f01461038857806364edfbf0146103a85780636a775714146103b057806370a08231146103d057600080fd5b80633ccfd60b146102f75780633fc8cef31461030e57806345374c4e1461034e578063466ccac01461036e57600080fd5b806318160ddd116101b657806318160ddd1461027c57806323b872dd1461029b578063313ce567146102bb57806339509351146102d757600080fd5b806306fdde03146101dd578063095ea7b314610208578063150b7a0214610238575b600080fd5b3480156101e957600080fd5b506101f26105ca565b6040516101ff9190611334565b60405180910390f35b34801561021457600080fd5b5061022861022336600461139e565b61065c565b60405190151581526020016101ff565b34801561024457600080fd5b50610263610253366004611454565b630a85bd0160e11b949350505050565b6040516001600160e01b031990911681526020016101ff565b34801561028857600080fd5b506035545b6040519081526020016101ff565b3480156102a757600080fd5b506102286102b63660046114d0565b610676565b3480156102c757600080fd5b50604051601281526020016101ff565b3480156102e357600080fd5b506102286102f236600461139e565b61069a565b34801561030357600080fd5b5061030c6106bc565b005b34801561031a57600080fd5b5061033673c02aaa39b223fe8d0a0e5c4f27ead9083c756cc281565b6040516001600160a01b0390911681526020016101ff565b34801561035a57600080fd5b5061030c61036936600461150c565b6107ce565b34801561037a57600080fd5b50609d546102289060ff1681565b34801561039457600080fd5b5061030c6103a336600461154e565b61080b565b61030c610977565b3480156103bc57600080fd5b5061030c6103cb3660046115fa565b610a81565b3480156103dc57600080fd5b5061028d6103eb366004611613565b6001600160a01b031660009081526033602052604090205490565b34801561041257600080fd5b5061028d60995481565b34801561042857600080fd5b5061030c6104373660046115fa565b610ae9565b34801561044857600080fd5b506101f2610b4a565b34801561045d57600080fd5b5061028d609b5481565b34801561047357600080fd5b5061028d609a5481565b34801561048957600080fd5b5061022861049836600461139e565b610b59565b3480156104a957600080fd5b506102286104b836600461139e565b610bd4565b3480156104c957600080fd5b5061028d60985481565b3480156104df57600080fd5b5061028d6104ee366004611613565b609c6020526000908152604090205481565b34801561050c57600080fd5b5061030c61051b3660046115fa565b610be2565b34801561052c57600080fd5b50609a5461028d565b34801561054157600080fd5b5061028d61055036600461162e565b610d08565b34801561056157600080fd5b5061028d609e5481565b34801561057757600080fd5b50609f54610336906001600160a01b031681565b34801561059757600080fd5b50609d5461022890610100900460ff1681565b3480156105b657600080fd5b50609754610336906001600160a01b031681565b6060603680546105d990611661565b80601f016020809104026020016040519081016040528092919081815260200182805461060590611661565b80156106525780601f1061062757610100808354040283529160200191610652565b820191906000526020600020905b81548152906001019060200180831161063557829003601f168201915b5050505050905090565b60003361066a818585610d33565b60019150505b92915050565b600033610684858285610e58565b61068f858585610ed2565b506001949350505050565b60003361066a8185856106ad8383610d08565b6106b791906116b1565b610d33565b609f546001600160a01b031633146106ef5760405162461bcd60e51b81526004016106e6906116c4565b60405180910390fd5b478061073d5760405162461bcd60e51b815260206004820152601860248201527f4e6f204554482070726573656e7420696e2056656e646f72000000000000000060448201526064016106e6565b604051600090339047908381818185875af1925050503d806000811461077f576040519150601f19603f3d011682016040523d82523d6000602084013e610784565b606091505b50509050806107ca5760405162461bcd60e51b81526020600482015260126024820152714661696c656420746f20776974686472617760701b60448201526064016106e6565b5050565b609f546001600160a01b031633146107f85760405162461bcd60e51b81526004016106e6906116c4565b609d805460ff1916911515919091179055565b600054610100900460ff161580801561082b5750600054600160ff909116105b806108455750303b158015610845575060005460ff166001145b6108a85760405162461bcd60e51b815260206004820152602e60248201527f496e697469616c697a61626c653a20636f6e747261637420697320616c72656160448201526d191e481a5b9a5d1a585b1a5e995960921b60648201526084016106e6565b6000805460ff1916600117905580156108cb576000805461ff0019166101001790555b6108d5838361107d565b6108dd6110ae565b609780546001600160a01b03808b166001600160a01b0319928316179092556098899055609e879055609a869055609f8054928c169290911691909117905561092689876110d7565b801561096c576000805461ff0019169055604051600181527f7f26b83ff96e1f2b6a682f133852f6798a09c465da95921460cefb38474024989060200160405180910390a15b505050505050505050565b609d5460ff166109b85760405162461bcd60e51b815260206004820152600c60248201526b4e6f7420666f722073616c6560a01b60448201526064016106e6565b609a54341015610a025760405162461bcd60e51b8152602060048201526015602482015274139bdd08195b9bdd59da08195d1a195c881cd95b9d605a1b60448201526064016106e6565b6097546098546040516323b872dd60e01b815230600482015233602482015260448101919091526001600160a01b03909116906323b872dd90606401600060405180830381600087803b158015610a5857600080fd5b505af1158015610a6c573d6000803e3d6000fd5b5050609d805461ffff19166101001790555050565b609f546001600160a01b03163314610aab5760405162461bcd60e51b81526004016106e6906116c4565b609a81905560405181815233907f64e6e7bd72b853c4e62fd6ceaca05a104700c70a4cb567c75c7f2242ba7f037c906020015b60405180910390a250565b609f546001600160a01b03163314610b135760405162461bcd60e51b81526004016106e6906116c4565b609e81905560405181815233907fa12973bd1c09e4ec46288dc2a7ccb9b337e197c7ffad7a179ecae62a90830afd90602001610ade565b6060603780546105d990611661565b60003381610b678286610d08565b905083811015610bc75760405162461bcd60e51b815260206004820152602560248201527f45524332303a2064656372656173656420616c6c6f77616e63652062656c6f77604482015264207a65726f60d81b60648201526084016106e6565b61068f8286868403610d33565b60003361066a818585610ed2565b609d54610100900460ff16610c395760405162461bcd60e51b815260206004820152601860248201527f526564656d7074696f6e206e6f7420617661696c61626c65000000000000000060448201526064016106e6565b476000610c4560355490565b610c4f83856116fb565b610c599190611712565b90506000610c7e612710610c78609e548561119890919063ffffffff16565b906111ab565b90506000610c8c83836111b7565b9050610c9833866111c3565b609f546040516001600160a01b039091169083156108fc029084906000818181858888f19350505050158015610cd2573d6000803e3d6000fd5b50604051339082156108fc029083906000818181858888f19350505050158015610d00573d6000803e3d6000fd5b505050505050565b6001600160a01b03918216600090815260346020908152604080832093909416825291909152205490565b6001600160a01b038316610d955760405162461bcd60e51b8152602060048201526024808201527f45524332303a20617070726f76652066726f6d20746865207a65726f206164646044820152637265737360e01b60648201526084016106e6565b6001600160a01b038216610df65760405162461bcd60e51b815260206004820152602260248201527f45524332303a20617070726f766520746f20746865207a65726f206164647265604482015261737360f01b60648201526084016106e6565b6001600160a01b0383811660008181526034602090815260408083209487168084529482529182902085905590518481527f8c5be1e5ebec7d5bd14f71427d1e84f3dd0314c0f7b2291e5b200ac8c7c3b92591015b60405180910390a3505050565b6000610e648484610d08565b90506000198114610ecc5781811015610ebf5760405162461bcd60e51b815260206004820152601d60248201527f45524332303a20696e73756666696369656e7420616c6c6f77616e636500000060448201526064016106e6565b610ecc8484848403610d33565b50505050565b6001600160a01b038316610f365760405162461bcd60e51b815260206004820152602560248201527f45524332303a207472616e736665722066726f6d20746865207a65726f206164604482015264647265737360d81b60648201526084016106e6565b6001600160a01b038216610f985760405162461bcd60e51b815260206004820152602360248201527f45524332303a207472616e7366657220746f20746865207a65726f206164647260448201526265737360e81b60648201526084016106e6565b6001600160a01b038316600090815260336020526040902054818110156110105760405162461bcd60e51b815260206004820152602660248201527f45524332303a207472616e7366657220616d6f756e7420657863656564732062604482015265616c616e636560d01b60648201526084016106e6565b6001600160a01b0380851660008181526033602052604080822086860390559286168082529083902080548601905591517fddf252ad1be2c89b69c2b068fc378daa952ba7f163c4a11628f55a4df523b3ef906110709086815260200190565b60405180910390a3610ecc565b600054610100900460ff166110a45760405162461bcd60e51b81526004016106e690611734565b6107ca82826112f4565b600054610100900460ff166110d55760405162461bcd60e51b81526004016106e690611734565b565b6001600160a01b03821661112d5760405162461bcd60e51b815260206004820152601f60248201527f45524332303a206d696e7420746f20746865207a65726f20616464726573730060448201526064016106e6565b806035600082825461113f91906116b1565b90915550506001600160a01b0382166000818152603360209081526040808320805486019055518481527fddf252ad1be2c89b69c2b068fc378daa952ba7f163c4a11628f55a4df523b3ef910160405180910390a35050565b60006111a482846116fb565b9392505050565b60006111a48284611712565b60006111a4828461177f565b6001600160a01b0382166112235760405162461bcd60e51b815260206004820152602160248201527f45524332303a206275726e2066726f6d20746865207a65726f206164647265736044820152607360f81b60648201526084016106e6565b6001600160a01b038216600090815260336020526040902054818110156112975760405162461bcd60e51b815260206004820152602260248201527f45524332303a206275726e20616d6f756e7420657863656564732062616c616e604482015261636560f01b60648201526084016106e6565b6001600160a01b03831660008181526033602090815260408083208686039055603580548790039055518581529192917fddf252ad1be2c89b69c2b068fc378daa952ba7f163c4a11628f55a4df523b3ef9101610e4b565b505050565b600054610100900460ff1661131b5760405162461bcd60e51b81526004016106e690611734565b603661132783826117d8565b5060376112ef82826117d8565b600060208083528351808285015260005b8181101561136157858101830151858201604001528201611345565b506000604082860101526040601f19601f8301168501019250505092915050565b80356001600160a01b038116811461139957600080fd5b919050565b600080604083850312156113b157600080fd5b6113ba83611382565b946020939093013593505050565b634e487b7160e01b600052604160045260246000fd5b600067ffffffffffffffff808411156113f9576113f96113c8565b604051601f8501601f19908116603f01168101908282118183101715611421576114216113c8565b8160405280935085815286868601111561143a57600080fd5b858560208301376000602087830101525050509392505050565b6000806000806080858703121561146a57600080fd5b61147385611382565b935061148160208601611382565b925060408501359150606085013567ffffffffffffffff8111156114a457600080fd5b8501601f810187136114b557600080fd5b6114c4878235602084016113de565b91505092959194509250565b6000806000606084860312156114e557600080fd5b6114ee84611382565b92506114fc60208501611382565b9150604084013590509250925092565b60006020828403121561151e57600080fd5b813580151581146111a457600080fd5b600082601f83011261153f57600080fd5b6111a4838335602085016113de565b600080600080600080600080610100898b03121561156b57600080fd5b61157489611382565b975061158260208a01611382565b965060408901359550606089013594506080890135935060a0890135925060c089013567ffffffffffffffff808211156115bb57600080fd5b6115c78c838d0161152e565b935060e08b01359150808211156115dd57600080fd5b506115ea8b828c0161152e565b9150509295985092959890939650565b60006020828403121561160c57600080fd5b5035919050565b60006020828403121561162557600080fd5b6111a482611382565b6000806040838503121561164157600080fd5b61164a83611382565b915061165860208401611382565b90509250929050565b600181811c9082168061167557607f821691505b60208210810361169557634e487b7160e01b600052602260045260246000fd5b50919050565b634e487b7160e01b600052601160045260246000fd5b808201808211156106705761067061169b565b60208082526017908201527f596f7520617265206e6f74207468652063757261746f72000000000000000000604082015260600190565b80820281158282048414176106705761067061169b565b60008261172f57634e487b7160e01b600052601260045260246000fd5b500490565b6020808252602b908201527f496e697469616c697a61626c653a20636f6e7472616374206973206e6f74206960408201526a6e697469616c697a696e6760a81b606082015260800190565b818103818111156106705761067061169b565b601f8211156112ef57600081815260208120601f850160051c810160208610156117b95750805b601f850160051c820191505b81811015610d00578281556001016117c5565b815167ffffffffffffffff8111156117f2576117f26113c8565b611806816118008454611661565b84611792565b602080601f83116001811461183b57600084156118235750858301515b600019600386901b1c1916600185901b178555610d00565b600085815260208120601f198616915b8281101561186a5788860151825594840194600190910190840161184b565b50858210156118885787850151600019600388901b60f8161c191681555b5050505050600190811b0190555056fea264697066735822122028761f0953eca7f6175fdc39168f4cc6864141b104fba33818d3e45bb2d5d6b864736f6c63430008110033",
  "immutableReferences": {
    "7433": [
      {
        "length": 32,
        "start": 753
      },
      {
        "length": 32,
        "start": 1962
      }
    ]
  },
  "source": "//SPDX-License-Identifier: MIT\npragma solidity ^0.8.0;\n\nimport \"@openzeppelin/contracts/access/Ownable.sol\";\nimport \"@openzeppelin/contracts/security/Pausable.sol\";\nimport \"@openzeppelin/contracts/token/ERC721/ERC721.sol\";\nimport \"@openzeppelin/contracts/token/ERC721/utils/ERC721Holder.sol\";\n\nimport \"@openzeppelin/contracts/token/ERC20/IERC20.sol\";\nimport \"@openzeppelin/contracts/utils/math/SafeMath.sol\";\nimport \"@openzeppelin/contracts/token/ERC20/utils/SafeERC20.sol\";\nimport \"@openzeppelin/contracts/utils/math/SafeMath.sol\";\nimport \"@openzeppelin/contracts/security/ReentrancyGuard.sol\";\n\nimport \"./InitializedProxy.sol\";\nimport \"./NftFractionToken.sol\";\n\ncontract NftFractionsFactory is Ownable, Pausable {\n  struct Vault {\n    address vaultAddress;\n    uint256 count;\n  }\n  /// @notice the number of ERC721 vaults\n  uint256 public vaultCount;\n  address[] public tokenAddressCreated;\n\n  /// @notice the mapping of vault number to vault contract\n  mapping(uint256 => Vault) public vaults;\n\n  mapping(address => mapping(uint256 => bool)) public nftToVault;\n\n  /// @notice the TokenVault logic contract\n  address public immutable logic;\n\n  event Mint(\n    address indexed token,\n    uint256 id,\n    uint256 price,\n    address vault,\n    uint256 vaultId\n  );\n\n  constructor() {\n    logic = address(new NftFractionToken());\n  }\n\n  /// @notice the function to mint a new vault\n  /// @param _name the desired name of the vault\n  /// @param _symbol the desired sumbol of the vault\n  /// @param _token the ERC721 token address fo the NFT\n  /// @param _id the uint256 ID of the token\n  /// @param _supply is the initial total supply of the token\n  /// @param _fee is the fee\n  /// @param _listPrice the initial price of the NFT\n  /// @return the ID of the vault\n  function mint(\n    string memory _name,\n    string memory _symbol,\n    address _token,\n    uint256 _id,\n    uint256 _supply,\n    uint256 _fee,\n    uint256 _listPrice\n  ) external whenNotPaused returns (uint256) {\n    require(!nftToVault[_token][_id], \"NFT already locked in a vault\");\n    // Check if the caller owns the token or is approved for transfer\n    require(\n      IERC721(_token).getApproved(_id) == address(this) ||\n        IERC721(_token).ownerOf(_id) == msg.sender,\n      \"Caller must be approved or owner of token\"\n    );\n\n    nftToVault[_token][_id] = true;\n\n    bytes memory _initializationCalldata = abi.encodeWithSignature(\n      \"initialize(address,address,uint256,uint256,uint256,uint256,string,string)\",\n      msg.sender,\n      _token,\n      _id,\n      _supply,\n      _fee,\n      _listPrice,\n      _name,\n      _symbol\n    );\n\n    address vault = address(\n      new InitializedProxy(logic, _initializationCalldata)\n    );\n\n    vaults[vaultCount] = Vault(vault, vaultCount);\n    tokenAddressCreated.push(vault);\n    vaultCount++;\n\n    // Interact with external contracts after updating state\n    IERC721(_token).safeTransferFrom(msg.sender, vault, _id);\n\n    emit Mint(_token, _id, _listPrice, vault, vaultCount);\n\n    return vaultCount - 1;\n  }\n\n  function vaultExists(\n    address _token,\n    uint256 nftId\n  ) public view returns (bool) {\n    return nftToVault[_token][nftId];\n  }\n\n  function getVaultIndexByAddress(\n    address _vaultAddress\n  ) internal view returns (uint256) {\n    for (uint256 i = 0; i < vaultCount; i++) {\n      if (vaults[i].vaultAddress == _vaultAddress) {\n        return i;\n      }\n    }\n    revert(\"Vault not found\");\n  }\n\n  function getVaultContractByTokenId(\n    uint256 _tokenId\n  ) external view returns (Vault memory) {\n    address vaultAddress = vaults[_tokenId].vaultAddress;\n    require(vaultAddress != address(0), \"Invalid Token ID\");\n    return vaults[getVaultIndexByAddress(vaultAddress)];\n  }\n\n  function getAllCreatedVaults() external view returns (address[] memory) {\n    return tokenAddressCreated;\n  }\n\n  function getVaultContract(uint256 _id) external view returns (Vault memory) {\n    Vault memory vault = vaults[_id];\n    return vault;\n  }\n\n  function pause() external onlyOwner whenNotPaused {\n    _pause();\n    emit Paused(msg.sender);\n  }\n\n  function unpause() external onlyOwner whenPaused {\n    _unpause();\n    emit Unpaused(msg.sender);\n  }\n\n  fallback() external {\n    revert(\"This contract does not accept ETH or tokens\");\n  }\n}\n",
  "sourcePath": "/Users/alberto/Desktop/Enalbis/caskchain-mono/apps/contracts/contracts/NftFractionsFactory.sol",
  "compiler": {
    "name": "solc",
    "version": "0.8.17+commit.8df45f5f.Emscripten.clang"
  },
  "schemaVersion": "3.4.11",
  "updatedAt": "2023-04-18T13:32:06.715Z",
  "networkType": "ethereum",
  "devdoc": {
    "kind": "dev",
    "methods": {
      "mint(string,string,address,uint256,uint256,uint256,uint256)": {
        "params": {
          "_fee": "is the fee",
          "_id": "the uint256 ID of the token",
          "_listPrice": "the initial price of the NFT",
          "_name": "the desired name of the vault",
          "_supply": "is the initial total supply of the token",
          "_symbol": "the desired sumbol of the vault",
          "_token": "the ERC721 token address fo the NFT"
        },
        "returns": {
          "_0": "the ID of the vault"
        }
      },
      "owner()": {
        "details": "Returns the address of the current owner."
      },
      "paused()": {
        "details": "Returns true if the contract is paused, and false otherwise."
      },
      "renounceOwnership()": {
        "details": "Leaves the contract without owner. It will not be possible to call `onlyOwner` functions anymore. Can only be called by the current owner. NOTE: Renouncing ownership will leave the contract without an owner, thereby removing any functionality that is only available to the owner."
      },
      "transferOwnership(address)": {
        "details": "Transfers ownership of the contract to a new account (`newOwner`). Can only be called by the current owner."
      }
    },
    "version": 1
  },
  "userdoc": {
    "kind": "user",
    "methods": {
      "logic()": {
        "notice": "the TokenVault logic contract"
      },
      "mint(string,string,address,uint256,uint256,uint256,uint256)": {
        "notice": "the function to mint a new vault"
      },
      "vaultCount()": {
        "notice": "the number of ERC721 vaults"
      },
      "vaults(uint256)": {
        "notice": "the mapping of vault number to vault contract"
      }
    },
    "version": 1
  }
}