{
  "contractName": "NftFractionsFactory",
  "abi": [
    {
      "anonymous": false,
      "inputs": [
        {
          "indexed": false,
          "internalType": "address",
          "name": "previousAdmin",
          "type": "address"
        },
        {
          "indexed": false,
          "internalType": "address",
          "name": "newAdmin",
          "type": "address"
        }
      ],
      "name": "AdminChanged",
      "type": "event"
    },
    {
      "anonymous": false,
      "inputs": [
        {
          "indexed": true,
          "internalType": "address",
          "name": "beacon",
          "type": "address"
        }
      ],
      "name": "BeaconUpgraded",
      "type": "event"
    },
    {
      "anonymous": false,
      "inputs": [
        {
          "indexed": false,
          "internalType": "uint8",
          "name": "version",
          "type": "uint8"
        }
      ],
      "name": "Initialized",
      "type": "event"
    },
    {
      "anonymous": false,
      "inputs": [
        {
          "indexed": true,
          "internalType": "address",
          "name": "token",
          "type": "address"
        },
        {
          "indexed": false,
          "internalType": "uint256",
          "name": "id",
          "type": "uint256"
        },
        {
          "indexed": false,
          "internalType": "uint256",
          "name": "supply",
          "type": "uint256"
        },
        {
          "indexed": false,
          "internalType": "uint256",
          "name": "price",
          "type": "uint256"
        },
        {
          "indexed": false,
          "internalType": "address",
          "name": "vault",
          "type": "address"
        },
        {
          "indexed": false,
          "internalType": "uint256",
          "name": "vaultId",
          "type": "uint256"
        }
      ],
      "name": "Mint",
      "type": "event"
    },
    {
      "anonymous": false,
      "inputs": [
        {
          "indexed": true,
          "internalType": "address",
          "name": "previousOwner",
          "type": "address"
        },
        {
          "indexed": true,
          "internalType": "address",
          "name": "newOwner",
          "type": "address"
        }
      ],
      "name": "OwnershipTransferred",
      "type": "event"
    },
    {
      "anonymous": false,
      "inputs": [
        {
          "indexed": false,
          "internalType": "address",
          "name": "account",
          "type": "address"
        }
      ],
      "name": "Paused",
      "type": "event"
    },
    {
      "anonymous": false,
      "inputs": [
        {
          "indexed": false,
          "internalType": "address",
          "name": "account",
          "type": "address"
        }
      ],
      "name": "Unpaused",
      "type": "event"
    },
    {
      "anonymous": false,
      "inputs": [
        {
          "indexed": true,
          "internalType": "address",
          "name": "implementation",
          "type": "address"
        }
      ],
      "name": "Upgraded",
      "type": "event"
    },
    {
      "stateMutability": "nonpayable",
      "type": "fallback"
    },
    {
      "inputs": [],
      "name": "logic",
      "outputs": [
        {
          "internalType": "address",
          "name": "",
          "type": "address"
        }
      ],
      "stateMutability": "view",
      "type": "function",
      "constant": true
    },
    {
      "inputs": [],
      "name": "owner",
      "outputs": [
        {
          "internalType": "address",
          "name": "",
          "type": "address"
        }
      ],
      "stateMutability": "view",
      "type": "function",
      "constant": true
    },
    {
      "inputs": [],
      "name": "paused",
      "outputs": [
        {
          "internalType": "bool",
          "name": "",
          "type": "bool"
        }
      ],
      "stateMutability": "view",
      "type": "function",
      "constant": true
    },
    {
      "inputs": [],
      "name": "proxiableUUID",
      "outputs": [
        {
          "internalType": "bytes32",
          "name": "",
          "type": "bytes32"
        }
      ],
      "stateMutability": "view",
      "type": "function",
      "constant": true
    },
    {
      "inputs": [],
      "name": "renounceOwnership",
      "outputs": [],
      "stateMutability": "nonpayable",
      "type": "function"
    },
    {
      "inputs": [
        {
          "internalType": "address",
          "name": "newOwner",
          "type": "address"
        }
      ],
      "name": "transferOwnership",
      "outputs": [],
      "stateMutability": "nonpayable",
      "type": "function"
    },
    {
      "inputs": [
        {
          "internalType": "address",
          "name": "newImplementation",
          "type": "address"
        }
      ],
      "name": "upgradeTo",
      "outputs": [],
      "stateMutability": "nonpayable",
      "type": "function"
    },
    {
      "inputs": [
        {
          "internalType": "address",
          "name": "newImplementation",
          "type": "address"
        },
        {
          "internalType": "bytes",
          "name": "data",
          "type": "bytes"
        }
      ],
      "name": "upgradeToAndCall",
      "outputs": [],
      "stateMutability": "payable",
      "type": "function",
      "payable": true
    },
    {
      "inputs": [
        {
          "internalType": "address",
          "name": "storageAddress",
          "type": "address"
        }
      ],
      "name": "initialize",
      "outputs": [],
      "stateMutability": "nonpayable",
      "type": "function"
    },
    {
      "inputs": [
        {
          "internalType": "string",
          "name": "_name",
          "type": "string"
        },
        {
          "internalType": "string",
          "name": "_symbol",
          "type": "string"
        },
        {
          "internalType": "address",
          "name": "_token",
          "type": "address"
        },
        {
          "internalType": "uint256",
          "name": "_id",
          "type": "uint256"
        },
        {
          "internalType": "uint256",
          "name": "_supply",
          "type": "uint256"
        },
        {
          "internalType": "uint256",
          "name": "_fee",
          "type": "uint256"
        },
        {
          "internalType": "uint256",
          "name": "_listPrice",
          "type": "uint256"
        }
      ],
      "name": "mint",
      "outputs": [
        {
          "internalType": "uint256",
          "name": "",
          "type": "uint256"
        }
      ],
      "stateMutability": "nonpayable",
      "type": "function"
    },
    {
      "inputs": [
        {
          "internalType": "address",
          "name": "_vaultAddress",
          "type": "address"
        },
        {
          "internalType": "uint256",
          "name": "_tokenId",
          "type": "uint256"
        }
      ],
      "name": "checkIfVaultExists",
      "outputs": [
        {
          "internalType": "bool",
          "name": "",
          "type": "bool"
        }
      ],
      "stateMutability": "view",
      "type": "function",
      "constant": true
    },
    {
      "inputs": [
        {
          "internalType": "uint256",
          "name": "_tokenId",
          "type": "uint256"
        }
      ],
      "name": "getVaultContractByTokenId",
      "outputs": [
        {
          "components": [
            {
              "internalType": "address",
              "name": "vaultAddress",
              "type": "address"
            },
            {
              "internalType": "uint256",
              "name": "tokenId",
              "type": "uint256"
            }
          ],
          "internalType": "struct INftFractionsFactoryStorage.Vault",
          "name": "",
          "type": "tuple"
        }
      ],
      "stateMutability": "view",
      "type": "function",
      "constant": true
    },
    {
      "inputs": [],
      "name": "getAllVaultsAddresses",
      "outputs": [
        {
          "internalType": "address[]",
          "name": "",
          "type": "address[]"
        }
      ],
      "stateMutability": "view",
      "type": "function",
      "constant": true
    },
    {
      "inputs": [],
      "name": "pause",
      "outputs": [],
      "stateMutability": "nonpayable",
      "type": "function"
    },
    {
      "inputs": [],
      "name": "unpause",
      "outputs": [],
      "stateMutability": "nonpayable",
      "type": "function"
    }
  ],
  "bytecode": "0x60a06040523060805234801561001457600080fd5b50608051613a0661004c6000396000818161042e015281816104710152818161056d015281816105b0015261064c0152613a066000f3fe608060405260043610620000fe5760003560e01c80638456cb591162000097578063c4d66de81162000061578063c4d66de814620002ee578063cd29b6f21462000313578063d7dfa0dd146200035d578063f2fde38b146200037f57620000fe565b80638456cb5914620002565780638da5cb5b146200026e578063a8d9f49314620002a2578063bdc0111014620002c957620000fe565b80634f1ef28611620000d95780634f1ef28614620001e657806352d1902d14620001fd5780635c975abb1462000224578063715018a6146200023e57620000fe565b80630ebd6619146200016d5780633659cfe614620001a75780633f4ba83a14620001ce575b3480156200010b57600080fd5b5060405162461bcd60e51b815260206004820152602b60248201527f5468697320636f6e747261637420646f6573206e6f742061636365707420455460448201526a48206f7220746f6b656e7360a81b60648201526084015b60405180910390fd5b3480156200017a57600080fd5b50620001926200018c366004620016f7565b620003a4565b60405190151581526020015b60405180910390f35b348015620001b457600080fd5b50620001cc620001c636600462001726565b62000424565b005b348015620001db57600080fd5b50620001cc6200050f565b620001cc620001f7366004620017ee565b62000563565b3480156200020a57600080fd5b50620002156200063f565b6040519081526020016200019e565b3480156200023157600080fd5b5060655460ff1662000192565b3480156200024b57600080fd5b50620001cc620006f5565b3480156200026357600080fd5b50620001cc6200070d565b3480156200027b57600080fd5b506033546001600160a01b03165b6040516001600160a01b0390911681526020016200019e565b348015620002af57600080fd5b50620002ba6200075c565b6040516200019e919062001859565b348015620002d657600080fd5b5062000215620002e8366004620018cb565b620007d6565b348015620002fb57600080fd5b50620001cc6200030d36600462001726565b62000d21565b3480156200032057600080fd5b5062000338620003323660046200196f565b62000ea0565b6040805182516001600160a01b0316815260209283015192810192909252016200019e565b3480156200036a57600080fd5b5060fc5462000289906001600160a01b031681565b3480156200038c57600080fd5b50620001cc6200039e36600462001726565b6200100b565b60fb54604051634991bb7f60e11b81526001600160a01b03848116600483015260248201849052600092169063932376fe90604401602060405180830381865afa158015620003f7573d6000803e3d6000fd5b505050506040513d601f19601f820116820180604052508101906200041d919062001989565b9392505050565b6001600160a01b037f00000000000000000000000000000000000000000000000000000000000000001630036200046f5760405162461bcd60e51b81526004016200016490620019ad565b7f00000000000000000000000000000000000000000000000000000000000000006001600160a01b0316620004ba6000805160206200398a833981519152546001600160a01b031690565b6001600160a01b031614620004e35760405162461bcd60e51b81526004016200016490620019f9565b620004ee8162001087565b604080516000808252602082019092526200050c9183919062001091565b50565b620005196200120e565b620005236200126a565b6200052d620012b5565b6040513381527f5db9ee0a495bf2e6ff9c91a7834c1ba4fdd244a5e8aa4e537bd38aeae4b073aa906020015b60405180910390a1565b6001600160a01b037f0000000000000000000000000000000000000000000000000000000000000000163003620005ae5760405162461bcd60e51b81526004016200016490620019ad565b7f00000000000000000000000000000000000000000000000000000000000000006001600160a01b0316620005f96000805160206200398a833981519152546001600160a01b031690565b6001600160a01b031614620006225760405162461bcd60e51b81526004016200016490620019f9565b6200062d8262001087565b6200063b8282600162001091565b5050565b6000306001600160a01b037f00000000000000000000000000000000000000000000000000000000000000001614620006e15760405162461bcd60e51b815260206004820152603860248201527f555550535570677261646561626c653a206d757374206e6f742062652063616c60448201527f6c6564207468726f7567682064656c656761746563616c6c0000000000000000606482015260840162000164565b506000805160206200398a83398151915290565b620006ff6200120e565b6200070b600062001305565b565b620007176200120e565b6200072162001357565b6200072b6200139f565b6040513381527f62e78cea01bee320cd4e420270b5ea74000d11b0c9f74754ebdbfc544b05a2589060200162000559565b60fb546040805163b6bc53e360e01b815290516060926001600160a01b03169163b6bc53e39160048083019260009291908290030181865afa158015620007a7573d6000803e3d6000fd5b505050506040513d6000823e601f3d908101601f19168201604052620007d1919081019062001a45565b905090565b6000620007e262001357565b60fb54604051634991bb7f60e11b81526001600160a01b038881166004830152602482018890529091169063932376fe90604401602060405180830381865afa15801562000834573d6000803e3d6000fd5b505050506040513d601f19601f820116820180604052508101906200085a919062001989565b15620008a95760405162461bcd60e51b815260206004820152601d60248201527f4e465420616c7265616479206c6f636b656420696e2061207661756c74000000604482015260640162000164565b60405163020604bf60e21b81526004810186905230906001600160a01b0388169063081812fc90602401602060405180830381865afa158015620008f1573d6000803e3d6000fd5b505050506040513d601f19601f8201168201806040525081019062000917919062001b04565b6001600160a01b03161480620009a157506040516331a9108f60e11b81526004810186905233906001600160a01b03881690636352211e90602401602060405180830381865afa15801562000970573d6000803e3d6000fd5b505050506040513d601f19601f8201168201806040525081019062000996919062001b04565b6001600160a01b0316145b62000a015760405162461bcd60e51b815260206004820152602960248201527f43616c6c6572206d75737420626520617070726f766564206f72206f776e65726044820152681037b3103a37b5b2b760b91b606482015260840162000164565b60fb54604051638c7eaf1760e01b81526001600160a01b0388811660048301526024820188905290911690638c7eaf1790604401600060405180830381600087803b15801562000a5057600080fd5b505af115801562000a65573d6000803e3d6000fd5b5050505060003387878787878e8e60405160240162000a8c98979695949392919062001b78565b60408051601f198184030181529181526020820180516001600160e01b0316630626fb2f60e41b17905260fc5490519192506000916001600160a01b0390911690839062000ada90620016c5565b62000ae792919062001be3565b604051809103906000f08015801562000b04573d6000803e3d6000fd5b5060fb546040516336f61bd960e01b81526001600160a01b038084166004830152602482018b90529293509116906336f61bd990604401600060405180830381600087803b15801562000b5657600080fd5b505af115801562000b6b573d6000803e3d6000fd5b505060fb5460405162f310c360e01b81526001600160a01b038581166004830152909116925062f310c39150602401600060405180830381600087803b15801562000bb557600080fd5b505af115801562000bca573d6000803e3d6000fd5b5050604051632142170760e11b81523360048201526001600160a01b038481166024830152604482018b90528b1692506342842e0e9150606401600060405180830381600087803b15801562000c1f57600080fd5b505af115801562000c34573d6000803e3d6000fd5b50505050600060fb60009054906101000a90046001600160a01b03166001600160a01b03166374d4e4916040518163ffffffff1660e01b8152600401602060405180830381865afa15801562000c8e573d6000803e3d6000fd5b505050506040513d601f19601f8201168201806040525081019062000cb4919062001c11565b604080518a8152602081018a90529081018790526001600160a01b03848116606083015260808201839052919250908a16907fa2bdb683bf6195667fa7589ef3d0a1efebb75f62a644c29dc668df51bbf7824c9060a00160405180910390a29a9950505050505050505050565b600054610100900460ff161580801562000d425750600054600160ff909116105b8062000d5e5750303b15801562000d5e575060005460ff166001145b62000dc35760405162461bcd60e51b815260206004820152602e60248201527f496e697469616c697a61626c653a20636f6e747261637420697320616c72656160448201526d191e481a5b9a5d1a585b1a5e995960921b606482015260840162000164565b6000805460ff19166001179055801562000de7576000805461ff0019166101001790555b62000df1620013df565b62000dfb62001413565b60405162000e0990620016d3565b604051809103906000f08015801562000e26573d6000803e3d6000fd5b5060fc80546001600160a01b03199081166001600160a01b039384161790915560fb805490911691841691909117905580156200063b576000805461ff0019169055604051600181527f7f26b83ff96e1f2b6a682f133852f6798a09c465da95921460cefb38474024989060200160405180910390a15050565b604080518082019091526000808252602082015260fb54604080516374d4e49160e01b815290516000926001600160a01b0316916374d4e4919160048083019260209291908290030181865afa15801562000eff573d6000803e3d6000fd5b505050506040513d601f19601f8201168201806040525081019062000f25919062001c11565b905060005b8181101562000fcf5760fb54604051632500ed8d60e21b8152600481018390526000916001600160a01b031690639403b634906024016040805180830381865afa15801562000f7d573d6000803e3d6000fd5b505050506040513d601f19601f8201168201806040525081019062000fa3919062001c2b565b90508481602001510362000fb957949350505050565b508062000fc68162001c89565b91505062000f2a565b5060405162461bcd60e51b815260206004820152600f60248201526e15985d5b1d081b9bdd08199bdd5b99608a1b604482015260640162000164565b620010156200120e565b6001600160a01b0381166200107c5760405162461bcd60e51b815260206004820152602660248201527f4f776e61626c653a206e6577206f776e657220697320746865207a65726f206160448201526564647265737360d01b606482015260840162000164565b6200050c8162001305565b6200050c6200120e565b7f4910fdfa16fed3260ed0e7147f7cc6da11a60208b5b9406d12a635614ffd91435460ff1615620010cc57620010c7836200143d565b505050565b826001600160a01b03166352d1902d6040518163ffffffff1660e01b8152600401602060405180830381865afa92505050801562001129575060408051601f3d908101601f19168201909252620011269181019062001c11565b60015b6200118e5760405162461bcd60e51b815260206004820152602e60248201527f45524331393637557067726164653a206e657720696d706c656d656e7461746960448201526d6f6e206973206e6f74205555505360901b606482015260840162000164565b6000805160206200398a8339815191528114620012005760405162461bcd60e51b815260206004820152602960248201527f45524331393637557067726164653a20756e737570706f727465642070726f786044820152681a58589b195555525160ba1b606482015260840162000164565b50620010c7838383620014dc565b6033546001600160a01b031633146200070b5760405162461bcd60e51b815260206004820181905260248201527f4f776e61626c653a2063616c6c6572206973206e6f7420746865206f776e6572604482015260640162000164565b60655460ff166200070b5760405162461bcd60e51b815260206004820152601460248201527314185d5cd8589b194e881b9bdd081c185d5cd95960621b604482015260640162000164565b620012bf6200126a565b6065805460ff191690557f5db9ee0a495bf2e6ff9c91a7834c1ba4fdd244a5e8aa4e537bd38aeae4b073aa335b6040516001600160a01b03909116815260200162000559565b603380546001600160a01b038381166001600160a01b0319831681179093556040519116919082907f8be0079c531659141344cd1fd0a4f28419497f9722a3daafe3b4186f6b6457e090600090a35050565b60655460ff16156200070b5760405162461bcd60e51b815260206004820152601060248201526f14185d5cd8589b194e881c185d5cd95960821b604482015260640162000164565b620013a962001357565b6065805460ff191660011790557f62e78cea01bee320cd4e420270b5ea74000d11b0c9f74754ebdbfc544b05a258620012ec3390565b600054610100900460ff16620014095760405162461bcd60e51b8152600401620001649062001cb1565b6200070b6200150d565b600054610100900460ff166200070b5760405162461bcd60e51b8152600401620001649062001cb1565b6001600160a01b0381163b620014ac5760405162461bcd60e51b815260206004820152602d60248201527f455243313936373a206e657720696d706c656d656e746174696f6e206973206e60448201526c1bdd08184818dbdb9d1c9858dd609a1b606482015260840162000164565b6000805160206200398a83398151915280546001600160a01b0319166001600160a01b0392909216919091179055565b620014e78362001542565b600082511180620014f55750805b15620010c75762001507838362001584565b50505050565b600054610100900460ff16620015375760405162461bcd60e51b8152600401620001649062001cb1565b6200070b3362001305565b6200154d816200143d565b6040516001600160a01b038216907fbc7cd75a20ee27fd9adebab32041f755214dbc6bffa90cc0225b39da2e5c2d3b90600090a250565b60606001600160a01b0383163b620015ee5760405162461bcd60e51b815260206004820152602660248201527f416464726573733a2064656c65676174652063616c6c20746f206e6f6e2d636f6044820152651b9d1c9858dd60d21b606482015260840162000164565b600080846001600160a01b0316846040516200160b919062001cfc565b600060405180830381855af49150503d806000811462001648576040519150601f19603f3d011682016040523d82523d6000602084013e6200164d565b606091505b5091509150620016788282604051806060016040528060278152602001620039aa6027913962001681565b95945050505050565b60608315620016925750816200041d565b6200041d8383815115620016a95781518083602001fd5b8060405162461bcd60e51b815260040162000164919062001d1a565b61032d8062001d3083390190565b61192d806200205d83390190565b6001600160a01b03811681146200050c57600080fd5b600080604083850312156200170b57600080fd5b82356200171881620016e1565b946020939093013593505050565b6000602082840312156200173957600080fd5b81356200041d81620016e1565b634e487b7160e01b600052604160045260246000fd5b604051601f8201601f1916810167ffffffffffffffff8111828210171562001788576200178862001746565b604052919050565b600067ffffffffffffffff831115620017ad57620017ad62001746565b620017c2601f8401601f19166020016200175c565b9050828152838383011115620017d757600080fd5b828260208301376000602084830101529392505050565b600080604083850312156200180257600080fd5b82356200180f81620016e1565b9150602083013567ffffffffffffffff8111156200182c57600080fd5b8301601f810185136200183e57600080fd5b6200184f8582356020840162001790565b9150509250929050565b6020808252825182820181905260009190848201906040850190845b818110156200189c5783516001600160a01b03168352928401929184019160010162001875565b50909695505050505050565b600082601f830112620018ba57600080fd5b6200041d8383356020850162001790565b600080600080600080600060e0888a031215620018e757600080fd5b873567ffffffffffffffff808211156200190057600080fd5b6200190e8b838c01620018a8565b985060208a01359150808211156200192557600080fd5b50620019348a828b01620018a8565b96505060408801356200194781620016e1565b969995985095966060810135965060808101359560a0820135955060c0909101359350915050565b6000602082840312156200198257600080fd5b5035919050565b6000602082840312156200199c57600080fd5b815180151581146200041d57600080fd5b6020808252602c908201527f46756e6374696f6e206d7573742062652063616c6c6564207468726f7567682060408201526b19195b1959d85d1958d85b1b60a21b606082015260800190565b6020808252602c908201527f46756e6374696f6e206d7573742062652063616c6c6564207468726f7567682060408201526b6163746976652070726f787960a01b606082015260800190565b6000602080838503121562001a5957600080fd5b825167ffffffffffffffff8082111562001a7257600080fd5b818501915085601f83011262001a8757600080fd5b81518181111562001a9c5762001a9c62001746565b8060051b915062001aaf8483016200175c565b818152918301840191848101908884111562001aca57600080fd5b938501935b8385101562001af8578451925062001ae783620016e1565b828252938501939085019062001acf565b98975050505050505050565b60006020828403121562001b1757600080fd5b81516200041d81620016e1565b60005b8381101562001b4157818101518382015260200162001b27565b50506000910152565b6000815180845262001b6481602086016020860162001b24565b601f01601f19169290920160200192915050565b600061010060018060a01b03808c168452808b166020850152508860408401528760608401528660808401528560a08401528060c084015262001bbe8184018662001b4a565b905082810360e084015262001bd4818562001b4a565b9b9a5050505050505050505050565b6001600160a01b038316815260406020820181905260009062001c099083018462001b4a565b949350505050565b60006020828403121562001c2457600080fd5b5051919050565b60006040828403121562001c3e57600080fd5b6040516040810181811067ffffffffffffffff8211171562001c645762001c6462001746565b604052825162001c7481620016e1565b81526020928301519281019290925250919050565b60006001820162001caa57634e487b7160e01b600052601160045260246000fd5b5060010190565b6020808252602b908201527f496e697469616c697a61626c653a20636f6e7472616374206973206e6f74206960408201526a6e697469616c697a696e6760a81b606082015260800190565b6000825162001d1081846020870162001b24565b9190910192915050565b6020815260006200041d602083018462001b4a56fe60a060405234801561001057600080fd5b5060405161032d38038061032d83398101604081905261002f91610103565b6001600160a01b038216608081905260405160009182916100519085906101d1565b600060405180830381855af49150503d806000811461008c576040519150601f19603f3d011682016040523d82523d6000602084013e610091565b606091505b50915091508181906100bf5760405162461bcd60e51b81526004016100b691906101ed565b60405180910390fd5b5050505050610220565b634e487b7160e01b600052604160045260246000fd5b60005b838110156100fa5781810151838201526020016100e2565b50506000910152565b6000806040838503121561011657600080fd5b82516001600160a01b038116811461012d57600080fd5b60208401519092506001600160401b038082111561014a57600080fd5b818501915085601f83011261015e57600080fd5b815181811115610170576101706100c9565b604051601f8201601f19908116603f01168101908382118183101715610198576101986100c9565b816040528281528860208487010111156101b157600080fd5b6101c28360208301602088016100df565b80955050505050509250929050565b600082516101e38184602087016100df565b9190910192915050565b602081526000825180602084015261020c8160408501602087016100df565b601f01601f19169190910160400192915050565b60805160ef61023e60003960008181602a0152607b015260ef6000f3fe608060405260043610601f5760003560e01c8063d7dfa0dd14606b576025565b36602557005b6040517f00000000000000000000000000000000000000000000000000000000000000009036600082376000803683855af43d806000843e8180156067578184f35b8184fd5b348015607657600080fd5b50609d7f000000000000000000000000000000000000000000000000000000000000000081565b6040516001600160a01b03909116815260200160405180910390f3fea2646970667358221220721dba0b0f13e8126efca7f6b0e47ff18e162e7d4d64834a4dca4729eee7d6d464736f6c63430008110033608060405234801561001057600080fd5b5061190d806100206000396000f3fe6080604052600436106101d85760003560e01c80637b5581ed11610102578063c91de64911610095578063ddca3f4311610064578063ddca3f4314610555578063e66f53b71461056b578063f97ed5091461058b578063fc0c546a146105aa57600080fd5b8063c91de649146104d3578063db006a7514610500578063db2e1eed14610520578063dd62ed3e1461053557600080fd5b8063a035b1fe116100d1578063a035b1fe14610467578063a457c2d71461047d578063a9059cbb1461049d578063af640d0f146104bd57600080fd5b80637b5581ed146104065780639012c4a81461041c57806395d89b411461043c5780639a4e6d341461045157600080fd5b80633ccfd60b1161017a578063626fb2f011610149578063626fb2f01461038857806364edfbf0146103a85780636a775714146103b057806370a08231146103d057600080fd5b80633ccfd60b146102f75780633fc8cef31461030e57806345374c4e1461034e578063466ccac01461036e57600080fd5b806318160ddd116101b657806318160ddd1461027c57806323b872dd1461029b578063313ce567146102bb57806339509351146102d757600080fd5b806306fdde03146101dd578063095ea7b314610208578063150b7a0214610238575b600080fd5b3480156101e957600080fd5b506101f26105ca565b6040516101ff9190611373565b60405180910390f35b34801561021457600080fd5b506102286102233660046113dd565b61065c565b60405190151581526020016101ff565b34801561024457600080fd5b50610263610253366004611493565b630a85bd0160e11b949350505050565b6040516001600160e01b031990911681526020016101ff565b34801561028857600080fd5b506035545b6040519081526020016101ff565b3480156102a757600080fd5b506102286102b636600461150f565b610676565b3480156102c757600080fd5b50604051601281526020016101ff565b3480156102e357600080fd5b506102286102f23660046113dd565b61069a565b34801561030357600080fd5b5061030c6106bc565b005b34801561031a57600080fd5b5061033673c02aaa39b223fe8d0a0e5c4f27ead9083c756cc281565b6040516001600160a01b0390911681526020016101ff565b34801561035a57600080fd5b5061030c61036936600461154b565b6107ce565b34801561037a57600080fd5b50609d546102289060ff1681565b34801561039457600080fd5b5061030c6103a336600461158d565b610851565b61030c6109bd565b3480156103bc57600080fd5b5061030c6103cb366004611639565b610ac7565b3480156103dc57600080fd5b5061028d6103eb366004611652565b6001600160a01b031660009081526033602052604090205490565b34801561041257600080fd5b5061028d60995481565b34801561042857600080fd5b5061030c610437366004611639565b610b28565b34801561044857600080fd5b506101f2610b89565b34801561045d57600080fd5b5061028d609b5481565b34801561047357600080fd5b5061028d609a5481565b34801561048957600080fd5b506102286104983660046113dd565b610b98565b3480156104a957600080fd5b506102286104b83660046113dd565b610c13565b3480156104c957600080fd5b5061028d60985481565b3480156104df57600080fd5b5061028d6104ee366004611652565b609c6020526000908152604090205481565b34801561050c57600080fd5b5061030c61051b366004611639565b610c21565b34801561052c57600080fd5b50609a5461028d565b34801561054157600080fd5b5061028d61055036600461166d565b610d47565b34801561056157600080fd5b5061028d609e5481565b34801561057757600080fd5b50609f54610336906001600160a01b031681565b34801561059757600080fd5b50609d5461022890610100900460ff1681565b3480156105b657600080fd5b50609754610336906001600160a01b031681565b6060603680546105d9906116a0565b80601f0160208091040260200160405190810160405280929190818152602001828054610605906116a0565b80156106525780601f1061062757610100808354040283529160200191610652565b820191906000526020600020905b81548152906001019060200180831161063557829003601f168201915b5050505050905090565b60003361066a818585610d72565b60019150505b92915050565b600033610684858285610e97565b61068f858585610f11565b506001949350505050565b60003361066a8185856106ad8383610d47565b6106b791906116f0565b610d72565b609f546001600160a01b031633146106ef5760405162461bcd60e51b81526004016106e690611703565b60405180910390fd5b478061073d5760405162461bcd60e51b815260206004820152601860248201527f4e6f204554482070726573656e7420696e2056656e646f72000000000000000060448201526064016106e6565b604051600090339047908381818185875af1925050503d806000811461077f576040519150601f19603f3d011682016040523d82523d6000602084013e610784565b606091505b50509050806107ca5760405162461bcd60e51b81526020600482015260126024820152714661696c656420746f20776974686472617760701b60448201526064016106e6565b5050565b609f546001600160a01b031633146107f85760405162461bcd60e51b81526004016106e690611703565b609d805482151560ff1990911617905560985460405133917f2d34fa7692150ff576005633736e25f76c05cc7072fdcaec53edaff605fd0e8d91610846918515158252602082015260400190565b60405180910390a250565b600054610100900460ff16158080156108715750600054600160ff909116105b8061088b5750303b15801561088b575060005460ff166001145b6108ee5760405162461bcd60e51b815260206004820152602e60248201527f496e697469616c697a61626c653a20636f6e747261637420697320616c72656160448201526d191e481a5b9a5d1a585b1a5e995960921b60648201526084016106e6565b6000805460ff191660011790558015610911576000805461ff0019166101001790555b61091b83836110bc565b6109236110ed565b609780546001600160a01b03808b166001600160a01b0319928316179092556098899055609e879055609a869055609f8054928c169290911691909117905561096c8987611116565b80156109b2576000805461ff0019169055604051600181527f7f26b83ff96e1f2b6a682f133852f6798a09c465da95921460cefb38474024989060200160405180910390a15b505050505050505050565b609d5460ff166109fe5760405162461bcd60e51b815260206004820152600c60248201526b4e6f7420666f722073616c6560a01b60448201526064016106e6565b609a54341015610a485760405162461bcd60e51b8152602060048201526015602482015274139bdd08195b9bdd59da08195d1a195c881cd95b9d605a1b60448201526064016106e6565b6097546098546040516323b872dd60e01b815230600482015233602482015260448101919091526001600160a01b03909116906323b872dd90606401600060405180830381600087803b158015610a9e57600080fd5b505af1158015610ab2573d6000803e3d6000fd5b5050609d805461ffff19166101001790555050565b609f546001600160a01b03163314610af15760405162461bcd60e51b81526004016106e690611703565b609a81905560405181815233907f64e6e7bd72b853c4e62fd6ceaca05a104700c70a4cb567c75c7f2242ba7f037c90602001610846565b609f546001600160a01b03163314610b525760405162461bcd60e51b81526004016106e690611703565b609e81905560405181815233907fa12973bd1c09e4ec46288dc2a7ccb9b337e197c7ffad7a179ecae62a90830afd90602001610846565b6060603780546105d9906116a0565b60003381610ba68286610d47565b905083811015610c065760405162461bcd60e51b815260206004820152602560248201527f45524332303a2064656372656173656420616c6c6f77616e63652062656c6f77604482015264207a65726f60d81b60648201526084016106e6565b61068f8286868403610d72565b60003361066a818585610f11565b609d54610100900460ff16610c785760405162461bcd60e51b815260206004820152601860248201527f526564656d7074696f6e206e6f7420617661696c61626c65000000000000000060448201526064016106e6565b476000610c8460355490565b610c8e838561173a565b610c989190611751565b90506000610cbd612710610cb7609e54856111d790919063ffffffff16565b906111ea565b90506000610ccb83836111f6565b9050610cd73386611202565b609f546040516001600160a01b039091169083156108fc029084906000818181858888f19350505050158015610d11573d6000803e3d6000fd5b50604051339082156108fc029083906000818181858888f19350505050158015610d3f573d6000803e3d6000fd5b505050505050565b6001600160a01b03918216600090815260346020908152604080832093909416825291909152205490565b6001600160a01b038316610dd45760405162461bcd60e51b8152602060048201526024808201527f45524332303a20617070726f76652066726f6d20746865207a65726f206164646044820152637265737360e01b60648201526084016106e6565b6001600160a01b038216610e355760405162461bcd60e51b815260206004820152602260248201527f45524332303a20617070726f766520746f20746865207a65726f206164647265604482015261737360f01b60648201526084016106e6565b6001600160a01b0383811660008181526034602090815260408083209487168084529482529182902085905590518481527f8c5be1e5ebec7d5bd14f71427d1e84f3dd0314c0f7b2291e5b200ac8c7c3b92591015b60405180910390a3505050565b6000610ea38484610d47565b90506000198114610f0b5781811015610efe5760405162461bcd60e51b815260206004820152601d60248201527f45524332303a20696e73756666696369656e7420616c6c6f77616e636500000060448201526064016106e6565b610f0b8484848403610d72565b50505050565b6001600160a01b038316610f755760405162461bcd60e51b815260206004820152602560248201527f45524332303a207472616e736665722066726f6d20746865207a65726f206164604482015264647265737360d81b60648201526084016106e6565b6001600160a01b038216610fd75760405162461bcd60e51b815260206004820152602360248201527f45524332303a207472616e7366657220746f20746865207a65726f206164647260448201526265737360e81b60648201526084016106e6565b6001600160a01b0383166000908152603360205260409020548181101561104f5760405162461bcd60e51b815260206004820152602660248201527f45524332303a207472616e7366657220616d6f756e7420657863656564732062604482015265616c616e636560d01b60648201526084016106e6565b6001600160a01b0380851660008181526033602052604080822086860390559286168082529083902080548601905591517fddf252ad1be2c89b69c2b068fc378daa952ba7f163c4a11628f55a4df523b3ef906110af9086815260200190565b60405180910390a3610f0b565b600054610100900460ff166110e35760405162461bcd60e51b81526004016106e690611773565b6107ca8282611333565b600054610100900460ff166111145760405162461bcd60e51b81526004016106e690611773565b565b6001600160a01b03821661116c5760405162461bcd60e51b815260206004820152601f60248201527f45524332303a206d696e7420746f20746865207a65726f20616464726573730060448201526064016106e6565b806035600082825461117e91906116f0565b90915550506001600160a01b0382166000818152603360209081526040808320805486019055518481527fddf252ad1be2c89b69c2b068fc378daa952ba7f163c4a11628f55a4df523b3ef910160405180910390a35050565b60006111e3828461173a565b9392505050565b60006111e38284611751565b60006111e382846117be565b6001600160a01b0382166112625760405162461bcd60e51b815260206004820152602160248201527f45524332303a206275726e2066726f6d20746865207a65726f206164647265736044820152607360f81b60648201526084016106e6565b6001600160a01b038216600090815260336020526040902054818110156112d65760405162461bcd60e51b815260206004820152602260248201527f45524332303a206275726e20616d6f756e7420657863656564732062616c616e604482015261636560f01b60648201526084016106e6565b6001600160a01b03831660008181526033602090815260408083208686039055603580548790039055518581529192917fddf252ad1be2c89b69c2b068fc378daa952ba7f163c4a11628f55a4df523b3ef9101610e8a565b505050565b600054610100900460ff1661135a5760405162461bcd60e51b81526004016106e690611773565b60366113668382611817565b50603761132e8282611817565b600060208083528351808285015260005b818110156113a057858101830151858201604001528201611384565b506000604082860101526040601f19601f8301168501019250505092915050565b80356001600160a01b03811681146113d857600080fd5b919050565b600080604083850312156113f057600080fd5b6113f9836113c1565b946020939093013593505050565b634e487b7160e01b600052604160045260246000fd5b600067ffffffffffffffff8084111561143857611438611407565b604051601f8501601f19908116603f0116810190828211818310171561146057611460611407565b8160405280935085815286868601111561147957600080fd5b858560208301376000602087830101525050509392505050565b600080600080608085870312156114a957600080fd5b6114b2856113c1565b93506114c0602086016113c1565b925060408501359150606085013567ffffffffffffffff8111156114e357600080fd5b8501601f810187136114f457600080fd5b6115038782356020840161141d565b91505092959194509250565b60008060006060848603121561152457600080fd5b61152d846113c1565b925061153b602085016113c1565b9150604084013590509250925092565b60006020828403121561155d57600080fd5b813580151581146111e357600080fd5b600082601f83011261157e57600080fd5b6111e38383356020850161141d565b600080600080600080600080610100898b0312156115aa57600080fd5b6115b3896113c1565b97506115c160208a016113c1565b965060408901359550606089013594506080890135935060a0890135925060c089013567ffffffffffffffff808211156115fa57600080fd5b6116068c838d0161156d565b935060e08b013591508082111561161c57600080fd5b506116298b828c0161156d565b9150509295985092959890939650565b60006020828403121561164b57600080fd5b5035919050565b60006020828403121561166457600080fd5b6111e3826113c1565b6000806040838503121561168057600080fd5b611689836113c1565b9150611697602084016113c1565b90509250929050565b600181811c908216806116b457607f821691505b6020821081036116d457634e487b7160e01b600052602260045260246000fd5b50919050565b634e487b7160e01b600052601160045260246000fd5b80820180821115610670576106706116da565b60208082526017908201527f596f7520617265206e6f74207468652063757261746f72000000000000000000604082015260600190565b8082028115828204841417610670576106706116da565b60008261176e57634e487b7160e01b600052601260045260246000fd5b500490565b6020808252602b908201527f496e697469616c697a61626c653a20636f6e7472616374206973206e6f74206960408201526a6e697469616c697a696e6760a81b606082015260800190565b81810381811115610670576106706116da565b601f82111561132e57600081815260208120601f850160051c810160208610156117f85750805b601f850160051c820191505b81811015610d3f57828155600101611804565b815167ffffffffffffffff81111561183157611831611407565b6118458161183f84546116a0565b846117d1565b602080601f83116001811461187a57600084156118625750858301515b600019600386901b1c1916600185901b178555610d3f565b600085815260208120601f198616915b828110156118a95788860151825594840194600190910190840161188a565b50858210156118c75787850151600019600388901b60f8161c191681555b5050505050600190811b0190555056fea2646970667358221220494b62d2eab9deabb9d0cef7ff8a5a3e8e1e06a8e75a172d8cbb69f6158a965264736f6c63430008110033360894a13ba1a3210667c828492db98dca3e2076cc3735a920a3ca505d382bbc416464726573733a206c6f772d6c6576656c2064656c65676174652063616c6c206661696c6564a264697066735822122088c7ffdb770a2aa131201eece30995343cf46510133963bb65df998b627393e464736f6c63430008110033",
  "immutableReferences": {
    "746": [
      {
        "length": 32,
        "start": 1070
      },
      {
        "length": 32,
        "start": 1137
      },
      {
        "length": 32,
        "start": 1389
      },
      {
        "length": 32,
        "start": 1456
      },
      {
        "length": 32,
        "start": 1612
      }
    ]
  },
  "source": "//SPDX-License-Identifier: MIT\npragma solidity ^0.8.0;\n\nimport \"@openzeppelin/contracts-upgradeable/proxy/utils/Initializable.sol\";\n\nimport \"@openzeppelin/contracts-upgradeable/access/OwnableUpgradeable.sol\";\nimport \"@openzeppelin/contracts-upgradeable/security/PausableUpgradeable.sol\";\nimport \"@openzeppelin/contracts-upgradeable/token/ERC721/ERC721Upgradeable.sol\";\nimport \"@openzeppelin/contracts-upgradeable/token/ERC721/utils/ERC721HolderUpgradeable.sol\";\nimport \"@openzeppelin/contracts-upgradeable/token/ERC20/IERC20Upgradeable.sol\";\nimport \"@openzeppelin/contracts-upgradeable/utils/math/SafeMathUpgradeable.sol\";\nimport \"@openzeppelin/contracts-upgradeable/token/ERC20/utils/SafeERC20Upgradeable.sol\";\nimport \"@openzeppelin/contracts-upgradeable/utils/math/SafeMathUpgradeable.sol\";\nimport \"@openzeppelin/contracts-upgradeable/security/ReentrancyGuardUpgradeable.sol\";\nimport \"@openzeppelin/contracts-upgradeable/proxy/utils/UUPSUpgradeable.sol\";\n\nimport \"./INftFractionsFactoryStorage.sol\";\nimport \"./NftFractionToken.sol\";\nimport \"../InitializedProxy.sol\";\n\ncontract NftFractionsFactory is\n  Initializable,\n  OwnableUpgradeable,\n  PausableUpgradeable,\n  UUPSUpgradeable\n{\n  /// @notice the TokenVault logic contract\n\n  INftFractionsFactoryStorage private _storage;\n  address public logic;\n\n  event Mint(\n    address indexed token,\n    uint256 id,\n    uint256 supply,\n    uint256 price,\n    address vault,\n    uint256 vaultId\n  );\n\n  // constructor() {\n  //   logic = address(new NftFractionToken());\n  // }\n\n  function initialize(address storageAddress) public initializer {\n    __Ownable_init();\n    __UUPSUpgradeable_init();\n    logic = address(new NftFractionToken());\n    _storage = INftFractionsFactoryStorage(storageAddress);\n  }\n\n  function _authorizeUpgrade(address) internal override onlyOwner {}\n\n  /// @notice the function to mint a new vault\n  /// @param _name the desired name of the vault\n  /// @param _symbol the desired sumbol of the vault\n  /// @param _token the ERC721 token address fo the NFT\n  /// @param _id the uint256 ID of the token\n  /// @param _supply is the initial total supply of the token\n  /// @param _fee is the fee\n  /// @param _listPrice the initial price of the NFT\n  /// @return the ID of the vault\n  function mint(\n    string memory _name,\n    string memory _symbol,\n    address _token,\n    uint256 _id,\n    uint256 _supply,\n    uint256 _fee,\n    uint256 _listPrice\n  ) external whenNotPaused returns (uint256) {\n    require(\n      !_storage.vaultExists(_token, _id),\n      \"NFT already locked in a vault\"\n    );\n    // Check if the caller owns the token or is approved for transfer\n    require(\n      IERC721(_token).getApproved(_id) == address(this) ||\n        IERC721(_token).ownerOf(_id) == msg.sender,\n      \"Caller must be approved or owner of token\"\n    );\n\n    _storage.setVaultExists(_token, _id);\n\n    bytes memory _initializationCalldata = abi.encodeWithSignature(\n      \"initialize(address,address,uint256,uint256,uint256,uint256,string,string)\",\n      msg.sender,\n      _token,\n      _id,\n      _supply,\n      _fee,\n      _listPrice,\n      _name,\n      _symbol\n    );\n\n    address vault = address(\n      new InitializedProxy(logic, _initializationCalldata)\n    );\n\n    _storage.setVault(vault, _id);\n    _storage.pushTokenAddressCreated(vault);\n\n    // Interact with external contracts after updating state\n    IERC721(_token).safeTransferFrom(msg.sender, vault, _id);\n    uint256 vaultCount = _storage.getVaultCount();\n    emit Mint(_token, _id, _supply, _listPrice, vault, vaultCount);\n    return vaultCount;\n  }\n\n  function checkIfVaultExists(\n    address _vaultAddress,\n    uint256 _tokenId\n  ) external view returns (bool) {\n    return _storage.vaultExists(_vaultAddress, _tokenId);\n  }\n\n  function getVaultContractByTokenId(\n    uint256 _tokenId\n  ) external view returns (INftFractionsFactoryStorage.Vault memory) {\n    uint256 vaultCount = _storage.getVaultCount();\n    for (uint256 i = 0; i < vaultCount; i++) {\n      INftFractionsFactoryStorage.Vault memory vault = _storage.getVault(i);\n      if (vault.tokenId == _tokenId) {\n        return vault;\n      }\n    }\n    revert(\"Vault not found\");\n  }\n\n  function getAllVaultsAddresses() external view returns (address[] memory) {\n    return _storage.getAllCreatedVaults();\n  }\n\n  function pause() external onlyOwner whenNotPaused {\n    _pause();\n    emit Paused(msg.sender);\n  }\n\n  function unpause() external onlyOwner whenPaused {\n    _unpause();\n    emit Unpaused(msg.sender);\n  }\n\n  fallback() external {\n    revert(\"This contract does not accept ETH or tokens\");\n  }\n}\n",
  "sourcePath": "/Users/alberto/Desktop/Enalbis/caskchain-mono/apps/contracts/contracts/NftFractions/NftFractionsFactory.sol",
  "compiler": {
    "name": "solc",
    "version": "0.8.17+commit.8df45f5f.Emscripten.clang"
  },
  "schemaVersion": "3.4.11",
  "updatedAt": "2023-11-02T11:32:29.142Z",
  "networkType": "ethereum",
  "devdoc": {
    "kind": "dev",
    "methods": {
      "mint(string,string,address,uint256,uint256,uint256,uint256)": {
        "params": {
          "_fee": "is the fee",
          "_id": "the uint256 ID of the token",
          "_listPrice": "the initial price of the NFT",
          "_name": "the desired name of the vault",
          "_supply": "is the initial total supply of the token",
          "_symbol": "the desired sumbol of the vault",
          "_token": "the ERC721 token address fo the NFT"
        },
        "returns": {
          "_0": "the ID of the vault"
        }
      },
      "owner()": {
        "details": "Returns the address of the current owner."
      },
      "paused()": {
        "details": "Returns true if the contract is paused, and false otherwise."
      },
      "proxiableUUID()": {
        "details": "Implementation of the ERC1822 {proxiableUUID} function. This returns the storage slot used by the implementation. It is used to validate the implementation's compatibility when performing an upgrade. IMPORTANT: A proxy pointing at a proxiable contract should not be considered proxiable itself, because this risks bricking a proxy that upgrades to it, by delegating to itself until out of gas. Thus it is critical that this function revert if invoked through a proxy. This is guaranteed by the `notDelegated` modifier."
      },
      "renounceOwnership()": {
        "details": "Leaves the contract without owner. It will not be possible to call `onlyOwner` functions anymore. Can only be called by the current owner. NOTE: Renouncing ownership will leave the contract without an owner, thereby removing any functionality that is only available to the owner."
      },
      "transferOwnership(address)": {
        "details": "Transfers ownership of the contract to a new account (`newOwner`). Can only be called by the current owner."
      },
      "upgradeTo(address)": {
        "details": "Upgrade the implementation of the proxy to `newImplementation`. Calls {_authorizeUpgrade}. Emits an {Upgraded} event."
      },
      "upgradeToAndCall(address,bytes)": {
        "details": "Upgrade the implementation of the proxy to `newImplementation`, and subsequently execute the function call encoded in `data`. Calls {_authorizeUpgrade}. Emits an {Upgraded} event."
      }
    },
    "version": 1
  },
  "userdoc": {
    "kind": "user",
    "methods": {
      "mint(string,string,address,uint256,uint256,uint256,uint256)": {
        "notice": "the function to mint a new vault"
      }
    },
    "version": 1
  }
}