{
  "contractName": "NftFractionsVendor",
  "abi": [
    {
      "anonymous": false,
      "inputs": [
        {
          "indexed": false,
          "internalType": "address",
          "name": "previousAdmin",
          "type": "address"
        },
        {
          "indexed": false,
          "internalType": "address",
          "name": "newAdmin",
          "type": "address"
        }
      ],
      "name": "AdminChanged",
      "type": "event"
    },
    {
      "anonymous": false,
      "inputs": [
        {
          "indexed": true,
          "internalType": "address",
          "name": "beacon",
          "type": "address"
        }
      ],
      "name": "BeaconUpgraded",
      "type": "event"
    },
    {
      "anonymous": false,
      "inputs": [
        {
          "indexed": false,
          "internalType": "address",
          "name": "buyer",
          "type": "address"
        },
        {
          "indexed": false,
          "internalType": "uint256",
          "name": "amountOfMATIC",
          "type": "uint256"
        },
        {
          "indexed": false,
          "internalType": "uint256",
          "name": "amountOfTokens",
          "type": "uint256"
        }
      ],
      "name": "BuyTokens",
      "type": "event"
    },
    {
      "anonymous": false,
      "inputs": [
        {
          "indexed": false,
          "internalType": "uint8",
          "name": "version",
          "type": "uint8"
        }
      ],
      "name": "Initialized",
      "type": "event"
    },
    {
      "anonymous": false,
      "inputs": [
        {
          "indexed": true,
          "internalType": "address",
          "name": "previousOwner",
          "type": "address"
        },
        {
          "indexed": true,
          "internalType": "address",
          "name": "newOwner",
          "type": "address"
        }
      ],
      "name": "OwnershipTransferred",
      "type": "event"
    },
    {
      "anonymous": false,
      "inputs": [
        {
          "indexed": true,
          "internalType": "address",
          "name": "implementation",
          "type": "address"
        }
      ],
      "name": "Upgraded",
      "type": "event"
    },
    {
      "inputs": [
        {
          "internalType": "address",
          "name": "",
          "type": "address"
        }
      ],
      "name": "activeAddressVendor",
      "outputs": [
        {
          "internalType": "bool",
          "name": "",
          "type": "bool"
        }
      ],
      "stateMutability": "view",
      "type": "function",
      "constant": true
    },
    {
      "inputs": [
        {
          "internalType": "address",
          "name": "",
          "type": "address"
        },
        {
          "internalType": "uint256",
          "name": "",
          "type": "uint256"
        }
      ],
      "name": "nftToVault",
      "outputs": [
        {
          "internalType": "bool",
          "name": "",
          "type": "bool"
        }
      ],
      "stateMutability": "view",
      "type": "function",
      "constant": true
    },
    {
      "inputs": [],
      "name": "owner",
      "outputs": [
        {
          "internalType": "address",
          "name": "",
          "type": "address"
        }
      ],
      "stateMutability": "view",
      "type": "function",
      "constant": true
    },
    {
      "inputs": [],
      "name": "proxiableUUID",
      "outputs": [
        {
          "internalType": "bytes32",
          "name": "",
          "type": "bytes32"
        }
      ],
      "stateMutability": "view",
      "type": "function",
      "constant": true
    },
    {
      "inputs": [],
      "name": "renounceOwnership",
      "outputs": [],
      "stateMutability": "nonpayable",
      "type": "function"
    },
    {
      "inputs": [
        {
          "internalType": "uint256",
          "name": "",
          "type": "uint256"
        }
      ],
      "name": "tokenAddressCreated",
      "outputs": [
        {
          "internalType": "address",
          "name": "",
          "type": "address"
        }
      ],
      "stateMutability": "view",
      "type": "function",
      "constant": true
    },
    {
      "inputs": [
        {
          "internalType": "address",
          "name": "",
          "type": "address"
        }
      ],
      "name": "tokens",
      "outputs": [
        {
          "internalType": "address",
          "name": "tokenAddress",
          "type": "address"
        },
        {
          "internalType": "uint256",
          "name": "totalSupply",
          "type": "uint256"
        },
        {
          "internalType": "uint256",
          "name": "listingPrice",
          "type": "uint256"
        },
        {
          "internalType": "bool",
          "name": "enableSell",
          "type": "bool"
        }
      ],
      "stateMutability": "view",
      "type": "function",
      "constant": true
    },
    {
      "inputs": [
        {
          "internalType": "address",
          "name": "newOwner",
          "type": "address"
        }
      ],
      "name": "transferOwnership",
      "outputs": [],
      "stateMutability": "nonpayable",
      "type": "function"
    },
    {
      "inputs": [
        {
          "internalType": "address",
          "name": "newImplementation",
          "type": "address"
        }
      ],
      "name": "upgradeTo",
      "outputs": [],
      "stateMutability": "nonpayable",
      "type": "function"
    },
    {
      "inputs": [
        {
          "internalType": "address",
          "name": "newImplementation",
          "type": "address"
        },
        {
          "internalType": "bytes",
          "name": "data",
          "type": "bytes"
        }
      ],
      "name": "upgradeToAndCall",
      "outputs": [],
      "stateMutability": "payable",
      "type": "function",
      "payable": true
    },
    {
      "inputs": [],
      "name": "vaultCount",
      "outputs": [
        {
          "internalType": "uint256",
          "name": "",
          "type": "uint256"
        }
      ],
      "stateMutability": "view",
      "type": "function",
      "constant": true
    },
    {
      "inputs": [
        {
          "internalType": "uint256",
          "name": "",
          "type": "uint256"
        }
      ],
      "name": "vaults",
      "outputs": [
        {
          "internalType": "address",
          "name": "vaultAddress",
          "type": "address"
        },
        {
          "internalType": "uint256",
          "name": "count",
          "type": "uint256"
        }
      ],
      "stateMutability": "view",
      "type": "function",
      "constant": true
    },
    {
      "inputs": [],
      "name": "initialize",
      "outputs": [],
      "stateMutability": "nonpayable",
      "type": "function"
    },
    {
      "inputs": [
        {
          "internalType": "address",
          "name": "tokenAddress",
          "type": "address"
        },
        {
          "internalType": "uint256",
          "name": "totalSupply",
          "type": "uint256"
        },
        {
          "internalType": "uint256",
          "name": "listingPrice",
          "type": "uint256"
        },
        {
          "internalType": "bool",
          "name": "enableSell",
          "type": "bool"
        }
      ],
      "name": "updateTokenVendor",
      "outputs": [],
      "stateMutability": "nonpayable",
      "type": "function"
    },
    {
      "inputs": [
        {
          "internalType": "address",
          "name": "tokenAddress",
          "type": "address"
        },
        {
          "internalType": "bool",
          "name": "state",
          "type": "bool"
        }
      ],
      "name": "updateTokenVendorSellState",
      "outputs": [],
      "stateMutability": "nonpayable",
      "type": "function"
    },
    {
      "inputs": [
        {
          "internalType": "address",
          "name": "tokenAddress",
          "type": "address"
        },
        {
          "internalType": "bool",
          "name": "state",
          "type": "bool"
        }
      ],
      "name": "updateStateAddressVendor",
      "outputs": [],
      "stateMutability": "nonpayable",
      "type": "function"
    },
    {
      "inputs": [
        {
          "internalType": "address",
          "name": "tokenAddress",
          "type": "address"
        }
      ],
      "name": "getUnitPrice",
      "outputs": [
        {
          "internalType": "uint256",
          "name": "",
          "type": "uint256"
        }
      ],
      "stateMutability": "view",
      "type": "function",
      "constant": true
    },
    {
      "inputs": [
        {
          "internalType": "address",
          "name": "tokenAddress",
          "type": "address"
        }
      ],
      "name": "buyTokens",
      "outputs": [
        {
          "internalType": "uint256",
          "name": "tokenAmount",
          "type": "uint256"
        }
      ],
      "stateMutability": "payable",
      "type": "function",
      "payable": true
    },
    {
      "inputs": [
        {
          "internalType": "uint256",
          "name": "tokenAmountToSell",
          "type": "uint256"
        },
        {
          "internalType": "address",
          "name": "tokenAddress",
          "type": "address"
        }
      ],
      "name": "sellTokens",
      "outputs": [],
      "stateMutability": "nonpayable",
      "type": "function"
    },
    {
      "inputs": [],
      "name": "withdraw",
      "outputs": [],
      "stateMutability": "nonpayable",
      "type": "function"
    }
  ],
  "bytecode": "0x60a06040523060805234801561001457600080fd5b50608051611a3461004c60003960008181610483015281816104cc015281816106e60152818161072601526107b50152611a346000f3fe60806040526004361061011f5760003560e01c80638da5cb5b116100a0578063e486033911610064578063e486033914610370578063e8d59fa8146103eb578063ec8ac4d81461040b578063ee35db5f1461041e578063f2fde38b1461045957600080fd5b80638da5cb5b146102a857806399eec645146102da578063a2f016a8146102fa578063a7c6a1001461033a578063b8e6e1a41461035057600080fd5b8063670f7151116100e7578063670f7151146101b6578063715018a6146101d657806377f510ad146101eb5780638129fc1c146102345780638c64ea4a1461024957600080fd5b80633659cfe6146101245780633ccfd60b14610146578063437e0ff61461015b5780634f1ef2861461017b57806352d1902d1461018e575b600080fd5b34801561013057600080fd5b5061014461013f3660046115b2565b610479565b005b34801561015257600080fd5b50610144610561565b34801561016757600080fd5b506101446101763660046115db565b610648565b610144610189366004611639565b6106dc565b34801561019a57600080fd5b506101a36107a8565b6040519081526020015b60405180910390f35b3480156101c257600080fd5b506101446101d13660046116fb565b61085b565b3480156101e257600080fd5b50610144610bec565b3480156101f757600080fd5b50610144610206366004611727565b6001600160a01b03919091166000908152602081905260409020600301805460ff1916911515919091179055565b34801561024057600080fd5b50610144610c00565b34801561025557600080fd5b5061028961026436600461175e565b600460205260009081526040902080546001909101546001600160a01b039091169082565b604080516001600160a01b0390931683526020830191909152016101ad565b3480156102b457600080fd5b506039546001600160a01b03165b6040516001600160a01b0390911681526020016101ad565b3480156102e657600080fd5b506101a36102f53660046115b2565b610d18565b34801561030657600080fd5b5061032a6103153660046115b2565b60016020526000908152604090205460ff1681565b60405190151581526020016101ad565b34801561034657600080fd5b506101a360025481565b34801561035c57600080fd5b506102c261036b36600461175e565b610d4b565b34801561037c57600080fd5b506103bf61038b3660046115b2565b60006020819052908152604090208054600182015460028301546003909301546001600160a01b0390921692909160ff1684565b604080516001600160a01b039095168552602085019390935291830152151560608201526080016101ad565b3480156103f757600080fd5b50610144610406366004611727565b610d75565b6101a36104193660046115b2565b610da8565b34801561042a57600080fd5b5061032a610439366004611777565b600560209081526000928352604080842090915290825290205460ff1681565b34801561046557600080fd5b506101446104743660046115b2565b611031565b6001600160a01b037f00000000000000000000000000000000000000000000000000000000000000001630036104ca5760405162461bcd60e51b81526004016104c1906117a1565b60405180910390fd5b7f00000000000000000000000000000000000000000000000000000000000000006001600160a01b03166105136000805160206119b8833981519152546001600160a01b031690565b6001600160a01b0316146105395760405162461bcd60e51b81526004016104c1906117ed565b610542816110a7565b6040805160008082526020820190925261055e918391906110af565b50565b61056961121f565b47806105b75760405162461bcd60e51b815260206004820152601860248201527f4e6f204554482070726573656e7420696e2056656e646f72000000000000000060448201526064016104c1565b604051600090339047908381818185875af1925050503d80600081146105f9576040519150601f19603f3d011682016040523d82523d6000602084013e6105fe565b606091505b50509050806106445760405162461bcd60e51b81526020600482015260126024820152714661696c656420746f20776974686472617760701b60448201526064016104c1565b5050565b61065061121f565b600083116106705760405162461bcd60e51b81526004016104c190611839565b600082116106905760405162461bcd60e51b81526004016104c190611839565b6001600160a01b0393909316600081815260208190526040902080546001600160a01b031916909117815560018101929092556002820155600301805460ff1916911515919091179055565b6001600160a01b037f00000000000000000000000000000000000000000000000000000000000000001630036107245760405162461bcd60e51b81526004016104c1906117a1565b7f00000000000000000000000000000000000000000000000000000000000000006001600160a01b031661076d6000805160206119b8833981519152546001600160a01b031690565b6001600160a01b0316146107935760405162461bcd60e51b81526004016104c1906117ed565b61079c826110a7565b610644828260016110af565b6000306001600160a01b037f000000000000000000000000000000000000000000000000000000000000000016146108485760405162461bcd60e51b815260206004820152603860248201527f555550535570677261646561626c653a206d757374206e6f742062652063616c60448201527f6c6564207468726f7567682064656c656761746563616c6c000000000000000060648201526084016104c1565b506000805160206119b883398151915290565b600082116108c05760405162461bcd60e51b815260206004820152602c60248201527f5370656369667920616e20616d6f756e74206f6620746f6b656e20677265617460448201526b6572207468616e207a65726f60a01b60648201526084016104c1565b6001600160a01b03811660009081526020819052604090206003015460ff1615156001146109265760405162461bcd60e51b815260206004820152601360248201527214d95b1b081a5cc81b9bdd08195b98589b1959606a1b60448201526064016104c1565b6040516370a0823160e01b81523360048201526000906001600160a01b038316906370a0823190602401602060405180830381865afa15801561096d573d6000803e3d6000fd5b505050506040513d601f19601f82011682018060405250810190610991919061187c565b9050828110156109e35760405162461bcd60e51b815260206004820152601c60248201527f596f75206861766520696e73756666696369656e7420746f6b656e730000000060448201526064016104c1565b6001600160a01b03821660009081526020819052604081206001810154600290910154610a109086611895565b610a1a91906118ba565b90504781811015610a6d5760405162461bcd60e51b815260206004820152601d60248201527f56656e646f722068617320696e73756666696369656e742066756e647300000060448201526064016104c1565b6040516323b872dd60e01b8152336004820152306024820152604481018690526000906001600160a01b038616906323b872dd906064016020604051808303816000875af1158015610ac3573d6000803e3d6000fd5b505050506040513d601f19601f82011682018060405250810190610ae791906118dc565b905080610b4c5760405162461bcd60e51b815260206004820152602d60248201527f4661696c656420746f207472616e7366657220746f6b656e732066726f6d207560448201526c39b2b9103a37903b32b73237b960991b60648201526084016104c1565b60405133908490600081818185875af1925050503d8060008114610b8c576040519150601f19603f3d011682016040523d82523d6000602084013e610b91565b606091505b50508091505080610be45760405162461bcd60e51b815260206004820152601e60248201527f4661696c656420746f2073656e642045544820746f207468652075736572000060448201526064016104c1565b505050505050565b610bf461121f565b610bfe6000611279565b565b600654610100900460ff1615808015610c205750600654600160ff909116105b80610c3a5750303b158015610c3a575060065460ff166001145b610c9d5760405162461bcd60e51b815260206004820152602e60248201527f496e697469616c697a61626c653a20636f6e747261637420697320616c72656160448201526d191e481a5b9a5d1a585b1a5e995960921b60648201526084016104c1565b6006805460ff191660011790558015610cc0576006805461ff0019166101001790555b610cc86112cb565b610cd06112fa565b801561055e576006805461ff0019169055604051600181527f7f26b83ff96e1f2b6a682f133852f6798a09c465da95921460cefb38474024989060200160405180910390a150565b6001600160a01b03811660009081526020819052604081206002810154600190910154610d4591906118ba565b92915050565b60038181548110610d5b57600080fd5b6000918252602090912001546001600160a01b0316905081565b610d7d61121f565b6001600160a01b03919091166000908152600160205260409020805460ff1916911515919091179055565b6000803411610e085760405162461bcd60e51b815260206004820152602660248201527f596f75206e65656420746f2073656e6420736f6d65204d4154494320746f20706044820152651c9bd8d9595960d21b60648201526084016104c1565b6001600160a01b03821660009081526020819052604090206003015460ff161515600114610e6e5760405162461bcd60e51b815260206004820152601360248201527214d95b1b081a5cc81b9bdd08195b98589b1959606a1b60448201526064016104c1565b6001600160a01b03821660009081526020819052604081206002810154600190910154610e9b9034611895565b610ea591906118ba565b6040516370a0823160e01b81523060048201529091506000906001600160a01b038516906370a0823190602401602060405180830381865afa158015610eef573d6000803e3d6000fd5b505050506040513d601f19601f82011682018060405250810190610f13919061187c565b905081811015610f655760405162461bcd60e51b815260206004820152601e60248201527f56656e646f722068617320696e73756666696369656e7420746f6b656e73000060448201526064016104c1565b60405163a9059cbb60e01b8152336004820152602481018390526000906001600160a01b0386169063a9059cbb906044016020604051808303816000875af1158015610fb5573d6000803e3d6000fd5b505050506040513d601f19601f82011682018060405250810190610fd991906118dc565b9050806110285760405162461bcd60e51b815260206004820181905260248201527f4661696c656420746f207472616e7366657220746f6b656e20746f207573657260448201526064016104c1565b50909392505050565b61103961121f565b6001600160a01b03811661109e5760405162461bcd60e51b815260206004820152602660248201527f4f776e61626c653a206e6577206f776e657220697320746865207a65726f206160448201526564647265737360d01b60648201526084016104c1565b61055e81611279565b61055e61121f565b7f4910fdfa16fed3260ed0e7147f7cc6da11a60208b5b9406d12a635614ffd91435460ff16156110e7576110e283611321565b505050565b826001600160a01b03166352d1902d6040518163ffffffff1660e01b8152600401602060405180830381865afa925050508015611141575060408051601f3d908101601f1916820190925261113e9181019061187c565b60015b6111a45760405162461bcd60e51b815260206004820152602e60248201527f45524331393637557067726164653a206e657720696d706c656d656e7461746960448201526d6f6e206973206e6f74205555505360901b60648201526084016104c1565b6000805160206119b883398151915281146112135760405162461bcd60e51b815260206004820152602960248201527f45524331393637557067726164653a20756e737570706f727465642070726f786044820152681a58589b195555525160ba1b60648201526084016104c1565b506110e28383836113bd565b6039546001600160a01b03163314610bfe5760405162461bcd60e51b815260206004820181905260248201527f4f776e61626c653a2063616c6c6572206973206e6f7420746865206f776e657260448201526064016104c1565b603980546001600160a01b038381166001600160a01b0319831681179093556040519116919082907f8be0079c531659141344cd1fd0a4f28419497f9722a3daafe3b4186f6b6457e090600090a35050565b600654610100900460ff166112f25760405162461bcd60e51b81526004016104c1906118f9565b610bfe6113e8565b600654610100900460ff16610bfe5760405162461bcd60e51b81526004016104c1906118f9565b6001600160a01b0381163b61138e5760405162461bcd60e51b815260206004820152602d60248201527f455243313936373a206e657720696d706c656d656e746174696f6e206973206e60448201526c1bdd08184818dbdb9d1c9858dd609a1b60648201526084016104c1565b6000805160206119b883398151915280546001600160a01b0319166001600160a01b0392909216919091179055565b6113c683611418565b6000825111806113d35750805b156110e2576113e28383611458565b50505050565b600654610100900460ff1661140f5760405162461bcd60e51b81526004016104c1906118f9565b610bfe33611279565b61142181611321565b6040516001600160a01b038216907fbc7cd75a20ee27fd9adebab32041f755214dbc6bffa90cc0225b39da2e5c2d3b90600090a250565b60606001600160a01b0383163b6114c05760405162461bcd60e51b815260206004820152602660248201527f416464726573733a2064656c65676174652063616c6c20746f206e6f6e2d636f6044820152651b9d1c9858dd60d21b60648201526084016104c1565b600080846001600160a01b0316846040516114db9190611968565b600060405180830381855af49150503d8060008114611516576040519150601f19603f3d011682016040523d82523d6000602084013e61151b565b606091505b509150915061154382826040518060600160405280602781526020016119d86027913961154c565b95945050505050565b6060831561155b575081611565565b611565838361156c565b9392505050565b81511561157c5781518083602001fd5b8060405162461bcd60e51b81526004016104c19190611984565b80356001600160a01b03811681146115ad57600080fd5b919050565b6000602082840312156115c457600080fd5b61156582611596565b801515811461055e57600080fd5b600080600080608085870312156115f157600080fd5b6115fa85611596565b935060208501359250604085013591506060850135611618816115cd565b939692955090935050565b634e487b7160e01b600052604160045260246000fd5b6000806040838503121561164c57600080fd5b61165583611596565b9150602083013567ffffffffffffffff8082111561167257600080fd5b818501915085601f83011261168657600080fd5b81358181111561169857611698611623565b604051601f8201601f19908116603f011681019083821181831017156116c0576116c0611623565b816040528281528860208487010111156116d957600080fd5b8260208601602083013760006020848301015280955050505050509250929050565b6000806040838503121561170e57600080fd5b8235915061171e60208401611596565b90509250929050565b6000806040838503121561173a57600080fd5b61174383611596565b91506020830135611753816115cd565b809150509250929050565b60006020828403121561177057600080fd5b5035919050565b6000806040838503121561178a57600080fd5b61179383611596565b946020939093013593505050565b6020808252602c908201527f46756e6374696f6e206d7573742062652063616c6c6564207468726f7567682060408201526b19195b1959d85d1958d85b1b60a21b606082015260800190565b6020808252602c908201527f46756e6374696f6e206d7573742062652063616c6c6564207468726f7567682060408201526b6163746976652070726f787960a01b606082015260800190565b60208082526023908201527f546f6b656e2070657220657468206d757374206265206869676865722074686160408201526206e20360ec1b606082015260800190565b60006020828403121561188e57600080fd5b5051919050565b8082028115828204841417610d4557634e487b7160e01b600052601160045260246000fd5b6000826118d757634e487b7160e01b600052601260045260246000fd5b500490565b6000602082840312156118ee57600080fd5b8151611565816115cd565b6020808252602b908201527f496e697469616c697a61626c653a20636f6e7472616374206973206e6f74206960408201526a6e697469616c697a696e6760a81b606082015260800190565b60005b8381101561195f578181015183820152602001611947565b50506000910152565b6000825161197a818460208701611944565b9190910192915050565b60208152600082518060208401526119a3816040850160208701611944565b601f01601f1916919091016040019291505056fe360894a13ba1a3210667c828492db98dca3e2076cc3735a920a3ca505d382bbc416464726573733a206c6f772d6c6576656c2064656c65676174652063616c6c206661696c6564a264697066735822122075c9aec41b344c08287b15c2452a56ab3df40bde4dc5dc5722030fea7684176964736f6c63430008110033",
  "immutableReferences": {
    "746": [
      {
        "length": 32,
        "start": 1155
      },
      {
        "length": 32,
        "start": 1228
      },
      {
        "length": 32,
        "start": 1766
      },
      {
        "length": 32,
        "start": 1830
      },
      {
        "length": 32,
        "start": 1973
      }
    ]
  },
  "source": "// SPDX-License-Identifier: Unlicense\npragma solidity ^0.8.4;\nimport \"@openzeppelin/contracts-upgradeable/proxy/utils/Initializable.sol\";\n\nimport \"@openzeppelin/contracts-upgradeable/token/ERC20/ERC20Upgradeable.sol\";\nimport \"@openzeppelin/contracts-upgradeable/access/OwnableUpgradeable.sol\";\nimport \"./NftFractionsVendor.sol\";\nimport \"./NftFractionsStorage.sol\";\n\nimport \"@openzeppelin/contracts-upgradeable/proxy/utils/UUPSUpgradeable.sol\";\n\ncontract NftFractionsVendor is\n  NftFractionsStorage,\n  Initializable,\n  OwnableUpgradeable,\n  UUPSUpgradeable\n{\n  event BuyTokens(address buyer, uint256 amountOfMATIC, uint256 amountOfTokens);\n\n  function initialize() public initializer {\n    __Ownable_init();\n    __UUPSUpgradeable_init();\n  }\n\n  function _authorizeUpgrade(address) internal override onlyOwner {}\n\n  function updateTokenVendor(\n    address tokenAddress,\n    uint256 totalSupply,\n    uint256 listingPrice,\n    bool enableSell\n  ) public onlyOwner {\n    require(totalSupply > 0, \"Token per eth must be higher than 0\");\n    require(listingPrice > 0, \"Token per eth must be higher than 0\");\n    tokens[tokenAddress].tokenAddress = tokenAddress;\n    tokens[tokenAddress].totalSupply = totalSupply;\n    tokens[tokenAddress].listingPrice = listingPrice;\n    tokens[tokenAddress].enableSell = enableSell;\n  }\n\n  function updateTokenVendorSellState(address tokenAddress, bool state) public {\n    tokens[tokenAddress].enableSell = state;\n  }\n\n  function updateStateAddressVendor(\n    address tokenAddress,\n    bool state\n  ) public onlyOwner {\n    activeAddressVendor[tokenAddress] = state;\n  }\n\n  function getUnitPrice(address tokenAddress) external view returns (uint256) {\n    return tokens[tokenAddress].totalSupply / tokens[tokenAddress].listingPrice;\n  }\n\n  function buyTokens(\n    address tokenAddress\n  ) public payable returns (uint256 tokenAmount) {\n    require(msg.value > 0, \"You need to send some MATIC to proceed\");\n    require(tokens[tokenAddress].enableSell == true, \"Sell is not enabled\");\n\n    uint256 amountToBuy = (msg.value * tokens[tokenAddress].totalSupply) /\n      tokens[tokenAddress].listingPrice;\n\n    uint256 vendorBalance = ERC20Upgradeable(tokenAddress).balanceOf(\n      address(this)\n    );\n    require(vendorBalance >= amountToBuy, \"Vendor has insufficient tokens\");\n\n    bool sent = ERC20Upgradeable(tokenAddress).transfer(\n      msg.sender,\n      amountToBuy\n    );\n    require(sent, \"Failed to transfer token to user\");\n\n    return amountToBuy;\n  }\n\n  function sellTokens(uint256 tokenAmountToSell, address tokenAddress) public {\n    require(\n      tokenAmountToSell > 0,\n      \"Specify an amount of token greater than zero\"\n    );\n    require(tokens[tokenAddress].enableSell == true, \"Sell is not enabled\");\n    uint256 userBalance = ERC20Upgradeable(tokenAddress).balanceOf(msg.sender);\n    require(userBalance >= tokenAmountToSell, \"You have insufficient tokens\");\n\n    uint256 amountOfETHToTransfer = (tokenAmountToSell *\n      tokens[tokenAddress].listingPrice) / tokens[tokenAddress].totalSupply;\n    uint256 ownerETHBalance = address(this).balance;\n    require(\n      ownerETHBalance >= amountOfETHToTransfer,\n      \"Vendor has insufficient funds\"\n    );\n    bool sent = ERC20Upgradeable(tokenAddress).transferFrom(\n      msg.sender,\n      address(this),\n      tokenAmountToSell\n    );\n    require(sent, \"Failed to transfer tokens from user to vendor\");\n\n    (sent, ) = msg.sender.call{ value: amountOfETHToTransfer }(\"\");\n    require(sent, \"Failed to send ETH to the user\");\n  }\n\n  function withdraw() public onlyOwner {\n    uint256 ownerBalance = address(this).balance;\n    require(ownerBalance > 0, \"No ETH present in Vendor\");\n    (bool sent, ) = msg.sender.call{ value: address(this).balance }(\"\");\n    require(sent, \"Failed to withdraw\");\n  }\n}\n",
  "sourcePath": "/Users/alberto/Desktop/Enalbis/caskchain-mono/apps/contracts/contracts/NftFractions/NftFractionsVendor.sol",
  "compiler": {
    "name": "solc",
    "version": "0.8.17+commit.8df45f5f.Emscripten.clang"
  },
  "schemaVersion": "3.4.11",
  "updatedAt": "2023-05-05T12:05:18.436Z",
  "networkType": "ethereum",
  "devdoc": {
    "kind": "dev",
    "methods": {
      "owner()": {
        "details": "Returns the address of the current owner."
      },
      "proxiableUUID()": {
        "details": "Implementation of the ERC1822 {proxiableUUID} function. This returns the storage slot used by the implementation. It is used to validate the implementation's compatibility when performing an upgrade. IMPORTANT: A proxy pointing at a proxiable contract should not be considered proxiable itself, because this risks bricking a proxy that upgrades to it, by delegating to itself until out of gas. Thus it is critical that this function revert if invoked through a proxy. This is guaranteed by the `notDelegated` modifier."
      },
      "renounceOwnership()": {
        "details": "Leaves the contract without owner. It will not be possible to call `onlyOwner` functions anymore. Can only be called by the current owner. NOTE: Renouncing ownership will leave the contract without an owner, thereby removing any functionality that is only available to the owner."
      },
      "transferOwnership(address)": {
        "details": "Transfers ownership of the contract to a new account (`newOwner`). Can only be called by the current owner."
      },
      "upgradeTo(address)": {
        "details": "Upgrade the implementation of the proxy to `newImplementation`. Calls {_authorizeUpgrade}. Emits an {Upgraded} event."
      },
      "upgradeToAndCall(address,bytes)": {
        "details": "Upgrade the implementation of the proxy to `newImplementation`, and subsequently execute the function call encoded in `data`. Calls {_authorizeUpgrade}. Emits an {Upgraded} event."
      }
    },
    "version": 1
  },
  "userdoc": {
    "kind": "user",
    "methods": {
      "vaultCount()": {
        "notice": "the number of ERC721 vaults"
      },
      "vaults(uint256)": {
        "notice": "the mapping of vault number to vault contract"
      }
    },
    "version": 1
  }
}