{
  "contractName": "NftFractionsVendor",
  "abi": [
    {
      "anonymous": false,
      "inputs": [
        {
          "indexed": false,
          "internalType": "address",
          "name": "previousAdmin",
          "type": "address"
        },
        {
          "indexed": false,
          "internalType": "address",
          "name": "newAdmin",
          "type": "address"
        }
      ],
      "name": "AdminChanged",
      "type": "event"
    },
    {
      "anonymous": false,
      "inputs": [
        {
          "indexed": true,
          "internalType": "address",
          "name": "beacon",
          "type": "address"
        }
      ],
      "name": "BeaconUpgraded",
      "type": "event"
    },
    {
      "anonymous": false,
      "inputs": [
        {
          "indexed": false,
          "internalType": "address",
          "name": "buyer",
          "type": "address"
        },
        {
          "indexed": false,
          "internalType": "uint256",
          "name": "amountOfMATIC",
          "type": "uint256"
        },
        {
          "indexed": false,
          "internalType": "uint256",
          "name": "amountOfTokens",
          "type": "uint256"
        }
      ],
      "name": "BuyTokens",
      "type": "event"
    },
    {
      "anonymous": false,
      "inputs": [
        {
          "indexed": false,
          "internalType": "uint8",
          "name": "version",
          "type": "uint8"
        }
      ],
      "name": "Initialized",
      "type": "event"
    },
    {
      "anonymous": false,
      "inputs": [
        {
          "indexed": true,
          "internalType": "address",
          "name": "previousOwner",
          "type": "address"
        },
        {
          "indexed": true,
          "internalType": "address",
          "name": "newOwner",
          "type": "address"
        }
      ],
      "name": "OwnershipTransferred",
      "type": "event"
    },
    {
      "anonymous": false,
      "inputs": [
        {
          "indexed": true,
          "internalType": "address",
          "name": "implementation",
          "type": "address"
        }
      ],
      "name": "Upgraded",
      "type": "event"
    },
    {
      "inputs": [],
      "name": "owner",
      "outputs": [
        {
          "internalType": "address",
          "name": "",
          "type": "address"
        }
      ],
      "stateMutability": "view",
      "type": "function",
      "constant": true
    },
    {
      "inputs": [],
      "name": "proxiableUUID",
      "outputs": [
        {
          "internalType": "bytes32",
          "name": "",
          "type": "bytes32"
        }
      ],
      "stateMutability": "view",
      "type": "function",
      "constant": true
    },
    {
      "inputs": [],
      "name": "renounceOwnership",
      "outputs": [],
      "stateMutability": "nonpayable",
      "type": "function"
    },
    {
      "inputs": [
        {
          "internalType": "address",
          "name": "newOwner",
          "type": "address"
        }
      ],
      "name": "transferOwnership",
      "outputs": [],
      "stateMutability": "nonpayable",
      "type": "function"
    },
    {
      "inputs": [
        {
          "internalType": "address",
          "name": "newImplementation",
          "type": "address"
        }
      ],
      "name": "upgradeTo",
      "outputs": [],
      "stateMutability": "nonpayable",
      "type": "function"
    },
    {
      "inputs": [
        {
          "internalType": "address",
          "name": "newImplementation",
          "type": "address"
        },
        {
          "internalType": "bytes",
          "name": "data",
          "type": "bytes"
        }
      ],
      "name": "upgradeToAndCall",
      "outputs": [],
      "stateMutability": "payable",
      "type": "function",
      "payable": true
    },
    {
      "inputs": [
        {
          "internalType": "address",
          "name": "storageAddress",
          "type": "address"
        }
      ],
      "name": "initialize",
      "outputs": [],
      "stateMutability": "nonpayable",
      "type": "function"
    },
    {
      "inputs": [
        {
          "internalType": "address",
          "name": "tokenAddress",
          "type": "address"
        },
        {
          "internalType": "uint256",
          "name": "totalSupply",
          "type": "uint256"
        },
        {
          "internalType": "uint256",
          "name": "listingPrice",
          "type": "uint256"
        },
        {
          "internalType": "bool",
          "name": "enableSell",
          "type": "bool"
        }
      ],
      "name": "updateTokenVendor",
      "outputs": [],
      "stateMutability": "nonpayable",
      "type": "function"
    },
    {
      "inputs": [
        {
          "internalType": "address",
          "name": "tokenAddress",
          "type": "address"
        },
        {
          "internalType": "bool",
          "name": "state",
          "type": "bool"
        }
      ],
      "name": "updateTokenVendorState",
      "outputs": [],
      "stateMutability": "nonpayable",
      "type": "function"
    },
    {
      "inputs": [
        {
          "internalType": "address",
          "name": "tokenAddress",
          "type": "address"
        },
        {
          "internalType": "bool",
          "name": "state",
          "type": "bool"
        }
      ],
      "name": "updateStateAddress",
      "outputs": [],
      "stateMutability": "nonpayable",
      "type": "function"
    },
    {
      "inputs": [
        {
          "internalType": "address",
          "name": "tokenAddress",
          "type": "address"
        }
      ],
      "name": "getTokenInfo",
      "outputs": [
        {
          "components": [
            {
              "internalType": "address",
              "name": "tokenAddress",
              "type": "address"
            },
            {
              "internalType": "uint256",
              "name": "totalSupply",
              "type": "uint256"
            },
            {
              "internalType": "uint256",
              "name": "listingPrice",
              "type": "uint256"
            },
            {
              "internalType": "bool",
              "name": "enableSell",
              "type": "bool"
            }
          ],
          "internalType": "struct INftFractionsVendorStorage.TokenPaymentInfo",
          "name": "",
          "type": "tuple"
        }
      ],
      "stateMutability": "view",
      "type": "function",
      "constant": true
    },
    {
      "inputs": [
        {
          "internalType": "address",
          "name": "tokenAddress",
          "type": "address"
        }
      ],
      "name": "getUnitPrice",
      "outputs": [
        {
          "internalType": "uint256",
          "name": "",
          "type": "uint256"
        }
      ],
      "stateMutability": "view",
      "type": "function",
      "constant": true
    },
    {
      "inputs": [
        {
          "internalType": "address",
          "name": "tokenAddress",
          "type": "address"
        }
      ],
      "name": "buyTokens",
      "outputs": [
        {
          "internalType": "uint256",
          "name": "tokenAmount",
          "type": "uint256"
        }
      ],
      "stateMutability": "payable",
      "type": "function",
      "payable": true
    },
    {
      "inputs": [
        {
          "internalType": "uint256",
          "name": "tokenAmountToSell",
          "type": "uint256"
        },
        {
          "internalType": "address",
          "name": "tokenAddress",
          "type": "address"
        }
      ],
      "name": "sellTokens",
      "outputs": [],
      "stateMutability": "nonpayable",
      "type": "function"
    },
    {
      "inputs": [],
      "name": "withdraw",
      "outputs": [],
      "stateMutability": "nonpayable",
      "type": "function"
    }
  ],
  "bytecode": "0x60a06040523060805234801561001457600080fd5b50608051611af461004c60003960008181610395015281816103de015281816106270152818161066701526106f60152611af46000f3fe6080604052600436106100e85760003560e01c806370c8dc691161008a57806399eec6451161005957806399eec6451461027e578063c4d66de81461029e578063ec8ac4d8146102be578063f2fde38b146102d157600080fd5b806370c8dc6914610201578063715018a614610221578063879f7e4b146102365780638da5cb5b1461025657600080fd5b8063437e0ff6116100c6578063437e0ff61461018b5780634f1ef286146101ab57806352d1902d146101be578063670f7151146101e157600080fd5b80631f69565f146100ed5780633659cfe6146101545780633ccfd60b14610176575b600080fd5b3480156100f957600080fd5b5061010d61010836600461162a565b6102f1565b60405161014b919081516001600160a01b03168152602080830151908201526040808301519082015260609182015115159181019190915260800190565b60405180910390f35b34801561016057600080fd5b5061017461016f36600461162a565b61038b565b005b34801561018257600080fd5b50610174610473565b34801561019757600080fd5b506101746101a6366004611655565b61055a565b6101746101b93660046116e6565b61061d565b3480156101ca57600080fd5b506101d36106e9565b60405190815260200161014b565b3480156101ed57600080fd5b506101746101fc36600461178e565b61079c565b34801561020d57600080fd5b5061017461021c3660046117be565b610b6f565b34801561022d57600080fd5b50610174610bdb565b34801561024257600080fd5b506101746102513660046117be565b610bef565b34801561026257600080fd5b506033546040516001600160a01b03909116815260200161014b565b34801561028a57600080fd5b506101d361029936600461162a565b610c31565b3480156102aa57600080fd5b506101746102b936600461162a565b610cb9565b6101d36102cc36600461162a565b610ded565b3480156102dd57600080fd5b506101746102ec36600461162a565b6110ba565b60408051608081018252600080825260208201819052918101829052606081019190915260c95460405163485ee47b60e11b81526001600160a01b03848116600483015260009216906390bdc8f690602401608060405180830381865afa158015610360573d6000803e3d6000fd5b505050506040513d601f19601f8201168201806040525081019061038491906117ec565b9392505050565b6001600160a01b037f00000000000000000000000000000000000000000000000000000000000000001630036103dc5760405162461bcd60e51b81526004016103d390611861565b60405180910390fd5b7f00000000000000000000000000000000000000000000000000000000000000006001600160a01b0316610425600080516020611a78833981519152546001600160a01b031690565b6001600160a01b03161461044b5760405162461bcd60e51b81526004016103d3906118ad565b61045481611130565b6040805160008082526020820190925261047091839190611138565b50565b61047b6112a8565b47806104c95760405162461bcd60e51b815260206004820152601860248201527f4e6f204554482070726573656e7420696e2056656e646f72000000000000000060448201526064016103d3565b604051600090339047908381818185875af1925050503d806000811461050b576040519150601f19603f3d011682016040523d82523d6000602084013e610510565b606091505b50509050806105565760405162461bcd60e51b81526020600482015260126024820152714661696c656420746f20776974686472617760701b60448201526064016103d3565b5050565b6105626112a8565b600083116105825760405162461bcd60e51b81526004016103d3906118f9565b600082116105a25760405162461bcd60e51b81526004016103d3906118f9565b60c954604051630105d62760e31b81526001600160a01b038681166004830152602482018690526044820185905283151560648301529091169063082eb13890608401600060405180830381600087803b1580156105ff57600080fd5b505af1158015610613573d6000803e3d6000fd5b5050505050505050565b6001600160a01b037f00000000000000000000000000000000000000000000000000000000000000001630036106655760405162461bcd60e51b81526004016103d390611861565b7f00000000000000000000000000000000000000000000000000000000000000006001600160a01b03166106ae600080516020611a78833981519152546001600160a01b031690565b6001600160a01b0316146106d45760405162461bcd60e51b81526004016103d3906118ad565b6106dd82611130565b61055682826001611138565b6000306001600160a01b037f000000000000000000000000000000000000000000000000000000000000000016146107895760405162461bcd60e51b815260206004820152603860248201527f555550535570677261646561626c653a206d757374206e6f742062652063616c60448201527f6c6564207468726f7567682064656c656761746563616c6c000000000000000060648201526084016103d3565b50600080516020611a7883398151915290565b60c95460405163485ee47b60e11b81526001600160a01b03838116600483015260009216906390bdc8f690602401608060405180830381865afa1580156107e7573d6000803e3d6000fd5b505050506040513d601f19601f8201168201806040525081019061080b91906117ec565b9050600083116108725760405162461bcd60e51b815260206004820152602c60248201527f5370656369667920616e20616d6f756e74206f6620746f6b656e20677265617460448201526b6572207468616e207a65726f60a01b60648201526084016103d3565b606081015115156001146108be5760405162461bcd60e51b815260206004820152601360248201527214d95b1b081a5cc81b9bdd08195b98589b1959606a1b60448201526064016103d3565b6040516370a0823160e01b81523360048201526000906001600160a01b038416906370a0823190602401602060405180830381865afa158015610905573d6000803e3d6000fd5b505050506040513d601f19601f82011682018060405250810190610929919061193c565b90508381101561097b5760405162461bcd60e51b815260206004820152601c60248201527f596f75206861766520696e73756666696369656e7420746f6b656e730000000060448201526064016103d3565b600082602001518360400151866109929190611955565b61099c919061197a565b905047818110156109ef5760405162461bcd60e51b815260206004820152601d60248201527f56656e646f722068617320696e73756666696369656e742066756e647300000060448201526064016103d3565b6040516323b872dd60e01b8152336004820152306024820152604481018790526000906001600160a01b038716906323b872dd906064016020604051808303816000875af1158015610a45573d6000803e3d6000fd5b505050506040513d601f19601f82011682018060405250810190610a69919061199c565b905080610ace5760405162461bcd60e51b815260206004820152602d60248201527f4661696c656420746f207472616e7366657220746f6b656e732066726f6d207560448201526c39b2b9103a37903b32b73237b960991b60648201526084016103d3565b60405133908490600081818185875af1925050503d8060008114610b0e576040519150601f19603f3d011682016040523d82523d6000602084013e610b13565b606091505b50508091505080610b665760405162461bcd60e51b815260206004820152601e60248201527f4661696c656420746f2073656e642045544820746f207468652075736572000060448201526064016103d3565b50505050505050565b60c9546040516377f510ad60e01b81526001600160a01b0384811660048301528315156024830152909116906377f510ad906044015b600060405180830381600087803b158015610bbf57600080fd5b505af1158015610bd3573d6000803e3d6000fd5b505050505050565b610be36112a8565b610bed6000611302565b565b610bf76112a8565b60c954604051631d1ab3f560e31b81526001600160a01b03848116600483015283151560248301529091169063e8d59fa890604401610ba5565b60c95460405163485ee47b60e11b81526001600160a01b03838116600483015260009283929116906390bdc8f690602401608060405180830381865afa158015610c7f573d6000803e3d6000fd5b505050506040513d601f19601f82011682018060405250810190610ca391906117ec565b905080604001518160200151610384919061197a565b600054610100900460ff1615808015610cd95750600054600160ff909116105b80610cf35750303b158015610cf3575060005460ff166001145b610d565760405162461bcd60e51b815260206004820152602e60248201527f496e697469616c697a61626c653a20636f6e747261637420697320616c72656160448201526d191e481a5b9a5d1a585b1a5e995960921b60648201526084016103d3565b6000805460ff191660011790558015610d79576000805461ff0019166101001790555b610d81611354565b610d89611383565b60c980546001600160a01b0319166001600160a01b0384161790558015610556576000805461ff0019169055604051600181527f7f26b83ff96e1f2b6a682f133852f6798a09c465da95921460cefb38474024989060200160405180910390a15050565b60c95460405163485ee47b60e11b81526001600160a01b03838116600483015260009283929116906390bdc8f690602401608060405180830381865afa158015610e3b573d6000803e3d6000fd5b505050506040513d601f19601f82011682018060405250810190610e5f91906117ec565b905060003411610ec05760405162461bcd60e51b815260206004820152602660248201527f596f75206e65656420746f2073656e6420736f6d65204d4154494320746f20706044820152651c9bd8d9595960d21b60648201526084016103d3565b60608101511515600114610f0c5760405162461bcd60e51b815260206004820152601360248201527214d95b1b081a5cc81b9bdd08195b98589b1959606a1b60448201526064016103d3565b60008160400151826020015134610f239190611955565b610f2d919061197a565b6040516370a0823160e01b81523060048201529091506000906001600160a01b038616906370a0823190602401602060405180830381865afa158015610f77573d6000803e3d6000fd5b505050506040513d601f19601f82011682018060405250810190610f9b919061193c565b905081811015610fed5760405162461bcd60e51b815260206004820152601e60248201527f56656e646f722068617320696e73756666696369656e7420746f6b656e73000060448201526064016103d3565b60405163a9059cbb60e01b8152336004820152602481018390526000906001600160a01b0387169063a9059cbb906044016020604051808303816000875af115801561103d573d6000803e3d6000fd5b505050506040513d601f19601f82011682018060405250810190611061919061199c565b9050806110b05760405162461bcd60e51b815260206004820181905260248201527f4661696c656420746f207472616e7366657220746f6b656e20746f207573657260448201526064016103d3565b5090949350505050565b6110c26112a8565b6001600160a01b0381166111275760405162461bcd60e51b815260206004820152602660248201527f4f776e61626c653a206e6577206f776e657220697320746865207a65726f206160448201526564647265737360d01b60648201526084016103d3565b61047081611302565b6104706112a8565b7f4910fdfa16fed3260ed0e7147f7cc6da11a60208b5b9406d12a635614ffd91435460ff16156111705761116b836113aa565b505050565b826001600160a01b03166352d1902d6040518163ffffffff1660e01b8152600401602060405180830381865afa9250505080156111ca575060408051601f3d908101601f191682019092526111c79181019061193c565b60015b61122d5760405162461bcd60e51b815260206004820152602e60248201527f45524331393637557067726164653a206e657720696d706c656d656e7461746960448201526d6f6e206973206e6f74205555505360901b60648201526084016103d3565b600080516020611a78833981519152811461129c5760405162461bcd60e51b815260206004820152602960248201527f45524331393637557067726164653a20756e737570706f727465642070726f786044820152681a58589b195555525160ba1b60648201526084016103d3565b5061116b838383611446565b6033546001600160a01b03163314610bed5760405162461bcd60e51b815260206004820181905260248201527f4f776e61626c653a2063616c6c6572206973206e6f7420746865206f776e657260448201526064016103d3565b603380546001600160a01b038381166001600160a01b0319831681179093556040519116919082907f8be0079c531659141344cd1fd0a4f28419497f9722a3daafe3b4186f6b6457e090600090a35050565b600054610100900460ff1661137b5760405162461bcd60e51b81526004016103d3906119b9565b610bed611471565b600054610100900460ff16610bed5760405162461bcd60e51b81526004016103d3906119b9565b6001600160a01b0381163b6114175760405162461bcd60e51b815260206004820152602d60248201527f455243313936373a206e657720696d706c656d656e746174696f6e206973206e60448201526c1bdd08184818dbdb9d1c9858dd609a1b60648201526084016103d3565b600080516020611a7883398151915280546001600160a01b0319166001600160a01b0392909216919091179055565b61144f836114a1565b60008251118061145c5750805b1561116b5761146b83836114e1565b50505050565b600054610100900460ff166114985760405162461bcd60e51b81526004016103d3906119b9565b610bed33611302565b6114aa816113aa565b6040516001600160a01b038216907fbc7cd75a20ee27fd9adebab32041f755214dbc6bffa90cc0225b39da2e5c2d3b90600090a250565b60606001600160a01b0383163b6115495760405162461bcd60e51b815260206004820152602660248201527f416464726573733a2064656c65676174652063616c6c20746f206e6f6e2d636f6044820152651b9d1c9858dd60d21b60648201526084016103d3565b600080846001600160a01b0316846040516115649190611a28565b600060405180830381855af49150503d806000811461159f576040519150601f19603f3d011682016040523d82523d6000602084013e6115a4565b606091505b50915091506115cc8282604051806060016040528060278152602001611a98602791396115d7565b925050505b92915050565b606083156115e6575081610384565b61038483838151156115fb5781518083602001fd5b8060405162461bcd60e51b81526004016103d39190611a44565b6001600160a01b038116811461047057600080fd5b60006020828403121561163c57600080fd5b813561038481611615565b801515811461047057600080fd5b6000806000806080858703121561166b57600080fd5b843561167681611615565b93506020850135925060408501359150606085013561169481611647565b939692955090935050565b634e487b7160e01b600052604160045260246000fd5b604051601f8201601f1916810167ffffffffffffffff811182821017156116de576116de61169f565b604052919050565b600080604083850312156116f957600080fd5b823561170481611615565b915060208381013567ffffffffffffffff8082111561172257600080fd5b818601915086601f83011261173657600080fd5b8135818111156117485761174861169f565b61175a601f8201601f191685016116b5565b9150808252878482850101111561177057600080fd5b80848401858401376000848284010152508093505050509250929050565b600080604083850312156117a157600080fd5b8235915060208301356117b381611615565b809150509250929050565b600080604083850312156117d157600080fd5b82356117dc81611615565b915060208301356117b381611647565b6000608082840312156117fe57600080fd5b6040516080810181811067ffffffffffffffff821117156118215761182161169f565b604052825161182f81611615565b808252506020830151602082015260408301516040820152606083015161185581611647565b60608201529392505050565b6020808252602c908201527f46756e6374696f6e206d7573742062652063616c6c6564207468726f7567682060408201526b19195b1959d85d1958d85b1b60a21b606082015260800190565b6020808252602c908201527f46756e6374696f6e206d7573742062652063616c6c6564207468726f7567682060408201526b6163746976652070726f787960a01b606082015260800190565b60208082526023908201527f546f6b656e2070657220657468206d757374206265206869676865722074686160408201526206e20360ec1b606082015260800190565b60006020828403121561194e57600080fd5b5051919050565b80820281158282048414176115d157634e487b7160e01b600052601160045260246000fd5b60008261199757634e487b7160e01b600052601260045260246000fd5b500490565b6000602082840312156119ae57600080fd5b815161038481611647565b6020808252602b908201527f496e697469616c697a61626c653a20636f6e7472616374206973206e6f74206960408201526a6e697469616c697a696e6760a81b606082015260800190565b60005b83811015611a1f578181015183820152602001611a07565b50506000910152565b60008251611a3a818460208701611a04565b9190910192915050565b6020815260008251806020840152611a63816040850160208701611a04565b601f01601f1916919091016040019291505056fe360894a13ba1a3210667c828492db98dca3e2076cc3735a920a3ca505d382bbc416464726573733a206c6f772d6c6576656c2064656c65676174652063616c6c206661696c6564a26469706673582212200161a3cd4bf75a80f4368506408c25bcb151e3392a44546b4f15047eff6434ce64736f6c63430008110033",
  "immutableReferences": {
    "746": [
      {
        "length": 32,
        "start": 917
      },
      {
        "length": 32,
        "start": 990
      },
      {
        "length": 32,
        "start": 1575
      },
      {
        "length": 32,
        "start": 1639
      },
      {
        "length": 32,
        "start": 1782
      }
    ]
  },
  "source": "// SPDX-License-Identifier: Unlicense\npragma solidity ^0.8.4;\nimport \"@openzeppelin/contracts-upgradeable/proxy/utils/Initializable.sol\";\n\nimport \"@openzeppelin/contracts-upgradeable/token/ERC20/ERC20Upgradeable.sol\";\nimport \"@openzeppelin/contracts-upgradeable/access/OwnableUpgradeable.sol\";\nimport \"./NftFractionsVendor.sol\";\nimport \"./NftFractionsFactoryStorage.sol\";\n\nimport \"@openzeppelin/contracts-upgradeable/proxy/utils/UUPSUpgradeable.sol\";\n\nimport \"./INftFractionsVendorStorage.sol\";\n\ncontract NftFractionsVendor is\n  Initializable,\n  OwnableUpgradeable,\n  UUPSUpgradeable\n{\n  event BuyTokens(address buyer, uint256 amountOfMATIC, uint256 amountOfTokens);\n\n  INftFractionsVendorStorage private _storage;\n\n  function initialize(address storageAddress) public initializer {\n    __Ownable_init();\n    __UUPSUpgradeable_init();\n    _storage = INftFractionsVendorStorage(storageAddress);\n  }\n\n  function _authorizeUpgrade(address) internal override onlyOwner {}\n\n  function updateTokenVendor(\n    address tokenAddress,\n    uint256 totalSupply,\n    uint256 listingPrice,\n    bool enableSell\n  ) public onlyOwner {\n    require(totalSupply > 0, \"Token per eth must be higher than 0\");\n    require(listingPrice > 0, \"Token per eth must be higher than 0\");\n\n    _storage.setToken(tokenAddress, totalSupply, listingPrice, enableSell);\n  }\n\n  function updateTokenVendorState(address tokenAddress, bool state) public {\n    _storage.updateTokenVendorSellState(tokenAddress, state);\n  }\n\n  function updateStateAddress(\n    address tokenAddress,\n    bool state\n  ) public onlyOwner {\n    _storage.updateStateAddressVendor(tokenAddress, state);\n  }\n\n  function getTokenInfo(\n    address tokenAddress\n  ) external view returns (INftFractionsVendorStorage.TokenPaymentInfo memory) {\n    INftFractionsVendorStorage.TokenPaymentInfo memory token = _storage\n      .getTokenPaymentInfo(tokenAddress);\n    return token;\n  }\n\n  function getUnitPrice(address tokenAddress) external view returns (uint256) {\n    INftFractionsVendorStorage.TokenPaymentInfo memory token = _storage\n      .getTokenPaymentInfo(tokenAddress);\n    return token.totalSupply / token.listingPrice;\n  }\n\n  function buyTokens(\n    address tokenAddress\n  ) public payable returns (uint256 tokenAmount) {\n    INftFractionsVendorStorage.TokenPaymentInfo memory token = _storage\n      .getTokenPaymentInfo(tokenAddress);\n\n    require(msg.value > 0, \"You need to send some MATIC to proceed\");\n    require(token.enableSell == true, \"Sell is not enabled\");\n\n    uint256 amountToBuy = (msg.value * token.totalSupply) / token.listingPrice;\n\n    uint256 vendorBalance = ERC20Upgradeable(tokenAddress).balanceOf(\n      address(this)\n    );\n    require(vendorBalance >= amountToBuy, \"Vendor has insufficient tokens\");\n\n    bool sent = ERC20Upgradeable(tokenAddress).transfer(\n      msg.sender,\n      amountToBuy\n    );\n    require(sent, \"Failed to transfer token to user\");\n\n    return amountToBuy;\n  }\n\n  function sellTokens(uint256 tokenAmountToSell, address tokenAddress) public {\n    INftFractionsVendorStorage.TokenPaymentInfo memory token = _storage\n      .getTokenPaymentInfo(tokenAddress);\n\n    require(\n      tokenAmountToSell > 0,\n      \"Specify an amount of token greater than zero\"\n    );\n    require(token.enableSell == true, \"Sell is not enabled\");\n    uint256 userBalance = ERC20Upgradeable(tokenAddress).balanceOf(msg.sender);\n    require(userBalance >= tokenAmountToSell, \"You have insufficient tokens\");\n\n    uint256 amountOfETHToTransfer = (tokenAmountToSell * token.listingPrice) /\n      token.totalSupply;\n    uint256 ownerETHBalance = address(this).balance;\n    require(\n      ownerETHBalance >= amountOfETHToTransfer,\n      \"Vendor has insufficient funds\"\n    );\n    bool sent = ERC20Upgradeable(tokenAddress).transferFrom(\n      msg.sender,\n      address(this),\n      tokenAmountToSell\n    );\n    require(sent, \"Failed to transfer tokens from user to vendor\");\n\n    (sent, ) = msg.sender.call{ value: amountOfETHToTransfer }(\"\");\n    require(sent, \"Failed to send ETH to the user\");\n  }\n\n  function withdraw() public onlyOwner {\n    uint256 ownerBalance = address(this).balance;\n    require(ownerBalance > 0, \"No ETH present in Vendor\");\n    (bool sent, ) = msg.sender.call{ value: address(this).balance }(\"\");\n    require(sent, \"Failed to withdraw\");\n  }\n}\n",
  "sourcePath": "/Users/alberto/Desktop/Enalbis/caskchain-mono/apps/contracts/contracts/NftFractions/NftFractionsVendor.sol",
  "compiler": {
    "name": "solc",
    "version": "0.8.17+commit.8df45f5f.Emscripten.clang"
  },
  "schemaVersion": "3.4.11",
  "updatedAt": "2023-07-03T07:19:03.621Z",
  "networkType": "ethereum",
  "devdoc": {
    "kind": "dev",
    "methods": {
      "owner()": {
        "details": "Returns the address of the current owner."
      },
      "proxiableUUID()": {
        "details": "Implementation of the ERC1822 {proxiableUUID} function. This returns the storage slot used by the implementation. It is used to validate the implementation's compatibility when performing an upgrade. IMPORTANT: A proxy pointing at a proxiable contract should not be considered proxiable itself, because this risks bricking a proxy that upgrades to it, by delegating to itself until out of gas. Thus it is critical that this function revert if invoked through a proxy. This is guaranteed by the `notDelegated` modifier."
      },
      "renounceOwnership()": {
        "details": "Leaves the contract without owner. It will not be possible to call `onlyOwner` functions anymore. Can only be called by the current owner. NOTE: Renouncing ownership will leave the contract without an owner, thereby removing any functionality that is only available to the owner."
      },
      "transferOwnership(address)": {
        "details": "Transfers ownership of the contract to a new account (`newOwner`). Can only be called by the current owner."
      },
      "upgradeTo(address)": {
        "details": "Upgrade the implementation of the proxy to `newImplementation`. Calls {_authorizeUpgrade}. Emits an {Upgraded} event."
      },
      "upgradeToAndCall(address,bytes)": {
        "details": "Upgrade the implementation of the proxy to `newImplementation`, and subsequently execute the function call encoded in `data`. Calls {_authorizeUpgrade}. Emits an {Upgraded} event."
      }
    },
    "version": 1
  },
  "userdoc": {
    "kind": "user",
    "methods": {},
    "version": 1
  }
}