{
  "contractName": "NftFractionsFactoryStorage",
  "abi": [
    {
      "anonymous": false,
      "inputs": [
        {
          "indexed": true,
          "internalType": "address",
          "name": "previousOwner",
          "type": "address"
        },
        {
          "indexed": true,
          "internalType": "address",
          "name": "newOwner",
          "type": "address"
        }
      ],
      "name": "OwnershipTransferred",
      "type": "event"
    },
    {
      "inputs": [
        {
          "internalType": "address",
          "name": "",
          "type": "address"
        }
      ],
      "name": "allowedAddresses",
      "outputs": [
        {
          "internalType": "bool",
          "name": "",
          "type": "bool"
        }
      ],
      "stateMutability": "view",
      "type": "function",
      "constant": true
    },
    {
      "inputs": [
        {
          "internalType": "address",
          "name": "",
          "type": "address"
        },
        {
          "internalType": "uint256",
          "name": "",
          "type": "uint256"
        }
      ],
      "name": "nftToVault",
      "outputs": [
        {
          "internalType": "bool",
          "name": "",
          "type": "bool"
        }
      ],
      "stateMutability": "view",
      "type": "function",
      "constant": true
    },
    {
      "inputs": [],
      "name": "owner",
      "outputs": [
        {
          "internalType": "address",
          "name": "",
          "type": "address"
        }
      ],
      "stateMutability": "view",
      "type": "function",
      "constant": true
    },
    {
      "inputs": [],
      "name": "renounceOwnership",
      "outputs": [],
      "stateMutability": "nonpayable",
      "type": "function"
    },
    {
      "inputs": [
        {
          "internalType": "uint256",
          "name": "",
          "type": "uint256"
        }
      ],
      "name": "tokenAddressCreated",
      "outputs": [
        {
          "internalType": "address",
          "name": "",
          "type": "address"
        }
      ],
      "stateMutability": "view",
      "type": "function",
      "constant": true
    },
    {
      "inputs": [
        {
          "internalType": "address",
          "name": "newOwner",
          "type": "address"
        }
      ],
      "name": "transferOwnership",
      "outputs": [],
      "stateMutability": "nonpayable",
      "type": "function"
    },
    {
      "inputs": [],
      "name": "vaultCount",
      "outputs": [
        {
          "internalType": "uint256",
          "name": "",
          "type": "uint256"
        }
      ],
      "stateMutability": "view",
      "type": "function",
      "constant": true
    },
    {
      "inputs": [
        {
          "internalType": "uint256",
          "name": "",
          "type": "uint256"
        }
      ],
      "name": "vaults",
      "outputs": [
        {
          "internalType": "address",
          "name": "vaultAddress",
          "type": "address"
        },
        {
          "internalType": "uint256",
          "name": "tokenId",
          "type": "uint256"
        }
      ],
      "stateMutability": "view",
      "type": "function",
      "constant": true
    },
    {
      "inputs": [
        {
          "internalType": "address",
          "name": "_address",
          "type": "address"
        }
      ],
      "name": "addAllowedAddress",
      "outputs": [],
      "stateMutability": "nonpayable",
      "type": "function"
    },
    {
      "inputs": [
        {
          "internalType": "address",
          "name": "_address",
          "type": "address"
        }
      ],
      "name": "removeAllowedAddress",
      "outputs": [],
      "stateMutability": "nonpayable",
      "type": "function"
    },
    {
      "inputs": [
        {
          "internalType": "address",
          "name": "_address",
          "type": "address"
        }
      ],
      "name": "isAllowedAddress",
      "outputs": [
        {
          "internalType": "bool",
          "name": "",
          "type": "bool"
        }
      ],
      "stateMutability": "view",
      "type": "function",
      "constant": true
    },
    {
      "inputs": [],
      "name": "getVaultCount",
      "outputs": [
        {
          "internalType": "uint256",
          "name": "",
          "type": "uint256"
        }
      ],
      "stateMutability": "view",
      "type": "function",
      "constant": true
    },
    {
      "inputs": [
        {
          "internalType": "uint256",
          "name": "index",
          "type": "uint256"
        }
      ],
      "name": "getVault",
      "outputs": [
        {
          "components": [
            {
              "internalType": "address",
              "name": "vaultAddress",
              "type": "address"
            },
            {
              "internalType": "uint256",
              "name": "tokenId",
              "type": "uint256"
            }
          ],
          "internalType": "struct NftFractionsFactoryStorage.Vault",
          "name": "",
          "type": "tuple"
        }
      ],
      "stateMutability": "view",
      "type": "function",
      "constant": true
    },
    {
      "inputs": [],
      "name": "getAllCreatedVaults",
      "outputs": [
        {
          "internalType": "address[]",
          "name": "",
          "type": "address[]"
        }
      ],
      "stateMutability": "view",
      "type": "function",
      "constant": true
    },
    {
      "inputs": [
        {
          "internalType": "address",
          "name": "_token",
          "type": "address"
        },
        {
          "internalType": "uint256",
          "name": "nftId",
          "type": "uint256"
        }
      ],
      "name": "vaultExists",
      "outputs": [
        {
          "internalType": "bool",
          "name": "",
          "type": "bool"
        }
      ],
      "stateMutability": "view",
      "type": "function",
      "constant": true
    },
    {
      "inputs": [
        {
          "internalType": "address",
          "name": "_token",
          "type": "address"
        },
        {
          "internalType": "uint256",
          "name": "nftId",
          "type": "uint256"
        }
      ],
      "name": "setVaultExists",
      "outputs": [],
      "stateMutability": "nonpayable",
      "type": "function"
    },
    {
      "inputs": [
        {
          "internalType": "address",
          "name": "_vault",
          "type": "address"
        },
        {
          "internalType": "uint256",
          "name": "_tokenId",
          "type": "uint256"
        }
      ],
      "name": "setVault",
      "outputs": [],
      "stateMutability": "nonpayable",
      "type": "function"
    },
    {
      "inputs": [
        {
          "internalType": "address",
          "name": "_vault",
          "type": "address"
        }
      ],
      "name": "pushTokenAddressCreated",
      "outputs": [],
      "stateMutability": "nonpayable",
      "type": "function"
    }
  ],
  "bytecode": "0x608060405234801561001057600080fd5b5061001a3361001f565b61006f565b600080546001600160a01b038381166001600160a01b0319831681178455604051919092169283917f8be0079c531659141344cd1fd0a4f28419497f9722a3daafe3b4186f6b6457e09190a35050565b6108878061007e6000396000f3fe608060405234801561001057600080fd5b50600436106101155760003560e01c80638c7eaf17116100a2578063a7c6a10011610071578063a7c6a10014610322578063b6bc53e31461032b578063b8e6e1a414610340578063ee35db5f14610353578063f2fde38b1461038157600080fd5b80638c7eaf17146102385780638da5cb5b1461024b578063932376fe146102705780639403b634146102a957600080fd5b8063715018a6116100e9578063715018a61461018d57806374d4e4911461019557806381788e2b146101a75780638345245e146101ba5780638c64ea4a146101e657600080fd5b8062f310c31461011a57806336f61bd91461012f5780633c9d93b8146101425780634120657a14610155575b600080fd5b61012d610128366004610749565b610394565b005b61012d61013d36600461076b565b61041e565b61012d610150366004610749565b6104b3565b610178610163366004610749565b60016020526000908152604090205460ff1681565b60405190151581526020015b60405180910390f35b61012d6104dc565b6002545b604051908152602001610184565b61012d6101b5366004610749565b6104f0565b6101786101c8366004610749565b6001600160a01b031660009081526001602052604090205460ff1690565b6102196101f4366004610795565b600460205260009081526040902080546001909101546001600160a01b039091169082565b604080516001600160a01b039093168352602083019190915201610184565b61012d61024636600461076b565b61051f565b6000546001600160a01b03165b6040516001600160a01b039091168152602001610184565b61017861027e36600461076b565b6001600160a01b03919091166000908152600560209081526040808320938352929052205460ff1690565b6102fe6102b7366004610795565b604080518082019091526000808252602082015250600090815260046020908152604091829020825180840190935280546001600160a01b03168352600101549082015290565b6040805182516001600160a01b031681526020928301519281019290925201610184565b61019960025481565b61033361057e565b60405161018491906107ae565b61025861034e366004610795565b6105e0565b61017861036136600461076b565b600560209081526000928352604080842090915290825290205460ff1681565b61012d61038f366004610749565b61060a565b3360009081526001602052604090205460ff166103cc5760405162461bcd60e51b81526004016103c3906107fb565b60405180910390fd5b600380546001810182556000919091527fc2575a0e9e593c00f959f8c92f12db2869c3395a3b0502d05e2516446f71f85b0180546001600160a01b0319166001600160a01b0392909216919091179055565b3360009081526001602052604090205460ff1661044d5760405162461bcd60e51b81526004016103c3906107fb565b6040805180820182526001600160a01b03848116825260208083018581526002805460009081526004909352948220935184546001600160a01b03191693169290921783559051600190920191909155815491906104aa8361082a565b91905055505050565b6104bb610683565b6001600160a01b03166000908152600160205260409020805460ff19169055565b6104e4610683565b6104ee60006106dd565b565b6104f8610683565b6001600160a01b03166000908152600160208190526040909120805460ff19169091179055565b3360009081526001602052604090205460ff1661054e5760405162461bcd60e51b81526004016103c3906107fb565b6001600160a01b03909116600090815260056020908152604080832093835292905220805460ff19166001179055565b606060038054806020026020016040519081016040528092919081815260200182805480156105d657602002820191906000526020600020905b81546001600160a01b031681526001909101906020018083116105b8575b5050505050905090565b600381815481106105f057600080fd5b6000918252602090912001546001600160a01b0316905081565b610612610683565b6001600160a01b0381166106775760405162461bcd60e51b815260206004820152602660248201527f4f776e61626c653a206e6577206f776e657220697320746865207a65726f206160448201526564647265737360d01b60648201526084016103c3565b610680816106dd565b50565b6000546001600160a01b031633146104ee5760405162461bcd60e51b815260206004820181905260248201527f4f776e61626c653a2063616c6c6572206973206e6f7420746865206f776e657260448201526064016103c3565b600080546001600160a01b038381166001600160a01b0319831681178455604051919092169283917f8be0079c531659141344cd1fd0a4f28419497f9722a3daafe3b4186f6b6457e09190a35050565b80356001600160a01b038116811461074457600080fd5b919050565b60006020828403121561075b57600080fd5b6107648261072d565b9392505050565b6000806040838503121561077e57600080fd5b6107878361072d565b946020939093013593505050565b6000602082840312156107a757600080fd5b5035919050565b6020808252825182820181905260009190848201906040850190845b818110156107ef5783516001600160a01b0316835292840192918401916001016107ca565b50909695505050505050565b60208082526015908201527410d85b1b195c881a5cc81b9bdd08185b1b1bddd959605a1b604082015260600190565b60006001820161084a57634e487b7160e01b600052601160045260246000fd5b506001019056fea264697066735822122085447691605f16afd206066bb873de422cd87c454b5d4d1608c0a2e6d1c1ac3a64736f6c63430008110033",
  "immutableReferences": {},
  "source": "//SPDX-License-Identifier: MIT\npragma solidity ^0.8.7;\nimport \"@openzeppelin/contracts/access/Ownable.sol\";\n\ncontract NftFractionsFactoryStorage is Ownable {\n  struct Vault {\n    address vaultAddress;\n    uint256 tokenId;\n  }\n\n  // Address => Boolean\n  mapping(address => bool) public allowedAddresses;\n\n  /// @notice the number of ERC721 vaults\n  uint256 public vaultCount;\n  address[] public tokenAddressCreated;\n\n  /// @notice the mapping of vault number to vault contract\n  mapping(uint256 => Vault) public vaults;\n  mapping(address => mapping(uint256 => bool)) public nftToVault;\n\n  /////////////////////\n  // ALLOWED ADDRESSES MANAGEMENT //\n  /////////////////////\n\n  modifier onlyAllowed() {\n    require(allowedAddresses[msg.sender], \"Caller is not allowed\");\n    _;\n  }\n\n  function addAllowedAddress(address _address) public onlyOwner {\n    allowedAddresses[_address] = true;\n  }\n\n  function removeAllowedAddress(address _address) public onlyOwner {\n    allowedAddresses[_address] = false;\n  }\n\n  function isAllowedAddress(address _address) public view returns (bool) {\n    return allowedAddresses[_address];\n  }\n\n  /////////////////////\n  // GETTER //\n  /////////////////////\n\n  function getVaultCount() public view returns (uint256) {\n    return vaultCount;\n  }\n\n  function getVault(uint256 index) public view returns (Vault memory) {\n    return vaults[index];\n  }\n\n  function getAllCreatedVaults() public view returns (address[] memory) {\n    return tokenAddressCreated;\n  }\n\n  function vaultExists(\n    address _token,\n    uint256 nftId\n  ) public view returns (bool) {\n    return nftToVault[_token][nftId];\n  }\n\n  /////////////////////\n  // SETTER //\n  /////////////////////\n\n  function setVaultExists(address _token, uint256 nftId) public onlyAllowed {\n    nftToVault[_token][nftId] = true;\n  }\n\n  function setVault(address _vault, uint256 _tokenId) public onlyAllowed {\n    vaults[vaultCount] = Vault(_vault, _tokenId);\n    vaultCount++;\n  }\n\n  function pushTokenAddressCreated(address _vault) public onlyAllowed {\n    tokenAddressCreated.push(_vault);\n  }\n}\n",
  "sourcePath": "/Users/alberto/Desktop/Enalbis/caskchain-mono/apps/contracts/contracts/NftFractions/NftFractionsFactoryStorage.sol",
  "compiler": {
    "name": "solc",
    "version": "0.8.17+commit.8df45f5f.Emscripten.clang"
  },
  "schemaVersion": "3.4.11",
  "updatedAt": "2023-07-05T11:46:44.020Z",
  "networkType": "ethereum",
  "devdoc": {
    "kind": "dev",
    "methods": {
      "owner()": {
        "details": "Returns the address of the current owner."
      },
      "renounceOwnership()": {
        "details": "Leaves the contract without owner. It will not be possible to call `onlyOwner` functions anymore. Can only be called by the current owner. NOTE: Renouncing ownership will leave the contract without an owner, thereby removing any functionality that is only available to the owner."
      },
      "transferOwnership(address)": {
        "details": "Transfers ownership of the contract to a new account (`newOwner`). Can only be called by the current owner."
      }
    },
    "version": 1
  },
  "userdoc": {
    "kind": "user",
    "methods": {
      "vaultCount()": {
        "notice": "the number of ERC721 vaults"
      },
      "vaults(uint256)": {
        "notice": "the mapping of vault number to vault contract"
      }
    },
    "version": 1
  }
}