{
  "contractName": "NftOffers",
  "abi": [
    {
      "inputs": [
        {
          "internalType": "address",
          "name": "_collection",
          "type": "address"
        },
        {
          "internalType": "address",
          "name": "_nftVendor",
          "type": "address"
        }
      ],
      "stateMutability": "nonpayable",
      "type": "constructor"
    },
    {
      "inputs": [],
      "name": "NotOffers",
      "type": "error"
    },
    {
      "inputs": [],
      "name": "NotOwner",
      "type": "error"
    },
    {
      "anonymous": false,
      "inputs": [
        {
          "indexed": true,
          "internalType": "uint256",
          "name": "tokenId",
          "type": "uint256"
        },
        {
          "indexed": false,
          "internalType": "address",
          "name": "owner",
          "type": "address"
        },
        {
          "indexed": false,
          "internalType": "address",
          "name": "bidder",
          "type": "address"
        },
        {
          "indexed": false,
          "internalType": "uint256",
          "name": "bid",
          "type": "uint256"
        }
      ],
      "name": "AcceptOffer",
      "type": "event"
    },
    {
      "anonymous": false,
      "inputs": [
        {
          "indexed": true,
          "internalType": "uint256",
          "name": "tokenId",
          "type": "uint256"
        },
        {
          "indexed": false,
          "internalType": "address",
          "name": "owner",
          "type": "address"
        },
        {
          "indexed": false,
          "internalType": "address",
          "name": "bidder",
          "type": "address"
        },
        {
          "indexed": false,
          "internalType": "uint256",
          "name": "bid",
          "type": "uint256"
        }
      ],
      "name": "NewOffer",
      "type": "event"
    },
    {
      "anonymous": false,
      "inputs": [
        {
          "indexed": true,
          "internalType": "uint256",
          "name": "tokenId",
          "type": "uint256"
        },
        {
          "indexed": false,
          "internalType": "address",
          "name": "bidder",
          "type": "address"
        },
        {
          "indexed": false,
          "internalType": "uint256",
          "name": "bid",
          "type": "uint256"
        }
      ],
      "name": "RemoveOffer",
      "type": "event"
    },
    {
      "anonymous": false,
      "inputs": [
        {
          "indexed": true,
          "internalType": "uint256",
          "name": "tokenId",
          "type": "uint256"
        },
        {
          "indexed": false,
          "internalType": "address",
          "name": "bidder",
          "type": "address"
        },
        {
          "indexed": false,
          "internalType": "uint256",
          "name": "bid",
          "type": "uint256"
        }
      ],
      "name": "Withdraw",
      "type": "event"
    },
    {
      "inputs": [
        {
          "internalType": "uint256",
          "name": "",
          "type": "uint256"
        },
        {
          "internalType": "uint256",
          "name": "",
          "type": "uint256"
        }
      ],
      "name": "addressesFromTokenId",
      "outputs": [
        {
          "internalType": "address",
          "name": "",
          "type": "address"
        }
      ],
      "stateMutability": "view",
      "type": "function",
      "constant": true
    },
    {
      "inputs": [],
      "name": "collection",
      "outputs": [
        {
          "internalType": "address",
          "name": "",
          "type": "address"
        }
      ],
      "stateMutability": "view",
      "type": "function",
      "constant": true
    },
    {
      "inputs": [
        {
          "internalType": "uint256",
          "name": "",
          "type": "uint256"
        },
        {
          "internalType": "address",
          "name": "",
          "type": "address"
        }
      ],
      "name": "hasBidFromTokenId",
      "outputs": [
        {
          "internalType": "bool",
          "name": "",
          "type": "bool"
        }
      ],
      "stateMutability": "view",
      "type": "function",
      "constant": true
    },
    {
      "inputs": [],
      "name": "nftVendor",
      "outputs": [
        {
          "internalType": "contract NftVendor",
          "name": "",
          "type": "address"
        }
      ],
      "stateMutability": "view",
      "type": "function",
      "constant": true
    },
    {
      "inputs": [
        {
          "internalType": "uint256",
          "name": "",
          "type": "uint256"
        },
        {
          "internalType": "address",
          "name": "",
          "type": "address"
        }
      ],
      "name": "offerBidsFromTokenId",
      "outputs": [
        {
          "internalType": "uint256",
          "name": "",
          "type": "uint256"
        }
      ],
      "stateMutability": "view",
      "type": "function",
      "constant": true
    },
    {
      "inputs": [
        {
          "internalType": "address",
          "name": "",
          "type": "address"
        }
      ],
      "name": "pendingWithdrawals",
      "outputs": [
        {
          "internalType": "uint256",
          "name": "",
          "type": "uint256"
        }
      ],
      "stateMutability": "view",
      "type": "function",
      "constant": true
    },
    {
      "inputs": [
        {
          "internalType": "uint256",
          "name": "_tokenId",
          "type": "uint256"
        }
      ],
      "name": "makeOffer",
      "outputs": [],
      "stateMutability": "payable",
      "type": "function",
      "payable": true
    },
    {
      "inputs": [
        {
          "internalType": "uint256",
          "name": "_tokenId",
          "type": "uint256"
        }
      ],
      "name": "getAddressesBids",
      "outputs": [
        {
          "internalType": "address[]",
          "name": "",
          "type": "address[]"
        }
      ],
      "stateMutability": "view",
      "type": "function",
      "constant": true
    },
    {
      "inputs": [
        {
          "internalType": "uint256",
          "name": "_tokenId",
          "type": "uint256"
        }
      ],
      "name": "getNftOffer",
      "outputs": [
        {
          "components": [
            {
              "internalType": "uint256",
              "name": "nftId",
              "type": "uint256"
            },
            {
              "internalType": "address",
              "name": "seller",
              "type": "address"
            },
            {
              "internalType": "uint256",
              "name": "highestBid",
              "type": "uint256"
            },
            {
              "internalType": "address",
              "name": "highestBidder",
              "type": "address"
            }
          ],
          "internalType": "struct NftOffers.Offer",
          "name": "",
          "type": "tuple"
        }
      ],
      "stateMutability": "view",
      "type": "function",
      "constant": true
    },
    {
      "inputs": [
        {
          "internalType": "uint256",
          "name": "_tokenId",
          "type": "uint256"
        }
      ],
      "name": "getCountNftOffers",
      "outputs": [
        {
          "internalType": "uint256",
          "name": "",
          "type": "uint256"
        }
      ],
      "stateMutability": "view",
      "type": "function",
      "constant": true
    },
    {
      "inputs": [],
      "name": "withdrawOldOffers",
      "outputs": [],
      "stateMutability": "nonpayable",
      "type": "function"
    },
    {
      "inputs": [
        {
          "internalType": "uint256",
          "name": "_tokenId",
          "type": "uint256"
        }
      ],
      "name": "withdraw",
      "outputs": [
        {
          "internalType": "bool",
          "name": "",
          "type": "bool"
        }
      ],
      "stateMutability": "nonpayable",
      "type": "function"
    },
    {
      "inputs": [
        {
          "internalType": "uint256",
          "name": "_tokenId",
          "type": "uint256"
        }
      ],
      "name": "acceptOffer",
      "outputs": [],
      "stateMutability": "payable",
      "type": "function",
      "payable": true
    }
  ],
  "bytecode": "0x608060405234801561001057600080fd5b506040516200176f3803806200176f83398101604081905261003191610083565b6001600081905580546001600160a01b039384166001600160a01b031991821617909155600280549290931691161790556100b6565b80516001600160a01b038116811461007e57600080fd5b919050565b6000806040838503121561009657600080fd5b61009f83610067565b91506100ad60208401610067565b90509250929050565b6116a980620000c66000396000f3fe6080604052600436106100c25760003560e01c80637de1e5361161007f578063b760f71311610059578063b760f71314610259578063c815729d14610279578063e9cf32a01461028c578063f3f437031461035c57600080fd5b80637de1e536146101f95780639a2f647414610219578063a9cebfa91461022c57600080fd5b80632bff1263146100c75780632e1a7d4d146100de5780633ac23785146101135780633e5671ca146101595780634405f981146101945780634880ba13146101c1575b600080fd5b3480156100d357600080fd5b506100dc610389565b005b3480156100ea57600080fd5b506100fe6100f9366004611476565b610483565b60405190151581526020015b60405180910390f35b34801561011f57600080fd5b5061014b61012e3660046114a7565b600460209081526000928352604080842090915290825290205481565b60405190815260200161010a565b34801561016557600080fd5b506100fe6101743660046114a7565b600760209081526000928352604080842090915290825290205460ff1681565b3480156101a057600080fd5b506101b46101af366004611476565b610750565b60405161010a91906114d7565b3480156101cd57600080fd5b506101e16101dc366004611524565b6107bc565b6040516001600160a01b03909116815260200161010a565b34801561020557600080fd5b506001546101e1906001600160a01b031681565b6100dc610227366004611476565b6107f4565b34801561023857600080fd5b5061014b610247366004611476565b60009081526006602052604090205490565b34801561026557600080fd5b506002546101e1906001600160a01b031681565b6100dc610287366004611476565b610b0a565b34801561029857600080fd5b5061031a6102a7366004611476565b6040805160808101825260008082526020820181905291810182905260608101919091525060009081526003602081815260409283902083516080810185528154815260018201546001600160a01b03908116938201939093526002820154948101949094529091015416606082015290565b60405161010a9190815181526020808301516001600160a01b039081169183019190915260408084015190830152606092830151169181019190915260800190565b34801561036857600080fd5b5061014b610377366004611546565b60086020526000908152604090205481565b33600090815260086020526040902054806103e45760405162461bcd60e51b81526020600482015260166024820152754e6f2070656e64696e67207769746864726177616c7360501b60448201526064015b60405180910390fd5b336000818152600860205260408082208290555190919083908381818185875af1925050503d8060008114610435576040519150601f19603f3d011682016040523d82523d6000602084013e61043a565b606091505b505090508061047f5760405162461bcd60e51b815260206004820152601160248201527015da5d1a191c985dd85b0819985a5b1959607a1b60448201526064016103db565b5050565b600080821180156104ad57506000828152600360205260409020600101546001600160a01b031615155b6104c95760405162461bcd60e51b81526004016103db9061156a565b60008281526004602090815260408083203384529091529020546105255760405162461bcd60e51b8152602060048201526013602482015272139bc81858dd1a5d9948189a5908199bdd5b99606a1b60448201526064016103db565b600082815260046020908152604080832033808552925280832080549084905590519092919083908381818185875af1925050503d8060008114610585576040519150601f19603f3d011682016040523d82523d6000602084013e61058a565b606091505b50509050806105cd5760405162461bcd60e51b815260206004820152600f60248201526e151c985b9cd9995c8819985a5b1959608a1b60448201526064016103db565b604080513381526020810184905285917f9da6493a92039daf47d1f2d7a782299c5994c6323eb1e972f69c432089ec52bf910160405180910390a26106128433610e73565b60008211801561063c5750600084815260036020819052604090912001546001600160a01b031633145b156107465760008481526003602081905260408220600281018390556001810154910180546001600160a01b0319166001600160a01b039092169190911790555b6000858152600660205260409020548110156107445760008581526006602052604081208054839081106106b3576106b3611594565b60009182526020808320909101548883526004825260408084206001600160a01b03909216808552918352808420548a85526003909352909220600201549192509081111561072f576000878152600360208190526040909120600281018390550180546001600160a01b0319166001600160a01b0384161790555b5050808061073c906115c0565b91505061067d565b505b5060019392505050565b60008181526006602090815260408083208054825181850281018501909352808352606094938301828280156107af57602002820191906000526020600020905b81546001600160a01b03168152600190910190602001808311610791575b5093979650505050505050565b600660205281600052604060002081815481106107d857600080fd5b6000918252602090912001546001600160a01b03169150829050565b6000341161084f5760405162461bcd60e51b815260206004820152602260248201527f4f66666572207072696365206d7573742062652067726561746572207468616e604482015261020360f41b60648201526084016103db565b6001546040516331a9108f60e11b8152600481018390526001600160a01b03909116906000908290636352211e90602401602060405180830381865afa15801561089d573d6000803e3d6000fd5b505050506040513d601f19601f820116820180604052508101906108c191906115d9565b6001600160a01b0316036108e75760405162461bcd60e51b81526004016103db9061156a565b6000828152600460209081526040808320338452909152902054801561092c5733600090815260086020526040812080548392906109269084906115f6565b90915550505b60008381526003602052604081206002015490036109c2576109bd8334846001600160a01b0316636352211e876040518263ffffffff1660e01b815260040161097791815260200190565b602060405180830381865afa158015610994573d6000803e3d6000fd5b505050506040513d601f19601f820116820180604052508101906109b891906115d9565b6110ac565b610a51565b6000838152600360205260409020600201543411610a1b5760405162461bcd60e51b81526020600482015260166024820152754f6666657220707269636520697320746f6f206c6f7760501b60448201526064016103db565b610a25833461112d565b600083815260036020819052604090912090810180546001600160a01b03191633179055346002909101555b6040516331a9108f60e11b81526004810184905283907fd465e4b8dcc4d0ccee59a07ef3fc9f8e9bf8e1c64b331153db12f55363e598c2906001600160a01b03851690636352211e90602401602060405180830381865afa158015610aba573d6000803e3d6000fd5b505050506040513d601f19601f82011682018060405250810190610ade91906115d9565b604080516001600160a01b039092168252336020830152349082015260600160405180910390a2505050565b6001546040516331a9108f60e11b815260048101839052829133916001600160a01b03909116906000908290636352211e90602401602060405180830381865afa158015610b5c573d6000803e3d6000fd5b505050506040513d601f19601f82011682018060405250810190610b8091906115d9565b9050806001600160a01b0316836001600160a01b031614610bb4576040516330cd747160e01b815260040160405180910390fd5b600085815260066020526040812054869103610be357604051632f3ad84b60e11b815260040160405180910390fd5b60015460405163020604bf60e21b8152600481018890526001600160a01b03909116903090829063081812fc90602401602060405180830381865afa158015610c30573d6000803e3d6000fd5b505050506040513d601f19601f82011682018060405250810190610c5491906115d9565b6001600160a01b031614610caa5760405162461bcd60e51b815260206004820152601960248201527f4e6f74417070726f766564466f724d61726b6574706c6163650000000000000060448201526064016103db565b600087815260036020818152604080842081516080810183528154815260018201546001600160a01b039081169482019490945260028201548184015293015482166060840152516331a9108f60e11b8152600481018b905291929190841690636352211e90602401602060405180830381865afa158015610d30573d6000803e3d6000fd5b505050506040513d601f19601f82011682018060405250810190610d5491906115d9565b6040830151606084015191925090610d6c8b836111cd565b6040516323b872dd60e01b81523360048201526001600160a01b038281166024830152604482018d90528616906323b872dd90606401600060405180830381600087803b158015610dbc57600080fd5b505af1158015610dd0573d6000803e3d6000fd5b50505050610dde8b82610e73565b60008b81526003602081815260408084208481556001810180546001600160a01b03199081169091556002820195909555909201805490931690925580516001600160a01b03808716825284169281019290925281018390528b907f5a1bb95c9f5b9302c58022867300f1559a08b23eed3c0c42b7ce389a6b5a7c529060600160405180910390a25050505050505050505050565b600082118015610e9c57506000828152600360205260409020600101546001600160a01b031615155b610eb85760405162461bcd60e51b81526004016103db9061156a565b6001600160a01b038116610f075760405162461bcd60e51b8152602060048201526016602482015275496e76616c696420626964646572206164647265737360501b60448201526064016103db565b60008281526004602090815260408083206001600160a01b038516808552908352818420849055858452600583528184209084528252808320548584526006909252822054909190610f5b9060019061160f565b60008581526006602052604081208054929350909183908110610f8057610f80611594565b6000918252602080832091909101548783526005825260408084206001600160a01b039283168086529084528185208890559188168452808420849055888452600690925291208054919250829185908110610fde57610fde611594565b600091825260208083209190910180546001600160a01b0319166001600160a01b03949094169390931790925586815260069091526040902080548061102657611026611622565b60008281526020808220600019908401810180546001600160a01b03191690559092019092558682526007815260408083203380855290835292819020805460ff191690558051928352349183019190915286917f7edef3ff69fe27df6ec60fbe1a8b87f98343758660364ecca467b7b79b70a213910160405180910390a25050505050565b6110b6838361112d565b604080516080810182528481526001600160a01b039283166020808301918252828401958652336060840190815260009788526003918290529390962091518255516001820180549185166001600160a01b0319928316179055935160028201559051930180549390911692909116919091179055565b6000828152600460209081526040808320338085529083528184208590558584526007835281842090845290915290205460ff1661047f57506000818152600660209081526040808320805460058452828520338087529085528386208290556001808301845592865284862090910180546001600160a01b0319168217905594845260078352818420948452939091529020805460ff19169091179055565b816000036111ed5760405162461bcd60e51b81526004016103db9061156a565b600081116112325760405162461bcd60e51b8152602060048201526012602482015271125b9d985b1a5908189a5908185b5bdd5b9d60721b60448201526064016103db565b60015460025460408051631a7a0a7f60e01b815290516001600160a01b03938416936000931691631a7a0a7f9160048083019260209291908290030181865afa158015611283573d6000803e3d6000fd5b505050506040513d601f19601f820116820180604052508101906112a79190611638565b60405163e462266360e01b81526004810186905290915033906000906001600160a01b0385169063e462266390602401602060405180830381865afa1580156112f4573d6000803e3d6000fd5b505050506040513d601f19601f8201168201806040525081019061131891906115d9565b60025460405163654e609160e01b815260048101899052602481018890529192506000916001600160a01b039091169063654e609190604401602060405180830381865afa15801561136e573d6000803e3d6000fd5b505050506040513d601f19601f82011682018060405250810190611392919061165a565b90508584611435576001600160a01b0383166113f05760405162461bcd60e51b815260206004820152601760248201527f496e76616c69642063726561746f72206164647265737300000000000000000060448201526064016103db565b6113fa828261160f565b6040519091506001600160a01b0384169083156108fc029084906000818181858888f19350505050158015611433573d6000803e3d6000fd5b505b6040516001600160a01b0385169082156108fc029083906000818181858888f1935050505015801561146b573d6000803e3d6000fd5b505050505050505050565b60006020828403121561148857600080fd5b5035919050565b6001600160a01b03811681146114a457600080fd5b50565b600080604083850312156114ba57600080fd5b8235915060208301356114cc8161148f565b809150509250929050565b6020808252825182820181905260009190848201906040850190845b818110156115185783516001600160a01b0316835292840192918401916001016114f3565b50909695505050505050565b6000806040838503121561153757600080fd5b50508035926020909101359150565b60006020828403121561155857600080fd5b81356115638161148f565b9392505050565b60208082526010908201526f125b9d985b1a59081d1bdad95b88125160821b604082015260600190565b634e487b7160e01b600052603260045260246000fd5b634e487b7160e01b600052601160045260246000fd5b6000600182016115d2576115d26115aa565b5060010190565b6000602082840312156115eb57600080fd5b81516115638161148f565b80820180821115611609576116096115aa565b92915050565b81810381811115611609576116096115aa565b634e487b7160e01b600052603160045260246000fd5b60006020828403121561164a57600080fd5b8151801515811461156357600080fd5b60006020828403121561166c57600080fd5b505191905056fea2646970667358221220552e94a4ffe2dafd034453190a1a3ef361b2f8b6202ad9d7daaa31e0d89539e064736f6c63430008110033",
  "immutableReferences": {},
  "source": "// SPDX-License-Identifier: MIT\npragma solidity ^0.8.7;\n\nimport \"@openzeppelin/contracts/token/ERC721/IERC721.sol\";\nimport \"@openzeppelin/contracts/security/ReentrancyGuard.sol\";\nimport \"@openzeppelin/contracts/token/common/ERC2981.sol\";\nimport \"@openzeppelin/contracts/utils/Counters.sol\";\nimport \"./NftVendor.sol\";\nimport \"./CCNft.sol\";\n\n// Check out https://github.com/Fantom-foundation/Artion-Contracts/blob/5c90d2bc0401af6fb5abf35b860b762b31dfee02/contracts/FantomMarketplace.sol\n// For a full decentralized nft marketplace\n\n// Error thrown for isNotOwner modifier\n// error IsNotOwner()\nerror NotOffers();\n\ncontract NftOffers is ReentrancyGuard {\n  struct Offer {\n    // Current owner of NFT\n    uint256 nftId;\n    address seller;\n    uint highestBid;\n    address highestBidder;\n  }\n\n  address public collection;\n  NftVendor public nftVendor;\n\n  // Map from token ID to their corresponding auction.\n  mapping(uint256 => Offer) tokenIdToOffer;\n  // NFT Id => Account Address => Bid\n  mapping(uint256 => mapping(address => uint256)) public offerBidsFromTokenId;\n  // NFT Id => Account Address => Index\n  mapping(uint256 => mapping(address => uint256)) indexOfofferBidsFromAddress;\n  // NFT Id => Address[]\n  mapping(uint256 => address[]) public addressesFromTokenId;\n  // NFT Id => Address => bool\n  mapping(uint256 => mapping(address => bool)) public hasBidFromTokenId;\n  mapping(address => uint256) public pendingWithdrawals;\n\n  modifier hasOffers(uint256 tokenId) {\n    if (addressesFromTokenId[tokenId].length == 0) {\n      revert NotOffers();\n    }\n    _;\n  }\n\n  modifier isOwner(uint256 tokenId, address spender) {\n    IERC721 nft = IERC721(collection);\n    address owner = nft.ownerOf(tokenId);\n    if (spender != owner) {\n      revert NotOwner();\n    }\n    _;\n  }\n\n  event NewOffer(\n    uint256 indexed tokenId,\n    address owner,\n    address bidder,\n    uint256 bid\n  );\n  event RemoveOffer(uint256 indexed tokenId, address bidder, uint256 bid);\n  event Withdraw(uint256 indexed tokenId, address bidder, uint256 bid);\n  event AcceptOffer(\n    uint256 indexed tokenId,\n    address owner,\n    address bidder,\n    uint256 bid\n  );\n\n  constructor(address _collection, address _nftVendor) {\n    collection = _collection;\n    nftVendor = NftVendor(_nftVendor);\n  }\n\n  function makeOffer(uint256 _tokenId) public payable {\n    // Ensure that the buyer is making a valid offer\n\n    require(msg.value > 0, \"Offer price must be greater than 0\");\n\n    IERC721 nft = IERC721(collection);\n    require(nft.ownerOf(_tokenId) != address(0), \"Invalid token ID\");\n\n    uint256 previousBid = offerBidsFromTokenId[_tokenId][msg.sender];\n    if (previousBid > 0) {\n      // Use a separate withdraw function to avoid reentrancy attacks\n      pendingWithdrawals[msg.sender] += previousBid;\n    }\n\n    // if (offerBidsFromTokenId[_tokenId][msg.sender] > 0) {\n    //   uint amount = offerBidsFromTokenId[_tokenId][msg.sender];\n    //   payable(msg.sender).transfer(amount);\n    // }\n\n    // No offers made\n    if (tokenIdToOffer[_tokenId].highestBid == 0) {\n      _createNftOffer(_tokenId, msg.value, nft.ownerOf(_tokenId));\n    } else {\n      require(\n        msg.value > tokenIdToOffer[_tokenId].highestBid,\n        \"Offer price is too low\"\n      );\n      _setOffer(_tokenId, msg.value);\n      tokenIdToOffer[_tokenId].highestBidder = msg.sender;\n      tokenIdToOffer[_tokenId].highestBid = msg.value;\n    }\n\n    emit NewOffer(_tokenId, nft.ownerOf(_tokenId), msg.sender, msg.value);\n  }\n\n  function getAddressesBids(\n    uint256 _tokenId\n  ) public view returns (address[] memory) {\n    address[] memory bidders = addressesFromTokenId[_tokenId];\n    return bidders;\n  }\n\n  function getNftOffer(uint256 _tokenId) public view returns (Offer memory) {\n    Offer memory offer = tokenIdToOffer[_tokenId];\n    return offer;\n  }\n\n  function getCountNftOffers(uint256 _tokenId) public view returns (uint256) {\n    return addressesFromTokenId[_tokenId].length;\n  }\n\n  function withdrawOldOffers() external {\n    uint256 amount = pendingWithdrawals[msg.sender];\n    require(amount > 0, \"No pending withdrawals\");\n\n    // IMPORTANT: set the pending amount to 0 before sending to prevent re-entrancy attacks\n    pendingWithdrawals[msg.sender] = 0;\n\n    (bool success, ) = msg.sender.call{ value: amount }(\"\");\n    require(success, \"Withdrawal failed\");\n  }\n\n  function withdraw(uint256 _tokenId) external returns (bool) {\n    require(\n      _tokenId > 0 && tokenIdToOffer[_tokenId].seller != address(0),\n      \"Invalid token ID\"\n    );\n    require(\n      offerBidsFromTokenId[_tokenId][msg.sender] > 0,\n      \"No active bid found\"\n    );\n\n    uint256 amount = offerBidsFromTokenId[_tokenId][msg.sender];\n    delete offerBidsFromTokenId[_tokenId][msg.sender];\n\n    (bool success, ) = msg.sender.call{ value: amount }(\"\");\n    require(success, \"Transfer failed\");\n\n    emit Withdraw(_tokenId, msg.sender, amount);\n\n    _removeOffer(_tokenId, msg.sender);\n\n    if (amount > 0 && tokenIdToOffer[_tokenId].highestBidder == msg.sender) {\n      tokenIdToOffer[_tokenId].highestBid = 0;\n      tokenIdToOffer[_tokenId].highestBidder = tokenIdToOffer[_tokenId].seller;\n\n      for (uint256 i = 0; i < addressesFromTokenId[_tokenId].length; i++) {\n        address bidder = addressesFromTokenId[_tokenId][i];\n        uint256 bidAmount = offerBidsFromTokenId[_tokenId][bidder];\n        if (bidAmount > tokenIdToOffer[_tokenId].highestBid) {\n          tokenIdToOffer[_tokenId].highestBid = bidAmount;\n          tokenIdToOffer[_tokenId].highestBidder = bidder;\n        }\n      }\n    }\n\n    return true;\n  }\n\n  function payRoyaltiesAndTransfer(\n    uint256 _tokenId,\n    uint256 highestBid\n  ) private {\n    require(_tokenId != 0, \"Invalid token ID\");\n    require(highestBid > 0, \"Invalid bid amount\");\n\n    CCNft nft = CCNft(collection);\n    bool excluded = nftVendor.isExcluded();\n    address payable seller = payable(msg.sender);\n    address payable creator = payable(nft.getNftCreator(_tokenId));\n    uint256 royalty = nftVendor.calculateRoyaltyForAcceptedOffer(\n      _tokenId,\n      highestBid\n    );\n    uint256 totalAmount = highestBid;\n\n    if (!excluded) {\n      require(creator != address(0), \"Invalid creator address\");\n      totalAmount -= royalty;\n      creator.transfer(royalty);\n    }\n    seller.transfer(totalAmount);\n  }\n\n  function acceptOffer(\n    uint256 _tokenId\n  ) public payable isOwner(_tokenId, msg.sender) hasOffers(_tokenId) {\n    CCNft nft = CCNft(collection);\n    require(\n      nft.getApproved(_tokenId) == address(this),\n      \"NotApprovedForMarketplace\"\n    );\n\n    Offer memory offer = tokenIdToOffer[_tokenId];\n    address owner = nft.ownerOf(_tokenId);\n    uint256 highestBid = offer.highestBid;\n    address highestBidder = offer.highestBidder;\n\n    payRoyaltiesAndTransfer(_tokenId, highestBid);\n\n    nft.transferFrom(msg.sender, highestBidder, _tokenId);\n\n    _removeOffer(_tokenId, highestBidder);\n    delete tokenIdToOffer[_tokenId];\n\n    emit AcceptOffer(_tokenId, owner, highestBidder, highestBid);\n  }\n\n  function _createNftOffer(\n    uint256 _tokenId,\n    uint256 _nftPrice,\n    address _seller\n  ) private {\n    // Sanity check that no inputs overflow how many bits we've allocated\n    // to store them in the auction struct.\n\n    _setOffer(_tokenId, _nftPrice);\n\n    Offer memory offer = Offer(_tokenId, _seller, _nftPrice, msg.sender);\n\n    _addAuction(_tokenId, offer);\n  }\n\n  function _removeOffer(uint256 _tokenId, address bidder) internal {\n    require(\n      _tokenId > 0 && tokenIdToOffer[_tokenId].seller != address(0),\n      \"Invalid token ID\"\n    );\n    require(bidder != address(0), \"Invalid bidder address\");\n    delete offerBidsFromTokenId[_tokenId][bidder];\n\n    uint index = indexOfofferBidsFromAddress[_tokenId][bidder];\n    uint lastIndex = addressesFromTokenId[_tokenId].length - 1;\n    address lastBidder = addressesFromTokenId[_tokenId][lastIndex];\n\n    indexOfofferBidsFromAddress[_tokenId][lastBidder] = index;\n    delete indexOfofferBidsFromAddress[_tokenId][bidder];\n\n    addressesFromTokenId[_tokenId][index] = lastBidder;\n    addressesFromTokenId[_tokenId].pop();\n    hasBidFromTokenId[_tokenId][msg.sender] = false;\n\n    emit RemoveOffer(_tokenId, msg.sender, msg.value);\n  }\n\n  function _addAuction(uint256 _tokenId, Offer memory _offer) internal {\n    tokenIdToOffer[_tokenId] = _offer;\n  }\n\n  function _setOffer(uint256 _tokenId, uint256 offer) private {\n    offerBidsFromTokenId[_tokenId][msg.sender] = offer;\n    if (!hasBidFromTokenId[_tokenId][msg.sender]) {\n      indexOfofferBidsFromAddress[_tokenId][msg.sender] = addressesFromTokenId[\n        _tokenId\n      ].length;\n      addressesFromTokenId[_tokenId].push(msg.sender);\n      hasBidFromTokenId[_tokenId][msg.sender] = true;\n    }\n  }\n}\n",
  "sourcePath": "/Users/alberto/Desktop/Enalbis/caskchain-mono/apps/contracts/contracts/NftOffers.sol",
  "compiler": {
    "name": "solc",
    "version": "0.8.17+commit.8df45f5f.Emscripten.clang"
  },
  "schemaVersion": "3.4.11",
  "updatedAt": "2023-04-16T13:28:15.703Z",
  "networkType": "ethereum",
  "devdoc": {
    "kind": "dev",
    "methods": {},
    "version": 1
  },
  "userdoc": {
    "kind": "user",
    "methods": {},
    "version": 1
  }
}