{
  "contractName": "NftOffers",
  "abi": [
    {
      "inputs": [],
      "name": "NotOffers",
      "type": "error"
    },
    {
      "inputs": [],
      "name": "NotOwner",
      "type": "error"
    },
    {
      "anonymous": false,
      "inputs": [
        {
          "indexed": true,
          "internalType": "uint256",
          "name": "tokenId",
          "type": "uint256"
        },
        {
          "indexed": false,
          "internalType": "address",
          "name": "owner",
          "type": "address"
        },
        {
          "indexed": false,
          "internalType": "address",
          "name": "bidder",
          "type": "address"
        },
        {
          "indexed": false,
          "internalType": "uint256",
          "name": "bid",
          "type": "uint256"
        }
      ],
      "name": "AcceptOffer",
      "type": "event"
    },
    {
      "anonymous": false,
      "inputs": [
        {
          "indexed": false,
          "internalType": "address",
          "name": "previousAdmin",
          "type": "address"
        },
        {
          "indexed": false,
          "internalType": "address",
          "name": "newAdmin",
          "type": "address"
        }
      ],
      "name": "AdminChanged",
      "type": "event"
    },
    {
      "anonymous": false,
      "inputs": [
        {
          "indexed": true,
          "internalType": "address",
          "name": "beacon",
          "type": "address"
        }
      ],
      "name": "BeaconUpgraded",
      "type": "event"
    },
    {
      "anonymous": false,
      "inputs": [
        {
          "indexed": false,
          "internalType": "uint8",
          "name": "version",
          "type": "uint8"
        }
      ],
      "name": "Initialized",
      "type": "event"
    },
    {
      "anonymous": false,
      "inputs": [
        {
          "indexed": true,
          "internalType": "uint256",
          "name": "tokenId",
          "type": "uint256"
        },
        {
          "indexed": false,
          "internalType": "address",
          "name": "owner",
          "type": "address"
        },
        {
          "indexed": false,
          "internalType": "address",
          "name": "bidder",
          "type": "address"
        },
        {
          "indexed": false,
          "internalType": "uint256",
          "name": "bid",
          "type": "uint256"
        }
      ],
      "name": "NewOffer",
      "type": "event"
    },
    {
      "anonymous": false,
      "inputs": [
        {
          "indexed": true,
          "internalType": "address",
          "name": "previousOwner",
          "type": "address"
        },
        {
          "indexed": true,
          "internalType": "address",
          "name": "newOwner",
          "type": "address"
        }
      ],
      "name": "OwnershipTransferred",
      "type": "event"
    },
    {
      "anonymous": false,
      "inputs": [
        {
          "indexed": true,
          "internalType": "uint256",
          "name": "tokenId",
          "type": "uint256"
        },
        {
          "indexed": false,
          "internalType": "address",
          "name": "bidder",
          "type": "address"
        },
        {
          "indexed": false,
          "internalType": "uint256",
          "name": "bid",
          "type": "uint256"
        }
      ],
      "name": "RemoveOffer",
      "type": "event"
    },
    {
      "anonymous": false,
      "inputs": [
        {
          "indexed": true,
          "internalType": "address",
          "name": "implementation",
          "type": "address"
        }
      ],
      "name": "Upgraded",
      "type": "event"
    },
    {
      "anonymous": false,
      "inputs": [
        {
          "indexed": true,
          "internalType": "uint256",
          "name": "tokenId",
          "type": "uint256"
        },
        {
          "indexed": false,
          "internalType": "address",
          "name": "bidder",
          "type": "address"
        },
        {
          "indexed": false,
          "internalType": "uint256",
          "name": "bid",
          "type": "uint256"
        }
      ],
      "name": "Withdraw",
      "type": "event"
    },
    {
      "inputs": [],
      "name": "collection",
      "outputs": [
        {
          "internalType": "address",
          "name": "",
          "type": "address"
        }
      ],
      "stateMutability": "view",
      "type": "function",
      "constant": true
    },
    {
      "inputs": [],
      "name": "nftVendor",
      "outputs": [
        {
          "internalType": "contract NftVendor",
          "name": "",
          "type": "address"
        }
      ],
      "stateMutability": "view",
      "type": "function",
      "constant": true
    },
    {
      "inputs": [],
      "name": "owner",
      "outputs": [
        {
          "internalType": "address",
          "name": "",
          "type": "address"
        }
      ],
      "stateMutability": "view",
      "type": "function",
      "constant": true
    },
    {
      "inputs": [],
      "name": "proxiableUUID",
      "outputs": [
        {
          "internalType": "bytes32",
          "name": "",
          "type": "bytes32"
        }
      ],
      "stateMutability": "view",
      "type": "function",
      "constant": true
    },
    {
      "inputs": [],
      "name": "renounceOwnership",
      "outputs": [],
      "stateMutability": "nonpayable",
      "type": "function"
    },
    {
      "inputs": [
        {
          "internalType": "address",
          "name": "newOwner",
          "type": "address"
        }
      ],
      "name": "transferOwnership",
      "outputs": [],
      "stateMutability": "nonpayable",
      "type": "function"
    },
    {
      "inputs": [
        {
          "internalType": "address",
          "name": "newImplementation",
          "type": "address"
        }
      ],
      "name": "upgradeTo",
      "outputs": [],
      "stateMutability": "nonpayable",
      "type": "function"
    },
    {
      "inputs": [
        {
          "internalType": "address",
          "name": "newImplementation",
          "type": "address"
        },
        {
          "internalType": "bytes",
          "name": "data",
          "type": "bytes"
        }
      ],
      "name": "upgradeToAndCall",
      "outputs": [],
      "stateMutability": "payable",
      "type": "function",
      "payable": true
    },
    {
      "inputs": [
        {
          "internalType": "address",
          "name": "_collection",
          "type": "address"
        },
        {
          "internalType": "address",
          "name": "_nftVendor",
          "type": "address"
        },
        {
          "internalType": "address",
          "name": "ccNftStorageAddress",
          "type": "address"
        },
        {
          "internalType": "address",
          "name": "nftOffersStorageAddress",
          "type": "address"
        }
      ],
      "name": "initialize",
      "outputs": [],
      "stateMutability": "nonpayable",
      "type": "function"
    },
    {
      "inputs": [
        {
          "internalType": "uint256",
          "name": "_tokenId",
          "type": "uint256"
        }
      ],
      "name": "getHighestBid",
      "outputs": [
        {
          "internalType": "uint256",
          "name": "",
          "type": "uint256"
        }
      ],
      "stateMutability": "view",
      "type": "function",
      "constant": true
    },
    {
      "inputs": [
        {
          "internalType": "uint256",
          "name": "_tokenId",
          "type": "uint256"
        }
      ],
      "name": "makeOffer",
      "outputs": [],
      "stateMutability": "payable",
      "type": "function",
      "payable": true
    },
    {
      "inputs": [
        {
          "internalType": "uint256",
          "name": "_tokenId",
          "type": "uint256"
        }
      ],
      "name": "getNftOffer",
      "outputs": [
        {
          "components": [
            {
              "internalType": "uint256",
              "name": "nftId",
              "type": "uint256"
            },
            {
              "internalType": "address",
              "name": "seller",
              "type": "address"
            },
            {
              "internalType": "uint256",
              "name": "highestBid",
              "type": "uint256"
            },
            {
              "internalType": "address",
              "name": "highestBidder",
              "type": "address"
            }
          ],
          "internalType": "struct INftOffersStorage.Offer",
          "name": "",
          "type": "tuple"
        }
      ],
      "stateMutability": "view",
      "type": "function",
      "constant": true
    },
    {
      "inputs": [
        {
          "internalType": "uint256",
          "name": "_tokenId",
          "type": "uint256"
        }
      ],
      "name": "getAddressesBids",
      "outputs": [
        {
          "internalType": "address[]",
          "name": "",
          "type": "address[]"
        }
      ],
      "stateMutability": "view",
      "type": "function",
      "constant": true
    },
    {
      "inputs": [
        {
          "internalType": "uint256",
          "name": "_tokenId",
          "type": "uint256"
        }
      ],
      "name": "getCountNftOffers",
      "outputs": [
        {
          "internalType": "uint256",
          "name": "",
          "type": "uint256"
        }
      ],
      "stateMutability": "view",
      "type": "function",
      "constant": true
    },
    {
      "inputs": [],
      "name": "withdrawOldOffers",
      "outputs": [],
      "stateMutability": "nonpayable",
      "type": "function"
    },
    {
      "inputs": [
        {
          "internalType": "uint256",
          "name": "_tokenId",
          "type": "uint256"
        }
      ],
      "name": "withdraw",
      "outputs": [
        {
          "internalType": "bool",
          "name": "",
          "type": "bool"
        }
      ],
      "stateMutability": "nonpayable",
      "type": "function"
    },
    {
      "inputs": [
        {
          "internalType": "uint256",
          "name": "tokenId",
          "type": "uint256"
        }
      ],
      "name": "getCreatorNft",
      "outputs": [
        {
          "internalType": "address",
          "name": "",
          "type": "address"
        }
      ],
      "stateMutability": "view",
      "type": "function",
      "constant": true
    },
    {
      "inputs": [
        {
          "internalType": "uint256",
          "name": "_tokenId",
          "type": "uint256"
        }
      ],
      "name": "acceptOffer",
      "outputs": [],
      "stateMutability": "payable",
      "type": "function",
      "payable": true
    }
  ],
  "bytecode": "0x60a06040523060805234801561001457600080fd5b50608051612fef61004c600039600081816109ff01528181610a3f01528181610b5c01528181610b9c0152610c2b0152612fef6000f3fe6080604052600436106101095760003560e01c80638f27153111610095578063b760f71311610064578063b760f713146102bb578063c815729d146102db578063e9cf32a0146102ee578063f2fde38b1461031b578063f8c8765e1461033b57600080fd5b80638f271531146102485780638f288644146102685780639a2f647414610288578063a9cebfa91461029b57600080fd5b80634f1ef286116100dc5780634f1ef286146101a757806352d1902d146101ba578063715018a6146101dd5780637de1e536146101f25780638da5cb5b1461022a57600080fd5b80632bff12631461010e5780632e1a7d4d146101255780633659cfe61461015a5780634405f9811461017a575b600080fd5b34801561011a57600080fd5b5061012361035b565b005b34801561013157600080fd5b506101456101403660046129ab565b61050c565b60405190151581526020015b60405180910390f35b34801561016657600080fd5b506101236101753660046129d9565b6109f5565b34801561018657600080fd5b5061019a6101953660046129ab565b610ad4565b60405161015191906129f6565b6101236101b5366004612a8a565b610b52565b3480156101c657600080fd5b506101cf610c1e565b604051908152602001610151565b3480156101e957600080fd5b50610123610cd1565b3480156101fe57600080fd5b5060fb54610212906001600160a01b031681565b6040516001600160a01b039091168152602001610151565b34801561023657600080fd5b506065546001600160a01b0316610212565b34801561025457600080fd5b506102126102633660046129ab565b610ce5565b34801561027457600080fd5b506101cf6102833660046129ab565b610d57565b6101236102963660046129ab565b610dcb565b3480156102a757600080fd5b506101cf6102b63660046129ab565b6112f8565b3480156102c757600080fd5b5060fc54610212906001600160a01b031681565b6101236102e93660046129ab565b611376565b3480156102fa57600080fd5b5061030e6103093660046129ab565b6117a1565b6040516101519190612b32565b34801561032757600080fd5b506101236103363660046129d9565b611833565b34801561034757600080fd5b50610123610356366004612b6d565b6118a9565b60fe54604051636f9844dd60e01b81523360048201526000916001600160a01b031690636f9844dd90602401602060405180830381865afa1580156103a4573d6000803e3d6000fd5b505050506040513d601f19601f820116820180604052508101906103c89190612bc9565b9050600081116104185760405162461bcd60e51b81526020600482015260166024820152754e6f2070656e64696e67207769746864726177616c7360501b60448201526064015b60405180910390fd5b60fe54604051635f2d813f60e01b8152336004820152600060248201526001600160a01b0390911690635f2d813f90604401600060405180830381600087803b15801561046457600080fd5b505af1158015610478573d6000803e3d6000fd5b50506040516000925033915083908381818185875af1925050503d80600081146104be576040519150601f19603f3d011682016040523d82523d6000602084013e6104c3565b606091505b50509050806105085760405162461bcd60e51b815260206004820152601160248201527015da5d1a191c985dd85b0819985a5b1959607a1b604482015260640161040f565b5050565b60fe546040516398cfcf5f60e01b81526004810183905260009182916001600160a01b03909116906398cfcf5f90602401608060405180830381865afa15801561055a573d6000803e3d6000fd5b505050506040513d601f19601f8201168201806040525081019061057e9190612be2565b60fe54604051631b4814e360e21b8152600481018690523360248201529192506000916001600160a01b0390911690636d20538c90604401602060405180830381865afa1580156105d3573d6000803e3d6000fd5b505050506040513d601f19601f820116820180604052508101906105f79190612bc9565b9050600084118015610615575060208201516001600160a01b031615155b6106315760405162461bcd60e51b815260040161040f90612c55565b600081116106775760405162461bcd60e51b8152602060048201526013602482015272139bc81858dd1a5d9948189a5908199bdd5b99606a1b604482015260640161040f565b60fe546040516333124a4f60e01b8152600481018690523360248201526001600160a01b03909116906333124a4f90604401600060405180830381600087803b1580156106c357600080fd5b505af11580156106d7573d6000803e3d6000fd5b50506040516000925033915083908381818185875af1925050503d806000811461071d576040519150601f19603f3d011682016040523d82523d6000602084013e610722565b606091505b50509050806107655760405162461bcd60e51b815260206004820152600f60248201526e151c985b9cd9995c8819985a5b1959608a1b604482015260640161040f565b604080513381526020810184905286917f9da6493a92039daf47d1f2d7a782299c5994c6323eb1e972f69c432089ec52bf910160405180910390a26107aa8533611a10565b6000821180156107c6575060608301516001600160a01b031633145b156109ea5760fe54602084015160405162764fd360e71b815260048101889052600060248201526001600160a01b039182166044820152911690633b27e98090606401600060405180830381600087803b15801561082357600080fd5b505af1158015610837573d6000803e3d6000fd5b505060fd54604051638daa6fc960e01b815260048101899052600093506001600160a01b039091169150638daa6fc990602401600060405180830381865afa158015610887573d6000803e3d6000fd5b505050506040513d6000823e601f3d908101601f191682016040526108af9190810190612c7f565b905060005b81518110156109e75760008282815181106108d1576108d1612d31565b602090810291909101015160fe54604051631b4814e360e21b8152600481018b90526001600160a01b03808416602483015292935060009290911690636d20538c90604401602060405180830381865afa158015610933573d6000803e3d6000fd5b505050506040513d601f19601f820116820180604052508101906109579190612bc9565b905086604001518111156109d25760fe5460405162764fd360e71b8152600481018b9052602481018390526001600160a01b03848116604483015290911690633b27e98090606401600060405180830381600087803b1580156109b957600080fd5b505af11580156109cd573d6000803e3d6000fd5b505050505b505080806109df90612d5d565b9150506108b4565b50505b506001949350505050565b6001600160a01b037f0000000000000000000000000000000000000000000000000000000000000000163003610a3d5760405162461bcd60e51b815260040161040f90612d76565b7f00000000000000000000000000000000000000000000000000000000000000006001600160a01b0316610a86600080516020612f73833981519152546001600160a01b031690565b6001600160a01b031614610aac5760405162461bcd60e51b815260040161040f90612dc2565b610ab581611e90565b60408051600080825260208201909252610ad191839190611e98565b50565b60fd54604051638daa6fc960e01b8152600481018390526060916000916001600160a01b0390911690638daa6fc990602401600060405180830381865afa158015610b23573d6000803e3d6000fd5b505050506040513d6000823e601f3d908101601f19168201604052610b4b9190810190612c7f565b9392505050565b6001600160a01b037f0000000000000000000000000000000000000000000000000000000000000000163003610b9a5760405162461bcd60e51b815260040161040f90612d76565b7f00000000000000000000000000000000000000000000000000000000000000006001600160a01b0316610be3600080516020612f73833981519152546001600160a01b031690565b6001600160a01b031614610c095760405162461bcd60e51b815260040161040f90612dc2565b610c1282611e90565b61050882826001611e98565b6000306001600160a01b037f00000000000000000000000000000000000000000000000000000000000000001614610cbe5760405162461bcd60e51b815260206004820152603860248201527f555550535570677261646561626c653a206d757374206e6f742062652063616c60448201527f6c6564207468726f7567682064656c656761746563616c6c0000000000000000606482015260840161040f565b50600080516020612f7383398151915290565b610cd9612008565b610ce36000612062565b565b60fd5460405163e462266360e01b81526004810183905260009182916001600160a01b039091169063e462266390602401602060405180830381865afa158015610d33573d6000803e3d6000fd5b505050506040513d601f19601f82011682018060405250810190610b4b9190612e0e565b60fe5460405163d0ce590960e01b8152600481018390526000916001600160a01b03169063d0ce590990602401602060405180830381865afa158015610da1573d6000803e3d6000fd5b505050506040513d601f19601f82011682018060405250810190610dc59190612bc9565b92915050565b60003411610e265760405162461bcd60e51b815260206004820152602260248201527f4f66666572207072696365206d7573742062652067726561746572207468616e604482015261020360f41b606482015260840161040f565b60fb546040516331a9108f60e11b8152600481018390526001600160a01b03909116906000908290636352211e90602401602060405180830381865afa158015610e74573d6000803e3d6000fd5b505050506040513d601f19601f82011682018060405250810190610e989190612e0e565b6001600160a01b031603610ebe5760405162461bcd60e51b815260040161040f90612c55565b60fe546040516320e2148b60e21b8152600481018490526000916001600160a01b031690638388522c90602401602060405180830381865afa158015610f08573d6000803e3d6000fd5b505050506040513d601f19601f82011682018060405250810190610f2c9190612bc9565b905080156110145760fe54604051636f9844dd60e01b81523360048201526000916001600160a01b031690636f9844dd90602401602060405180830381865afa158015610f7d573d6000803e3d6000fd5b505050506040513d601f19601f82011682018060405250810190610fa19190612bc9565b9050610fad8282612e2b565b60fe54604051635f2d813f60e01b8152336004820152602481018390529192506001600160a01b031690635f2d813f90604401600060405180830381600087803b158015610ffa57600080fd5b505af115801561100e573d6000803e3d6000fd5b50505050505b60fe5460405163d0ce590960e01b8152600481018590526000916001600160a01b03169063d0ce590990602401602060405180830381865afa15801561105e573d6000803e3d6000fd5b505050506040513d601f19601f820116820180604052508101906110829190612bc9565b60fe546040516398cfcf5f60e01b8152600481018790529192506000916001600160a01b03909116906398cfcf5f90602401608060405180830381865afa1580156110d1573d6000803e3d6000fd5b505050506040513d601f19601f820116820180604052508101906110f59190612be2565b90508160000361117d576111788534866001600160a01b0316636352211e896040518263ffffffff1660e01b815260040161113291815260200190565b602060405180830381865afa15801561114f573d6000803e3d6000fd5b505050506040513d601f19601f820116820180604052508101906111739190612e0e565b6120b4565b61123d565b806040015134116111c95760405162461bcd60e51b81526020600482015260166024820152754f6666657220707269636520697320746f6f206c6f7760501b604482015260640161040f565b6111d385346120f6565b60fe5460405162764fd360e71b8152600481018790523460248201523360448201526001600160a01b0390911690633b27e98090606401600060405180830381600087803b15801561122457600080fd5b505af1158015611238573d6000803e3d6000fd5b505050505b6040516331a9108f60e11b81526004810186905285907fd465e4b8dcc4d0ccee59a07ef3fc9f8e9bf8e1c64b331153db12f55363e598c2906001600160a01b03871690636352211e90602401602060405180830381865afa1580156112a6573d6000803e3d6000fd5b505050506040513d601f19601f820116820180604052508101906112ca9190612e0e565b604080516001600160a01b039092168252336020830152349082015260600160405180910390a25050505050565b60fd54604051638daa6fc960e01b81526004810183905260009182916001600160a01b0390911690638daa6fc990602401600060405180830381865afa158015611346573d6000803e3d6000fd5b505050506040513d6000823e601f3d908101601f1916820160405261136e9190810190612c7f565b519392505050565b60fb546040516331a9108f60e11b815260048101839052829133916001600160a01b03909116906000908290636352211e90602401602060405180830381865afa1580156113c8573d6000803e3d6000fd5b505050506040513d601f19601f820116820180604052508101906113ec9190612e0e565b9050806001600160a01b0316836001600160a01b031614611420576040516330cd747160e01b815260040160405180910390fd5b60fd54604051638daa6fc960e01b81526004810187905286916000916001600160a01b0390911690638daa6fc990602401600060405180830381865afa15801561146e573d6000803e3d6000fd5b505050506040513d6000823e601f3d908101601f191682016040526114969190810190612c7f565b905080516000036114ba57604051632f3ad84b60e11b815260040160405180910390fd5b60fb5460405163020604bf60e21b8152600481018990526001600160a01b03909116903090829063081812fc90602401602060405180830381865afa158015611507573d6000803e3d6000fd5b505050506040513d601f19601f8201168201806040525081019061152b9190612e0e565b6001600160a01b0316146115815760405162461bcd60e51b815260206004820152601960248201527f4e6f74417070726f766564466f724d61726b6574706c61636500000000000000604482015260640161040f565b60fe546040516398cfcf5f60e01b8152600481018a90526000916001600160a01b0316906398cfcf5f90602401608060405180830381865afa1580156115cb573d6000803e3d6000fd5b505050506040513d601f19601f820116820180604052508101906115ef9190612be2565b6040516331a9108f60e11b8152600481018b90529091506000906001600160a01b03841690636352211e90602401602060405180830381865afa15801561163a573d6000803e3d6000fd5b505050506040513d601f19601f8201168201806040525081019061165e9190612e0e565b60408301516060840151919250906116768c8361238c565b6040516323b872dd60e01b81523360048201526001600160a01b038281166024830152604482018e90528616906323b872dd90606401600060405180830381600087803b1580156116c657600080fd5b505af11580156116da573d6000803e3d6000fd5b505050506116e88c82611a10565b60fe5460405163379c3f4f60e11b8152600481018e90526001600160a01b0390911690636f387e9e90602401600060405180830381600087803b15801561172e57600080fd5b505af1158015611742573d6000803e3d6000fd5b5050604080516001600160a01b038088168252851660208201529081018590528e92507f5a1bb95c9f5b9302c58022867300f1559a08b23eed3c0c42b7ce389a6b5a7c52915060600160405180910390a2505050505050505050505050565b60408051608081018252600080825260208201819052918101829052606081019190915260fe546040516398cfcf5f60e01b8152600481018490526000916001600160a01b0316906398cfcf5f90602401608060405180830381865afa15801561180f573d6000803e3d6000fd5b505050506040513d601f19601f82011682018060405250810190610b4b9190612be2565b61183b612008565b6001600160a01b0381166118a05760405162461bcd60e51b815260206004820152602660248201527f4f776e61626c653a206e6577206f776e657220697320746865207a65726f206160448201526564647265737360d01b606482015260840161040f565b610ad181612062565b600054610100900460ff16158080156118c95750600054600160ff909116105b806118e35750303b1580156118e3575060005460ff166001145b6119465760405162461bcd60e51b815260206004820152602e60248201527f496e697469616c697a61626c653a20636f6e747261637420697320616c72656160448201526d191e481a5b9a5d1a585b1a5e995960921b606482015260840161040f565b6000805460ff191660011790558015611969576000805461ff0019166101001790555b61197161268a565b6119796126b9565b60fb80546001600160a01b038088166001600160a01b03199283161790925560fc805487841690831617905560fd805486841690831617905560fe8054928516929091169190911790558015611a09576000805461ff0019169055604051600181527f7f26b83ff96e1f2b6a682f133852f6798a09c465da95921460cefb38474024989060200160405180910390a15b5050505050565b60fe546040516398cfcf5f60e01b8152600481018490526000916001600160a01b0316906398cfcf5f90602401608060405180830381865afa158015611a5a573d6000803e3d6000fd5b505050506040513d601f19601f82011682018060405250810190611a7e9190612be2565b9050600083118015611a9c575060208101516001600160a01b031615155b611ab85760405162461bcd60e51b815260040161040f90612c55565b6001600160a01b038216611b075760405162461bcd60e51b8152602060048201526016602482015275496e76616c696420626964646572206164647265737360501b604482015260640161040f565b60fe546040516333124a4f60e01b8152600481018590526001600160a01b038481166024830152909116906333124a4f90604401600060405180830381600087803b158015611b5557600080fd5b505af1158015611b69573d6000803e3d6000fd5b505060fd54604051638daa6fc960e01b815260048101879052600093506001600160a01b039091169150638daa6fc990602401600060405180830381865afa158015611bb9573d6000803e3d6000fd5b505050506040513d6000823e601f3d908101601f19168201604052611be19190810190612c7f565b60fe5460405162affb0160e01b8152600481018790526001600160a01b0386811660248301529293506000929091169062affb0190604401602060405180830381865afa158015611c36573d6000803e3d6000fd5b505050506040513d601f19601f82011682018060405250810190611c5a9190612bc9565b9050600060018351611c6c9190612e3e565b90506000838281518110611c8257611c82612d31565b602090810291909101015160fe54604051638c4d91a960e01b8152600481018a90526001600160a01b03808416602483015260448201879052929350911690638c4d91a990606401600060405180830381600087803b158015611ce457600080fd5b505af1158015611cf8573d6000803e3d6000fd5b505060fe5460405163057b1b4d60e11b8152600481018b90526001600160a01b038a811660248301529091169250630af6369a9150604401600060405180830381600087803b158015611d4a57600080fd5b505af1158015611d5e573d6000803e3d6000fd5b5050505080848481518110611d7557611d75612d31565b6001600160a01b03928316602091820292909201015260fd5460405163138e2fed60e21b8152600481018a9052911690634e38bfb490602401600060405180830381600087803b158015611dc857600080fd5b505af1158015611ddc573d6000803e3d6000fd5b505060fe5460405163704646fd60e01b8152600481018b90526001600160a01b038a8116602483015260006044830152909116925063704646fd9150606401600060405180830381600087803b158015611e3557600080fd5b505af1158015611e49573d6000803e3d6000fd5b5050604080513381523460208201528a93507f7edef3ff69fe27df6ec60fbe1a8b87f98343758660364ecca467b7b79b70a21392500160405180910390a250505050505050565b610ad1612008565b7f4910fdfa16fed3260ed0e7147f7cc6da11a60208b5b9406d12a635614ffd91435460ff1615611ed057611ecb836126e0565b505050565b826001600160a01b03166352d1902d6040518163ffffffff1660e01b8152600401602060405180830381865afa925050508015611f2a575060408051601f3d908101601f19168201909252611f2791810190612bc9565b60015b611f8d5760405162461bcd60e51b815260206004820152602e60248201527f45524331393637557067726164653a206e657720696d706c656d656e7461746960448201526d6f6e206973206e6f74205555505360901b606482015260840161040f565b600080516020612f738339815191528114611ffc5760405162461bcd60e51b815260206004820152602960248201527f45524331393637557067726164653a20756e737570706f727465642070726f786044820152681a58589b195555525160ba1b606482015260840161040f565b50611ecb83838361277c565b6065546001600160a01b03163314610ce35760405162461bcd60e51b815260206004820181905260248201527f4f776e61626c653a2063616c6c6572206973206e6f7420746865206f776e6572604482015260640161040f565b606580546001600160a01b038381166001600160a01b0319831681179093556040519116919082907f8be0079c531659141344cd1fd0a4f28419497f9722a3daafe3b4186f6b6457e090600090a35050565b6120be83836120f6565b604080516080810182528481526001600160a01b03831660208201529081018390523360608201526120f084826127a1565b50505050565b60fe54604051636ff1db4f60e11b815260048101849052602481018390526001600160a01b039091169063dfe3b69e90604401600060405180830381600087803b15801561214357600080fd5b505af1158015612157573d6000803e3d6000fd5b505060fe54604051631cf879bf60e11b815260048101869052600093506001600160a01b0390911691506339f0f37e90602401602060405180830381865afa1580156121a7573d6000803e3d6000fd5b505050506040513d601f19601f820116820180604052508101906121cb9190612e51565b60fd54604051638daa6fc960e01b8152600481018690529192506000916001600160a01b0390911690638daa6fc990602401600060405180830381865afa15801561221a573d6000803e3d6000fd5b505050506040513d6000823e601f3d908101601f191682016040526122429190810190612c7f565b9050816120f05760fe548151604051638c4d91a960e01b81526004810187905233602482015260448101919091526001600160a01b0390911690638c4d91a990606401600060405180830381600087803b15801561229f57600080fd5b505af11580156122b3573d6000803e3d6000fd5b505060fd546040516327bb428b60e01b8152600481018890523360248201526001600160a01b0390911692506327bb428b9150604401600060405180830381600087803b15801561230357600080fd5b505af1158015612317573d6000803e3d6000fd5b505060fe5460405163704646fd60e01b815260048101889052336024820152600160448201526001600160a01b03909116925063704646fd9150606401600060405180830381600087803b15801561236e57600080fd5b505af1158015612382573d6000803e3d6000fd5b5050505050505050565b816000036123ac5760405162461bcd60e51b815260040161040f90612c55565b600081116123f15760405162461bcd60e51b8152602060048201526012602482015271125b9d985b1a5908189a5908185b5bdd5b9d60721b604482015260640161040f565b60fc5460408051630bea3e4960e21b815290516000926001600160a01b031691632fa8f9249160048083019260209291908290030181865afa15801561243b573d6000803e3d6000fd5b505050506040513d601f19601f8201168201806040525081019061245f9190612e51565b60fd5460405163e462266360e01b81526004810186905291925033916000916001600160a01b03169063e462266390602401602060405180830381865afa1580156124ae573d6000803e3d6000fd5b505050506040513d601f19601f820116820180604052508101906124d29190612e0e565b60fc5460405163654e609160e01b815260048101889052602481018790529192506000916001600160a01b039091169063654e609190604401602060405180830381865afa158015612528573d6000803e3d6000fd5b505050506040513d601f19601f8201168201806040525081019061254c9190612bc9565b90508484612654576001600160a01b0383166125aa5760405162461bcd60e51b815260206004820152601760248201527f496e76616c69642063726561746f722061646472657373000000000000000000604482015260640161040f565b6125b48282612e3e565b6040519091506001600160a01b0384169083156108fc029084906000818181858888f193505050501580156125ed573d6000803e3d6000fd5b5060fc5460405163836b10cd60e01b815260048101899052602481018490526001600160a01b039091169063836b10cd90604401600060405180830381600087803b15801561263b57600080fd5b505af115801561264f573d6000803e3d6000fd5b505050505b6040516001600160a01b0385169082156108fc029083906000818181858888f19350505050158015612382573d6000803e3d6000fd5b600054610100900460ff166126b15760405162461bcd60e51b815260040161040f90612e73565b610ce3612809565b600054610100900460ff16610ce35760405162461bcd60e51b815260040161040f90612e73565b6001600160a01b0381163b61274d5760405162461bcd60e51b815260206004820152602d60248201527f455243313936373a206e657720696d706c656d656e746174696f6e206973206e60448201526c1bdd08184818dbdb9d1c9858dd609a1b606482015260840161040f565b600080516020612f7383398151915280546001600160a01b0319166001600160a01b0392909216919091179055565b61278583612839565b6000825111806127925750805b15611ecb576120f08383612879565b60fe54604051637c801d6560e11b81526001600160a01b039091169063f9003aca906127d39085908590600401612ebe565b600060405180830381600087803b1580156127ed57600080fd5b505af1158015612801573d6000803e3d6000fd5b505050505050565b600054610100900460ff166128305760405162461bcd60e51b815260040161040f90612e73565b610ce333612062565b612842816126e0565b6040516001600160a01b038216907fbc7cd75a20ee27fd9adebab32041f755214dbc6bffa90cc0225b39da2e5c2d3b90600090a250565b60606001600160a01b0383163b6128e15760405162461bcd60e51b815260206004820152602660248201527f416464726573733a2064656c65676174652063616c6c20746f206e6f6e2d636f6044820152651b9d1c9858dd60d21b606482015260840161040f565b600080846001600160a01b0316846040516128fc9190612f23565b600060405180830381855af49150503d8060008114612937576040519150601f19603f3d011682016040523d82523d6000602084013e61293c565b606091505b50915091506129648282604051806060016040528060278152602001612f936027913961296d565b95945050505050565b6060831561297c575081610b4b565b610b4b83838151156129915781518083602001fd5b8060405162461bcd60e51b815260040161040f9190612f3f565b6000602082840312156129bd57600080fd5b5035919050565b6001600160a01b0381168114610ad157600080fd5b6000602082840312156129eb57600080fd5b8135610b4b816129c4565b6020808252825182820181905260009190848201906040850190845b81811015612a375783516001600160a01b031683529284019291840191600101612a12565b50909695505050505050565b634e487b7160e01b600052604160045260246000fd5b604051601f8201601f1916810167ffffffffffffffff81118282101715612a8257612a82612a43565b604052919050565b60008060408385031215612a9d57600080fd5b8235612aa8816129c4565b915060208381013567ffffffffffffffff80821115612ac657600080fd5b818601915086601f830112612ada57600080fd5b813581811115612aec57612aec612a43565b612afe601f8201601f19168501612a59565b91508082528784828501011115612b1457600080fd5b80848401858401376000848284010152508093505050509250929050565b60808101610dc58284805182526020808201516001600160a01b03908116918401919091526040808301519084015260609182015116910152565b60008060008060808587031215612b8357600080fd5b8435612b8e816129c4565b93506020850135612b9e816129c4565b92506040850135612bae816129c4565b91506060850135612bbe816129c4565b939692955090935050565b600060208284031215612bdb57600080fd5b5051919050565b600060808284031215612bf457600080fd5b6040516080810181811067ffffffffffffffff82111715612c1757612c17612a43565b604052825181526020830151612c2c816129c4565b6020820152604083810151908201526060830151612c49816129c4565b60608201529392505050565b60208082526010908201526f125b9d985b1a59081d1bdad95b88125160821b604082015260600190565b60006020808385031215612c9257600080fd5b825167ffffffffffffffff80821115612caa57600080fd5b818501915085601f830112612cbe57600080fd5b815181811115612cd057612cd0612a43565b8060051b9150612ce1848301612a59565b8181529183018401918481019088841115612cfb57600080fd5b938501935b83851015612d255784519250612d15836129c4565b8282529385019390850190612d00565b98975050505050505050565b634e487b7160e01b600052603260045260246000fd5b634e487b7160e01b600052601160045260246000fd5b600060018201612d6f57612d6f612d47565b5060010190565b6020808252602c908201527f46756e6374696f6e206d7573742062652063616c6c6564207468726f7567682060408201526b19195b1959d85d1958d85b1b60a21b606082015260800190565b6020808252602c908201527f46756e6374696f6e206d7573742062652063616c6c6564207468726f7567682060408201526b6163746976652070726f787960a01b606082015260800190565b600060208284031215612e2057600080fd5b8151610b4b816129c4565b80820180821115610dc557610dc5612d47565b81810381811115610dc557610dc5612d47565b600060208284031215612e6357600080fd5b81518015158114610b4b57600080fd5b6020808252602b908201527f496e697469616c697a61626c653a20636f6e7472616374206973206e6f74206960408201526a6e697469616c697a696e6760a81b606082015260800190565b82815260a08101610b4b6020830184805182526020808201516001600160a01b03908116918401919091526040808301519084015260609182015116910152565b60005b83811015612f1a578181015183820152602001612f02565b50506000910152565b60008251612f35818460208701612eff565b9190910192915050565b6020815260008251806020840152612f5e816040850160208701612eff565b601f01601f1916919091016040019291505056fe360894a13ba1a3210667c828492db98dca3e2076cc3735a920a3ca505d382bbc416464726573733a206c6f772d6c6576656c2064656c65676174652063616c6c206661696c6564a26469706673582212206051dcb64129ceaaf4b01dbddb8d597f94fa0f8814a053c03d91354bf1e3373c64736f6c63430008110033",
  "immutableReferences": {
    "746": [
      {
        "length": 32,
        "start": 2559
      },
      {
        "length": 32,
        "start": 2623
      },
      {
        "length": 32,
        "start": 2908
      },
      {
        "length": 32,
        "start": 2972
      },
      {
        "length": 32,
        "start": 3115
      }
    ]
  },
  "source": "// SPDX-License-Identifier: MIT\npragma solidity ^0.8.7;\n\nimport \"@openzeppelin/contracts-upgradeable/proxy/utils/Initializable.sol\";\n\nimport \"@openzeppelin/contracts-upgradeable/token/ERC721/IERC721Upgradeable.sol\";\nimport \"@openzeppelin/contracts-upgradeable/security/ReentrancyGuardUpgradeable.sol\";\nimport \"@openzeppelin/contracts-upgradeable/token/common/ERC2981Upgradeable.sol\";\nimport \"@openzeppelin/contracts-upgradeable/utils/CountersUpgradeable.sol\";\nimport \"@openzeppelin/contracts-upgradeable/access/OwnableUpgradeable.sol\";\nimport \"@openzeppelin/contracts-upgradeable/proxy/utils/UUPSUpgradeable.sol\";\n\nimport \"../NftVendor/NftVendor.sol\";\nimport \"../CCNft/ICCNftStorage.sol\";\nimport \"./INftOffersStorage.sol\";\n\n// Check out https://github.com/Fantom-foundation/Artion-Contracts/blob/5c90d2bc0401af6fb5abf35b860b762b31dfee02/contracts/FantomMarketplace.sol\n// For a full decentralized nft marketplace\n\n// Error thrown for isNotOwner modifier\n// error IsNotOwner()\nerror NotOffers();\n\ncontract NftOffers is\n  Initializable,\n  ReentrancyGuardUpgradeable,\n  OwnableUpgradeable,\n  UUPSUpgradeable\n{\n  address public collection;\n\n  NftVendor public nftVendor;\n  ICCNftStorage private _ccNftStorage;\n  INftOffersStorage private _nftOffersStorage;\n\n  modifier hasOffers(uint256 tokenId) {\n    address[] memory addresses = _ccNftStorage.getAddressFromTokenId(tokenId);\n    if (addresses.length == 0) {\n      revert NotOffers();\n    }\n    _;\n  }\n\n  modifier isOwner(uint256 tokenId, address spender) {\n    IERC721Upgradeable nft = IERC721Upgradeable(collection);\n    address owner = nft.ownerOf(tokenId);\n    if (spender != owner) {\n      revert NotOwner();\n    }\n    _;\n  }\n\n  event NewOffer(\n    uint256 indexed tokenId,\n    address owner,\n    address bidder,\n    uint256 bid\n  );\n  event RemoveOffer(uint256 indexed tokenId, address bidder, uint256 bid);\n  event Withdraw(uint256 indexed tokenId, address bidder, uint256 bid);\n  event AcceptOffer(\n    uint256 indexed tokenId,\n    address owner,\n    address bidder,\n    uint256 bid\n  );\n\n  function initialize(\n    address _collection,\n    address _nftVendor,\n    address ccNftStorageAddress,\n    address nftOffersStorageAddress\n  ) public initializer {\n    __Ownable_init();\n    __UUPSUpgradeable_init();\n    collection = _collection;\n    nftVendor = NftVendor(_nftVendor);\n    _ccNftStorage = ICCNftStorage(ccNftStorageAddress);\n    _nftOffersStorage = INftOffersStorage(nftOffersStorageAddress);\n  }\n\n  function _authorizeUpgrade(address) internal override onlyOwner {}\n\n  function getHighestBid(uint256 _tokenId) external view returns (uint256) {\n    return _nftOffersStorage.getHighestBidByTokenId(_tokenId);\n  }\n\n  function makeOffer(uint256 _tokenId) public payable {\n    // Ensure that the buyer is making a valid offer\n\n    require(msg.value > 0, \"Offer price must be greater than 0\");\n\n    IERC721Upgradeable nft = IERC721Upgradeable(collection);\n    require(nft.ownerOf(_tokenId) != address(0), \"Invalid token ID\");\n\n    uint256 previousBid = _nftOffersStorage.getPreviousBidderBidByTokenId(\n      _tokenId\n    );\n    if (previousBid > 0) {\n      uint256 pending = _nftOffersStorage.getPendingWithdrawalsByAddress(\n        msg.sender\n      );\n      // Use a separate withdraw function to avoid reentrancy attacks\n      pending += previousBid;\n      _nftOffersStorage.setPendingWithdrawals(msg.sender, pending);\n    }\n\n    // if (offerBidsFromTokenId[_tokenId][msg.sender] > 0) {\n    //   uint amount = offerBidsFromTokenId[_tokenId][msg.sender];\n    //   payable(msg.sender).transfer(amount);\n    // }\n\n    uint256 highestBid = _nftOffersStorage.getHighestBidByTokenId(_tokenId);\n    INftOffersStorage.Offer memory offer = _nftOffersStorage\n      .getNftOfferByTokenId(_tokenId);\n\n    //No offers made\n    if (highestBid == 0) {\n      _createNftOffer(_tokenId, msg.value, nft.ownerOf(_tokenId));\n    } else {\n      require(msg.value > offer.highestBid, \"Offer price is too low\");\n      _setOffer(_tokenId, msg.value);\n      _nftOffersStorage.setTokenIdToOffer(_tokenId, msg.value, msg.sender);\n    }\n\n    emit NewOffer(_tokenId, nft.ownerOf(_tokenId), msg.sender, msg.value);\n  }\n\n  function getNftOffer(\n    uint256 _tokenId\n  ) external view returns (INftOffersStorage.Offer memory) {\n    INftOffersStorage.Offer memory offer = _nftOffersStorage\n      .getNftOfferByTokenId(_tokenId);\n    return offer;\n  }\n\n  function getAddressesBids(\n    uint256 _tokenId\n  ) public view returns (address[] memory) {\n    address[] memory bidders = _ccNftStorage.getAddressFromTokenId(_tokenId);\n    return bidders;\n  }\n\n  function getCountNftOffers(uint256 _tokenId) public view returns (uint256) {\n    address[] memory addresses = _ccNftStorage.getAddressFromTokenId(_tokenId);\n    return addresses.length;\n  }\n\n  function withdrawOldOffers() external {\n    uint256 amount = _nftOffersStorage.getPendingWithdrawalsByAddress(\n      msg.sender\n    );\n    require(amount > 0, \"No pending withdrawals\");\n\n    // IMPORTANT: set the pending amount to 0 before sending to prevent re-entrancy attacks\n    _nftOffersStorage.setPendingWithdrawals(msg.sender, 0);\n\n    (bool success, ) = msg.sender.call{ value: amount }(\"\");\n    require(success, \"Withdrawal failed\");\n  }\n\n  function withdraw(uint256 _tokenId) external returns (bool) {\n    INftOffersStorage.Offer memory offer = _nftOffersStorage\n      .getNftOfferByTokenId(_tokenId);\n    uint256 amount = _nftOffersStorage.getOffersBidsFromTokenId(\n      _tokenId,\n      msg.sender\n    );\n\n    require(_tokenId > 0 && offer.seller != address(0), \"Invalid token ID\");\n    require(amount > 0, \"No active bid found\");\n\n    _nftOffersStorage.deleteOffersBidsFromTokenId(_tokenId, msg.sender);\n\n    (bool success, ) = msg.sender.call{ value: amount }(\"\");\n    require(success, \"Transfer failed\");\n\n    emit Withdraw(_tokenId, msg.sender, amount);\n\n    _removeOffer(_tokenId, msg.sender);\n\n    if (amount > 0 && offer.highestBidder == msg.sender) {\n      _nftOffersStorage.setTokenIdToOffer(_tokenId, 0, offer.seller);\n\n      address[] memory addresses = _ccNftStorage.getAddressFromTokenId(\n        _tokenId\n      );\n\n      for (uint256 i = 0; i < addresses.length; i++) {\n        address bidder = addresses[i];\n        uint256 bidAmount = _nftOffersStorage.getOffersBidsFromTokenId(\n          _tokenId,\n          bidder\n        );\n        if (bidAmount > offer.highestBid) {\n          _nftOffersStorage.setTokenIdToOffer(_tokenId, bidAmount, bidder);\n        }\n      }\n    }\n\n    return true;\n  }\n\n  function getCreatorNft(uint256 tokenId) external view returns (address) {\n    address creator = _ccNftStorage.getNftCreator(tokenId);\n    return creator;\n  }\n\n  function payRoyaltiesAndTransfer(\n    uint256 _tokenId,\n    uint256 highestBid\n  ) private {\n    require(_tokenId != 0, \"Invalid token ID\");\n    require(highestBid > 0, \"Invalid bid amount\");\n\n    bool excluded = nftVendor.getIsExcluded();\n    address payable seller = payable(msg.sender);\n    address payable creator = payable(_ccNftStorage.getNftCreator(_tokenId));\n    uint256 royalty = nftVendor.calculateRoyaltyForAcceptedOffer(\n      _tokenId,\n      highestBid\n    );\n    uint256 totalAmount = highestBid;\n\n    if (!excluded) {\n      require(creator != address(0), \"Invalid creator address\");\n      totalAmount -= royalty;\n      creator.transfer(royalty);\n      nftVendor.emitTxFee(_tokenId, royalty);\n    }\n    seller.transfer(totalAmount);\n  }\n\n  function acceptOffer(\n    uint256 _tokenId\n  ) public payable isOwner(_tokenId, msg.sender) hasOffers(_tokenId) {\n    IERC721Upgradeable nft = IERC721Upgradeable(collection);\n    require(\n      nft.getApproved(_tokenId) == address(this),\n      \"NotApprovedForMarketplace\"\n    );\n\n    INftOffersStorage.Offer memory offer = _nftOffersStorage\n      .getNftOfferByTokenId(_tokenId);\n\n    address owner = nft.ownerOf(_tokenId);\n    uint256 highestBid = offer.highestBid;\n    address highestBidder = offer.highestBidder;\n\n    payRoyaltiesAndTransfer(_tokenId, highestBid);\n\n    nft.transferFrom(msg.sender, highestBidder, _tokenId);\n\n    _removeOffer(_tokenId, highestBidder);\n    _nftOffersStorage.deleteTokenIdFromOffer(_tokenId);\n\n    emit AcceptOffer(_tokenId, owner, highestBidder, highestBid);\n  }\n\n  function _createNftOffer(\n    uint256 _tokenId,\n    uint256 _nftPrice,\n    address _seller\n  ) private {\n    // Sanity check that no inputs overflow how many bits we've allocated\n    // to store them in the auction struct.\n\n    _setOffer(_tokenId, _nftPrice);\n\n    INftOffersStorage.Offer memory offer = INftOffersStorage.Offer(\n      _tokenId,\n      _seller,\n      _nftPrice,\n      msg.sender\n    );\n    _addAuction(_tokenId, offer);\n  }\n\n  function _addAuction(\n    uint256 _tokenId,\n    INftOffersStorage.Offer memory _offer\n  ) internal {\n    _nftOffersStorage.setOfferByTokenId(_tokenId, _offer);\n  }\n\n  function _removeOffer(uint256 _tokenId, address bidder) internal {\n    INftOffersStorage.Offer memory offer = _nftOffersStorage\n      .getNftOfferByTokenId(_tokenId);\n\n    require(_tokenId > 0 && offer.seller != address(0), \"Invalid token ID\");\n    require(bidder != address(0), \"Invalid bidder address\");\n    _nftOffersStorage.deleteOffersBidsFromTokenId(_tokenId, bidder);\n\n    address[] memory addresses = _ccNftStorage.getAddressFromTokenId(_tokenId);\n\n    uint index = _nftOffersStorage.getIndexOfOfferBidsFromAddress(\n      _tokenId,\n      bidder\n    );\n    uint lastIndex = addresses.length - 1;\n    address lastBidder = addresses[lastIndex];\n\n    _nftOffersStorage.setIndexOfOffersBidsFromAddress(\n      _tokenId,\n      lastBidder,\n      index\n    );\n    _nftOffersStorage.deleteIndexOfOfferBidsFromAddress(_tokenId, bidder);\n\n    addresses[index] = lastBidder;\n    _ccNftStorage.popAddressFromTokenId(_tokenId);\n    _nftOffersStorage.setHasBidFromTokenId(_tokenId, bidder, false);\n\n    emit RemoveOffer(_tokenId, msg.sender, msg.value);\n  }\n\n  function _setOffer(uint256 _tokenId, uint256 offer) private {\n    _nftOffersStorage.setOfferBidFromTokenId(_tokenId, offer);\n    bool bidderHasBid = _nftOffersStorage.getBidFromBidderByTokenId(_tokenId);\n    address[] memory addresses = _ccNftStorage.getAddressFromTokenId(_tokenId);\n    if (!bidderHasBid) {\n      _nftOffersStorage.setIndexOfOffersBidsFromAddress(\n        _tokenId,\n        msg.sender,\n        addresses.length\n      );\n      _ccNftStorage.pushAddressFromTokenId(_tokenId, msg.sender);\n      _nftOffersStorage.setHasBidFromTokenId(_tokenId, msg.sender, true);\n    }\n  }\n}\n",
  "sourcePath": "/Users/alberto/Desktop/Enalbis/caskchain-mono/apps/contracts/contracts/NftOffers/NftOffers.sol",
  "compiler": {
    "name": "solc",
    "version": "0.8.17+commit.8df45f5f.Emscripten.clang"
  },
  "schemaVersion": "3.4.11",
  "updatedAt": "2023-05-01T19:03:18.234Z",
  "networkType": "ethereum",
  "devdoc": {
    "kind": "dev",
    "methods": {
      "owner()": {
        "details": "Returns the address of the current owner."
      },
      "proxiableUUID()": {
        "details": "Implementation of the ERC1822 {proxiableUUID} function. This returns the storage slot used by the implementation. It is used to validate the implementation's compatibility when performing an upgrade. IMPORTANT: A proxy pointing at a proxiable contract should not be considered proxiable itself, because this risks bricking a proxy that upgrades to it, by delegating to itself until out of gas. Thus it is critical that this function revert if invoked through a proxy. This is guaranteed by the `notDelegated` modifier."
      },
      "renounceOwnership()": {
        "details": "Leaves the contract without owner. It will not be possible to call `onlyOwner` functions anymore. Can only be called by the current owner. NOTE: Renouncing ownership will leave the contract without an owner, thereby removing any functionality that is only available to the owner."
      },
      "transferOwnership(address)": {
        "details": "Transfers ownership of the contract to a new account (`newOwner`). Can only be called by the current owner."
      },
      "upgradeTo(address)": {
        "details": "Upgrade the implementation of the proxy to `newImplementation`. Calls {_authorizeUpgrade}. Emits an {Upgraded} event."
      },
      "upgradeToAndCall(address,bytes)": {
        "details": "Upgrade the implementation of the proxy to `newImplementation`, and subsequently execute the function call encoded in `data`. Calls {_authorizeUpgrade}. Emits an {Upgraded} event."
      }
    },
    "version": 1
  },
  "userdoc": {
    "kind": "user",
    "methods": {},
    "version": 1
  }
}