{
  "contractName": "NftOffersStorage",
  "abi": [
    {
      "anonymous": false,
      "inputs": [
        {
          "indexed": true,
          "internalType": "address",
          "name": "previousOwner",
          "type": "address"
        },
        {
          "indexed": true,
          "internalType": "address",
          "name": "newOwner",
          "type": "address"
        }
      ],
      "name": "OwnershipTransferred",
      "type": "event"
    },
    {
      "inputs": [
        {
          "internalType": "address",
          "name": "",
          "type": "address"
        }
      ],
      "name": "allowedAddresses",
      "outputs": [
        {
          "internalType": "bool",
          "name": "",
          "type": "bool"
        }
      ],
      "stateMutability": "view",
      "type": "function",
      "constant": true
    },
    {
      "inputs": [],
      "name": "owner",
      "outputs": [
        {
          "internalType": "address",
          "name": "",
          "type": "address"
        }
      ],
      "stateMutability": "view",
      "type": "function",
      "constant": true
    },
    {
      "inputs": [],
      "name": "renounceOwnership",
      "outputs": [],
      "stateMutability": "nonpayable",
      "type": "function"
    },
    {
      "inputs": [
        {
          "internalType": "address",
          "name": "newOwner",
          "type": "address"
        }
      ],
      "name": "transferOwnership",
      "outputs": [],
      "stateMutability": "nonpayable",
      "type": "function"
    },
    {
      "inputs": [
        {
          "internalType": "address",
          "name": "_address",
          "type": "address"
        }
      ],
      "name": "addAllowedAddress",
      "outputs": [],
      "stateMutability": "nonpayable",
      "type": "function"
    },
    {
      "inputs": [
        {
          "internalType": "address",
          "name": "_address",
          "type": "address"
        }
      ],
      "name": "removeAllowedAddress",
      "outputs": [],
      "stateMutability": "nonpayable",
      "type": "function"
    },
    {
      "inputs": [
        {
          "internalType": "address",
          "name": "_address",
          "type": "address"
        }
      ],
      "name": "isAllowedAddress",
      "outputs": [
        {
          "internalType": "bool",
          "name": "",
          "type": "bool"
        }
      ],
      "stateMutability": "view",
      "type": "function",
      "constant": true
    },
    {
      "inputs": [
        {
          "internalType": "uint256",
          "name": "_tokenId",
          "type": "uint256"
        }
      ],
      "name": "getPreviousBidderBidByTokenId",
      "outputs": [
        {
          "internalType": "uint256",
          "name": "",
          "type": "uint256"
        }
      ],
      "stateMutability": "view",
      "type": "function",
      "constant": true
    },
    {
      "inputs": [
        {
          "internalType": "uint256",
          "name": "_tokenId",
          "type": "uint256"
        }
      ],
      "name": "getNftOfferByTokenId",
      "outputs": [
        {
          "components": [
            {
              "internalType": "uint256",
              "name": "nftId",
              "type": "uint256"
            },
            {
              "internalType": "address",
              "name": "seller",
              "type": "address"
            },
            {
              "internalType": "uint256",
              "name": "highestBid",
              "type": "uint256"
            },
            {
              "internalType": "address",
              "name": "highestBidder",
              "type": "address"
            }
          ],
          "internalType": "struct NftOffersStorage.Offer",
          "name": "",
          "type": "tuple"
        }
      ],
      "stateMutability": "view",
      "type": "function",
      "constant": true
    },
    {
      "inputs": [
        {
          "internalType": "uint256",
          "name": "_tokenId",
          "type": "uint256"
        }
      ],
      "name": "getBidFromBidderByTokenId",
      "outputs": [
        {
          "internalType": "bool",
          "name": "",
          "type": "bool"
        }
      ],
      "stateMutability": "view",
      "type": "function",
      "constant": true
    },
    {
      "inputs": [
        {
          "internalType": "uint256",
          "name": "_tokenId",
          "type": "uint256"
        },
        {
          "internalType": "address",
          "name": "_address",
          "type": "address"
        }
      ],
      "name": "getOffersBidsFromTokenId",
      "outputs": [
        {
          "internalType": "uint256",
          "name": "",
          "type": "uint256"
        }
      ],
      "stateMutability": "view",
      "type": "function",
      "constant": true
    },
    {
      "inputs": [
        {
          "internalType": "uint256",
          "name": "_tokenId",
          "type": "uint256"
        },
        {
          "internalType": "address",
          "name": "_address",
          "type": "address"
        }
      ],
      "name": "getIndexOfOfferBidsFromAddress",
      "outputs": [
        {
          "internalType": "uint256",
          "name": "",
          "type": "uint256"
        }
      ],
      "stateMutability": "view",
      "type": "function",
      "constant": true
    },
    {
      "inputs": [
        {
          "internalType": "uint256",
          "name": "_tokenId",
          "type": "uint256"
        }
      ],
      "name": "getHighestBidByTokenId",
      "outputs": [
        {
          "internalType": "uint256",
          "name": "",
          "type": "uint256"
        }
      ],
      "stateMutability": "view",
      "type": "function",
      "constant": true
    },
    {
      "inputs": [
        {
          "internalType": "address",
          "name": "_address",
          "type": "address"
        }
      ],
      "name": "getPendingWithdrawalsByAddress",
      "outputs": [
        {
          "internalType": "uint256",
          "name": "",
          "type": "uint256"
        }
      ],
      "stateMutability": "view",
      "type": "function",
      "constant": true
    },
    {
      "inputs": [
        {
          "internalType": "uint256",
          "name": "_tokenId",
          "type": "uint256"
        },
        {
          "internalType": "address",
          "name": "_address",
          "type": "address"
        },
        {
          "internalType": "uint256",
          "name": "_index",
          "type": "uint256"
        }
      ],
      "name": "setIndexOfOffersBidsFromAddress",
      "outputs": [],
      "stateMutability": "nonpayable",
      "type": "function"
    },
    {
      "inputs": [
        {
          "internalType": "uint256",
          "name": "_tokenId",
          "type": "uint256"
        },
        {
          "internalType": "address",
          "name": "_address",
          "type": "address"
        },
        {
          "internalType": "bool",
          "name": "_hasBid",
          "type": "bool"
        }
      ],
      "name": "setHasBidFromTokenId",
      "outputs": [],
      "stateMutability": "nonpayable",
      "type": "function"
    },
    {
      "inputs": [
        {
          "internalType": "uint256",
          "name": "_tokenId",
          "type": "uint256"
        },
        {
          "components": [
            {
              "internalType": "uint256",
              "name": "nftId",
              "type": "uint256"
            },
            {
              "internalType": "address",
              "name": "seller",
              "type": "address"
            },
            {
              "internalType": "uint256",
              "name": "highestBid",
              "type": "uint256"
            },
            {
              "internalType": "address",
              "name": "highestBidder",
              "type": "address"
            }
          ],
          "internalType": "struct NftOffersStorage.Offer",
          "name": "offer",
          "type": "tuple"
        }
      ],
      "name": "setOfferByTokenId",
      "outputs": [],
      "stateMutability": "nonpayable",
      "type": "function"
    },
    {
      "inputs": [
        {
          "internalType": "uint256",
          "name": "_tokenId",
          "type": "uint256"
        },
        {
          "internalType": "uint256",
          "name": "_bid",
          "type": "uint256"
        },
        {
          "internalType": "address",
          "name": "_bidder",
          "type": "address"
        }
      ],
      "name": "setTokenIdToOffer",
      "outputs": [],
      "stateMutability": "nonpayable",
      "type": "function"
    },
    {
      "inputs": [
        {
          "internalType": "address",
          "name": "_address",
          "type": "address"
        },
        {
          "internalType": "uint256",
          "name": "_amount",
          "type": "uint256"
        }
      ],
      "name": "setPendingWithdrawals",
      "outputs": [],
      "stateMutability": "nonpayable",
      "type": "function"
    },
    {
      "inputs": [
        {
          "internalType": "uint256",
          "name": "_tokenId",
          "type": "uint256"
        },
        {
          "internalType": "uint256",
          "name": "_bid",
          "type": "uint256"
        }
      ],
      "name": "setOfferBidFromTokenId",
      "outputs": [],
      "stateMutability": "nonpayable",
      "type": "function"
    },
    {
      "inputs": [
        {
          "internalType": "uint256",
          "name": "_tokenId",
          "type": "uint256"
        },
        {
          "internalType": "address",
          "name": "_address",
          "type": "address"
        }
      ],
      "name": "deleteOffersBidsFromTokenId",
      "outputs": [],
      "stateMutability": "nonpayable",
      "type": "function"
    },
    {
      "inputs": [
        {
          "internalType": "uint256",
          "name": "_tokenId",
          "type": "uint256"
        },
        {
          "internalType": "address",
          "name": "_address",
          "type": "address"
        }
      ],
      "name": "deleteIndexOfOfferBidsFromAddress",
      "outputs": [],
      "stateMutability": "nonpayable",
      "type": "function"
    },
    {
      "inputs": [
        {
          "internalType": "uint256",
          "name": "_tokenId",
          "type": "uint256"
        }
      ],
      "name": "deleteTokenIdFromOffer",
      "outputs": [],
      "stateMutability": "nonpayable",
      "type": "function"
    }
  ],
  "bytecode": "0x608060405234801561001057600080fd5b5061001a3361001f565b61006f565b600080546001600160a01b038381166001600160a01b0319831681178455604051919092169283917f8be0079c531659141344cd1fd0a4f28419497f9722a3daafe3b4186f6b6457e09190a35050565b610c0c8061007e6000396000f3fe608060405234801561001057600080fd5b506004361061014c5760003560e01c8063704646fd116100c35780638da5cb5b1161007c5780638da5cb5b1461036657806398cfcf5f14610381578063d0ce590914610444578063dfe3b69e14610467578063f2fde38b1461047a578063f9003aca1461048d57600080fd5b8063704646fd146102ce578063715018a6146102e157806381788e2b146102e95780638345245e146102fc5780638388522c146103285780638c4d91a91461035357600080fd5b80633c9d93b8116101155780633c9d93b8146102135780634120657a146102265780635f2d813f146102495780636d20538c1461025c5780636f387e9e146102925780636f9844dd146102a557600080fd5b8062affb01146101515780630af6369a1461019a57806333124a4f146101af57806339f0f37e146101c25780633b27e98014610200575b600080fd5b61018761015f3660046109a6565b60009182526008602090815260408084206001600160a01b0393909316845291905290205490565b6040519081526020015b60405180910390f35b6101ad6101a83660046109a6565b6104a0565b005b6101ad6101bd3660046109a6565b6104fe565b6101f06101d03660046109d2565b600090815260096020908152604080832033845290915290205460ff1690565b6040519015158152602001610191565b6101ad61020e3660046109eb565b610553565b6101ad610221366004610a20565b6105bb565b6101f0610234366004610a20565b60056020526000908152604090205460ff1681565b6101ad610257366004610a42565b6105e4565b61018761026a3660046109a6565b60009182526007602090815260408084206001600160a01b0393909316845291905290205490565b6101ad6102a03660046109d2565b61062f565b6101876102b3366004610a20565b6001600160a01b03166000908152600a602052604090205490565b6101ad6102dc366004610a6c565b610698565b6101ad6106fc565b6101ad6102f7366004610a20565b610710565b6101f061030a366004610a20565b6001600160a01b031660009081526005602052604090205460ff1690565b6101876103363660046109d2565b600090815260076020908152604080832033845290915290205490565b6101ad610361366004610ab1565b61073c565b6000546040516001600160a01b039091168152602001610191565b61040261038f3660046109d2565b6040805160808101825260008082526020820181905291810182905260608101919091525060009081526006602090815260409182902082516080810184528154815260018201546001600160a01b03908116938201939093526002820154938101939093526003015416606082015290565b6040516101919190815181526020808301516001600160a01b039081169183019190915260408084015190830152606092830151169181019190915260800190565b6101876104523660046109d2565b60009081526006602052604090206002015490565b6101ad610475366004610ae6565b610791565b6101ad610488366004610a20565b6107dd565b6101ad61049b366004610b08565b610856565b3360009081526005602052604090205460ff166104d85760405162461bcd60e51b81526004016104cf90610ba7565b60405180910390fd5b60009182526008602090815260408084206001600160a01b039093168452919052812055565b3360009081526005602052604090205460ff1661052d5760405162461bcd60e51b81526004016104cf90610ba7565b60009182526007602090815260408084206001600160a01b039093168452919052812055565b3360009081526005602052604090205460ff166105825760405162461bcd60e51b81526004016104cf90610ba7565b6000928352600660205260409092206003810180546001600160a01b0319166001600160a01b0390941693909317909255600290910155565b6105c36108e0565b6001600160a01b03166000908152600560205260409020805460ff19169055565b3360009081526005602052604090205460ff166106135760405162461bcd60e51b81526004016104cf90610ba7565b6001600160a01b039091166000908152600a6020526040902055565b3360009081526005602052604090205460ff1661065e5760405162461bcd60e51b81526004016104cf90610ba7565b60009081526006602052604081208181556001810180546001600160a01b0319908116909155600282019290925560030180549091169055565b3360009081526005602052604090205460ff166106c75760405162461bcd60e51b81526004016104cf90610ba7565b60009283526009602090815260408085206001600160a01b039490941685529290529120805460ff1916911515919091179055565b6107046108e0565b61070e600061093a565b565b6107186108e0565b6001600160a01b03166000908152600560205260409020805460ff19166001179055565b3360009081526005602052604090205460ff1661076b5760405162461bcd60e51b81526004016104cf90610ba7565b60009283526008602090815260408085206001600160a01b039094168552929052912055565b3360009081526005602052604090205460ff166107c05760405162461bcd60e51b81526004016104cf90610ba7565b600091825260076020908152604080842033855290915290912055565b6107e56108e0565b6001600160a01b03811661084a5760405162461bcd60e51b815260206004820152602660248201527f4f776e61626c653a206e6577206f776e657220697320746865207a65726f206160448201526564647265737360d01b60648201526084016104cf565b6108538161093a565b50565b3360009081526005602052604090205460ff166108855760405162461bcd60e51b81526004016104cf90610ba7565b60009182526006602090815260409283902082518155908201516001820180546001600160a01b03199081166001600160a01b0393841617909155938301516002830155606090920151600390910180549093169116179055565b6000546001600160a01b0316331461070e5760405162461bcd60e51b815260206004820181905260248201527f4f776e61626c653a2063616c6c6572206973206e6f7420746865206f776e657260448201526064016104cf565b600080546001600160a01b038381166001600160a01b0319831681178455604051919092169283917f8be0079c531659141344cd1fd0a4f28419497f9722a3daafe3b4186f6b6457e09190a35050565b80356001600160a01b03811681146109a157600080fd5b919050565b600080604083850312156109b957600080fd5b823591506109c96020840161098a565b90509250929050565b6000602082840312156109e457600080fd5b5035919050565b600080600060608486031215610a0057600080fd5b8335925060208401359150610a176040850161098a565b90509250925092565b600060208284031215610a3257600080fd5b610a3b8261098a565b9392505050565b60008060408385031215610a5557600080fd5b610a5e8361098a565b946020939093013593505050565b600080600060608486031215610a8157600080fd5b83359250610a916020850161098a565b915060408401358015158114610aa657600080fd5b809150509250925092565b600080600060608486031215610ac657600080fd5b83359250610ad66020850161098a565b9150604084013590509250925092565b60008060408385031215610af957600080fd5b50508035926020909101359150565b60008082840360a0811215610b1c57600080fd5b833592506080601f1982011215610b3257600080fd5b506040516080810181811067ffffffffffffffff82111715610b6457634e487b7160e01b600052604160045260246000fd5b806040525060208401358152610b7c6040850161098a565b602082015260608401356040820152610b976080850161098a565b6060820152809150509250929050565b60208082526015908201527410d85b1b195c881a5cc81b9bdd08185b1b1bddd959605a1b60408201526060019056fea2646970667358221220479316feab91ddd44fd286a54c290136de6e7e602276709911cd3b64b132f8cb64736f6c63430008110033",
  "immutableReferences": {},
  "source": "// SPDX-License-Identifier: MIT\npragma solidity ^0.8.0;\nimport \"@openzeppelin/contracts/access/Ownable.sol\";\n\ncontract NftOffersStorage is Ownable {\n  struct Offer {\n    // Current owner of NFT\n    uint256 nftId;\n    address seller;\n    uint highestBid;\n    address highestBidder;\n  }\n\n  Offer internal _offer;\n\n  // Address => Boolean\n  mapping(address => bool) public allowedAddresses;\n  // Map from token ID to their corresponding auction.\n  mapping(uint256 => Offer) tokenIdToOffer;\n  // NFT Id => Account Address => Bid\n  mapping(uint256 => mapping(address => uint256)) internal offerBidsFromTokenId;\n  // NFT Id => Account Address => Index\n  mapping(uint256 => mapping(address => uint256))\n    internal indexOfofferBidsFromAddress;\n  // NFT Id => Address => bool\n  mapping(uint256 => mapping(address => bool)) internal hasBidFromTokenId;\n  mapping(address => uint256) internal pendingWithdrawals;\n\n  /////////////////////\n  // MODIFIERS //\n  /////////////////////\n\n  modifier onlyAllowed() {\n    require(allowedAddresses[msg.sender], \"Caller is not allowed\");\n    _;\n  }\n\n  /////////////////////\n  // ALLOWED ADDRESSES MANAGEMENT //\n  /////////////////////\n\n  function addAllowedAddress(address _address) public onlyOwner {\n    allowedAddresses[_address] = true;\n  }\n\n  function removeAllowedAddress(address _address) public onlyOwner {\n    allowedAddresses[_address] = false;\n  }\n\n  function isAllowedAddress(address _address) public view returns (bool) {\n    return allowedAddresses[_address];\n  }\n\n  // GETTERES\n  function getPreviousBidderBidByTokenId(\n    uint256 _tokenId\n  ) public view returns (uint256) {\n    return offerBidsFromTokenId[_tokenId][msg.sender];\n  }\n\n  function getNftOfferByTokenId(\n    uint256 _tokenId\n  ) external view returns (Offer memory) {\n    return tokenIdToOffer[_tokenId];\n  }\n\n  function getBidFromBidderByTokenId(\n    uint256 _tokenId\n  ) public view returns (bool) {\n    return hasBidFromTokenId[_tokenId][msg.sender];\n  }\n\n  function getOffersBidsFromTokenId(\n    uint256 _tokenId,\n    address _address\n  ) public view returns (uint256) {\n    return offerBidsFromTokenId[_tokenId][_address];\n  }\n\n  function getIndexOfOfferBidsFromAddress(\n    uint256 _tokenId,\n    address _address\n  ) public view returns (uint256) {\n    return indexOfofferBidsFromAddress[_tokenId][_address];\n  }\n\n  function getHighestBidByTokenId(\n    uint256 _tokenId\n  ) public view returns (uint256) {\n    return tokenIdToOffer[_tokenId].highestBid;\n  }\n\n  function getPendingWithdrawalsByAddress(\n    address _address\n  ) public view returns (uint256) {\n    return pendingWithdrawals[_address];\n  }\n\n  // SETTERS\n\n  function setIndexOfOffersBidsFromAddress(\n    uint256 _tokenId,\n    address _address,\n    uint256 _index\n  ) public onlyAllowed {\n    indexOfofferBidsFromAddress[_tokenId][_address] = _index;\n  }\n\n  function setHasBidFromTokenId(\n    uint256 _tokenId,\n    address _address,\n    bool _hasBid\n  ) public onlyAllowed {\n    hasBidFromTokenId[_tokenId][_address] = _hasBid;\n  }\n\n  function setOfferByTokenId(\n    uint256 _tokenId,\n    Offer memory offer\n  ) public onlyAllowed {\n    tokenIdToOffer[_tokenId] = offer;\n  }\n\n  function setTokenIdToOffer(\n    uint256 _tokenId,\n    uint256 _bid,\n    address _bidder\n  ) public onlyAllowed {\n    tokenIdToOffer[_tokenId].highestBidder = _bidder;\n    tokenIdToOffer[_tokenId].highestBid = _bid;\n  }\n\n  function setPendingWithdrawals(\n    address _address,\n    uint256 _amount\n  ) public onlyAllowed {\n    pendingWithdrawals[_address] = _amount;\n  }\n\n  function setOfferBidFromTokenId(\n    uint256 _tokenId,\n    uint256 _bid\n  ) public onlyAllowed {\n    offerBidsFromTokenId[_tokenId][msg.sender] = _bid;\n  }\n\n  function deleteOffersBidsFromTokenId(\n    uint256 _tokenId,\n    address _address\n  ) public onlyAllowed {\n    delete offerBidsFromTokenId[_tokenId][_address];\n  }\n\n  function deleteIndexOfOfferBidsFromAddress(\n    uint256 _tokenId,\n    address _address\n  ) public onlyAllowed {\n    delete indexOfofferBidsFromAddress[_tokenId][_address];\n  }\n\n  function deleteTokenIdFromOffer(uint256 _tokenId) public onlyAllowed {\n    delete tokenIdToOffer[_tokenId];\n  }\n}\n",
  "sourcePath": "/Users/alberto/Desktop/Enalbis/caskchain-mono/apps/contracts/contracts/NftOffers/NftOffersStorage.sol",
  "compiler": {
    "name": "solc",
    "version": "0.8.17+commit.8df45f5f.Emscripten.clang"
  },
  "schemaVersion": "3.4.11",
  "updatedAt": "2023-05-01T10:19:37.142Z",
  "networkType": "ethereum",
  "devdoc": {
    "kind": "dev",
    "methods": {
      "owner()": {
        "details": "Returns the address of the current owner."
      },
      "renounceOwnership()": {
        "details": "Leaves the contract without owner. It will not be possible to call `onlyOwner` functions anymore. Can only be called by the current owner. NOTE: Renouncing ownership will leave the contract without an owner, thereby removing any functionality that is only available to the owner."
      },
      "transferOwnership(address)": {
        "details": "Transfers ownership of the contract to a new account (`newOwner`). Can only be called by the current owner."
      }
    },
    "version": 1
  },
  "userdoc": {
    "kind": "user",
    "methods": {},
    "version": 1
  }
}