{
  "contractName": "NftOffers",
  "abi": [
    {
      "inputs": [
        {
          "internalType": "address",
          "name": "_collection",
          "type": "address"
        },
        {
          "internalType": "address",
          "name": "_nftVendor",
          "type": "address"
        }
      ],
      "stateMutability": "nonpayable",
      "type": "constructor"
    },
    {
      "inputs": [],
      "name": "NotApprovedForMarketplace",
      "type": "error"
    },
    {
      "inputs": [],
      "name": "NotOffers",
      "type": "error"
    },
    {
      "inputs": [],
      "name": "NotOwner",
      "type": "error"
    },
    {
      "anonymous": false,
      "inputs": [
        {
          "indexed": false,
          "internalType": "uint256",
          "name": "tokenId",
          "type": "uint256"
        },
        {
          "indexed": false,
          "internalType": "address",
          "name": "bidder",
          "type": "address"
        },
        {
          "indexed": false,
          "internalType": "uint256",
          "name": "bid",
          "type": "uint256"
        }
      ],
      "name": "AcceptOffer",
      "type": "event"
    },
    {
      "anonymous": false,
      "inputs": [
        {
          "indexed": false,
          "internalType": "uint256",
          "name": "tokenId",
          "type": "uint256"
        },
        {
          "indexed": false,
          "internalType": "address",
          "name": "bidder",
          "type": "address"
        },
        {
          "indexed": false,
          "internalType": "uint256",
          "name": "bid",
          "type": "uint256"
        }
      ],
      "name": "NewOffer",
      "type": "event"
    },
    {
      "anonymous": false,
      "inputs": [
        {
          "indexed": false,
          "internalType": "uint256",
          "name": "tokenId",
          "type": "uint256"
        },
        {
          "indexed": false,
          "internalType": "address",
          "name": "bidder",
          "type": "address"
        },
        {
          "indexed": false,
          "internalType": "uint256",
          "name": "bid",
          "type": "uint256"
        }
      ],
      "name": "Withdraw",
      "type": "event"
    },
    {
      "inputs": [
        {
          "internalType": "uint256",
          "name": "",
          "type": "uint256"
        },
        {
          "internalType": "uint256",
          "name": "",
          "type": "uint256"
        }
      ],
      "name": "addressesFromTokenId",
      "outputs": [
        {
          "internalType": "address",
          "name": "",
          "type": "address"
        }
      ],
      "stateMutability": "view",
      "type": "function",
      "constant": true
    },
    {
      "inputs": [],
      "name": "collection",
      "outputs": [
        {
          "internalType": "address",
          "name": "",
          "type": "address"
        }
      ],
      "stateMutability": "view",
      "type": "function",
      "constant": true
    },
    {
      "inputs": [],
      "name": "nftVendor",
      "outputs": [
        {
          "internalType": "contract NftVendor",
          "name": "",
          "type": "address"
        }
      ],
      "stateMutability": "view",
      "type": "function",
      "constant": true
    },
    {
      "inputs": [
        {
          "internalType": "uint256",
          "name": "",
          "type": "uint256"
        },
        {
          "internalType": "address",
          "name": "",
          "type": "address"
        }
      ],
      "name": "offerBidsFromTokenId",
      "outputs": [
        {
          "internalType": "uint256",
          "name": "",
          "type": "uint256"
        }
      ],
      "stateMutability": "view",
      "type": "function",
      "constant": true
    },
    {
      "inputs": [
        {
          "internalType": "uint256",
          "name": "_tokenId",
          "type": "uint256"
        }
      ],
      "name": "makeOffer",
      "outputs": [],
      "stateMutability": "payable",
      "type": "function",
      "payable": true
    },
    {
      "inputs": [
        {
          "internalType": "uint256",
          "name": "_tokenId",
          "type": "uint256"
        }
      ],
      "name": "getAddressesBids",
      "outputs": [
        {
          "internalType": "address[]",
          "name": "",
          "type": "address[]"
        }
      ],
      "stateMutability": "view",
      "type": "function",
      "constant": true
    },
    {
      "inputs": [
        {
          "internalType": "uint256",
          "name": "_tokenId",
          "type": "uint256"
        }
      ],
      "name": "getNftOffer",
      "outputs": [
        {
          "components": [
            {
              "internalType": "uint256",
              "name": "nftId",
              "type": "uint256"
            },
            {
              "internalType": "address",
              "name": "seller",
              "type": "address"
            },
            {
              "internalType": "uint256",
              "name": "highestBid",
              "type": "uint256"
            },
            {
              "internalType": "address",
              "name": "highestBidder",
              "type": "address"
            }
          ],
          "internalType": "struct NftOffers.Offer",
          "name": "",
          "type": "tuple"
        }
      ],
      "stateMutability": "view",
      "type": "function",
      "constant": true
    },
    {
      "inputs": [
        {
          "internalType": "uint256",
          "name": "_tokenId",
          "type": "uint256"
        }
      ],
      "name": "getCountNftOffers",
      "outputs": [
        {
          "internalType": "uint256",
          "name": "",
          "type": "uint256"
        }
      ],
      "stateMutability": "view",
      "type": "function",
      "constant": true
    },
    {
      "inputs": [
        {
          "internalType": "uint256",
          "name": "_tokenId",
          "type": "uint256"
        }
      ],
      "name": "withdraw",
      "outputs": [
        {
          "internalType": "bool",
          "name": "",
          "type": "bool"
        }
      ],
      "stateMutability": "payable",
      "type": "function",
      "payable": true
    },
    {
      "inputs": [
        {
          "internalType": "uint256",
          "name": "_tokenId",
          "type": "uint256"
        }
      ],
      "name": "acceptOffer",
      "outputs": [],
      "stateMutability": "payable",
      "type": "function",
      "payable": true
    }
  ],
  "bytecode": "0x608060405234801561001057600080fd5b506040516111d33803806111d383398101604081905261002f91610081565b6001600081905580546001600160a01b039384166001600160a01b031991821617909155600280549290931691161790556100b4565b80516001600160a01b038116811461007c57600080fd5b919050565b6000806040838503121561009457600080fd5b61009d83610065565b91506100ab60208401610065565b90509250929050565b611110806100c36000396000f3fe6080604052600436106100915760003560e01c80639a2f6474116100595780639a2f647414610189578063a9cebfa91461019e578063b760f713146101cb578063c815729d146101eb578063e9cf32a0146101fe57600080fd5b80632e1a7d4d146100965780633ac23785146100be5780634405f981146101045780634880ba13146101315780637de1e53614610169575b600080fd5b6100a96100a4366004610f37565b6102ce565b60405190151581526020015b60405180910390f35b3480156100ca57600080fd5b506100f66100d9366004610f68565b600460209081526000928352604080842090915290825290205481565b6040519081526020016100b5565b34801561011057600080fd5b5061012461011f366004610f37565b610589565b6040516100b59190610f98565b34801561013d57600080fd5b5061015161014c366004610fe5565b6105f5565b6040516001600160a01b0390911681526020016100b5565b34801561017557600080fd5b50600154610151906001600160a01b031681565b61019c610197366004610f37565b61062d565b005b3480156101aa57600080fd5b506100f66101b9366004610f37565b60009081526006602052604090205490565b3480156101d757600080fd5b50600254610151906001600160a01b031681565b61019c6101f9366004610f37565b61084b565b34801561020a57600080fd5b5061028c610219366004610f37565b6040805160808101825260008082526020820181905291810182905260608101919091525060009081526003602081815260409283902083516080810185528154815260018201546001600160a01b03908116938201939093526002820154948101949094529091015416606082015290565b6040516100b59190815181526020808301516001600160a01b039081169183019190915260408084015190830152606092830151169181019190915260800190565b600081815260046020908152604080832033845290915281205461034b5760405162461bcd60e51b815260206004820152602960248201527f596f75206d757374206861766520612062696420746f2062652061626c6520746044820152686f207769746472617760b81b60648201526084015b60405180910390fd5b6000828152600460209081526040808320338085529252808320549051909283156108fc02918491818181858888f19350505050158015610390573d6000803e3d6000fd5b5061039b8333610ae9565b60008381526003602081905260409091200154336001600160a01b03909116036105405760008381526003602081905260408220600281018390556001810154910180546001600160a01b0319166001600160a01b039092169190911790555b60008481526006602052604090205481101561053e5760008481526003602090815260408083206002015460048352818420600690935290832080549193918590811061044a5761044a611007565b60009182526020808320909101546001600160a01b03168352820192909252604001902054111561052c576000848152600460209081526040808320600690925282208054919291849081106104a2576104a2611007565b60009182526020808320909101546001600160a01b031683528281019390935260409182018120548782526003845282822060020155600690925290208054829081106104f1576104f1611007565b600091825260208083209091015486835260039182905260409092200180546001600160a01b0319166001600160a01b039092169190911790555b8061053681611033565b9150506103fb565b505b604080518481523360208201529081018290527f9da6493a92039daf47d1f2d7a782299c5994c6323eb1e972f69c432089ec52bf9060600160405180910390a150600192915050565b60008181526006602090815260408083208054825181850281018501909352808352606094938301828280156105e857602002820191906000526020600020905b81546001600160a01b031681526001909101906020018083116105ca575b5093979650505050505050565b6006602052816000526040600020818154811061061157600080fd5b6000918252602090912001546001600160a01b03169150829050565b600034116106765760405162461bcd60e51b81526020600482015260166024820152754f6666657220707269636520697320746f6f206c6f7760501b6044820152606401610342565b6000818152600460209081526040808320338452909152902054156106dd576000818152600460209081526040808320338085529252808320549051909283156108fc02918491818181858888f193505050501580156106da573d6000803e3d6000fd5b50505b600081815260036020526040812060020154900361077b576001546040516331a9108f60e11b8152600481018390526001600160a01b03909116906000908290636352211e90602401602060405180830381865afa158015610743573d6000803e3d6000fd5b505050506040513d601f19601f82011682018060405250810190610767919061104c565b9050610774833483610c31565b505061080a565b60008181526003602052604090206002015434116107d45760405162461bcd60e51b81526020600482015260166024820152754f6666657220707269636520697320746f6f206c6f7760501b6044820152606401610342565b6107de8134610cb2565b600081815260036020819052604090912090810180546001600160a01b03191633179055346002909101555b60408051828152336020820152348183015290517f807b4f3a2cbecd0aaf3901534108511941eb0791a301b39b3593e8e20a2c759d9181900360600190a150565b6001546040516331a9108f60e11b815260048101839052829133916001600160a01b03909116906000908290636352211e90602401602060405180830381865afa15801561089d573d6000803e3d6000fd5b505050506040513d601f19601f820116820180604052508101906108c1919061104c565b9050806001600160a01b0316836001600160a01b0316146108f5576040516330cd747160e01b815260040160405180910390fd5b60008581526006602052604081205486910361092457604051632f3ad84b60e11b815260040160405180910390fd5b60015460405163020604bf60e21b8152600481018890526001600160a01b03909116903090829063081812fc90602401602060405180830381865afa158015610971573d6000803e3d6000fd5b505050506040513d601f19601f82011682018060405250810190610995919061104c565b6001600160a01b0316146109bc57604051634be3a2c560e01b815260040160405180910390fd5b600087815260036020819052604090912060028101549101546001600160a01b03166109e88983610d13565b6040516323b872dd60e01b81523360048201526001600160a01b038281166024830152604482018b90528416906323b872dd90606401600060405180830381600087803b158015610a3857600080fd5b505af1158015610a4c573d6000803e3d6000fd5b50505050610a5a8982610ae9565b60008981526003602081815260408084208481556001810180546001600160a01b03199081169091556002820195909555909201805490931690925580518b81526001600160a01b0384169281019290925281018390527f9f25f19f4c5c9535d6114be907c32cb1692ce9db9cad630da2d7296ceecd695a9060600160405180910390a1505050505050505050565b60008281526004602090815260408083206001600160a01b038516808552908352818420849055858452600583528184209084528252808320548584526006909252822054909190610b3d90600190611070565b60008581526006602052604081208054929350909183908110610b6257610b62611007565b6000918252602080832091909101548783526005825260408084206001600160a01b039283168086529084528185208890559188168452808420849055888452600690925291208054919250829185908110610bc057610bc0611007565b600091825260208083209190910180546001600160a01b0319166001600160a01b039490941693909317909255868152600690915260409020805480610c0857610c08611089565b600082815260209020810160001990810180546001600160a01b03191690550190555050505050565b610c3b8383610cb2565b604080516080810182528481526001600160a01b039283166020808301918252828401958652336060840190815260009788526003918290529390962091518255516001820180549185166001600160a01b0319928316179055935160028201559051930180549390911692909116919091179055565b60008281526004602090815260408083203380855290835281842094909455938252600680825284832080546005845286852086865284529584208690559082526001850181558252902090910180546001600160a01b0319169091179055565b60015460025460408051631a7a0a7f60e01b815290516001600160a01b03938416936000938493911691631a7a0a7f916004808201926020929091908290030181865afa158015610d68573d6000803e3d6000fd5b505050506040513d601f19601f82011682018060405250810190610d8c919061109f565b60405163e462266360e01b81526004810187905290915033906000906001600160a01b0386169063e462266390602401602060405180830381865afa158015610dd9573d6000803e3d6000fd5b505050506040513d601f19601f82011682018060405250810190610dfd919061104c565b60025460405163654e609160e01b8152600481018a9052602481018990529192506001600160a01b03169063654e609190604401602060405180830381865afa158015610e4e573d6000803e3d6000fd5b505050506040513d601f19601f82011682018060405250810190610e7291906110c1565b93508215610eb6576040516001600160a01b0383169087156108fc029088906000818181858888f19350505050158015610eb0573d6000803e3d6000fd5b50610f2e565b6040516001600160a01b0382169085156108fc029086906000818181858888f19350505050158015610eec573d6000803e3d6000fd5b506001600160a01b0382166108fc610f048689611070565b6040518115909202916000818181858888f19350505050158015610f2c573d6000803e3d6000fd5b505b50505050505050565b600060208284031215610f4957600080fd5b5035919050565b6001600160a01b0381168114610f6557600080fd5b50565b60008060408385031215610f7b57600080fd5b823591506020830135610f8d81610f50565b809150509250929050565b6020808252825182820181905260009190848201906040850190845b81811015610fd95783516001600160a01b031683529284019291840191600101610fb4565b50909695505050505050565b60008060408385031215610ff857600080fd5b50508035926020909101359150565b634e487b7160e01b600052603260045260246000fd5b634e487b7160e01b600052601160045260246000fd5b6000600182016110455761104561101d565b5060010190565b60006020828403121561105e57600080fd5b815161106981610f50565b9392505050565b818103818111156110835761108361101d565b92915050565b634e487b7160e01b600052603160045260246000fd5b6000602082840312156110b157600080fd5b8151801515811461106957600080fd5b6000602082840312156110d357600080fd5b505191905056fea26469706673582212205c9a58f4ac7506ba82798c9d6f39b105aaa1c802d96789625d601a622d1e16bb64736f6c63430008110033",
  "immutableReferences": {},
  "source": "// SPDX-License-Identifier: MIT\npragma solidity ^0.8.7;\n\nimport \"@openzeppelin/contracts/token/ERC721/IERC721.sol\";\nimport \"@openzeppelin/contracts/security/ReentrancyGuard.sol\";\nimport '@openzeppelin/contracts/token/common/ERC2981.sol';\nimport '@openzeppelin/contracts/utils/Counters.sol';\nimport './NftVendor.sol';\nimport './CCNft.sol';\n\n// Check out https://github.com/Fantom-foundation/Artion-Contracts/blob/5c90d2bc0401af6fb5abf35b860b762b31dfee02/contracts/FantomMarketplace.sol\n// For a full decentralized nft marketplace\n\n\n\n// Error thrown for isNotOwner modifier\n// error IsNotOwner()\nerror NotOffers();\n\ncontract NftOffers is ReentrancyGuard {\n\nstruct Offer {\n    // Current owner of NFT\n    uint256 nftId;\n    address seller;\n    uint highestBid;\n    address highestBidder;\n}\n\naddress public collection;\nNftVendor public nftVendor;\n\n\n// Map from token ID to their corresponding auction.\nmapping(uint256 => Offer) tokenIdToOffer;\n// NFT Id => Account Address => Bid\nmapping(uint256 => mapping(address => uint256)) public offerBidsFromTokenId;\n// NFT Id => Account Address => Index\nmapping(uint256 => mapping(address => uint256)) indexOfofferBidsFromAddress;\n// NFT Id => Address[]\nmapping(uint256 => address[]) public addressesFromTokenId;\n\nmodifier hasOffers(\n    uint256 tokenId\n) {\n    if (addressesFromTokenId[tokenId].length == 0) {\n        revert NotOffers();\n    }\n    _;\n}\n\nmodifier isOwner(\n    uint256 tokenId,\n    address spender\n) {\n    IERC721 nft = IERC721(collection);\n    address owner = nft.ownerOf(tokenId);\n    if (spender != owner) {\n        revert NotOwner();\n    }\n    _;\n}\n\nevent NewOffer(uint256 tokenId, address bidder, uint256 bid);\nevent Withdraw(uint256 tokenId, address bidder, uint256 bid);\nevent AcceptOffer(uint256 tokenId, address bidder, uint256 bid);\n\n\nconstructor(address _collection, address _nftVendor) {\n    collection = _collection;\n    nftVendor = NftVendor(_nftVendor);\n}\n\nfunction makeOffer(uint256 _tokenId) public payable {\n\n    // Ensure that the buyer is making a valid offer\n\n    require(msg.value > 0,'Offer price is too low');\n\n    if (offerBidsFromTokenId[_tokenId][msg.sender] > 0) {\n        uint amount = offerBidsFromTokenId[_tokenId][msg.sender];\n        payable(msg.sender).transfer(amount);\n    }\n\n    // No offers made\n    if (tokenIdToOffer[_tokenId].highestBid == 0) {\n        IERC721 nft = IERC721(collection);\n        address owner = nft.ownerOf(_tokenId);\n        _createNftOffer(_tokenId, msg.value, owner);\n    } else {\n        require(msg.value > tokenIdToOffer[_tokenId].highestBid,'Offer price is too low');\n        _setOffer(_tokenId, msg.value);\n        tokenIdToOffer[_tokenId].highestBidder = msg.sender;\n        tokenIdToOffer[_tokenId].highestBid = msg.value;\n    }\n\n    emit NewOffer(_tokenId,msg.sender, msg.value);\n}\n\nfunction getAddressesBids(uint256 _tokenId) public view returns (address[] memory) {\n  address[] memory bidders = addressesFromTokenId[_tokenId];\n  return bidders;\n}\n\nfunction getNftOffer(uint256 _tokenId) public view returns (Offer memory) {\n    Offer memory offer = tokenIdToOffer[_tokenId];\n    return offer;\n}\n\nfunction getCountNftOffers(uint256 _tokenId) public view returns (uint256) {\n    return addressesFromTokenId[_tokenId].length;\n}\n\nfunction withdraw(uint256 _tokenId) external payable returns (bool) {\n    require(\n      offerBidsFromTokenId[_tokenId][msg.sender] > 0,\n      'You must have a bid to be able to witdraw'\n    );\n\n    uint amount = offerBidsFromTokenId[_tokenId][msg.sender];\n    payable(msg.sender).transfer(amount);\n\n    _removeOffer(_tokenId, msg.sender);\n\n    if (tokenIdToOffer[_tokenId].highestBidder == msg.sender) {\n      tokenIdToOffer[_tokenId].highestBid = 0;\n      tokenIdToOffer[_tokenId].highestBidder = tokenIdToOffer[_tokenId].seller;\n      for (uint i = 0; i < addressesFromTokenId[_tokenId].length; i++) {\n        if (offerBidsFromTokenId[_tokenId][addressesFromTokenId[_tokenId][i]] > tokenIdToOffer[_tokenId].highestBid) {\n          tokenIdToOffer[_tokenId].highestBid = offerBidsFromTokenId[_tokenId][addressesFromTokenId[_tokenId][i]];\n          tokenIdToOffer[_tokenId].highestBidder = addressesFromTokenId[_tokenId][i];\n        }\n      }\n    }\n\n    emit Withdraw(_tokenId, msg.sender, amount);\n\n    return true;\n}\n\nfunction payRoyaltiesAndTransfer(uint256 _tokenId, uint256 highestBid) private {\n\n    CCNft nft = CCNft(collection);\n    uint256 royalty;\n\n    bool excluded = nftVendor.isExcluded();\n    address payable seller = payable(msg.sender);\n    address payable creator = payable(nft.getNftCreator(_tokenId));\n\n    royalty = nftVendor.calculateRoyaltyForAcceptedOffer(_tokenId, highestBid);\n\n    if (excluded) {\n        seller.transfer(highestBid);\n    } else {\n        creator.transfer(royalty);\n        seller.transfer(highestBid - royalty);\n    }\n}\n\nfunction acceptOffer(uint256 _tokenId) public payable isOwner(_tokenId, msg.sender) hasOffers(_tokenId) {\n\n    CCNft nft = CCNft(collection);\n    if (nft.getApproved(_tokenId) != address(this)) {\n        revert NotApprovedForMarketplace();\n    }\n    \n    uint256 highestBid = tokenIdToOffer[_tokenId].highestBid;\n    address highestBidder = tokenIdToOffer[_tokenId].highestBidder;\n\n    payRoyaltiesAndTransfer(_tokenId, highestBid);\n\n    nft.transferFrom(msg.sender, highestBidder, _tokenId);\n\n    _removeOffer(_tokenId, highestBidder);\n    delete tokenIdToOffer[_tokenId];\n\n    emit AcceptOffer(_tokenId, highestBidder, highestBid);\n\n}\n\nfunction _createNftOffer(uint256 _tokenId, uint256 _nftPrice, address _seller) private  {\n    // Sanity check that no inputs overflow how many bits we've allocated\n    // to store them in the auction struct.\n\n    _setOffer(_tokenId, _nftPrice);\n\n    Offer memory offer = Offer(\n        _tokenId,\n        _seller,\n        _nftPrice,\n        msg.sender\n    );\n\n    _addAuction(_tokenId, offer);\n}\n\nfunction _removeOffer(uint256 _tokenId, address bidder) internal {\n    delete offerBidsFromTokenId[_tokenId][bidder];\n\n    uint index = indexOfofferBidsFromAddress[_tokenId][bidder];\n    uint lastIndex = addressesFromTokenId[_tokenId].length - 1;\n    address lastBidder = addressesFromTokenId[_tokenId][lastIndex];\n\n    indexOfofferBidsFromAddress[_tokenId][lastBidder] = index;\n    delete indexOfofferBidsFromAddress[_tokenId][bidder];\n\n    addressesFromTokenId[_tokenId][index] = lastBidder;\n    addressesFromTokenId[_tokenId].pop();\n}\n\nfunction _addAuction(uint256 _tokenId, Offer memory _offer) internal {\n    tokenIdToOffer[_tokenId] = _offer;\n}\n\nfunction _setOffer(uint256 _tokenId, uint256 offer) private {\n    offerBidsFromTokenId[_tokenId][msg.sender] = offer;\n    indexOfofferBidsFromAddress[_tokenId][msg.sender] = addressesFromTokenId[_tokenId].length;\n    addressesFromTokenId[_tokenId].push(msg.sender);\n}\n\n   \n\n}",
  "sourcePath": "/Users/alberto/Desktop/Enalbis/caskchain-mono/apps/contracts/contracts/NftOffers.sol",
  "compiler": {
    "name": "solc",
    "version": "0.8.17+commit.8df45f5f.Emscripten.clang"
  },
  "schemaVersion": "3.4.11",
  "updatedAt": "2023-03-29T15:17:04.657Z",
  "networkType": "ethereum",
  "devdoc": {
    "kind": "dev",
    "methods": {},
    "version": 1
  },
  "userdoc": {
    "kind": "user",
    "methods": {},
    "version": 1
  }
}