{
  "contractName": "NftOffers",
  "abi": [
    {
      "inputs": [],
      "name": "NotOffers",
      "type": "error"
    },
    {
      "inputs": [],
      "name": "NotOwner",
      "type": "error"
    },
    {
      "anonymous": false,
      "inputs": [
        {
          "indexed": true,
          "internalType": "uint256",
          "name": "tokenId",
          "type": "uint256"
        },
        {
          "indexed": false,
          "internalType": "address",
          "name": "owner",
          "type": "address"
        },
        {
          "indexed": false,
          "internalType": "address",
          "name": "bidder",
          "type": "address"
        },
        {
          "indexed": false,
          "internalType": "uint256",
          "name": "bid",
          "type": "uint256"
        }
      ],
      "name": "AcceptOffer",
      "type": "event"
    },
    {
      "anonymous": false,
      "inputs": [
        {
          "indexed": false,
          "internalType": "address",
          "name": "previousAdmin",
          "type": "address"
        },
        {
          "indexed": false,
          "internalType": "address",
          "name": "newAdmin",
          "type": "address"
        }
      ],
      "name": "AdminChanged",
      "type": "event"
    },
    {
      "anonymous": false,
      "inputs": [
        {
          "indexed": true,
          "internalType": "address",
          "name": "beacon",
          "type": "address"
        }
      ],
      "name": "BeaconUpgraded",
      "type": "event"
    },
    {
      "anonymous": false,
      "inputs": [
        {
          "indexed": false,
          "internalType": "uint8",
          "name": "version",
          "type": "uint8"
        }
      ],
      "name": "Initialized",
      "type": "event"
    },
    {
      "anonymous": false,
      "inputs": [
        {
          "indexed": true,
          "internalType": "uint256",
          "name": "tokenId",
          "type": "uint256"
        },
        {
          "indexed": false,
          "internalType": "address",
          "name": "owner",
          "type": "address"
        },
        {
          "indexed": false,
          "internalType": "address",
          "name": "bidder",
          "type": "address"
        },
        {
          "indexed": false,
          "internalType": "uint256",
          "name": "bid",
          "type": "uint256"
        }
      ],
      "name": "NewOffer",
      "type": "event"
    },
    {
      "anonymous": false,
      "inputs": [
        {
          "indexed": true,
          "internalType": "address",
          "name": "previousOwner",
          "type": "address"
        },
        {
          "indexed": true,
          "internalType": "address",
          "name": "newOwner",
          "type": "address"
        }
      ],
      "name": "OwnershipTransferred",
      "type": "event"
    },
    {
      "anonymous": false,
      "inputs": [
        {
          "indexed": true,
          "internalType": "uint256",
          "name": "tokenId",
          "type": "uint256"
        },
        {
          "indexed": false,
          "internalType": "address",
          "name": "bidder",
          "type": "address"
        },
        {
          "indexed": false,
          "internalType": "uint256",
          "name": "bid",
          "type": "uint256"
        }
      ],
      "name": "RemoveOffer",
      "type": "event"
    },
    {
      "anonymous": false,
      "inputs": [
        {
          "indexed": true,
          "internalType": "address",
          "name": "implementation",
          "type": "address"
        }
      ],
      "name": "Upgraded",
      "type": "event"
    },
    {
      "anonymous": false,
      "inputs": [
        {
          "indexed": true,
          "internalType": "uint256",
          "name": "tokenId",
          "type": "uint256"
        },
        {
          "indexed": false,
          "internalType": "address",
          "name": "bidder",
          "type": "address"
        },
        {
          "indexed": false,
          "internalType": "uint256",
          "name": "bid",
          "type": "uint256"
        }
      ],
      "name": "Withdraw",
      "type": "event"
    },
    {
      "inputs": [],
      "name": "collection",
      "outputs": [
        {
          "internalType": "address",
          "name": "",
          "type": "address"
        }
      ],
      "stateMutability": "view",
      "type": "function",
      "constant": true
    },
    {
      "inputs": [],
      "name": "creator",
      "outputs": [
        {
          "internalType": "address",
          "name": "",
          "type": "address"
        }
      ],
      "stateMutability": "view",
      "type": "function",
      "constant": true
    },
    {
      "inputs": [],
      "name": "nftVendor",
      "outputs": [
        {
          "internalType": "contract NftVendor",
          "name": "",
          "type": "address"
        }
      ],
      "stateMutability": "view",
      "type": "function",
      "constant": true
    },
    {
      "inputs": [],
      "name": "owner",
      "outputs": [
        {
          "internalType": "address",
          "name": "",
          "type": "address"
        }
      ],
      "stateMutability": "view",
      "type": "function",
      "constant": true
    },
    {
      "inputs": [],
      "name": "proxiableUUID",
      "outputs": [
        {
          "internalType": "bytes32",
          "name": "",
          "type": "bytes32"
        }
      ],
      "stateMutability": "view",
      "type": "function",
      "constant": true
    },
    {
      "inputs": [],
      "name": "renounceOwnership",
      "outputs": [],
      "stateMutability": "nonpayable",
      "type": "function"
    },
    {
      "inputs": [
        {
          "internalType": "address",
          "name": "newOwner",
          "type": "address"
        }
      ],
      "name": "transferOwnership",
      "outputs": [],
      "stateMutability": "nonpayable",
      "type": "function"
    },
    {
      "inputs": [
        {
          "internalType": "address",
          "name": "newImplementation",
          "type": "address"
        }
      ],
      "name": "upgradeTo",
      "outputs": [],
      "stateMutability": "nonpayable",
      "type": "function"
    },
    {
      "inputs": [
        {
          "internalType": "address",
          "name": "newImplementation",
          "type": "address"
        },
        {
          "internalType": "bytes",
          "name": "data",
          "type": "bytes"
        }
      ],
      "name": "upgradeToAndCall",
      "outputs": [],
      "stateMutability": "payable",
      "type": "function",
      "payable": true
    },
    {
      "inputs": [
        {
          "internalType": "address",
          "name": "_collection",
          "type": "address"
        },
        {
          "internalType": "address",
          "name": "_creator",
          "type": "address"
        },
        {
          "internalType": "address",
          "name": "_nftVendor",
          "type": "address"
        },
        {
          "internalType": "address",
          "name": "nftOffersStorageAddress",
          "type": "address"
        }
      ],
      "name": "initialize",
      "outputs": [],
      "stateMutability": "nonpayable",
      "type": "function"
    },
    {
      "inputs": [
        {
          "internalType": "uint256",
          "name": "_tokenId",
          "type": "uint256"
        }
      ],
      "name": "getHighestBid",
      "outputs": [
        {
          "internalType": "uint256",
          "name": "",
          "type": "uint256"
        }
      ],
      "stateMutability": "view",
      "type": "function",
      "constant": true
    },
    {
      "inputs": [
        {
          "internalType": "uint256",
          "name": "_tokenId",
          "type": "uint256"
        }
      ],
      "name": "getNftOffer",
      "outputs": [
        {
          "components": [
            {
              "internalType": "uint256",
              "name": "nftId",
              "type": "uint256"
            },
            {
              "internalType": "address",
              "name": "seller",
              "type": "address"
            },
            {
              "internalType": "uint256",
              "name": "highestBid",
              "type": "uint256"
            },
            {
              "internalType": "address",
              "name": "highestBidder",
              "type": "address"
            }
          ],
          "internalType": "struct INftOffersStorage.Offer",
          "name": "",
          "type": "tuple"
        }
      ],
      "stateMutability": "view",
      "type": "function",
      "constant": true
    },
    {
      "inputs": [
        {
          "internalType": "uint256",
          "name": "_tokenId",
          "type": "uint256"
        }
      ],
      "name": "getAddressesBids",
      "outputs": [
        {
          "internalType": "address[]",
          "name": "",
          "type": "address[]"
        }
      ],
      "stateMutability": "view",
      "type": "function",
      "constant": true
    },
    {
      "inputs": [
        {
          "internalType": "uint256",
          "name": "_tokenId",
          "type": "uint256"
        }
      ],
      "name": "getPrevious",
      "outputs": [
        {
          "internalType": "uint256",
          "name": "",
          "type": "uint256"
        }
      ],
      "stateMutability": "view",
      "type": "function",
      "constant": true
    },
    {
      "inputs": [
        {
          "internalType": "uint256",
          "name": "_tokenId",
          "type": "uint256"
        }
      ],
      "name": "makeOffer",
      "outputs": [],
      "stateMutability": "payable",
      "type": "function",
      "payable": true
    },
    {
      "inputs": [
        {
          "internalType": "uint256",
          "name": "_tokenId",
          "type": "uint256"
        }
      ],
      "name": "acceptOffer",
      "outputs": [],
      "stateMutability": "payable",
      "type": "function",
      "payable": true
    },
    {
      "inputs": [
        {
          "internalType": "uint256",
          "name": "_tokenId",
          "type": "uint256"
        }
      ],
      "name": "cancelOffer",
      "outputs": [],
      "stateMutability": "nonpayable",
      "type": "function"
    }
  ],
  "bytecode": "0x60a06040523060805234801561001457600080fd5b5060805161270661004c600039600081816103350152818161037e015281816105100152818161055001526105e301526127066000f3fe6080604052600436106100fe5760003560e01c80638da5cb5b11610095578063c815729d11610064578063c815729d1461028b578063e9cf32a01461029e578063ef706adf146102cb578063f2fde38b146102eb578063f8c8765e1461030b57600080fd5b80638da5cb5b1461021a5780638f288644146102385780639a2f647414610258578063b760f7131461026b57600080fd5b80634f1ef286116100d15780634f1ef286146101bd57806352d1902d146101d0578063715018a6146101e55780637de1e536146101fa57600080fd5b806302d05d3f146101035780633659cfe6146101405780634405f981146101625780634528b3571461018f575b600080fd5b34801561010f57600080fd5b5060fc54610123906001600160a01b031681565b6040516001600160a01b0390911681526020015b60405180910390f35b34801561014c57600080fd5b5061016061015b3660046120ea565b61032b565b005b34801561016e57600080fd5b5061018261017d366004612107565b610413565b6040516101379190612120565b34801561019b57600080fd5b506101af6101aa366004612107565b610491565b604051908152602001610137565b6101606101cb3660046121b4565b610506565b3480156101dc57600080fd5b506101af6105d6565b3480156101f157600080fd5b50610160610689565b34801561020657600080fd5b5060fb54610123906001600160a01b031681565b34801561022657600080fd5b506065546001600160a01b0316610123565b34801561024457600080fd5b506101af610253366004612107565b61069d565b610160610266366004612107565b6106cf565b34801561027757600080fd5b5060fd54610123906001600160a01b031681565b610160610299366004612107565b610a94565b3480156102aa57600080fd5b506102be6102b9366004612107565b610ebf565b604051610137919061225c565b3480156102d757600080fd5b506101606102e6366004612107565b610f51565b3480156102f757600080fd5b506101606103063660046120ea565b6113c3565b34801561031757600080fd5b50610160610326366004612297565b611439565b6001600160a01b037f000000000000000000000000000000000000000000000000000000000000000016300361037c5760405162461bcd60e51b8152600401610373906122f3565b60405180910390fd5b7f00000000000000000000000000000000000000000000000000000000000000006001600160a01b03166103c560008051602061268a833981519152546001600160a01b031690565b6001600160a01b0316146103eb5760405162461bcd60e51b81526004016103739061233f565b6103f48161159f565b60408051600080825260208201909252610410918391906115a7565b50565b60ff54604051638daa6fc960e01b8152600481018390526060916000916001600160a01b0390911690638daa6fc990602401600060405180830381865afa158015610462573d6000803e3d6000fd5b505050506040513d6000823e601f3d908101601f1916820160405261048a919081019061238b565b9392505050565b60ff546040516320e2148b60e21b8152600481018390526000916001600160a01b031690638388522c906024015b602060405180830381865afa1580156104dc573d6000803e3d6000fd5b505050506040513d601f19601f82011682018060405250810190610500919061243d565b92915050565b6001600160a01b037f000000000000000000000000000000000000000000000000000000000000000016300361054e5760405162461bcd60e51b8152600401610373906122f3565b7f00000000000000000000000000000000000000000000000000000000000000006001600160a01b031661059760008051602061268a833981519152546001600160a01b031690565b6001600160a01b0316146105bd5760405162461bcd60e51b81526004016103739061233f565b6105c68261159f565b6105d2828260016115a7565b5050565b6000306001600160a01b037f000000000000000000000000000000000000000000000000000000000000000016146106765760405162461bcd60e51b815260206004820152603860248201527f555550535570677261646561626c653a206d757374206e6f742062652063616c60448201527f6c6564207468726f7567682064656c656761746563616c6c00000000000000006064820152608401610373565b5060008051602061268a83398151915290565b610691611717565b61069b6000611771565b565b60ff5460405163d0ce590960e01b8152600481018390526000916001600160a01b03169063d0ce5909906024016104bf565b6000341161072a5760405162461bcd60e51b815260206004820152602260248201527f4f66666572207072696365206d7573742062652067726561746572207468616e604482015261020360f41b6064820152608401610373565b60fb546040516331a9108f60e11b8152600481018390526001600160a01b03909116906000908290636352211e90602401602060405180830381865afa158015610778573d6000803e3d6000fd5b505050506040513d601f19601f8201168201806040525081019061079c9190612456565b6001600160a01b0316036107c25760405162461bcd60e51b815260040161037390612473565b60ff546040516320e2148b60e21b8152600481018490526000916001600160a01b031690638388522c90602401602060405180830381865afa15801561080c573d6000803e3d6000fd5b505050506040513d601f19601f82011682018060405250810190610830919061243d565b905080156108925760405162461bcd60e51b815260206004820152602960248201527f596f75206d75737420776974686472617720796f75722070726576696f757320604482015268189a5908199a5c9cdd60ba1b6064820152608401610373565b60ff5460405163d0ce590960e01b8152600481018590526000916001600160a01b03169063d0ce590990602401602060405180830381865afa1580156108dc573d6000803e3d6000fd5b505050506040513d601f19601f82011682018060405250810190610900919061243d565b905080600003610988576109838434856001600160a01b0316636352211e886040518263ffffffff1660e01b815260040161093d91815260200190565b602060405180830381865afa15801561095a573d6000803e3d6000fd5b505050506040513d601f19601f8201168201806040525081019061097e9190612456565b6117c3565b6109da565b8034116109d05760405162461bcd60e51b81526020600482015260166024820152754f6666657220707269636520697320746f6f206c6f7760501b6044820152606401610373565b6109da8434611857565b6040516331a9108f60e11b81526004810185905284907fd465e4b8dcc4d0ccee59a07ef3fc9f8e9bf8e1c64b331153db12f55363e598c2906001600160a01b03861690636352211e90602401602060405180830381865afa158015610a43573d6000803e3d6000fd5b505050506040513d601f19601f82011682018060405250810190610a679190612456565b604080516001600160a01b039092168252336020830152349082015260600160405180910390a250505050565b60fb546040516331a9108f60e11b815260048101839052829133916001600160a01b03909116906000908290636352211e90602401602060405180830381865afa158015610ae6573d6000803e3d6000fd5b505050506040513d601f19601f82011682018060405250810190610b0a9190612456565b9050806001600160a01b0316836001600160a01b031614610b3e576040516330cd747160e01b815260040160405180910390fd5b60ff54604051638daa6fc960e01b81526004810187905286916000916001600160a01b0390911690638daa6fc990602401600060405180830381865afa158015610b8c573d6000803e3d6000fd5b505050506040513d6000823e601f3d908101601f19168201604052610bb4919081019061238b565b90508051600003610bd857604051632f3ad84b60e11b815260040160405180910390fd5b60fb5460405163020604bf60e21b8152600481018990526001600160a01b03909116903090829063081812fc90602401602060405180830381865afa158015610c25573d6000803e3d6000fd5b505050506040513d601f19601f82011682018060405250810190610c499190612456565b6001600160a01b031614610c9f5760405162461bcd60e51b815260206004820152601960248201527f4e6f74417070726f766564466f724d61726b6574706c616365000000000000006044820152606401610373565b60ff546040516398cfcf5f60e01b8152600481018a90526000916001600160a01b0316906398cfcf5f90602401608060405180830381865afa158015610ce9573d6000803e3d6000fd5b505050506040513d601f19601f82011682018060405250810190610d0d919061249d565b6040516331a9108f60e11b8152600481018b90529091506000906001600160a01b03841690636352211e90602401602060405180830381865afa158015610d58573d6000803e3d6000fd5b505050506040513d601f19601f82011682018060405250810190610d7c9190612456565b6040830151606084015191925090610d948c83611a00565b6040516323b872dd60e01b81523360048201526001600160a01b038281166024830152604482018e90528616906323b872dd90606401600060405180830381600087803b158015610de457600080fd5b505af1158015610df8573d6000803e3d6000fd5b50505050610e068c82611c9b565b60ff5460405163379c3f4f60e11b8152600481018e90526001600160a01b0390911690636f387e9e90602401600060405180830381600087803b158015610e4c57600080fd5b505af1158015610e60573d6000803e3d6000fd5b5050604080516001600160a01b038088168252851660208201529081018590528e92507f5a1bb95c9f5b9302c58022867300f1559a08b23eed3c0c42b7ce389a6b5a7c52915060600160405180910390a2505050505050505050505050565b60408051608081018252600080825260208201819052918101829052606081019190915260ff546040516398cfcf5f60e01b8152600481018490526000916001600160a01b0316906398cfcf5f90602401608060405180830381865afa158015610f2d573d6000803e3d6000fd5b505050506040513d601f19601f8201168201806040525081019061048a919061249d565b60ff546040516320e2148b60e21b8152600481018390526000916001600160a01b031690638388522c90602401602060405180830381865afa158015610f9b573d6000803e3d6000fd5b505050506040513d601f19601f82011682018060405250810190610fbf919061243d565b9050600081116110075760405162461bcd60e51b8152602060048201526013602482015272139bc81858dd1a5d9948189a5908199bdd5b99606a1b6044820152606401610373565b60ff546040516398cfcf5f60e01b8152600481018490526000916001600160a01b0316906398cfcf5f90602401608060405180830381865afa158015611051573d6000803e3d6000fd5b505050506040513d601f19601f82011682018060405250810190611075919061249d565b60ff546040516320e2148b60e21b8152600481018690529192506000916001600160a01b0390911690638388522c90602401602060405180830381865afa1580156110c4573d6000803e3d6000fd5b505050506040513d601f19601f820116820180604052508101906110e8919061243d565b9050600084118015611106575060208201516001600160a01b031615155b6111225760405162461bcd60e51b815260040161037390612473565b600081116111685760405162461bcd60e51b8152602060048201526013602482015272139bc81858dd1a5d9948189a5908199bdd5b99606a1b6044820152606401610373565b604051600090339083908381818185875af1925050503d80600081146111aa576040519150601f19603f3d011682016040523d82523d6000602084013e6111af565b606091505b50509050806111f25760405162461bcd60e51b815260206004820152600f60248201526e151c985b9cd9995c8819985a5b1959608a1b6044820152606401610373565b336001600160a01b031683606001516001600160a01b0316036113bc5760ff54604051638daa6fc960e01b8152600481018790526000916001600160a01b031690638daa6fc990602401600060405180830381865afa158015611259573d6000803e3d6000fd5b505050506040513d6000823e601f3d908101601f19168201604052611281919081019061238b565b905060005b81518110156113b95760008282815181106112a3576112a3612510565b602090810291909101015160ff54604051631b4814e360e21b8152600481018b90526001600160a01b03808416602483015292935060009290911690636d20538c90604401602060405180830381865afa158015611305573d6000803e3d6000fd5b505050506040513d601f19601f82011682018060405250810190611329919061243d565b905086604001518111156113a45760ff5460405162764fd360e71b8152600481018b9052602481018390526001600160a01b03848116604483015290911690633b27e98090606401600060405180830381600087803b15801561138b57600080fd5b505af115801561139f573d6000803e3d6000fd5b505050505b505080806113b19061253c565b915050611286565b50505b5050505050565b6113cb611717565b6001600160a01b0381166114305760405162461bcd60e51b815260206004820152602660248201527f4f776e61626c653a206e6577206f776e657220697320746865207a65726f206160448201526564647265737360d01b6064820152608401610373565b61041081611771565b600054610100900460ff16158080156114595750600054600160ff909116105b806114735750303b158015611473575060005460ff166001145b6114d65760405162461bcd60e51b815260206004820152602e60248201527f496e697469616c697a61626c653a20636f6e747261637420697320616c72656160448201526d191e481a5b9a5d1a585b1a5e995960921b6064820152608401610373565b6000805460ff1916600117905580156114f9576000805461ff0019166101001790555b611501611e16565b611509611e45565b60fb80546001600160a01b038088166001600160a01b03199283161790925560fc805487841690831617905560fd805486841690831617905560ff80549285169290911691909117905580156113bc576000805461ff0019169055604051600181527f7f26b83ff96e1f2b6a682f133852f6798a09c465da95921460cefb38474024989060200160405180910390a15050505050565b610410611717565b7f4910fdfa16fed3260ed0e7147f7cc6da11a60208b5b9406d12a635614ffd91435460ff16156115df576115da83611e6c565b505050565b826001600160a01b03166352d1902d6040518163ffffffff1660e01b8152600401602060405180830381865afa925050508015611639575060408051601f3d908101601f191682019092526116369181019061243d565b60015b61169c5760405162461bcd60e51b815260206004820152602e60248201527f45524331393637557067726164653a206e657720696d706c656d656e7461746960448201526d6f6e206973206e6f74205555505360901b6064820152608401610373565b60008051602061268a833981519152811461170b5760405162461bcd60e51b815260206004820152602960248201527f45524331393637557067726164653a20756e737570706f727465642070726f786044820152681a58589b195555525160ba1b6064820152608401610373565b506115da838383611f08565b6065546001600160a01b0316331461069b5760405162461bcd60e51b815260206004820181905260248201527f4f776e61626c653a2063616c6c6572206973206e6f7420746865206f776e65726044820152606401610373565b606580546001600160a01b038381166001600160a01b0319831681179093556040519116919082907f8be0079c531659141344cd1fd0a4f28419497f9722a3daafe3b4186f6b6457e090600090a35050565b6117cd8383611857565b604080516080810182528481526001600160a01b03808416602083015281830185905233606083015260ff549251637c801d6560e11b81529192169063f9003aca9061181f9087908590600401612555565b600060405180830381600087803b15801561183957600080fd5b505af115801561184d573d6000803e3d6000fd5b5050505050505050565b60ff54604051637690d1bb60e11b815260048101849052602481018390526001600160a01b039091169063ed21a37690604401600060405180830381600087803b1580156118a457600080fd5b505af11580156118b8573d6000803e3d6000fd5b505060ff54604051638daa6fc960e01b815260048101869052600093506001600160a01b039091169150638daa6fc990602401600060405180830381865afa158015611908573d6000803e3d6000fd5b505050506040513d6000823e601f3d908101601f19168201604052611930919081019061238b565b60ff548151604051638c4d91a960e01b81526004810187905233602482015260448101919091529192506001600160a01b031690638c4d91a990606401600060405180830381600087803b15801561198757600080fd5b505af115801561199b573d6000803e3d6000fd5b505060ff5460405163147daddd60e11b8152600481018790523360248201526001600160a01b0390911692506328fb5bba91506044015b600060405180830381600087803b1580156119ec57600080fd5b505af11580156113b9573d6000803e3d6000fd5b81600003611a205760405162461bcd60e51b815260040161037390612473565b60008111611a655760405162461bcd60e51b8152602060048201526012602482015271125b9d985b1a5908189a5908185b5bdd5b9d60721b6044820152606401610373565b60fd5460408051630bea3e4960e21b815290516000926001600160a01b031691632fa8f9249160048083019260209291908290030181865afa158015611aaf573d6000803e3d6000fd5b505050506040513d601f19601f82011682018060405250810190611ad39190612596565b60fc5460fd5460405163654e609160e01b8152600481018790526024810186905292935033926001600160a01b0392831692600092169063654e609190604401602060405180830381865afa158015611b30573d6000803e3d6000fd5b505050506040513d601f19601f82011682018060405250810190611b54919061243d565b90508484611c655760fc546001600160a01b0316611bb45760405162461bcd60e51b815260206004820152601760248201527f496e76616c69642063726561746f7220616464726573730000000000000000006044820152606401610373565b611bbe82826125b8565b6040519091506001600160a01b0384169083156108fc029084906000818181858888f19350505050158015611bf7573d6000803e3d6000fd5b5060fd5460405163b6f2611560e01b81526004810189905260248101849052600060448201526001600160a01b039091169063b6f2611590606401600060405180830381600087803b158015611c4c57600080fd5b505af1158015611c60573d6000803e3d6000fd5b505050505b6040516001600160a01b0385169082156108fc029083906000818181858888f1935050505015801561184d573d6000803e3d6000fd5b60ff546040516333124a4f60e01b8152600481018490526001600160a01b038381166024830152909116906333124a4f90604401600060405180830381600087803b158015611ce957600080fd5b505af1158015611cfd573d6000803e3d6000fd5b505060ff5460405162affb0160e01b8152600481018690526001600160a01b03858116602483015260009450909116915062affb0190604401602060405180830381865afa158015611d53573d6000803e3d6000fd5b505050506040513d601f19601f82011682018060405250810190611d77919061243d565b60ff546040516367803ee560e01b815260048101869052602481018390529192506001600160a01b0316906367803ee590604401600060405180830381600087803b158015611dc557600080fd5b505af1158015611dd9573d6000803e3d6000fd5b505060ff5460405163057b1b4d60e11b8152600481018790526001600160a01b0386811660248301529091169250630af6369a91506044016119d2565b600054610100900460ff16611e3d5760405162461bcd60e51b8152600401610373906125cb565b61069b611f33565b600054610100900460ff1661069b5760405162461bcd60e51b8152600401610373906125cb565b6001600160a01b0381163b611ed95760405162461bcd60e51b815260206004820152602d60248201527f455243313936373a206e657720696d706c656d656e746174696f6e206973206e60448201526c1bdd08184818dbdb9d1c9858dd609a1b6064820152608401610373565b60008051602061268a83398151915280546001600160a01b0319166001600160a01b0392909216919091179055565b611f1183611f63565b600082511180611f1e5750805b156115da57611f2d8383611fa3565b50505050565b600054610100900460ff16611f5a5760405162461bcd60e51b8152600401610373906125cb565b61069b33611771565b611f6c81611e6c565b6040516001600160a01b038216907fbc7cd75a20ee27fd9adebab32041f755214dbc6bffa90cc0225b39da2e5c2d3b90600090a250565b60606001600160a01b0383163b61200b5760405162461bcd60e51b815260206004820152602660248201527f416464726573733a2064656c65676174652063616c6c20746f206e6f6e2d636f6044820152651b9d1c9858dd60d21b6064820152608401610373565b600080846001600160a01b031684604051612026919061263a565b600060405180830381855af49150503d8060008114612061576040519150601f19603f3d011682016040523d82523d6000602084013e612066565b606091505b509150915061208e82826040518060600160405280602781526020016126aa60279139612097565b95945050505050565b606083156120a657508161048a565b61048a83838151156120bb5781518083602001fd5b8060405162461bcd60e51b81526004016103739190612656565b6001600160a01b038116811461041057600080fd5b6000602082840312156120fc57600080fd5b813561048a816120d5565b60006020828403121561211957600080fd5b5035919050565b6020808252825182820181905260009190848201906040850190845b818110156121615783516001600160a01b03168352928401929184019160010161213c565b50909695505050505050565b634e487b7160e01b600052604160045260246000fd5b604051601f8201601f1916810167ffffffffffffffff811182821017156121ac576121ac61216d565b604052919050565b600080604083850312156121c757600080fd5b82356121d2816120d5565b915060208381013567ffffffffffffffff808211156121f057600080fd5b818601915086601f83011261220457600080fd5b8135818111156122165761221661216d565b612228601f8201601f19168501612183565b9150808252878482850101111561223e57600080fd5b80848401858401376000848284010152508093505050509250929050565b608081016105008284805182526020808201516001600160a01b03908116918401919091526040808301519084015260609182015116910152565b600080600080608085870312156122ad57600080fd5b84356122b8816120d5565b935060208501356122c8816120d5565b925060408501356122d8816120d5565b915060608501356122e8816120d5565b939692955090935050565b6020808252602c908201527f46756e6374696f6e206d7573742062652063616c6c6564207468726f7567682060408201526b19195b1959d85d1958d85b1b60a21b606082015260800190565b6020808252602c908201527f46756e6374696f6e206d7573742062652063616c6c6564207468726f7567682060408201526b6163746976652070726f787960a01b606082015260800190565b6000602080838503121561239e57600080fd5b825167ffffffffffffffff808211156123b657600080fd5b818501915085601f8301126123ca57600080fd5b8151818111156123dc576123dc61216d565b8060051b91506123ed848301612183565b818152918301840191848101908884111561240757600080fd5b938501935b838510156124315784519250612421836120d5565b828252938501939085019061240c565b98975050505050505050565b60006020828403121561244f57600080fd5b5051919050565b60006020828403121561246857600080fd5b815161048a816120d5565b60208082526010908201526f125b9d985b1a59081d1bdad95b88125160821b604082015260600190565b6000608082840312156124af57600080fd5b6040516080810181811067ffffffffffffffff821117156124d2576124d261216d565b6040528251815260208301516124e7816120d5565b6020820152604083810151908201526060830151612504816120d5565b60608201529392505050565b634e487b7160e01b600052603260045260246000fd5b634e487b7160e01b600052601160045260246000fd5b60006001820161254e5761254e612526565b5060010190565b82815260a0810161048a6020830184805182526020808201516001600160a01b03908116918401919091526040808301519084015260609182015116910152565b6000602082840312156125a857600080fd5b8151801515811461048a57600080fd5b8181038181111561050057610500612526565b6020808252602b908201527f496e697469616c697a61626c653a20636f6e7472616374206973206e6f74206960408201526a6e697469616c697a696e6760a81b606082015260800190565b60005b83811015612631578181015183820152602001612619565b50506000910152565b6000825161264c818460208701612616565b9190910192915050565b6020815260008251806020840152612675816040850160208701612616565b601f01601f1916919091016040019291505056fe360894a13ba1a3210667c828492db98dca3e2076cc3735a920a3ca505d382bbc416464726573733a206c6f772d6c6576656c2064656c65676174652063616c6c206661696c6564a264697066735822122011a8fc0967f2f8ad987cd0f432cca4bbb5387ade0624f0b484992d603d3792e464736f6c63430008110033",
  "immutableReferences": {
    "746": [
      {
        "length": 32,
        "start": 821
      },
      {
        "length": 32,
        "start": 894
      },
      {
        "length": 32,
        "start": 1296
      },
      {
        "length": 32,
        "start": 1360
      },
      {
        "length": 32,
        "start": 1507
      }
    ]
  },
  "source": "// SPDX-License-Identifier: MIT\npragma solidity ^0.8.7;\n\nimport \"@openzeppelin/contracts-upgradeable/proxy/utils/Initializable.sol\";\n\nimport \"@openzeppelin/contracts-upgradeable/token/ERC721/IERC721Upgradeable.sol\";\nimport \"@openzeppelin/contracts-upgradeable/security/ReentrancyGuardUpgradeable.sol\";\nimport \"@openzeppelin/contracts-upgradeable/token/common/ERC2981Upgradeable.sol\";\nimport \"@openzeppelin/contracts-upgradeable/utils/CountersUpgradeable.sol\";\nimport \"@openzeppelin/contracts-upgradeable/access/OwnableUpgradeable.sol\";\nimport \"@openzeppelin/contracts-upgradeable/proxy/utils/UUPSUpgradeable.sol\";\n\nimport \"../NftVendor/NftVendor.sol\";\nimport \"../CCNft/ICCNftStorage.sol\";\nimport \"./INftOffersStorage.sol\";\n\n// Check out https://github.com/Fantom-foundation/Artion-Contracts/blob/5c90d2bc0401af6fb5abf35b860b762b31dfee02/contracts/FantomMarketplace.sol\n// For a full decentralized nft marketplace\n\n// Error thrown for isNotOwner modifier\n// error IsNotOwner()\nerror NotOffers();\n\ncontract NftOffers is\n  Initializable,\n  ReentrancyGuardUpgradeable,\n  OwnableUpgradeable,\n  UUPSUpgradeable\n{\n  address public collection;\n  address public creator;\n\n  NftVendor public nftVendor;\n  ICCNftStorage private _ccNftStorage;\n  INftOffersStorage private _nftOffersStorage;\n\n  modifier hasOffers(uint256 tokenId) {\n    address[] memory addresses = _nftOffersStorage.getAddressFromTokenId(\n      tokenId\n    );\n    if (addresses.length == 0) {\n      revert NotOffers();\n    }\n    _;\n  }\n\n  modifier isOwner(uint256 tokenId, address spender) {\n    IERC721Upgradeable nft = IERC721Upgradeable(collection);\n    address owner = nft.ownerOf(tokenId);\n    if (spender != owner) {\n      revert NotOwner();\n    }\n    _;\n  }\n\n  event NewOffer(\n    uint256 indexed tokenId,\n    address owner,\n    address bidder,\n    uint256 bid\n  );\n  event RemoveOffer(uint256 indexed tokenId, address bidder, uint256 bid);\n  event Withdraw(uint256 indexed tokenId, address bidder, uint256 bid);\n  event AcceptOffer(\n    uint256 indexed tokenId,\n    address owner,\n    address bidder,\n    uint256 bid\n  );\n\n  function initialize(\n    address _collection,\n    address _creator,\n    address _nftVendor,\n    address nftOffersStorageAddress\n  ) public initializer {\n    __Ownable_init();\n    __UUPSUpgradeable_init();\n    collection = _collection;\n    creator = _creator;\n    nftVendor = NftVendor(_nftVendor);\n\n    _nftOffersStorage = INftOffersStorage(nftOffersStorageAddress);\n  }\n\n  function _authorizeUpgrade(address) internal override onlyOwner {}\n\n  function getHighestBid(uint256 _tokenId) external view returns (uint256) {\n    return _nftOffersStorage.getHighestBidByTokenId(_tokenId);\n  }\n\n  function getNftOffer(\n    uint256 _tokenId\n  ) external view returns (INftOffersStorage.Offer memory) {\n    INftOffersStorage.Offer memory offer = _nftOffersStorage\n      .getNftOfferByTokenId(_tokenId);\n    return offer;\n  }\n\n  function getAddressesBids(\n    uint256 _tokenId\n  ) public view returns (address[] memory) {\n    address[] memory bidders = _nftOffersStorage.getAddressFromTokenId(\n      _tokenId\n    );\n    return bidders;\n  }\n\n  function payRoyaltiesAndTransfer(\n    uint256 _tokenId,\n    uint256 highestBid\n  ) private {\n    require(_tokenId != 0, \"Invalid token ID\");\n    require(highestBid > 0, \"Invalid bid amount\");\n\n    bool excluded = nftVendor.getIsExcluded();\n    address payable sellerAddress = payable(msg.sender);\n    address payable creatorAddress = payable(creator);\n    uint256 royalty = nftVendor.calculateRoyaltyForAcceptedOffer(\n      _tokenId,\n      highestBid\n    );\n    uint256 totalAmount = highestBid;\n\n    if (!excluded) {\n      require(creator != address(0), \"Invalid creator address\");\n      totalAmount -= royalty;\n      creatorAddress.transfer(royalty);\n      nftVendor.emitTxFee(_tokenId, royalty, false);\n    }\n    sellerAddress.transfer(totalAmount);\n  }\n\n  function getPrevious(uint256 _tokenId) external view returns (uint256) {\n    return _nftOffersStorage.getPreviousBidderBidByTokenId(_tokenId);\n  }\n\n  function makeOffer(uint256 _tokenId) public payable {\n    // Ensure that the buyer is making a valid offer\n\n    require(msg.value > 0, \"Offer price must be greater than 0\");\n\n    IERC721Upgradeable nft = IERC721Upgradeable(collection);\n    require(nft.ownerOf(_tokenId) != address(0), \"Invalid token ID\");\n\n    uint256 previousBid = _nftOffersStorage.getPreviousBidderBidByTokenId(\n      _tokenId\n    );\n\n    require(previousBid == 0, \"You must withdraw your previous bid first\");\n\n    uint256 highestBid = _nftOffersStorage.getHighestBidByTokenId(_tokenId);\n\n    //No offers made\n    if (highestBid == 0) {\n      _createNftOffer(_tokenId, msg.value, nft.ownerOf(_tokenId));\n    } else {\n      require(msg.value > highestBid, \"Offer price is too low\");\n      _setOffer(_tokenId, msg.value);\n    }\n\n    emit NewOffer(_tokenId, nft.ownerOf(_tokenId), msg.sender, msg.value);\n  }\n\n  function acceptOffer(\n    uint256 _tokenId\n  ) public payable isOwner(_tokenId, msg.sender) hasOffers(_tokenId) {\n    IERC721Upgradeable nft = IERC721Upgradeable(collection);\n    require(\n      nft.getApproved(_tokenId) == address(this),\n      \"NotApprovedForMarketplace\"\n    );\n\n    INftOffersStorage.Offer memory offer = _nftOffersStorage\n      .getNftOfferByTokenId(_tokenId);\n\n    address owner = nft.ownerOf(_tokenId);\n    uint256 highestBid = offer.highestBid;\n    address highestBidder = offer.highestBidder;\n\n    payRoyaltiesAndTransfer(_tokenId, highestBid);\n\n    nft.transferFrom(msg.sender, highestBidder, _tokenId);\n\n    _removeOffer(_tokenId, highestBidder);\n    _nftOffersStorage.deleteTokenIdFromOffer(_tokenId);\n\n    emit AcceptOffer(_tokenId, owner, highestBidder, highestBid);\n  }\n\n  function cancelOffer(uint256 _tokenId) external {\n    uint256 lastOffer = _nftOffersStorage.getPreviousBidderBidByTokenId(\n      _tokenId\n    );\n\n    require(lastOffer > 0, \"No active bid found\");\n\n    // Get the offer\n    INftOffersStorage.Offer memory offer = _nftOffersStorage\n      .getNftOfferByTokenId(_tokenId);\n\n    // Get last bid from the user\n    uint256 amount = _nftOffersStorage.getPreviousBidderBidByTokenId(_tokenId);\n\n    require(_tokenId > 0 && offer.seller != address(0), \"Invalid token ID\");\n    require(amount > 0, \"No active bid found\");\n\n    (bool success, ) = msg.sender.call{ value: amount }(\"\");\n    require(success, \"Transfer failed\");\n\n    // _removeOffer(_tokenId, msg.sender);\n\n    if (offer.highestBidder == msg.sender) {\n      address[] memory addresses = _nftOffersStorage.getAddressFromTokenId(\n        _tokenId\n      );\n\n      for (uint256 i = 0; i < addresses.length; i++) {\n        address bidder = addresses[i];\n        uint256 bidderBid = _nftOffersStorage.getOffersBidsFromTokenId(\n          _tokenId,\n          bidder\n        );\n        if (bidderBid > offer.highestBid) {\n          _nftOffersStorage.setTokenIdToOffer(_tokenId, bidderBid, bidder);\n        }\n      }\n    }\n\n    // emit RemoveOffer(_tokenId, msg.sender, amount);\n  }\n\n  function _createNftOffer(\n    uint256 _tokenId,\n    uint256 _nftPrice,\n    address _seller\n  ) private {\n    _setOffer(_tokenId, _nftPrice);\n\n    INftOffersStorage.Offer memory offer = INftOffersStorage.Offer(\n      _tokenId,\n      _seller,\n      _nftPrice,\n      msg.sender\n    );\n\n    _nftOffersStorage.setOfferByTokenId(_tokenId, offer);\n  }\n\n  function _setOffer(uint256 _tokenId, uint256 bid) private {\n    _nftOffersStorage.setOfferBidFromTokenIdBySender(_tokenId, bid);\n    address[] memory addresses = _nftOffersStorage.getAddressFromTokenId(\n      _tokenId\n    );\n    _nftOffersStorage.setIndexOfOffersBidsFromAddress(\n      _tokenId,\n      msg.sender,\n      addresses.length\n    );\n    _nftOffersStorage.pushAddressToTokenId(_tokenId, msg.sender);\n  }\n\n  function _removeOffer(uint256 _tokenId, address bidder) internal {\n    _nftOffersStorage.deleteOffersBidsFromTokenId(_tokenId, bidder);\n\n    uint256 index = _nftOffersStorage.getIndexOfOfferBidsFromAddress(\n      _tokenId,\n      bidder\n    );\n    _nftOffersStorage.deleteAddressFromBiddersByTokenIdAndIndex(\n      _tokenId,\n      index\n    );\n    _nftOffersStorage.deleteIndexOfOfferBidsFromAddress(_tokenId, bidder);\n  }\n}\n",
  "sourcePath": "/Users/alberto/Desktop/Enalbis/caskchain-mono/apps/contracts/contracts/NftOffers/NftOffers.sol",
  "compiler": {
    "name": "solc",
    "version": "0.8.17+commit.8df45f5f.Emscripten.clang"
  },
  "schemaVersion": "3.4.11",
  "updatedAt": "2023-05-11T11:57:40.339Z",
  "networkType": "ethereum",
  "devdoc": {
    "kind": "dev",
    "methods": {
      "owner()": {
        "details": "Returns the address of the current owner."
      },
      "proxiableUUID()": {
        "details": "Implementation of the ERC1822 {proxiableUUID} function. This returns the storage slot used by the implementation. It is used to validate the implementation's compatibility when performing an upgrade. IMPORTANT: A proxy pointing at a proxiable contract should not be considered proxiable itself, because this risks bricking a proxy that upgrades to it, by delegating to itself until out of gas. Thus it is critical that this function revert if invoked through a proxy. This is guaranteed by the `notDelegated` modifier."
      },
      "renounceOwnership()": {
        "details": "Leaves the contract without owner. It will not be possible to call `onlyOwner` functions anymore. Can only be called by the current owner. NOTE: Renouncing ownership will leave the contract without an owner, thereby removing any functionality that is only available to the owner."
      },
      "transferOwnership(address)": {
        "details": "Transfers ownership of the contract to a new account (`newOwner`). Can only be called by the current owner."
      },
      "upgradeTo(address)": {
        "details": "Upgrade the implementation of the proxy to `newImplementation`. Calls {_authorizeUpgrade}. Emits an {Upgraded} event."
      },
      "upgradeToAndCall(address,bytes)": {
        "details": "Upgrade the implementation of the proxy to `newImplementation`, and subsequently execute the function call encoded in `data`. Calls {_authorizeUpgrade}. Emits an {Upgraded} event."
      }
    },
    "version": 1
  },
  "userdoc": {
    "kind": "user",
    "methods": {},
    "version": 1
  }
}