{
  "contractName": "NftOffersStorage",
  "abi": [
    {
      "anonymous": false,
      "inputs": [
        {
          "indexed": true,
          "internalType": "address",
          "name": "previousOwner",
          "type": "address"
        },
        {
          "indexed": true,
          "internalType": "address",
          "name": "newOwner",
          "type": "address"
        }
      ],
      "name": "OwnershipTransferred",
      "type": "event"
    },
    {
      "inputs": [
        {
          "internalType": "uint256",
          "name": "",
          "type": "uint256"
        },
        {
          "internalType": "uint256",
          "name": "",
          "type": "uint256"
        }
      ],
      "name": "addressesFromTokenId",
      "outputs": [
        {
          "internalType": "address",
          "name": "",
          "type": "address"
        }
      ],
      "stateMutability": "view",
      "type": "function",
      "constant": true
    },
    {
      "inputs": [
        {
          "internalType": "address",
          "name": "",
          "type": "address"
        }
      ],
      "name": "allowedAddresses",
      "outputs": [
        {
          "internalType": "bool",
          "name": "",
          "type": "bool"
        }
      ],
      "stateMutability": "view",
      "type": "function",
      "constant": true
    },
    {
      "inputs": [],
      "name": "owner",
      "outputs": [
        {
          "internalType": "address",
          "name": "",
          "type": "address"
        }
      ],
      "stateMutability": "view",
      "type": "function",
      "constant": true
    },
    {
      "inputs": [],
      "name": "renounceOwnership",
      "outputs": [],
      "stateMutability": "nonpayable",
      "type": "function"
    },
    {
      "inputs": [
        {
          "internalType": "address",
          "name": "newOwner",
          "type": "address"
        }
      ],
      "name": "transferOwnership",
      "outputs": [],
      "stateMutability": "nonpayable",
      "type": "function"
    },
    {
      "inputs": [
        {
          "internalType": "address",
          "name": "_address",
          "type": "address"
        }
      ],
      "name": "addAllowedAddress",
      "outputs": [],
      "stateMutability": "nonpayable",
      "type": "function"
    },
    {
      "inputs": [
        {
          "internalType": "address",
          "name": "_address",
          "type": "address"
        }
      ],
      "name": "removeAllowedAddress",
      "outputs": [],
      "stateMutability": "nonpayable",
      "type": "function"
    },
    {
      "inputs": [
        {
          "internalType": "address",
          "name": "_address",
          "type": "address"
        }
      ],
      "name": "isAllowedAddress",
      "outputs": [
        {
          "internalType": "bool",
          "name": "",
          "type": "bool"
        }
      ],
      "stateMutability": "view",
      "type": "function",
      "constant": true
    },
    {
      "inputs": [
        {
          "internalType": "uint256",
          "name": "_tokenId",
          "type": "uint256"
        },
        {
          "internalType": "address",
          "name": "_address",
          "type": "address"
        }
      ],
      "name": "getPreviousBidderBidByTokenId",
      "outputs": [
        {
          "internalType": "uint256",
          "name": "",
          "type": "uint256"
        }
      ],
      "stateMutability": "view",
      "type": "function",
      "constant": true
    },
    {
      "inputs": [
        {
          "internalType": "uint256",
          "name": "_tokenId",
          "type": "uint256"
        }
      ],
      "name": "getNftOfferByTokenId",
      "outputs": [
        {
          "components": [
            {
              "internalType": "uint256",
              "name": "nftId",
              "type": "uint256"
            },
            {
              "internalType": "address",
              "name": "seller",
              "type": "address"
            },
            {
              "internalType": "uint256",
              "name": "highestBid",
              "type": "uint256"
            },
            {
              "internalType": "address",
              "name": "highestBidder",
              "type": "address"
            }
          ],
          "internalType": "struct NftOffersStorage.Offer",
          "name": "",
          "type": "tuple"
        }
      ],
      "stateMutability": "view",
      "type": "function",
      "constant": true
    },
    {
      "inputs": [
        {
          "internalType": "uint256",
          "name": "_tokenId",
          "type": "uint256"
        },
        {
          "internalType": "address",
          "name": "_address",
          "type": "address"
        }
      ],
      "name": "getOffersBidsFromTokenId",
      "outputs": [
        {
          "internalType": "uint256",
          "name": "",
          "type": "uint256"
        }
      ],
      "stateMutability": "view",
      "type": "function",
      "constant": true
    },
    {
      "inputs": [
        {
          "internalType": "uint256",
          "name": "tokenId",
          "type": "uint256"
        }
      ],
      "name": "getAddressFromTokenId",
      "outputs": [
        {
          "internalType": "address[]",
          "name": "",
          "type": "address[]"
        }
      ],
      "stateMutability": "view",
      "type": "function",
      "constant": true
    },
    {
      "inputs": [
        {
          "internalType": "uint256",
          "name": "_tokenId",
          "type": "uint256"
        },
        {
          "internalType": "address",
          "name": "_address",
          "type": "address"
        }
      ],
      "name": "getIndexOfOfferBidsFromAddress",
      "outputs": [
        {
          "internalType": "uint256",
          "name": "",
          "type": "uint256"
        }
      ],
      "stateMutability": "view",
      "type": "function",
      "constant": true
    },
    {
      "inputs": [
        {
          "internalType": "uint256",
          "name": "_tokenId",
          "type": "uint256"
        }
      ],
      "name": "getHighestBidByTokenId",
      "outputs": [
        {
          "internalType": "uint256",
          "name": "",
          "type": "uint256"
        }
      ],
      "stateMutability": "view",
      "type": "function",
      "constant": true
    },
    {
      "inputs": [
        {
          "internalType": "uint256",
          "name": "_tokenId",
          "type": "uint256"
        },
        {
          "internalType": "address",
          "name": "_address",
          "type": "address"
        },
        {
          "internalType": "uint256",
          "name": "_index",
          "type": "uint256"
        }
      ],
      "name": "setIndexOfOffersBidsFromAddress",
      "outputs": [],
      "stateMutability": "nonpayable",
      "type": "function"
    },
    {
      "inputs": [
        {
          "internalType": "uint256",
          "name": "_tokenId",
          "type": "uint256"
        },
        {
          "components": [
            {
              "internalType": "uint256",
              "name": "nftId",
              "type": "uint256"
            },
            {
              "internalType": "address",
              "name": "seller",
              "type": "address"
            },
            {
              "internalType": "uint256",
              "name": "highestBid",
              "type": "uint256"
            },
            {
              "internalType": "address",
              "name": "highestBidder",
              "type": "address"
            }
          ],
          "internalType": "struct NftOffersStorage.Offer",
          "name": "offer",
          "type": "tuple"
        }
      ],
      "name": "setOfferByTokenId",
      "outputs": [],
      "stateMutability": "nonpayable",
      "type": "function"
    },
    {
      "inputs": [
        {
          "internalType": "uint256",
          "name": "_tokenId",
          "type": "uint256"
        },
        {
          "internalType": "uint256",
          "name": "_bid",
          "type": "uint256"
        },
        {
          "internalType": "address",
          "name": "_bidder",
          "type": "address"
        }
      ],
      "name": "setTokenIdToOffer",
      "outputs": [],
      "stateMutability": "nonpayable",
      "type": "function"
    },
    {
      "inputs": [
        {
          "internalType": "uint256",
          "name": "_tokenId",
          "type": "uint256"
        },
        {
          "internalType": "address",
          "name": "_address",
          "type": "address"
        },
        {
          "internalType": "uint256",
          "name": "_bid",
          "type": "uint256"
        }
      ],
      "name": "setOfferBidFromTokenIdBySender",
      "outputs": [],
      "stateMutability": "nonpayable",
      "type": "function"
    },
    {
      "inputs": [
        {
          "internalType": "uint256",
          "name": "tokenId",
          "type": "uint256"
        },
        {
          "internalType": "uint256",
          "name": "index",
          "type": "uint256"
        },
        {
          "internalType": "address",
          "name": "bidder",
          "type": "address"
        }
      ],
      "name": "updateAddrressFromTokenId",
      "outputs": [],
      "stateMutability": "nonpayable",
      "type": "function"
    },
    {
      "inputs": [
        {
          "internalType": "uint256",
          "name": "tokenId",
          "type": "uint256"
        },
        {
          "internalType": "address",
          "name": "creator",
          "type": "address"
        }
      ],
      "name": "pushAddressFromTokenId",
      "outputs": [],
      "stateMutability": "nonpayable",
      "type": "function"
    },
    {
      "inputs": [
        {
          "internalType": "uint256",
          "name": "_tokenId",
          "type": "uint256"
        },
        {
          "internalType": "address",
          "name": "_address",
          "type": "address"
        }
      ],
      "name": "deleteOffersBidsFromTokenId",
      "outputs": [],
      "stateMutability": "nonpayable",
      "type": "function"
    },
    {
      "inputs": [
        {
          "internalType": "uint256",
          "name": "tokenId",
          "type": "uint256"
        }
      ],
      "name": "popAddressFromTokenId",
      "outputs": [],
      "stateMutability": "nonpayable",
      "type": "function"
    },
    {
      "inputs": [
        {
          "internalType": "uint256",
          "name": "_tokenId",
          "type": "uint256"
        },
        {
          "internalType": "address",
          "name": "_address",
          "type": "address"
        }
      ],
      "name": "deleteIndexOfOfferBidsFromAddress",
      "outputs": [],
      "stateMutability": "nonpayable",
      "type": "function"
    },
    {
      "inputs": [
        {
          "internalType": "uint256",
          "name": "_tokenId",
          "type": "uint256"
        }
      ],
      "name": "deleteTokenIdFromOffer",
      "outputs": [],
      "stateMutability": "nonpayable",
      "type": "function"
    }
  ],
  "bytecode": "0x608060405234801561001057600080fd5b5061001a3361001f565b61006f565b600080546001600160a01b038381166001600160a01b0319831681178455604051919092169283917f8be0079c531659141344cd1fd0a4f28419497f9722a3daafe3b4186f6b6457e09190a35050565b610d558061007e6000396000f3fe608060405234801561001057600080fd5b50600436106101575760003560e01c8063715018a6116100c3578063904625101161007c578063904625101461035e57806398cfcf5f14610371578063a696e5c51461028a578063d0ce590914610434578063f2fde38b14610457578063f9003aca1461046a57600080fd5b8063715018a6146102d357806381788e2b146102db5780638345245e146102ee5780638c4d91a91461031a5780638da5cb5b1461032d5780638daa6fc91461033e57600080fd5b80634120657a116101155780634120657a146102065780634880ba13146102395780634e38bfb4146102645780635e478aa4146102775780636d20538c1461028a5780636f387e9e146102c057600080fd5b8062affb011461015c5780630af6369a146101a557806327bb428b146101ba57806333124a4f146101cd5780633b27e980146101e05780633c9d93b8146101f3575b600080fd5b61019261016a366004610ae5565b60009182526008602090815260408084206001600160a01b0393909316845291905290205490565b6040519081526020015b60405180910390f35b6101b86101b3366004610ae5565b61047d565b005b6101b86101c8366004610ae5565b6104db565b6101b86101db366004610ae5565b610549565b6101b86101ee366004610b11565b61059e565b6101b8610201366004610b46565b610606565b610229610214366004610b46565b60056020526000908152604090205460ff1681565b604051901515815260200161019c565b61024c610247366004610b68565b61062f565b6040516001600160a01b03909116815260200161019c565b6101b8610272366004610b8a565b610667565b6101b8610285366004610b11565b6106d8565b610192610298366004610ae5565b60009182526007602090815260408084206001600160a01b0393909316845291905290205490565b6101b86102ce366004610b8a565b61075d565b6101b86107c6565b6101b86102e9366004610b46565b6107da565b6102296102fc366004610b46565b6001600160a01b031660009081526005602052604090205460ff1690565b6101b8610328366004610ba3565b610806565b6000546001600160a01b031661024c565b61035161034c366004610b8a565b61085b565b60405161019c9190610bd8565b6101b861036c366004610ba3565b6108c7565b6103f261037f366004610b8a565b6040805160808101825260008082526020820181905291810182905260608101919091525060009081526006602090815260409182902082516080810184528154815260018201546001600160a01b03908116938201939093526002820154938101939093526003015416606082015290565b60405161019c9190815181526020808301516001600160a01b039081169183019190915260408084015190830152606092830151169181019190915260800190565b610192610442366004610b8a565b60009081526006602052604090206002015490565b6101b8610465366004610b46565b61091c565b6101b8610478366004610c25565b610995565b3360009081526005602052604090205460ff166104b55760405162461bcd60e51b81526004016104ac90610cc4565b60405180910390fd5b60009182526008602090815260408084206001600160a01b039093168452919052812055565b3360009081526005602052604090205460ff1661050a5760405162461bcd60e51b81526004016104ac90610cc4565b600091825260096020908152604083208054600181018255908452922090910180546001600160a01b0319166001600160a01b03909216919091179055565b3360009081526005602052604090205460ff166105785760405162461bcd60e51b81526004016104ac90610cc4565b60009182526007602090815260408084206001600160a01b039093168452919052812055565b3360009081526005602052604090205460ff166105cd5760405162461bcd60e51b81526004016104ac90610cc4565b6000928352600660205260409092206003810180546001600160a01b0319166001600160a01b0390941693909317909255600290910155565b61060e610a1f565b6001600160a01b03166000908152600560205260409020805460ff19169055565b6009602052816000526040600020818154811061064b57600080fd5b6000918252602090912001546001600160a01b03169150829050565b3360009081526005602052604090205460ff166106965760405162461bcd60e51b81526004016104ac90610cc4565b60008181526009602052604090208054806106b3576106b3610cf3565b600082815260209020810160001990810180546001600160a01b031916905501905550565b3360009081526005602052604090205460ff166107075760405162461bcd60e51b81526004016104ac90610cc4565b600083815260096020526040902080548291908490811061072a5761072a610d09565b9060005260206000200160006101000a8154816001600160a01b0302191690836001600160a01b03160217905550505050565b3360009081526005602052604090205460ff1661078c5760405162461bcd60e51b81526004016104ac90610cc4565b60009081526006602052604081208181556001810180546001600160a01b0319908116909155600282019290925560030180549091169055565b6107ce610a1f565b6107d86000610a79565b565b6107e2610a1f565b6001600160a01b03166000908152600560205260409020805460ff19166001179055565b3360009081526005602052604090205460ff166108355760405162461bcd60e51b81526004016104ac90610cc4565b60009283526008602090815260408085206001600160a01b039094168552929052912055565b6000818152600960209081526040918290208054835181840281018401909452808452606093928301828280156108bb57602002820191906000526020600020905b81546001600160a01b0316815260019091019060200180831161089d575b50505050509050919050565b3360009081526005602052604090205460ff166108f65760405162461bcd60e51b81526004016104ac90610cc4565b60009283526007602090815260408085206001600160a01b039094168552929052912055565b610924610a1f565b6001600160a01b0381166109895760405162461bcd60e51b815260206004820152602660248201527f4f776e61626c653a206e6577206f776e657220697320746865207a65726f206160448201526564647265737360d01b60648201526084016104ac565b61099281610a79565b50565b3360009081526005602052604090205460ff166109c45760405162461bcd60e51b81526004016104ac90610cc4565b60009182526006602090815260409283902082518155908201516001820180546001600160a01b03199081166001600160a01b0393841617909155938301516002830155606090920151600390910180549093169116179055565b6000546001600160a01b031633146107d85760405162461bcd60e51b815260206004820181905260248201527f4f776e61626c653a2063616c6c6572206973206e6f7420746865206f776e657260448201526064016104ac565b600080546001600160a01b038381166001600160a01b0319831681178455604051919092169283917f8be0079c531659141344cd1fd0a4f28419497f9722a3daafe3b4186f6b6457e09190a35050565b80356001600160a01b0381168114610ae057600080fd5b919050565b60008060408385031215610af857600080fd5b82359150610b0860208401610ac9565b90509250929050565b600080600060608486031215610b2657600080fd5b8335925060208401359150610b3d60408501610ac9565b90509250925092565b600060208284031215610b5857600080fd5b610b6182610ac9565b9392505050565b60008060408385031215610b7b57600080fd5b50508035926020909101359150565b600060208284031215610b9c57600080fd5b5035919050565b600080600060608486031215610bb857600080fd5b83359250610bc860208501610ac9565b9150604084013590509250925092565b6020808252825182820181905260009190848201906040850190845b81811015610c195783516001600160a01b031683529284019291840191600101610bf4565b50909695505050505050565b60008082840360a0811215610c3957600080fd5b833592506080601f1982011215610c4f57600080fd5b506040516080810181811067ffffffffffffffff82111715610c8157634e487b7160e01b600052604160045260246000fd5b806040525060208401358152610c9960408501610ac9565b602082015260608401356040820152610cb460808501610ac9565b6060820152809150509250929050565b60208082526015908201527410d85b1b195c881a5cc81b9bdd08185b1b1bddd959605a1b604082015260600190565b634e487b7160e01b600052603160045260246000fd5b634e487b7160e01b600052603260045260246000fdfea2646970667358221220f3927344195da92ba7907af502de4ca43485a2b4623f9b1f539b634b31e9eff664736f6c63430008110033",
  "immutableReferences": {},
  "source": "// SPDX-License-Identifier: MIT\npragma solidity ^0.8.0;\nimport \"@openzeppelin/contracts/access/Ownable.sol\";\n\ncontract NftOffersStorage is Ownable {\n  struct Offer {\n    // Current owner of NFT\n    uint256 nftId;\n    address seller;\n    uint highestBid;\n    address highestBidder;\n  }\n\n  Offer internal _offer;\n\n  // Address => Boolean\n  mapping(address => bool) public allowedAddresses;\n  // Map from token ID to their corresponding auction.\n  mapping(uint256 => Offer) tokenIdToOffer;\n  // NFT Id => Account Address => Bid\n  mapping(uint256 => mapping(address => uint256)) internal offerBidsFromTokenId;\n  // NFT Id => Account Address => Index\n  mapping(uint256 => mapping(address => uint256))\n    internal indexOfOfferBidsFromAddress;\n  // Address => Booelan\n  mapping(uint256 => address[]) public addressesFromTokenId;\n\n  /////////////////////\n  // MODIFIERS //\n  /////////////////////\n\n  modifier onlyAllowed() {\n    require(allowedAddresses[msg.sender], \"Caller is not allowed\");\n    _;\n  }\n\n  /////////////////////\n  // ALLOWED ADDRESSES MANAGEMENT //\n  /////////////////////\n\n  function addAllowedAddress(address _address) public onlyOwner {\n    allowedAddresses[_address] = true;\n  }\n\n  function removeAllowedAddress(address _address) public onlyOwner {\n    allowedAddresses[_address] = false;\n  }\n\n  function isAllowedAddress(address _address) public view returns (bool) {\n    return allowedAddresses[_address];\n  }\n\n  // GETTERES\n  function getPreviousBidderBidByTokenId(\n    uint256 _tokenId,\n    address _address\n  ) public view returns (uint256) {\n    return offerBidsFromTokenId[_tokenId][_address];\n  }\n\n  function getNftOfferByTokenId(\n    uint256 _tokenId\n  ) external view returns (Offer memory) {\n    return tokenIdToOffer[_tokenId];\n  }\n\n  function getOffersBidsFromTokenId(\n    uint256 _tokenId,\n    address _address\n  ) public view returns (uint256) {\n    return offerBidsFromTokenId[_tokenId][_address];\n  }\n\n  function getAddressFromTokenId(\n    uint256 tokenId\n  ) public view returns (address[] memory) {\n    return addressesFromTokenId[tokenId];\n  }\n\n  function getIndexOfOfferBidsFromAddress(\n    uint256 _tokenId,\n    address _address\n  ) public view returns (uint256) {\n    return indexOfOfferBidsFromAddress[_tokenId][_address];\n  }\n\n  function getHighestBidByTokenId(\n    uint256 _tokenId\n  ) public view returns (uint256) {\n    return tokenIdToOffer[_tokenId].highestBid;\n  }\n\n  // SETTERS\n\n  function setIndexOfOffersBidsFromAddress(\n    uint256 _tokenId,\n    address _address,\n    uint256 _index\n  ) public onlyAllowed {\n    indexOfOfferBidsFromAddress[_tokenId][_address] = _index;\n  }\n\n  function setOfferByTokenId(\n    uint256 _tokenId,\n    Offer memory offer\n  ) public onlyAllowed {\n    tokenIdToOffer[_tokenId] = offer;\n  }\n\n  function setTokenIdToOffer(\n    uint256 _tokenId,\n    uint256 _bid,\n    address _bidder\n  ) public onlyAllowed {\n    tokenIdToOffer[_tokenId].highestBidder = _bidder;\n    tokenIdToOffer[_tokenId].highestBid = _bid;\n  }\n\n  function setOfferBidFromTokenIdBySender(\n    uint256 _tokenId,\n    address _address,\n    uint256 _bid\n  ) public onlyAllowed {\n    offerBidsFromTokenId[_tokenId][_address] = _bid;\n  }\n\n  function updateAddrressFromTokenId(\n    uint256 tokenId,\n    uint256 index,\n    address bidder\n  ) public onlyAllowed {\n    addressesFromTokenId[tokenId][index] = bidder;\n  }\n\n  function pushAddressFromTokenId(\n    uint256 tokenId,\n    address creator\n  ) public onlyAllowed {\n    addressesFromTokenId[tokenId].push(creator);\n  }\n\n  function deleteOffersBidsFromTokenId(\n    uint256 _tokenId,\n    address _address\n  ) public onlyAllowed {\n    delete offerBidsFromTokenId[_tokenId][_address];\n  }\n\n  function popAddressFromTokenId(uint256 tokenId) public onlyAllowed {\n    addressesFromTokenId[tokenId].pop();\n  }\n\n  // function deleteAddressFromBiddersByTokenIdAndIndex(\n  //   uint256 tokenId,\n  //   uint256 index\n  // ) public onlyAllowed {\n  //   addressesWithBidsFromTokenId[tokenId][index] = addressesWithBidsFromTokenId[\n  //     tokenId\n  //   ][addressesWithBidsFromTokenId[tokenId].length - 1];\n  //   addressesWithBidsFromTokenId[tokenId].pop();\n  // }\n\n  function deleteIndexOfOfferBidsFromAddress(\n    uint256 _tokenId,\n    address _address\n  ) public onlyAllowed {\n    delete indexOfOfferBidsFromAddress[_tokenId][_address];\n  }\n\n  function deleteTokenIdFromOffer(uint256 _tokenId) public onlyAllowed {\n    delete tokenIdToOffer[_tokenId];\n  }\n}\n",
  "sourcePath": "/Users/alberto/Desktop/Enalbis/caskchain-mono/apps/contracts/contracts/NftOffers/NftOffersStorage.sol",
  "compiler": {
    "name": "solc",
    "version": "0.8.17+commit.8df45f5f.Emscripten.clang"
  },
  "schemaVersion": "3.4.11",
  "updatedAt": "2023-07-03T07:19:01.406Z",
  "networkType": "ethereum",
  "devdoc": {
    "kind": "dev",
    "methods": {
      "owner()": {
        "details": "Returns the address of the current owner."
      },
      "renounceOwnership()": {
        "details": "Leaves the contract without owner. It will not be possible to call `onlyOwner` functions anymore. Can only be called by the current owner. NOTE: Renouncing ownership will leave the contract without an owner, thereby removing any functionality that is only available to the owner."
      },
      "transferOwnership(address)": {
        "details": "Transfers ownership of the contract to a new account (`newOwner`). Can only be called by the current owner."
      }
    },
    "version": 1
  },
  "userdoc": {
    "kind": "user",
    "methods": {},
    "version": 1
  }
}