{
  "contractName": "NftOffers",
  "abi": [
    {
      "inputs": [],
      "name": "NotOffers",
      "type": "error"
    },
    {
      "inputs": [],
      "name": "NotOwner",
      "type": "error"
    },
    {
      "anonymous": false,
      "inputs": [
        {
          "indexed": true,
          "internalType": "uint256",
          "name": "tokenId",
          "type": "uint256"
        },
        {
          "indexed": false,
          "internalType": "address",
          "name": "owner",
          "type": "address"
        },
        {
          "indexed": false,
          "internalType": "address",
          "name": "bidder",
          "type": "address"
        },
        {
          "indexed": false,
          "internalType": "uint256",
          "name": "bid",
          "type": "uint256"
        }
      ],
      "name": "AcceptOffer",
      "type": "event"
    },
    {
      "anonymous": false,
      "inputs": [
        {
          "indexed": false,
          "internalType": "address",
          "name": "previousAdmin",
          "type": "address"
        },
        {
          "indexed": false,
          "internalType": "address",
          "name": "newAdmin",
          "type": "address"
        }
      ],
      "name": "AdminChanged",
      "type": "event"
    },
    {
      "anonymous": false,
      "inputs": [
        {
          "indexed": true,
          "internalType": "address",
          "name": "beacon",
          "type": "address"
        }
      ],
      "name": "BeaconUpgraded",
      "type": "event"
    },
    {
      "anonymous": false,
      "inputs": [
        {
          "indexed": false,
          "internalType": "uint8",
          "name": "version",
          "type": "uint8"
        }
      ],
      "name": "Initialized",
      "type": "event"
    },
    {
      "anonymous": false,
      "inputs": [
        {
          "indexed": true,
          "internalType": "uint256",
          "name": "tokenId",
          "type": "uint256"
        },
        {
          "indexed": false,
          "internalType": "address",
          "name": "owner",
          "type": "address"
        },
        {
          "indexed": false,
          "internalType": "address",
          "name": "bidder",
          "type": "address"
        },
        {
          "indexed": false,
          "internalType": "uint256",
          "name": "bid",
          "type": "uint256"
        }
      ],
      "name": "NewOffer",
      "type": "event"
    },
    {
      "anonymous": false,
      "inputs": [
        {
          "indexed": true,
          "internalType": "address",
          "name": "previousOwner",
          "type": "address"
        },
        {
          "indexed": true,
          "internalType": "address",
          "name": "newOwner",
          "type": "address"
        }
      ],
      "name": "OwnershipTransferred",
      "type": "event"
    },
    {
      "anonymous": false,
      "inputs": [
        {
          "indexed": true,
          "internalType": "uint256",
          "name": "tokenId",
          "type": "uint256"
        },
        {
          "indexed": false,
          "internalType": "address",
          "name": "bidder",
          "type": "address"
        },
        {
          "indexed": false,
          "internalType": "uint256",
          "name": "bid",
          "type": "uint256"
        }
      ],
      "name": "RemoveOffer",
      "type": "event"
    },
    {
      "anonymous": false,
      "inputs": [
        {
          "indexed": true,
          "internalType": "address",
          "name": "implementation",
          "type": "address"
        }
      ],
      "name": "Upgraded",
      "type": "event"
    },
    {
      "anonymous": false,
      "inputs": [
        {
          "indexed": true,
          "internalType": "uint256",
          "name": "tokenId",
          "type": "uint256"
        },
        {
          "indexed": false,
          "internalType": "address",
          "name": "bidder",
          "type": "address"
        },
        {
          "indexed": false,
          "internalType": "uint256",
          "name": "bid",
          "type": "uint256"
        }
      ],
      "name": "Withdraw",
      "type": "event"
    },
    {
      "inputs": [],
      "name": "collection",
      "outputs": [
        {
          "internalType": "address",
          "name": "",
          "type": "address"
        }
      ],
      "stateMutability": "view",
      "type": "function",
      "constant": true
    },
    {
      "inputs": [],
      "name": "creator",
      "outputs": [
        {
          "internalType": "address",
          "name": "",
          "type": "address"
        }
      ],
      "stateMutability": "view",
      "type": "function",
      "constant": true
    },
    {
      "inputs": [],
      "name": "nftVendor",
      "outputs": [
        {
          "internalType": "contract NftVendor",
          "name": "",
          "type": "address"
        }
      ],
      "stateMutability": "view",
      "type": "function",
      "constant": true
    },
    {
      "inputs": [],
      "name": "owner",
      "outputs": [
        {
          "internalType": "address",
          "name": "",
          "type": "address"
        }
      ],
      "stateMutability": "view",
      "type": "function",
      "constant": true
    },
    {
      "inputs": [],
      "name": "proxiableUUID",
      "outputs": [
        {
          "internalType": "bytes32",
          "name": "",
          "type": "bytes32"
        }
      ],
      "stateMutability": "view",
      "type": "function",
      "constant": true
    },
    {
      "inputs": [],
      "name": "renounceOwnership",
      "outputs": [],
      "stateMutability": "nonpayable",
      "type": "function"
    },
    {
      "inputs": [
        {
          "internalType": "address",
          "name": "newOwner",
          "type": "address"
        }
      ],
      "name": "transferOwnership",
      "outputs": [],
      "stateMutability": "nonpayable",
      "type": "function"
    },
    {
      "inputs": [
        {
          "internalType": "address",
          "name": "newImplementation",
          "type": "address"
        }
      ],
      "name": "upgradeTo",
      "outputs": [],
      "stateMutability": "nonpayable",
      "type": "function"
    },
    {
      "inputs": [
        {
          "internalType": "address",
          "name": "newImplementation",
          "type": "address"
        },
        {
          "internalType": "bytes",
          "name": "data",
          "type": "bytes"
        }
      ],
      "name": "upgradeToAndCall",
      "outputs": [],
      "stateMutability": "payable",
      "type": "function",
      "payable": true
    },
    {
      "inputs": [
        {
          "internalType": "address",
          "name": "_collection",
          "type": "address"
        },
        {
          "internalType": "address",
          "name": "_creator",
          "type": "address"
        },
        {
          "internalType": "address",
          "name": "_nftVendor",
          "type": "address"
        },
        {
          "internalType": "address",
          "name": "nftOffersStorageAddress",
          "type": "address"
        }
      ],
      "name": "initialize",
      "outputs": [],
      "stateMutability": "nonpayable",
      "type": "function"
    },
    {
      "inputs": [
        {
          "internalType": "uint256",
          "name": "_tokenId",
          "type": "uint256"
        }
      ],
      "name": "getHighestBid",
      "outputs": [
        {
          "internalType": "uint256",
          "name": "",
          "type": "uint256"
        }
      ],
      "stateMutability": "view",
      "type": "function",
      "constant": true
    },
    {
      "inputs": [
        {
          "internalType": "uint256",
          "name": "_tokenId",
          "type": "uint256"
        }
      ],
      "name": "getNftOffer",
      "outputs": [
        {
          "components": [
            {
              "internalType": "uint256",
              "name": "nftId",
              "type": "uint256"
            },
            {
              "internalType": "address",
              "name": "seller",
              "type": "address"
            },
            {
              "internalType": "uint256",
              "name": "highestBid",
              "type": "uint256"
            },
            {
              "internalType": "address",
              "name": "highestBidder",
              "type": "address"
            }
          ],
          "internalType": "struct INftOffersStorage.Offer",
          "name": "",
          "type": "tuple"
        }
      ],
      "stateMutability": "view",
      "type": "function",
      "constant": true
    },
    {
      "inputs": [
        {
          "internalType": "uint256",
          "name": "_tokenId",
          "type": "uint256"
        }
      ],
      "name": "getAddressesBids",
      "outputs": [
        {
          "internalType": "address[]",
          "name": "",
          "type": "address[]"
        }
      ],
      "stateMutability": "view",
      "type": "function",
      "constant": true
    },
    {
      "inputs": [
        {
          "internalType": "uint256",
          "name": "_tokenId",
          "type": "uint256"
        }
      ],
      "name": "getPrevious",
      "outputs": [
        {
          "internalType": "uint256",
          "name": "",
          "type": "uint256"
        }
      ],
      "stateMutability": "view",
      "type": "function",
      "constant": true
    },
    {
      "inputs": [
        {
          "internalType": "uint256",
          "name": "_tokenId",
          "type": "uint256"
        }
      ],
      "name": "makeOffer",
      "outputs": [],
      "stateMutability": "payable",
      "type": "function",
      "payable": true
    },
    {
      "inputs": [
        {
          "internalType": "uint256",
          "name": "_tokenId",
          "type": "uint256"
        }
      ],
      "name": "acceptOffer",
      "outputs": [],
      "stateMutability": "payable",
      "type": "function",
      "payable": true
    },
    {
      "inputs": [
        {
          "internalType": "uint256",
          "name": "_tokenId",
          "type": "uint256"
        }
      ],
      "name": "cancelOffer",
      "outputs": [],
      "stateMutability": "nonpayable",
      "type": "function"
    }
  ],
  "bytecode": "0x60a06040523060805234801561001457600080fd5b50608051612acd61004c600039600081816103350152818161037e015281816105160152818161055601526105e90152612acd6000f3fe6080604052600436106100fe5760003560e01c80638da5cb5b11610095578063c815729d11610064578063c815729d1461028b578063e9cf32a01461029e578063ef706adf146102cb578063f2fde38b146102eb578063f8c8765e1461030b57600080fd5b80638da5cb5b1461021a5780638f288644146102385780639a2f647414610258578063b760f7131461026b57600080fd5b80634f1ef286116100d15780634f1ef286146101bd57806352d1902d146101d0578063715018a6146101e55780637de1e536146101fa57600080fd5b806302d05d3f146101035780633659cfe6146101405780634405f981146101625780634528b3571461018f575b600080fd5b34801561010f57600080fd5b5060fc54610123906001600160a01b031681565b6040516001600160a01b0390911681526020015b60405180910390f35b34801561014c57600080fd5b5061016061015b366004612492565b61032b565b005b34801561016e57600080fd5b5061018261017d3660046124af565b610413565b60405161013791906124c8565b34801561019b57600080fd5b506101af6101aa3660046124af565b610491565b604051908152602001610137565b6101606101cb36600461255c565b61050c565b3480156101dc57600080fd5b506101af6105dc565b3480156101f157600080fd5b5061016061068f565b34801561020657600080fd5b5060fb54610123906001600160a01b031681565b34801561022657600080fd5b506065546001600160a01b0316610123565b34801561024457600080fd5b506101af6102533660046124af565b6106a3565b6101606102663660046124af565b6106d5565b34801561027757600080fd5b5060fd54610123906001600160a01b031681565b6101606102993660046124af565b610b0a565b3480156102aa57600080fd5b506102be6102b93660046124af565b610f35565b6040516101379190612604565b3480156102d757600080fd5b506101606102e63660046124af565b610fc7565b3480156102f757600080fd5b50610160610306366004612492565b611405565b34801561031757600080fd5b5061016061032636600461263f565b61147b565b6001600160a01b037f000000000000000000000000000000000000000000000000000000000000000016300361037c5760405162461bcd60e51b81526004016103739061269b565b60405180910390fd5b7f00000000000000000000000000000000000000000000000000000000000000006001600160a01b03166103c5600080516020612a51833981519152546001600160a01b031690565b6001600160a01b0316146103eb5760405162461bcd60e51b8152600401610373906126e7565b6103f4816115e2565b60408051600080825260208201909252610410918391906115ea565b50565b60fe54604051638daa6fc960e01b8152600481018390526060916000916001600160a01b0390911690638daa6fc990602401600060405180830381865afa158015610462573d6000803e3d6000fd5b505050506040513d6000823e601f3d908101601f1916820160405261048a9190810190612733565b9392505050565b60fe5460405163a696e5c560e01b8152600481018390523360248201526000916001600160a01b03169063a696e5c5906044015b602060405180830381865afa1580156104e2573d6000803e3d6000fd5b505050506040513d601f19601f8201168201806040525081019061050691906127e5565b92915050565b6001600160a01b037f00000000000000000000000000000000000000000000000000000000000000001630036105545760405162461bcd60e51b81526004016103739061269b565b7f00000000000000000000000000000000000000000000000000000000000000006001600160a01b031661059d600080516020612a51833981519152546001600160a01b031690565b6001600160a01b0316146105c35760405162461bcd60e51b8152600401610373906126e7565b6105cc826115e2565b6105d8828260016115ea565b5050565b6000306001600160a01b037f0000000000000000000000000000000000000000000000000000000000000000161461067c5760405162461bcd60e51b815260206004820152603860248201527f555550535570677261646561626c653a206d757374206e6f742062652063616c60448201527f6c6564207468726f7567682064656c656761746563616c6c00000000000000006064820152608401610373565b50600080516020612a5183398151915290565b61069761175a565b6106a160006117b4565b565b60fe5460405163d0ce590960e01b8152600481018390526000916001600160a01b03169063d0ce5909906024016104c5565b600034116107305760405162461bcd60e51b815260206004820152602260248201527f4f66666572207072696365206d7573742062652067726561746572207468616e604482015261020360f41b6064820152608401610373565b60fb546040516331a9108f60e11b8152600481018390526001600160a01b03909116906000908290636352211e90602401602060405180830381865afa15801561077e573d6000803e3d6000fd5b505050506040513d601f19601f820116820180604052508101906107a291906127fe565b6001600160a01b0316036107c85760405162461bcd60e51b81526004016103739061281b565b60fe5460405163a696e5c560e01b8152600481018490523360248201526000916001600160a01b03169063a696e5c590604401602060405180830381865afa158015610818573d6000803e3d6000fd5b505050506040513d601f19601f8201168201806040525081019061083c91906127e5565b9050801561089e5760405162461bcd60e51b815260206004820152602960248201527f596f75206d75737420776974686472617720796f75722070726576696f757320604482015268189a5908199a5c9cdd60ba1b6064820152608401610373565b60fe5460405163d0ce590960e01b8152600481018590526000916001600160a01b03169063d0ce590990602401602060405180830381865afa1580156108e8573d6000803e3d6000fd5b505050506040513d601f19601f8201168201806040525081019061090c91906127e5565b9050806000036109945761098f8434856001600160a01b0316636352211e886040518263ffffffff1660e01b815260040161094991815260200190565b602060405180830381865afa158015610966573d6000803e3d6000fd5b505050506040513d601f19601f8201168201806040525081019061098a91906127fe565b611806565b610a50565b8034116109dc5760405162461bcd60e51b81526020600482015260166024820152754f6666657220707269636520697320746f6f206c6f7760501b6044820152606401610373565b6109e6843461189a565b60fe5460405162764fd360e71b8152600481018690523460248201523360448201526001600160a01b0390911690633b27e98090606401600060405180830381600087803b158015610a3757600080fd5b505af1158015610a4b573d6000803e3d6000fd5b505050505b6040516331a9108f60e11b81526004810185905284907fd465e4b8dcc4d0ccee59a07ef3fc9f8e9bf8e1c64b331153db12f55363e598c2906001600160a01b03861690636352211e90602401602060405180830381865afa158015610ab9573d6000803e3d6000fd5b505050506040513d601f19601f82011682018060405250810190610add91906127fe565b604080516001600160a01b039092168252336020830152349082015260600160405180910390a250505050565b60fb546040516331a9108f60e11b815260048101839052829133916001600160a01b03909116906000908290636352211e90602401602060405180830381865afa158015610b5c573d6000803e3d6000fd5b505050506040513d601f19601f82011682018060405250810190610b8091906127fe565b9050806001600160a01b0316836001600160a01b031614610bb4576040516330cd747160e01b815260040160405180910390fd5b60fe54604051638daa6fc960e01b81526004810187905286916000916001600160a01b0390911690638daa6fc990602401600060405180830381865afa158015610c02573d6000803e3d6000fd5b505050506040513d6000823e601f3d908101601f19168201604052610c2a9190810190612733565b90508051600003610c4e57604051632f3ad84b60e11b815260040160405180910390fd5b60fb5460405163020604bf60e21b8152600481018990526001600160a01b03909116903090829063081812fc90602401602060405180830381865afa158015610c9b573d6000803e3d6000fd5b505050506040513d601f19601f82011682018060405250810190610cbf91906127fe565b6001600160a01b031614610d155760405162461bcd60e51b815260206004820152601960248201527f4e6f74417070726f766564466f724d61726b6574706c616365000000000000006044820152606401610373565b60fe546040516398cfcf5f60e01b8152600481018a90526000916001600160a01b0316906398cfcf5f90602401608060405180830381865afa158015610d5f573d6000803e3d6000fd5b505050506040513d601f19601f82011682018060405250810190610d839190612845565b6040516331a9108f60e11b8152600481018b90529091506000906001600160a01b03841690636352211e90602401602060405180830381865afa158015610dce573d6000803e3d6000fd5b505050506040513d601f19601f82011682018060405250810190610df291906127fe565b6040830151606084015191925090610e0a8c83611b59565b6040516323b872dd60e01b81523360048201526001600160a01b038281166024830152604482018e90528616906323b872dd90606401600060405180830381600087803b158015610e5a57600080fd5b505af1158015610e6e573d6000803e3d6000fd5b50505050610e7c8c82611df4565b60fe5460405163379c3f4f60e11b8152600481018e90526001600160a01b0390911690636f387e9e90602401600060405180830381600087803b158015610ec257600080fd5b505af1158015610ed6573d6000803e3d6000fd5b5050604080516001600160a01b038088168252851660208201529081018590528e92507f5a1bb95c9f5b9302c58022867300f1559a08b23eed3c0c42b7ce389a6b5a7c52915060600160405180910390a2505050505050505050505050565b60408051608081018252600080825260208201819052918101829052606081019190915260fe546040516398cfcf5f60e01b8152600481018490526000916001600160a01b0316906398cfcf5f90602401608060405180830381865afa158015610fa3573d6000803e3d6000fd5b505050506040513d601f19601f8201168201806040525081019061048a9190612845565b60fe546040516398cfcf5f60e01b8152600481018390526000916001600160a01b0316906398cfcf5f90602401608060405180830381865afa158015611011573d6000803e3d6000fd5b505050506040513d601f19601f820116820180604052508101906110359190612845565b9050600082118015611053575060208101516001600160a01b031615155b61106f5760405162461bcd60e51b81526004016103739061281b565b60fe5460405163a696e5c560e01b8152600481018490523360248201526000916001600160a01b03169063a696e5c590604401602060405180830381865afa1580156110bf573d6000803e3d6000fd5b505050506040513d601f19601f820116820180604052508101906110e391906127e5565b90506000811161112b5760405162461bcd60e51b8152602060048201526013602482015272139bc81858dd1a5d9948189a5908199bdd5b99606a1b6044820152606401610373565b604051600090339083908381818185875af1925050503d806000811461116d576040519150601f19603f3d011682016040523d82523d6000602084013e611172565b606091505b50509050806111b55760405162461bcd60e51b815260206004820152600f60248201526e151c985b9cd9995c8819985a5b1959608a1b6044820152606401610373565b6111bf8433611df4565b336001600160a01b031683606001516001600160a01b0316036113ff5760fe54602084015160405162764fd360e71b815260048101879052600060248201526001600160a01b039182166044820152911690633b27e98090606401600060405180830381600087803b15801561123457600080fd5b505af1158015611248573d6000803e3d6000fd5b505060fe54604051638daa6fc960e01b815260048101889052600093508392506001600160a01b0390911690638daa6fc990602401600060405180830381865afa15801561129a573d6000803e3d6000fd5b505050506040513d6000823e601f3d908101601f191682016040526112c29190810190612733565b905060005b81518110156113fb5760008282815181106112e4576112e46128b8565b602090810291909101015160fe5460405163a696e5c560e01b8152600481018b90526001600160a01b0380841660248301529293506000929091169063a696e5c590604401602060405180830381865afa158015611346573d6000803e3d6000fd5b505050506040513d601f19601f8201168201806040525081019061136a91906127e5565b9050848111156113e65760fe5460405162764fd360e71b8152600481018b9052602481018390526001600160a01b038481166044830152929650869290911690633b27e98090606401600060405180830381600087803b1580156113cd57600080fd5b505af11580156113e1573d6000803e3d6000fd5b505050505b505080806113f3906128e4565b9150506112c7565b5050505b50505050565b61140d61175a565b6001600160a01b0381166114725760405162461bcd60e51b815260206004820152602660248201527f4f776e61626c653a206e6577206f776e657220697320746865207a65726f206160448201526564647265737360d01b6064820152608401610373565b610410816117b4565b600054610100900460ff161580801561149b5750600054600160ff909116105b806114b55750303b1580156114b5575060005460ff166001145b6115185760405162461bcd60e51b815260206004820152602e60248201527f496e697469616c697a61626c653a20636f6e747261637420697320616c72656160448201526d191e481a5b9a5d1a585b1a5e995960921b6064820152608401610373565b6000805460ff19166001179055801561153b576000805461ff0019166101001790555b6115436121c4565b61154b6121f3565b60fb80546001600160a01b038088166001600160a01b03199283161790925560fc805487841690831617905560fd805486841690831617905560fe80549285169290911691909117905580156115db576000805461ff0019169055604051600181527f7f26b83ff96e1f2b6a682f133852f6798a09c465da95921460cefb38474024989060200160405180910390a15b5050505050565b61041061175a565b7f4910fdfa16fed3260ed0e7147f7cc6da11a60208b5b9406d12a635614ffd91435460ff16156116225761161d8361221a565b505050565b826001600160a01b03166352d1902d6040518163ffffffff1660e01b8152600401602060405180830381865afa92505050801561167c575060408051601f3d908101601f19168201909252611679918101906127e5565b60015b6116df5760405162461bcd60e51b815260206004820152602e60248201527f45524331393637557067726164653a206e657720696d706c656d656e7461746960448201526d6f6e206973206e6f74205555505360901b6064820152608401610373565b600080516020612a51833981519152811461174e5760405162461bcd60e51b815260206004820152602960248201527f45524331393637557067726164653a20756e737570706f727465642070726f786044820152681a58589b195555525160ba1b6064820152608401610373565b5061161d8383836122b6565b6065546001600160a01b031633146106a15760405162461bcd60e51b815260206004820181905260248201527f4f776e61626c653a2063616c6c6572206973206e6f7420746865206f776e65726044820152606401610373565b606580546001600160a01b038381166001600160a01b0319831681179093556040519116919082907f8be0079c531659141344cd1fd0a4f28419497f9722a3daafe3b4186f6b6457e090600090a35050565b611810838361189a565b604080516080810182528481526001600160a01b03808416602083015281830185905233606083015260fe549251637c801d6560e11b81529192169063f9003aca9061186290879085906004016128fd565b600060405180830381600087803b15801561187c57600080fd5b505af1158015611890573d6000803e3d6000fd5b5050505050505050565b600081116118ea5760405162461bcd60e51b815260206004820152601a60248201527f426964206d7573742062652067726561746572207468616e20300000000000006044820152606401610373565b60fe5460405163a696e5c560e01b8152600481018490523360248201526000916001600160a01b03169063a696e5c590604401602060405180830381865afa15801561193a573d6000803e3d6000fd5b505050506040513d601f19601f8201168201806040525081019061195e91906127e5565b60fe54604051630904625160e41b81529192506001600160a01b0316906390462510906119939086903390879060040161293e565b600060405180830381600087803b1580156119ad57600080fd5b505af11580156119c1573d6000803e3d6000fd5b5050505080600014806119d357508181105b1561161d5760fe54604051630904625160e41b81526001600160a01b0390911690639046251090611a0c9086903390879060040161293e565b600060405180830381600087803b158015611a2657600080fd5b505af1158015611a3a573d6000803e3d6000fd5b505060fe54604051638daa6fc960e01b815260048101879052600093506001600160a01b039091169150638daa6fc990602401600060405180830381865afa158015611a8a573d6000803e3d6000fd5b505050506040513d6000823e601f3d908101601f19168201604052611ab29190810190612733565b9050816000036113ff5760fe548151604051638c4d91a960e01b81526001600160a01b0390921691638c4d91a991611af0918891339160040161293e565b600060405180830381600087803b158015611b0a57600080fd5b505af1158015611b1e573d6000803e3d6000fd5b505060fe546040516327bb428b60e01b8152600481018890523360248201526001600160a01b0390911692506327bb428b9150604401611862565b81600003611b795760405162461bcd60e51b81526004016103739061281b565b60008111611bbe5760405162461bcd60e51b8152602060048201526012602482015271125b9d985b1a5908189a5908185b5bdd5b9d60721b6044820152606401610373565b60fd5460408051630bea3e4960e21b815290516000926001600160a01b031691632fa8f9249160048083019260209291908290030181865afa158015611c08573d6000803e3d6000fd5b505050506040513d601f19601f82011682018060405250810190611c2c919061295d565b60fc5460fd5460405163654e609160e01b8152600481018790526024810186905292935033926001600160a01b0392831692600092169063654e609190604401602060405180830381865afa158015611c89573d6000803e3d6000fd5b505050506040513d601f19601f82011682018060405250810190611cad91906127e5565b90508484611dbe5760fc546001600160a01b0316611d0d5760405162461bcd60e51b815260206004820152601760248201527f496e76616c69642063726561746f7220616464726573730000000000000000006044820152606401610373565b611d17828261297f565b6040519091506001600160a01b0384169083156108fc029084906000818181858888f19350505050158015611d50573d6000803e3d6000fd5b5060fd5460405163b6f2611560e01b81526004810189905260248101849052600060448201526001600160a01b039091169063b6f2611590606401600060405180830381600087803b158015611da557600080fd5b505af1158015611db9573d6000803e3d6000fd5b505050505b6040516001600160a01b0385169082156108fc029083906000818181858888f19350505050158015611890573d6000803e3d6000fd5b60008211611e145760405162461bcd60e51b81526004016103739061281b565b6001600160a01b038116611e635760405162461bcd60e51b8152602060048201526016602482015275496e76616c696420626964646572206164647265737360501b6044820152606401610373565b60fe54604051630904625160e41b81526001600160a01b0390911690639046251090611e98908590859060009060040161293e565b600060405180830381600087803b158015611eb257600080fd5b505af1158015611ec6573d6000803e3d6000fd5b505060fe54604051638daa6fc960e01b815260048101869052600093506001600160a01b039091169150638daa6fc990602401600060405180830381865afa158015611f16573d6000803e3d6000fd5b505050506040513d6000823e601f3d908101601f19168201604052611f3e9190810190612733565b60fe5460405162affb0160e01b8152600481018690526001600160a01b0385811660248301529293506000929091169062affb0190604401602060405180830381865afa158015611f93573d6000803e3d6000fd5b505050506040513d601f19601f82011682018060405250810190611fb791906127e5565b9050600060018351611fc9919061297f565b90506000838281518110611fdf57611fdf6128b8565b602090810291909101015160fe54604051638c4d91a960e01b81529192506001600160a01b031690638c4d91a99061201f9089908590889060040161293e565b600060405180830381600087803b15801561203957600080fd5b505af115801561204d573d6000803e3d6000fd5b505060fe5460405163057b1b4d60e11b8152600481018a90526001600160a01b0389811660248301529091169250630af6369a9150604401600060405180830381600087803b15801561209f57600080fd5b505af11580156120b3573d6000803e3d6000fd5b505060fe54604051631791e2a960e21b8152600481018a9052602481018790526001600160a01b0385811660448301529091169250635e478aa49150606401600060405180830381600087803b15801561210c57600080fd5b505af1158015612120573d6000803e3d6000fd5b505060fe5460405163138e2fed60e21b8152600481018a90526001600160a01b039091169250634e38bfb49150602401600060405180830381600087803b15801561216a57600080fd5b505af115801561217e573d6000803e3d6000fd5b5050604080513381523460208201528993507f7edef3ff69fe27df6ec60fbe1a8b87f98343758660364ecca467b7b79b70a21392500160405180910390a2505050505050565b600054610100900460ff166121eb5760405162461bcd60e51b815260040161037390612992565b6106a16122db565b600054610100900460ff166106a15760405162461bcd60e51b815260040161037390612992565b6001600160a01b0381163b6122875760405162461bcd60e51b815260206004820152602d60248201527f455243313936373a206e657720696d706c656d656e746174696f6e206973206e60448201526c1bdd08184818dbdb9d1c9858dd609a1b6064820152608401610373565b600080516020612a5183398151915280546001600160a01b0319166001600160a01b0392909216919091179055565b6122bf8361230b565b6000825111806122cc5750805b1561161d576113ff838361234b565b600054610100900460ff166123025760405162461bcd60e51b815260040161037390612992565b6106a1336117b4565b6123148161221a565b6040516001600160a01b038216907fbc7cd75a20ee27fd9adebab32041f755214dbc6bffa90cc0225b39da2e5c2d3b90600090a250565b60606001600160a01b0383163b6123b35760405162461bcd60e51b815260206004820152602660248201527f416464726573733a2064656c65676174652063616c6c20746f206e6f6e2d636f6044820152651b9d1c9858dd60d21b6064820152608401610373565b600080846001600160a01b0316846040516123ce9190612a01565b600060405180830381855af49150503d8060008114612409576040519150601f19603f3d011682016040523d82523d6000602084013e61240e565b606091505b50915091506124368282604051806060016040528060278152602001612a716027913961243f565b95945050505050565b6060831561244e57508161048a565b61048a83838151156124635781518083602001fd5b8060405162461bcd60e51b81526004016103739190612a1d565b6001600160a01b038116811461041057600080fd5b6000602082840312156124a457600080fd5b813561048a8161247d565b6000602082840312156124c157600080fd5b5035919050565b6020808252825182820181905260009190848201906040850190845b818110156125095783516001600160a01b0316835292840192918401916001016124e4565b50909695505050505050565b634e487b7160e01b600052604160045260246000fd5b604051601f8201601f1916810167ffffffffffffffff8111828210171561255457612554612515565b604052919050565b6000806040838503121561256f57600080fd5b823561257a8161247d565b915060208381013567ffffffffffffffff8082111561259857600080fd5b818601915086601f8301126125ac57600080fd5b8135818111156125be576125be612515565b6125d0601f8201601f1916850161252b565b915080825287848285010111156125e657600080fd5b80848401858401376000848284010152508093505050509250929050565b608081016105068284805182526020808201516001600160a01b03908116918401919091526040808301519084015260609182015116910152565b6000806000806080858703121561265557600080fd5b84356126608161247d565b935060208501356126708161247d565b925060408501356126808161247d565b915060608501356126908161247d565b939692955090935050565b6020808252602c908201527f46756e6374696f6e206d7573742062652063616c6c6564207468726f7567682060408201526b19195b1959d85d1958d85b1b60a21b606082015260800190565b6020808252602c908201527f46756e6374696f6e206d7573742062652063616c6c6564207468726f7567682060408201526b6163746976652070726f787960a01b606082015260800190565b6000602080838503121561274657600080fd5b825167ffffffffffffffff8082111561275e57600080fd5b818501915085601f83011261277257600080fd5b81518181111561278457612784612515565b8060051b915061279584830161252b565b81815291830184019184810190888411156127af57600080fd5b938501935b838510156127d957845192506127c98361247d565b82825293850193908501906127b4565b98975050505050505050565b6000602082840312156127f757600080fd5b5051919050565b60006020828403121561281057600080fd5b815161048a8161247d565b60208082526010908201526f125b9d985b1a59081d1bdad95b88125160821b604082015260600190565b60006080828403121561285757600080fd5b6040516080810181811067ffffffffffffffff8211171561287a5761287a612515565b60405282518152602083015161288f8161247d565b60208201526040838101519082015260608301516128ac8161247d565b60608201529392505050565b634e487b7160e01b600052603260045260246000fd5b634e487b7160e01b600052601160045260246000fd5b6000600182016128f6576128f66128ce565b5060010190565b82815260a0810161048a6020830184805182526020808201516001600160a01b03908116918401919091526040808301519084015260609182015116910152565b9283526001600160a01b03919091166020830152604082015260600190565b60006020828403121561296f57600080fd5b8151801515811461048a57600080fd5b81810381811115610506576105066128ce565b6020808252602b908201527f496e697469616c697a61626c653a20636f6e7472616374206973206e6f74206960408201526a6e697469616c697a696e6760a81b606082015260800190565b60005b838110156129f85781810151838201526020016129e0565b50506000910152565b60008251612a138184602087016129dd565b9190910192915050565b6020815260008251806020840152612a3c8160408501602087016129dd565b601f01601f1916919091016040019291505056fe360894a13ba1a3210667c828492db98dca3e2076cc3735a920a3ca505d382bbc416464726573733a206c6f772d6c6576656c2064656c65676174652063616c6c206661696c6564a2646970667358221220605385f63f3ec2936b2cbc05b49f213e11213c56c98502d9f4afce76f7a348d364736f6c63430008110033",
  "immutableReferences": {
    "746": [
      {
        "length": 32,
        "start": 821
      },
      {
        "length": 32,
        "start": 894
      },
      {
        "length": 32,
        "start": 1302
      },
      {
        "length": 32,
        "start": 1366
      },
      {
        "length": 32,
        "start": 1513
      }
    ]
  },
  "source": "// SPDX-License-Identifier: MIT\npragma solidity ^0.8.7;\n\nimport \"@openzeppelin/contracts-upgradeable/proxy/utils/Initializable.sol\";\n\nimport \"@openzeppelin/contracts-upgradeable/token/ERC721/IERC721Upgradeable.sol\";\nimport \"@openzeppelin/contracts-upgradeable/security/ReentrancyGuardUpgradeable.sol\";\nimport \"@openzeppelin/contracts-upgradeable/token/common/ERC2981Upgradeable.sol\";\nimport \"@openzeppelin/contracts-upgradeable/utils/CountersUpgradeable.sol\";\nimport \"@openzeppelin/contracts-upgradeable/access/OwnableUpgradeable.sol\";\nimport \"@openzeppelin/contracts-upgradeable/proxy/utils/UUPSUpgradeable.sol\";\n\nimport \"../NftVendor/NftVendor.sol\";\nimport \"../CCNft/ICCNftStorage.sol\";\nimport \"./INftOffersStorage.sol\";\n\n// Check out https://github.com/Fantom-foundation/Artion-Contracts/blob/5c90d2bc0401af6fb5abf35b860b762b31dfee02/contracts/FantomMarketplace.sol\n// For a full decentralized nft marketplace\n\n// Error thrown for isNotOwner modifier\n// error IsNotOwner()\nerror NotOffers();\n\ncontract NftOffers is\n  Initializable,\n  ReentrancyGuardUpgradeable,\n  OwnableUpgradeable,\n  UUPSUpgradeable\n{\n  address public collection;\n  address public creator;\n\n  NftVendor public nftVendor;\n  INftOffersStorage private _nftOffersStorage;\n\n  modifier hasOffers(uint256 tokenId) {\n    address[] memory addresses = _nftOffersStorage.getAddressFromTokenId(\n      tokenId\n    );\n    if (addresses.length == 0) {\n      revert NotOffers();\n    }\n    _;\n  }\n\n  modifier isOwner(uint256 tokenId, address spender) {\n    IERC721Upgradeable nft = IERC721Upgradeable(collection);\n    address owner = nft.ownerOf(tokenId);\n    if (spender != owner) {\n      revert NotOwner();\n    }\n    _;\n  }\n\n  event NewOffer(\n    uint256 indexed tokenId,\n    address owner,\n    address bidder,\n    uint256 bid\n  );\n  event RemoveOffer(uint256 indexed tokenId, address bidder, uint256 bid);\n  event Withdraw(uint256 indexed tokenId, address bidder, uint256 bid);\n  event AcceptOffer(\n    uint256 indexed tokenId,\n    address owner,\n    address bidder,\n    uint256 bid\n  );\n\n  function initialize(\n    address _collection,\n    address _creator,\n    address _nftVendor,\n    address nftOffersStorageAddress\n  ) public initializer {\n    __Ownable_init();\n    __UUPSUpgradeable_init();\n    collection = _collection;\n    creator = _creator;\n    nftVendor = NftVendor(_nftVendor);\n\n    _nftOffersStorage = INftOffersStorage(nftOffersStorageAddress);\n  }\n\n  function _authorizeUpgrade(address) internal override onlyOwner {}\n\n  function getHighestBid(uint256 _tokenId) external view returns (uint256) {\n    return _nftOffersStorage.getHighestBidByTokenId(_tokenId);\n  }\n\n  function getNftOffer(\n    uint256 _tokenId\n  ) external view returns (INftOffersStorage.Offer memory) {\n    INftOffersStorage.Offer memory offer = _nftOffersStorage\n      .getNftOfferByTokenId(_tokenId);\n    return offer;\n  }\n\n  function getAddressesBids(\n    uint256 _tokenId\n  ) external view returns (address[] memory) {\n    address[] memory bidders = _nftOffersStorage.getAddressFromTokenId(\n      _tokenId\n    );\n    return bidders;\n  }\n\n  function payRoyaltiesAndTransfer(\n    uint256 _tokenId,\n    uint256 highestBid\n  ) private {\n    require(_tokenId != 0, \"Invalid token ID\");\n    require(highestBid > 0, \"Invalid bid amount\");\n\n    bool excluded = nftVendor.getIsExcluded();\n    address payable sellerAddress = payable(msg.sender);\n    address payable creatorAddress = payable(creator);\n    uint256 royalty = nftVendor.calculateRoyaltyForAcceptedOffer(\n      _tokenId,\n      highestBid\n    );\n    uint256 totalAmount = highestBid;\n\n    if (!excluded) {\n      require(creator != address(0), \"Invalid creator address\");\n      totalAmount -= royalty;\n      creatorAddress.transfer(royalty);\n      nftVendor.emitTxFee(_tokenId, royalty, false);\n    }\n    sellerAddress.transfer(totalAmount);\n  }\n\n  function getPrevious(uint256 _tokenId) external view returns (uint256) {\n    return\n      _nftOffersStorage.getPreviousBidderBidByTokenId(_tokenId, msg.sender);\n  }\n\n  function makeOffer(uint256 _tokenId) public payable {\n    // Ensure that the buyer is making a valid offer\n\n    require(msg.value > 0, \"Offer price must be greater than 0\");\n\n    IERC721Upgradeable nft = IERC721Upgradeable(collection);\n    require(nft.ownerOf(_tokenId) != address(0), \"Invalid token ID\");\n\n    uint256 previousBid = _nftOffersStorage.getPreviousBidderBidByTokenId(\n      _tokenId,\n      msg.sender\n    );\n\n    require(previousBid == 0, \"You must withdraw your previous bid first\");\n\n    uint256 highestBid = _nftOffersStorage.getHighestBidByTokenId(_tokenId);\n\n    //No offers made\n    if (highestBid == 0) {\n      _createNftOffer(_tokenId, msg.value, nft.ownerOf(_tokenId));\n    } else {\n      require(msg.value > highestBid, \"Offer price is too low\");\n      _setOffer(_tokenId, msg.value);\n      _nftOffersStorage.setTokenIdToOffer(_tokenId, msg.value, msg.sender);\n    }\n\n    emit NewOffer(_tokenId, nft.ownerOf(_tokenId), msg.sender, msg.value);\n  }\n\n  function acceptOffer(\n    uint256 _tokenId\n  ) public payable isOwner(_tokenId, msg.sender) hasOffers(_tokenId) {\n    IERC721Upgradeable nft = IERC721Upgradeable(collection);\n    require(\n      nft.getApproved(_tokenId) == address(this),\n      \"NotApprovedForMarketplace\"\n    );\n\n    INftOffersStorage.Offer memory offer = _nftOffersStorage\n      .getNftOfferByTokenId(_tokenId);\n\n    address owner = nft.ownerOf(_tokenId);\n    uint256 highestBid = offer.highestBid;\n    address highestBidder = offer.highestBidder;\n\n    payRoyaltiesAndTransfer(_tokenId, highestBid);\n\n    nft.transferFrom(msg.sender, highestBidder, _tokenId);\n\n    _removeOffer(_tokenId, highestBidder);\n    _nftOffersStorage.deleteTokenIdFromOffer(_tokenId);\n\n    emit AcceptOffer(_tokenId, owner, highestBidder, highestBid);\n  }\n\n  function cancelOffer(uint256 _tokenId) external {\n    INftOffersStorage.Offer memory offer = _nftOffersStorage\n      .getNftOfferByTokenId(_tokenId);\n\n    require(_tokenId > 0 && offer.seller != address(0), \"Invalid token ID\");\n\n    uint256 amount = _nftOffersStorage.getPreviousBidderBidByTokenId(\n      _tokenId,\n      msg.sender\n    );\n\n    require(amount > 0, \"No active bid found\");\n\n    (bool success, ) = msg.sender.call{ value: amount }(\"\");\n    require(success, \"Transfer failed\");\n\n    _removeOffer(_tokenId, msg.sender);\n\n    if (offer.highestBidder == msg.sender) {\n      _nftOffersStorage.setTokenIdToOffer(_tokenId, 0, offer.seller);\n      uint256 currentBid = 0;\n      address[] memory addresses = _nftOffersStorage.getAddressFromTokenId(\n        _tokenId\n      );\n\n      for (uint256 i = 0; i < addresses.length; i++) {\n        address bidder = addresses[i];\n\n        uint256 bidAmount = _nftOffersStorage.getPreviousBidderBidByTokenId(\n          _tokenId,\n          bidder\n        );\n        if (bidAmount > currentBid) {\n          currentBid = bidAmount;\n          _nftOffersStorage.setTokenIdToOffer(_tokenId, bidAmount, bidder);\n        }\n      }\n    }\n  }\n\n  function _createNftOffer(\n    uint256 _tokenId,\n    uint256 _nftPrice,\n    address _seller\n  ) private {\n    _setOffer(_tokenId, _nftPrice);\n\n    INftOffersStorage.Offer memory offer = INftOffersStorage.Offer(\n      _tokenId,\n      _seller,\n      _nftPrice,\n      msg.sender\n    );\n\n    _nftOffersStorage.setOfferByTokenId(_tokenId, offer);\n  }\n\n  function _setOffer(uint256 _tokenId, uint256 _bid) private {\n    require(_bid > 0, \"Bid must be greater than 0\");\n    uint256 bidderBid = _nftOffersStorage.getPreviousBidderBidByTokenId(\n      _tokenId,\n      msg.sender\n    );\n    _nftOffersStorage.setOfferBidFromTokenIdBySender(\n      _tokenId,\n      msg.sender,\n      _bid\n    );\n    if (bidderBid == 0 || bidderBid < _bid) {\n      _nftOffersStorage.setOfferBidFromTokenIdBySender(\n        _tokenId,\n        msg.sender,\n        _bid\n      );\n      address[] memory addresses = _nftOffersStorage.getAddressFromTokenId(\n        _tokenId\n      );\n      if (bidderBid == 0) {\n        _nftOffersStorage.setIndexOfOffersBidsFromAddress(\n          _tokenId,\n          msg.sender,\n          addresses.length\n        );\n        _nftOffersStorage.pushAddressFromTokenId(_tokenId, msg.sender);\n      }\n    }\n  }\n\n  function _removeOffer(uint256 _tokenId, address bidder) internal {\n    require(_tokenId > 0, \"Invalid token ID\");\n    require(bidder != address(0), \"Invalid bidder address\");\n\n    _nftOffersStorage.setOfferBidFromTokenIdBySender(_tokenId, bidder, 0);\n\n    address[] memory addresses = _nftOffersStorage.getAddressFromTokenId(\n      _tokenId\n    );\n\n    uint index = _nftOffersStorage.getIndexOfOfferBidsFromAddress(\n      _tokenId,\n      bidder\n    );\n\n    uint lastIndex = addresses.length - 1;\n    address lastBidder = addresses[lastIndex];\n\n    _nftOffersStorage.setIndexOfOffersBidsFromAddress(\n      _tokenId,\n      lastBidder,\n      index\n    );\n\n    _nftOffersStorage.deleteIndexOfOfferBidsFromAddress(_tokenId, bidder);\n    _nftOffersStorage.updateAddrressFromTokenId(_tokenId, index, lastBidder);\n    _nftOffersStorage.popAddressFromTokenId(_tokenId);\n\n    emit RemoveOffer(_tokenId, msg.sender, msg.value);\n  }\n}\n",
  "sourcePath": "/Users/alberto/Desktop/Enalbis/caskchain-mono/apps/contracts/contracts/NftOffers/NftOffers.sol",
  "compiler": {
    "name": "solc",
    "version": "0.8.17+commit.8df45f5f.Emscripten.clang"
  },
  "schemaVersion": "3.4.11",
  "updatedAt": "2023-07-06T20:40:40.258Z",
  "networkType": "ethereum",
  "devdoc": {
    "kind": "dev",
    "methods": {
      "owner()": {
        "details": "Returns the address of the current owner."
      },
      "proxiableUUID()": {
        "details": "Implementation of the ERC1822 {proxiableUUID} function. This returns the storage slot used by the implementation. It is used to validate the implementation's compatibility when performing an upgrade. IMPORTANT: A proxy pointing at a proxiable contract should not be considered proxiable itself, because this risks bricking a proxy that upgrades to it, by delegating to itself until out of gas. Thus it is critical that this function revert if invoked through a proxy. This is guaranteed by the `notDelegated` modifier."
      },
      "renounceOwnership()": {
        "details": "Leaves the contract without owner. It will not be possible to call `onlyOwner` functions anymore. Can only be called by the current owner. NOTE: Renouncing ownership will leave the contract without an owner, thereby removing any functionality that is only available to the owner."
      },
      "transferOwnership(address)": {
        "details": "Transfers ownership of the contract to a new account (`newOwner`). Can only be called by the current owner."
      },
      "upgradeTo(address)": {
        "details": "Upgrade the implementation of the proxy to `newImplementation`. Calls {_authorizeUpgrade}. Emits an {Upgraded} event."
      },
      "upgradeToAndCall(address,bytes)": {
        "details": "Upgrade the implementation of the proxy to `newImplementation`, and subsequently execute the function call encoded in `data`. Calls {_authorizeUpgrade}. Emits an {Upgraded} event."
      }
    },
    "version": 1
  },
  "userdoc": {
    "kind": "user",
    "methods": {},
    "version": 1
  }
}