{
  "contractName": "NftOffersStorage",
  "abi": [
    {
      "anonymous": false,
      "inputs": [
        {
          "indexed": true,
          "internalType": "address",
          "name": "previousOwner",
          "type": "address"
        },
        {
          "indexed": true,
          "internalType": "address",
          "name": "newOwner",
          "type": "address"
        }
      ],
      "name": "OwnershipTransferred",
      "type": "event"
    },
    {
      "inputs": [
        {
          "internalType": "uint256",
          "name": "",
          "type": "uint256"
        },
        {
          "internalType": "uint256",
          "name": "",
          "type": "uint256"
        }
      ],
      "name": "addressesWithBidsFromTokenId",
      "outputs": [
        {
          "internalType": "address",
          "name": "",
          "type": "address"
        }
      ],
      "stateMutability": "view",
      "type": "function",
      "constant": true
    },
    {
      "inputs": [
        {
          "internalType": "address",
          "name": "",
          "type": "address"
        }
      ],
      "name": "allowedAddresses",
      "outputs": [
        {
          "internalType": "bool",
          "name": "",
          "type": "bool"
        }
      ],
      "stateMutability": "view",
      "type": "function",
      "constant": true
    },
    {
      "inputs": [],
      "name": "owner",
      "outputs": [
        {
          "internalType": "address",
          "name": "",
          "type": "address"
        }
      ],
      "stateMutability": "view",
      "type": "function",
      "constant": true
    },
    {
      "inputs": [],
      "name": "renounceOwnership",
      "outputs": [],
      "stateMutability": "nonpayable",
      "type": "function"
    },
    {
      "inputs": [
        {
          "internalType": "address",
          "name": "newOwner",
          "type": "address"
        }
      ],
      "name": "transferOwnership",
      "outputs": [],
      "stateMutability": "nonpayable",
      "type": "function"
    },
    {
      "inputs": [
        {
          "internalType": "address",
          "name": "_address",
          "type": "address"
        }
      ],
      "name": "addAllowedAddress",
      "outputs": [],
      "stateMutability": "nonpayable",
      "type": "function"
    },
    {
      "inputs": [
        {
          "internalType": "address",
          "name": "_address",
          "type": "address"
        }
      ],
      "name": "removeAllowedAddress",
      "outputs": [],
      "stateMutability": "nonpayable",
      "type": "function"
    },
    {
      "inputs": [
        {
          "internalType": "address",
          "name": "_address",
          "type": "address"
        }
      ],
      "name": "isAllowedAddress",
      "outputs": [
        {
          "internalType": "bool",
          "name": "",
          "type": "bool"
        }
      ],
      "stateMutability": "view",
      "type": "function",
      "constant": true
    },
    {
      "inputs": [
        {
          "internalType": "uint256",
          "name": "_tokenId",
          "type": "uint256"
        }
      ],
      "name": "getPreviousBidderBidByTokenId",
      "outputs": [
        {
          "internalType": "uint256",
          "name": "",
          "type": "uint256"
        }
      ],
      "stateMutability": "view",
      "type": "function",
      "constant": true
    },
    {
      "inputs": [
        {
          "internalType": "uint256",
          "name": "_tokenId",
          "type": "uint256"
        }
      ],
      "name": "getNftOfferByTokenId",
      "outputs": [
        {
          "components": [
            {
              "internalType": "uint256",
              "name": "nftId",
              "type": "uint256"
            },
            {
              "internalType": "address",
              "name": "seller",
              "type": "address"
            },
            {
              "internalType": "uint256",
              "name": "highestBid",
              "type": "uint256"
            },
            {
              "internalType": "address",
              "name": "highestBidder",
              "type": "address"
            }
          ],
          "internalType": "struct NftOffersStorage.Offer",
          "name": "",
          "type": "tuple"
        }
      ],
      "stateMutability": "view",
      "type": "function",
      "constant": true
    },
    {
      "inputs": [
        {
          "internalType": "uint256",
          "name": "_tokenId",
          "type": "uint256"
        },
        {
          "internalType": "address",
          "name": "_address",
          "type": "address"
        }
      ],
      "name": "getOffersBidsFromTokenId",
      "outputs": [
        {
          "internalType": "uint256",
          "name": "",
          "type": "uint256"
        }
      ],
      "stateMutability": "view",
      "type": "function",
      "constant": true
    },
    {
      "inputs": [
        {
          "internalType": "uint256",
          "name": "tokenId",
          "type": "uint256"
        }
      ],
      "name": "getAddressFromTokenId",
      "outputs": [
        {
          "internalType": "address[]",
          "name": "",
          "type": "address[]"
        }
      ],
      "stateMutability": "view",
      "type": "function",
      "constant": true
    },
    {
      "inputs": [
        {
          "internalType": "uint256",
          "name": "_tokenId",
          "type": "uint256"
        },
        {
          "internalType": "address",
          "name": "_address",
          "type": "address"
        }
      ],
      "name": "getIndexOfOfferBidsFromAddress",
      "outputs": [
        {
          "internalType": "uint256",
          "name": "",
          "type": "uint256"
        }
      ],
      "stateMutability": "view",
      "type": "function",
      "constant": true
    },
    {
      "inputs": [
        {
          "internalType": "uint256",
          "name": "_tokenId",
          "type": "uint256"
        }
      ],
      "name": "getHighestBidByTokenId",
      "outputs": [
        {
          "internalType": "uint256",
          "name": "",
          "type": "uint256"
        }
      ],
      "stateMutability": "view",
      "type": "function",
      "constant": true
    },
    {
      "inputs": [
        {
          "internalType": "uint256",
          "name": "_tokenId",
          "type": "uint256"
        },
        {
          "internalType": "address",
          "name": "_address",
          "type": "address"
        },
        {
          "internalType": "uint256",
          "name": "_index",
          "type": "uint256"
        }
      ],
      "name": "setIndexOfOffersBidsFromAddress",
      "outputs": [],
      "stateMutability": "nonpayable",
      "type": "function"
    },
    {
      "inputs": [
        {
          "internalType": "uint256",
          "name": "_tokenId",
          "type": "uint256"
        },
        {
          "components": [
            {
              "internalType": "uint256",
              "name": "nftId",
              "type": "uint256"
            },
            {
              "internalType": "address",
              "name": "seller",
              "type": "address"
            },
            {
              "internalType": "uint256",
              "name": "highestBid",
              "type": "uint256"
            },
            {
              "internalType": "address",
              "name": "highestBidder",
              "type": "address"
            }
          ],
          "internalType": "struct NftOffersStorage.Offer",
          "name": "offer",
          "type": "tuple"
        }
      ],
      "name": "setOfferByTokenId",
      "outputs": [],
      "stateMutability": "nonpayable",
      "type": "function"
    },
    {
      "inputs": [
        {
          "internalType": "uint256",
          "name": "_tokenId",
          "type": "uint256"
        },
        {
          "internalType": "uint256",
          "name": "_bid",
          "type": "uint256"
        },
        {
          "internalType": "address",
          "name": "_bidder",
          "type": "address"
        }
      ],
      "name": "setTokenIdToOffer",
      "outputs": [],
      "stateMutability": "nonpayable",
      "type": "function"
    },
    {
      "inputs": [
        {
          "internalType": "uint256",
          "name": "_tokenId",
          "type": "uint256"
        },
        {
          "internalType": "uint256",
          "name": "_bid",
          "type": "uint256"
        }
      ],
      "name": "setOfferBidFromTokenIdBySender",
      "outputs": [],
      "stateMutability": "nonpayable",
      "type": "function"
    },
    {
      "inputs": [
        {
          "internalType": "uint256",
          "name": "tokenId",
          "type": "uint256"
        },
        {
          "internalType": "address",
          "name": "bidder",
          "type": "address"
        }
      ],
      "name": "pushAddressToTokenId",
      "outputs": [],
      "stateMutability": "nonpayable",
      "type": "function"
    },
    {
      "inputs": [
        {
          "internalType": "uint256",
          "name": "_tokenId",
          "type": "uint256"
        },
        {
          "internalType": "address",
          "name": "_address",
          "type": "address"
        }
      ],
      "name": "deleteOffersBidsFromTokenId",
      "outputs": [],
      "stateMutability": "nonpayable",
      "type": "function"
    },
    {
      "inputs": [
        {
          "internalType": "uint256",
          "name": "tokenId",
          "type": "uint256"
        },
        {
          "internalType": "uint256",
          "name": "index",
          "type": "uint256"
        }
      ],
      "name": "deleteAddressFromBiddersByTokenIdAndIndex",
      "outputs": [],
      "stateMutability": "nonpayable",
      "type": "function"
    },
    {
      "inputs": [
        {
          "internalType": "uint256",
          "name": "_tokenId",
          "type": "uint256"
        },
        {
          "internalType": "address",
          "name": "_address",
          "type": "address"
        }
      ],
      "name": "deleteIndexOfOfferBidsFromAddress",
      "outputs": [],
      "stateMutability": "nonpayable",
      "type": "function"
    },
    {
      "inputs": [
        {
          "internalType": "uint256",
          "name": "_tokenId",
          "type": "uint256"
        }
      ],
      "name": "deleteTokenIdFromOffer",
      "outputs": [],
      "stateMutability": "nonpayable",
      "type": "function"
    }
  ],
  "bytecode": "0x608060405234801561001057600080fd5b5061001a3361001f565b61006f565b600080546001600160a01b038381166001600160a01b0319831681178455604051919092169283917f8be0079c531659141344cd1fd0a4f28419497f9722a3daafe3b4186f6b6457e09190a35050565b610d898061007e6000396000f3fe608060405234801561001057600080fd5b506004361061014c5760003560e01c806381788e2b116100c357806398cfcf5f1161007c57806398cfcf5f14610331578063d0ce5909146103f4578063e16511b714610417578063ed21a3761461042a578063f2fde38b1461043d578063f9003aca1461045057600080fd5b806381788e2b1461026f5780638345245e146102825780638388522c146102ae5780638c4d91a9146102d95780638da5cb5b146102ec5780638daa6fc91461031157600080fd5b80633c9d93b8116101155780633c9d93b8146101c55780634120657a146101d857806367803ee51461020b5780636d20538c1461021e5780636f387e9e14610254578063715018a61461026757600080fd5b8062affb01146101515780630af6369a1461017757806328fb5bba1461018c57806333124a4f1461019f5780633b27e980146101b2575b600080fd5b61016461015f366004610af8565b610463565b6040519081526020015b60405180910390f35b61018a610185366004610af8565b61048d565b005b61018a61019a366004610af8565b6104eb565b61018a6101ad366004610af8565b610559565b61018a6101c0366004610b24565b6105ae565b61018a6101d3366004610b59565b610616565b6101fb6101e6366004610b59565b60056020526000908152604090205460ff1681565b604051901515815260200161016e565b61018a610219366004610b7b565b61063f565b61016461022c366004610af8565b60009182526007602090815260408084206001600160a01b0393909316845291905290205490565b61018a610262366004610b9d565b610741565b61018a6107aa565b61018a61027d366004610b59565b6107be565b6101fb610290366004610b59565b6001600160a01b031660009081526005602052604090205460ff1690565b6101646102bc366004610b9d565b600090815260076020908152604080832033845290915290205490565b61018a6102e7366004610bb6565b6107ea565b6000546001600160a01b03165b6040516001600160a01b03909116815260200161016e565b61032461031f366004610b9d565b61083f565b60405161016e9190610beb565b6103b261033f366004610b9d565b6040805160808101825260008082526020820181905291810182905260608101919091525060009081526006602090815260409182902082516080810184528154815260018201546001600160a01b03908116938201939093526002820154938101939093526003015416606082015290565b60405161016e9190815181526020808301516001600160a01b039081169183019190915260408084015190830152606092830151169181019190915260800190565b610164610402366004610b9d565b60009081526006602052604090206002015490565b6102f9610425366004610b7b565b6108ab565b61018a610438366004610b7b565b6108e3565b61018a61044b366004610b59565b61092f565b61018a61045e366004610c38565b6109a8565b60008281526008602090815260408083206001600160a01b03851684529091529020545b92915050565b3360009081526005602052604090205460ff166104c55760405162461bcd60e51b81526004016104bc90610cd7565b60405180910390fd5b60009182526008602090815260408084206001600160a01b039093168452919052812055565b3360009081526005602052604090205460ff1661051a5760405162461bcd60e51b81526004016104bc90610cd7565b600091825260096020908152604083208054600181018255908452922090910180546001600160a01b0319166001600160a01b03909216919091179055565b3360009081526005602052604090205460ff166105885760405162461bcd60e51b81526004016104bc90610cd7565b60009182526007602090815260408084206001600160a01b039093168452919052812055565b3360009081526005602052604090205460ff166105dd5760405162461bcd60e51b81526004016104bc90610cd7565b6000928352600660205260409092206003810180546001600160a01b0319166001600160a01b0390941693909317909255600290910155565b61061e610a32565b6001600160a01b03166000908152600560205260409020805460ff19169055565b3360009081526005602052604090205460ff1661066e5760405162461bcd60e51b81526004016104bc90610cd7565b6000828152600960205260409020805461068a90600190610d06565b8154811061069a5761069a610d27565b60009182526020808320909101548483526009909152604090912080546001600160a01b0390921691839081106106d3576106d3610d27565b600091825260208083209190910180546001600160a01b0319166001600160a01b03949094169390931790925583815260099091526040902080548061071b5761071b610d3d565b600082815260209020810160001990810180546001600160a01b03191690550190555050565b3360009081526005602052604090205460ff166107705760405162461bcd60e51b81526004016104bc90610cd7565b60009081526006602052604081208181556001810180546001600160a01b0319908116909155600282019290925560030180549091169055565b6107b2610a32565b6107bc6000610a8c565b565b6107c6610a32565b6001600160a01b03166000908152600560205260409020805460ff19166001179055565b3360009081526005602052604090205460ff166108195760405162461bcd60e51b81526004016104bc90610cd7565b60009283526008602090815260408085206001600160a01b039094168552929052912055565b60008181526009602090815260409182902080548351818402810184019094528084526060939283018282801561089f57602002820191906000526020600020905b81546001600160a01b03168152600190910190602001808311610881575b50505050509050919050565b600960205281600052604060002081815481106108c757600080fd5b6000918252602090912001546001600160a01b03169150829050565b3360009081526005602052604090205460ff166109125760405162461bcd60e51b81526004016104bc90610cd7565b600091825260076020908152604080842033855290915290912055565b610937610a32565b6001600160a01b03811661099c5760405162461bcd60e51b815260206004820152602660248201527f4f776e61626c653a206e6577206f776e657220697320746865207a65726f206160448201526564647265737360d01b60648201526084016104bc565b6109a581610a8c565b50565b3360009081526005602052604090205460ff166109d75760405162461bcd60e51b81526004016104bc90610cd7565b60009182526006602090815260409283902082518155908201516001820180546001600160a01b03199081166001600160a01b0393841617909155938301516002830155606090920151600390910180549093169116179055565b6000546001600160a01b031633146107bc5760405162461bcd60e51b815260206004820181905260248201527f4f776e61626c653a2063616c6c6572206973206e6f7420746865206f776e657260448201526064016104bc565b600080546001600160a01b038381166001600160a01b0319831681178455604051919092169283917f8be0079c531659141344cd1fd0a4f28419497f9722a3daafe3b4186f6b6457e09190a35050565b80356001600160a01b0381168114610af357600080fd5b919050565b60008060408385031215610b0b57600080fd5b82359150610b1b60208401610adc565b90509250929050565b600080600060608486031215610b3957600080fd5b8335925060208401359150610b5060408501610adc565b90509250925092565b600060208284031215610b6b57600080fd5b610b7482610adc565b9392505050565b60008060408385031215610b8e57600080fd5b50508035926020909101359150565b600060208284031215610baf57600080fd5b5035919050565b600080600060608486031215610bcb57600080fd5b83359250610bdb60208501610adc565b9150604084013590509250925092565b6020808252825182820181905260009190848201906040850190845b81811015610c2c5783516001600160a01b031683529284019291840191600101610c07565b50909695505050505050565b60008082840360a0811215610c4c57600080fd5b833592506080601f1982011215610c6257600080fd5b506040516080810181811067ffffffffffffffff82111715610c9457634e487b7160e01b600052604160045260246000fd5b806040525060208401358152610cac60408501610adc565b602082015260608401356040820152610cc760808501610adc565b6060820152809150509250929050565b60208082526015908201527410d85b1b195c881a5cc81b9bdd08185b1b1bddd959605a1b604082015260600190565b8181038181111561048757634e487b7160e01b600052601160045260246000fd5b634e487b7160e01b600052603260045260246000fd5b634e487b7160e01b600052603160045260246000fdfea26469706673582212203707bc5dcf08e572104b7e6e2e7003c88c4a778398986252282605809980846664736f6c63430008110033",
  "immutableReferences": {},
  "source": "// SPDX-License-Identifier: MIT\npragma solidity ^0.8.0;\nimport \"@openzeppelin/contracts/access/Ownable.sol\";\n\ncontract NftOffersStorage is Ownable {\n  struct Offer {\n    // Current owner of NFT\n    uint256 nftId;\n    address seller;\n    uint highestBid;\n    address highestBidder;\n  }\n\n  Offer internal _offer;\n\n  // Address => Boolean\n  mapping(address => bool) public allowedAddresses;\n  // Map from token ID to their corresponding auction.\n  mapping(uint256 => Offer) tokenIdToOffer;\n  // NFT Id => Account Address => Bid\n  mapping(uint256 => mapping(address => uint256)) internal offerBidsFromTokenId;\n  // NFT Id => Account Address => Index\n  mapping(uint256 => mapping(address => uint256))\n    internal indexOfOfferBidsFromAddress;\n  // NFT Id => Addresses\n  mapping(uint256 => address[]) public addressesWithBidsFromTokenId;\n\n  /////////////////////\n  // MODIFIERS //\n  /////////////////////\n\n  modifier onlyAllowed() {\n    require(allowedAddresses[msg.sender], \"Caller is not allowed\");\n    _;\n  }\n\n  /////////////////////\n  // ALLOWED ADDRESSES MANAGEMENT //\n  /////////////////////\n\n  function addAllowedAddress(address _address) public onlyOwner {\n    allowedAddresses[_address] = true;\n  }\n\n  function removeAllowedAddress(address _address) public onlyOwner {\n    allowedAddresses[_address] = false;\n  }\n\n  function isAllowedAddress(address _address) public view returns (bool) {\n    return allowedAddresses[_address];\n  }\n\n  // GETTERES\n  function getPreviousBidderBidByTokenId(\n    uint256 _tokenId\n  ) public view returns (uint256) {\n    return offerBidsFromTokenId[_tokenId][msg.sender];\n  }\n\n  function getNftOfferByTokenId(\n    uint256 _tokenId\n  ) external view returns (Offer memory) {\n    return tokenIdToOffer[_tokenId];\n  }\n\n  function getOffersBidsFromTokenId(\n    uint256 _tokenId,\n    address _address\n  ) public view returns (uint256) {\n    return offerBidsFromTokenId[_tokenId][_address];\n  }\n\n  function getAddressFromTokenId(\n    uint256 tokenId\n  ) public view returns (address[] memory) {\n    return addressesWithBidsFromTokenId[tokenId];\n  }\n\n  function getIndexOfOfferBidsFromAddress(\n    uint256 _tokenId,\n    address _address\n  ) public view returns (uint256) {\n    return indexOfOfferBidsFromAddress[_tokenId][_address];\n  }\n\n  function getHighestBidByTokenId(\n    uint256 _tokenId\n  ) public view returns (uint256) {\n    return tokenIdToOffer[_tokenId].highestBid;\n  }\n\n  // SETTERS\n\n  function setIndexOfOffersBidsFromAddress(\n    uint256 _tokenId,\n    address _address,\n    uint256 _index\n  ) public onlyAllowed {\n    indexOfOfferBidsFromAddress[_tokenId][_address] = _index;\n  }\n\n  function setOfferByTokenId(\n    uint256 _tokenId,\n    Offer memory offer\n  ) public onlyAllowed {\n    tokenIdToOffer[_tokenId] = offer;\n  }\n\n  function setTokenIdToOffer(\n    uint256 _tokenId,\n    uint256 _bid,\n    address _bidder\n  ) public onlyAllowed {\n    tokenIdToOffer[_tokenId].highestBidder = _bidder;\n    tokenIdToOffer[_tokenId].highestBid = _bid;\n  }\n\n  function setOfferBidFromTokenIdBySender(\n    uint256 _tokenId,\n    uint256 _bid\n  ) public onlyAllowed {\n    offerBidsFromTokenId[_tokenId][msg.sender] = _bid;\n  }\n\n  function pushAddressToTokenId(\n    uint256 tokenId,\n    address bidder\n  ) public onlyAllowed {\n    addressesWithBidsFromTokenId[tokenId].push(bidder);\n  }\n\n  function deleteOffersBidsFromTokenId(\n    uint256 _tokenId,\n    address _address\n  ) public onlyAllowed {\n    delete offerBidsFromTokenId[_tokenId][_address];\n  }\n\n  function deleteAddressFromBiddersByTokenIdAndIndex(\n    uint256 tokenId,\n    uint256 index\n  ) public onlyAllowed {\n    addressesWithBidsFromTokenId[tokenId][index] = addressesWithBidsFromTokenId[\n      tokenId\n    ][addressesWithBidsFromTokenId[tokenId].length - 1];\n    addressesWithBidsFromTokenId[tokenId].pop();\n  }\n\n  function deleteIndexOfOfferBidsFromAddress(\n    uint256 _tokenId,\n    address _address\n  ) public onlyAllowed {\n    delete indexOfOfferBidsFromAddress[_tokenId][_address];\n  }\n\n  function deleteTokenIdFromOffer(uint256 _tokenId) public onlyAllowed {\n    delete tokenIdToOffer[_tokenId];\n  }\n}\n",
  "sourcePath": "/Users/alberto/Desktop/Enalbis/caskchain-mono/apps/contracts/contracts/NftOffers/NftOffersStorage.sol",
  "compiler": {
    "name": "solc",
    "version": "0.8.17+commit.8df45f5f.Emscripten.clang"
  },
  "schemaVersion": "3.4.11",
  "updatedAt": "2023-05-11T11:57:40.352Z",
  "networkType": "ethereum",
  "devdoc": {
    "kind": "dev",
    "methods": {
      "owner()": {
        "details": "Returns the address of the current owner."
      },
      "renounceOwnership()": {
        "details": "Leaves the contract without owner. It will not be possible to call `onlyOwner` functions anymore. Can only be called by the current owner. NOTE: Renouncing ownership will leave the contract without an owner, thereby removing any functionality that is only available to the owner."
      },
      "transferOwnership(address)": {
        "details": "Transfers ownership of the contract to a new account (`newOwner`). Can only be called by the current owner."
      }
    },
    "version": 1
  },
  "userdoc": {
    "kind": "user",
    "methods": {},
    "version": 1
  }
}