{
  "contractName": "NftOffers",
  "abi": [
    {
      "inputs": [
        {
          "internalType": "address",
          "name": "_collection",
          "type": "address"
        },
        {
          "internalType": "address",
          "name": "_nftVendor",
          "type": "address"
        }
      ],
      "stateMutability": "nonpayable",
      "type": "constructor"
    },
    {
      "inputs": [],
      "name": "NotApprovedForMarketplace",
      "type": "error"
    },
    {
      "inputs": [],
      "name": "NotOffers",
      "type": "error"
    },
    {
      "inputs": [],
      "name": "NotOwner",
      "type": "error"
    },
    {
      "anonymous": false,
      "inputs": [
        {
          "indexed": false,
          "internalType": "uint256",
          "name": "tokenId",
          "type": "uint256"
        },
        {
          "indexed": false,
          "internalType": "address",
          "name": "owner",
          "type": "address"
        },
        {
          "indexed": false,
          "internalType": "address",
          "name": "bidder",
          "type": "address"
        },
        {
          "indexed": false,
          "internalType": "uint256",
          "name": "bid",
          "type": "uint256"
        }
      ],
      "name": "AcceptOffer",
      "type": "event"
    },
    {
      "anonymous": false,
      "inputs": [
        {
          "indexed": false,
          "internalType": "uint256",
          "name": "tokenId",
          "type": "uint256"
        },
        {
          "indexed": false,
          "internalType": "address",
          "name": "owner",
          "type": "address"
        },
        {
          "indexed": false,
          "internalType": "address",
          "name": "bidder",
          "type": "address"
        },
        {
          "indexed": false,
          "internalType": "uint256",
          "name": "bid",
          "type": "uint256"
        }
      ],
      "name": "NewOffer",
      "type": "event"
    },
    {
      "anonymous": false,
      "inputs": [
        {
          "indexed": false,
          "internalType": "uint256",
          "name": "tokenId",
          "type": "uint256"
        },
        {
          "indexed": false,
          "internalType": "address",
          "name": "bidder",
          "type": "address"
        },
        {
          "indexed": false,
          "internalType": "uint256",
          "name": "bid",
          "type": "uint256"
        }
      ],
      "name": "RemoveOffer",
      "type": "event"
    },
    {
      "anonymous": false,
      "inputs": [
        {
          "indexed": false,
          "internalType": "uint256",
          "name": "tokenId",
          "type": "uint256"
        },
        {
          "indexed": false,
          "internalType": "address",
          "name": "bidder",
          "type": "address"
        },
        {
          "indexed": false,
          "internalType": "uint256",
          "name": "bid",
          "type": "uint256"
        }
      ],
      "name": "Withdraw",
      "type": "event"
    },
    {
      "inputs": [
        {
          "internalType": "uint256",
          "name": "",
          "type": "uint256"
        },
        {
          "internalType": "uint256",
          "name": "",
          "type": "uint256"
        }
      ],
      "name": "addressesFromTokenId",
      "outputs": [
        {
          "internalType": "address",
          "name": "",
          "type": "address"
        }
      ],
      "stateMutability": "view",
      "type": "function",
      "constant": true
    },
    {
      "inputs": [],
      "name": "collection",
      "outputs": [
        {
          "internalType": "address",
          "name": "",
          "type": "address"
        }
      ],
      "stateMutability": "view",
      "type": "function",
      "constant": true
    },
    {
      "inputs": [
        {
          "internalType": "uint256",
          "name": "",
          "type": "uint256"
        },
        {
          "internalType": "address",
          "name": "",
          "type": "address"
        }
      ],
      "name": "hasBidFromTokenId",
      "outputs": [
        {
          "internalType": "bool",
          "name": "",
          "type": "bool"
        }
      ],
      "stateMutability": "view",
      "type": "function",
      "constant": true
    },
    {
      "inputs": [],
      "name": "nftVendor",
      "outputs": [
        {
          "internalType": "contract NftVendor",
          "name": "",
          "type": "address"
        }
      ],
      "stateMutability": "view",
      "type": "function",
      "constant": true
    },
    {
      "inputs": [
        {
          "internalType": "uint256",
          "name": "",
          "type": "uint256"
        },
        {
          "internalType": "address",
          "name": "",
          "type": "address"
        }
      ],
      "name": "offerBidsFromTokenId",
      "outputs": [
        {
          "internalType": "uint256",
          "name": "",
          "type": "uint256"
        }
      ],
      "stateMutability": "view",
      "type": "function",
      "constant": true
    },
    {
      "inputs": [
        {
          "internalType": "uint256",
          "name": "_tokenId",
          "type": "uint256"
        }
      ],
      "name": "makeOffer",
      "outputs": [],
      "stateMutability": "payable",
      "type": "function",
      "payable": true
    },
    {
      "inputs": [
        {
          "internalType": "uint256",
          "name": "_tokenId",
          "type": "uint256"
        }
      ],
      "name": "getAddressesBids",
      "outputs": [
        {
          "internalType": "address[]",
          "name": "",
          "type": "address[]"
        }
      ],
      "stateMutability": "view",
      "type": "function",
      "constant": true
    },
    {
      "inputs": [
        {
          "internalType": "uint256",
          "name": "_tokenId",
          "type": "uint256"
        }
      ],
      "name": "getNftOffer",
      "outputs": [
        {
          "components": [
            {
              "internalType": "uint256",
              "name": "nftId",
              "type": "uint256"
            },
            {
              "internalType": "address",
              "name": "seller",
              "type": "address"
            },
            {
              "internalType": "uint256",
              "name": "highestBid",
              "type": "uint256"
            },
            {
              "internalType": "address",
              "name": "highestBidder",
              "type": "address"
            }
          ],
          "internalType": "struct NftOffers.Offer",
          "name": "",
          "type": "tuple"
        }
      ],
      "stateMutability": "view",
      "type": "function",
      "constant": true
    },
    {
      "inputs": [
        {
          "internalType": "uint256",
          "name": "_tokenId",
          "type": "uint256"
        }
      ],
      "name": "getCountNftOffers",
      "outputs": [
        {
          "internalType": "uint256",
          "name": "",
          "type": "uint256"
        }
      ],
      "stateMutability": "view",
      "type": "function",
      "constant": true
    },
    {
      "inputs": [
        {
          "internalType": "uint256",
          "name": "_tokenId",
          "type": "uint256"
        }
      ],
      "name": "withdraw",
      "outputs": [
        {
          "internalType": "bool",
          "name": "",
          "type": "bool"
        }
      ],
      "stateMutability": "payable",
      "type": "function",
      "payable": true
    },
    {
      "inputs": [
        {
          "internalType": "uint256",
          "name": "_tokenId",
          "type": "uint256"
        }
      ],
      "name": "acceptOffer",
      "outputs": [],
      "stateMutability": "payable",
      "type": "function",
      "payable": true
    }
  ],
  "bytecode": "0x608060405234801561001057600080fd5b5060405161134438038061134483398101604081905261002f91610081565b6001600081905580546001600160a01b039384166001600160a01b031991821617909155600280549290931691161790556100b4565b80516001600160a01b038116811461007c57600080fd5b919050565b6000806040838503121561009457600080fd5b61009d83610065565b91506100ab60208401610065565b90509250929050565b611281806100c36000396000f3fe60806040526004361061009c5760003560e01c80637de1e536116100645780637de1e536146101af5780639a2f6474146101cf578063a9cebfa9146101e4578063b760f71314610211578063c815729d14610231578063e9cf32a01461024457600080fd5b80632e1a7d4d146100a15780633ac23785146100c95780633e5671ca1461010f5780634405f9811461014a5780634880ba1314610177575b600080fd5b6100b46100af3660046110a8565b610314565b60405190151581526020015b60405180910390f35b3480156100d557600080fd5b506101016100e43660046110d9565b600460209081526000928352604080842090915290825290205481565b6040519081526020016100c0565b34801561011b57600080fd5b506100b461012a3660046110d9565b600760209081526000928352604080842090915290825290205460ff1681565b34801561015657600080fd5b5061016a6101653660046110a8565b6105cf565b6040516100c09190611109565b34801561018357600080fd5b50610197610192366004611156565b61063b565b6040516001600160a01b0390911681526020016100c0565b3480156101bb57600080fd5b50600154610197906001600160a01b031681565b6101e26101dd3660046110a8565b610673565b005b3480156101f057600080fd5b506101016101ff3660046110a8565b60009081526006602052604090205490565b34801561021d57600080fd5b50600254610197906001600160a01b031681565b6101e261023f3660046110a8565b6108a1565b34801561025057600080fd5b506102d261025f3660046110a8565b6040805160808101825260008082526020820181905291810182905260608101919091525060009081526003602081815260409283902083516080810185528154815260018201546001600160a01b03908116938201939093526002820154948101949094529091015416606082015290565b6040516100c09190815181526020808301516001600160a01b039081169183019190915260408084015190830152606092830151169181019190915260800190565b60008181526004602090815260408083203384529091528120546103915760405162461bcd60e51b815260206004820152602960248201527f596f75206d757374206861766520612062696420746f2062652061626c6520746044820152686f207769746472617760b81b60648201526084015b60405180910390fd5b6000828152600460209081526040808320338085529252808320549051909283156108fc02918491818181858888f193505050501580156103d6573d6000803e3d6000fd5b506103e18333610bb8565b60008381526003602081905260409091200154336001600160a01b03909116036105865760008381526003602081905260408220600281018390556001810154910180546001600160a01b0319166001600160a01b039092169190911790555b6000848152600660205260409020548110156105845760008481526003602090815260408083206002015460048352818420600690935290832080549193918590811061049057610490611178565b60009182526020808320909101546001600160a01b031683528201929092526040019020541115610572576000848152600460209081526040808320600690925282208054919291849081106104e8576104e8611178565b60009182526020808320909101546001600160a01b0316835282810193909352604091820181205487825260038452828220600201556006909252902080548290811061053757610537611178565b600091825260208083209091015486835260039182905260409092200180546001600160a01b0319166001600160a01b039092169190911790555b8061057c816111a4565b915050610441565b505b604080518481523360208201529081018290527f9da6493a92039daf47d1f2d7a782299c5994c6323eb1e972f69c432089ec52bf9060600160405180910390a150600192915050565b600081815260066020908152604080832080548251818502810185019093528083526060949383018282801561062e57602002820191906000526020600020905b81546001600160a01b03168152600190910190602001808311610610575b5093979650505050505050565b6006602052816000526040600020818154811061065757600080fd5b6000918252602090912001546001600160a01b03169150829050565b600034116106bc5760405162461bcd60e51b81526020600482015260166024820152754f6666657220707269636520697320746f6f206c6f7760501b6044820152606401610388565b6001546040516331a9108f60e11b8152600481018390526001600160a01b03909116906000908290636352211e90602401602060405180830381865afa15801561070a573d6000803e3d6000fd5b505050506040513d601f19601f8201168201806040525081019061072e91906111bd565b600084815260046020908152604080832033845290915290205490915015610798576000838152600460209081526040808320338085529252808320549051909283156108fc02918491818181858888f19350505050158015610795573d6000803e3d6000fd5b50505b60008381526003602052604081206002015490036107c0576107bb833483610d61565b61084f565b60008381526003602052604090206002015434116108195760405162461bcd60e51b81526020600482015260166024820152754f6666657220707269636520697320746f6f206c6f7760501b6044820152606401610388565b6108238334610de2565b600083815260036020819052604090912090810180546001600160a01b03191633179055346002909101555b604080518481526001600160a01b0383166020820152338183015234606082015290517fd465e4b8dcc4d0ccee59a07ef3fc9f8e9bf8e1c64b331153db12f55363e598c29181900360800190a1505050565b6001546040516331a9108f60e11b815260048101839052829133916001600160a01b03909116906000908290636352211e90602401602060405180830381865afa1580156108f3573d6000803e3d6000fd5b505050506040513d601f19601f8201168201806040525081019061091791906111bd565b9050806001600160a01b0316836001600160a01b03161461094b576040516330cd747160e01b815260040160405180910390fd5b60008581526006602052604081205486910361097a57604051632f3ad84b60e11b815260040160405180910390fd5b60015460405163020604bf60e21b8152600481018890526001600160a01b03909116903090829063081812fc90602401602060405180830381865afa1580156109c7573d6000803e3d6000fd5b505050506040513d601f19601f820116820180604052508101906109eb91906111bd565b6001600160a01b031614610a1257604051634be3a2c560e01b815260040160405180910390fd5b6040516331a9108f60e11b8152600481018890526000906001600160a01b03831690636352211e90602401602060405180830381865afa158015610a5a573d6000803e3d6000fd5b505050506040513d601f19601f82011682018060405250810190610a7e91906111bd565b60008981526003602081905260409091206002810154910154919250906001600160a01b0316610aae8a83610e84565b6040516323b872dd60e01b81523360048201526001600160a01b038281166024830152604482018c90528516906323b872dd90606401600060405180830381600087803b158015610afe57600080fd5b505af1158015610b12573d6000803e3d6000fd5b50505050610b208a82610bb8565b60008a81526003602081815260408084208481556001810180546001600160a01b03199081169091556002820195909555909201805490931690925580518c81526001600160a01b03868116938201939093529183168282015260608201849052517f5a1bb95c9f5b9302c58022867300f1559a08b23eed3c0c42b7ce389a6b5a7c529181900360800190a150505050505050505050565b60008281526004602090815260408083206001600160a01b038516808552908352818420849055858452600583528184209084528252808320548584526006909252822054909190610c0c906001906111e1565b60008581526006602052604081208054929350909183908110610c3157610c31611178565b6000918252602080832091909101548783526005825260408084206001600160a01b039283168086529084528185208890559188168452808420849055888452600690925291208054919250829185908110610c8f57610c8f611178565b600091825260208083209190910180546001600160a01b0319166001600160a01b039490941693909317909255868152600690915260409020805480610cd757610cd76111fa565b60008281526020808220830160001990810180546001600160a01b0319169055929092019092558682526007815260408083203380855290835292819020805460ff19169055805188815291820192909252348183015290517f7edef3ff69fe27df6ec60fbe1a8b87f98343758660364ecca467b7b79b70a2139181900360600190a15050505050565b610d6b8383610de2565b604080516080810182528481526001600160a01b039283166020808301918252828401958652336060840190815260009788526003918290529390962091518255516001820180549185166001600160a01b0319928316179055935160028201559051930180549390911692909116919091179055565b6000828152600460209081526040808320338085529083528184208590558584526007835281842090845290915290205460ff16610e80576000828152600660209081526040808320805460058452828520338087529085528386208290556001808301845592865284862090910180546001600160a01b0319168217905586855260078452828520908552909252909120805460ff191690911790555b5050565b60015460025460408051631a7a0a7f60e01b815290516001600160a01b03938416936000938493911691631a7a0a7f916004808201926020929091908290030181865afa158015610ed9573d6000803e3d6000fd5b505050506040513d601f19601f82011682018060405250810190610efd9190611210565b60405163e462266360e01b81526004810187905290915033906000906001600160a01b0386169063e462266390602401602060405180830381865afa158015610f4a573d6000803e3d6000fd5b505050506040513d601f19601f82011682018060405250810190610f6e91906111bd565b60025460405163654e609160e01b8152600481018a9052602481018990529192506001600160a01b03169063654e609190604401602060405180830381865afa158015610fbf573d6000803e3d6000fd5b505050506040513d601f19601f82011682018060405250810190610fe39190611232565b93508215611027576040516001600160a01b0383169087156108fc029088906000818181858888f19350505050158015611021573d6000803e3d6000fd5b5061109f565b6040516001600160a01b0382169085156108fc029086906000818181858888f1935050505015801561105d573d6000803e3d6000fd5b506001600160a01b0382166108fc61107586896111e1565b6040518115909202916000818181858888f1935050505015801561109d573d6000803e3d6000fd5b505b50505050505050565b6000602082840312156110ba57600080fd5b5035919050565b6001600160a01b03811681146110d657600080fd5b50565b600080604083850312156110ec57600080fd5b8235915060208301356110fe816110c1565b809150509250929050565b6020808252825182820181905260009190848201906040850190845b8181101561114a5783516001600160a01b031683529284019291840191600101611125565b50909695505050505050565b6000806040838503121561116957600080fd5b50508035926020909101359150565b634e487b7160e01b600052603260045260246000fd5b634e487b7160e01b600052601160045260246000fd5b6000600182016111b6576111b661118e565b5060010190565b6000602082840312156111cf57600080fd5b81516111da816110c1565b9392505050565b818103818111156111f4576111f461118e565b92915050565b634e487b7160e01b600052603160045260246000fd5b60006020828403121561122257600080fd5b815180151581146111da57600080fd5b60006020828403121561124457600080fd5b505191905056fea2646970667358221220942a20ac80db4b4917479f48f9a4e97e90ac66c8f2eb00b39c167788251ef9c264736f6c63430008110033",
  "immutableReferences": {},
  "source": "// SPDX-License-Identifier: MIT\npragma solidity ^0.8.7;\n\nimport \"@openzeppelin/contracts/token/ERC721/IERC721.sol\";\nimport \"@openzeppelin/contracts/security/ReentrancyGuard.sol\";\nimport \"@openzeppelin/contracts/token/common/ERC2981.sol\";\nimport \"@openzeppelin/contracts/utils/Counters.sol\";\nimport \"./NftVendor.sol\";\nimport \"./CCNft.sol\";\n\n// Check out https://github.com/Fantom-foundation/Artion-Contracts/blob/5c90d2bc0401af6fb5abf35b860b762b31dfee02/contracts/FantomMarketplace.sol\n// For a full decentralized nft marketplace\n\n// Error thrown for isNotOwner modifier\n// error IsNotOwner()\nerror NotOffers();\n\ncontract NftOffers is ReentrancyGuard {\n  struct Offer {\n    // Current owner of NFT\n    uint256 nftId;\n    address seller;\n    uint highestBid;\n    address highestBidder;\n  }\n\n  address public collection;\n  NftVendor public nftVendor;\n\n  // Map from token ID to their corresponding auction.\n  mapping(uint256 => Offer) tokenIdToOffer;\n  // NFT Id => Account Address => Bid\n  mapping(uint256 => mapping(address => uint256)) public offerBidsFromTokenId;\n  // NFT Id => Account Address => Index\n  mapping(uint256 => mapping(address => uint256)) indexOfofferBidsFromAddress;\n  // NFT Id => Address[]\n  mapping(uint256 => address[]) public addressesFromTokenId;\n  // NFT Id => Address => bool\n  mapping(uint256 => mapping(address => bool)) public hasBidFromTokenId;\n\n  modifier hasOffers(uint256 tokenId) {\n    if (addressesFromTokenId[tokenId].length == 0) {\n      revert NotOffers();\n    }\n    _;\n  }\n\n  modifier isOwner(uint256 tokenId, address spender) {\n    IERC721 nft = IERC721(collection);\n    address owner = nft.ownerOf(tokenId);\n    if (spender != owner) {\n      revert NotOwner();\n    }\n    _;\n  }\n\n  event NewOffer(uint256 tokenId, address owner, address bidder, uint256 bid);\n  event RemoveOffer(uint256 tokenId, address bidder, uint256 bid);\n  event Withdraw(uint256 tokenId, address bidder, uint256 bid);\n  event AcceptOffer(\n    uint256 tokenId,\n    address owner,\n    address bidder,\n    uint256 bid\n  );\n\n  constructor(address _collection, address _nftVendor) {\n    collection = _collection;\n    nftVendor = NftVendor(_nftVendor);\n  }\n\n  function makeOffer(uint256 _tokenId) public payable {\n    // Ensure that the buyer is making a valid offer\n\n    require(msg.value > 0, \"Offer price is too low\");\n\n    IERC721 nft = IERC721(collection);\n    address owner = nft.ownerOf(_tokenId);\n\n    if (offerBidsFromTokenId[_tokenId][msg.sender] > 0) {\n      uint amount = offerBidsFromTokenId[_tokenId][msg.sender];\n      payable(msg.sender).transfer(amount);\n    }\n\n    // No offers made\n    if (tokenIdToOffer[_tokenId].highestBid == 0) {\n      _createNftOffer(_tokenId, msg.value, owner);\n    } else {\n      require(\n        msg.value > tokenIdToOffer[_tokenId].highestBid,\n        \"Offer price is too low\"\n      );\n      _setOffer(_tokenId, msg.value);\n      tokenIdToOffer[_tokenId].highestBidder = msg.sender;\n      tokenIdToOffer[_tokenId].highestBid = msg.value;\n    }\n\n    emit NewOffer(_tokenId, owner, msg.sender, msg.value);\n  }\n\n  function getAddressesBids(\n    uint256 _tokenId\n  ) public view returns (address[] memory) {\n    address[] memory bidders = addressesFromTokenId[_tokenId];\n    return bidders;\n  }\n\n  function getNftOffer(uint256 _tokenId) public view returns (Offer memory) {\n    Offer memory offer = tokenIdToOffer[_tokenId];\n    return offer;\n  }\n\n  function getCountNftOffers(uint256 _tokenId) public view returns (uint256) {\n    return addressesFromTokenId[_tokenId].length;\n  }\n\n  function withdraw(uint256 _tokenId) external payable returns (bool) {\n    require(\n      offerBidsFromTokenId[_tokenId][msg.sender] > 0,\n      \"You must have a bid to be able to witdraw\"\n    );\n\n    uint amount = offerBidsFromTokenId[_tokenId][msg.sender];\n    payable(msg.sender).transfer(amount);\n\n    _removeOffer(_tokenId, msg.sender);\n\n    if (tokenIdToOffer[_tokenId].highestBidder == msg.sender) {\n      tokenIdToOffer[_tokenId].highestBid = 0;\n      tokenIdToOffer[_tokenId].highestBidder = tokenIdToOffer[_tokenId].seller;\n      for (uint i = 0; i < addressesFromTokenId[_tokenId].length; i++) {\n        if (\n          offerBidsFromTokenId[_tokenId][addressesFromTokenId[_tokenId][i]] >\n          tokenIdToOffer[_tokenId].highestBid\n        ) {\n          tokenIdToOffer[_tokenId].highestBid = offerBidsFromTokenId[_tokenId][\n            addressesFromTokenId[_tokenId][i]\n          ];\n          tokenIdToOffer[_tokenId].highestBidder = addressesFromTokenId[\n            _tokenId\n          ][i];\n        }\n      }\n    }\n\n    emit Withdraw(_tokenId, msg.sender, amount);\n\n    return true;\n  }\n\n  function payRoyaltiesAndTransfer(\n    uint256 _tokenId,\n    uint256 highestBid\n  ) private {\n    CCNft nft = CCNft(collection);\n    uint256 royalty;\n\n    bool excluded = nftVendor.isExcluded();\n    address payable seller = payable(msg.sender);\n    address payable creator = payable(nft.getNftCreator(_tokenId));\n\n    royalty = nftVendor.calculateRoyaltyForAcceptedOffer(_tokenId, highestBid);\n\n    if (excluded) {\n      seller.transfer(highestBid);\n    } else {\n      creator.transfer(royalty);\n      seller.transfer(highestBid - royalty);\n    }\n  }\n\n  function acceptOffer(\n    uint256 _tokenId\n  ) public payable isOwner(_tokenId, msg.sender) hasOffers(_tokenId) {\n    CCNft nft = CCNft(collection);\n    if (nft.getApproved(_tokenId) != address(this)) {\n      revert NotApprovedForMarketplace();\n    }\n    address owner = nft.ownerOf(_tokenId);\n    uint256 highestBid = tokenIdToOffer[_tokenId].highestBid;\n    address highestBidder = tokenIdToOffer[_tokenId].highestBidder;\n\n    payRoyaltiesAndTransfer(_tokenId, highestBid);\n\n    nft.transferFrom(msg.sender, highestBidder, _tokenId);\n\n    _removeOffer(_tokenId, highestBidder);\n    delete tokenIdToOffer[_tokenId];\n\n    emit AcceptOffer(_tokenId, owner, highestBidder, highestBid);\n  }\n\n  function _createNftOffer(\n    uint256 _tokenId,\n    uint256 _nftPrice,\n    address _seller\n  ) private {\n    // Sanity check that no inputs overflow how many bits we've allocated\n    // to store them in the auction struct.\n\n    _setOffer(_tokenId, _nftPrice);\n\n    Offer memory offer = Offer(_tokenId, _seller, _nftPrice, msg.sender);\n\n    _addAuction(_tokenId, offer);\n  }\n\n  function _removeOffer(uint256 _tokenId, address bidder) internal {\n    delete offerBidsFromTokenId[_tokenId][bidder];\n\n    uint index = indexOfofferBidsFromAddress[_tokenId][bidder];\n    uint lastIndex = addressesFromTokenId[_tokenId].length - 1;\n    address lastBidder = addressesFromTokenId[_tokenId][lastIndex];\n\n    indexOfofferBidsFromAddress[_tokenId][lastBidder] = index;\n    delete indexOfofferBidsFromAddress[_tokenId][bidder];\n\n    addressesFromTokenId[_tokenId][index] = lastBidder;\n    addressesFromTokenId[_tokenId].pop();\n    hasBidFromTokenId[_tokenId][msg.sender] = false;\n\n    emit RemoveOffer(_tokenId, msg.sender, msg.value);\n  }\n\n  function _addAuction(uint256 _tokenId, Offer memory _offer) internal {\n    tokenIdToOffer[_tokenId] = _offer;\n  }\n\n  function _setOffer(uint256 _tokenId, uint256 offer) private {\n    offerBidsFromTokenId[_tokenId][msg.sender] = offer;\n    if (!hasBidFromTokenId[_tokenId][msg.sender]) {\n      indexOfofferBidsFromAddress[_tokenId][msg.sender] = addressesFromTokenId[\n        _tokenId\n      ].length;\n      addressesFromTokenId[_tokenId].push(msg.sender);\n      hasBidFromTokenId[_tokenId][msg.sender] = true;\n    }\n  }\n}\n",
  "sourcePath": "/Users/alberto/Desktop/Enalbis/caskchain-mono/apps/contracts/contracts/NftOffers.sol",
  "compiler": {
    "name": "solc",
    "version": "0.8.17+commit.8df45f5f.Emscripten.clang"
  },
  "schemaVersion": "3.4.11",
  "updatedAt": "2023-03-31T09:57:38.524Z",
  "networkType": "ethereum",
  "devdoc": {
    "kind": "dev",
    "methods": {},
    "version": 1
  },
  "userdoc": {
    "kind": "user",
    "methods": {},
    "version": 1
  }
}