{
  "contractName": "NftVendor",
  "abi": [
    {
      "inputs": [
        {
          "internalType": "address",
          "name": "nftAddress",
          "type": "address"
        },
        {
          "internalType": "uint256",
          "name": "tokenId",
          "type": "uint256"
        }
      ],
      "name": "AlreadyListed",
      "type": "error"
    },
    {
      "inputs": [],
      "name": "IsNotOwner",
      "type": "error"
    },
    {
      "inputs": [],
      "name": "NoProceeds",
      "type": "error"
    },
    {
      "inputs": [
        {
          "internalType": "address",
          "name": "nftAddress",
          "type": "address"
        },
        {
          "internalType": "uint256",
          "name": "tokenId",
          "type": "uint256"
        }
      ],
      "name": "NotListed",
      "type": "error"
    },
    {
      "inputs": [],
      "name": "NotOwner",
      "type": "error"
    },
    {
      "anonymous": false,
      "inputs": [
        {
          "indexed": false,
          "internalType": "address",
          "name": "previousAdmin",
          "type": "address"
        },
        {
          "indexed": false,
          "internalType": "address",
          "name": "newAdmin",
          "type": "address"
        }
      ],
      "name": "AdminChanged",
      "type": "event"
    },
    {
      "anonymous": false,
      "inputs": [
        {
          "indexed": true,
          "internalType": "address",
          "name": "beacon",
          "type": "address"
        }
      ],
      "name": "BeaconUpgraded",
      "type": "event"
    },
    {
      "anonymous": false,
      "inputs": [
        {
          "indexed": false,
          "internalType": "uint8",
          "name": "version",
          "type": "uint8"
        }
      ],
      "name": "Initialized",
      "type": "event"
    },
    {
      "anonymous": false,
      "inputs": [
        {
          "indexed": true,
          "internalType": "address",
          "name": "to",
          "type": "address"
        },
        {
          "indexed": true,
          "internalType": "address",
          "name": "from",
          "type": "address"
        },
        {
          "indexed": true,
          "internalType": "uint256",
          "name": "tokenId",
          "type": "uint256"
        },
        {
          "indexed": false,
          "internalType": "bool",
          "name": "isERC20",
          "type": "bool"
        },
        {
          "indexed": false,
          "internalType": "uint256",
          "name": "price",
          "type": "uint256"
        }
      ],
      "name": "ItemBought",
      "type": "event"
    },
    {
      "anonymous": false,
      "inputs": [
        {
          "indexed": true,
          "internalType": "address",
          "name": "from",
          "type": "address"
        },
        {
          "indexed": true,
          "internalType": "address",
          "name": "nftAddress",
          "type": "address"
        },
        {
          "indexed": true,
          "internalType": "uint256",
          "name": "tokenId",
          "type": "uint256"
        }
      ],
      "name": "ItemCanceled",
      "type": "event"
    },
    {
      "anonymous": false,
      "inputs": [
        {
          "indexed": true,
          "internalType": "address",
          "name": "from",
          "type": "address"
        },
        {
          "indexed": true,
          "internalType": "address",
          "name": "nftAddress",
          "type": "address"
        },
        {
          "indexed": true,
          "internalType": "uint256",
          "name": "tokenId",
          "type": "uint256"
        },
        {
          "indexed": false,
          "internalType": "uint256",
          "name": "price",
          "type": "uint256"
        }
      ],
      "name": "ItemListed",
      "type": "event"
    },
    {
      "anonymous": false,
      "inputs": [
        {
          "indexed": true,
          "internalType": "address",
          "name": "from",
          "type": "address"
        },
        {
          "indexed": true,
          "internalType": "address",
          "name": "nftAddress",
          "type": "address"
        },
        {
          "indexed": true,
          "internalType": "uint256",
          "name": "tokenId",
          "type": "uint256"
        },
        {
          "indexed": false,
          "internalType": "uint256",
          "name": "price",
          "type": "uint256"
        }
      ],
      "name": "ItemPiceUpdated",
      "type": "event"
    },
    {
      "anonymous": false,
      "inputs": [
        {
          "indexed": true,
          "internalType": "address",
          "name": "from",
          "type": "address"
        },
        {
          "indexed": true,
          "internalType": "address",
          "name": "nftAddress",
          "type": "address"
        },
        {
          "indexed": true,
          "internalType": "uint256",
          "name": "tokenId",
          "type": "uint256"
        },
        {
          "indexed": false,
          "internalType": "bool",
          "name": "state",
          "type": "bool"
        }
      ],
      "name": "ItemSaleStateUpdated",
      "type": "event"
    },
    {
      "anonymous": false,
      "inputs": [
        {
          "indexed": true,
          "internalType": "address",
          "name": "from",
          "type": "address"
        },
        {
          "indexed": true,
          "internalType": "address",
          "name": "nftAddress",
          "type": "address"
        },
        {
          "indexed": true,
          "internalType": "uint256",
          "name": "tokenId",
          "type": "uint256"
        },
        {
          "indexed": false,
          "internalType": "address",
          "name": "erc20Token",
          "type": "address"
        },
        {
          "indexed": false,
          "internalType": "uint256",
          "name": "price",
          "type": "uint256"
        }
      ],
      "name": "NftStableCoinPriceUpdated",
      "type": "event"
    },
    {
      "anonymous": false,
      "inputs": [
        {
          "indexed": true,
          "internalType": "address",
          "name": "previousOwner",
          "type": "address"
        },
        {
          "indexed": true,
          "internalType": "address",
          "name": "newOwner",
          "type": "address"
        }
      ],
      "name": "OwnershipTransferred",
      "type": "event"
    },
    {
      "anonymous": false,
      "inputs": [
        {
          "indexed": true,
          "internalType": "uint256",
          "name": "tokenId",
          "type": "uint256"
        },
        {
          "indexed": false,
          "internalType": "uint256",
          "name": "royalty",
          "type": "uint256"
        },
        {
          "indexed": false,
          "internalType": "bool",
          "name": "isERC20",
          "type": "bool"
        }
      ],
      "name": "TxFeePaid",
      "type": "event"
    },
    {
      "anonymous": false,
      "inputs": [
        {
          "indexed": true,
          "internalType": "address",
          "name": "implementation",
          "type": "address"
        }
      ],
      "name": "Upgraded",
      "type": "event"
    },
    {
      "inputs": [],
      "name": "collection",
      "outputs": [
        {
          "internalType": "address",
          "name": "",
          "type": "address"
        }
      ],
      "stateMutability": "view",
      "type": "function",
      "constant": true
    },
    {
      "inputs": [],
      "name": "creator",
      "outputs": [
        {
          "internalType": "address",
          "name": "",
          "type": "address"
        }
      ],
      "stateMutability": "view",
      "type": "function",
      "constant": true
    },
    {
      "inputs": [],
      "name": "oracle",
      "outputs": [
        {
          "internalType": "contract PriceOracle",
          "name": "",
          "type": "address"
        }
      ],
      "stateMutability": "view",
      "type": "function",
      "constant": true
    },
    {
      "inputs": [],
      "name": "owner",
      "outputs": [
        {
          "internalType": "address",
          "name": "",
          "type": "address"
        }
      ],
      "stateMutability": "view",
      "type": "function",
      "constant": true
    },
    {
      "inputs": [],
      "name": "proxiableUUID",
      "outputs": [
        {
          "internalType": "bytes32",
          "name": "",
          "type": "bytes32"
        }
      ],
      "stateMutability": "view",
      "type": "function",
      "constant": true
    },
    {
      "inputs": [],
      "name": "renounceOwnership",
      "outputs": [],
      "stateMutability": "nonpayable",
      "type": "function"
    },
    {
      "inputs": [
        {
          "internalType": "uint256",
          "name": "_tokenId",
          "type": "uint256"
        },
        {
          "internalType": "uint256",
          "name": "_salePrice",
          "type": "uint256"
        }
      ],
      "name": "royaltyInfo",
      "outputs": [
        {
          "internalType": "address",
          "name": "",
          "type": "address"
        },
        {
          "internalType": "uint256",
          "name": "",
          "type": "uint256"
        }
      ],
      "stateMutability": "view",
      "type": "function",
      "constant": true
    },
    {
      "inputs": [
        {
          "internalType": "bytes4",
          "name": "interfaceId",
          "type": "bytes4"
        }
      ],
      "name": "supportsInterface",
      "outputs": [
        {
          "internalType": "bool",
          "name": "",
          "type": "bool"
        }
      ],
      "stateMutability": "view",
      "type": "function",
      "constant": true
    },
    {
      "inputs": [
        {
          "internalType": "address",
          "name": "newOwner",
          "type": "address"
        }
      ],
      "name": "transferOwnership",
      "outputs": [],
      "stateMutability": "nonpayable",
      "type": "function"
    },
    {
      "inputs": [
        {
          "internalType": "address",
          "name": "newImplementation",
          "type": "address"
        }
      ],
      "name": "upgradeTo",
      "outputs": [],
      "stateMutability": "nonpayable",
      "type": "function"
    },
    {
      "inputs": [
        {
          "internalType": "address",
          "name": "newImplementation",
          "type": "address"
        },
        {
          "internalType": "bytes",
          "name": "data",
          "type": "bytes"
        }
      ],
      "name": "upgradeToAndCall",
      "outputs": [],
      "stateMutability": "payable",
      "type": "function",
      "payable": true
    },
    {
      "inputs": [
        {
          "internalType": "address",
          "name": "_collection",
          "type": "address"
        },
        {
          "internalType": "address",
          "name": "_creator",
          "type": "address"
        },
        {
          "internalType": "address",
          "name": "_storageAddress",
          "type": "address"
        },
        {
          "internalType": "address",
          "name": "_oracleAddress",
          "type": "address"
        }
      ],
      "name": "initialize",
      "outputs": [],
      "stateMutability": "nonpayable",
      "type": "function"
    },
    {
      "inputs": [],
      "name": "getIsExcluded",
      "outputs": [
        {
          "internalType": "bool",
          "name": "",
          "type": "bool"
        }
      ],
      "stateMutability": "view",
      "type": "function",
      "constant": true
    },
    {
      "inputs": [
        {
          "internalType": "uint256",
          "name": "tokenId",
          "type": "uint256"
        }
      ],
      "name": "getIsOwnerSameAsCreator",
      "outputs": [
        {
          "internalType": "bool",
          "name": "",
          "type": "bool"
        }
      ],
      "stateMutability": "view",
      "type": "function",
      "constant": true
    },
    {
      "inputs": [
        {
          "internalType": "address",
          "name": "tokenAddress",
          "type": "address"
        },
        {
          "internalType": "uint256",
          "name": "tokenId",
          "type": "uint256"
        }
      ],
      "name": "getPriceByToken",
      "outputs": [
        {
          "internalType": "uint256",
          "name": "",
          "type": "uint256"
        }
      ],
      "stateMutability": "view",
      "type": "function",
      "constant": true
    },
    {
      "inputs": [
        {
          "internalType": "uint256",
          "name": "_tokenId",
          "type": "uint256"
        }
      ],
      "name": "getListing",
      "outputs": [
        {
          "components": [
            {
              "internalType": "uint256",
              "name": "tokenId",
              "type": "uint256"
            },
            {
              "internalType": "uint256",
              "name": "price",
              "type": "uint256"
            },
            {
              "internalType": "address",
              "name": "seller",
              "type": "address"
            },
            {
              "internalType": "bool",
              "name": "active",
              "type": "bool"
            }
          ],
          "internalType": "struct INftVendorStorage.Listing",
          "name": "",
          "type": "tuple"
        }
      ],
      "stateMutability": "view",
      "type": "function",
      "constant": true
    },
    {
      "inputs": [],
      "name": "getAllListedNFTs",
      "outputs": [
        {
          "components": [
            {
              "internalType": "uint256",
              "name": "tokenId",
              "type": "uint256"
            },
            {
              "internalType": "uint256",
              "name": "price",
              "type": "uint256"
            },
            {
              "internalType": "address",
              "name": "seller",
              "type": "address"
            },
            {
              "internalType": "bool",
              "name": "active",
              "type": "bool"
            }
          ],
          "internalType": "struct INftVendorStorage.Listing[]",
          "name": "",
          "type": "tuple[]"
        }
      ],
      "stateMutability": "view",
      "type": "function",
      "constant": true
    },
    {
      "inputs": [
        {
          "internalType": "uint256",
          "name": "_tokenId",
          "type": "uint256"
        }
      ],
      "name": "getRoyalty",
      "outputs": [
        {
          "internalType": "uint256",
          "name": "",
          "type": "uint256"
        }
      ],
      "stateMutability": "view",
      "type": "function",
      "constant": true
    },
    {
      "inputs": [
        {
          "internalType": "uint256",
          "name": "tokenId",
          "type": "uint256"
        },
        {
          "internalType": "uint256",
          "name": "royaltyAmount",
          "type": "uint256"
        },
        {
          "internalType": "bool",
          "name": "isERC20",
          "type": "bool"
        }
      ],
      "name": "emitTxFee",
      "outputs": [],
      "stateMutability": "nonpayable",
      "type": "function"
    },
    {
      "inputs": [
        {
          "internalType": "uint256",
          "name": "tokenId",
          "type": "uint256"
        },
        {
          "internalType": "uint256",
          "name": "price",
          "type": "uint256"
        },
        {
          "internalType": "bool",
          "name": "activeSell",
          "type": "bool"
        }
      ],
      "name": "listItem",
      "outputs": [],
      "stateMutability": "nonpayable",
      "type": "function"
    },
    {
      "inputs": [
        {
          "internalType": "uint256",
          "name": "_tokenId",
          "type": "uint256"
        },
        {
          "internalType": "bool",
          "name": "state",
          "type": "bool"
        }
      ],
      "name": "updateStateForSale",
      "outputs": [],
      "stateMutability": "nonpayable",
      "type": "function"
    },
    {
      "inputs": [
        {
          "internalType": "uint256",
          "name": "tokenId",
          "type": "uint256"
        }
      ],
      "name": "cancelListing",
      "outputs": [],
      "stateMutability": "nonpayable",
      "type": "function"
    },
    {
      "inputs": [
        {
          "internalType": "uint256",
          "name": "tokenId",
          "type": "uint256"
        }
      ],
      "name": "buyItem",
      "outputs": [],
      "stateMutability": "payable",
      "type": "function",
      "payable": true
    },
    {
      "inputs": [
        {
          "internalType": "uint256",
          "name": "tokenId",
          "type": "uint256"
        },
        {
          "internalType": "address",
          "name": "erc20Token",
          "type": "address"
        }
      ],
      "name": "buyNFTWithStableCoin",
      "outputs": [],
      "stateMutability": "nonpayable",
      "type": "function"
    },
    {
      "inputs": [
        {
          "internalType": "uint256",
          "name": "tokenId",
          "type": "uint256"
        },
        {
          "internalType": "uint256",
          "name": "newPrice",
          "type": "uint256"
        }
      ],
      "name": "updateListingPrice",
      "outputs": [],
      "stateMutability": "nonpayable",
      "type": "function"
    },
    {
      "inputs": [
        {
          "internalType": "address",
          "name": "erc20Token",
          "type": "address"
        }
      ],
      "name": "withdrawERC20",
      "outputs": [],
      "stateMutability": "nonpayable",
      "type": "function"
    },
    {
      "inputs": [],
      "name": "withdrawProceeds",
      "outputs": [],
      "stateMutability": "nonpayable",
      "type": "function"
    },
    {
      "inputs": [],
      "name": "totalSupply",
      "outputs": [
        {
          "internalType": "uint256",
          "name": "",
          "type": "uint256"
        }
      ],
      "stateMutability": "view",
      "type": "function",
      "constant": true
    },
    {
      "inputs": [
        {
          "internalType": "uint256",
          "name": "index",
          "type": "uint256"
        }
      ],
      "name": "tokenByIndex",
      "outputs": [
        {
          "internalType": "uint256",
          "name": "",
          "type": "uint256"
        }
      ],
      "stateMutability": "view",
      "type": "function",
      "constant": true
    },
    {
      "inputs": [
        {
          "internalType": "address",
          "name": "_address",
          "type": "address"
        },
        {
          "internalType": "bool",
          "name": "_excluded",
          "type": "bool"
        }
      ],
      "name": "setExcludedFromList",
      "outputs": [],
      "stateMutability": "nonpayable",
      "type": "function"
    },
    {
      "inputs": [
        {
          "internalType": "address",
          "name": "erc20Token",
          "type": "address"
        }
      ],
      "name": "addERC20Token",
      "outputs": [],
      "stateMutability": "nonpayable",
      "type": "function"
    },
    {
      "inputs": [
        {
          "internalType": "address",
          "name": "erc20Token",
          "type": "address"
        }
      ],
      "name": "removeERC20Token",
      "outputs": [],
      "stateMutability": "nonpayable",
      "type": "function"
    },
    {
      "inputs": [
        {
          "internalType": "uint256",
          "name": "tokenId",
          "type": "uint256"
        },
        {
          "internalType": "address",
          "name": "erc20Token",
          "type": "address"
        },
        {
          "internalType": "uint256",
          "name": "price",
          "type": "uint256"
        }
      ],
      "name": "updateERC20TokenPrice",
      "outputs": [],
      "stateMutability": "nonpayable",
      "type": "function"
    },
    {
      "inputs": [
        {
          "internalType": "uint256",
          "name": "_tokenId",
          "type": "uint256"
        },
        {
          "internalType": "uint256",
          "name": "_highestBid",
          "type": "uint256"
        }
      ],
      "name": "calculateRoyaltyForAcceptedOffer",
      "outputs": [
        {
          "internalType": "uint256",
          "name": "",
          "type": "uint256"
        }
      ],
      "stateMutability": "view",
      "type": "function",
      "constant": true
    },
    {
      "inputs": [
        {
          "internalType": "uint256",
          "name": "tokenId",
          "type": "uint256"
        },
        {
          "internalType": "uint256",
          "name": "royalty",
          "type": "uint256"
        }
      ],
      "name": "_payTxFee",
      "outputs": [],
      "stateMutability": "nonpayable",
      "type": "function"
    }
  ],
  "bytecode": "0x60a06040523060805234801561001457600080fd5b50608051613b6261004c60003960008181610e3101528181610e71015281816114460152818161148601526115d50152613b626000f3fe6080604052600436106102045760003560e01c8063608403b911610118578063b6f26115116100a0578063ccb1fb441161006f578063ccb1fb44146105e0578063e7fb74c714610600578063f2fde38b14610613578063f4f3b20014610633578063f8c8765e1461065357600080fd5b8063b6f2611514610560578063bc079b9914610580578063c4604943146105a0578063ca9ff922146105c057600080fd5b80637dc0d1d0116100e75780637dc0d1d0146104cb5780637de1e536146104ec5780638da5cb5b1461050d5780639038e6931461052b578063971ccc161461054057600080fd5b8063608403b914610456578063654e60911461047657806369396f0c14610496578063715018a6146104b657600080fd5b8063305a67a81161019b5780634f1ef2861161016a5780634f1ef286146103ce5780634f6ccce7146103e157806352d1902d1461040157806358c1d7fe146104165780635deba0e41461043657600080fd5b8063305a67a81461034c5780633659cfe61461036c5780634b58ffaa1461038c5780634e9b0696146103ae57600080fd5b806318160ddd116101d757806318160ddd146102c65780631af9cf49146102e95780632a55205a146103095780632fa8f9241461033757600080fd5b806301ffc9a71461020957806302d05d3f1461023e5780630d3cc2f914610277578063107a274a14610299575b600080fd5b34801561021557600080fd5b506102296102243660046133f2565b610673565b60405190151581526020015b60405180910390f35b34801561024a57600080fd5b506101615461025f906001600160a01b031681565b6040516001600160a01b039091168152602001610235565b34801561028357600080fd5b50610297610292366004613431565b6106aa565b005b3480156102a557600080fd5b506102b96102b4366004613461565b61098a565b604051610235919061347a565b3480156102d257600080fd5b506102db610a18565b604051908152602001610235565b3480156102f557600080fd5b506102db610304366004613461565b610a8c565b34801561031557600080fd5b506103296103243660046134b0565b610ab3565b6040516102359291906134d2565b34801561034357600080fd5b50610229610b5f565b34801561035857600080fd5b50610297610367366004613461565b610bce565b34801561037857600080fd5b506102976103873660046134eb565b610e27565b34801561039857600080fd5b506103a1610f06565b6040516102359190613508565b3480156103ba57600080fd5b506102976103c936600461358d565b6110df565b6102976103dc36600461360d565b61143c565b3480156103ed57600080fd5b506102db6103fc366004613461565b61150c565b34801561040d57600080fd5b506102db6115c8565b34801561042257600080fd5b506102db6104313660046136b5565b61167b565b34801561044257600080fd5b506102976104513660046136e1565b6116f7565b34801561046257600080fd5b506102976104713660046134b0565b61176b565b34801561048257600080fd5b506102db6104913660046134b0565b61180d565b3480156104a257600080fd5b506102976104b136600461370f565b61181a565b3480156104c257600080fd5b50610297611a23565b3480156104d757600080fd5b506101625461025f906001600160a01b031681565b3480156104f857600080fd5b506101605461025f906001600160a01b031681565b34801561051957600080fd5b5060c9546001600160a01b031661025f565b34801561053757600080fd5b50610297611a37565b34801561054c57600080fd5b5061029761055b3660046134eb565b611bbb565b34801561056c57600080fd5b5061029761057b36600461358d565b611c8e565b34801561058c57600080fd5b5061029761059b366004613747565b611cc7565b3480156105ac57600080fd5b506102976105bb3660046134b0565b611ec9565b3480156105cc57600080fd5b506102976105db3660046134eb565b6121d8565b3480156105ec57600080fd5b506102296105fb366004613461565b61221a565b61029761060e366004613461565b6122a6565b34801561061f57600080fd5b5061029761062e3660046134eb565b61278f565b34801561063f57600080fd5b5061029761064e3660046134eb565b612805565b34801561065f57600080fd5b5061029761066e36600461376c565b6128f2565b60006001600160e01b0319821663152a902d60e11b14806106a457506301ffc9a760e01b6001600160e01b03198316145b92915050565b61015f5460405163083d13a560e11b81526004810184905283916000916001600160a01b039091169063107a274a90602401608060405180830381865afa1580156106f9573d6000803e3d6000fd5b505050506040513d601f19601f8201168201806040525081019061071d91906137c8565b9050600081602001511161075d5761016054604051631a0c522360e21b8152610754916001600160a01b03169084906004016134d2565b60405180910390fd5b610160546040516331a9108f60e11b815260048101869052859133916001600160a01b03909116906000908290636352211e90602401602060405180830381865afa1580156107b0573d6000803e3d6000fd5b505050506040513d601f19601f820116820180604052508101906107d4919061383d565b9050806001600160a01b0316836001600160a01b031603610808576040516365b023fd60e01b815260040160405180910390fd5b610810612a68565b600061081c888a612ac1565b9050600061082b898b84612ad6565b604051636eb1769f60e11b8152336004820152306024820152909150899083906001600160a01b0383169063dd62ed3e90604401602060405180830381865afa15801561087c573d6000803e3d6000fd5b505050506040513d601f19601f820116820180604052508101906108a0919061385a565b10156108ee5760405162461bcd60e51b815260206004820152601760248201527f496e73756666696369656e7420616c6c6f77616e63652e0000000000000000006044820152606401610754565b60006108f98c61098a565b905061090b8b85858460400151612b8d565b61091a8c826040015133612c4d565b60408101518c906001600160a01b0316337f933fd70bdd191afd6196d0d8891f71c2e4ab02e1d296c7af48e8b99fac9df40b6001610958888a613889565b60408051921515835260208301919091520160405180910390a4505050506109806001606555565b5050505050505050565b60408051608081018252600080825260208201819052818301819052606082015261015f54915163083d13a560e11b81526004810184905290916001600160a01b03169063107a274a90602401608060405180830381865afa1580156109f4573d6000803e3d6000fd5b505050506040513d601f19601f820116820180604052508101906106a491906137c8565b61015f54604080516359cba24960e11b815290516000926001600160a01b03169163b39744929160048083019260209291908290030181865afa158015610a63573d6000803e3d6000fd5b505050506040513d601f19601f82011682018060405250810190610a87919061385a565b905090565b600080610a988361098a565b90506000610aaa848360200151610ab3565b95945050505050565b60008281526034602090815260408083208151808301909252546001600160a01b038116808352600160a01b9091046001600160601b0316928201929092528291610b285750604080518082019091526033546001600160a01b0381168252600160a01b90046001600160601b031660208201525b602081015160009061271090610b47906001600160601b03168761389c565b610b5191906138b3565b915196919550909350505050565b61015f5460408051630bea3e4960e21b815290516000926001600160a01b031691632fa8f9249160048083019260209291908290030181865afa158015610baa573d6000803e3d6000fd5b505050506040513d601f19601f82011682018060405250810190610a8791906138d5565b610160546040516331a9108f60e11b815260048101839052829133916001600160a01b03909116906000908290636352211e90602401602060405180830381865afa158015610c21573d6000803e3d6000fd5b505050506040513d601f19601f82011682018060405250810190610c45919061383d565b9050806001600160a01b0316836001600160a01b031614610c79576040516330cd747160e01b815260040160405180910390fd5b61015f5460405163083d13a560e11b81526004810187905286916000916001600160a01b039091169063107a274a90602401608060405180830381865afa158015610cc8573d6000803e3d6000fd5b505050506040513d601f19601f82011682018060405250810190610cec91906137c8565b90506000816020015111610d235761016054604051631a0c522360e21b8152610754916001600160a01b03169084906004016134d2565b61015f54604051637314163760e11b8152600481018990526001600160a01b039091169063e6282c6e90602401600060405180830381600087803b158015610d6a57600080fd5b505af1158015610d7e573d6000803e3d6000fd5b505061015f5460405163958a12a160e01b8152600481018b90526001600160a01b03909116925063958a12a19150602401600060405180830381600087803b158015610dc957600080fd5b505af1158015610ddd573d6000803e3d6000fd5b5050610160546040518a93506001600160a01b03909116915033907f9ba1a3cb55ce8d63d072a886f94d2a744f50cddf82128e897d0661f5ec62315890600090a450505050505050565b6001600160a01b037f0000000000000000000000000000000000000000000000000000000000000000163003610e6f5760405162461bcd60e51b8152600401610754906138f2565b7f00000000000000000000000000000000000000000000000000000000000000006001600160a01b0316610eb8600080516020613ae6833981519152546001600160a01b031690565b6001600160a01b031614610ede5760405162461bcd60e51b81526004016107549061393e565b610ee781612d6e565b60408051600080825260208201909252610f0391839190612d76565b50565b6060600061015f60009054906101000a90046001600160a01b03166001600160a01b031663b39744926040518163ffffffff1660e01b8152600401602060405180830381865afa158015610f5e573d6000803e3d6000fd5b505050506040513d601f19601f82011682018060405250810190610f82919061385a565b9050600061015f60009054906101000a90046001600160a01b03166001600160a01b0316634f9ce8ab6040518163ffffffff1660e01b8152600401602060405180830381865afa158015610fda573d6000803e3d6000fd5b505050506040513d601f19601f82011682018060405250810190610ffe919061385a565b90506000808267ffffffffffffffff81111561101c5761101c6135c6565b60405190808252806020026020018201604052801561106e57816020015b60408051608081018252600080825260208083018290529282018190526060820152825260001990920191018161103a5790505b50905060005b848110156110d65760006110878261150c565b905060006110948261098a565b9050808486815181106110a9576110a961398a565b60209081029190910101526110bf6001866139a0565b9450505080806110ce906139b3565b915050611074565b50949350505050565b61015f5460405163083d13a560e11b81526004810185905284916000916001600160a01b039091169063107a274a90602401608060405180830381865afa15801561112e573d6000803e3d6000fd5b505050506040513d601f19601f8201168201806040525081019061115291906137c8565b6020810151909150156111885761016054604051634a5568d560e01b8152610754916001600160a01b03169084906004016134d2565b610160546040516331a9108f60e11b815260048101879052869133916001600160a01b03909116906000908290636352211e90602401602060405180830381865afa1580156111db573d6000803e3d6000fd5b505050506040513d601f19601f820116820180604052508101906111ff919061383d565b9050806001600160a01b0316836001600160a01b031614611233576040516330cd747160e01b815260040160405180910390fd5b6000881161127e5760405162461bcd60e51b81526020600482015260186024820152775072696365206d7573742062652061626f7665207a65726f60401b6044820152606401610754565b6101605460405163020604bf60e21b8152600481018b90526001600160a01b03909116903090829063081812fc90602401602060405180830381865afa1580156112cc573d6000803e3d6000fd5b505050506040513d601f19601f820116820180604052508101906112f0919061383d565b6001600160a01b0316146113165760405162461bcd60e51b8152600401610754906139cc565b61015f54604051630d3db80d60e31b8152600481018c9052602481018b905233604482015289151560648201526001600160a01b03909116906369edc06890608401600060405180830381600087803b15801561137257600080fd5b505af1158015611386573d6000803e3d6000fd5b505061015f546040516336f82c8760e21b8152600481018e90526001600160a01b03909116925063dbe0b21c9150602401600060405180830381600087803b1580156113d157600080fd5b505af11580156113e5573d6000803e3d6000fd5b5050610160546040518c81528d93506001600160a01b03909116915033907fd547e933094f12a9159076970143ebe73234e64480317844b0dcb36117116de49060200160405180910390a450505050505050505050565b6001600160a01b037f00000000000000000000000000000000000000000000000000000000000000001630036114845760405162461bcd60e51b8152600401610754906138f2565b7f00000000000000000000000000000000000000000000000000000000000000006001600160a01b03166114cd600080516020613ae6833981519152546001600160a01b031690565b6001600160a01b0316146114f35760405162461bcd60e51b81526004016107549061393e565b6114fc82612d6e565b61150882826001612d76565b5050565b6000611516610a18565b821061155a5760405162461bcd60e51b8152602060048201526013602482015272496e646578206f7574206f6620626f756e647360681b6044820152606401610754565b61015f5460405163a92d432f60e01b8152600481018490526001600160a01b039091169063a92d432f90602401602060405180830381865afa1580156115a4573d6000803e3d6000fd5b505050506040513d601f19601f820116820180604052508101906106a4919061385a565b6000306001600160a01b037f000000000000000000000000000000000000000000000000000000000000000016146116685760405162461bcd60e51b815260206004820152603860248201527f555550535570677261646561626c653a206d757374206e6f742062652063616c60448201527f6c6564207468726f7567682064656c656761746563616c6c00000000000000006064820152608401610754565b50600080516020613ae683398151915290565b61015f54604051632c60ebff60e11b81526000916001600160a01b0316906358c1d7fe906116af90869086906004016134d2565b602060405180830381865afa1580156116cc573d6000803e3d6000fd5b505050506040513d601f19601f820116820180604052508101906116f0919061385a565b9392505050565b6116ff612ee1565b61015f5460405163177ae83960e21b81526001600160a01b038481166004830152831515602483015290911690635deba0e490604401600060405180830381600087803b15801561174f57600080fd5b505af1158015611763573d6000803e3d6000fd5b505050505050565b610161546040516000916001600160a01b03169083908381818185875af1925050503d80600081146117b9576040519150601f19603f3d011682016040523d82523d6000602084013e6117be565b606091505b50509050806117cc57600080fd5b604080518381526000602082015284917f47dcbf55c71c9c4f32d9a8e1a956947981998a1c3a474c9f431ac27afe9f62fa91015b60405180910390a2505050565b600080610aaa8484610ab3565b610160546040516331a9108f60e11b815260048101859052849133916001600160a01b03909116906000908290636352211e90602401602060405180830381865afa15801561186d573d6000803e3d6000fd5b505050506040513d601f19601f82011682018060405250810190611891919061383d565b9050806001600160a01b0316836001600160a01b0316146118c5576040516330cd747160e01b815260040160405180910390fd5b6101605460405163020604bf60e21b8152600481018990526001600160a01b03909116903090829063081812fc90602401602060405180830381865afa158015611913573d6000803e3d6000fd5b505050506040513d601f19601f82011682018060405250810190611937919061383d565b6001600160a01b03161461195d5760405162461bcd60e51b8152600401610754906139cc565b61015f54604051630c6ce41560e01b81526001600160a01b038981166004830152602482018b90526044820189905290911690630c6ce41590606401600060405180830381600087803b1580156119b357600080fd5b505af11580156119c7573d6000803e3d6000fd5b5050610160546040518b93506001600160a01b03909116915033907ffec607d19d99183a0c2a448a7a1d3800ba78652b33fc0717ebad983bbcc0398690611a11908c908c906134d2565b60405180910390a45050505050505050565b611a2b612ee1565b611a356000612f3b565b565b61015f5460405163504732fb60e11b81523360048201526000916001600160a01b03169063a08e65f690602401602060405180830381865afa158015611a81573d6000803e3d6000fd5b505050506040513d601f19601f82011682018060405250810190611aa5919061385a565b905060008111611ac85760405163c4d8fa8760e01b815260040160405180910390fd5b61015f5460405163affaf36960e01b81526001600160a01b039091169063affaf36990611afc9033906000906004016134d2565b600060405180830381600087803b158015611b1657600080fd5b505af1158015611b2a573d6000803e3d6000fd5b50506040516000925033915083908381818185875af1925050503d8060008114611b70576040519150601f19603f3d011682016040523d82523d6000602084013e611b75565b606091505b50509050806115085760405162461bcd60e51b81526020600482015260126024820152714661696c656420746f20776974686472617760701b6044820152606401610754565b611bc3612ee1565b61015f546040516364cbede560e11b81526001600160a01b038381166004830152600160248301529091169063c997dbca90604401600060405180830381600087803b158015611c1257600080fd5b505af1158015611c26573d6000803e3d6000fd5b505061015f546040516373a7171760e11b81526001600160a01b038581166004830152909116925063e74e2e2e91506024015b600060405180830381600087803b158015611c7357600080fd5b505af1158015611c87573d6000803e3d6000fd5b5050505050565b60408051838152821515602082015284917f47dcbf55c71c9c4f32d9a8e1a956947981998a1c3a474c9f431ac27afe9f62fa9101611800565b610160546040516331a9108f60e11b815260048101849052839133916001600160a01b03909116906000908290636352211e90602401602060405180830381865afa158015611d1a573d6000803e3d6000fd5b505050506040513d601f19601f82011682018060405250810190611d3e919061383d565b9050806001600160a01b0316836001600160a01b031614611d72576040516330cd747160e01b815260040160405180910390fd5b61015f5460405163083d13a560e11b81526004810188905287916000916001600160a01b039091169063107a274a90602401608060405180830381865afa158015611dc1573d6000803e3d6000fd5b505050506040513d601f19601f82011682018060405250810190611de591906137c8565b90506000816020015111611e1c5761016054604051631a0c522360e21b8152610754916001600160a01b03169084906004016134d2565b61015f5460405163d0483ee560e01b8152600481018a905288151560248201526001600160a01b039091169063d0483ee590604401600060405180830381600087803b158015611e6b57600080fd5b505af1158015611e7f573d6000803e3d6000fd5b5050610160546040518a151581528b93506001600160a01b03909116915033907fa7880b0602a875125ce66e792f80e2ac0a6cb1d907fe1206131e58ceaf352f4f90602001611a11565b61015f5460405163083d13a560e11b81526004810184905283916000916001600160a01b039091169063107a274a90602401608060405180830381865afa158015611f18573d6000803e3d6000fd5b505050506040513d601f19601f82011682018060405250810190611f3c91906137c8565b90506000816020015111611f735761016054604051631a0c522360e21b8152610754916001600160a01b03169084906004016134d2565b611f7b612a68565b610160546040516331a9108f60e11b815260048101869052859133916001600160a01b03909116906000908290636352211e90602401602060405180830381865afa158015611fce573d6000803e3d6000fd5b505050506040513d601f19601f82011682018060405250810190611ff2919061383d565b9050806001600160a01b0316836001600160a01b031614612026576040516330cd747160e01b815260040160405180910390fd5b600087116120715760405162461bcd60e51b81526020600482015260186024820152775072696365206d7573742062652061626f7665207a65726f60401b6044820152606401610754565b6101605460405163020604bf60e21b8152600481018a90526001600160a01b03909116903090829063081812fc90602401602060405180830381865afa1580156120bf573d6000803e3d6000fd5b505050506040513d601f19601f820116820180604052508101906120e3919061383d565b6001600160a01b0316146121095760405162461bcd60e51b8152600401610754906139cc565b61015f54604051630d3db80d60e31b8152600481018b9052602481018a9052336044820152600060648201526001600160a01b03909116906369edc06890608401600060405180830381600087803b15801561216457600080fd5b505af1158015612178573d6000803e3d6000fd5b5050610160546040518b81528c93506001600160a01b03909116915033907fa22ad62d9c32f1d64c578703c6973dd9a61657bdadb7b9d1563b95fb16a2b7ca9060200160405180910390a450505050506121d26001606555565b50505050565b6121e0612ee1565b61015f546040516364cbede560e11b81526001600160a01b038381166004830152600060248301529091169063c997dbca90604401611c59565b610160546040516331a9108f60e11b81526004810183905260009182916001600160a01b0390911690636352211e90602401602060405180830381865afa158015612269573d6000803e3d6000fd5b505050506040513d601f19601f8201168201806040525081019061228d919061383d565b610161546001600160a01b039182169116149392505050565b61015f5460405163083d13a560e11b81526004810183905282916000916001600160a01b039091169063107a274a90602401608060405180830381865afa1580156122f5573d6000803e3d6000fd5b505050506040513d601f19601f8201168201806040525081019061231991906137c8565b905060008160200151116123505761016054604051631a0c522360e21b8152610754916001600160a01b03169084906004016134d2565b610160546040516331a9108f60e11b815260048101859052849133916001600160a01b03909116906000908290636352211e90602401602060405180830381865afa1580156123a3573d6000803e3d6000fd5b505050506040513d601f19601f820116820180604052508101906123c7919061383d565b9050806001600160a01b0316836001600160a01b0316036123fb576040516365b023fd60e01b815260040160405180910390fd5b612403612a68565b61015f5460405163083d13a560e11b8152600481018990526000916001600160a01b03169063107a274a90602401608060405180830381865afa15801561244e573d6000803e3d6000fd5b505050506040513d601f19601f8201168201806040525081019061247291906137c8565b905080602001513410156124b65760405162461bcd60e51b815260206004820152600b60248201526a141c9a58d9539bdd13595d60aa1b6044820152606401610754565b6124be610b5f565b158015612548575061016154610160546040516331a9108f60e11b8152600481018b90526001600160a01b039283169290911690636352211e90602401602060405180830381865afa158015612518573d6000803e3d6000fd5b505050506040513d601f19601f8201168201806040525081019061253c919061383d565b6001600160a01b031614155b1561255a5761255a886104718a610a8c565b600081604001516001600160a01b03166125738a610a8c565b61257d9034613889565b604051600081818185875af1925050503d80600081146125b9576040519150601f19603f3d011682016040523d82523d6000602084013e6125be565b606091505b50509050806126015760405162461bcd60e51b815260206004820152600f60248201526e151c985b9cd9995c8819985a5b1959608a1b6044820152606401610754565b610160546040808401519051632142170760e11b81526001600160a01b03909216916342842e0e916126399133908e90600401613a03565b600060405180830381600087803b15801561265357600080fd5b505af1158015612667573d6000803e3d6000fd5b505061015f54604051637314163760e11b8152600481018d90526001600160a01b03909116925063e6282c6e9150602401600060405180830381600087803b1580156126b257600080fd5b505af11580156126c6573d6000803e3d6000fd5b505061015f5460405163958a12a160e01b8152600481018d90526001600160a01b03909116925063958a12a19150602401600060405180830381600087803b15801561271157600080fd5b505af1158015612725573d6000803e3d6000fd5b505050604080840151602080860151835160008152918201528c93506001600160a01b039091169133917f933fd70bdd191afd6196d0d8891f71c2e4ab02e1d296c7af48e8b99fac9df40b910160405180910390a450506127866001606555565b50505050505050565b612797612ee1565b6001600160a01b0381166127fc5760405162461bcd60e51b815260206004820152602660248201527f4f776e61626c653a206e6577206f776e657220697320746865207a65726f206160448201526564647265737360d01b6064820152608401610754565b610f0381612f3b565b61280d612ee1565b610161546040516370a0823160e01b8152306004820181905283926001600160a01b03808516936323b872dd9392919091169084906370a0823190602401602060405180830381865afa158015612868573d6000803e3d6000fd5b505050506040513d601f19601f8201168201806040525081019061288c919061385a565b6040518463ffffffff1660e01b81526004016128aa93929190613a03565b6020604051808303816000875af11580156128c9573d6000803e3d6000fd5b505050506040513d601f19601f820116820180604052508101906128ed91906138d5565b505050565b600054610100900460ff16158080156129125750600054600160ff909116105b8061292c5750303b15801561292c575060005460ff166001145b61298f5760405162461bcd60e51b815260206004820152602e60248201527f496e697469616c697a61626c653a20636f6e747261637420697320616c72656160448201526d191e481a5b9a5d1a585b1a5e995960921b6064820152608401610754565b6000805460ff1916600117905580156129b2576000805461ff0019166101001790555b6129ba612f8d565b6129c2612fbc565b61016080546001600160a01b038088166001600160a01b031992831617909255610161805487841690831617905561015f8054868416908316179055610162805492851692909116919091179055612a1c336103e8612fe3565b8015611c87576000805461ff0019169055604051600181527f7f26b83ff96e1f2b6a682f133852f6798a09c465da95921460cefb38474024989060200160405180910390a15050505050565b600260655403612aba5760405162461bcd60e51b815260206004820152601f60248201527f5265656e7472616e637947756172643a207265656e7472616e742063616c6c006044820152606401610754565b6002606555565b600080612ace848461167b565b949350505050565b6000612ae0610b5f565b6116f057610160546040516331a9108f60e11b8152600481018590526000916001600160a01b031690636352211e90602401602060405180830381865afa158015612b2f573d6000803e3d6000fd5b505050506040513d601f19601f82011682018060405250810190612b53919061383d565b610161549091506001600160a01b03808316911614612b8557612b768484610ab3565b9250612b8590508585846130e0565b509392505050565b836000612b9a8486613889565b6040516323b872dd60e01b81529091506001600160a01b038316906323b872dd90612bcd90339087908690600401613a03565b6020604051808303816000875af1158015612bec573d6000803e3d6000fd5b505050506040513d601f19601f82011682018060405250810190612c1091906138d5565b6117635760405162461bcd60e51b815260206004820152600e60248201526d14185e5b595b9d0819985a5b195960921b6044820152606401610754565b61016054604051632142170760e11b81526001600160a01b03909116906342842e0e90612c8290859085908890600401613a03565b600060405180830381600087803b158015612c9c57600080fd5b505af1158015612cb0573d6000803e3d6000fd5b505061015f54604051637314163760e11b8152600481018790526001600160a01b03909116925063e6282c6e9150602401600060405180830381600087803b158015612cfb57600080fd5b505af1158015612d0f573d6000803e3d6000fd5b505061015f5460405163958a12a160e01b8152600481018790526001600160a01b03909116925063958a12a19150602401600060405180830381600087803b158015612d5a57600080fd5b505af1158015612786573d6000803e3d6000fd5b610f03612ee1565b7f4910fdfa16fed3260ed0e7147f7cc6da11a60208b5b9406d12a635614ffd91435460ff1615612da9576128ed8361319d565b826001600160a01b03166352d1902d6040518163ffffffff1660e01b8152600401602060405180830381865afa925050508015612e03575060408051601f3d908101601f19168201909252612e009181019061385a565b60015b612e665760405162461bcd60e51b815260206004820152602e60248201527f45524331393637557067726164653a206e657720696d706c656d656e7461746960448201526d6f6e206973206e6f74205555505360901b6064820152608401610754565b600080516020613ae68339815191528114612ed55760405162461bcd60e51b815260206004820152602960248201527f45524331393637557067726164653a20756e737570706f727465642070726f786044820152681a58589b195555525160ba1b6064820152608401610754565b506128ed838383613239565b60c9546001600160a01b03163314611a355760405162461bcd60e51b815260206004820181905260248201527f4f776e61626c653a2063616c6c6572206973206e6f7420746865206f776e65726044820152606401610754565b60c980546001600160a01b038381166001600160a01b0319831681179093556040519116919082907f8be0079c531659141344cd1fd0a4f28419497f9722a3daafe3b4186f6b6457e090600090a35050565b600054610100900460ff16612fb45760405162461bcd60e51b815260040161075490613a27565b611a3561325e565b600054610100900460ff16611a355760405162461bcd60e51b815260040161075490613a27565b6127106001600160601b03821611156130515760405162461bcd60e51b815260206004820152602a60248201527f455243323938313a20726f79616c7479206665652077696c6c206578636565646044820152692073616c65507269636560b01b6064820152608401610754565b6001600160a01b0382166130a75760405162461bcd60e51b815260206004820152601960248201527f455243323938313a20696e76616c6964207265636569766572000000000000006044820152606401610754565b604080518082019091526001600160a01b039092168083526001600160601b039091166020909201829052600160a01b90910217603355565b610161546040516323b872dd60e01b815284916001600160a01b03808416926323b872dd926131189233929116908790600401613a03565b6020604051808303816000875af1158015613137573d6000803e3d6000fd5b505050506040513d601f19601f8201168201806040525081019061315b91906138d5565b50604080518381526001602082015284917f47dcbf55c71c9c4f32d9a8e1a956947981998a1c3a474c9f431ac27afe9f62fa910160405180910390a250505050565b6001600160a01b0381163b61320a5760405162461bcd60e51b815260206004820152602d60248201527f455243313936373a206e657720696d706c656d656e746174696f6e206973206e60448201526c1bdd08184818dbdb9d1c9858dd609a1b6064820152608401610754565b600080516020613ae683398151915280546001600160a01b0319166001600160a01b0392909216919091179055565b6132428361328e565b60008251118061324f5750805b156128ed576121d283836132ce565b600054610100900460ff166132855760405162461bcd60e51b815260040161075490613a27565b611a3533612f3b565b6132978161319d565b6040516001600160a01b038216907fbc7cd75a20ee27fd9adebab32041f755214dbc6bffa90cc0225b39da2e5c2d3b90600090a250565b60606001600160a01b0383163b6133365760405162461bcd60e51b815260206004820152602660248201527f416464726573733a2064656c65676174652063616c6c20746f206e6f6e2d636f6044820152651b9d1c9858dd60d21b6064820152608401610754565b600080846001600160a01b0316846040516133519190613a96565b600060405180830381855af49150503d806000811461338c576040519150601f19603f3d011682016040523d82523d6000602084013e613391565b606091505b5091509150610aaa8282604051806060016040528060278152602001613b0660279139606083156133c35750816116f0565b6116f083838151156133d85781518083602001fd5b8060405162461bcd60e51b81526004016107549190613ab2565b60006020828403121561340457600080fd5b81356001600160e01b0319811681146116f057600080fd5b6001600160a01b0381168114610f0357600080fd5b6000806040838503121561344457600080fd5b8235915060208301356134568161341c565b809150509250929050565b60006020828403121561347357600080fd5b5035919050565b81518152602080830151908201526040808301516001600160a01b031690820152606080830151151590820152608081016106a4565b600080604083850312156134c357600080fd5b50508035926020909101359150565b6001600160a01b03929092168252602082015260400190565b6000602082840312156134fd57600080fd5b81356116f08161341c565b6020808252825182820181905260009190848201906040850190845b818110156135735761356083855180518252602080820151908301526040808201516001600160a01b0316908301526060908101511515910152565b9284019260809290920191600101613524565b50909695505050505050565b8015158114610f0357600080fd5b6000806000606084860312156135a257600080fd5b833592506020840135915060408401356135bb8161357f565b809150509250925092565b634e487b7160e01b600052604160045260246000fd5b604051601f8201601f1916810167ffffffffffffffff81118282101715613605576136056135c6565b604052919050565b6000806040838503121561362057600080fd5b823561362b8161341c565b915060208381013567ffffffffffffffff8082111561364957600080fd5b818601915086601f83011261365d57600080fd5b81358181111561366f5761366f6135c6565b613681601f8201601f191685016135dc565b9150808252878482850101111561369757600080fd5b80848401858401376000848284010152508093505050509250929050565b600080604083850312156136c857600080fd5b82356136d38161341c565b946020939093013593505050565b600080604083850312156136f457600080fd5b82356136ff8161341c565b915060208301356134568161357f565b60008060006060848603121561372457600080fd5b8335925060208401356137368161341c565b929592945050506040919091013590565b6000806040838503121561375a57600080fd5b8235915060208301356134568161357f565b6000806000806080858703121561378257600080fd5b843561378d8161341c565b9350602085013561379d8161341c565b925060408501356137ad8161341c565b915060608501356137bd8161341c565b939692955090935050565b6000608082840312156137da57600080fd5b6040516080810181811067ffffffffffffffff821117156137fd576137fd6135c6565b80604052508251815260208301516020820152604083015161381e8161341c565b604082015260608301516138318161357f565b60608201529392505050565b60006020828403121561384f57600080fd5b81516116f08161341c565b60006020828403121561386c57600080fd5b5051919050565b634e487b7160e01b600052601160045260246000fd5b818103818111156106a4576106a4613873565b80820281158282048414176106a4576106a4613873565b6000826138d057634e487b7160e01b600052601260045260246000fd5b500490565b6000602082840312156138e757600080fd5b81516116f08161357f565b6020808252602c908201527f46756e6374696f6e206d7573742062652063616c6c6564207468726f7567682060408201526b19195b1959d85d1958d85b1b60a21b606082015260800190565b6020808252602c908201527f46756e6374696f6e206d7573742062652063616c6c6564207468726f7567682060408201526b6163746976652070726f787960a01b606082015260800190565b634e487b7160e01b600052603260045260246000fd5b808201808211156106a4576106a4613873565b6000600182016139c5576139c5613873565b5060010190565b6020808252601c908201527f4e6f7420617070726f76656420666f72206d61726b6574706c61636500000000604082015260600190565b6001600160a01b039384168152919092166020820152604081019190915260600190565b6020808252602b908201527f496e697469616c697a61626c653a20636f6e7472616374206973206e6f74206960408201526a6e697469616c697a696e6760a81b606082015260800190565b60005b83811015613a8d578181015183820152602001613a75565b50506000910152565b60008251613aa8818460208701613a72565b9190910192915050565b6020815260008251806020840152613ad1816040850160208701613a72565b601f01601f1916919091016040019291505056fe360894a13ba1a3210667c828492db98dca3e2076cc3735a920a3ca505d382bbc416464726573733a206c6f772d6c6576656c2064656c65676174652063616c6c206661696c6564a264697066735822122080a31831962e6b7a7b7d3c1e77484bc57bd052368dd0cf15642c316bdd565b6a64736f6c63430008110033",
  "immutableReferences": {
    "746": [
      {
        "length": 32,
        "start": 3633
      },
      {
        "length": 32,
        "start": 3697
      },
      {
        "length": 32,
        "start": 5190
      },
      {
        "length": 32,
        "start": 5254
      },
      {
        "length": 32,
        "start": 5589
      }
    ]
  },
  "source": "// SPDX-License-Identifier: MIT\npragma solidity ^0.8.7;\n\nimport \"@openzeppelin/contracts-upgradeable/proxy/utils/Initializable.sol\";\n\nimport \"@openzeppelin/contracts-upgradeable/token/ERC721/IERC721Upgradeable.sol\";\nimport \"@openzeppelin/contracts-upgradeable/utils/introspection/IERC165Upgradeable.sol\";\nimport \"@openzeppelin/contracts-upgradeable/token/ERC20/IERC20Upgradeable.sol\";\nimport \"@openzeppelin/contracts-upgradeable/security/ReentrancyGuardUpgradeable.sol\";\nimport \"@openzeppelin/contracts-upgradeable/token/common/ERC2981Upgradeable.sol\";\nimport \"@openzeppelin/contracts-upgradeable/access/OwnableUpgradeable.sol\";\nimport \"@openzeppelin/contracts-upgradeable/proxy/utils/UUPSUpgradeable.sol\";\n\nimport \"./INftVendorStorage.sol\";\nimport \"../PriceOracle.sol\";\n\n// Check out https://github.com/Fantom-foundation/Artion-Contracts/blob/5c90d2bc0401af6fb5abf35b860b762b31dfee02/contracts/FantomMarketplace.sol\n// For a full decentralized nft marketplace\n\nerror PriceNotMet(address nftAddress, uint256 tokenId, uint256 price);\nerror NotListed(address nftAddress, uint256 tokenId);\nerror AlreadyListed(address nftAddress, uint256 tokenId);\nerror NoProceeds();\nerror NotOwner();\nerror IsNotOwner();\nerror NotApprovedForMarketplace();\nerror PriceMustBeAboveZero();\n\n// Error thrown for isNotOwner modifier\n// error IsNotOwner()\n\ncontract NftVendor is\n  Initializable,\n  ERC2981Upgradeable,\n  ReentrancyGuardUpgradeable,\n  OwnableUpgradeable,\n  UUPSUpgradeable\n{\n  INftVendorStorage private _vendorStorage;\n\n  address public collection;\n  address public creator;\n  PriceOracle public oracle;\n\n  event ItemListed(\n    address indexed from,\n    address indexed nftAddress,\n    uint256 indexed tokenId,\n    uint256 price\n  );\n\n  event NftStableCoinPriceUpdated(\n    address indexed from,\n    address indexed nftAddress,\n    uint256 indexed tokenId,\n    address erc20Token,\n    uint256 price\n  );\n\n  event ItemPiceUpdated(\n    address indexed from,\n    address indexed nftAddress,\n    uint256 indexed tokenId,\n    uint256 price\n  );\n\n  event ItemSaleStateUpdated(\n    address indexed from,\n    address indexed nftAddress,\n    uint256 indexed tokenId,\n    bool state\n  );\n\n  event ItemCanceled(\n    address indexed from,\n    address indexed nftAddress,\n    uint256 indexed tokenId\n  );\n\n  event ItemBought(\n    address indexed to,\n    address indexed from,\n    uint256 indexed tokenId,\n    bool isERC20,\n    uint256 price\n  );\n\n  event TxFeePaid(uint256 indexed tokenId, uint256 royalty, bool isERC20);\n\n  modifier notListed(uint256 tokenId) {\n    INftVendorStorage.Listing memory listing = _vendorStorage.getListing(\n      tokenId\n    );\n    if (listing.price > 0) {\n      revert AlreadyListed(collection, tokenId);\n    }\n    _;\n  }\n\n  modifier isListed(uint256 tokenId) {\n    INftVendorStorage.Listing memory listing = _vendorStorage.getListing(\n      tokenId\n    );\n    if (listing.price <= 0) {\n      revert NotListed(collection, tokenId);\n    }\n    _;\n  }\n\n  modifier isOwner(uint256 tokenId, address spender) {\n    IERC721Upgradeable nft = IERC721Upgradeable(collection);\n    address owner = nft.ownerOf(tokenId);\n    if (spender != owner) {\n      revert NotOwner();\n    }\n    _;\n  }\n\n  // IsNotOwner Modifier - Nft Owner can't buy his/her NFT\n  // Modifies buyItem function\n  // Owner should only list, cancel listing or update listing\n  modifier isNotOwner(uint256 tokenId, address spender) {\n    IERC721Upgradeable nft = IERC721Upgradeable(collection);\n    address owner = nft.ownerOf(tokenId);\n    if (spender == owner) {\n      revert IsNotOwner();\n    }\n    _;\n  }\n\n  function initialize(\n    address _collection,\n    address _creator,\n    address _storageAddress,\n    address _oracleAddress\n  ) public initializer {\n    __Ownable_init();\n    __UUPSUpgradeable_init();\n    collection = _collection;\n    creator = _creator;\n    _vendorStorage = INftVendorStorage(_storageAddress);\n    oracle = PriceOracle(_oracleAddress);\n    _setDefaultRoyalty(msg.sender, 1000);\n  }\n\n  function _authorizeUpgrade(address) internal override onlyOwner {}\n\n  /////////////////////\n  // Main Functions //\n  /////////////////////\n  /*\n   * @notice Method for listing NFT\n   * @param nftAddress Address of NFT contract\n   * @param tokenId Token ID of NFT\n   * @param price sale price for each item\n   */\n\n  /////////////////////\n  // Getter Functions //\n  /////////////////////\n\n  function getIsExcluded() public view returns (bool) {\n    return _vendorStorage.getIsExcluded();\n  }\n\n  function getIsOwnerSameAsCreator(\n    uint256 tokenId\n  ) external view returns (bool) {\n    address owner = IERC721Upgradeable(collection).ownerOf(tokenId);\n    return owner == creator;\n  }\n\n  function getPriceByToken(\n    address tokenAddress,\n    uint256 tokenId\n  ) public view returns (uint256) {\n    return _vendorStorage.getPriceByToken(tokenAddress, tokenId);\n  }\n\n  function getListing(\n    uint256 _tokenId\n  ) public view returns (INftVendorStorage.Listing memory) {\n    return _vendorStorage.getListing(_tokenId);\n  }\n\n  function getAllListedNFTs()\n    public\n    view\n    returns (INftVendorStorage.Listing[] memory)\n  {\n    uint allItemsCounts = _vendorStorage.getAllListedNftsLength();\n    uint listedItemsCounter = _vendorStorage.getCurrentListedItemsCounter();\n    uint currentIndex = 0;\n    INftVendorStorage.Listing[] memory items = new INftVendorStorage.Listing[](\n      listedItemsCounter\n    );\n\n    for (uint i = 0; i < allItemsCounts; i++) {\n      uint tokenId = tokenByIndex(i);\n      INftVendorStorage.Listing memory item = getListing(tokenId);\n      items[currentIndex] = item;\n      currentIndex += 1;\n    }\n\n    return items;\n  }\n\n  function getRoyalty(uint256 _tokenId) public view returns (uint256) {\n    INftVendorStorage.Listing memory listedItem = getListing(_tokenId);\n    (, uint256 royalty) = royaltyInfo(_tokenId, listedItem.price);\n    return royalty;\n  }\n\n  function emitTxFee(\n    uint256 tokenId,\n    uint256 royaltyAmount,\n    bool isERC20\n  ) external {\n    emit TxFeePaid(tokenId, royaltyAmount, isERC20);\n  }\n\n  function listItem(\n    uint256 tokenId,\n    uint256 price,\n    bool activeSell\n  ) external notListed(tokenId) isOwner(tokenId, msg.sender) {\n    // Check the value of `price` and revert if it's zero (since it cannot be negative)\n    require(price > 0, \"Price must be above zero\");\n\n    IERC721Upgradeable nft = IERC721Upgradeable(collection);\n    require(\n      nft.getApproved(tokenId) == address(this),\n      \"Not approved for marketplace\"\n    );\n\n    _vendorStorage.setListing(tokenId, price, msg.sender, activeSell);\n    _vendorStorage.addTokenToAllTokensEnumeration(tokenId);\n    emit ItemListed(msg.sender, collection, tokenId, price);\n  }\n\n  function updateStateForSale(\n    uint256 _tokenId,\n    bool state\n  ) external isOwner(_tokenId, msg.sender) isListed(_tokenId) {\n    _vendorStorage.updateSellState(_tokenId, state);\n    emit ItemSaleStateUpdated(msg.sender, collection, _tokenId, state);\n  }\n\n  /*\n   * @notice Method for cancelling listing\n   * @param collection Address of NFT contract\n   * @param tokenId Token ID of NFT\n   */\n  function cancelListing(\n    uint256 tokenId\n  ) external isOwner(tokenId, msg.sender) isListed(tokenId) {\n    _vendorStorage.deleteListing(tokenId);\n    _vendorStorage.removeTokenFromAllListedTokensEnumeration(tokenId);\n    emit ItemCanceled(msg.sender, collection, tokenId);\n  }\n\n  /*\n   * @notice Method for buying listing\n   * @notice The owner of an NFT could unapprove the marketplace,\n   * which would cause this function to fail\n   * Ideally you'd also have a `createOffer` functionality.\n   * @param collection Address of NFT contract\n   * @param tokenId Token ID of NFT\n   */\n  function buyItem(\n    uint256 tokenId\n  )\n    external\n    payable\n    isListed(tokenId)\n    isNotOwner(tokenId, msg.sender)\n    nonReentrant\n  {\n    INftVendorStorage.Listing memory listedItem = _vendorStorage.getListing(\n      tokenId\n    );\n\n    require(msg.value >= listedItem.price, \"PriceNotMet\");\n\n    if (\n      !getIsExcluded() &&\n      IERC721Upgradeable(collection).ownerOf(tokenId) != creator\n    ) {\n      _payTxFee(tokenId, getRoyalty(tokenId));\n    }\n\n    (bool success, ) = payable(listedItem.seller).call{\n      value: msg.value - getRoyalty(tokenId)\n    }(\"\");\n    require(success, \"Transfer failed\");\n\n    IERC721Upgradeable(collection).safeTransferFrom(\n      listedItem.seller,\n      msg.sender,\n      tokenId\n    );\n\n    _vendorStorage.deleteListing(tokenId);\n    _vendorStorage.removeTokenFromAllListedTokensEnumeration(tokenId);\n\n    emit ItemBought(\n      msg.sender,\n      listedItem.seller,\n      tokenId,\n      false,\n      listedItem.price\n    );\n  }\n\n  function calculateAmountInStablecoin(\n    address erc20Token,\n    uint256 tokenId\n  ) private view returns (uint256) {\n    uint256 dollarAmount = getPriceByToken(erc20Token, tokenId);\n    return dollarAmount;\n  }\n\n  function calculateRoyalty(\n    address erc20Token,\n    uint256 tokenId,\n    uint256 amountInStablecoin\n  ) private returns (uint256 royaltyAmount) {\n    if (!getIsExcluded()) {\n      address owner = IERC721Upgradeable(collection).ownerOf(tokenId);\n      if (owner != creator) {\n        (, royaltyAmount) = royaltyInfo(tokenId, amountInStablecoin);\n        // Asume que payERC20Royalties ya no devuelve un valor sino que acta directamente\n        payERC20Royalties(erc20Token, tokenId, royaltyAmount);\n      }\n    }\n    return royaltyAmount;\n  }\n\n  function transferStablecoin(\n    address erc20Token,\n    uint256 amountInStablecoin,\n    uint256 royaltyAmount,\n    address seller\n  ) private {\n    IERC20Upgradeable token = IERC20Upgradeable(erc20Token);\n    uint256 amountAfterRoyalties = amountInStablecoin - royaltyAmount;\n    require(\n      token.transferFrom(msg.sender, seller, amountAfterRoyalties),\n      \"Payment failed\"\n    );\n  }\n\n  function finalizeNFTTransfer(\n    uint256 tokenId,\n    address seller,\n    address buyer\n  ) private {\n    IERC721Upgradeable(collection).safeTransferFrom(seller, buyer, tokenId);\n    _vendorStorage.deleteListing(tokenId);\n    _vendorStorage.removeTokenFromAllListedTokensEnumeration(tokenId);\n  }\n\n  function buyNFTWithStableCoin(\n    uint256 tokenId,\n    address erc20Token\n  ) external isListed(tokenId) isNotOwner(tokenId, msg.sender) nonReentrant {\n    uint256 amountInStablecoin = calculateAmountInStablecoin(\n      erc20Token,\n      tokenId\n    );\n    uint256 royaltyAmount = calculateRoyalty(\n      erc20Token,\n      tokenId,\n      amountInStablecoin\n    );\n\n    IERC20Upgradeable token = IERC20Upgradeable(erc20Token);\n    require(\n      token.allowance(msg.sender, address(this)) >= amountInStablecoin,\n      \"Insufficient allowance.\"\n    );\n\n    INftVendorStorage.Listing memory listedItem = getListing(tokenId);\n\n    transferStablecoin(\n      erc20Token,\n      amountInStablecoin,\n      royaltyAmount,\n      listedItem.seller\n    );\n    finalizeNFTTransfer(tokenId, listedItem.seller, msg.sender);\n\n    emit ItemBought(\n      msg.sender,\n      listedItem.seller,\n      tokenId,\n      true,\n      amountInStablecoin - royaltyAmount\n    );\n  }\n\n  function payERC20Royalties(\n    address _erc20Token,\n    uint256 _tokenId,\n    uint256 _royalty\n  ) private {\n    IERC20Upgradeable token = IERC20Upgradeable(_erc20Token);\n    token.transferFrom(msg.sender, creator, _royalty);\n    emit TxFeePaid(_tokenId, _royalty, true);\n  }\n\n  /*\n   * @notice Method for updating listing\n   * @param collection Address of NFT contract\n   * @param tokenId Token ID of NFT\n   * @param newPrice Price in Wei of the item\n   */\n  function updateListingPrice(\n    uint256 tokenId,\n    uint256 newPrice\n  ) external isListed(tokenId) nonReentrant isOwner(tokenId, msg.sender) {\n    // Check the value of `newPrice` and revert if it's zero (since it cannot be negative)\n    require(newPrice > 0, \"Price must be above zero\");\n\n    IERC721Upgradeable nft = IERC721Upgradeable(collection);\n    require(\n      nft.getApproved(tokenId) == address(this),\n      \"Not approved for marketplace\"\n    );\n\n    _vendorStorage.setListing(tokenId, newPrice, msg.sender, false);\n    emit ItemPiceUpdated(msg.sender, collection, tokenId, newPrice);\n  }\n\n  function withdrawERC20(address erc20Token) external onlyOwner {\n    IERC20Upgradeable token = IERC20Upgradeable(erc20Token);\n    token.transferFrom(address(this), creator, token.balanceOf(address(this)));\n  }\n\n  /*\n   * @notice Method for withdrawing proceeds from sales\n   */\n  function withdrawProceeds() external {\n    uint256 proceeds = _vendorStorage.getProcceds(msg.sender);\n    if (proceeds <= 0) {\n      revert NoProceeds();\n    }\n    _vendorStorage.setProcceds(msg.sender, 0);\n    (bool sent, ) = msg.sender.call{ value: proceeds }(\"\");\n    require(sent, \"Failed to withdraw\");\n  }\n\n  function totalSupply() public view returns (uint256) {\n    return _vendorStorage.getAllListedNftsLength();\n  }\n\n  function tokenByIndex(uint index) public view returns (uint) {\n    require(index < totalSupply(), \"Index out of bounds\");\n    return _vendorStorage.getListedNftsByIndex(index);\n  }\n\n  function setExcludedFromList(\n    address _address,\n    bool _excluded\n  ) external onlyOwner {\n    _vendorStorage.setExcludedFromList(_address, _excluded);\n  }\n\n  function addERC20Token(address erc20Token) external onlyOwner {\n    // Check if the given address is a valid ERC20 token contract\n    // require(_isERC20(erc20Token), \"Not a valid ERC20 token\");\n\n    _vendorStorage.setAcceptedToken(erc20Token, true);\n    _vendorStorage.pushToAllERC20Tokens(erc20Token);\n  }\n\n  function removeERC20Token(address erc20Token) external onlyOwner {\n    _vendorStorage.setAcceptedToken(erc20Token, false);\n  }\n\n  function updateERC20TokenPrice(\n    uint256 tokenId,\n    address erc20Token,\n    uint256 price\n  ) external isOwner(tokenId, msg.sender) {\n    IERC721Upgradeable nft = IERC721Upgradeable(collection);\n    require(\n      nft.getApproved(tokenId) == address(this),\n      \"Not approved for marketplace\"\n    );\n    _vendorStorage.setERC20PriceByTokenId(erc20Token, tokenId, price);\n    emit NftStableCoinPriceUpdated(\n      msg.sender,\n      collection,\n      tokenId,\n      erc20Token,\n      price\n    );\n  }\n\n  function calculateRoyaltyForAcceptedOffer(\n    uint256 _tokenId,\n    uint256 _highestBid\n  ) public view returns (uint256) {\n    (, uint256 royalty) = royaltyInfo(_tokenId, _highestBid);\n    return royalty;\n  }\n\n  // function _isERC20(address erc20Token) private view returns (bool) {\n  //   bytes4 expectedInterfaceId = 0x36372b07; // ERC20 interface ID: bytes4(keccak256(\"totalSupply()\")) ^ bytes4(keccak256(\"balanceOf(address)\")) ^ bytes4(keccak256(\"transfer(address,uint256)\")) ^ bytes4(keccak256(\"allowance(address,address)\")) ^ bytes4(keccak256(\"approve(address,uint256)\")) ^ bytes4(keccak256(\"transferFrom(address,address,uint256)\"))\n  //   IERC165Upgradeable token = IERC165Upgradeable(erc20Token);\n  //   return token.supportsInterface(expectedInterfaceId);\n  // }\n\n  function _payTxFee(uint256 tokenId, uint256 royalty) public {\n    (bool success1, ) = payable(creator).call{ value: royalty }(\"\");\n    require(success1);\n    emit TxFeePaid(tokenId, royalty, false);\n  }\n}\n",
  "sourcePath": "/Users/alberto/Desktop/Proyectos/caskchain-monorepo/apps/contracts/contracts/NftVendor/NftVendor.sol",
  "compiler": {
    "name": "solc",
    "version": "0.8.17+commit.8df45f5f.Emscripten.clang"
  },
  "schemaVersion": "3.4.16",
  "updatedAt": "2024-04-08T07:56:32.441Z",
  "networkType": "ethereum",
  "devdoc": {
    "kind": "dev",
    "methods": {
      "owner()": {
        "details": "Returns the address of the current owner."
      },
      "proxiableUUID()": {
        "details": "Implementation of the ERC1822 {proxiableUUID} function. This returns the storage slot used by the implementation. It is used to validate the implementation's compatibility when performing an upgrade. IMPORTANT: A proxy pointing at a proxiable contract should not be considered proxiable itself, because this risks bricking a proxy that upgrades to it, by delegating to itself until out of gas. Thus it is critical that this function revert if invoked through a proxy. This is guaranteed by the `notDelegated` modifier."
      },
      "renounceOwnership()": {
        "details": "Leaves the contract without owner. It will not be possible to call `onlyOwner` functions anymore. Can only be called by the current owner. NOTE: Renouncing ownership will leave the contract without an owner, thereby removing any functionality that is only available to the owner."
      },
      "royaltyInfo(uint256,uint256)": {
        "details": "Returns how much royalty is owed and to whom, based on a sale price that may be denominated in any unit of exchange. The royalty amount is denominated and should be paid in that same unit of exchange."
      },
      "supportsInterface(bytes4)": {
        "details": "See {IERC165-supportsInterface}."
      },
      "transferOwnership(address)": {
        "details": "Transfers ownership of the contract to a new account (`newOwner`). Can only be called by the current owner."
      },
      "upgradeTo(address)": {
        "details": "Upgrade the implementation of the proxy to `newImplementation`. Calls {_authorizeUpgrade}. Emits an {Upgraded} event."
      },
      "upgradeToAndCall(address,bytes)": {
        "details": "Upgrade the implementation of the proxy to `newImplementation`, and subsequently execute the function call encoded in `data`. Calls {_authorizeUpgrade}. Emits an {Upgraded} event."
      }
    },
    "version": 1
  },
  "userdoc": {
    "kind": "user",
    "methods": {},
    "version": 1
  }
}