{
  "contractName": "NftVendor",
  "abi": [
    {
      "inputs": [
        {
          "internalType": "address",
          "name": "nftAddress",
          "type": "address"
        },
        {
          "internalType": "uint256",
          "name": "tokenId",
          "type": "uint256"
        }
      ],
      "name": "AlreadyListed",
      "type": "error"
    },
    {
      "inputs": [],
      "name": "IsNotOwner",
      "type": "error"
    },
    {
      "inputs": [],
      "name": "NoProceeds",
      "type": "error"
    },
    {
      "inputs": [
        {
          "internalType": "address",
          "name": "nftAddress",
          "type": "address"
        },
        {
          "internalType": "uint256",
          "name": "tokenId",
          "type": "uint256"
        }
      ],
      "name": "NotListed",
      "type": "error"
    },
    {
      "inputs": [],
      "name": "NotOwner",
      "type": "error"
    },
    {
      "anonymous": false,
      "inputs": [
        {
          "indexed": false,
          "internalType": "address",
          "name": "previousAdmin",
          "type": "address"
        },
        {
          "indexed": false,
          "internalType": "address",
          "name": "newAdmin",
          "type": "address"
        }
      ],
      "name": "AdminChanged",
      "type": "event"
    },
    {
      "anonymous": false,
      "inputs": [
        {
          "indexed": true,
          "internalType": "address",
          "name": "beacon",
          "type": "address"
        }
      ],
      "name": "BeaconUpgraded",
      "type": "event"
    },
    {
      "anonymous": false,
      "inputs": [
        {
          "indexed": false,
          "internalType": "uint8",
          "name": "version",
          "type": "uint8"
        }
      ],
      "name": "Initialized",
      "type": "event"
    },
    {
      "anonymous": false,
      "inputs": [
        {
          "indexed": true,
          "internalType": "address",
          "name": "to",
          "type": "address"
        },
        {
          "indexed": true,
          "internalType": "address",
          "name": "from",
          "type": "address"
        },
        {
          "indexed": true,
          "internalType": "uint256",
          "name": "tokenId",
          "type": "uint256"
        },
        {
          "indexed": false,
          "internalType": "uint256",
          "name": "price",
          "type": "uint256"
        }
      ],
      "name": "ItemBought",
      "type": "event"
    },
    {
      "anonymous": false,
      "inputs": [
        {
          "indexed": true,
          "internalType": "address",
          "name": "from",
          "type": "address"
        },
        {
          "indexed": true,
          "internalType": "address",
          "name": "nftAddress",
          "type": "address"
        },
        {
          "indexed": true,
          "internalType": "uint256",
          "name": "tokenId",
          "type": "uint256"
        }
      ],
      "name": "ItemCanceled",
      "type": "event"
    },
    {
      "anonymous": false,
      "inputs": [
        {
          "indexed": true,
          "internalType": "address",
          "name": "from",
          "type": "address"
        },
        {
          "indexed": true,
          "internalType": "address",
          "name": "nftAddress",
          "type": "address"
        },
        {
          "indexed": true,
          "internalType": "uint256",
          "name": "tokenId",
          "type": "uint256"
        },
        {
          "indexed": false,
          "internalType": "uint256",
          "name": "price",
          "type": "uint256"
        }
      ],
      "name": "ItemListed",
      "type": "event"
    },
    {
      "anonymous": false,
      "inputs": [
        {
          "indexed": true,
          "internalType": "address",
          "name": "previousOwner",
          "type": "address"
        },
        {
          "indexed": true,
          "internalType": "address",
          "name": "newOwner",
          "type": "address"
        }
      ],
      "name": "OwnershipTransferred",
      "type": "event"
    },
    {
      "anonymous": false,
      "inputs": [
        {
          "indexed": true,
          "internalType": "uint256",
          "name": "tokenId",
          "type": "uint256"
        },
        {
          "indexed": false,
          "internalType": "uint256",
          "name": "royalty",
          "type": "uint256"
        },
        {
          "indexed": false,
          "internalType": "bool",
          "name": "isERC20",
          "type": "bool"
        }
      ],
      "name": "TxFeePaid",
      "type": "event"
    },
    {
      "anonymous": false,
      "inputs": [
        {
          "indexed": true,
          "internalType": "address",
          "name": "implementation",
          "type": "address"
        }
      ],
      "name": "Upgraded",
      "type": "event"
    },
    {
      "inputs": [],
      "name": "collection",
      "outputs": [
        {
          "internalType": "address",
          "name": "",
          "type": "address"
        }
      ],
      "stateMutability": "view",
      "type": "function",
      "constant": true
    },
    {
      "inputs": [],
      "name": "creator",
      "outputs": [
        {
          "internalType": "address",
          "name": "",
          "type": "address"
        }
      ],
      "stateMutability": "view",
      "type": "function",
      "constant": true
    },
    {
      "inputs": [],
      "name": "owner",
      "outputs": [
        {
          "internalType": "address",
          "name": "",
          "type": "address"
        }
      ],
      "stateMutability": "view",
      "type": "function",
      "constant": true
    },
    {
      "inputs": [],
      "name": "proxiableUUID",
      "outputs": [
        {
          "internalType": "bytes32",
          "name": "",
          "type": "bytes32"
        }
      ],
      "stateMutability": "view",
      "type": "function",
      "constant": true
    },
    {
      "inputs": [],
      "name": "renounceOwnership",
      "outputs": [],
      "stateMutability": "nonpayable",
      "type": "function"
    },
    {
      "inputs": [
        {
          "internalType": "uint256",
          "name": "_tokenId",
          "type": "uint256"
        },
        {
          "internalType": "uint256",
          "name": "_salePrice",
          "type": "uint256"
        }
      ],
      "name": "royaltyInfo",
      "outputs": [
        {
          "internalType": "address",
          "name": "",
          "type": "address"
        },
        {
          "internalType": "uint256",
          "name": "",
          "type": "uint256"
        }
      ],
      "stateMutability": "view",
      "type": "function",
      "constant": true
    },
    {
      "inputs": [
        {
          "internalType": "bytes4",
          "name": "interfaceId",
          "type": "bytes4"
        }
      ],
      "name": "supportsInterface",
      "outputs": [
        {
          "internalType": "bool",
          "name": "",
          "type": "bool"
        }
      ],
      "stateMutability": "view",
      "type": "function",
      "constant": true
    },
    {
      "inputs": [
        {
          "internalType": "address",
          "name": "newOwner",
          "type": "address"
        }
      ],
      "name": "transferOwnership",
      "outputs": [],
      "stateMutability": "nonpayable",
      "type": "function"
    },
    {
      "inputs": [
        {
          "internalType": "address",
          "name": "newImplementation",
          "type": "address"
        }
      ],
      "name": "upgradeTo",
      "outputs": [],
      "stateMutability": "nonpayable",
      "type": "function"
    },
    {
      "inputs": [
        {
          "internalType": "address",
          "name": "newImplementation",
          "type": "address"
        },
        {
          "internalType": "bytes",
          "name": "data",
          "type": "bytes"
        }
      ],
      "name": "upgradeToAndCall",
      "outputs": [],
      "stateMutability": "payable",
      "type": "function",
      "payable": true
    },
    {
      "inputs": [
        {
          "internalType": "address",
          "name": "_collection",
          "type": "address"
        },
        {
          "internalType": "address",
          "name": "_creator",
          "type": "address"
        },
        {
          "internalType": "address",
          "name": "_storageAddress",
          "type": "address"
        }
      ],
      "name": "initialize",
      "outputs": [],
      "stateMutability": "nonpayable",
      "type": "function"
    },
    {
      "inputs": [],
      "name": "getIsExcluded",
      "outputs": [
        {
          "internalType": "bool",
          "name": "",
          "type": "bool"
        }
      ],
      "stateMutability": "view",
      "type": "function",
      "constant": true
    },
    {
      "inputs": [
        {
          "internalType": "uint256",
          "name": "tokenId",
          "type": "uint256"
        }
      ],
      "name": "getIsOwnerSameAsCreator",
      "outputs": [
        {
          "internalType": "bool",
          "name": "",
          "type": "bool"
        }
      ],
      "stateMutability": "view",
      "type": "function",
      "constant": true
    },
    {
      "inputs": [
        {
          "internalType": "address",
          "name": "tokenAddress",
          "type": "address"
        },
        {
          "internalType": "uint256",
          "name": "tokenId",
          "type": "uint256"
        }
      ],
      "name": "getPriceByToken",
      "outputs": [
        {
          "internalType": "uint256",
          "name": "",
          "type": "uint256"
        }
      ],
      "stateMutability": "view",
      "type": "function",
      "constant": true
    },
    {
      "inputs": [
        {
          "internalType": "uint256",
          "name": "_tokenId",
          "type": "uint256"
        }
      ],
      "name": "getListing",
      "outputs": [
        {
          "components": [
            {
              "internalType": "uint256",
              "name": "tokenId",
              "type": "uint256"
            },
            {
              "internalType": "uint256",
              "name": "price",
              "type": "uint256"
            },
            {
              "internalType": "address",
              "name": "seller",
              "type": "address"
            }
          ],
          "internalType": "struct INftVendorStorage.Listing",
          "name": "",
          "type": "tuple"
        }
      ],
      "stateMutability": "view",
      "type": "function",
      "constant": true
    },
    {
      "inputs": [],
      "name": "getAllListedNFTs",
      "outputs": [
        {
          "components": [
            {
              "internalType": "uint256",
              "name": "tokenId",
              "type": "uint256"
            },
            {
              "internalType": "uint256",
              "name": "price",
              "type": "uint256"
            },
            {
              "internalType": "address",
              "name": "seller",
              "type": "address"
            }
          ],
          "internalType": "struct INftVendorStorage.Listing[]",
          "name": "",
          "type": "tuple[]"
        }
      ],
      "stateMutability": "view",
      "type": "function",
      "constant": true
    },
    {
      "inputs": [
        {
          "internalType": "uint256",
          "name": "_tokenId",
          "type": "uint256"
        }
      ],
      "name": "getRoyalty",
      "outputs": [
        {
          "internalType": "uint256",
          "name": "",
          "type": "uint256"
        }
      ],
      "stateMutability": "view",
      "type": "function",
      "constant": true
    },
    {
      "inputs": [
        {
          "internalType": "uint256",
          "name": "tokenId",
          "type": "uint256"
        },
        {
          "internalType": "uint256",
          "name": "royaltyAmount",
          "type": "uint256"
        },
        {
          "internalType": "bool",
          "name": "isERC20",
          "type": "bool"
        }
      ],
      "name": "emitTxFee",
      "outputs": [],
      "stateMutability": "nonpayable",
      "type": "function"
    },
    {
      "inputs": [
        {
          "internalType": "uint256",
          "name": "tokenId",
          "type": "uint256"
        },
        {
          "internalType": "uint256",
          "name": "price",
          "type": "uint256"
        }
      ],
      "name": "listItem",
      "outputs": [],
      "stateMutability": "nonpayable",
      "type": "function"
    },
    {
      "inputs": [
        {
          "internalType": "uint256",
          "name": "tokenId",
          "type": "uint256"
        }
      ],
      "name": "cancelListing",
      "outputs": [],
      "stateMutability": "nonpayable",
      "type": "function"
    },
    {
      "inputs": [
        {
          "internalType": "uint256",
          "name": "tokenId",
          "type": "uint256"
        }
      ],
      "name": "buyItem",
      "outputs": [],
      "stateMutability": "payable",
      "type": "function",
      "payable": true
    },
    {
      "inputs": [
        {
          "internalType": "uint256",
          "name": "tokenId",
          "type": "uint256"
        },
        {
          "internalType": "address",
          "name": "erc20Token",
          "type": "address"
        }
      ],
      "name": "buyNFTWithERC20",
      "outputs": [],
      "stateMutability": "nonpayable",
      "type": "function"
    },
    {
      "inputs": [
        {
          "internalType": "uint256",
          "name": "tokenId",
          "type": "uint256"
        },
        {
          "internalType": "uint256",
          "name": "newPrice",
          "type": "uint256"
        }
      ],
      "name": "updateListingPrice",
      "outputs": [],
      "stateMutability": "nonpayable",
      "type": "function"
    },
    {
      "inputs": [
        {
          "internalType": "address",
          "name": "erc20Token",
          "type": "address"
        }
      ],
      "name": "withdrawERC20",
      "outputs": [],
      "stateMutability": "nonpayable",
      "type": "function"
    },
    {
      "inputs": [],
      "name": "withdrawProceeds",
      "outputs": [],
      "stateMutability": "nonpayable",
      "type": "function"
    },
    {
      "inputs": [],
      "name": "totalSupply",
      "outputs": [
        {
          "internalType": "uint256",
          "name": "",
          "type": "uint256"
        }
      ],
      "stateMutability": "view",
      "type": "function",
      "constant": true
    },
    {
      "inputs": [
        {
          "internalType": "uint256",
          "name": "index",
          "type": "uint256"
        }
      ],
      "name": "tokenByIndex",
      "outputs": [
        {
          "internalType": "uint256",
          "name": "",
          "type": "uint256"
        }
      ],
      "stateMutability": "view",
      "type": "function",
      "constant": true
    },
    {
      "inputs": [
        {
          "internalType": "address",
          "name": "_address",
          "type": "address"
        },
        {
          "internalType": "bool",
          "name": "_excluded",
          "type": "bool"
        }
      ],
      "name": "setExcludedFromList",
      "outputs": [],
      "stateMutability": "nonpayable",
      "type": "function"
    },
    {
      "inputs": [
        {
          "internalType": "address",
          "name": "erc20Token",
          "type": "address"
        }
      ],
      "name": "addERC20Token",
      "outputs": [],
      "stateMutability": "nonpayable",
      "type": "function"
    },
    {
      "inputs": [
        {
          "internalType": "address",
          "name": "erc20Token",
          "type": "address"
        }
      ],
      "name": "removeERC20Token",
      "outputs": [],
      "stateMutability": "nonpayable",
      "type": "function"
    },
    {
      "inputs": [
        {
          "internalType": "uint256",
          "name": "tokenId",
          "type": "uint256"
        },
        {
          "internalType": "address",
          "name": "erc20Token",
          "type": "address"
        },
        {
          "internalType": "uint256",
          "name": "price",
          "type": "uint256"
        }
      ],
      "name": "updateERC20TokenPrice",
      "outputs": [],
      "stateMutability": "nonpayable",
      "type": "function"
    },
    {
      "inputs": [
        {
          "internalType": "uint256",
          "name": "_tokenId",
          "type": "uint256"
        },
        {
          "internalType": "uint256",
          "name": "_highestBid",
          "type": "uint256"
        }
      ],
      "name": "calculateRoyaltyForAcceptedOffer",
      "outputs": [
        {
          "internalType": "uint256",
          "name": "",
          "type": "uint256"
        }
      ],
      "stateMutability": "view",
      "type": "function",
      "constant": true
    },
    {
      "inputs": [
        {
          "internalType": "uint256",
          "name": "tokenId",
          "type": "uint256"
        },
        {
          "internalType": "uint256",
          "name": "royalty",
          "type": "uint256"
        }
      ],
      "name": "_payTxFee",
      "outputs": [],
      "stateMutability": "nonpayable",
      "type": "function"
    }
  ],
  "bytecode": "0x60a06040523060805234801561001457600080fd5b5060805161384361004c60003960008181610b2401528181610b6401528181610de801528181610e280152610f7701526138436000f3fe6080604052600436106101ee5760003560e01c8063654e60911161010d5780639989a5fb116100a0578063ca9ff9221161006f578063ca9ff9221461059a578063ccb1fb44146105ba578063e7fb74c7146105da578063f2fde38b146105ed578063f4f3b2001461060d57600080fd5b80639989a5fb1461051a578063b6f261151461053a578063c0c53b8b1461055a578063c46049431461057a57600080fd5b8063883efa67116100dc578063883efa67146104a75780638da5cb5b146104c75780639038e693146104e5578063971ccc16146104fa57600080fd5b8063654e60911461043157806369396f0c14610451578063715018a6146104715780637de1e5361461048657600080fd5b80633659cfe61161018557806352d1902d1161015457806352d1902d146103bc57806358c1d7fe146103d15780635deba0e4146103f1578063608403b91461041157600080fd5b80633659cfe6146103475780634b58ffaa146103675780634f1ef286146103895780634f6ccce71461039c57600080fd5b80631af9cf49116101c15780631af9cf49146102b15780632a55205a146102d15780632fa8f92414610310578063305a67a81461032557600080fd5b806301ffc9a7146101f357806302d05d3f14610228578063107a274a1461026157806318160ddd1461028e575b600080fd5b3480156101ff57600080fd5b5061021361020e366004613158565b61062d565b60405190151581526020015b60405180910390f35b34801561023457600080fd5b5061016154610249906001600160a01b031681565b6040516001600160a01b03909116815260200161021f565b34801561026d57600080fd5b5061028161027c366004613182565b610664565b60405161021f919061319b565b34801561029a57600080fd5b506102a36106ff565b60405190815260200161021f565b3480156102bd57600080fd5b506102a36102cc366004613182565b610773565b3480156102dd57600080fd5b506102f16102ec3660046131c5565b61079a565b604080516001600160a01b03909316835260208301919091520161021f565b34801561031c57600080fd5b50610213610846565b34801561033157600080fd5b50610345610340366004613182565b6108b5565b005b34801561035357600080fd5b506103456103623660046131fc565b610b1a565b34801561037357600080fd5b5061037c610bf9565b60405161021f9190613219565b6103456103973660046132cb565b610dde565b3480156103a857600080fd5b506102a36103b7366004613182565b610eae565b3480156103c857600080fd5b506102a3610f6a565b3480156103dd57600080fd5b506102a36103ec366004613373565b61101d565b3480156103fd57600080fd5b5061034561040c3660046133ad565b61109b565b34801561041d57600080fd5b5061034561042c3660046131c5565b61110f565b34801561043d57600080fd5b506102a361044c3660046131c5565b6111b1565b34801561045d57600080fd5b5061034561046c3660046133e6565b6111be565b34801561047d57600080fd5b50610345611379565b34801561049257600080fd5b5061016054610249906001600160a01b031681565b3480156104b357600080fd5b506103456104c23660046131c5565b61138d565b3480156104d357600080fd5b5060c9546001600160a01b0316610249565b3480156104f157600080fd5b506103456116e8565b34801561050657600080fd5b506103456105153660046131fc565b61186b565b34801561052657600080fd5b5061034561053536600461341e565b61193e565b34801561054657600080fd5b50610345610555366004613443565b611e7d565b34801561056657600080fd5b5061034561057536600461347c565b611eb6565b34801561058657600080fd5b506103456105953660046131c5565b61201e565b3480156105a657600080fd5b506103456105b53660046131fc565b612327565b3480156105c657600080fd5b506102136105d5366004613182565b612369565b6103456105e8366004613182565b6123f5565b3480156105f957600080fd5b506103456106083660046131fc565b612918565b34801561061957600080fd5b506103456106283660046131fc565b61298e565b60006001600160e01b0319821663152a902d60e11b148061065e57506301ffc9a760e01b6001600160e01b03198316145b92915050565b6106916040518060600160405280600081526020016000815260200160006001600160a01b031681525090565b61015f5460405163083d13a560e11b8152600481018490526001600160a01b039091169063107a274a90602401606060405180830381865afa1580156106db573d6000803e3d6000fd5b505050506040513d601f19601f8201168201806040525081019061065e91906134bc565b61015f54604080516359cba24960e11b815290516000926001600160a01b03169163b39744929160048083019260209291908290030181865afa15801561074a573d6000803e3d6000fd5b505050506040513d601f19601f8201168201806040525081019061076e919061351e565b905090565b60008061077f83610664565b9050600061079184836020015161079a565b95945050505050565b60008281526034602090815260408083208151808301909252546001600160a01b038116808352600160a01b9091046001600160601b031692820192909252829161080f5750604080518082019091526033546001600160a01b0381168252600160a01b90046001600160601b031660208201525b60208101516000906127109061082e906001600160601b03168761354d565b6108389190613564565b915196919550909350505050565b61015f5460408051630bea3e4960e21b815290516000926001600160a01b031691632fa8f9249160048083019260209291908290030181865afa158015610891573d6000803e3d6000fd5b505050506040513d601f19601f8201168201806040525081019061076e9190613586565b610160546040516331a9108f60e11b815260048101839052829133916001600160a01b03909116906000908290636352211e90602401602060405180830381865afa158015610908573d6000803e3d6000fd5b505050506040513d601f19601f8201168201806040525081019061092c91906135a3565b9050806001600160a01b0316836001600160a01b031614610960576040516330cd747160e01b815260040160405180910390fd5b61015f5460405163083d13a560e11b81526004810187905286916000916001600160a01b039091169063107a274a90602401606060405180830381865afa1580156109af573d6000803e3d6000fd5b505050506040513d601f19601f820116820180604052508101906109d391906134bc565b90506000816020015111610a165761016054604051631a0c522360e21b81526001600160a01b039091166004820152602481018390526044015b60405180910390fd5b61015f54604051637314163760e11b8152600481018990526001600160a01b039091169063e6282c6e90602401600060405180830381600087803b158015610a5d57600080fd5b505af1158015610a71573d6000803e3d6000fd5b505061015f5460405163958a12a160e01b8152600481018b90526001600160a01b03909116925063958a12a19150602401600060405180830381600087803b158015610abc57600080fd5b505af1158015610ad0573d6000803e3d6000fd5b5050610160546040518a93506001600160a01b03909116915033907f9ba1a3cb55ce8d63d072a886f94d2a744f50cddf82128e897d0661f5ec62315890600090a450505050505050565b6001600160a01b037f0000000000000000000000000000000000000000000000000000000000000000163003610b625760405162461bcd60e51b8152600401610a0d906135c0565b7f00000000000000000000000000000000000000000000000000000000000000006001600160a01b0316610bab6000805160206137c7833981519152546001600160a01b031690565b6001600160a01b031614610bd15760405162461bcd60e51b8152600401610a0d9061360c565b610bda81612a7b565b60408051600080825260208201909252610bf691839190612a83565b50565b6060600061015f60009054906101000a90046001600160a01b03166001600160a01b031663b39744926040518163ffffffff1660e01b8152600401602060405180830381865afa158015610c51573d6000803e3d6000fd5b505050506040513d601f19601f82011682018060405250810190610c75919061351e565b9050600061015f60009054906101000a90046001600160a01b03166001600160a01b0316634f9ce8ab6040518163ffffffff1660e01b8152600401602060405180830381865afa158015610ccd573d6000803e3d6000fd5b505050506040513d601f19601f82011682018060405250810190610cf1919061351e565b90506000808267ffffffffffffffff811115610d0f57610d0f613284565b604051908082528060200260200182016040528015610d6d57816020015b610d5a6040518060600160405280600081526020016000815260200160006001600160a01b031681525090565b815260200190600190039081610d2d5790505b50905060005b84811015610dd5576000610d8682610eae565b90506000610d9382610664565b905080848681518110610da857610da8613658565b6020908102919091010152610dbe60018661366e565b945050508080610dcd90613681565b915050610d73565b50949350505050565b6001600160a01b037f0000000000000000000000000000000000000000000000000000000000000000163003610e265760405162461bcd60e51b8152600401610a0d906135c0565b7f00000000000000000000000000000000000000000000000000000000000000006001600160a01b0316610e6f6000805160206137c7833981519152546001600160a01b031690565b6001600160a01b031614610e955760405162461bcd60e51b8152600401610a0d9061360c565b610e9e82612a7b565b610eaa82826001612a83565b5050565b6000610eb86106ff565b8210610efc5760405162461bcd60e51b8152602060048201526013602482015272496e646578206f7574206f6620626f756e647360681b6044820152606401610a0d565b61015f5460405163a92d432f60e01b8152600481018490526001600160a01b039091169063a92d432f90602401602060405180830381865afa158015610f46573d6000803e3d6000fd5b505050506040513d601f19601f8201168201806040525081019061065e919061351e565b6000306001600160a01b037f0000000000000000000000000000000000000000000000000000000000000000161461100a5760405162461bcd60e51b815260206004820152603860248201527f555550535570677261646561626c653a206d757374206e6f742062652063616c60448201527f6c6564207468726f7567682064656c656761746563616c6c00000000000000006064820152608401610a0d565b506000805160206137c783398151915290565b61015f54604051632c60ebff60e11b81526001600160a01b0384811660048301526024820184905260009216906358c1d7fe90604401602060405180830381865afa158015611070573d6000803e3d6000fd5b505050506040513d601f19601f82011682018060405250810190611094919061351e565b9392505050565b6110a3612bee565b61015f5460405163177ae83960e21b81526001600160a01b038481166004830152831515602483015290911690635deba0e490604401600060405180830381600087803b1580156110f357600080fd5b505af1158015611107573d6000803e3d6000fd5b505050505050565b610161546040516000916001600160a01b03169083908381818185875af1925050503d806000811461115d576040519150601f19603f3d011682016040523d82523d6000602084013e611162565b606091505b505090508061117057600080fd5b604080518381526000602082015284917f47dcbf55c71c9c4f32d9a8e1a956947981998a1c3a474c9f431ac27afe9f62fa91015b60405180910390a2505050565b600080610791848461079a565b610160546040516331a9108f60e11b815260048101859052849133916001600160a01b03909116906000908290636352211e90602401602060405180830381865afa158015611211573d6000803e3d6000fd5b505050506040513d601f19601f8201168201806040525081019061123591906135a3565b9050806001600160a01b0316836001600160a01b031614611269576040516330cd747160e01b815260040160405180910390fd5b6101605460405163020604bf60e21b8152600481018990526001600160a01b03909116903090829063081812fc90602401602060405180830381865afa1580156112b7573d6000803e3d6000fd5b505050506040513d601f19601f820116820180604052508101906112db91906135a3565b6001600160a01b0316146113015760405162461bcd60e51b8152600401610a0d9061369a565b61015f54604051630c6ce41560e01b81526001600160a01b038981166004830152602482018b90526044820189905290911690630c6ce41590606401600060405180830381600087803b15801561135757600080fd5b505af115801561136b573d6000803e3d6000fd5b505050505050505050505050565b611381612bee565b61138b6000612c48565b565b61015f5460405163083d13a560e11b81526004810184905283916000916001600160a01b039091169063107a274a90602401606060405180830381865afa1580156113dc573d6000803e3d6000fd5b505050506040513d601f19601f8201168201806040525081019061140091906134bc565b60208101519091501561143d5761016054604051634a5568d560e01b81526001600160a01b03909116600482015260248101839052604401610a0d565b610160546040516331a9108f60e11b815260048101869052859133916001600160a01b03909116906000908290636352211e90602401602060405180830381865afa158015611490573d6000803e3d6000fd5b505050506040513d601f19601f820116820180604052508101906114b491906135a3565b9050806001600160a01b0316836001600160a01b0316146114e8576040516330cd747160e01b815260040160405180910390fd5b600087116115335760405162461bcd60e51b81526020600482015260186024820152775072696365206d7573742062652061626f7665207a65726f60401b6044820152606401610a0d565b6101605460405163020604bf60e21b8152600481018a90526001600160a01b03909116903090829063081812fc90602401602060405180830381865afa158015611581573d6000803e3d6000fd5b505050506040513d601f19601f820116820180604052508101906115a591906135a3565b6001600160a01b0316146115cb5760405162461bcd60e51b8152600401610a0d9061369a565b61015f546040516334235a9d60e11b8152600481018b9052602481018a90523360448201526001600160a01b0390911690636846b53a90606401600060405180830381600087803b15801561161f57600080fd5b505af1158015611633573d6000803e3d6000fd5b505061015f546040516336f82c8760e21b8152600481018d90526001600160a01b03909116925063dbe0b21c9150602401600060405180830381600087803b15801561167e57600080fd5b505af1158015611692573d6000803e3d6000fd5b5050610160546040518b81528c93506001600160a01b03909116915033907fd547e933094f12a9159076970143ebe73234e64480317844b0dcb36117116de49060200160405180910390a4505050505050505050565b61015f5460405163504732fb60e11b81523360048201526000916001600160a01b03169063a08e65f690602401602060405180830381865afa158015611732573d6000803e3d6000fd5b505050506040513d601f19601f82011682018060405250810190611756919061351e565b9050600081116117795760405163c4d8fa8760e01b815260040160405180910390fd5b61015f5460405163affaf36960e01b8152336004820152600060248201526001600160a01b039091169063affaf36990604401600060405180830381600087803b1580156117c657600080fd5b505af11580156117da573d6000803e3d6000fd5b50506040516000925033915083908381818185875af1925050503d8060008114611820576040519150601f19603f3d011682016040523d82523d6000602084013e611825565b606091505b5050905080610eaa5760405162461bcd60e51b81526020600482015260126024820152714661696c656420746f20776974686472617760701b6044820152606401610a0d565b611873612bee565b61015f546040516364cbede560e11b81526001600160a01b038381166004830152600160248301529091169063c997dbca90604401600060405180830381600087803b1580156118c257600080fd5b505af11580156118d6573d6000803e3d6000fd5b505061015f546040516373a7171760e11b81526001600160a01b038581166004830152909116925063e74e2e2e91506024015b600060405180830381600087803b15801561192357600080fd5b505af1158015611937573d6000803e3d6000fd5b5050505050565b61015f5460405163083d13a560e11b81526004810184905283916000916001600160a01b039091169063107a274a90602401606060405180830381865afa15801561198d573d6000803e3d6000fd5b505050506040513d601f19601f820116820180604052508101906119b191906134bc565b905060008160200151116119ef5761016054604051631a0c522360e21b81526001600160a01b03909116600482015260248101839052604401610a0d565b610160546040516331a9108f60e11b815260048101869052859133916001600160a01b03909116906000908290636352211e90602401602060405180830381865afa158015611a42573d6000803e3d6000fd5b505050506040513d601f19601f82011682018060405250810190611a6691906135a3565b9050806001600160a01b0316836001600160a01b031603611a9a576040516365b023fd60e01b815260040160405180910390fd5b611aa2612c9a565b6000611aad89610664565b90506000611abb898b61101d565b604051636eb1769f60e11b8152336004820152306024820152909150899060009083906001600160a01b0384169063dd62ed3e90604401602060405180830381865afa158015611b0f573d6000803e3d6000fd5b505050506040513d601f19601f82011682018060405250810190611b33919061351e565b1015611b815760405162461bcd60e51b815260206004820152601760248201527f496e73756666696369656e7420616c6c6f77616e63652e0000000000000000006044820152606401610a0d565b611b89610846565b611c3057610160546040516331a9108f60e11b8152600481018e90526000916001600160a01b031690636352211e90602401602060405180830381865afa158015611bd8573d6000803e3d6000fd5b505050506040513d601f19601f82011682018060405250810190611bfc91906135a3565b610161549091506001600160a01b03808316911614611c2e57611c1f8d8561079a565b9250611c2e90508c8e84612cf3565b505b816001600160a01b03166323b872dd3386604001518487611c5191906136d1565b6040518463ffffffff1660e01b8152600401611c6f939291906136e4565b6020604051808303816000875af1158015611c8e573d6000803e3d6000fd5b505050506040513d601f19601f82011682018060405250810190611cb29190613586565b5061016060009054906101000a90046001600160a01b03166001600160a01b03166342842e0e8560400151338f6040518463ffffffff1660e01b8152600401611cfd939291906136e4565b600060405180830381600087803b158015611d1757600080fd5b505af1158015611d2b573d6000803e3d6000fd5b505061015f54604051637314163760e11b81526001600160a01b03909116925063e6282c6e9150611d64908f9060040190815260200190565b600060405180830381600087803b158015611d7e57600080fd5b505af1158015611d92573d6000803e3d6000fd5b505061015f5460405163958a12a160e01b81526001600160a01b03909116925063958a12a19150611dcb908f9060040190815260200190565b600060405180830381600087803b158015611de557600080fd5b505af1158015611df9573d6000803e3d6000fd5b505050508b61016060009054906101000a90046001600160a01b03166001600160a01b0316336001600160a01b03167f263223b1dd81e51054a4e6f791d45a4a1ddb4aadcd93a2dfd892615c3fdac1878760200151604051611e5d91815260200190565b60405180910390a450505050611e736001606555565b5050505050505050565b60408051838152821515602082015284917f47dcbf55c71c9c4f32d9a8e1a956947981998a1c3a474c9f431ac27afe9f62fa91016111a4565b600054610100900460ff1615808015611ed65750600054600160ff909116105b80611ef05750303b158015611ef0575060005460ff166001145b611f535760405162461bcd60e51b815260206004820152602e60248201527f496e697469616c697a61626c653a20636f6e747261637420697320616c72656160448201526d191e481a5b9a5d1a585b1a5e995960921b6064820152608401610a0d565b6000805460ff191660011790558015611f76576000805461ff0019166101001790555b611f7e612db0565b611f86612ddf565b61016080546001600160a01b038087166001600160a01b031992831617909255610161805486841690831617905561015f805492851692909116919091179055611fd2336103e8612e06565b8015612018576000805461ff0019169055604051600181527f7f26b83ff96e1f2b6a682f133852f6798a09c465da95921460cefb38474024989060200160405180910390a15b50505050565b61015f5460405163083d13a560e11b81526004810184905283916000916001600160a01b039091169063107a274a90602401606060405180830381865afa15801561206d573d6000803e3d6000fd5b505050506040513d601f19601f8201168201806040525081019061209191906134bc565b905060008160200151116120cf5761016054604051631a0c522360e21b81526001600160a01b03909116600482015260248101839052604401610a0d565b6120d7612c9a565b610160546040516331a9108f60e11b815260048101869052859133916001600160a01b03909116906000908290636352211e90602401602060405180830381865afa15801561212a573d6000803e3d6000fd5b505050506040513d601f19601f8201168201806040525081019061214e91906135a3565b9050806001600160a01b0316836001600160a01b031614612182576040516330cd747160e01b815260040160405180910390fd5b600087116121cd5760405162461bcd60e51b81526020600482015260186024820152775072696365206d7573742062652061626f7665207a65726f60401b6044820152606401610a0d565b6101605460405163020604bf60e21b8152600481018a90526001600160a01b03909116903090829063081812fc90602401602060405180830381865afa15801561221b573d6000803e3d6000fd5b505050506040513d601f19601f8201168201806040525081019061223f91906135a3565b6001600160a01b0316146122655760405162461bcd60e51b8152600401610a0d9061369a565b61015f546040516334235a9d60e11b8152600481018b9052602481018a90523360448201526001600160a01b0390911690636846b53a90606401600060405180830381600087803b1580156122b957600080fd5b505af11580156122cd573d6000803e3d6000fd5b5050610160546040518b81528c93506001600160a01b03909116915033907fd547e933094f12a9159076970143ebe73234e64480317844b0dcb36117116de49060200160405180910390a450505050506120186001606555565b61232f612bee565b61015f546040516364cbede560e11b81526001600160a01b038381166004830152600060248301529091169063c997dbca90604401611909565b610160546040516331a9108f60e11b81526004810183905260009182916001600160a01b0390911690636352211e90602401602060405180830381865afa1580156123b8573d6000803e3d6000fd5b505050506040513d601f19601f820116820180604052508101906123dc91906135a3565b610161546001600160a01b039182169116149392505050565b61015f5460405163083d13a560e11b81526004810183905282916000916001600160a01b039091169063107a274a90602401606060405180830381865afa158015612444573d6000803e3d6000fd5b505050506040513d601f19601f8201168201806040525081019061246891906134bc565b905060008160200151116124a65761016054604051631a0c522360e21b81526001600160a01b03909116600482015260248101839052604401610a0d565b610160546040516331a9108f60e11b815260048101859052849133916001600160a01b03909116906000908290636352211e90602401602060405180830381865afa1580156124f9573d6000803e3d6000fd5b505050506040513d601f19601f8201168201806040525081019061251d91906135a3565b9050806001600160a01b0316836001600160a01b031603612551576040516365b023fd60e01b815260040160405180910390fd5b612559612c9a565b61015f5460405163083d13a560e11b8152600481018990526000916001600160a01b03169063107a274a90602401606060405180830381865afa1580156125a4573d6000803e3d6000fd5b505050506040513d601f19601f820116820180604052508101906125c891906134bc565b9050806020015134101561260c5760405162461bcd60e51b815260206004820152600b60248201526a141c9a58d9539bdd13595d60aa1b6044820152606401610a0d565b610160546040516331a9108f60e11b8152600481018a90526000916001600160a01b031690636352211e90602401602060405180830381865afa158015612657573d6000803e3d6000fd5b505050506040513d601f19601f8201168201806040525081019061267b91906135a3565b9050600080612688610846565b9050801580156126a75750610161546001600160a01b03848116911614155b156126c1576126b58b610773565b91506126c18b8361110f565b60408401516000906001600160a01b03166126dc84346136d1565b604051600081818185875af1925050503d8060008114612718576040519150601f19603f3d011682016040523d82523d6000602084013e61271d565b606091505b50509050806127605760405162461bcd60e51b815260206004820152600f60248201526e151c985b9cd9995c8819985a5b1959608a1b6044820152606401610a0d565b61016060009054906101000a90046001600160a01b03166001600160a01b03166342842e0e8660400151338f6040518463ffffffff1660e01b81526004016127aa939291906136e4565b600060405180830381600087803b1580156127c457600080fd5b505af11580156127d8573d6000803e3d6000fd5b505061015f54604051637314163760e11b81526001600160a01b03909116925063e6282c6e9150612811908f9060040190815260200190565b600060405180830381600087803b15801561282b57600080fd5b505af115801561283f573d6000803e3d6000fd5b505061015f5460405163958a12a160e01b81526001600160a01b03909116925063958a12a19150612878908f9060040190815260200190565b600060405180830381600087803b15801561289257600080fd5b505af11580156128a6573d6000803e3d6000fd5b505050508b85604001516001600160a01b0316336001600160a01b03167f263223b1dd81e51054a4e6f791d45a4a1ddb4aadcd93a2dfd892615c3fdac18788602001516040516128f891815260200190565b60405180910390a4505050505061290f6001606555565b50505050505050565b612920612bee565b6001600160a01b0381166129855760405162461bcd60e51b815260206004820152602660248201527f4f776e61626c653a206e6577206f776e657220697320746865207a65726f206160448201526564647265737360d01b6064820152608401610a0d565b610bf681612c48565b612996612bee565b610161546040516370a0823160e01b8152306004820181905283926001600160a01b03808516936323b872dd9392919091169084906370a0823190602401602060405180830381865afa1580156129f1573d6000803e3d6000fd5b505050506040513d601f19601f82011682018060405250810190612a15919061351e565b6040518463ffffffff1660e01b8152600401612a33939291906136e4565b6020604051808303816000875af1158015612a52573d6000803e3d6000fd5b505050506040513d601f19601f82011682018060405250810190612a769190613586565b505050565b610bf6612bee565b7f4910fdfa16fed3260ed0e7147f7cc6da11a60208b5b9406d12a635614ffd91435460ff1615612ab657612a7683612f03565b826001600160a01b03166352d1902d6040518163ffffffff1660e01b8152600401602060405180830381865afa925050508015612b10575060408051601f3d908101601f19168201909252612b0d9181019061351e565b60015b612b735760405162461bcd60e51b815260206004820152602e60248201527f45524331393637557067726164653a206e657720696d706c656d656e7461746960448201526d6f6e206973206e6f74205555505360901b6064820152608401610a0d565b6000805160206137c78339815191528114612be25760405162461bcd60e51b815260206004820152602960248201527f45524331393637557067726164653a20756e737570706f727465642070726f786044820152681a58589b195555525160ba1b6064820152608401610a0d565b50612a76838383612f9f565b60c9546001600160a01b0316331461138b5760405162461bcd60e51b815260206004820181905260248201527f4f776e61626c653a2063616c6c6572206973206e6f7420746865206f776e65726044820152606401610a0d565b60c980546001600160a01b038381166001600160a01b0319831681179093556040519116919082907f8be0079c531659141344cd1fd0a4f28419497f9722a3daafe3b4186f6b6457e090600090a35050565b600260655403612cec5760405162461bcd60e51b815260206004820152601f60248201527f5265656e7472616e637947756172643a207265656e7472616e742063616c6c006044820152606401610a0d565b6002606555565b610161546040516323b872dd60e01b815284916001600160a01b03808416926323b872dd92612d2b92339291169087906004016136e4565b6020604051808303816000875af1158015612d4a573d6000803e3d6000fd5b505050506040513d601f19601f82011682018060405250810190612d6e9190613586565b50604080518381526001602082015284917f47dcbf55c71c9c4f32d9a8e1a956947981998a1c3a474c9f431ac27afe9f62fa910160405180910390a250505050565b600054610100900460ff16612dd75760405162461bcd60e51b8152600401610a0d90613708565b61138b612fc4565b600054610100900460ff1661138b5760405162461bcd60e51b8152600401610a0d90613708565b6127106001600160601b0382161115612e745760405162461bcd60e51b815260206004820152602a60248201527f455243323938313a20726f79616c7479206665652077696c6c206578636565646044820152692073616c65507269636560b01b6064820152608401610a0d565b6001600160a01b038216612eca5760405162461bcd60e51b815260206004820152601960248201527f455243323938313a20696e76616c6964207265636569766572000000000000006044820152606401610a0d565b604080518082019091526001600160a01b039092168083526001600160601b039091166020909201829052600160a01b90910217603355565b6001600160a01b0381163b612f705760405162461bcd60e51b815260206004820152602d60248201527f455243313936373a206e657720696d706c656d656e746174696f6e206973206e60448201526c1bdd08184818dbdb9d1c9858dd609a1b6064820152608401610a0d565b6000805160206137c783398151915280546001600160a01b0319166001600160a01b0392909216919091179055565b612fa883612ff4565b600082511180612fb55750805b15612a76576120188383613034565b600054610100900460ff16612feb5760405162461bcd60e51b8152600401610a0d90613708565b61138b33612c48565b612ffd81612f03565b6040516001600160a01b038216907fbc7cd75a20ee27fd9adebab32041f755214dbc6bffa90cc0225b39da2e5c2d3b90600090a250565b60606001600160a01b0383163b61309c5760405162461bcd60e51b815260206004820152602660248201527f416464726573733a2064656c65676174652063616c6c20746f206e6f6e2d636f6044820152651b9d1c9858dd60d21b6064820152608401610a0d565b600080846001600160a01b0316846040516130b79190613777565b600060405180830381855af49150503d80600081146130f2576040519150601f19603f3d011682016040523d82523d6000602084013e6130f7565b606091505b509150915061079182826040518060600160405280602781526020016137e76027913960608315613129575081611094565b611094838381511561313e5781518083602001fd5b8060405162461bcd60e51b8152600401610a0d9190613793565b60006020828403121561316a57600080fd5b81356001600160e01b03198116811461109457600080fd5b60006020828403121561319457600080fd5b5035919050565b81518152602080830151908201526040808301516001600160a01b0316908201526060810161065e565b600080604083850312156131d857600080fd5b50508035926020909101359150565b6001600160a01b0381168114610bf657600080fd5b60006020828403121561320e57600080fd5b8135611094816131e7565b6020808252825182820181905260009190848201906040850190845b818110156132785761326583855180518252602080820151908301526040908101516001600160a01b0316910152565b9284019260609290920191600101613235565b50909695505050505050565b634e487b7160e01b600052604160045260246000fd5b604051601f8201601f1916810167ffffffffffffffff811182821017156132c3576132c3613284565b604052919050565b600080604083850312156132de57600080fd5b82356132e9816131e7565b915060208381013567ffffffffffffffff8082111561330757600080fd5b818601915086601f83011261331b57600080fd5b81358181111561332d5761332d613284565b61333f601f8201601f1916850161329a565b9150808252878482850101111561335557600080fd5b80848401858401376000848284010152508093505050509250929050565b6000806040838503121561338657600080fd5b8235613391816131e7565b946020939093013593505050565b8015158114610bf657600080fd5b600080604083850312156133c057600080fd5b82356133cb816131e7565b915060208301356133db8161339f565b809150509250929050565b6000806000606084860312156133fb57600080fd5b83359250602084013561340d816131e7565b929592945050506040919091013590565b6000806040838503121561343157600080fd5b8235915060208301356133db816131e7565b60008060006060848603121561345857600080fd5b833592506020840135915060408401356134718161339f565b809150509250925092565b60008060006060848603121561349157600080fd5b833561349c816131e7565b925060208401356134ac816131e7565b91506040840135613471816131e7565b6000606082840312156134ce57600080fd5b6040516060810181811067ffffffffffffffff821117156134f1576134f1613284565b806040525082518152602083015160208201526040830151613512816131e7565b60408201529392505050565b60006020828403121561353057600080fd5b5051919050565b634e487b7160e01b600052601160045260246000fd5b808202811582820484141761065e5761065e613537565b60008261358157634e487b7160e01b600052601260045260246000fd5b500490565b60006020828403121561359857600080fd5b81516110948161339f565b6000602082840312156135b557600080fd5b8151611094816131e7565b6020808252602c908201527f46756e6374696f6e206d7573742062652063616c6c6564207468726f7567682060408201526b19195b1959d85d1958d85b1b60a21b606082015260800190565b6020808252602c908201527f46756e6374696f6e206d7573742062652063616c6c6564207468726f7567682060408201526b6163746976652070726f787960a01b606082015260800190565b634e487b7160e01b600052603260045260246000fd5b8082018082111561065e5761065e613537565b60006001820161369357613693613537565b5060010190565b6020808252601c908201527f4e6f7420617070726f76656420666f72206d61726b6574706c61636500000000604082015260600190565b8181038181111561065e5761065e613537565b6001600160a01b039384168152919092166020820152604081019190915260600190565b6020808252602b908201527f496e697469616c697a61626c653a20636f6e7472616374206973206e6f74206960408201526a6e697469616c697a696e6760a81b606082015260800190565b60005b8381101561376e578181015183820152602001613756565b50506000910152565b60008251613789818460208701613753565b9190910192915050565b60208152600082518060208401526137b2816040850160208701613753565b601f01601f1916919091016040019291505056fe360894a13ba1a3210667c828492db98dca3e2076cc3735a920a3ca505d382bbc416464726573733a206c6f772d6c6576656c2064656c65676174652063616c6c206661696c6564a2646970667358221220488fb4de2733414a0f13df1f390be17d5988218afef51bb7e4e9cb34aad8111a64736f6c63430008110033",
  "immutableReferences": {
    "746": [
      {
        "length": 32,
        "start": 2852
      },
      {
        "length": 32,
        "start": 2916
      },
      {
        "length": 32,
        "start": 3560
      },
      {
        "length": 32,
        "start": 3624
      },
      {
        "length": 32,
        "start": 3959
      }
    ]
  },
  "source": "// SPDX-License-Identifier: MIT\npragma solidity ^0.8.7;\n\nimport \"@openzeppelin/contracts-upgradeable/proxy/utils/Initializable.sol\";\n\nimport \"@openzeppelin/contracts-upgradeable/token/ERC721/IERC721Upgradeable.sol\";\nimport \"@openzeppelin/contracts-upgradeable/utils/introspection/IERC165Upgradeable.sol\";\nimport \"@openzeppelin/contracts-upgradeable/token/ERC20/IERC20Upgradeable.sol\";\nimport \"@openzeppelin/contracts-upgradeable/security/ReentrancyGuardUpgradeable.sol\";\nimport \"@openzeppelin/contracts-upgradeable/token/common/ERC2981Upgradeable.sol\";\nimport \"@openzeppelin/contracts-upgradeable/access/OwnableUpgradeable.sol\";\nimport \"@openzeppelin/contracts-upgradeable/proxy/utils/UUPSUpgradeable.sol\";\n\nimport \"./INftVendorStorage.sol\";\n\n// Check out https://github.com/Fantom-foundation/Artion-Contracts/blob/5c90d2bc0401af6fb5abf35b860b762b31dfee02/contracts/FantomMarketplace.sol\n// For a full decentralized nft marketplace\n\nerror PriceNotMet(address nftAddress, uint256 tokenId, uint256 price);\nerror NotListed(address nftAddress, uint256 tokenId);\nerror AlreadyListed(address nftAddress, uint256 tokenId);\nerror NoProceeds();\nerror NotOwner();\nerror IsNotOwner();\nerror NotApprovedForMarketplace();\nerror PriceMustBeAboveZero();\n\n// Error thrown for isNotOwner modifier\n// error IsNotOwner()\n\ncontract NftVendor is\n  Initializable,\n  ERC2981Upgradeable,\n  ReentrancyGuardUpgradeable,\n  OwnableUpgradeable,\n  UUPSUpgradeable\n{\n  INftVendorStorage private _vendorStorage;\n\n  address public collection;\n  address public creator;\n\n  event ItemListed(\n    address indexed from,\n    address indexed nftAddress,\n    uint256 indexed tokenId,\n    uint256 price\n  );\n\n  event ItemCanceled(\n    address indexed from,\n    address indexed nftAddress,\n    uint256 indexed tokenId\n  );\n\n  event ItemBought(\n    address indexed to,\n    address indexed from,\n    uint256 indexed tokenId,\n    uint256 price\n  );\n\n  event TxFeePaid(uint256 indexed tokenId, uint256 royalty, bool isERC20);\n\n  modifier notListed(uint256 tokenId) {\n    INftVendorStorage.Listing memory listing = _vendorStorage.getListing(\n      tokenId\n    );\n    if (listing.price > 0) {\n      revert AlreadyListed(collection, tokenId);\n    }\n    _;\n  }\n\n  modifier isListed(uint256 tokenId) {\n    INftVendorStorage.Listing memory listing = _vendorStorage.getListing(\n      tokenId\n    );\n    if (listing.price <= 0) {\n      revert NotListed(collection, tokenId);\n    }\n    _;\n  }\n\n  modifier isOwner(uint256 tokenId, address spender) {\n    IERC721Upgradeable nft = IERC721Upgradeable(collection);\n    address owner = nft.ownerOf(tokenId);\n    if (spender != owner) {\n      revert NotOwner();\n    }\n    _;\n  }\n\n  // IsNotOwner Modifier - Nft Owner can't buy his/her NFT\n  // Modifies buyItem function\n  // Owner should only list, cancel listing or update listing\n  modifier isNotOwner(uint256 tokenId, address spender) {\n    IERC721Upgradeable nft = IERC721Upgradeable(collection);\n    address owner = nft.ownerOf(tokenId);\n    if (spender == owner) {\n      revert IsNotOwner();\n    }\n    _;\n  }\n\n  function initialize(\n    address _collection,\n    address _creator,\n    address _storageAddress\n  ) public initializer {\n    __Ownable_init();\n    __UUPSUpgradeable_init();\n    collection = _collection;\n    creator = _creator;\n    _vendorStorage = INftVendorStorage(_storageAddress);\n    _setDefaultRoyalty(msg.sender, 1000);\n  }\n\n  function _authorizeUpgrade(address) internal override onlyOwner {}\n\n  /////////////////////\n  // Main Functions //\n  /////////////////////\n  /*\n   * @notice Method for listing NFT\n   * @param nftAddress Address of NFT contract\n   * @param tokenId Token ID of NFT\n   * @param price sale price for each item\n   */\n\n  /////////////////////\n  // Getter Functions //\n  /////////////////////\n\n  function getIsExcluded() public view returns (bool) {\n    return _vendorStorage.getIsExcluded();\n  }\n\n  function getIsOwnerSameAsCreator(\n    uint256 tokenId\n  ) external view returns (bool) {\n    address owner = IERC721Upgradeable(collection).ownerOf(tokenId);\n    return owner == creator;\n  }\n\n  function getPriceByToken(\n    address tokenAddress,\n    uint256 tokenId\n  ) public view returns (uint256) {\n    return _vendorStorage.getPriceByToken(tokenAddress, tokenId);\n  }\n\n  function getListing(\n    uint256 _tokenId\n  ) public view returns (INftVendorStorage.Listing memory) {\n    return _vendorStorage.getListing(_tokenId);\n  }\n\n  function getAllListedNFTs()\n    public\n    view\n    returns (INftVendorStorage.Listing[] memory)\n  {\n    uint allItemsCounts = _vendorStorage.getAllListedNftsLength();\n    uint listedItemsCounter = _vendorStorage.getCurrentListedItemsCounter();\n    uint currentIndex = 0;\n    INftVendorStorage.Listing[] memory items = new INftVendorStorage.Listing[](\n      listedItemsCounter\n    );\n\n    for (uint i = 0; i < allItemsCounts; i++) {\n      uint tokenId = tokenByIndex(i);\n      INftVendorStorage.Listing memory item = getListing(tokenId);\n      items[currentIndex] = item;\n      currentIndex += 1;\n    }\n\n    return items;\n  }\n\n  function getRoyalty(uint256 _tokenId) public view returns (uint256) {\n    INftVendorStorage.Listing memory listedItem = getListing(_tokenId);\n    (, uint256 royalty) = royaltyInfo(_tokenId, listedItem.price);\n    return royalty;\n  }\n\n  function emitTxFee(\n    uint256 tokenId,\n    uint256 royaltyAmount,\n    bool isERC20\n  ) external {\n    emit TxFeePaid(tokenId, royaltyAmount, isERC20);\n  }\n\n  function listItem(\n    uint256 tokenId,\n    uint256 price\n  ) external notListed(tokenId) isOwner(tokenId, msg.sender) {\n    // Check the value of `price` and revert if it's zero (since it cannot be negative)\n    require(price > 0, \"Price must be above zero\");\n\n    IERC721Upgradeable nft = IERC721Upgradeable(collection);\n    require(\n      nft.getApproved(tokenId) == address(this),\n      \"Not approved for marketplace\"\n    );\n\n    _vendorStorage.setListing(tokenId, price, msg.sender);\n    _vendorStorage.addTokenToAllTokensEnumeration(tokenId);\n    emit ItemListed(msg.sender, collection, tokenId, price);\n  }\n\n  /*\n   * @notice Method for cancelling listing\n   * @param collection Address of NFT contract\n   * @param tokenId Token ID of NFT\n   */\n  function cancelListing(\n    uint256 tokenId\n  ) external isOwner(tokenId, msg.sender) isListed(tokenId) {\n    _vendorStorage.deleteListing(tokenId);\n    _vendorStorage.removeTokenFromAllListedTokensEnumeration(tokenId);\n    emit ItemCanceled(msg.sender, collection, tokenId);\n  }\n\n  /*\n   * @notice Method for buying listing\n   * @notice The owner of an NFT could unapprove the marketplace,\n   * which would cause this function to fail\n   * Ideally you'd also have a `createOffer` functionality.\n   * @param collection Address of NFT contract\n   * @param tokenId Token ID of NFT\n   */\n  function buyItem(\n    uint256 tokenId\n  )\n    external\n    payable\n    isListed(tokenId)\n    isNotOwner(tokenId, msg.sender)\n    nonReentrant\n  {\n    INftVendorStorage.Listing memory listedItem = _vendorStorage.getListing(\n      tokenId\n    );\n\n    require(msg.value >= listedItem.price, \"PriceNotMet\");\n\n    address owner = IERC721Upgradeable(collection).ownerOf(tokenId);\n    uint256 royaltyAmount;\n    bool isExcluded = getIsExcluded();\n\n    if (!isExcluded && owner != creator) {\n      royaltyAmount = getRoyalty(tokenId);\n      _payTxFee(tokenId, royaltyAmount);\n    }\n\n    (bool success, ) = payable(listedItem.seller).call{\n      value: msg.value - royaltyAmount\n    }(\"\");\n    require(success, \"Transfer failed\");\n\n    IERC721Upgradeable(collection).safeTransferFrom(\n      listedItem.seller,\n      msg.sender,\n      tokenId\n    );\n\n    _vendorStorage.deleteListing(tokenId);\n    _vendorStorage.removeTokenFromAllListedTokensEnumeration(tokenId);\n\n    emit ItemBought(msg.sender, listedItem.seller, tokenId, listedItem.price);\n  }\n\n  function buyNFTWithERC20(\n    uint256 tokenId,\n    address erc20Token\n  ) external isListed(tokenId) isNotOwner(tokenId, msg.sender) nonReentrant {\n    INftVendorStorage.Listing memory listedItem = getListing(tokenId);\n    uint256 nftPrice = getPriceByToken(erc20Token, tokenId);\n    IERC20Upgradeable token = IERC20Upgradeable(erc20Token);\n    uint256 royaltyAmount;\n\n    require(\n      token.allowance(msg.sender, address(this)) >= nftPrice,\n      \"Insufficient allowance.\"\n    );\n\n    if (!getIsExcluded()) {\n      address owner = IERC721Upgradeable(collection).ownerOf(tokenId);\n      if (owner != creator) {\n        (, royaltyAmount) = royaltyInfo(tokenId, nftPrice);\n        payERC20Royalties(erc20Token, tokenId, royaltyAmount);\n      }\n    }\n\n    token.transferFrom(msg.sender, listedItem.seller, nftPrice - royaltyAmount);\n\n    IERC721Upgradeable(collection).safeTransferFrom(\n      listedItem.seller,\n      msg.sender,\n      tokenId\n    );\n\n    _vendorStorage.deleteListing(tokenId);\n    _vendorStorage.removeTokenFromAllListedTokensEnumeration(tokenId);\n\n    emit ItemBought(msg.sender, collection, tokenId, listedItem.price);\n  }\n\n  function payERC20Royalties(\n    address _erc20Token,\n    uint256 _tokenId,\n    uint256 _royalty\n  ) private {\n    IERC20Upgradeable token = IERC20Upgradeable(_erc20Token);\n    token.transferFrom(msg.sender, creator, _royalty);\n    emit TxFeePaid(_tokenId, _royalty, true);\n  }\n\n  /*\n   * @notice Method for updating listing\n   * @param collection Address of NFT contract\n   * @param tokenId Token ID of NFT\n   * @param newPrice Price in Wei of the item\n   */\n  function updateListingPrice(\n    uint256 tokenId,\n    uint256 newPrice\n  ) external isListed(tokenId) nonReentrant isOwner(tokenId, msg.sender) {\n    // Check the value of `newPrice` and revert if it's zero (since it cannot be negative)\n    require(newPrice > 0, \"Price must be above zero\");\n\n    IERC721Upgradeable nft = IERC721Upgradeable(collection);\n    require(\n      nft.getApproved(tokenId) == address(this),\n      \"Not approved for marketplace\"\n    );\n\n    _vendorStorage.setListing(tokenId, newPrice, msg.sender);\n    emit ItemListed(msg.sender, collection, tokenId, newPrice);\n  }\n\n  function withdrawERC20(address erc20Token) external onlyOwner {\n    IERC20Upgradeable token = IERC20Upgradeable(erc20Token);\n    token.transferFrom(address(this), creator, token.balanceOf(address(this)));\n  }\n\n  /*\n   * @notice Method for withdrawing proceeds from sales\n   */\n  function withdrawProceeds() external {\n    uint256 proceeds = _vendorStorage.getProcceds(msg.sender);\n    if (proceeds <= 0) {\n      revert NoProceeds();\n    }\n    _vendorStorage.setProcceds(msg.sender, 0);\n    (bool sent, ) = msg.sender.call{ value: proceeds }(\"\");\n    require(sent, \"Failed to withdraw\");\n  }\n\n  function totalSupply() public view returns (uint256) {\n    return _vendorStorage.getAllListedNftsLength();\n  }\n\n  function tokenByIndex(uint index) public view returns (uint) {\n    require(index < totalSupply(), \"Index out of bounds\");\n    return _vendorStorage.getListedNftsByIndex(index);\n  }\n\n  function setExcludedFromList(\n    address _address,\n    bool _excluded\n  ) external onlyOwner {\n    _vendorStorage.setExcludedFromList(_address, _excluded);\n  }\n\n  function addERC20Token(address erc20Token) external onlyOwner {\n    // Check if the given address is a valid ERC20 token contract\n    // require(_isERC20(erc20Token), \"Not a valid ERC20 token\");\n\n    _vendorStorage.setAcceptedToken(erc20Token, true);\n    _vendorStorage.pushToAllERC20Tokens(erc20Token);\n  }\n\n  function removeERC20Token(address erc20Token) external onlyOwner {\n    _vendorStorage.setAcceptedToken(erc20Token, false);\n  }\n\n  function updateERC20TokenPrice(\n    uint256 tokenId,\n    address erc20Token,\n    uint256 price\n  ) external isOwner(tokenId, msg.sender) {\n    IERC721Upgradeable nft = IERC721Upgradeable(collection);\n    require(\n      nft.getApproved(tokenId) == address(this),\n      \"Not approved for marketplace\"\n    );\n    _vendorStorage.setERC20PriceByTokenId(erc20Token, tokenId, price);\n  }\n\n  function calculateRoyaltyForAcceptedOffer(\n    uint256 _tokenId,\n    uint256 _highestBid\n  ) public view returns (uint256) {\n    (, uint256 royalty) = royaltyInfo(_tokenId, _highestBid);\n    return royalty;\n  }\n\n  // function _isERC20(address erc20Token) private view returns (bool) {\n  //   bytes4 expectedInterfaceId = 0x36372b07; // ERC20 interface ID: bytes4(keccak256(\"totalSupply()\")) ^ bytes4(keccak256(\"balanceOf(address)\")) ^ bytes4(keccak256(\"transfer(address,uint256)\")) ^ bytes4(keccak256(\"allowance(address,address)\")) ^ bytes4(keccak256(\"approve(address,uint256)\")) ^ bytes4(keccak256(\"transferFrom(address,address,uint256)\"))\n  //   IERC165Upgradeable token = IERC165Upgradeable(erc20Token);\n  //   return token.supportsInterface(expectedInterfaceId);\n  // }\n\n  function _payTxFee(uint256 tokenId, uint256 royalty) public {\n    (bool success1, ) = payable(creator).call{ value: royalty }(\"\");\n    require(success1);\n    emit TxFeePaid(tokenId, royalty, false);\n  }\n}\n",
  "sourcePath": "/Users/alberto/Desktop/Enalbis/caskchain-mono/apps/contracts/contracts/NftVendor/NftVendor.sol",
  "compiler": {
    "name": "solc",
    "version": "0.8.17+commit.8df45f5f.Emscripten.clang"
  },
  "schemaVersion": "3.4.11",
  "updatedAt": "2023-05-15T14:20:41.614Z",
  "networkType": "ethereum",
  "devdoc": {
    "kind": "dev",
    "methods": {
      "owner()": {
        "details": "Returns the address of the current owner."
      },
      "proxiableUUID()": {
        "details": "Implementation of the ERC1822 {proxiableUUID} function. This returns the storage slot used by the implementation. It is used to validate the implementation's compatibility when performing an upgrade. IMPORTANT: A proxy pointing at a proxiable contract should not be considered proxiable itself, because this risks bricking a proxy that upgrades to it, by delegating to itself until out of gas. Thus it is critical that this function revert if invoked through a proxy. This is guaranteed by the `notDelegated` modifier."
      },
      "renounceOwnership()": {
        "details": "Leaves the contract without owner. It will not be possible to call `onlyOwner` functions anymore. Can only be called by the current owner. NOTE: Renouncing ownership will leave the contract without an owner, thereby removing any functionality that is only available to the owner."
      },
      "royaltyInfo(uint256,uint256)": {
        "details": "Returns how much royalty is owed and to whom, based on a sale price that may be denominated in any unit of exchange. The royalty amount is denominated and should be paid in that same unit of exchange."
      },
      "supportsInterface(bytes4)": {
        "details": "See {IERC165-supportsInterface}."
      },
      "transferOwnership(address)": {
        "details": "Transfers ownership of the contract to a new account (`newOwner`). Can only be called by the current owner."
      },
      "upgradeTo(address)": {
        "details": "Upgrade the implementation of the proxy to `newImplementation`. Calls {_authorizeUpgrade}. Emits an {Upgraded} event."
      },
      "upgradeToAndCall(address,bytes)": {
        "details": "Upgrade the implementation of the proxy to `newImplementation`, and subsequently execute the function call encoded in `data`. Calls {_authorizeUpgrade}. Emits an {Upgraded} event."
      }
    },
    "version": 1
  },
  "userdoc": {
    "kind": "user",
    "methods": {},
    "version": 1
  }
}