{
  "contractName": "NftVendorStorage",
  "abi": [
    {
      "anonymous": false,
      "inputs": [
        {
          "indexed": true,
          "internalType": "address",
          "name": "previousOwner",
          "type": "address"
        },
        {
          "indexed": true,
          "internalType": "address",
          "name": "newOwner",
          "type": "address"
        }
      ],
      "name": "OwnershipTransferred",
      "type": "event"
    },
    {
      "inputs": [
        {
          "internalType": "address",
          "name": "",
          "type": "address"
        }
      ],
      "name": "allowedAddresses",
      "outputs": [
        {
          "internalType": "bool",
          "name": "",
          "type": "bool"
        }
      ],
      "stateMutability": "view",
      "type": "function",
      "constant": true
    },
    {
      "inputs": [],
      "name": "owner",
      "outputs": [
        {
          "internalType": "address",
          "name": "",
          "type": "address"
        }
      ],
      "stateMutability": "view",
      "type": "function",
      "constant": true
    },
    {
      "inputs": [],
      "name": "renounceOwnership",
      "outputs": [],
      "stateMutability": "nonpayable",
      "type": "function"
    },
    {
      "inputs": [
        {
          "internalType": "address",
          "name": "newOwner",
          "type": "address"
        }
      ],
      "name": "transferOwnership",
      "outputs": [],
      "stateMutability": "nonpayable",
      "type": "function"
    },
    {
      "inputs": [
        {
          "internalType": "address",
          "name": "_address",
          "type": "address"
        }
      ],
      "name": "addAllowedAddress",
      "outputs": [],
      "stateMutability": "nonpayable",
      "type": "function"
    },
    {
      "inputs": [
        {
          "internalType": "address",
          "name": "_address",
          "type": "address"
        }
      ],
      "name": "removeAllowedAddress",
      "outputs": [],
      "stateMutability": "nonpayable",
      "type": "function"
    },
    {
      "inputs": [
        {
          "internalType": "address",
          "name": "_address",
          "type": "address"
        }
      ],
      "name": "isAllowedAddress",
      "outputs": [
        {
          "internalType": "bool",
          "name": "",
          "type": "bool"
        }
      ],
      "stateMutability": "view",
      "type": "function",
      "constant": true
    },
    {
      "inputs": [],
      "name": "getIsExcluded",
      "outputs": [
        {
          "internalType": "bool",
          "name": "",
          "type": "bool"
        }
      ],
      "stateMutability": "view",
      "type": "function",
      "constant": true
    },
    {
      "inputs": [
        {
          "internalType": "address",
          "name": "tokenAddress",
          "type": "address"
        },
        {
          "internalType": "uint256",
          "name": "tokenId",
          "type": "uint256"
        }
      ],
      "name": "getPriceByToken",
      "outputs": [
        {
          "internalType": "uint256",
          "name": "",
          "type": "uint256"
        }
      ],
      "stateMutability": "view",
      "type": "function",
      "constant": true
    },
    {
      "inputs": [],
      "name": "getAcceptedERC20tokens",
      "outputs": [
        {
          "internalType": "address[]",
          "name": "",
          "type": "address[]"
        }
      ],
      "stateMutability": "view",
      "type": "function",
      "constant": true
    },
    {
      "inputs": [
        {
          "internalType": "uint256",
          "name": "tokenId",
          "type": "uint256"
        }
      ],
      "name": "getListing",
      "outputs": [
        {
          "components": [
            {
              "internalType": "uint256",
              "name": "tokenId",
              "type": "uint256"
            },
            {
              "internalType": "uint256",
              "name": "price",
              "type": "uint256"
            },
            {
              "internalType": "address",
              "name": "seller",
              "type": "address"
            }
          ],
          "internalType": "struct NftVendorStorage.Listing",
          "name": "",
          "type": "tuple"
        }
      ],
      "stateMutability": "view",
      "type": "function",
      "constant": true
    },
    {
      "inputs": [
        {
          "internalType": "address",
          "name": "_address",
          "type": "address"
        }
      ],
      "name": "getProcceds",
      "outputs": [
        {
          "internalType": "uint256",
          "name": "",
          "type": "uint256"
        }
      ],
      "stateMutability": "view",
      "type": "function",
      "constant": true
    },
    {
      "inputs": [],
      "name": "getAllListedNftsLength",
      "outputs": [
        {
          "internalType": "uint256",
          "name": "",
          "type": "uint256"
        }
      ],
      "stateMutability": "view",
      "type": "function",
      "constant": true
    },
    {
      "inputs": [
        {
          "internalType": "uint256",
          "name": "index",
          "type": "uint256"
        }
      ],
      "name": "getListedNftsByIndex",
      "outputs": [
        {
          "internalType": "uint256",
          "name": "tokenId",
          "type": "uint256"
        }
      ],
      "stateMutability": "view",
      "type": "function",
      "constant": true
    },
    {
      "inputs": [],
      "name": "getAllListedNftsId",
      "outputs": [
        {
          "internalType": "uint256[]",
          "name": "",
          "type": "uint256[]"
        }
      ],
      "stateMutability": "view",
      "type": "function",
      "constant": true
    },
    {
      "inputs": [
        {
          "internalType": "address",
          "name": "_tokenAddress",
          "type": "address"
        },
        {
          "internalType": "bool",
          "name": "_accepted",
          "type": "bool"
        }
      ],
      "name": "setAcceptedToken",
      "outputs": [],
      "stateMutability": "nonpayable",
      "type": "function"
    },
    {
      "inputs": [
        {
          "internalType": "address",
          "name": "_tokenAddress",
          "type": "address"
        },
        {
          "internalType": "uint256",
          "name": "_tokenId",
          "type": "uint256"
        },
        {
          "internalType": "uint256",
          "name": "_price",
          "type": "uint256"
        }
      ],
      "name": "setERC20PriceByTokenId",
      "outputs": [],
      "stateMutability": "nonpayable",
      "type": "function"
    },
    {
      "inputs": [
        {
          "internalType": "uint256",
          "name": "_tokenId",
          "type": "uint256"
        },
        {
          "internalType": "uint256",
          "name": "_price",
          "type": "uint256"
        },
        {
          "internalType": "address",
          "name": "_seller",
          "type": "address"
        }
      ],
      "name": "setListing",
      "outputs": [],
      "stateMutability": "nonpayable",
      "type": "function"
    },
    {
      "inputs": [
        {
          "internalType": "address",
          "name": "_address",
          "type": "address"
        },
        {
          "internalType": "uint256",
          "name": "_amount",
          "type": "uint256"
        }
      ],
      "name": "setProcceds",
      "outputs": [],
      "stateMutability": "nonpayable",
      "type": "function"
    },
    {
      "inputs": [
        {
          "internalType": "address",
          "name": "_address",
          "type": "address"
        },
        {
          "internalType": "bool",
          "name": "_excluded",
          "type": "bool"
        }
      ],
      "name": "setExcludedFromList",
      "outputs": [],
      "stateMutability": "nonpayable",
      "type": "function"
    },
    {
      "inputs": [
        {
          "internalType": "address",
          "name": "_tokenAddress",
          "type": "address"
        }
      ],
      "name": "pushToAllERC20Tokens",
      "outputs": [],
      "stateMutability": "nonpayable",
      "type": "function"
    },
    {
      "inputs": [
        {
          "internalType": "uint256",
          "name": "tokenId",
          "type": "uint256"
        }
      ],
      "name": "addTokenToAllTokensEnumeration",
      "outputs": [],
      "stateMutability": "nonpayable",
      "type": "function"
    },
    {
      "inputs": [
        {
          "internalType": "uint256",
          "name": "tokenId",
          "type": "uint256"
        }
      ],
      "name": "removeTokenFromAllListedTokensEnumeration",
      "outputs": [],
      "stateMutability": "nonpayable",
      "type": "function"
    },
    {
      "inputs": [
        {
          "internalType": "address",
          "name": "_tokenAddress",
          "type": "address"
        },
        {
          "internalType": "uint256",
          "name": "_tokenId",
          "type": "uint256"
        }
      ],
      "name": "deletePriceByTokenId",
      "outputs": [],
      "stateMutability": "nonpayable",
      "type": "function"
    },
    {
      "inputs": [
        {
          "internalType": "uint256",
          "name": "_tokenId",
          "type": "uint256"
        }
      ],
      "name": "deleteListing",
      "outputs": [],
      "stateMutability": "nonpayable",
      "type": "function"
    },
    {
      "inputs": [],
      "name": "getCurrentListedItemsCounter",
      "outputs": [
        {
          "internalType": "uint256",
          "name": "",
          "type": "uint256"
        }
      ],
      "stateMutability": "view",
      "type": "function",
      "constant": true
    }
  ],
  "bytecode": "0x608060405234801561001057600080fd5b5061001a3361001f565b61006f565b600080546001600160a01b038381166001600160a01b0319831681178455604051919092169283917f8be0079c531659141344cd1fd0a4f28419497f9722a3daafe3b4186f6b6457e09190a35050565b610ef48061007e6000396000f3fe608060405234801561001057600080fd5b506004361061018e5760003560e01c80638345245e116100de578063b397449211610097578063dbe0b21c11610071578063dbe0b21c146103ba578063e6282c6e146103cd578063e74e2e2e146103e0578063f2fde38b146103f357600080fd5b8063b39744921461038c578063bc0ff2fe14610394578063c997dbca146103a757600080fd5b80638345245e146102e35780638da5cb5b1461030f578063958a12a11461032a578063a08e65f61461033d578063a92d432f14610366578063affaf3691461037957600080fd5b80634f9ce8ab1161014b5780636846b53a116101255780636846b53a146102a0578063715018a6146102b3578063770fd7df146102bb57806381788e2b146102d057600080fd5b80634f9ce8ab1461026457806358c1d7fe1461027a5780635deba0e41461028d57600080fd5b80630c6ce41514610193578063107a274a146101a85780631c056605146101eb5780632fa8f924146102005780633c9d93b81461022e5780634120657a14610241575b600080fd5b6101a66101a1366004610cb4565b610406565b005b6101bb6101b6366004610ce7565b610464565b604080518251815260208084015190820152918101516001600160a01b0316908201526060015b60405180910390f35b6101f36104d3565b6040516101e29190610d00565b61021e336000908152600b602052604090205460ff16151560011490565b60405190151581526020016101e2565b6101a661023c366004610d44565b61052b565b61021e61024f366004610d44565b60076020526000908152604090205460ff1681565b61026c610554565b6040519081526020016101e2565b61026c610288366004610d66565b61058a565b6101a661029b366004610d90565b6105b5565b6101a66102ae366004610dcc565b61060f565b6101a661069c565b6102c36106b0565b6040516101e29190610e01565b6101a66102de366004610d44565b610711565b61021e6102f1366004610d44565b6001600160a01b031660009081526007602052604090205460ff1690565b6000546040516001600160a01b0390911681526020016101e2565b6101a6610338366004610ce7565b61073d565b61026c61034b366004610d44565b6001600160a01b031660009081526009602052604090205490565b61026c610374366004610ce7565b61082b565b6101a6610387366004610d66565b610852565b60045461026c565b6101a66103a2366004610d66565b61089d565b6101a66103b5366004610d90565b6108f4565b6101a66103c8366004610ce7565b61094e565b6101a66103db366004610ce7565b6109cc565b6101a66103ee366004610d44565b610a27565b6101a6610401366004610d44565b610aa8565b3360009081526007602052604090205460ff1661043e5760405162461bcd60e51b815260040161043590610e42565b60405180910390fd5b6001600160a01b039092166000908152600d602090815260408083209383529290522055565b6104916040518060600160405280600081526020016000815260200160006001600160a01b031681525090565b50600090815260086020908152604091829020825160608101845281548152600182015492810192909252600201546001600160a01b03169181019190915290565b6060600480548060200260200160405190810160405280929190818152602001828054801561052157602002820191906000526020600020905b81548152602001906001019080831161050d575b5050505050905090565b610533610b21565b6001600160a01b03166000908152600760205260409020805460ff19169055565b3360009081526007602052604081205460ff166105835760405162461bcd60e51b815260040161043590610e42565b5060065490565b6001600160a01b0382166000908152600d602090815260408083208484529091529020545b92915050565b3360009081526007602052604090205460ff166105e45760405162461bcd60e51b815260040161043590610e42565b6001600160a01b03919091166000908152600b60205260409020805460ff1916911515919091179055565b3360009081526007602052604090205460ff1661063e5760405162461bcd60e51b815260040161043590610e42565b6040805160608101825284815260208082019485526001600160a01b03938416828401908152600096875260089091529190942093518455915160018401559051600290920180546001600160a01b03191692909116919091179055565b6106a4610b21565b6106ae6000610b7b565b565b6060600580548060200260200160405190810160405280929190818152602001828054801561052157602002820191906000526020600020905b81546001600160a01b031681526001909101906020018083116106ea575050505050905090565b610719610b21565b6001600160a01b03166000908152600760205260409020805460ff19166001179055565b3360009081526007602052604090205460ff1661076c5760405162461bcd60e51b815260040161043590610e42565b60045460009061077e90600190610e71565b6000838152600a6020526040812054600480549394509092849081106107a6576107a6610e92565b9060005260206000200154905080600483815481106107c7576107c7610e92565b6000918252602080832090910192909255828152600a909152604090208290556107ef610bcb565b6000848152600a6020526040812055600480548061080f5761080f610ea8565b6001900381819060005260206000200160009055905550505050565b60006004828154811061084057610840610e92565b90600052602060002001549050919050565b3360009081526007602052604090205460ff166108815760405162461bcd60e51b815260040161043590610e42565b6001600160a01b03909116600090815260096020526040902055565b3360009081526007602052604090205460ff166108cc5760405162461bcd60e51b815260040161043590610e42565b6001600160a01b039091166000908152600d6020908152604080832093835292905290812055565b3360009081526007602052604090205460ff166109235760405162461bcd60e51b815260040161043590610e42565b6001600160a01b03919091166000908152600c60205260409020805460ff1916911515919091179055565b3360009081526007602052604090205460ff1661097d5760405162461bcd60e51b815260040161043590610e42565b6004546000828152600a6020526040902055610997610c04565b600480546001810182556000919091527f8a35acfbc15ff81a39ae7d344fd709f28e8600b4aa8c65c6b64bfe7fe36bd19b0155565b3360009081526007602052604090205460ff166109fb5760405162461bcd60e51b815260040161043590610e42565b6000908152600860205260408120818155600181019190915560020180546001600160a01b0319169055565b3360009081526007602052604090205460ff16610a565760405162461bcd60e51b815260040161043590610e42565b600580546001810182556000919091527f036b6384b5eca791c62761152d0c79bb0604c104a5fb6f4eb0703f3154bb3db00180546001600160a01b0319166001600160a01b0392909216919091179055565b610ab0610b21565b6001600160a01b038116610b155760405162461bcd60e51b815260206004820152602660248201527f4f776e61626c653a206e6577206f776e657220697320746865207a65726f206160448201526564647265737360d01b6064820152608401610435565b610b1e81610b7b565b50565b6000546001600160a01b031633146106ae5760405162461bcd60e51b815260206004820181905260248201527f4f776e61626c653a2063616c6c6572206973206e6f7420746865206f776e65726044820152606401610435565b600080546001600160a01b038381166001600160a01b0319831681178455604051919092169283917f8be0079c531659141344cd1fd0a4f28419497f9722a3daafe3b4186f6b6457e09190a35050565b3360009081526007602052604090205460ff16610bfa5760405162461bcd60e51b815260040161043590610e42565b6106ae6006610c41565b3360009081526007602052604090205460ff16610c335760405162461bcd60e51b815260040161043590610e42565b6106ae600680546001019055565b805480610c905760405162461bcd60e51b815260206004820152601b60248201527f436f756e7465723a2064656372656d656e74206f766572666c6f7700000000006044820152606401610435565b600019019055565b80356001600160a01b0381168114610caf57600080fd5b919050565b600080600060608486031215610cc957600080fd5b610cd284610c98565b95602085013595506040909401359392505050565b600060208284031215610cf957600080fd5b5035919050565b6020808252825182820181905260009190848201906040850190845b81811015610d3857835183529284019291840191600101610d1c565b50909695505050505050565b600060208284031215610d5657600080fd5b610d5f82610c98565b9392505050565b60008060408385031215610d7957600080fd5b610d8283610c98565b946020939093013593505050565b60008060408385031215610da357600080fd5b610dac83610c98565b915060208301358015158114610dc157600080fd5b809150509250929050565b600080600060608486031215610de157600080fd5b8335925060208401359150610df860408501610c98565b90509250925092565b6020808252825182820181905260009190848201906040850190845b81811015610d385783516001600160a01b031683529284019291840191600101610e1d565b60208082526015908201527410d85b1b195c881a5cc81b9bdd08185b1b1bddd959605a1b604082015260600190565b818103818111156105af57634e487b7160e01b600052601160045260246000fd5b634e487b7160e01b600052603260045260246000fd5b634e487b7160e01b600052603160045260246000fdfea2646970667358221220aeb7b4295253c09d9e70f49e075621ab5a9f73588b3224deefb8b927b046a7d964736f6c63430008110033",
  "immutableReferences": {},
  "source": "// SPDX-License-Identifier: MIT\npragma solidity ^0.8.7;\n\nimport \"@openzeppelin/contracts/utils/Counters.sol\";\nimport \"@openzeppelin/contracts/access/Ownable.sol\";\n\ncontract NftVendorStorage is Ownable {\n  using Counters for Counters.Counter;\n\n  struct Listing {\n    uint256 tokenId;\n    uint256 price;\n    address seller;\n  }\n\n  Listing internal _listing;\n\n  uint256[] internal _allListedNfts;\n  address[] internal _allERC20Tokens;\n\n  Counters.Counter internal _listedItems;\n\n  // Address => Boolean\n  mapping(address => bool) public allowedAddresses;\n\n  mapping(uint256 => Listing) internal s_listings;\n  mapping(address => uint256) internal s_proceeds;\n  // NFT id => Index\n  mapping(uint256 => uint256) internal _idToNftIndex;\n  // Address => Booelan\n  mapping(address => bool) internal s_excludedList;\n  // Accepted ERC20 Tokens\n  mapping(address => bool) internal s_acceptedTokens;\n  // Price ERC20 Tokens\n  mapping(address => mapping(uint256 => uint256)) internal s_priceTokens;\n\n  modifier onlyAllowed() {\n    require(allowedAddresses[msg.sender], \"Caller is not allowed\");\n    _;\n  }\n\n  /////////////////////\n  // ALLOWED ADDRESSES MANAGEMENT //\n  /////////////////////\n\n  function addAllowedAddress(address _address) public onlyOwner {\n    allowedAddresses[_address] = true;\n  }\n\n  function removeAllowedAddress(address _address) public onlyOwner {\n    allowedAddresses[_address] = false;\n  }\n\n  function isAllowedAddress(address _address) public view returns (bool) {\n    return allowedAddresses[_address];\n  }\n\n  /////////////////////\n  // GETTERS //\n  /////////////////////\n\n  function getIsExcluded() external view returns (bool) {\n    bool isExcluded = s_excludedList[msg.sender] == true;\n    return isExcluded;\n  }\n\n  function getPriceByToken(\n    address tokenAddress,\n    uint256 tokenId\n  ) external view returns (uint256) {\n    return s_priceTokens[tokenAddress][tokenId];\n  }\n\n  function getAcceptedERC20tokens() external view returns (address[] memory) {\n    return _allERC20Tokens;\n  }\n\n  function getListing(uint256 tokenId) external view returns (Listing memory) {\n    return s_listings[tokenId];\n  }\n\n  function getProcceds(address _address) external view returns (uint256) {\n    return s_proceeds[_address];\n  }\n\n  function getAllListedNftsLength() external view returns (uint256) {\n    return _allListedNfts.length;\n  }\n\n  function getListedNftsByIndex(\n    uint256 index\n  ) external view returns (uint256 tokenId) {\n    return _allListedNfts[index];\n  }\n\n  function getAllListedNftsId() external view returns (uint256[] memory) {\n    return _allListedNfts;\n  }\n\n  /////////////////////\n  // SETTERS //\n  /////////////////////\n\n  function setAcceptedToken(\n    address _tokenAddress,\n    bool _accepted\n  ) public onlyAllowed {\n    s_acceptedTokens[_tokenAddress] = _accepted;\n  }\n\n  function setERC20PriceByTokenId(\n    address _tokenAddress,\n    uint256 _tokenId,\n    uint256 _price\n  ) public onlyAllowed {\n    s_priceTokens[_tokenAddress][_tokenId] = _price;\n  }\n\n  function setListing(\n    uint256 _tokenId,\n    uint256 _price,\n    address _seller\n  ) public onlyAllowed {\n    s_listings[_tokenId] = Listing(_tokenId, _price, _seller);\n  }\n\n  function setProcceds(address _address, uint256 _amount) public onlyAllowed {\n    s_proceeds[_address] = _amount;\n  }\n\n  function setExcludedFromList(\n    address _address,\n    bool _excluded\n  ) public onlyAllowed {\n    s_excludedList[_address] = _excluded;\n  }\n\n  function pushToAllERC20Tokens(address _tokenAddress) public onlyAllowed {\n    _allERC20Tokens.push(_tokenAddress);\n  }\n\n  function addTokenToAllTokensEnumeration(uint tokenId) public onlyAllowed {\n    _idToNftIndex[tokenId] = _allListedNfts.length;\n    incrementListedItems();\n    _allListedNfts.push(tokenId);\n  }\n\n  function removeTokenFromAllListedTokensEnumeration(\n    uint tokenId\n  ) public onlyAllowed {\n    uint lastTokenIndex = _allListedNfts.length - 1;\n    uint tokenIndex = _idToNftIndex[tokenId];\n    uint lastTokenId = _allListedNfts[lastTokenIndex];\n\n    _allListedNfts[tokenIndex] = lastTokenId;\n    _idToNftIndex[lastTokenId] = tokenIndex;\n    decrementListedItems();\n\n    delete _idToNftIndex[tokenId];\n    _allListedNfts.pop();\n  }\n\n  function incrementListedItems() internal onlyAllowed {\n    _listedItems.increment();\n  }\n\n  function decrementListedItems() internal onlyAllowed {\n    _listedItems.decrement();\n  }\n\n  function deletePriceByTokenId(\n    address _tokenAddress,\n    uint256 _tokenId\n  ) public onlyAllowed {\n    delete s_priceTokens[_tokenAddress][_tokenId];\n  }\n\n  function deleteListing(uint256 _tokenId) public onlyAllowed {\n    delete s_listings[_tokenId];\n  }\n\n  function getCurrentListedItemsCounter()\n    public\n    view\n    onlyAllowed\n    returns (uint256)\n  {\n    return _listedItems.current();\n  }\n}\n",
  "sourcePath": "/Users/alberto/Desktop/Enalbis/caskchain-mono/apps/contracts/contracts/NftVendor/NftVendorStorage.sol",
  "compiler": {
    "name": "solc",
    "version": "0.8.17+commit.8df45f5f.Emscripten.clang"
  },
  "schemaVersion": "3.4.11",
  "updatedAt": "2023-05-22T14:21:38.228Z",
  "networkType": "ethereum",
  "devdoc": {
    "kind": "dev",
    "methods": {
      "owner()": {
        "details": "Returns the address of the current owner."
      },
      "renounceOwnership()": {
        "details": "Leaves the contract without owner. It will not be possible to call `onlyOwner` functions anymore. Can only be called by the current owner. NOTE: Renouncing ownership will leave the contract without an owner, thereby removing any functionality that is only available to the owner."
      },
      "transferOwnership(address)": {
        "details": "Transfers ownership of the contract to a new account (`newOwner`). Can only be called by the current owner."
      }
    },
    "version": 1
  },
  "userdoc": {
    "kind": "user",
    "methods": {},
    "version": 1
  }
}