{
  "contractName": "NftVendor",
  "abi": [
    {
      "inputs": [
        {
          "internalType": "address",
          "name": "nftAddress",
          "type": "address"
        },
        {
          "internalType": "uint256",
          "name": "tokenId",
          "type": "uint256"
        }
      ],
      "name": "AlreadyListed",
      "type": "error"
    },
    {
      "inputs": [],
      "name": "IsNotOwner",
      "type": "error"
    },
    {
      "inputs": [],
      "name": "NoProceeds",
      "type": "error"
    },
    {
      "inputs": [],
      "name": "NotApprovedForMarketplace",
      "type": "error"
    },
    {
      "inputs": [
        {
          "internalType": "address",
          "name": "nftAddress",
          "type": "address"
        },
        {
          "internalType": "uint256",
          "name": "tokenId",
          "type": "uint256"
        }
      ],
      "name": "NotListed",
      "type": "error"
    },
    {
      "inputs": [],
      "name": "NotOwner",
      "type": "error"
    },
    {
      "inputs": [],
      "name": "PriceMustBeAboveZero",
      "type": "error"
    },
    {
      "anonymous": false,
      "inputs": [
        {
          "indexed": false,
          "internalType": "address",
          "name": "previousAdmin",
          "type": "address"
        },
        {
          "indexed": false,
          "internalType": "address",
          "name": "newAdmin",
          "type": "address"
        }
      ],
      "name": "AdminChanged",
      "type": "event"
    },
    {
      "anonymous": false,
      "inputs": [
        {
          "indexed": true,
          "internalType": "address",
          "name": "beacon",
          "type": "address"
        }
      ],
      "name": "BeaconUpgraded",
      "type": "event"
    },
    {
      "anonymous": false,
      "inputs": [
        {
          "indexed": false,
          "internalType": "uint8",
          "name": "version",
          "type": "uint8"
        }
      ],
      "name": "Initialized",
      "type": "event"
    },
    {
      "anonymous": false,
      "inputs": [
        {
          "indexed": true,
          "internalType": "address",
          "name": "to",
          "type": "address"
        },
        {
          "indexed": true,
          "internalType": "address",
          "name": "from",
          "type": "address"
        },
        {
          "indexed": true,
          "internalType": "uint256",
          "name": "tokenId",
          "type": "uint256"
        },
        {
          "indexed": false,
          "internalType": "uint256",
          "name": "price",
          "type": "uint256"
        }
      ],
      "name": "ItemBought",
      "type": "event"
    },
    {
      "anonymous": false,
      "inputs": [
        {
          "indexed": true,
          "internalType": "address",
          "name": "from",
          "type": "address"
        },
        {
          "indexed": true,
          "internalType": "address",
          "name": "nftAddress",
          "type": "address"
        },
        {
          "indexed": true,
          "internalType": "uint256",
          "name": "tokenId",
          "type": "uint256"
        }
      ],
      "name": "ItemCanceled",
      "type": "event"
    },
    {
      "anonymous": false,
      "inputs": [
        {
          "indexed": true,
          "internalType": "address",
          "name": "from",
          "type": "address"
        },
        {
          "indexed": true,
          "internalType": "address",
          "name": "nftAddress",
          "type": "address"
        },
        {
          "indexed": true,
          "internalType": "uint256",
          "name": "tokenId",
          "type": "uint256"
        },
        {
          "indexed": false,
          "internalType": "uint256",
          "name": "price",
          "type": "uint256"
        }
      ],
      "name": "ItemListed",
      "type": "event"
    },
    {
      "anonymous": false,
      "inputs": [
        {
          "indexed": true,
          "internalType": "address",
          "name": "previousOwner",
          "type": "address"
        },
        {
          "indexed": true,
          "internalType": "address",
          "name": "newOwner",
          "type": "address"
        }
      ],
      "name": "OwnershipTransferred",
      "type": "event"
    },
    {
      "anonymous": false,
      "inputs": [
        {
          "indexed": true,
          "internalType": "uint256",
          "name": "tokenId",
          "type": "uint256"
        },
        {
          "indexed": false,
          "internalType": "uint256",
          "name": "royalty",
          "type": "uint256"
        }
      ],
      "name": "TxFeePaid",
      "type": "event"
    },
    {
      "anonymous": false,
      "inputs": [
        {
          "indexed": true,
          "internalType": "address",
          "name": "implementation",
          "type": "address"
        }
      ],
      "name": "Upgraded",
      "type": "event"
    },
    {
      "inputs": [],
      "name": "owner",
      "outputs": [
        {
          "internalType": "address",
          "name": "",
          "type": "address"
        }
      ],
      "stateMutability": "view",
      "type": "function",
      "constant": true
    },
    {
      "inputs": [],
      "name": "proxiableUUID",
      "outputs": [
        {
          "internalType": "bytes32",
          "name": "",
          "type": "bytes32"
        }
      ],
      "stateMutability": "view",
      "type": "function",
      "constant": true
    },
    {
      "inputs": [],
      "name": "renounceOwnership",
      "outputs": [],
      "stateMutability": "nonpayable",
      "type": "function"
    },
    {
      "inputs": [
        {
          "internalType": "uint256",
          "name": "_tokenId",
          "type": "uint256"
        },
        {
          "internalType": "uint256",
          "name": "_salePrice",
          "type": "uint256"
        }
      ],
      "name": "royaltyInfo",
      "outputs": [
        {
          "internalType": "address",
          "name": "",
          "type": "address"
        },
        {
          "internalType": "uint256",
          "name": "",
          "type": "uint256"
        }
      ],
      "stateMutability": "view",
      "type": "function",
      "constant": true
    },
    {
      "inputs": [
        {
          "internalType": "bytes4",
          "name": "interfaceId",
          "type": "bytes4"
        }
      ],
      "name": "supportsInterface",
      "outputs": [
        {
          "internalType": "bool",
          "name": "",
          "type": "bool"
        }
      ],
      "stateMutability": "view",
      "type": "function",
      "constant": true
    },
    {
      "inputs": [
        {
          "internalType": "address",
          "name": "newOwner",
          "type": "address"
        }
      ],
      "name": "transferOwnership",
      "outputs": [],
      "stateMutability": "nonpayable",
      "type": "function"
    },
    {
      "inputs": [
        {
          "internalType": "address",
          "name": "newImplementation",
          "type": "address"
        }
      ],
      "name": "upgradeTo",
      "outputs": [],
      "stateMutability": "nonpayable",
      "type": "function"
    },
    {
      "inputs": [
        {
          "internalType": "address",
          "name": "newImplementation",
          "type": "address"
        },
        {
          "internalType": "bytes",
          "name": "data",
          "type": "bytes"
        }
      ],
      "name": "upgradeToAndCall",
      "outputs": [],
      "stateMutability": "payable",
      "type": "function",
      "payable": true
    },
    {
      "inputs": [
        {
          "internalType": "address",
          "name": "_collection",
          "type": "address"
        },
        {
          "internalType": "address",
          "name": "_creator",
          "type": "address"
        }
      ],
      "name": "initialize",
      "outputs": [],
      "stateMutability": "nonpayable",
      "type": "function"
    },
    {
      "inputs": [
        {
          "internalType": "uint256",
          "name": "tokenId",
          "type": "uint256"
        },
        {
          "internalType": "uint256",
          "name": "royaltyAmount",
          "type": "uint256"
        }
      ],
      "name": "emitTxFee",
      "outputs": [],
      "stateMutability": "nonpayable",
      "type": "function"
    },
    {
      "inputs": [
        {
          "internalType": "uint256",
          "name": "tokenId",
          "type": "uint256"
        },
        {
          "internalType": "uint256",
          "name": "price",
          "type": "uint256"
        }
      ],
      "name": "listItem",
      "outputs": [],
      "stateMutability": "nonpayable",
      "type": "function"
    },
    {
      "inputs": [
        {
          "internalType": "uint256",
          "name": "tokenId",
          "type": "uint256"
        }
      ],
      "name": "cancelListing",
      "outputs": [],
      "stateMutability": "nonpayable",
      "type": "function"
    },
    {
      "inputs": [
        {
          "internalType": "uint256",
          "name": "tokenId",
          "type": "uint256"
        }
      ],
      "name": "buyItem",
      "outputs": [],
      "stateMutability": "payable",
      "type": "function",
      "payable": true
    },
    {
      "inputs": [
        {
          "internalType": "uint256",
          "name": "tokenId",
          "type": "uint256"
        },
        {
          "internalType": "address",
          "name": "erc20Token",
          "type": "address"
        }
      ],
      "name": "buyNFTWithERC20",
      "outputs": [],
      "stateMutability": "nonpayable",
      "type": "function"
    },
    {
      "inputs": [
        {
          "internalType": "uint256",
          "name": "tokenId",
          "type": "uint256"
        },
        {
          "internalType": "uint256",
          "name": "newPrice",
          "type": "uint256"
        }
      ],
      "name": "updateListingPrice",
      "outputs": [],
      "stateMutability": "nonpayable",
      "type": "function"
    },
    {
      "inputs": [
        {
          "internalType": "address",
          "name": "erc20Token",
          "type": "address"
        }
      ],
      "name": "withdrawERC20",
      "outputs": [],
      "stateMutability": "nonpayable",
      "type": "function"
    },
    {
      "inputs": [],
      "name": "withdrawProceeds",
      "outputs": [],
      "stateMutability": "nonpayable",
      "type": "function"
    },
    {
      "inputs": [],
      "name": "totalSupply",
      "outputs": [
        {
          "internalType": "uint256",
          "name": "",
          "type": "uint256"
        }
      ],
      "stateMutability": "view",
      "type": "function",
      "constant": true
    },
    {
      "inputs": [
        {
          "internalType": "uint256",
          "name": "index",
          "type": "uint256"
        }
      ],
      "name": "tokenByIndex",
      "outputs": [
        {
          "internalType": "uint256",
          "name": "",
          "type": "uint256"
        }
      ],
      "stateMutability": "view",
      "type": "function",
      "constant": true
    },
    {
      "inputs": [
        {
          "internalType": "address",
          "name": "tokenAddress",
          "type": "address"
        },
        {
          "internalType": "uint256",
          "name": "tokenId",
          "type": "uint256"
        }
      ],
      "name": "getPriceByToken",
      "outputs": [
        {
          "internalType": "uint256",
          "name": "",
          "type": "uint256"
        }
      ],
      "stateMutability": "view",
      "type": "function",
      "constant": true
    },
    {
      "inputs": [],
      "name": "getAcceptedERC20tokens",
      "outputs": [
        {
          "internalType": "address[]",
          "name": "",
          "type": "address[]"
        }
      ],
      "stateMutability": "view",
      "type": "function",
      "constant": true
    },
    {
      "inputs": [
        {
          "internalType": "uint256",
          "name": "tokenId",
          "type": "uint256"
        }
      ],
      "name": "getListing",
      "outputs": [
        {
          "components": [
            {
              "internalType": "uint256",
              "name": "tokenId",
              "type": "uint256"
            },
            {
              "internalType": "uint256",
              "name": "price",
              "type": "uint256"
            },
            {
              "internalType": "address",
              "name": "seller",
              "type": "address"
            }
          ],
          "internalType": "struct NftVendorStorage.Listing",
          "name": "",
          "type": "tuple"
        }
      ],
      "stateMutability": "view",
      "type": "function",
      "constant": true
    },
    {
      "inputs": [],
      "name": "getAllListedNftsId",
      "outputs": [
        {
          "internalType": "uint256[]",
          "name": "",
          "type": "uint256[]"
        }
      ],
      "stateMutability": "view",
      "type": "function",
      "constant": true
    },
    {
      "inputs": [],
      "name": "getAllListedNFTs",
      "outputs": [
        {
          "components": [
            {
              "internalType": "uint256",
              "name": "tokenId",
              "type": "uint256"
            },
            {
              "internalType": "uint256",
              "name": "price",
              "type": "uint256"
            },
            {
              "internalType": "address",
              "name": "seller",
              "type": "address"
            }
          ],
          "internalType": "struct NftVendorStorage.Listing[]",
          "name": "",
          "type": "tuple[]"
        }
      ],
      "stateMutability": "view",
      "type": "function",
      "constant": true
    },
    {
      "inputs": [
        {
          "internalType": "uint256",
          "name": "_tokenId",
          "type": "uint256"
        }
      ],
      "name": "getRoyalty",
      "outputs": [
        {
          "internalType": "uint256",
          "name": "",
          "type": "uint256"
        }
      ],
      "stateMutability": "view",
      "type": "function",
      "constant": true
    },
    {
      "inputs": [
        {
          "internalType": "address",
          "name": "seller",
          "type": "address"
        }
      ],
      "name": "getProceeds",
      "outputs": [
        {
          "internalType": "uint256",
          "name": "",
          "type": "uint256"
        }
      ],
      "stateMutability": "view",
      "type": "function",
      "constant": true
    },
    {
      "inputs": [],
      "name": "getIsExcluded",
      "outputs": [
        {
          "internalType": "bool",
          "name": "",
          "type": "bool"
        }
      ],
      "stateMutability": "view",
      "type": "function",
      "constant": true
    },
    {
      "inputs": [
        {
          "internalType": "address",
          "name": "erc20Token",
          "type": "address"
        }
      ],
      "name": "addERC20Token",
      "outputs": [],
      "stateMutability": "nonpayable",
      "type": "function"
    },
    {
      "inputs": [
        {
          "internalType": "address",
          "name": "erc20Token",
          "type": "address"
        }
      ],
      "name": "removeERC20Token",
      "outputs": [],
      "stateMutability": "nonpayable",
      "type": "function"
    },
    {
      "inputs": [
        {
          "internalType": "uint256",
          "name": "tokenId",
          "type": "uint256"
        },
        {
          "internalType": "address",
          "name": "erc20Token",
          "type": "address"
        },
        {
          "internalType": "uint256",
          "name": "price",
          "type": "uint256"
        }
      ],
      "name": "updateERC20TokenPrice",
      "outputs": [],
      "stateMutability": "nonpayable",
      "type": "function"
    },
    {
      "inputs": [
        {
          "internalType": "uint256",
          "name": "_tokenId",
          "type": "uint256"
        },
        {
          "internalType": "uint256",
          "name": "_highestBid",
          "type": "uint256"
        }
      ],
      "name": "calculateRoyaltyForAcceptedOffer",
      "outputs": [
        {
          "internalType": "uint256",
          "name": "",
          "type": "uint256"
        }
      ],
      "stateMutability": "view",
      "type": "function",
      "constant": true
    },
    {
      "inputs": [
        {
          "internalType": "uint256",
          "name": "tokenId",
          "type": "uint256"
        },
        {
          "internalType": "uint256",
          "name": "royalty",
          "type": "uint256"
        }
      ],
      "name": "_payTxFee",
      "outputs": [],
      "stateMutability": "nonpayable",
      "type": "function"
    }
  ],
  "bytecode": "0x60a06040523060805234801561001457600080fd5b506080516130f461004c600039600081816109f101528181610a3101528181610d7d01528181610dbd0152610ec401526130f46000f3fe6080604052600436106101e35760003560e01c8063608403b9116101025780639038e69311610095578063ca9ff92211610064578063ca9ff922146105ce578063e7fb74c7146105ee578063f2fde38b14610601578063f4f3b2001461062157600080fd5b80639038e69314610559578063971ccc161461056e5780639989a5fb1461058e578063c4604943146105ae57600080fd5b8063770fd7df116100d1578063770fd7df146104cf578063836b10cd146104f1578063883efa67146105115780638da5cb5b1461053157600080fd5b8063608403b91461045a578063654e60911461047a57806369396f0c1461049a578063715018a6146104ba57600080fd5b806330cfeda91161017a5780634f1ef286116101495780634f1ef286146103cf5780634f6ccce7146103e257806352d1902d1461040257806358c1d7fe1461041757600080fd5b806330cfeda9146103375780633659cfe61461036d578063485cc9551461038d5780634b58ffaa146103ad57600080fd5b80631c056605116101b65780631c056605146102895780632a55205a146102ab5780632fa8f924146102ea578063305a67a81461031557600080fd5b806301ffc9a7146101e8578063107a274a1461021d57806318160ddd1461024a5780631af9cf4914610269575b600080fd5b3480156101f457600080fd5b50610208610203366004612aaa565b610641565b60405190151581526020015b60405180910390f35b34801561022957600080fd5b5061023d610238366004612ad4565b610678565b6040516102149190612aed565b34801561025657600080fd5b506002545b604051908152602001610214565b34801561027557600080fd5b5061025b610284366004612ad4565b6106e7565b34801561029557600080fd5b5061029e61073c565b6040516102149190612b17565b3480156102b757600080fd5b506102cb6102c6366004612b5b565b610794565b604080516001600160a01b039093168352602083019190915201610214565b3480156102f657600080fd5b506102083360009081526008602052604090205460ff16151560011490565b34801561032157600080fd5b50610335610330366004612ad4565b610840565b005b34801561034357600080fd5b5061025b610352366004612b92565b6001600160a01b031660009081526006602052604090205490565b34801561037957600080fd5b50610335610388366004612b92565b6109e7565b34801561039957600080fd5b506103356103a8366004612baf565b610ac6565b3480156103b957600080fd5b506103c2610c40565b6040516102149190612be8565b6103356103dd366004612c5d565b610d73565b3480156103ee57600080fd5b5061025b6103fd366004612ad4565b610e43565b34801561040e57600080fd5b5061025b610eb7565b34801561042357600080fd5b5061025b610432366004612d21565b6001600160a01b03919091166000908152600a60209081526040808320938352929052205490565b34801561046657600080fd5b50610335610475366004612b5b565b610f6a565b34801561048657600080fd5b5061025b610495366004612b5b565b611009565b3480156104a657600080fd5b506103356104b5366004612d4d565b611016565b3480156104c657600080fd5b506103356110f0565b3480156104db57600080fd5b506104e4611104565b6040516102149190612d85565b3480156104fd57600080fd5b5061033561050c366004612b5b565b611165565b34801561051d57600080fd5b5061033561052c366004612b5b565b6111a3565b34801561053d57600080fd5b5060d3546040516001600160a01b039091168152602001610214565b34801561056557600080fd5b5061033561143e565b34801561057a57600080fd5b50610335610589366004612b92565b611508565b34801561059a57600080fd5b506103356105a9366004612dc6565b611576565b3480156105ba57600080fd5b506103356105c9366004612b5b565b61198e565b3480156105da57600080fd5b506103356105e9366004612b92565b611b4e565b6103356105fc366004612ad4565b611b77565b34801561060d57600080fd5b5061033561061c366004612b92565b611fa0565b34801561062d57600080fd5b5061033561063c366004612b92565b612016565b60006001600160e01b0319821663152a902d60e11b148061067257506301ffc9a760e01b6001600160e01b03198316145b92915050565b6106a56040518060600160405280600081526020016000815260200160006001600160a01b031681525090565b50600090815260056020908152604091829020825160608101845281548152600182015492810192909252600201546001600160a01b03169181019190915290565b600081815260056020908152604080832081516060810183528154815260018201549381018490526002909101546001600160a01b031691810191909152908290610733908590610794565b95945050505050565b6060600280548060200260200160405190810160405280929190818152602001828054801561078a57602002820191906000526020600020905b815481526020019060010190808311610776575b5050505050905090565b6000828152603e602090815260408083208151808301909252546001600160a01b038116808352600160a01b9091046001600160601b0316928201929092528291610809575060408051808201909152603d546001600160a01b0381168252600160a01b90046001600160601b031660208201525b602081015160009061271090610828906001600160601b031687612e01565b6108329190612e18565b915196919550909350505050565b600080546040516331a9108f60e11b815260048101849052839233926201000090046001600160a01b0316918290636352211e90602401602060405180830381865afa158015610894573d6000803e3d6000fd5b505050506040513d601f19601f820116820180604052508101906108b89190612e3a565b9050806001600160a01b0316836001600160a01b0316146108ec576040516330cd747160e01b815260040160405180910390fd5b60008581526005602090815260409182902082516060810184528154815260018201549281018390526002909101546001600160a01b03169281019290925286919061096b57600054604051631a0c522360e21b8152620100009091046001600160a01b03166004820152602481018390526044015b60405180910390fd5b6000878152600560205260408120818155600181019190915560020180546001600160a01b031916905561099e876120fd565b600080546040518992620100009092046001600160a01b03169133917f9ba1a3cb55ce8d63d072a886f94d2a744f50cddf82128e897d0661f5ec6231589190a450505050505050565b6001600160a01b037f0000000000000000000000000000000000000000000000000000000000000000163003610a2f5760405162461bcd60e51b815260040161096290612e57565b7f00000000000000000000000000000000000000000000000000000000000000006001600160a01b0316610a78600080516020613078833981519152546001600160a01b031690565b6001600160a01b031614610a9e5760405162461bcd60e51b815260040161096290612ea3565b610aa7816121bc565b60408051600080825260208201909252610ac3918391906121c4565b50565b600054610100900460ff1615808015610ae65750600054600160ff909116105b80610b005750303b158015610b00575060005460ff166001145b610b635760405162461bcd60e51b815260206004820152602e60248201527f496e697469616c697a61626c653a20636f6e747261637420697320616c72656160448201526d191e481a5b9a5d1a585b1a5e995960921b6064820152608401610962565b6000805460ff191660011790558015610b86576000805461ff0019166101001790555b6000805462010000600160b01b031916620100006001600160a01b038681169190910291909117909155600180546001600160a01b031916918416919091179055610bcf61232f565b610bdb336103e861235e565b336000908152600860205260409020805460ff191660011790558015610c3b576000805461ff0019169055604051600181527f7f26b83ff96e1f2b6a682f133852f6798a09c465da95921460cefb38474024989060200160405180910390a15b505050565b6002546060906000610c5061245b565b90506000808267ffffffffffffffff811115610c6e57610c6e612c47565b604051908082528060200260200182016040528015610ccc57816020015b610cb96040518060600160405280600081526020016000815260200160006001600160a01b031681525090565b815260200190600190039081610c8c5790505b50905060005b84811015610d6a576000610ce582610e43565b60008181526005602090815260409182902082516060810184528154815260018201549281019290925260028101546001600160a01b03169282019290925285519293509091859087908110610d3d57610d3d612eef565b6020908102919091010152610d53600186612f05565b945050508080610d6290612f18565b915050610cd2565b50949350505050565b6001600160a01b037f0000000000000000000000000000000000000000000000000000000000000000163003610dbb5760405162461bcd60e51b815260040161096290612e57565b7f00000000000000000000000000000000000000000000000000000000000000006001600160a01b0316610e04600080516020613078833981519152546001600160a01b031690565b6001600160a01b031614610e2a5760405162461bcd60e51b815260040161096290612ea3565b610e33826121bc565b610e3f828260016121c4565b5050565b6000610e4e60025490565b8210610e925760405162461bcd60e51b8152602060048201526013602482015272496e646578206f7574206f6620626f756e647360681b6044820152606401610962565b60028281548110610ea557610ea5612eef565b90600052602060002001549050919050565b6000306001600160a01b037f00000000000000000000000000000000000000000000000000000000000000001614610f575760405162461bcd60e51b815260206004820152603860248201527f555550535570677261646561626c653a206d757374206e6f742062652063616c60448201527f6c6564207468726f7567682064656c656761746563616c6c00000000000000006064820152608401610962565b5060008051602061307883398151915290565b6001546040516000916001600160a01b03169083908381818185875af1925050503d8060008114610fb7576040519150601f19603f3d011682016040523d82523d6000602084013e610fbc565b606091505b5050905080610fca57600080fd5b827f3211b07ff5e1a59acedc5c7c3e46f2849a75856044744c01f6cc8211b2e943ae83604051610ffc91815260200190565b60405180910390a2505050565b6000806107338484610794565b600080546040516331a9108f60e11b815260048101869052859233926201000090046001600160a01b0316918290636352211e90602401602060405180830381865afa15801561106a573d6000803e3d6000fd5b505050506040513d601f19601f8201168201806040525081019061108e9190612e3a565b9050806001600160a01b0316836001600160a01b0316146110c2576040516330cd747160e01b815260040160405180910390fd5b505050506001600160a01b03919091166000908152600a602090815260408083209483529390529190912055565b6110f861246b565b61110260006124c5565b565b6060600380548060200260200160405190810160405280929190818152602001828054801561078a57602002820191906000526020600020905b81546001600160a01b0316815260019091019060200180831161113e575050505050905090565b817f3211b07ff5e1a59acedc5c7c3e46f2849a75856044744c01f6cc8211b2e943ae8260405161119791815260200190565b60405180910390a25050565b60008281526005602090815260409182902082516060810184528154815260018201549281018390526002909101546001600160a01b0316928101929092528391901561121e57600054604051634a5568d560e01b8152620100009091046001600160a01b0316600482015260248101839052604401610962565b600080546040516331a9108f60e11b815260048101879052869233926201000090046001600160a01b0316918290636352211e90602401602060405180830381865afa158015611272573d6000803e3d6000fd5b505050506040513d601f19601f820116820180604052508101906112969190612e3a565b9050806001600160a01b0316836001600160a01b0316146112ca576040516330cd747160e01b815260040160405180910390fd5b600087116112eb5760405163e1abbfc560e01b815260040160405180910390fd5b60005460405163020604bf60e21b8152600481018a9052620100009091046001600160a01b0316903090829063081812fc90602401602060405180830381865afa15801561133d573d6000803e3d6000fd5b505050506040513d601f19601f820116820180604052508101906113619190612e3a565b6001600160a01b03161461138857604051634be3a2c560e01b815260040160405180910390fd5b604080516060810182528a815260208082018b81523383850190815260008e8152600590935293909120915182555160018201559051600290910180546001600160a01b0319166001600160a01b039092169190911790556113e989612517565b6000546040518981528a916201000090046001600160a01b03169033907fd547e933094f12a9159076970143ebe73234e64480317844b0dcb36117116de49060200160405180910390a4505050505050505050565b336000908152600660205260409020548061146c5760405163c4d8fa8760e01b815260040160405180910390fd5b336000818152600660205260408082208290555190919083908381818185875af1925050503d80600081146114bd576040519150601f19603f3d011682016040523d82523d6000602084013e6114c2565b606091505b5050905080610e3f5760405162461bcd60e51b81526020600482015260126024820152714661696c656420746f20776974686472617760701b6044820152606401610962565b61151061246b565b6001600160a01b03166000818152600960205260408120805460ff191660019081179091556003805491820181559091527fc2575a0e9e593c00f959f8c92f12db2869c3395a3b0502d05e2516446f71f85b0180546001600160a01b0319169091179055565b60008281526005602090815260409182902082516060810184528154815260018201549281018390526002909101546001600160a01b0316928101929092528391906115f057600054604051631a0c522360e21b8152620100009091046001600160a01b0316600482015260248101839052604401610962565b600080546040516331a9108f60e11b815260048101879052869233926201000090046001600160a01b0316918290636352211e90602401602060405180830381865afa158015611644573d6000803e3d6000fd5b505050506040513d601f19601f820116820180604052508101906116689190612e3a565b9050806001600160a01b0316836001600160a01b03160361169c576040516365b023fd60e01b815260040160405180910390fd5b6116a4612566565b60008881526005602090815260408083208151606081018352815481526001820154818501526002909101546001600160a01b03908116828401528b16808552600a84528285208d865290935292819020549051636eb1769f60e11b81523360048201523060248201528a92829163dd62ed3e90604401602060405180830381865afa158015611738573d6000803e3d6000fd5b505050506040513d601f19601f8201168201806040525081019061175c9190612f31565b10156117aa5760405162461bcd60e51b815260206004820152601760248201527f496e73756666696369656e7420616c6c6f77616e63652e0000000000000000006044820152606401610962565b6040516370a0823160e01b815233600482015281906001600160a01b038416906370a0823190602401602060405180830381865afa1580156117f0573d6000803e3d6000fd5b505050506040513d601f19601f820116820180604052508101906118149190612f31565b101561185a5760405162461bcd60e51b815260206004820152601560248201527424b739bab33334b1b4b2b73a103130b630b731b29760591b6044820152606401610962565b6118658b828c6125bf565b600560008c815260200190815260200160002060008082016000905560018201600090556002820160006101000a8154906001600160a01b0302191690555050600060029054906101000a90046001600160a01b03166001600160a01b03166342842e0e8460400151338e6040518463ffffffff1660e01b81526004016118ee93929190612f4a565b600060405180830381600087803b15801561190857600080fd5b505af115801561191c573d6000803e3d6000fd5b505050506119298b6120fd565b6000546020848101516040519081528d926201000090046001600160a01b03169133917f263223b1dd81e51054a4e6f791d45a4a1ddb4aadcd93a2dfd892615c3fdac187910160405180910390a45050506119846001606f55565b5050505050505050565b60008281526005602090815260409182902082516060810184528154815260018201549281018390526002909101546001600160a01b031692810192909252839190611a0857600054604051631a0c522360e21b8152620100009091046001600160a01b0316600482015260248101839052604401610962565b611a10612566565b600080546040516331a9108f60e11b815260048101879052869233926201000090046001600160a01b0316918290636352211e90602401602060405180830381865afa158015611a64573d6000803e3d6000fd5b505050506040513d601f19601f82011682018060405250810190611a889190612e3a565b9050806001600160a01b0316836001600160a01b031614611abc576040516330cd747160e01b815260040160405180910390fd5b60008711611add5760405163e1abbfc560e01b815260040160405180910390fd5b60008881526005602090815260408083206001018a9055915491518981528a926201000090046001600160a01b03169133917fd547e933094f12a9159076970143ebe73234e64480317844b0dcb36117116de4910160405180910390a450505050611b486001606f55565b50505050565b611b5661246b565b6001600160a01b03166000908152600960205260409020805460ff19169055565b60008181526005602090815260409182902082516060810184528154815260018201549281018390526002909101546001600160a01b031692810192909252829190611bf157600054604051631a0c522360e21b8152620100009091046001600160a01b0316600482015260248101839052604401610962565b600080546040516331a9108f60e11b815260048101869052859233926201000090046001600160a01b0316918290636352211e90602401602060405180830381865afa158015611c45573d6000803e3d6000fd5b505050506040513d601f19601f82011682018060405250810190611c699190612e3a565b9050806001600160a01b0316836001600160a01b031603611c9d576040516365b023fd60e01b815260040160405180910390fd5b611ca5612566565b60008781526005602090815260409182902082516060810184528154815260018201549281018390526002909101546001600160a01b031692810192909252341015611d215760405162461bcd60e51b815260206004820152600b60248201526a141c9a58d9539bdd13595d60aa1b6044820152606401610962565b600080546040516331a9108f60e11b8152600481018b9052620100009091046001600160a01b031690636352211e90602401602060405180830381865afa158015611d70573d6000803e3d6000fd5b505050506040513d601f19601f82011682018060405250810190611d949190612e3a565b90506000611da18a6106e7565b90506000611dc33360009081526008602052604090205460ff16151560011490565b905080158015611de157506001546001600160a01b03848116911614155b15611df057611df08b83610f6a565b60408401516000906001600160a01b0316611e0b8434612f6e565b604051600081818185875af1925050503d8060008114611e47576040519150601f19603f3d011682016040523d82523d6000602084013e611e4c565b606091505b5050905080611e8f5760405162461bcd60e51b815260206004820152600f60248201526e151c985b9cd9995c8819985a5b1959608a1b6044820152606401610962565b611e988c6120fd565b600060029054906101000a90046001600160a01b03166001600160a01b03166342842e0e8660400151338f6040518463ffffffff1660e01b8152600401611ee193929190612f4a565b600060405180830381600087803b158015611efb57600080fd5b505af1158015611f0f573d6000803e3d6000fd5b50505060008d81526005602090815260408083208381556001810193909355600290920180546001600160a01b0319169055878201518882015192519283528f93506001600160a01b03169133917f263223b1dd81e51054a4e6f791d45a4a1ddb4aadcd93a2dfd892615c3fdac187910160405180910390a45050505050611f976001606f55565b50505050505050565b611fa861246b565b6001600160a01b03811661200d5760405162461bcd60e51b815260206004820152602660248201527f4f776e61626c653a206e6577206f776e657220697320746865207a65726f206160448201526564647265737360d01b6064820152608401610962565b610ac3816124c5565b61201e61246b565b6001546040516370a0823160e01b8152306004820181905283926001600160a01b03808516936323b872dd9392919091169084906370a0823190602401602060405180830381865afa158015612078573d6000803e3d6000fd5b505050506040513d601f19601f8201168201806040525081019061209c9190612f31565b6040518463ffffffff1660e01b81526004016120ba93929190612f4a565b6020604051808303816000875af11580156120d9573d6000803e3d6000fd5b505050506040513d601f19601f82011682018060405250810190610c3b9190612f81565b60025460009061210f90600190612f6e565b6000838152600760205260408120546002805493945090928490811061213757612137612eef565b90600052602060002001549050806002838154811061215857612158612eef565b60009182526020808320909101929092558281526007909152604090208290556121806127da565b60008481526007602052604081205560028054806121a0576121a0612fa3565b6001900381819060005260206000200160009055905550505050565b610ac361246b565b7f4910fdfa16fed3260ed0e7147f7cc6da11a60208b5b9406d12a635614ffd91435460ff16156121f757610c3b836127e4565b826001600160a01b03166352d1902d6040518163ffffffff1660e01b8152600401602060405180830381865afa925050508015612251575060408051601f3d908101601f1916820190925261224e91810190612f31565b60015b6122b45760405162461bcd60e51b815260206004820152602e60248201527f45524331393637557067726164653a206e657720696d706c656d656e7461746960448201526d6f6e206973206e6f74205555505360901b6064820152608401610962565b60008051602061307883398151915281146123235760405162461bcd60e51b815260206004820152602960248201527f45524331393637557067726164653a20756e737570706f727465642070726f786044820152681a58589b195555525160ba1b6064820152608401610962565b50610c3b838383612880565b600054610100900460ff166123565760405162461bcd60e51b815260040161096290612fb9565b6111026128a5565b6127106001600160601b03821611156123cc5760405162461bcd60e51b815260206004820152602a60248201527f455243323938313a20726f79616c7479206665652077696c6c206578636565646044820152692073616c65507269636560b01b6064820152608401610962565b6001600160a01b0382166124225760405162461bcd60e51b815260206004820152601960248201527f455243323938313a20696e76616c6964207265636569766572000000000000006044820152606401610962565b604080518082019091526001600160a01b039092168083526001600160601b039091166020909201829052600160a01b90910217603d55565b600061246660045490565b905090565b60d3546001600160a01b031633146111025760405162461bcd60e51b815260206004820181905260248201527f4f776e61626c653a2063616c6c6572206973206e6f7420746865206f776e65726044820152606401610962565b60d380546001600160a01b038381166001600160a01b0319831681179093556040519116919082907f8be0079c531659141344cd1fd0a4f28419497f9722a3daafe3b4186f6b6457e090600090a35050565b6002546000828152600760205260409020556125316128d5565b600280546001810182556000919091527f405787fa12a823e0f2b7631cc41b3ba8828b3321ca811111fa75cd3aa3bb5ace0155565b6002606f54036125b85760405162461bcd60e51b815260206004820152601f60248201527f5265656e7472616e637947756172643a207265656e7472616e742063616c6c006044820152606401610962565b6002606f55565b600080546040516331a9108f60e11b8152600481018690528392916201000090046001600160a01b031690636352211e90602401602060405180830381865afa158015612610573d6000803e3d6000fd5b505050506040513d601f19601f820116820180604052508101906126349190612e3a565b905060006126428686610794565b91505060006126653360009081526008602052604090205460ff16151560011490565b905080156126e6576040516323b872dd60e01b81526001600160a01b038516906323b872dd9061269d90339087908b90600401612f4a565b6020604051808303816000875af11580156126bc573d6000803e3d6000fd5b505050506040513d601f19601f820116820180604052508101906126e09190612f81565b50611f97565b6001546040516323b872dd60e01b81526001600160a01b03808716926323b872dd9261271a92339216908790600401612f4a565b6020604051808303816000875af1158015612739573d6000803e3d6000fd5b505050506040513d601f19601f8201168201806040525081019061275d9190612f81565b506001600160a01b0384166323b872dd3385612779868b612f6e565b6040518463ffffffff1660e01b815260040161279793929190612f4a565b6020604051808303816000875af11580156127b6573d6000803e3d6000fd5b505050506040513d601f19601f820116820180604052508101906119849190612f81565b61110260046128e3565b6001600160a01b0381163b6128515760405162461bcd60e51b815260206004820152602d60248201527f455243313936373a206e657720696d706c656d656e746174696f6e206973206e60448201526c1bdd08184818dbdb9d1c9858dd609a1b6064820152608401610962565b60008051602061307883398151915280546001600160a01b0319166001600160a01b0392909216919091179055565b6128898361293a565b6000825111806128965750805b15610c3b57611b48838361297a565b600054610100900460ff166128cc5760405162461bcd60e51b815260040161096290612fb9565b611102336124c5565b611102600480546001019055565b8054806129325760405162461bcd60e51b815260206004820152601b60248201527f436f756e7465723a2064656372656d656e74206f766572666c6f7700000000006044820152606401610962565b600019019055565b612943816127e4565b6040516001600160a01b038216907fbc7cd75a20ee27fd9adebab32041f755214dbc6bffa90cc0225b39da2e5c2d3b90600090a250565b60606001600160a01b0383163b6129e25760405162461bcd60e51b815260206004820152602660248201527f416464726573733a2064656c65676174652063616c6c20746f206e6f6e2d636f6044820152651b9d1c9858dd60d21b6064820152608401610962565b600080846001600160a01b0316846040516129fd9190613028565b600060405180830381855af49150503d8060008114612a38576040519150601f19603f3d011682016040523d82523d6000602084013e612a3d565b606091505b509150915061073382826040518060600160405280602781526020016130986027913960608315612a6f575081612a79565b612a798383612a80565b9392505050565b815115612a905781518083602001fd5b8060405162461bcd60e51b81526004016109629190613044565b600060208284031215612abc57600080fd5b81356001600160e01b031981168114612a7957600080fd5b600060208284031215612ae657600080fd5b5035919050565b81518152602080830151908201526040808301516001600160a01b03169082015260608101610672565b6020808252825182820181905260009190848201906040850190845b81811015612b4f57835183529284019291840191600101612b33565b50909695505050505050565b60008060408385031215612b6e57600080fd5b50508035926020909101359150565b6001600160a01b0381168114610ac357600080fd5b600060208284031215612ba457600080fd5b8135612a7981612b7d565b60008060408385031215612bc257600080fd5b8235612bcd81612b7d565b91506020830135612bdd81612b7d565b809150509250929050565b6020808252825182820181905260009190848201906040850190845b81811015612b4f57612c3483855180518252602080820151908301526040908101516001600160a01b0316910152565b9284019260609290920191600101612c04565b634e487b7160e01b600052604160045260246000fd5b60008060408385031215612c7057600080fd5b8235612c7b81612b7d565b9150602083013567ffffffffffffffff80821115612c9857600080fd5b818501915085601f830112612cac57600080fd5b813581811115612cbe57612cbe612c47565b604051601f8201601f19908116603f01168101908382118183101715612ce657612ce6612c47565b81604052828152886020848701011115612cff57600080fd5b8260208601602083013760006020848301015280955050505050509250929050565b60008060408385031215612d3457600080fd5b8235612d3f81612b7d565b946020939093013593505050565b600080600060608486031215612d6257600080fd5b833592506020840135612d7481612b7d565b929592945050506040919091013590565b6020808252825182820181905260009190848201906040850190845b81811015612b4f5783516001600160a01b031683529284019291840191600101612da1565b60008060408385031215612dd957600080fd5b823591506020830135612bdd81612b7d565b634e487b7160e01b600052601160045260246000fd5b808202811582820484141761067257610672612deb565b600082612e3557634e487b7160e01b600052601260045260246000fd5b500490565b600060208284031215612e4c57600080fd5b8151612a7981612b7d565b6020808252602c908201527f46756e6374696f6e206d7573742062652063616c6c6564207468726f7567682060408201526b19195b1959d85d1958d85b1b60a21b606082015260800190565b6020808252602c908201527f46756e6374696f6e206d7573742062652063616c6c6564207468726f7567682060408201526b6163746976652070726f787960a01b606082015260800190565b634e487b7160e01b600052603260045260246000fd5b8082018082111561067257610672612deb565b600060018201612f2a57612f2a612deb565b5060010190565b600060208284031215612f4357600080fd5b5051919050565b6001600160a01b039384168152919092166020820152604081019190915260600190565b8181038181111561067257610672612deb565b600060208284031215612f9357600080fd5b81518015158114612a7957600080fd5b634e487b7160e01b600052603160045260246000fd5b6020808252602b908201527f496e697469616c697a61626c653a20636f6e7472616374206973206e6f74206960408201526a6e697469616c697a696e6760a81b606082015260800190565b60005b8381101561301f578181015183820152602001613007565b50506000910152565b6000825161303a818460208701613004565b9190910192915050565b6020815260008251806020840152613063816040850160208701613004565b601f01601f1916919091016040019291505056fe360894a13ba1a3210667c828492db98dca3e2076cc3735a920a3ca505d382bbc416464726573733a206c6f772d6c6576656c2064656c65676174652063616c6c206661696c6564a26469706673582212204cfbbd538e612d23e41339ecd8821d38e676480962139658225f7046969770c564736f6c63430008110033",
  "immutableReferences": {
    "746": [
      {
        "length": 32,
        "start": 2545
      },
      {
        "length": 32,
        "start": 2609
      },
      {
        "length": 32,
        "start": 3453
      },
      {
        "length": 32,
        "start": 3517
      },
      {
        "length": 32,
        "start": 3780
      }
    ]
  },
  "source": "// SPDX-License-Identifier: MIT\npragma solidity ^0.8.7;\n\nimport \"@openzeppelin/contracts-upgradeable/proxy/utils/Initializable.sol\";\n\nimport \"@openzeppelin/contracts-upgradeable/token/ERC721/IERC721Upgradeable.sol\";\nimport \"@openzeppelin/contracts-upgradeable/token/ERC20/IERC20Upgradeable.sol\";\nimport \"@openzeppelin/contracts-upgradeable/security/ReentrancyGuardUpgradeable.sol\";\nimport \"@openzeppelin/contracts-upgradeable/token/common/ERC2981Upgradeable.sol\";\nimport \"@openzeppelin/contracts-upgradeable/access/OwnableUpgradeable.sol\";\nimport \"@openzeppelin/contracts-upgradeable/proxy/utils/UUPSUpgradeable.sol\";\n\nimport \"./NftVendorStorage.sol\";\n\n// Check out https://github.com/Fantom-foundation/Artion-Contracts/blob/5c90d2bc0401af6fb5abf35b860b762b31dfee02/contracts/FantomMarketplace.sol\n// For a full decentralized nft marketplace\n\nerror PriceNotMet(address nftAddress, uint256 tokenId, uint256 price);\nerror NotListed(address nftAddress, uint256 tokenId);\nerror AlreadyListed(address nftAddress, uint256 tokenId);\nerror NoProceeds();\nerror NotOwner();\nerror IsNotOwner();\nerror NotApprovedForMarketplace();\nerror PriceMustBeAboveZero();\n\n// Error thrown for isNotOwner modifier\n// error IsNotOwner()\n\ncontract NftVendor is\n  Initializable,\n  NftVendorStorage,\n  ERC2981Upgradeable,\n  ReentrancyGuardUpgradeable,\n  OwnableUpgradeable,\n  UUPSUpgradeable\n{\n  event ItemListed(\n    address indexed from,\n    address indexed nftAddress,\n    uint256 indexed tokenId,\n    uint256 price\n  );\n\n  event ItemCanceled(\n    address indexed from,\n    address indexed nftAddress,\n    uint256 indexed tokenId\n  );\n\n  event ItemBought(\n    address indexed to,\n    address indexed from,\n    uint256 indexed tokenId,\n    uint256 price\n  );\n\n  event TxFeePaid(uint256 indexed tokenId, uint256 royalty);\n\n  modifier notListed(uint256 tokenId) {\n    Listing memory listing = s_listings[tokenId];\n    if (listing.price > 0) {\n      revert AlreadyListed(collection, tokenId);\n    }\n    _;\n  }\n\n  modifier isListed(uint256 tokenId) {\n    Listing memory listing = s_listings[tokenId];\n    if (listing.price <= 0) {\n      revert NotListed(collection, tokenId);\n    }\n    _;\n  }\n\n  modifier isOwner(uint256 tokenId, address spender) {\n    IERC721Upgradeable nft = IERC721Upgradeable(collection);\n    address owner = nft.ownerOf(tokenId);\n    if (spender != owner) {\n      revert NotOwner();\n    }\n    _;\n  }\n\n  // IsNotOwner Modifier - Nft Owner can't buy his/her NFT\n  // Modifies buyItem function\n  // Owner should only list, cancel listing or update listing\n  modifier isNotOwner(uint256 tokenId, address spender) {\n    IERC721Upgradeable nft = IERC721Upgradeable(collection);\n    address owner = nft.ownerOf(tokenId);\n    if (spender == owner) {\n      revert IsNotOwner();\n    }\n    _;\n  }\n\n  function initialize(\n    address _collection,\n    address _creator\n  ) public initializer {\n    collection = _collection;\n    creator = _creator;\n    __Ownable_init();\n    _setDefaultRoyalty(msg.sender, 1000);\n    s_excludedList[msg.sender] = true;\n  }\n\n  function _authorizeUpgrade(address) internal override onlyOwner {}\n\n  /////////////////////\n  // Main Functions //\n  /////////////////////\n  /*\n   * @notice Method for listing NFT\n   * @param nftAddress Address of NFT contract\n   * @param tokenId Token ID of NFT\n   * @param price sale price for each item\n   */\n\n  function emitTxFee(uint256 tokenId, uint256 royaltyAmount) public {\n    emit TxFeePaid(tokenId, royaltyAmount);\n  }\n\n  function listItem(\n    uint256 tokenId,\n    uint256 price\n  ) external notListed(tokenId) isOwner(tokenId, msg.sender) {\n    if (price <= 0) {\n      revert PriceMustBeAboveZero();\n    }\n    IERC721Upgradeable nft = IERC721Upgradeable(collection);\n    if (nft.getApproved(tokenId) != address(this)) {\n      revert NotApprovedForMarketplace();\n    }\n    s_listings[tokenId] = Listing(tokenId, price, msg.sender);\n    _addTokenToAllTokensEnumeration(tokenId);\n    emit ItemListed(msg.sender, collection, tokenId, price);\n  }\n\n  /*\n   * @notice Method for cancelling listing\n   * @param collection Address of NFT contract\n   * @param tokenId Token ID of NFT\n   */\n  function cancelListing(\n    uint256 tokenId\n  ) external isOwner(tokenId, msg.sender) isListed(tokenId) {\n    delete (s_listings[tokenId]);\n    _removeTokenFromAllListedTokensEnumeration(tokenId);\n    emit ItemCanceled(msg.sender, collection, tokenId);\n  }\n\n  /*\n   * @notice Method for buying listing\n   * @notice The owner of an NFT could unapprove the marketplace,\n   * which would cause this function to fail\n   * Ideally you'd also have a `createOffer` functionality.\n   * @param collection Address of NFT contract\n   * @param tokenId Token ID of NFT\n   */\n  function buyItem(\n    uint256 tokenId\n  )\n    external\n    payable\n    isListed(tokenId)\n    isNotOwner(tokenId, msg.sender)\n    nonReentrant\n  {\n    Listing memory listedItem = s_listings[tokenId];\n\n    require(msg.value >= listedItem.price, \"PriceNotMet\");\n\n    address owner = IERC721Upgradeable(collection).ownerOf(tokenId);\n    uint256 royaltyAmount = getRoyalty(tokenId);\n    bool isExcluded = getIsExcluded();\n\n    if (!isExcluded && owner != creator) {\n      _payTxFee(tokenId, royaltyAmount);\n    }\n\n    (bool success, ) = payable(listedItem.seller).call{\n      value: msg.value - royaltyAmount\n    }(\"\");\n    require(success, \"Transfer failed\");\n\n    _removeTokenFromAllListedTokensEnumeration(tokenId);\n    IERC721Upgradeable(collection).safeTransferFrom(\n      listedItem.seller,\n      msg.sender,\n      tokenId\n    );\n\n    delete (s_listings[tokenId]);\n\n    emit ItemBought(msg.sender, listedItem.seller, tokenId, listedItem.price);\n  }\n\n  function payERC20Royalties(\n    uint256 _tokenId,\n    uint256 _nftPrice,\n    address _erc20Token\n  ) private {\n    IERC20Upgradeable token = IERC20Upgradeable(_erc20Token);\n    address owner = IERC721Upgradeable(collection).ownerOf(_tokenId);\n    (, uint256 royalty) = royaltyInfo(_tokenId, _nftPrice);\n    bool isEscluded = getIsExcluded();\n    if (isEscluded) {\n      token.transferFrom(msg.sender, owner, _nftPrice);\n    } else {\n      token.transferFrom(msg.sender, creator, royalty);\n      token.transferFrom(msg.sender, owner, _nftPrice - royalty);\n    }\n  }\n\n  function buyNFTWithERC20(\n    uint256 tokenId,\n    address erc20Token\n  ) external isListed(tokenId) isNotOwner(tokenId, msg.sender) nonReentrant {\n    Listing memory listedItem = s_listings[tokenId];\n    IERC20Upgradeable token = IERC20Upgradeable(erc20Token);\n\n    uint256 nftPrice = s_priceTokens[erc20Token][tokenId];\n    require(\n      token.allowance(msg.sender, address(this)) >= nftPrice,\n      \"Insufficient allowance.\"\n    );\n\n    require(token.balanceOf(msg.sender) >= nftPrice, \"Insufficient balance.\");\n\n    payERC20Royalties(tokenId, nftPrice, erc20Token);\n    //token.transferFrom(msg.sender, owner, nftPrice);\n\n    delete (s_listings[tokenId]);\n    IERC721Upgradeable(collection).safeTransferFrom(\n      listedItem.seller,\n      msg.sender,\n      tokenId\n    );\n    _removeTokenFromAllListedTokensEnumeration(tokenId);\n    emit ItemBought(msg.sender, collection, tokenId, listedItem.price);\n  }\n\n  /*\n   * @notice Method for updating listing\n   * @param collection Address of NFT contract\n   * @param tokenId Token ID of NFT\n   * @param newPrice Price in Wei of the item\n   */\n  function updateListingPrice(\n    uint256 tokenId,\n    uint256 newPrice\n  ) external isListed(tokenId) nonReentrant isOwner(tokenId, msg.sender) {\n    //We should check the value of `newPrice` and revert if it's below zero (like we also check in `listItem()`)\n    if (newPrice <= 0) {\n      revert PriceMustBeAboveZero();\n    }\n    s_listings[tokenId].price = newPrice;\n    emit ItemListed(msg.sender, collection, tokenId, newPrice);\n  }\n\n  function withdrawERC20(address erc20Token) external onlyOwner {\n    IERC20Upgradeable token = IERC20Upgradeable(erc20Token);\n    token.transferFrom(address(this), creator, token.balanceOf(address(this)));\n  }\n\n  /*\n   * @notice Method for withdrawing proceeds from sales\n   */\n  function withdrawProceeds() external {\n    uint256 proceeds = s_proceeds[msg.sender];\n    if (proceeds <= 0) {\n      revert NoProceeds();\n    }\n    s_proceeds[msg.sender] = 0;\n    (bool sent, ) = msg.sender.call{ value: proceeds }(\"\");\n    require(sent, \"Failed to withdraw\");\n  }\n\n  function totalSupply() public view returns (uint256) {\n    return _allListedNfts.length;\n  }\n\n  function tokenByIndex(uint index) public view returns (uint) {\n    require(index < totalSupply(), \"Index out of bounds\");\n    return _allListedNfts[index];\n  }\n\n  /////////////////////\n  // Getter Functions //\n  /////////////////////\n\n  function getPriceByToken(\n    address tokenAddress,\n    uint256 tokenId\n  ) external view returns (uint256) {\n    return s_priceTokens[tokenAddress][tokenId];\n  }\n\n  function getAcceptedERC20tokens() external view returns (address[] memory) {\n    return _allERC20Tokens;\n  }\n\n  function getListing(uint256 tokenId) external view returns (Listing memory) {\n    return s_listings[tokenId];\n  }\n\n  function getAllListedNftsId() external view returns (uint256[] memory) {\n    return _allListedNfts;\n  }\n\n  function getAllListedNFTs() external view returns (Listing[] memory) {\n    uint allItemsCounts = _allListedNfts.length;\n    uint listedItemsCounter = getCurrentListedItemsCounter();\n    uint currentIndex = 0;\n    Listing[] memory items = new Listing[](listedItemsCounter);\n\n    for (uint i = 0; i < allItemsCounts; i++) {\n      uint tokenId = tokenByIndex(i);\n      Listing storage item = s_listings[tokenId];\n      items[currentIndex] = item;\n      currentIndex += 1;\n    }\n\n    return items;\n  }\n\n  function getRoyalty(uint256 _tokenId) public view returns (uint256) {\n    Listing memory listedItem = s_listings[_tokenId];\n    (, uint256 royalty) = royaltyInfo(_tokenId, listedItem.price);\n    return royalty;\n  }\n\n  function getProceeds(address seller) external view returns (uint256) {\n    return s_proceeds[seller];\n  }\n\n  function getIsExcluded() public view returns (bool) {\n    bool isExcluded = s_excludedList[msg.sender] == true;\n    return isExcluded;\n  }\n\n  function addERC20Token(address erc20Token) external onlyOwner {\n    s_acceptedTokens[erc20Token] = true;\n    _allERC20Tokens.push(erc20Token);\n  }\n\n  function removeERC20Token(address erc20Token) external onlyOwner {\n    s_acceptedTokens[erc20Token] = false;\n  }\n\n  function updateERC20TokenPrice(\n    uint256 tokenId,\n    address erc20Token,\n    uint256 price\n  ) external isOwner(tokenId, msg.sender) {\n    s_priceTokens[erc20Token][tokenId] = price;\n  }\n\n  function calculateRoyaltyForAcceptedOffer(\n    uint256 _tokenId,\n    uint256 _highestBid\n  ) public view returns (uint256) {\n    (, uint256 royalty) = royaltyInfo(_tokenId, _highestBid);\n    return royalty;\n  }\n\n  function _payTxFee(uint256 tokenId, uint256 royalty) public {\n    (bool success1, ) = payable(creator).call{ value: royalty }(\"\");\n    require(success1);\n    emit TxFeePaid(tokenId, royalty);\n  }\n\n  function _addTokenToAllTokensEnumeration(uint tokenId) private {\n    _idToNftIndex[tokenId] = _allListedNfts.length;\n    incrementListedItems();\n    _allListedNfts.push(tokenId);\n  }\n\n  function _removeTokenFromAllListedTokensEnumeration(uint tokenId) private {\n    uint lastTokenIndex = _allListedNfts.length - 1;\n    uint tokenIndex = _idToNftIndex[tokenId];\n    uint lastTokenId = _allListedNfts[lastTokenIndex];\n\n    _allListedNfts[tokenIndex] = lastTokenId;\n    _idToNftIndex[lastTokenId] = tokenIndex;\n    decrementListedItems();\n\n    delete _idToNftIndex[tokenId];\n    _allListedNfts.pop();\n  }\n}\n",
  "sourcePath": "/Users/alberto/Desktop/Enalbis/caskchain-mono/apps/contracts/contracts/NftVendor/NftVendor.sol",
  "compiler": {
    "name": "solc",
    "version": "0.8.17+commit.8df45f5f.Emscripten.clang"
  },
  "schemaVersion": "3.4.11",
  "updatedAt": "2023-05-01T21:26:24.888Z",
  "networkType": "ethereum",
  "devdoc": {
    "kind": "dev",
    "methods": {
      "owner()": {
        "details": "Returns the address of the current owner."
      },
      "proxiableUUID()": {
        "details": "Implementation of the ERC1822 {proxiableUUID} function. This returns the storage slot used by the implementation. It is used to validate the implementation's compatibility when performing an upgrade. IMPORTANT: A proxy pointing at a proxiable contract should not be considered proxiable itself, because this risks bricking a proxy that upgrades to it, by delegating to itself until out of gas. Thus it is critical that this function revert if invoked through a proxy. This is guaranteed by the `notDelegated` modifier."
      },
      "renounceOwnership()": {
        "details": "Leaves the contract without owner. It will not be possible to call `onlyOwner` functions anymore. Can only be called by the current owner. NOTE: Renouncing ownership will leave the contract without an owner, thereby removing any functionality that is only available to the owner."
      },
      "royaltyInfo(uint256,uint256)": {
        "details": "Returns how much royalty is owed and to whom, based on a sale price that may be denominated in any unit of exchange. The royalty amount is denominated and should be paid in that same unit of exchange."
      },
      "supportsInterface(bytes4)": {
        "details": "See {IERC165-supportsInterface}."
      },
      "transferOwnership(address)": {
        "details": "Transfers ownership of the contract to a new account (`newOwner`). Can only be called by the current owner."
      },
      "upgradeTo(address)": {
        "details": "Upgrade the implementation of the proxy to `newImplementation`. Calls {_authorizeUpgrade}. Emits an {Upgraded} event."
      },
      "upgradeToAndCall(address,bytes)": {
        "details": "Upgrade the implementation of the proxy to `newImplementation`, and subsequently execute the function call encoded in `data`. Calls {_authorizeUpgrade}. Emits an {Upgraded} event."
      }
    },
    "version": 1
  },
  "userdoc": {
    "kind": "user",
    "methods": {},
    "version": 1
  }
}