{
  "contractName": "NftVendor",
  "abi": [
    {
      "inputs": [
        {
          "internalType": "address",
          "name": "_collection",
          "type": "address"
        },
        {
          "internalType": "address",
          "name": "_creator",
          "type": "address"
        }
      ],
      "stateMutability": "nonpayable",
      "type": "constructor"
    },
    {
      "inputs": [
        {
          "internalType": "address",
          "name": "nftAddress",
          "type": "address"
        },
        {
          "internalType": "uint256",
          "name": "tokenId",
          "type": "uint256"
        }
      ],
      "name": "AlreadyListed",
      "type": "error"
    },
    {
      "inputs": [],
      "name": "IsNotOwner",
      "type": "error"
    },
    {
      "inputs": [],
      "name": "NoProceeds",
      "type": "error"
    },
    {
      "inputs": [],
      "name": "NotApprovedForMarketplace",
      "type": "error"
    },
    {
      "inputs": [
        {
          "internalType": "address",
          "name": "nftAddress",
          "type": "address"
        },
        {
          "internalType": "uint256",
          "name": "tokenId",
          "type": "uint256"
        }
      ],
      "name": "NotListed",
      "type": "error"
    },
    {
      "inputs": [],
      "name": "NotOwner",
      "type": "error"
    },
    {
      "inputs": [],
      "name": "PriceMustBeAboveZero",
      "type": "error"
    },
    {
      "inputs": [
        {
          "internalType": "address",
          "name": "nftAddress",
          "type": "address"
        },
        {
          "internalType": "uint256",
          "name": "tokenId",
          "type": "uint256"
        },
        {
          "internalType": "uint256",
          "name": "price",
          "type": "uint256"
        }
      ],
      "name": "PriceNotMet",
      "type": "error"
    },
    {
      "anonymous": false,
      "inputs": [
        {
          "indexed": true,
          "internalType": "address",
          "name": "buyer",
          "type": "address"
        },
        {
          "indexed": true,
          "internalType": "address",
          "name": "seller",
          "type": "address"
        },
        {
          "indexed": true,
          "internalType": "uint256",
          "name": "tokenId",
          "type": "uint256"
        },
        {
          "indexed": false,
          "internalType": "uint256",
          "name": "price",
          "type": "uint256"
        }
      ],
      "name": "ItemBought",
      "type": "event"
    },
    {
      "anonymous": false,
      "inputs": [
        {
          "indexed": true,
          "internalType": "address",
          "name": "seller",
          "type": "address"
        },
        {
          "indexed": true,
          "internalType": "address",
          "name": "nftAddress",
          "type": "address"
        },
        {
          "indexed": true,
          "internalType": "uint256",
          "name": "tokenId",
          "type": "uint256"
        }
      ],
      "name": "ItemCanceled",
      "type": "event"
    },
    {
      "anonymous": false,
      "inputs": [
        {
          "indexed": true,
          "internalType": "address",
          "name": "seller",
          "type": "address"
        },
        {
          "indexed": true,
          "internalType": "address",
          "name": "nftAddress",
          "type": "address"
        },
        {
          "indexed": true,
          "internalType": "uint256",
          "name": "tokenId",
          "type": "uint256"
        },
        {
          "indexed": false,
          "internalType": "uint256",
          "name": "price",
          "type": "uint256"
        }
      ],
      "name": "ItemListed",
      "type": "event"
    },
    {
      "anonymous": false,
      "inputs": [
        {
          "indexed": true,
          "internalType": "address",
          "name": "previousOwner",
          "type": "address"
        },
        {
          "indexed": true,
          "internalType": "address",
          "name": "newOwner",
          "type": "address"
        }
      ],
      "name": "OwnershipTransferred",
      "type": "event"
    },
    {
      "inputs": [],
      "name": "collection",
      "outputs": [
        {
          "internalType": "address",
          "name": "",
          "type": "address"
        }
      ],
      "stateMutability": "view",
      "type": "function",
      "constant": true
    },
    {
      "inputs": [],
      "name": "creator",
      "outputs": [
        {
          "internalType": "address",
          "name": "",
          "type": "address"
        }
      ],
      "stateMutability": "view",
      "type": "function",
      "constant": true
    },
    {
      "inputs": [],
      "name": "owner",
      "outputs": [
        {
          "internalType": "address",
          "name": "",
          "type": "address"
        }
      ],
      "stateMutability": "view",
      "type": "function",
      "constant": true
    },
    {
      "inputs": [],
      "name": "renounceOwnership",
      "outputs": [],
      "stateMutability": "nonpayable",
      "type": "function"
    },
    {
      "inputs": [
        {
          "internalType": "uint256",
          "name": "_tokenId",
          "type": "uint256"
        },
        {
          "internalType": "uint256",
          "name": "_salePrice",
          "type": "uint256"
        }
      ],
      "name": "royaltyInfo",
      "outputs": [
        {
          "internalType": "address",
          "name": "",
          "type": "address"
        },
        {
          "internalType": "uint256",
          "name": "",
          "type": "uint256"
        }
      ],
      "stateMutability": "view",
      "type": "function",
      "constant": true
    },
    {
      "inputs": [
        {
          "internalType": "address",
          "name": "",
          "type": "address"
        }
      ],
      "name": "s_acceptedTokens",
      "outputs": [
        {
          "internalType": "bool",
          "name": "",
          "type": "bool"
        }
      ],
      "stateMutability": "view",
      "type": "function",
      "constant": true
    },
    {
      "inputs": [
        {
          "internalType": "address",
          "name": "",
          "type": "address"
        }
      ],
      "name": "s_excludedList",
      "outputs": [
        {
          "internalType": "bool",
          "name": "",
          "type": "bool"
        }
      ],
      "stateMutability": "view",
      "type": "function",
      "constant": true
    },
    {
      "inputs": [
        {
          "internalType": "address",
          "name": "",
          "type": "address"
        },
        {
          "internalType": "uint256",
          "name": "",
          "type": "uint256"
        }
      ],
      "name": "s_priceTokens",
      "outputs": [
        {
          "internalType": "uint256",
          "name": "",
          "type": "uint256"
        }
      ],
      "stateMutability": "view",
      "type": "function",
      "constant": true
    },
    {
      "inputs": [
        {
          "internalType": "bytes4",
          "name": "interfaceId",
          "type": "bytes4"
        }
      ],
      "name": "supportsInterface",
      "outputs": [
        {
          "internalType": "bool",
          "name": "",
          "type": "bool"
        }
      ],
      "stateMutability": "view",
      "type": "function",
      "constant": true
    },
    {
      "inputs": [
        {
          "internalType": "address",
          "name": "newOwner",
          "type": "address"
        }
      ],
      "name": "transferOwnership",
      "outputs": [],
      "stateMutability": "nonpayable",
      "type": "function"
    },
    {
      "inputs": [
        {
          "internalType": "uint256",
          "name": "tokenId",
          "type": "uint256"
        },
        {
          "internalType": "uint256",
          "name": "price",
          "type": "uint256"
        }
      ],
      "name": "listItem",
      "outputs": [],
      "stateMutability": "nonpayable",
      "type": "function"
    },
    {
      "inputs": [
        {
          "internalType": "uint256",
          "name": "tokenId",
          "type": "uint256"
        }
      ],
      "name": "cancelListing",
      "outputs": [],
      "stateMutability": "nonpayable",
      "type": "function"
    },
    {
      "inputs": [
        {
          "internalType": "uint256",
          "name": "tokenId",
          "type": "uint256"
        }
      ],
      "name": "buyItem",
      "outputs": [],
      "stateMutability": "payable",
      "type": "function",
      "payable": true
    },
    {
      "inputs": [
        {
          "internalType": "uint256",
          "name": "tokenId",
          "type": "uint256"
        },
        {
          "internalType": "address",
          "name": "erc20Token",
          "type": "address"
        }
      ],
      "name": "buyNFTWithERC20",
      "outputs": [],
      "stateMutability": "nonpayable",
      "type": "function"
    },
    {
      "inputs": [
        {
          "internalType": "uint256",
          "name": "tokenId",
          "type": "uint256"
        },
        {
          "internalType": "uint256",
          "name": "newPrice",
          "type": "uint256"
        }
      ],
      "name": "updateListingPrice",
      "outputs": [],
      "stateMutability": "nonpayable",
      "type": "function"
    },
    {
      "inputs": [
        {
          "internalType": "address",
          "name": "erc20Token",
          "type": "address"
        }
      ],
      "name": "withdrawERC20",
      "outputs": [],
      "stateMutability": "nonpayable",
      "type": "function"
    },
    {
      "inputs": [],
      "name": "withdrawProceeds",
      "outputs": [],
      "stateMutability": "nonpayable",
      "type": "function"
    },
    {
      "inputs": [],
      "name": "totalSupply",
      "outputs": [
        {
          "internalType": "uint256",
          "name": "",
          "type": "uint256"
        }
      ],
      "stateMutability": "view",
      "type": "function",
      "constant": true
    },
    {
      "inputs": [
        {
          "internalType": "uint256",
          "name": "index",
          "type": "uint256"
        }
      ],
      "name": "tokenByIndex",
      "outputs": [
        {
          "internalType": "uint256",
          "name": "",
          "type": "uint256"
        }
      ],
      "stateMutability": "view",
      "type": "function",
      "constant": true
    },
    {
      "inputs": [],
      "name": "getAcceptedERC20tokens",
      "outputs": [
        {
          "internalType": "address[]",
          "name": "",
          "type": "address[]"
        }
      ],
      "stateMutability": "view",
      "type": "function",
      "constant": true
    },
    {
      "inputs": [
        {
          "internalType": "uint256",
          "name": "tokenId",
          "type": "uint256"
        }
      ],
      "name": "getListing",
      "outputs": [
        {
          "components": [
            {
              "internalType": "uint256",
              "name": "tokenId",
              "type": "uint256"
            },
            {
              "internalType": "uint256",
              "name": "price",
              "type": "uint256"
            },
            {
              "internalType": "address",
              "name": "seller",
              "type": "address"
            }
          ],
          "internalType": "struct NftVendor.Listing",
          "name": "",
          "type": "tuple"
        }
      ],
      "stateMutability": "view",
      "type": "function",
      "constant": true
    },
    {
      "inputs": [],
      "name": "getAllListedNftsId",
      "outputs": [
        {
          "internalType": "uint256[]",
          "name": "",
          "type": "uint256[]"
        }
      ],
      "stateMutability": "view",
      "type": "function",
      "constant": true
    },
    {
      "inputs": [],
      "name": "getAllListedNFTs",
      "outputs": [
        {
          "components": [
            {
              "internalType": "uint256",
              "name": "tokenId",
              "type": "uint256"
            },
            {
              "internalType": "uint256",
              "name": "price",
              "type": "uint256"
            },
            {
              "internalType": "address",
              "name": "seller",
              "type": "address"
            }
          ],
          "internalType": "struct NftVendor.Listing[]",
          "name": "",
          "type": "tuple[]"
        }
      ],
      "stateMutability": "view",
      "type": "function",
      "constant": true
    },
    {
      "inputs": [],
      "name": "isExcluded",
      "outputs": [
        {
          "internalType": "bool",
          "name": "",
          "type": "bool"
        }
      ],
      "stateMutability": "view",
      "type": "function",
      "constant": true
    },
    {
      "inputs": [
        {
          "internalType": "address",
          "name": "erc20Token",
          "type": "address"
        }
      ],
      "name": "addERC20Token",
      "outputs": [],
      "stateMutability": "nonpayable",
      "type": "function"
    },
    {
      "inputs": [
        {
          "internalType": "address",
          "name": "erc20Token",
          "type": "address"
        }
      ],
      "name": "removeERC20Token",
      "outputs": [],
      "stateMutability": "nonpayable",
      "type": "function"
    },
    {
      "inputs": [
        {
          "internalType": "uint256",
          "name": "tokenId",
          "type": "uint256"
        },
        {
          "internalType": "address",
          "name": "erc20Token",
          "type": "address"
        },
        {
          "internalType": "uint256",
          "name": "price",
          "type": "uint256"
        }
      ],
      "name": "updateERC20TokenPrice",
      "outputs": [],
      "stateMutability": "nonpayable",
      "type": "function"
    },
    {
      "inputs": [
        {
          "internalType": "uint256",
          "name": "_tokenId",
          "type": "uint256"
        },
        {
          "internalType": "uint256",
          "name": "_highestBid",
          "type": "uint256"
        }
      ],
      "name": "calculateRoyaltyForAcceptedOffer",
      "outputs": [
        {
          "internalType": "uint256",
          "name": "",
          "type": "uint256"
        }
      ],
      "stateMutability": "view",
      "type": "function",
      "constant": true
    },
    {
      "inputs": [
        {
          "internalType": "uint256",
          "name": "_tokenId",
          "type": "uint256"
        }
      ],
      "name": "getRoyalty",
      "outputs": [
        {
          "internalType": "uint256",
          "name": "",
          "type": "uint256"
        }
      ],
      "stateMutability": "view",
      "type": "function",
      "constant": true
    },
    {
      "inputs": [
        {
          "internalType": "address",
          "name": "seller",
          "type": "address"
        }
      ],
      "name": "getProceeds",
      "outputs": [
        {
          "internalType": "uint256",
          "name": "",
          "type": "uint256"
        }
      ],
      "stateMutability": "view",
      "type": "function",
      "constant": true
    },
    {
      "inputs": [
        {
          "internalType": "uint256",
          "name": "royalty",
          "type": "uint256"
        }
      ],
      "name": "_payTxFee",
      "outputs": [],
      "stateMutability": "nonpayable",
      "type": "function"
    }
  ],
  "bytecode": "0x60806040523480156200001157600080fd5b50604051620026f2380380620026f2833981016040819052620000349162000218565b60016002556200004433620000a4565b600480546001600160a01b038085166001600160a01b031992831617909255600580549284169290911691909117905562000082336103e8620000f6565b5050336000908152600c60205260409020805460ff1916600117905562000250565b600380546001600160a01b038381166001600160a01b0319831681179093556040519116919082907f8be0079c531659141344cd1fd0a4f28419497f9722a3daafe3b4186f6b6457e090600090a35050565b6127106001600160601b03821611156200016a5760405162461bcd60e51b815260206004820152602a60248201527f455243323938313a20726f79616c7479206665652077696c6c206578636565646044820152692073616c65507269636560b01b60648201526084015b60405180910390fd5b6001600160a01b038216620001c25760405162461bcd60e51b815260206004820152601960248201527f455243323938313a20696e76616c696420726563656976657200000000000000604482015260640162000161565b604080518082019091526001600160a01b039092168083526001600160601b039091166020909201829052600160a01b90910217600055565b80516001600160a01b03811681146200021357600080fd5b919050565b600080604083850312156200022c57600080fd5b6200023783620001fb565b91506200024760208401620001fb565b90509250929050565b61249280620002606000396000f3fe6080604052600436106101d85760003560e01c806369396f0c116101025780639989a5fb11610095578063e7fb74c711610064578063e7fb74c7146105de578063f2fde38b146105f1578063f4f3b20014610611578063f52331e81461063157600080fd5b80639989a5fb14610546578063b0a2377914610566578063c46049431461059e578063ca9ff922146105be57600080fd5b8063883efa67116100d1578063883efa67146104d35780638da5cb5b146104f35780639038e69314610511578063971ccc161461052657600080fd5b806369396f0c1461045c578063715018a61461047c578063770fd7df146104915780637de1e536146104b357600080fd5b80631c0566051161017a57806330cfeda91161014957806330cfeda9146103c45780634b58ffaa146103fa5780634f6ccce71461041c578063654e60911461043c57600080fd5b80631c0566051461031157806329c817b5146103335780632a55205a14610363578063305a67a8146103a257600080fd5b8063107a274a116101b6578063107a274a1461027a57806318160ddd146102a75780631a7a0a7f146102c65780631af9cf49146102f157600080fd5b8063013fa73a146101dd57806301ffc9a71461022257806302d05d3f14610242575b600080fd5b3480156101e957600080fd5b5061020d6101f83660046120e5565b600d6020526000908152604090205460ff1681565b60405190151581526020015b60405180910390f35b34801561022e57600080fd5b5061020d61023d366004612109565b610651565b34801561024e57600080fd5b50600554610262906001600160a01b031681565b6040516001600160a01b039091168152602001610219565b34801561028657600080fd5b5061029a610295366004612133565b610688565b604051610219919061214c565b3480156102b357600080fd5b506006545b604051908152602001610219565b3480156102d257600080fd5b5061020d336000908152600c602052604090205460ff16151560011490565b3480156102fd57600080fd5b506102b861030c366004612133565b6106f7565b34801561031d57600080fd5b5061032661074c565b6040516102199190612176565b34801561033f57600080fd5b5061020d61034e3660046120e5565b600c6020526000908152604090205460ff1681565b34801561036f57600080fd5b5061038361037e3660046121ba565b6107a4565b604080516001600160a01b039093168352602083019190915201610219565b3480156103ae57600080fd5b506103c26103bd366004612133565b610850565b005b3480156103d057600080fd5b506102b86103df3660046120e5565b6001600160a01b03166000908152600a602052604090205490565b34801561040657600080fd5b5061040f6109eb565b60405161021991906121dc565b34801561042857600080fd5b506102b8610437366004612133565b610b19565b34801561044857600080fd5b506102b86104573660046121ba565b610b8d565b34801561046857600080fd5b506103c261047736600461223b565b610b9a565b34801561048857600080fd5b506103c2610c70565b34801561049d57600080fd5b506104a6610c84565b6040516102199190612273565b3480156104bf57600080fd5b50600454610262906001600160a01b031681565b3480156104df57600080fd5b506103c26104ee3660046121ba565b610ce5565b3480156104ff57600080fd5b506003546001600160a01b0316610262565b34801561051d57600080fd5b506103c2610f6d565b34801561053257600080fd5b506103c26105413660046120e5565b61103b565b34801561055257600080fd5b506103c26105613660046122b4565b6110a9565b34801561057257600080fd5b506102b86105813660046122e4565b600e60209081526000928352604080842090915290825290205481565b3480156105aa57600080fd5b506103c26105b93660046121ba565b6114b5565b3480156105ca57600080fd5b506103c26105d93660046120e5565b61166b565b6103c26105ec366004612133565b611694565b3480156105fd57600080fd5b506103c261060c3660046120e5565b611a85565b34801561061d57600080fd5b506103c261062c3660046120e5565b611afe565b34801561063d57600080fd5b506103c261064c366004612133565b611bea565b60006001600160e01b0319821663152a902d60e11b148061068257506301ffc9a760e01b6001600160e01b03198316145b92915050565b6106b56040518060600160405280600081526020016000815260200160006001600160a01b031681525090565b50600090815260096020908152604091829020825160608101845281548152600182015492810192909252600201546001600160a01b03169181019190915290565b600081815260096020908152604080832081516060810183528154815260018201549381018490526002909101546001600160a01b0316918101919091529082906107439085906107a4565b95945050505050565b6060600680548060200260200160405190810160405280929190818152602001828054801561079a57602002820191906000526020600020905b815481526020019060010190808311610786575b5050505050905090565b60008281526001602090815260408083208151808301909252546001600160a01b038116808352600160a01b9091046001600160601b03169282019290925282916108195750604080518082019091526000546001600160a01b0381168252600160a01b90046001600160601b031660208201525b602081015160009061271090610838906001600160601b031687612326565b610842919061233d565b915196919550909350505050565b600480546040516331a9108f60e11b8152918201839052829133916001600160a01b0316906000908290636352211e90602401602060405180830381865afa1580156108a0573d6000803e3d6000fd5b505050506040513d601f19601f820116820180604052508101906108c4919061235f565b9050806001600160a01b0316836001600160a01b0316146108f8576040516330cd747160e01b815260040160405180910390fd5b60008581526009602090815260409182902082516060810184528154815260018201549281018390526002909101546001600160a01b0316928101929092528691906109755760048054604051631a0c522360e21b81526001600160a01b0390911691810191909152602481018390526044015b60405180910390fd5b6000878152600960205260408120818155600181019190915560020180546001600160a01b03191690556109a887611c4a565b60045460405188916001600160a01b03169033907f9ba1a3cb55ce8d63d072a886f94d2a744f50cddf82128e897d0661f5ec62315890600090a450505050505050565b6006546060906000806109fd60085490565b67ffffffffffffffff811115610a1557610a1561237c565b604051908082528060200260200182016040528015610a7357816020015b610a606040518060600160405280600081526020016000815260200160006001600160a01b031681525090565b815260200190600190039081610a335790505b50905060005b83811015610b11576000610a8c82610b19565b60008181526009602090815260409182902082516060810184528154815260018201549281019290925260028101546001600160a01b03169282019290925285519293509091859087908110610ae457610ae4612392565b6020908102919091010152610afa6001866123a8565b945050508080610b09906123bb565b915050610a79565b509392505050565b6000610b2460065490565b8210610b685760405162461bcd60e51b8152602060048201526013602482015272496e646578206f7574206f6620626f756e647360681b604482015260640161096c565b60068281548110610b7b57610b7b612392565b90600052602060002001549050919050565b60008061074384846107a4565b600480546040516331a9108f60e11b8152918201859052849133916001600160a01b0316906000908290636352211e90602401602060405180830381865afa158015610bea573d6000803e3d6000fd5b505050506040513d601f19601f82011682018060405250810190610c0e919061235f565b9050806001600160a01b0316836001600160a01b031614610c42576040516330cd747160e01b815260040160405180910390fd5b505050506001600160a01b03919091166000908152600e602090815260408083209483529390529190912055565b610c78611d0b565b610c826000611d65565b565b6060600780548060200260200160405190810160405280929190818152602001828054801561079a57602002820191906000526020600020905b81546001600160a01b03168152600190910190602001808311610cbe575050505050905090565b60008281526009602090815260409182902082516060810184528154815260018201549281018390526002909101546001600160a01b03169281019290925283919015610d5e5760048054604051634a5568d560e01b81526001600160a01b03909116918101919091526024810183905260440161096c565b600480546040516331a9108f60e11b8152918201869052859133916001600160a01b0316906000908290636352211e90602401602060405180830381865afa158015610dae573d6000803e3d6000fd5b505050506040513d601f19601f82011682018060405250810190610dd2919061235f565b9050806001600160a01b0316836001600160a01b031614610e06576040516330cd747160e01b815260040160405180910390fd5b60008711610e275760405163e1abbfc560e01b815260040160405180910390fd5b6004805460405163020604bf60e21b81529182018a90526001600160a01b0316903090829063081812fc90602401602060405180830381865afa158015610e72573d6000803e3d6000fd5b505050506040513d601f19601f82011682018060405250810190610e96919061235f565b6001600160a01b031614610ebd57604051634be3a2c560e01b815260040160405180910390fd5b604080516060810182528a815260208082018b81523383850190815260008e8152600990935293909120915182555160018201559051600290910180546001600160a01b0319166001600160a01b03909216919091179055610f1e89611db7565b6004546040518981528a916001600160a01b03169033907fd547e933094f12a9159076970143ebe73234e64480317844b0dcb36117116de49060200160405180910390a4505050505050505050565b336000908152600a602052604090205480610f9b5760405163c4d8fa8760e01b815260040160405180910390fd5b336000818152600a60205260408082208290555190919083908381818185875af1925050503d8060008114610fec576040519150601f19603f3d011682016040523d82523d6000602084013e610ff1565b606091505b50509050806110375760405162461bcd60e51b81526020600482015260126024820152714661696c656420746f20776974686472617760701b604482015260640161096c565b5050565b611043611d0b565b6001600160a01b03166000818152600d60205260408120805460ff191660019081179091556007805491820181559091527fa66cc928b5edb82af9bd49922954155ab7b0942694bea4ce44661d9a8736c6880180546001600160a01b0319169091179055565b60008281526009602090815260409182902082516060810184528154815260018201549281018390526002909101546001600160a01b0316928101929092528391906111215760048054604051631a0c522360e21b81526001600160a01b03909116918101919091526024810183905260440161096c565b600480546040516331a9108f60e11b8152918201869052859133916001600160a01b0316906000908290636352211e90602401602060405180830381865afa158015611171573d6000803e3d6000fd5b505050506040513d601f19601f82011682018060405250810190611195919061235f565b9050806001600160a01b0316836001600160a01b0316036111c9576040516365b023fd60e01b815260040160405180910390fd5b6111d1611e0c565b60008881526009602090815260408083208151606081018352815481526001820154818501526002909101546001600160a01b03908116828401528b16808552600e84528285208d865290935292819020549051636eb1769f60e11b81523360048201523060248201528a92829163dd62ed3e90604401602060405180830381865afa158015611265573d6000803e3d6000fd5b505050506040513d601f19601f8201168201806040525081019061128991906123d4565b10156112d75760405162461bcd60e51b815260206004820152601760248201527f496e73756666696369656e7420616c6c6f77616e63652e000000000000000000604482015260640161096c565b6040516370a0823160e01b815233600482015281906001600160a01b038416906370a0823190602401602060405180830381865afa15801561131d573d6000803e3d6000fd5b505050506040513d601f19601f8201168201806040525081019061134191906123d4565b10156113875760405162461bcd60e51b815260206004820152601560248201527424b739bab33334b1b4b2b73a103130b630b731b29760591b604482015260640161096c565b6113928b828c611e63565b600960008c815260200190815260200160002060008082016000905560018201600090556002820160006101000a8154906001600160a01b0302191690555050600460009054906101000a90046001600160a01b03166001600160a01b03166342842e0e8460400151338e6040518463ffffffff1660e01b815260040161141b939291906123ed565b600060405180830381600087803b15801561143557600080fd5b505af1158015611449573d6000803e3d6000fd5b505050506114568b611c4a565b6004546020848101516040519081528d926001600160a01b03169133917f263223b1dd81e51054a4e6f791d45a4a1ddb4aadcd93a2dfd892615c3fdac187910160405180910390a45050506114ab6001600255565b5050505050505050565b60008281526009602090815260409182902082516060810184528154815260018201549281018390526002909101546001600160a01b03169281019290925283919061152d5760048054604051631a0c522360e21b81526001600160a01b03909116918101919091526024810183905260440161096c565b611535611e0c565b600480546040516331a9108f60e11b8152918201869052859133916001600160a01b0316906000908290636352211e90602401602060405180830381865afa158015611585573d6000803e3d6000fd5b505050506040513d601f19601f820116820180604052508101906115a9919061235f565b9050806001600160a01b0316836001600160a01b0316146115dd576040516330cd747160e01b815260040160405180910390fd5b600087116115fe5760405163e1abbfc560e01b815260040160405180910390fd5b60008881526009602090815260409182902060010189905560045491518981528a926001600160a01b03169133917fd547e933094f12a9159076970143ebe73234e64480317844b0dcb36117116de4910160405180910390a4505050506116656001600255565b50505050565b611673611d0b565b6001600160a01b03166000908152600d60205260409020805460ff19169055565b60008181526009602090815260409182902082516060810184528154815260018201549281018390526002909101546001600160a01b03169281019290925282919061170c5760048054604051631a0c522360e21b81526001600160a01b03909116918101919091526024810183905260440161096c565b600480546040516331a9108f60e11b8152918201859052849133916001600160a01b0316906000908290636352211e90602401602060405180830381865afa15801561175c573d6000803e3d6000fd5b505050506040513d601f19601f82011682018060405250810190611780919061235f565b9050806001600160a01b0316836001600160a01b0316036117b4576040516365b023fd60e01b815260040160405180910390fd5b6117bc611e0c565b60008781526009602090815260409182902082516060810184528154815260018201549281018390526002909101546001600160a01b03169281019290925234101561184157600480546020830151604051637c93456560e01b81526001600160a01b0390921692820192909252602481018a9052604481019190915260640161096c565b600061184c896106f7565b9050600061186e336000908152600c602052604090205460ff16151560011490565b905080156118e057600083604001516001600160a01b03163460405160006040518083038185875af1925050503d80600081146118c7576040519150601f19603f3d011682016040523d82523d6000602084013e6118cc565b606091505b50509050806118da57600080fd5b50611955565b6118e982611bea565b60408301516000906001600160a01b03166119048434612411565b604051600081818185875af1925050503d8060008114611940576040519150601f19603f3d011682016040523d82523d6000602084013e611945565b606091505b505090508061195357600080fd5b505b600960008b815260200190815260200160002060008082016000905560018201600090556002820160006101000a8154906001600160a01b0302191690555050600460009054906101000a90046001600160a01b03166001600160a01b03166342842e0e8460400151338d6040518463ffffffff1660e01b81526004016119de939291906123ed565b600060405180830381600087803b1580156119f857600080fd5b505af1158015611a0c573d6000803e3d6000fd5b50505050611a198a611c4a565b8983604001516001600160a01b0316336001600160a01b03167f263223b1dd81e51054a4e6f791d45a4a1ddb4aadcd93a2dfd892615c3fdac1878660200151604051611a6791815260200190565b60405180910390a4505050611a7c6001600255565b50505050505050565b611a8d611d0b565b6001600160a01b038116611af25760405162461bcd60e51b815260206004820152602660248201527f4f776e61626c653a206e6577206f776e657220697320746865207a65726f206160448201526564647265737360d01b606482015260840161096c565b611afb81611d65565b50565b611b06611d0b565b6005546040516370a0823160e01b8152306004820181905283926001600160a01b03808516936323b872dd9392919091169084906370a0823190602401602060405180830381865afa158015611b60573d6000803e3d6000fd5b505050506040513d601f19601f82011682018060405250810190611b8491906123d4565b6040518463ffffffff1660e01b8152600401611ba2939291906123ed565b6020604051808303816000875af1158015611bc1573d6000803e3d6000fd5b505050506040513d601f19601f82011682018060405250810190611be59190612424565b505050565b6005546040516000916001600160a01b03169083908381818185875af1925050503d8060008114611c37576040519150601f19603f3d011682016040523d82523d6000602084013e611c3c565b606091505b505090508061103757600080fd5b600654600090611c5c90600190612411565b6000838152600b602052604081205460068054939450909284908110611c8457611c84612392565b906000526020600020015490508060068381548110611ca557611ca5612392565b6000918252602080832090910192909255828152600b90915260409020829055611ccf6008612079565b6000848152600b60205260408120556006805480611cef57611cef612446565b6001900381819060005260206000200160009055905550505050565b6003546001600160a01b03163314610c825760405162461bcd60e51b815260206004820181905260248201527f4f776e61626c653a2063616c6c6572206973206e6f7420746865206f776e6572604482015260640161096c565b600380546001600160a01b038381166001600160a01b0319831681179093556040519116919082907f8be0079c531659141344cd1fd0a4f28419497f9722a3daafe3b4186f6b6457e090600090a35050565b6006546000828152600b6020526040902055611dd7600880546001019055565b600680546001810182556000919091527ff652222313e28459528d920b65115c16c04f3efc82aaedc97be59f3f377c0d3f0155565b6002805403611e5d5760405162461bcd60e51b815260206004820152601f60248201527f5265656e7472616e637947756172643a207265656e7472616e742063616c6c00604482015260640161096c565b60028055565b600480546040516331a9108f60e11b815291820185905282916000916001600160a01b031690636352211e90602401602060405180830381865afa158015611eaf573d6000803e3d6000fd5b505050506040513d601f19601f82011682018060405250810190611ed3919061235f565b90506000611ee186866107a4565b9150506000611f04336000908152600c602052604090205460ff16151560011490565b90508015611f85576040516323b872dd60e01b81526001600160a01b038516906323b872dd90611f3c90339087908b906004016123ed565b6020604051808303816000875af1158015611f5b573d6000803e3d6000fd5b505050506040513d601f19601f82011682018060405250810190611f7f9190612424565b50611a7c565b6005546040516323b872dd60e01b81526001600160a01b03808716926323b872dd92611fb9923392169087906004016123ed565b6020604051808303816000875af1158015611fd8573d6000803e3d6000fd5b505050506040513d601f19601f82011682018060405250810190611ffc9190612424565b506001600160a01b0384166323b872dd3385612018868b612411565b6040518463ffffffff1660e01b8152600401612036939291906123ed565b6020604051808303816000875af1158015612055573d6000803e3d6000fd5b505050506040513d601f19601f820116820180604052508101906114ab9190612424565b8054806120c85760405162461bcd60e51b815260206004820152601b60248201527f436f756e7465723a2064656372656d656e74206f766572666c6f770000000000604482015260640161096c565b600019019055565b6001600160a01b0381168114611afb57600080fd5b6000602082840312156120f757600080fd5b8135612102816120d0565b9392505050565b60006020828403121561211b57600080fd5b81356001600160e01b03198116811461210257600080fd5b60006020828403121561214557600080fd5b5035919050565b81518152602080830151908201526040808301516001600160a01b03169082015260608101610682565b6020808252825182820181905260009190848201906040850190845b818110156121ae57835183529284019291840191600101612192565b50909695505050505050565b600080604083850312156121cd57600080fd5b50508035926020909101359150565b6020808252825182820181905260009190848201906040850190845b818110156121ae5761222883855180518252602080820151908301526040908101516001600160a01b0316910152565b92840192606092909201916001016121f8565b60008060006060848603121561225057600080fd5b833592506020840135612262816120d0565b929592945050506040919091013590565b6020808252825182820181905260009190848201906040850190845b818110156121ae5783516001600160a01b03168352928401929184019160010161228f565b600080604083850312156122c757600080fd5b8235915060208301356122d9816120d0565b809150509250929050565b600080604083850312156122f757600080fd5b8235612302816120d0565b946020939093013593505050565b634e487b7160e01b600052601160045260246000fd5b808202811582820484141761068257610682612310565b60008261235a57634e487b7160e01b600052601260045260246000fd5b500490565b60006020828403121561237157600080fd5b8151612102816120d0565b634e487b7160e01b600052604160045260246000fd5b634e487b7160e01b600052603260045260246000fd5b8082018082111561068257610682612310565b6000600182016123cd576123cd612310565b5060010190565b6000602082840312156123e657600080fd5b5051919050565b6001600160a01b039384168152919092166020820152604081019190915260600190565b8181038181111561068257610682612310565b60006020828403121561243657600080fd5b8151801515811461210257600080fd5b634e487b7160e01b600052603160045260246000fdfea2646970667358221220c3c98f05915247a1c9f2b27802ef52e0b1787d9ab47b1e020aff2cbef0d122ff64736f6c63430008110033",
  "immutableReferences": {},
  "source": "// SPDX-License-Identifier: MIT\npragma solidity ^0.8.7;\n\nimport '@openzeppelin/contracts/token/ERC721/IERC721.sol';\nimport '@openzeppelin/contracts/token/ERC20/IERC20.sol';\nimport '@openzeppelin/contracts/security/ReentrancyGuard.sol';\nimport '@openzeppelin/contracts/token/common/ERC2981.sol';\nimport '@openzeppelin/contracts/utils/Counters.sol';\nimport '@openzeppelin/contracts/access/Ownable.sol';\n\n// Check out https://github.com/Fantom-foundation/Artion-Contracts/blob/5c90d2bc0401af6fb5abf35b860b762b31dfee02/contracts/FantomMarketplace.sol\n// For a full decentralized nft marketplace\n\nerror PriceNotMet(address nftAddress, uint256 tokenId, uint256 price);\nerror NotListed(address nftAddress, uint256 tokenId);\nerror AlreadyListed(address nftAddress, uint256 tokenId);\nerror NoProceeds();\nerror NotOwner();\nerror IsNotOwner();\nerror NotApprovedForMarketplace();\nerror PriceMustBeAboveZero();\n\n// Error thrown for isNotOwner modifier\n// error IsNotOwner()\n\ncontract NftVendor is ERC2981, ReentrancyGuard, Ownable {\n  using Counters for Counters.Counter;\n\n  struct Listing {\n    uint256 tokenId;\n    uint256 price;\n    address seller;\n  }\n\n  event ItemListed(\n    address indexed seller,\n    address indexed nftAddress,\n    uint256 indexed tokenId,\n    uint256 price\n  );\n\n  event ItemCanceled(\n    address indexed seller,\n    address indexed nftAddress,\n    uint256 indexed tokenId\n  );\n\n  event ItemBought(\n    address indexed buyer,\n    address indexed seller,\n    uint256 indexed tokenId,\n    uint256 price\n  );\n\n  address public collection;\n  address public creator;\n  uint256[] private _allListedNfts;\n  address[] private _allERC20Tokens;\n\n  Counters.Counter private _listedItems;\n\n  mapping(uint256 => Listing) private s_listings;\n  mapping(address => uint256) private s_proceeds;\n  // NFT id => Index\n  mapping(uint256 => uint256) private _idToNftIndex;\n  // Address => Booelan\n  mapping(address => bool) public s_excludedList;\n  // Accepted ERC20 Tokens\n  mapping(address => bool) public s_acceptedTokens;\n  // Price ERC20 Tokens\n  mapping(address => mapping(uint256 => uint256)) public s_priceTokens;\n\n  modifier notListed(uint256 tokenId) {\n    Listing memory listing = s_listings[tokenId];\n    if (listing.price > 0) {\n      revert AlreadyListed(collection, tokenId);\n    }\n    _;\n  }\n\n  modifier isListed(uint256 tokenId) {\n    Listing memory listing = s_listings[tokenId];\n    if (listing.price <= 0) {\n      revert NotListed(collection, tokenId);\n    }\n    _;\n  }\n\n  modifier isOwner(uint256 tokenId, address spender) {\n    IERC721 nft = IERC721(collection);\n    address owner = nft.ownerOf(tokenId);\n    if (spender != owner) {\n      revert NotOwner();\n    }\n    _;\n  }\n\n  // IsNotOwner Modifier - Nft Owner can't buy his/her NFT\n  // Modifies buyItem function\n  // Owner should only list, cancel listing or update listing\n  modifier isNotOwner(uint256 tokenId, address spender) {\n    IERC721 nft = IERC721(collection);\n    address owner = nft.ownerOf(tokenId);\n    if (spender == owner) {\n      revert IsNotOwner();\n    }\n    _;\n  }\n\n  constructor(address _collection, address _creator) {\n    collection = _collection;\n    creator = _creator;\n    _setDefaultRoyalty(msg.sender, 1000);\n    s_excludedList[msg.sender] = true;\n  }\n\n  /////////////////////\n  // Main Functions //\n  /////////////////////\n  /*\n   * @notice Method for listing NFT\n   * @param nftAddress Address of NFT contract\n   * @param tokenId Token ID of NFT\n   * @param price sale price for each item\n   */\n  function listItem(\n    uint256 tokenId,\n    uint256 price\n  ) external notListed(tokenId) isOwner(tokenId, msg.sender) {\n    if (price <= 0) {\n      revert PriceMustBeAboveZero();\n    }\n    IERC721 nft = IERC721(collection);\n    if (nft.getApproved(tokenId) != address(this)) {\n      revert NotApprovedForMarketplace();\n    }\n    s_listings[tokenId] = Listing(tokenId, price, msg.sender);\n    _addTokenToAllTokensEnumeration(tokenId);\n    emit ItemListed(msg.sender, collection, tokenId, price);\n  }\n\n  /*\n   * @notice Method for cancelling listing\n   * @param collection Address of NFT contract\n   * @param tokenId Token ID of NFT\n   */\n  function cancelListing(\n    uint256 tokenId\n  ) external isOwner(tokenId, msg.sender) isListed(tokenId) {\n    delete (s_listings[tokenId]);\n    _removeTokenFromAllListedTokensEnumeration(tokenId);\n    emit ItemCanceled(msg.sender, collection, tokenId);\n  }\n\n  /*\n   * @notice Method for buying listing\n   * @notice The owner of an NFT could unapprove the marketplace,\n   * which would cause this function to fail\n   * Ideally you'd also have a `createOffer` functionality.\n   * @param collection Address of NFT contract\n   * @param tokenId Token ID of NFT\n   */\n  function buyItem(\n    uint256 tokenId\n  )\n    external\n    payable\n    isListed(tokenId)\n    isNotOwner(tokenId, msg.sender)\n    nonReentrant\n  {\n    Listing memory listedItem = s_listings[tokenId];\n    if (msg.value < listedItem.price) {\n      revert PriceNotMet(collection, tokenId, listedItem.price);\n    }\n\n    uint256 royaltyAmount = getRoyalty(tokenId);\n    bool isEscluded = isExcluded();\n\n    if (isEscluded) {\n      (bool success1, ) = payable(listedItem.seller).call{value: msg.value}('');\n      require(success1);\n    } else {\n      _payTxFee(royaltyAmount);\n      (bool success1, ) = payable(listedItem.seller).call{\n        value: msg.value - royaltyAmount\n      }('');\n      require(success1);\n    }\n\n    delete (s_listings[tokenId]);\n    IERC721(collection).safeTransferFrom(\n      listedItem.seller,\n      msg.sender,\n      tokenId\n    );\n    _removeTokenFromAllListedTokensEnumeration(tokenId);\n    emit ItemBought(msg.sender, listedItem.seller, tokenId, listedItem.price);\n  }\n\n   function payERC20Royalties(uint256 _tokenId, uint256 _nftPrice, address _erc20Token) private  {\n      IERC20 token = IERC20(_erc20Token);\n      address owner = IERC721(collection).ownerOf(_tokenId);\n      (, uint256 royalty) = royaltyInfo(_tokenId, _nftPrice);\n      bool isEscluded = isExcluded();\n\n    if (isEscluded) {\n      token.transferFrom(msg.sender, owner, _nftPrice);\n    } else {\n      token.transferFrom(msg.sender, creator, royalty);\n      token.transferFrom(msg.sender, owner, _nftPrice - royalty);\n    }\n\n   }\n\n\n   function buyNFTWithERC20(uint256 tokenId, address erc20Token)     \n    external \n    isListed(tokenId)\n    isNotOwner(tokenId, msg.sender)\n    nonReentrant \n    {\n     Listing memory listedItem = s_listings[tokenId];\n     IERC20 token = IERC20(erc20Token);\n\n     uint256 nftPrice = s_priceTokens[erc20Token][tokenId];\n     require(\n       token.allowance(msg.sender, address(this)) >= nftPrice,\n       'Insufficient allowance.'\n     );\n\n    require(token.balanceOf(msg.sender) >= nftPrice, 'Insufficient balance.');\n\n    payERC20Royalties(tokenId, nftPrice, erc20Token);\n    //token.transferFrom(msg.sender, owner, nftPrice);\n\n    delete (s_listings[tokenId]);\n    IERC721(collection).safeTransferFrom(\n      listedItem.seller,\n      msg.sender,\n      tokenId\n    );\n    _removeTokenFromAllListedTokensEnumeration(tokenId);\n    emit ItemBought(msg.sender, collection, tokenId, listedItem.price);\n\n   }\n\n  /*\n   * @notice Method for updating listing\n   * @param collection Address of NFT contract\n   * @param tokenId Token ID of NFT\n   * @param newPrice Price in Wei of the item\n   */\n  function updateListingPrice(\n    uint256 tokenId,\n    uint256 newPrice\n  ) external isListed(tokenId) nonReentrant isOwner(tokenId, msg.sender) {\n    //We should check the value of `newPrice` and revert if it's below zero (like we also check in `listItem()`)\n    if (newPrice <= 0) {\n      revert PriceMustBeAboveZero();\n    }\n    s_listings[tokenId].price = newPrice;\n    emit ItemListed(msg.sender, collection, tokenId, newPrice);\n  }\n\n  function withdrawERC20(address erc20Token) external onlyOwner {\n    IERC20 token = IERC20(erc20Token);\n    token.transferFrom(address(this), creator, token.balanceOf(address(this)));\n  }\n\n  /*\n   * @notice Method for withdrawing proceeds from sales\n   */\n  function withdrawProceeds() external {\n    uint256 proceeds = s_proceeds[msg.sender];\n    if (proceeds <= 0) {\n      revert NoProceeds();\n    }\n    s_proceeds[msg.sender] = 0;\n    (bool sent, ) = msg.sender.call{value: proceeds}('');\n    require(sent, 'Failed to withdraw');\n  }\n\n  function totalSupply() public view returns (uint256) {\n    return _allListedNfts.length;\n  }\n\n  function tokenByIndex(uint index) public view returns (uint) {\n    require(index < totalSupply(), 'Index out of bounds');\n    return _allListedNfts[index];\n  }\n\n  /////////////////////\n  // Getter Functions //\n  /////////////////////\n\n  function getAcceptedERC20tokens() external view returns (address[] memory) {\n    return _allERC20Tokens;\n  }\n\n  function getListing(uint256 tokenId) external view returns (Listing memory) {\n    return s_listings[tokenId];\n  }\n\n  function getAllListedNftsId() external view returns (uint256[] memory) {\n    return _allListedNfts;\n  }\n\n  function getAllListedNFTs() external view returns (Listing[] memory) {\n    uint allItemsCounts = _allListedNfts.length;\n    uint currentIndex = 0;\n    Listing[] memory items = new Listing[](_listedItems.current());\n\n    for (uint i = 0; i < allItemsCounts; i++) {\n      uint tokenId = tokenByIndex(i);\n      Listing storage item = s_listings[tokenId];\n      items[currentIndex] = item;\n      currentIndex += 1;\n    }\n\n    return items;\n  }\n\n  function isExcluded() public view returns (bool) {\n    bool isEscluded = s_excludedList[msg.sender] == true;\n    return isEscluded;\n  }\n\n  function addERC20Token(address erc20Token) onlyOwner external  {\n    s_acceptedTokens[erc20Token] = true;\n    _allERC20Tokens.push(erc20Token);\n  }\n\n  function removeERC20Token(address erc20Token) onlyOwner external  {\n    s_acceptedTokens[erc20Token] = false;\n  }\n\n  function updateERC20TokenPrice(uint256 tokenId, address erc20Token, uint256 price) isOwner(tokenId, msg.sender) external {\n    s_priceTokens[erc20Token][tokenId] = price;\n  }\n\n  function calculateRoyaltyForAcceptedOffer(\n    uint256 _tokenId,\n    uint256 _highestBid\n  ) public view returns (uint256) {\n    (, uint256 royalty) = royaltyInfo(_tokenId, _highestBid);\n    return royalty;\n  }\n\n  function getRoyalty(uint256 _tokenId) public view returns (uint256) {\n    Listing memory listedItem = s_listings[_tokenId];\n    (, uint256 royalty) = royaltyInfo(_tokenId, listedItem.price);\n    return royalty;\n  }\n\n  function getProceeds(address seller) external view returns (uint256) {\n    return s_proceeds[seller];\n  }\n\n  function _payTxFee(uint256 royalty) public {\n    (bool success1, ) = payable(creator).call{value: royalty}('');\n    require(success1);\n  }\n\n  function _addTokenToAllTokensEnumeration(uint tokenId) private {\n    _idToNftIndex[tokenId] = _allListedNfts.length;\n    _listedItems.increment();\n    _allListedNfts.push(tokenId);\n  }\n\n  function _removeTokenFromAllListedTokensEnumeration(uint tokenId) private {\n    uint lastTokenIndex = _allListedNfts.length - 1;\n    uint tokenIndex = _idToNftIndex[tokenId];\n    uint lastTokenId = _allListedNfts[lastTokenIndex];\n\n    _allListedNfts[tokenIndex] = lastTokenId;\n    _idToNftIndex[lastTokenId] = tokenIndex;\n    _listedItems.decrement();\n\n    delete _idToNftIndex[tokenId];\n    _allListedNfts.pop();\n  }\n}\n",
  "sourcePath": "/Users/alberto/Desktop/Enalbis/caskchain-mono/apps/contracts/contracts/NftVendor.sol",
  "compiler": {
    "name": "solc",
    "version": "0.8.17+commit.8df45f5f.Emscripten.clang"
  },
  "schemaVersion": "3.4.11",
  "updatedAt": "2023-03-31T11:04:44.832Z",
  "networkType": "ethereum",
  "devdoc": {
    "kind": "dev",
    "methods": {
      "owner()": {
        "details": "Returns the address of the current owner."
      },
      "renounceOwnership()": {
        "details": "Leaves the contract without owner. It will not be possible to call `onlyOwner` functions anymore. Can only be called by the current owner. NOTE: Renouncing ownership will leave the contract without an owner, thereby removing any functionality that is only available to the owner."
      },
      "royaltyInfo(uint256,uint256)": {
        "details": "Returns how much royalty is owed and to whom, based on a sale price that may be denominated in any unit of exchange. The royalty amount is denominated and should be paid in that same unit of exchange."
      },
      "supportsInterface(bytes4)": {
        "details": "See {IERC165-supportsInterface}."
      },
      "transferOwnership(address)": {
        "details": "Transfers ownership of the contract to a new account (`newOwner`). Can only be called by the current owner."
      }
    },
    "version": 1
  },
  "userdoc": {
    "kind": "user",
    "methods": {},
    "version": 1
  }
}