{
  "contractName": "NftVendor",
  "abi": [
    {
      "inputs": [
        {
          "internalType": "address",
          "name": "nftAddress",
          "type": "address"
        },
        {
          "internalType": "uint256",
          "name": "tokenId",
          "type": "uint256"
        }
      ],
      "name": "AlreadyListed",
      "type": "error"
    },
    {
      "inputs": [],
      "name": "IsNotOwner",
      "type": "error"
    },
    {
      "inputs": [],
      "name": "NoProceeds",
      "type": "error"
    },
    {
      "inputs": [
        {
          "internalType": "address",
          "name": "nftAddress",
          "type": "address"
        },
        {
          "internalType": "uint256",
          "name": "tokenId",
          "type": "uint256"
        }
      ],
      "name": "NotListed",
      "type": "error"
    },
    {
      "inputs": [],
      "name": "NotOwner",
      "type": "error"
    },
    {
      "anonymous": false,
      "inputs": [
        {
          "indexed": false,
          "internalType": "address",
          "name": "previousAdmin",
          "type": "address"
        },
        {
          "indexed": false,
          "internalType": "address",
          "name": "newAdmin",
          "type": "address"
        }
      ],
      "name": "AdminChanged",
      "type": "event"
    },
    {
      "anonymous": false,
      "inputs": [
        {
          "indexed": true,
          "internalType": "address",
          "name": "beacon",
          "type": "address"
        }
      ],
      "name": "BeaconUpgraded",
      "type": "event"
    },
    {
      "anonymous": false,
      "inputs": [
        {
          "indexed": false,
          "internalType": "uint8",
          "name": "version",
          "type": "uint8"
        }
      ],
      "name": "Initialized",
      "type": "event"
    },
    {
      "anonymous": false,
      "inputs": [
        {
          "indexed": true,
          "internalType": "address",
          "name": "to",
          "type": "address"
        },
        {
          "indexed": true,
          "internalType": "address",
          "name": "from",
          "type": "address"
        },
        {
          "indexed": true,
          "internalType": "uint256",
          "name": "tokenId",
          "type": "uint256"
        },
        {
          "indexed": false,
          "internalType": "bool",
          "name": "isERC20",
          "type": "bool"
        },
        {
          "indexed": false,
          "internalType": "uint256",
          "name": "price",
          "type": "uint256"
        }
      ],
      "name": "ItemBought",
      "type": "event"
    },
    {
      "anonymous": false,
      "inputs": [
        {
          "indexed": true,
          "internalType": "address",
          "name": "from",
          "type": "address"
        },
        {
          "indexed": true,
          "internalType": "address",
          "name": "nftAddress",
          "type": "address"
        },
        {
          "indexed": true,
          "internalType": "uint256",
          "name": "tokenId",
          "type": "uint256"
        }
      ],
      "name": "ItemCanceled",
      "type": "event"
    },
    {
      "anonymous": false,
      "inputs": [
        {
          "indexed": true,
          "internalType": "address",
          "name": "from",
          "type": "address"
        },
        {
          "indexed": true,
          "internalType": "address",
          "name": "nftAddress",
          "type": "address"
        },
        {
          "indexed": true,
          "internalType": "uint256",
          "name": "tokenId",
          "type": "uint256"
        },
        {
          "indexed": false,
          "internalType": "uint256",
          "name": "price",
          "type": "uint256"
        }
      ],
      "name": "ItemListed",
      "type": "event"
    },
    {
      "anonymous": false,
      "inputs": [
        {
          "indexed": true,
          "internalType": "address",
          "name": "from",
          "type": "address"
        },
        {
          "indexed": true,
          "internalType": "address",
          "name": "nftAddress",
          "type": "address"
        },
        {
          "indexed": true,
          "internalType": "uint256",
          "name": "tokenId",
          "type": "uint256"
        },
        {
          "indexed": false,
          "internalType": "uint256",
          "name": "price",
          "type": "uint256"
        }
      ],
      "name": "ItemPiceUpdated",
      "type": "event"
    },
    {
      "anonymous": false,
      "inputs": [
        {
          "indexed": true,
          "internalType": "address",
          "name": "from",
          "type": "address"
        },
        {
          "indexed": true,
          "internalType": "address",
          "name": "nftAddress",
          "type": "address"
        },
        {
          "indexed": true,
          "internalType": "uint256",
          "name": "tokenId",
          "type": "uint256"
        },
        {
          "indexed": false,
          "internalType": "bool",
          "name": "state",
          "type": "bool"
        }
      ],
      "name": "ItemSaleStateUpdated",
      "type": "event"
    },
    {
      "anonymous": false,
      "inputs": [
        {
          "indexed": true,
          "internalType": "address",
          "name": "previousOwner",
          "type": "address"
        },
        {
          "indexed": true,
          "internalType": "address",
          "name": "newOwner",
          "type": "address"
        }
      ],
      "name": "OwnershipTransferred",
      "type": "event"
    },
    {
      "anonymous": false,
      "inputs": [
        {
          "indexed": true,
          "internalType": "uint256",
          "name": "tokenId",
          "type": "uint256"
        },
        {
          "indexed": false,
          "internalType": "uint256",
          "name": "royalty",
          "type": "uint256"
        },
        {
          "indexed": false,
          "internalType": "bool",
          "name": "isERC20",
          "type": "bool"
        }
      ],
      "name": "TxFeePaid",
      "type": "event"
    },
    {
      "anonymous": false,
      "inputs": [
        {
          "indexed": true,
          "internalType": "address",
          "name": "implementation",
          "type": "address"
        }
      ],
      "name": "Upgraded",
      "type": "event"
    },
    {
      "inputs": [],
      "name": "collection",
      "outputs": [
        {
          "internalType": "address",
          "name": "",
          "type": "address"
        }
      ],
      "stateMutability": "view",
      "type": "function",
      "constant": true
    },
    {
      "inputs": [],
      "name": "creator",
      "outputs": [
        {
          "internalType": "address",
          "name": "",
          "type": "address"
        }
      ],
      "stateMutability": "view",
      "type": "function",
      "constant": true
    },
    {
      "inputs": [],
      "name": "owner",
      "outputs": [
        {
          "internalType": "address",
          "name": "",
          "type": "address"
        }
      ],
      "stateMutability": "view",
      "type": "function",
      "constant": true
    },
    {
      "inputs": [],
      "name": "proxiableUUID",
      "outputs": [
        {
          "internalType": "bytes32",
          "name": "",
          "type": "bytes32"
        }
      ],
      "stateMutability": "view",
      "type": "function",
      "constant": true
    },
    {
      "inputs": [],
      "name": "renounceOwnership",
      "outputs": [],
      "stateMutability": "nonpayable",
      "type": "function"
    },
    {
      "inputs": [
        {
          "internalType": "uint256",
          "name": "_tokenId",
          "type": "uint256"
        },
        {
          "internalType": "uint256",
          "name": "_salePrice",
          "type": "uint256"
        }
      ],
      "name": "royaltyInfo",
      "outputs": [
        {
          "internalType": "address",
          "name": "",
          "type": "address"
        },
        {
          "internalType": "uint256",
          "name": "",
          "type": "uint256"
        }
      ],
      "stateMutability": "view",
      "type": "function",
      "constant": true
    },
    {
      "inputs": [
        {
          "internalType": "bytes4",
          "name": "interfaceId",
          "type": "bytes4"
        }
      ],
      "name": "supportsInterface",
      "outputs": [
        {
          "internalType": "bool",
          "name": "",
          "type": "bool"
        }
      ],
      "stateMutability": "view",
      "type": "function",
      "constant": true
    },
    {
      "inputs": [
        {
          "internalType": "address",
          "name": "newOwner",
          "type": "address"
        }
      ],
      "name": "transferOwnership",
      "outputs": [],
      "stateMutability": "nonpayable",
      "type": "function"
    },
    {
      "inputs": [
        {
          "internalType": "address",
          "name": "newImplementation",
          "type": "address"
        }
      ],
      "name": "upgradeTo",
      "outputs": [],
      "stateMutability": "nonpayable",
      "type": "function"
    },
    {
      "inputs": [
        {
          "internalType": "address",
          "name": "newImplementation",
          "type": "address"
        },
        {
          "internalType": "bytes",
          "name": "data",
          "type": "bytes"
        }
      ],
      "name": "upgradeToAndCall",
      "outputs": [],
      "stateMutability": "payable",
      "type": "function",
      "payable": true
    },
    {
      "inputs": [
        {
          "internalType": "address",
          "name": "_collection",
          "type": "address"
        },
        {
          "internalType": "address",
          "name": "_creator",
          "type": "address"
        },
        {
          "internalType": "address",
          "name": "_storageAddress",
          "type": "address"
        }
      ],
      "name": "initialize",
      "outputs": [],
      "stateMutability": "nonpayable",
      "type": "function"
    },
    {
      "inputs": [],
      "name": "getIsExcluded",
      "outputs": [
        {
          "internalType": "bool",
          "name": "",
          "type": "bool"
        }
      ],
      "stateMutability": "view",
      "type": "function",
      "constant": true
    },
    {
      "inputs": [
        {
          "internalType": "uint256",
          "name": "tokenId",
          "type": "uint256"
        }
      ],
      "name": "getIsOwnerSameAsCreator",
      "outputs": [
        {
          "internalType": "bool",
          "name": "",
          "type": "bool"
        }
      ],
      "stateMutability": "view",
      "type": "function",
      "constant": true
    },
    {
      "inputs": [
        {
          "internalType": "address",
          "name": "tokenAddress",
          "type": "address"
        },
        {
          "internalType": "uint256",
          "name": "tokenId",
          "type": "uint256"
        }
      ],
      "name": "getPriceByToken",
      "outputs": [
        {
          "internalType": "uint256",
          "name": "",
          "type": "uint256"
        }
      ],
      "stateMutability": "view",
      "type": "function",
      "constant": true
    },
    {
      "inputs": [
        {
          "internalType": "uint256",
          "name": "_tokenId",
          "type": "uint256"
        }
      ],
      "name": "getListing",
      "outputs": [
        {
          "components": [
            {
              "internalType": "uint256",
              "name": "tokenId",
              "type": "uint256"
            },
            {
              "internalType": "uint256",
              "name": "price",
              "type": "uint256"
            },
            {
              "internalType": "address",
              "name": "seller",
              "type": "address"
            },
            {
              "internalType": "bool",
              "name": "active",
              "type": "bool"
            }
          ],
          "internalType": "struct INftVendorStorage.Listing",
          "name": "",
          "type": "tuple"
        }
      ],
      "stateMutability": "view",
      "type": "function",
      "constant": true
    },
    {
      "inputs": [],
      "name": "getAllListedNFTs",
      "outputs": [
        {
          "components": [
            {
              "internalType": "uint256",
              "name": "tokenId",
              "type": "uint256"
            },
            {
              "internalType": "uint256",
              "name": "price",
              "type": "uint256"
            },
            {
              "internalType": "address",
              "name": "seller",
              "type": "address"
            },
            {
              "internalType": "bool",
              "name": "active",
              "type": "bool"
            }
          ],
          "internalType": "struct INftVendorStorage.Listing[]",
          "name": "",
          "type": "tuple[]"
        }
      ],
      "stateMutability": "view",
      "type": "function",
      "constant": true
    },
    {
      "inputs": [
        {
          "internalType": "uint256",
          "name": "_tokenId",
          "type": "uint256"
        }
      ],
      "name": "getRoyalty",
      "outputs": [
        {
          "internalType": "uint256",
          "name": "",
          "type": "uint256"
        }
      ],
      "stateMutability": "view",
      "type": "function",
      "constant": true
    },
    {
      "inputs": [
        {
          "internalType": "uint256",
          "name": "tokenId",
          "type": "uint256"
        },
        {
          "internalType": "uint256",
          "name": "royaltyAmount",
          "type": "uint256"
        },
        {
          "internalType": "bool",
          "name": "isERC20",
          "type": "bool"
        }
      ],
      "name": "emitTxFee",
      "outputs": [],
      "stateMutability": "nonpayable",
      "type": "function"
    },
    {
      "inputs": [
        {
          "internalType": "uint256",
          "name": "tokenId",
          "type": "uint256"
        },
        {
          "internalType": "uint256",
          "name": "price",
          "type": "uint256"
        },
        {
          "internalType": "bool",
          "name": "activeSell",
          "type": "bool"
        }
      ],
      "name": "listItem",
      "outputs": [],
      "stateMutability": "nonpayable",
      "type": "function"
    },
    {
      "inputs": [
        {
          "internalType": "uint256",
          "name": "_tokenId",
          "type": "uint256"
        },
        {
          "internalType": "bool",
          "name": "state",
          "type": "bool"
        }
      ],
      "name": "updateStateForSale",
      "outputs": [],
      "stateMutability": "nonpayable",
      "type": "function"
    },
    {
      "inputs": [
        {
          "internalType": "uint256",
          "name": "tokenId",
          "type": "uint256"
        }
      ],
      "name": "cancelListing",
      "outputs": [],
      "stateMutability": "nonpayable",
      "type": "function"
    },
    {
      "inputs": [
        {
          "internalType": "uint256",
          "name": "tokenId",
          "type": "uint256"
        }
      ],
      "name": "buyItem",
      "outputs": [],
      "stateMutability": "payable",
      "type": "function",
      "payable": true
    },
    {
      "inputs": [
        {
          "internalType": "uint256",
          "name": "tokenId",
          "type": "uint256"
        },
        {
          "internalType": "address",
          "name": "erc20Token",
          "type": "address"
        }
      ],
      "name": "buyNFTWithERC20",
      "outputs": [],
      "stateMutability": "nonpayable",
      "type": "function"
    },
    {
      "inputs": [
        {
          "internalType": "uint256",
          "name": "tokenId",
          "type": "uint256"
        },
        {
          "internalType": "uint256",
          "name": "newPrice",
          "type": "uint256"
        }
      ],
      "name": "updateListingPrice",
      "outputs": [],
      "stateMutability": "nonpayable",
      "type": "function"
    },
    {
      "inputs": [
        {
          "internalType": "address",
          "name": "erc20Token",
          "type": "address"
        }
      ],
      "name": "withdrawERC20",
      "outputs": [],
      "stateMutability": "nonpayable",
      "type": "function"
    },
    {
      "inputs": [],
      "name": "withdrawProceeds",
      "outputs": [],
      "stateMutability": "nonpayable",
      "type": "function"
    },
    {
      "inputs": [],
      "name": "totalSupply",
      "outputs": [
        {
          "internalType": "uint256",
          "name": "",
          "type": "uint256"
        }
      ],
      "stateMutability": "view",
      "type": "function",
      "constant": true
    },
    {
      "inputs": [
        {
          "internalType": "uint256",
          "name": "index",
          "type": "uint256"
        }
      ],
      "name": "tokenByIndex",
      "outputs": [
        {
          "internalType": "uint256",
          "name": "",
          "type": "uint256"
        }
      ],
      "stateMutability": "view",
      "type": "function",
      "constant": true
    },
    {
      "inputs": [
        {
          "internalType": "address",
          "name": "_address",
          "type": "address"
        },
        {
          "internalType": "bool",
          "name": "_excluded",
          "type": "bool"
        }
      ],
      "name": "setExcludedFromList",
      "outputs": [],
      "stateMutability": "nonpayable",
      "type": "function"
    },
    {
      "inputs": [
        {
          "internalType": "address",
          "name": "erc20Token",
          "type": "address"
        }
      ],
      "name": "addERC20Token",
      "outputs": [],
      "stateMutability": "nonpayable",
      "type": "function"
    },
    {
      "inputs": [
        {
          "internalType": "address",
          "name": "erc20Token",
          "type": "address"
        }
      ],
      "name": "removeERC20Token",
      "outputs": [],
      "stateMutability": "nonpayable",
      "type": "function"
    },
    {
      "inputs": [
        {
          "internalType": "uint256",
          "name": "tokenId",
          "type": "uint256"
        },
        {
          "internalType": "address",
          "name": "erc20Token",
          "type": "address"
        },
        {
          "internalType": "uint256",
          "name": "price",
          "type": "uint256"
        }
      ],
      "name": "updateERC20TokenPrice",
      "outputs": [],
      "stateMutability": "nonpayable",
      "type": "function"
    },
    {
      "inputs": [
        {
          "internalType": "uint256",
          "name": "_tokenId",
          "type": "uint256"
        },
        {
          "internalType": "uint256",
          "name": "_highestBid",
          "type": "uint256"
        }
      ],
      "name": "calculateRoyaltyForAcceptedOffer",
      "outputs": [
        {
          "internalType": "uint256",
          "name": "",
          "type": "uint256"
        }
      ],
      "stateMutability": "view",
      "type": "function",
      "constant": true
    },
    {
      "inputs": [
        {
          "internalType": "uint256",
          "name": "tokenId",
          "type": "uint256"
        },
        {
          "internalType": "uint256",
          "name": "royalty",
          "type": "uint256"
        }
      ],
      "name": "_payTxFee",
      "outputs": [],
      "stateMutability": "nonpayable",
      "type": "function"
    }
  ],
  "bytecode": "0x60a06040523060805234801561001457600080fd5b50608051613b1d61004c60003960008181610b4201528181610b820152818161115e0152818161119e01526112ed0152613b1d6000f3fe6080604052600436106101f95760003560e01c8063654e60911161010d578063b6f26115116100a0578063ca9ff9221161006f578063ca9ff922146105c5578063ccb1fb44146105e5578063e7fb74c714610605578063f2fde38b14610618578063f4f3b2001461063857600080fd5b8063b6f2611514610545578063bc079b9914610565578063c0c53b8b14610585578063c4604943146105a557600080fd5b80638da5cb5b116100dc5780638da5cb5b146104d25780639038e693146104f0578063971ccc16146105055780639989a5fb1461052557600080fd5b8063654e60911461045c57806369396f0c1461047c578063715018a61461049c5780637de1e536146104b157600080fd5b80633659cfe6116101905780634f6ccce71161015f5780634f6ccce7146103c757806352d1902d146103e757806358c1d7fe146103fc5780635deba0e41461041c578063608403b91461043c57600080fd5b80633659cfe6146103525780634b58ffaa146103725780634e9b0696146103945780634f1ef286146103b457600080fd5b80631af9cf49116101cc5780631af9cf49146102bc5780632a55205a146102dc5780632fa8f9241461031b578063305a67a81461033057600080fd5b806301ffc9a7146101fe57806302d05d3f14610233578063107a274a1461026c57806318160ddd14610299575b600080fd5b34801561020a57600080fd5b5061021e6102193660046133e2565b610658565b60405190151581526020015b60405180910390f35b34801561023f57600080fd5b5061016154610254906001600160a01b031681565b6040516001600160a01b03909116815260200161022a565b34801561027857600080fd5b5061028c61028736600461340c565b61068f565b60405161022a9190613425565b3480156102a557600080fd5b506102ae61071d565b60405190815260200161022a565b3480156102c857600080fd5b506102ae6102d736600461340c565b610791565b3480156102e857600080fd5b506102fc6102f736600461345b565b6107b8565b604080516001600160a01b03909316835260208301919091520161022a565b34801561032757600080fd5b5061021e610864565b34801561033c57600080fd5b5061035061034b36600461340c565b6108d3565b005b34801561035e57600080fd5b5061035061036d366004613492565b610b38565b34801561037e57600080fd5b50610387610c17565b60405161022a91906134af565b3480156103a057600080fd5b506103506103af366004613534565b610df0565b6103506103c23660046135b4565b611154565b3480156103d357600080fd5b506102ae6103e236600461340c565b611224565b3480156103f357600080fd5b506102ae6112e0565b34801561040857600080fd5b506102ae61041736600461365c565b611393565b34801561042857600080fd5b50610350610437366004613688565b611411565b34801561044857600080fd5b5061035061045736600461345b565b611485565b34801561046857600080fd5b506102ae61047736600461345b565b611527565b34801561048857600080fd5b506103506104973660046136c1565b611534565b3480156104a857600080fd5b506103506116ef565b3480156104bd57600080fd5b5061016054610254906001600160a01b031681565b3480156104de57600080fd5b5060c9546001600160a01b0316610254565b3480156104fc57600080fd5b50610350611703565b34801561051157600080fd5b50610350610520366004613492565b611886565b34801561053157600080fd5b506103506105403660046136f9565b611959565b34801561055157600080fd5b50610350610560366004613534565b611f1d565b34801561057157600080fd5b5061035061058036600461371e565b611f56565b34801561059157600080fd5b506103506105a0366004613743565b61216c565b3480156105b157600080fd5b506103506105c036600461345b565b6122d4565b3480156105d157600080fd5b506103506105e0366004613492565b6125e4565b3480156105f157600080fd5b5061021e61060036600461340c565b612626565b61035061061336600461340c565b6126b2565b34801561062457600080fd5b50610350610633366004613492565b612ba2565b34801561064457600080fd5b50610350610653366004613492565b612c18565b60006001600160e01b0319821663152a902d60e11b148061068957506301ffc9a760e01b6001600160e01b03198316145b92915050565b60408051608081018252600080825260208201819052818301819052606082015261015f54915163083d13a560e11b81526004810184905290916001600160a01b03169063107a274a90602401608060405180830381865afa1580156106f9573d6000803e3d6000fd5b505050506040513d601f19601f820116820180604052508101906106899190613783565b61015f54604080516359cba24960e11b815290516000926001600160a01b03169163b39744929160048083019260209291908290030181865afa158015610768573d6000803e3d6000fd5b505050506040513d601f19601f8201168201806040525081019061078c91906137f8565b905090565b60008061079d8361068f565b905060006107af8483602001516107b8565b95945050505050565b60008281526034602090815260408083208151808301909252546001600160a01b038116808352600160a01b9091046001600160601b031692820192909252829161082d5750604080518082019091526033546001600160a01b0381168252600160a01b90046001600160601b031660208201525b60208101516000906127109061084c906001600160601b031687613827565b610856919061383e565b915196919550909350505050565b61015f5460408051630bea3e4960e21b815290516000926001600160a01b031691632fa8f9249160048083019260209291908290030181865afa1580156108af573d6000803e3d6000fd5b505050506040513d601f19601f8201168201806040525081019061078c9190613860565b610160546040516331a9108f60e11b815260048101839052829133916001600160a01b03909116906000908290636352211e90602401602060405180830381865afa158015610926573d6000803e3d6000fd5b505050506040513d601f19601f8201168201806040525081019061094a919061387d565b9050806001600160a01b0316836001600160a01b03161461097e576040516330cd747160e01b815260040160405180910390fd5b61015f5460405163083d13a560e11b81526004810187905286916000916001600160a01b039091169063107a274a90602401608060405180830381865afa1580156109cd573d6000803e3d6000fd5b505050506040513d601f19601f820116820180604052508101906109f19190613783565b90506000816020015111610a345761016054604051631a0c522360e21b81526001600160a01b039091166004820152602481018390526044015b60405180910390fd5b61015f54604051637314163760e11b8152600481018990526001600160a01b039091169063e6282c6e90602401600060405180830381600087803b158015610a7b57600080fd5b505af1158015610a8f573d6000803e3d6000fd5b505061015f5460405163958a12a160e01b8152600481018b90526001600160a01b03909116925063958a12a19150602401600060405180830381600087803b158015610ada57600080fd5b505af1158015610aee573d6000803e3d6000fd5b5050610160546040518a93506001600160a01b03909116915033907f9ba1a3cb55ce8d63d072a886f94d2a744f50cddf82128e897d0661f5ec62315890600090a450505050505050565b6001600160a01b037f0000000000000000000000000000000000000000000000000000000000000000163003610b805760405162461bcd60e51b8152600401610a2b9061389a565b7f00000000000000000000000000000000000000000000000000000000000000006001600160a01b0316610bc9600080516020613aa1833981519152546001600160a01b031690565b6001600160a01b031614610bef5760405162461bcd60e51b8152600401610a2b906138e6565b610bf881612d05565b60408051600080825260208201909252610c1491839190612d0d565b50565b6060600061015f60009054906101000a90046001600160a01b03166001600160a01b031663b39744926040518163ffffffff1660e01b8152600401602060405180830381865afa158015610c6f573d6000803e3d6000fd5b505050506040513d601f19601f82011682018060405250810190610c9391906137f8565b9050600061015f60009054906101000a90046001600160a01b03166001600160a01b0316634f9ce8ab6040518163ffffffff1660e01b8152600401602060405180830381865afa158015610ceb573d6000803e3d6000fd5b505050506040513d601f19601f82011682018060405250810190610d0f91906137f8565b90506000808267ffffffffffffffff811115610d2d57610d2d61356d565b604051908082528060200260200182016040528015610d7f57816020015b604080516080810182526000808252602080830182905292820181905260608201528252600019909201910181610d4b5790505b50905060005b84811015610de7576000610d9882611224565b90506000610da58261068f565b905080848681518110610dba57610dba613932565b6020908102919091010152610dd0600186613948565b945050508080610ddf9061395b565b915050610d85565b50949350505050565b61015f5460405163083d13a560e11b81526004810185905284916000916001600160a01b039091169063107a274a90602401608060405180830381865afa158015610e3f573d6000803e3d6000fd5b505050506040513d601f19601f82011682018060405250810190610e639190613783565b602081015190915015610ea05761016054604051634a5568d560e01b81526001600160a01b03909116600482015260248101839052604401610a2b565b610160546040516331a9108f60e11b815260048101879052869133916001600160a01b03909116906000908290636352211e90602401602060405180830381865afa158015610ef3573d6000803e3d6000fd5b505050506040513d601f19601f82011682018060405250810190610f17919061387d565b9050806001600160a01b0316836001600160a01b031614610f4b576040516330cd747160e01b815260040160405180910390fd5b60008811610f965760405162461bcd60e51b81526020600482015260186024820152775072696365206d7573742062652061626f7665207a65726f60401b6044820152606401610a2b565b6101605460405163020604bf60e21b8152600481018b90526001600160a01b03909116903090829063081812fc90602401602060405180830381865afa158015610fe4573d6000803e3d6000fd5b505050506040513d601f19601f82011682018060405250810190611008919061387d565b6001600160a01b03161461102e5760405162461bcd60e51b8152600401610a2b90613974565b61015f54604051630d3db80d60e31b8152600481018c9052602481018b905233604482015289151560648201526001600160a01b03909116906369edc06890608401600060405180830381600087803b15801561108a57600080fd5b505af115801561109e573d6000803e3d6000fd5b505061015f546040516336f82c8760e21b8152600481018e90526001600160a01b03909116925063dbe0b21c9150602401600060405180830381600087803b1580156110e957600080fd5b505af11580156110fd573d6000803e3d6000fd5b5050610160546040518c81528d93506001600160a01b03909116915033907fd547e933094f12a9159076970143ebe73234e64480317844b0dcb36117116de49060200160405180910390a450505050505050505050565b6001600160a01b037f000000000000000000000000000000000000000000000000000000000000000016300361119c5760405162461bcd60e51b8152600401610a2b9061389a565b7f00000000000000000000000000000000000000000000000000000000000000006001600160a01b03166111e5600080516020613aa1833981519152546001600160a01b031690565b6001600160a01b03161461120b5760405162461bcd60e51b8152600401610a2b906138e6565b61121482612d05565b61122082826001612d0d565b5050565b600061122e61071d565b82106112725760405162461bcd60e51b8152602060048201526013602482015272496e646578206f7574206f6620626f756e647360681b6044820152606401610a2b565b61015f5460405163a92d432f60e01b8152600481018490526001600160a01b039091169063a92d432f90602401602060405180830381865afa1580156112bc573d6000803e3d6000fd5b505050506040513d601f19601f8201168201806040525081019061068991906137f8565b6000306001600160a01b037f000000000000000000000000000000000000000000000000000000000000000016146113805760405162461bcd60e51b815260206004820152603860248201527f555550535570677261646561626c653a206d757374206e6f742062652063616c60448201527f6c6564207468726f7567682064656c656761746563616c6c00000000000000006064820152608401610a2b565b50600080516020613aa183398151915290565b61015f54604051632c60ebff60e11b81526001600160a01b0384811660048301526024820184905260009216906358c1d7fe90604401602060405180830381865afa1580156113e6573d6000803e3d6000fd5b505050506040513d601f19601f8201168201806040525081019061140a91906137f8565b9392505050565b611419612e78565b61015f5460405163177ae83960e21b81526001600160a01b038481166004830152831515602483015290911690635deba0e490604401600060405180830381600087803b15801561146957600080fd5b505af115801561147d573d6000803e3d6000fd5b505050505050565b610161546040516000916001600160a01b03169083908381818185875af1925050503d80600081146114d3576040519150601f19603f3d011682016040523d82523d6000602084013e6114d8565b606091505b50509050806114e657600080fd5b604080518381526000602082015284917f47dcbf55c71c9c4f32d9a8e1a956947981998a1c3a474c9f431ac27afe9f62fa91015b60405180910390a2505050565b6000806107af84846107b8565b610160546040516331a9108f60e11b815260048101859052849133916001600160a01b03909116906000908290636352211e90602401602060405180830381865afa158015611587573d6000803e3d6000fd5b505050506040513d601f19601f820116820180604052508101906115ab919061387d565b9050806001600160a01b0316836001600160a01b0316146115df576040516330cd747160e01b815260040160405180910390fd5b6101605460405163020604bf60e21b8152600481018990526001600160a01b03909116903090829063081812fc90602401602060405180830381865afa15801561162d573d6000803e3d6000fd5b505050506040513d601f19601f82011682018060405250810190611651919061387d565b6001600160a01b0316146116775760405162461bcd60e51b8152600401610a2b90613974565b61015f54604051630c6ce41560e01b81526001600160a01b038981166004830152602482018b90526044820189905290911690630c6ce41590606401600060405180830381600087803b1580156116cd57600080fd5b505af11580156116e1573d6000803e3d6000fd5b505050505050505050505050565b6116f7612e78565b6117016000612ed2565b565b61015f5460405163504732fb60e11b81523360048201526000916001600160a01b03169063a08e65f690602401602060405180830381865afa15801561174d573d6000803e3d6000fd5b505050506040513d601f19601f8201168201806040525081019061177191906137f8565b9050600081116117945760405163c4d8fa8760e01b815260040160405180910390fd5b61015f5460405163affaf36960e01b8152336004820152600060248201526001600160a01b039091169063affaf36990604401600060405180830381600087803b1580156117e157600080fd5b505af11580156117f5573d6000803e3d6000fd5b50506040516000925033915083908381818185875af1925050503d806000811461183b576040519150601f19603f3d011682016040523d82523d6000602084013e611840565b606091505b50509050806112205760405162461bcd60e51b81526020600482015260126024820152714661696c656420746f20776974686472617760701b6044820152606401610a2b565b61188e612e78565b61015f546040516364cbede560e11b81526001600160a01b038381166004830152600160248301529091169063c997dbca90604401600060405180830381600087803b1580156118dd57600080fd5b505af11580156118f1573d6000803e3d6000fd5b505061015f546040516373a7171760e11b81526001600160a01b038581166004830152909116925063e74e2e2e91506024015b600060405180830381600087803b15801561193e57600080fd5b505af1158015611952573d6000803e3d6000fd5b5050505050565b61015f5460405163083d13a560e11b81526004810184905283916000916001600160a01b039091169063107a274a90602401608060405180830381865afa1580156119a8573d6000803e3d6000fd5b505050506040513d601f19601f820116820180604052508101906119cc9190613783565b90506000816020015111611a0a5761016054604051631a0c522360e21b81526001600160a01b03909116600482015260248101839052604401610a2b565b610160546040516331a9108f60e11b815260048101869052859133916001600160a01b03909116906000908290636352211e90602401602060405180830381865afa158015611a5d573d6000803e3d6000fd5b505050506040513d601f19601f82011682018060405250810190611a81919061387d565b9050806001600160a01b0316836001600160a01b031603611ab5576040516365b023fd60e01b815260040160405180910390fd5b611abd612f24565b6000611ac88961068f565b90506000611ad6898b611393565b604051636eb1769f60e11b8152336004820152306024820152909150899060009083906001600160a01b0384169063dd62ed3e90604401602060405180830381865afa158015611b2a573d6000803e3d6000fd5b505050506040513d601f19601f82011682018060405250810190611b4e91906137f8565b1015611b9c5760405162461bcd60e51b815260206004820152601760248201527f496e73756666696369656e7420616c6c6f77616e63652e0000000000000000006044820152606401610a2b565b611ba4610864565b611c4b57610160546040516331a9108f60e11b8152600481018e90526000916001600160a01b031690636352211e90602401602060405180830381865afa158015611bf3573d6000803e3d6000fd5b505050506040513d601f19601f82011682018060405250810190611c17919061387d565b610161549091506001600160a01b03808316911614611c4957611c3a8d856107b8565b9250611c4990508c8e84612f7d565b505b816001600160a01b03166323b872dd3386604001518487611c6c91906139ab565b6040518463ffffffff1660e01b8152600401611c8a939291906139be565b6020604051808303816000875af1158015611ca9573d6000803e3d6000fd5b505050506040513d601f19601f82011682018060405250810190611ccd9190613860565b5061016060009054906101000a90046001600160a01b03166001600160a01b03166342842e0e8560400151338f6040518463ffffffff1660e01b8152600401611d18939291906139be565b600060405180830381600087803b158015611d3257600080fd5b505af1158015611d46573d6000803e3d6000fd5b505061015f54604051637314163760e11b81526001600160a01b03909116925063e6282c6e9150611d7f908f9060040190815260200190565b600060405180830381600087803b158015611d9957600080fd5b505af1158015611dad573d6000803e3d6000fd5b5050505061015f60009054906101000a90046001600160a01b03166001600160a01b0316630c6ce4158c8e60006040518463ffffffff1660e01b8152600401611e14939291906001600160a01b039390931683526020830191909152604082015260600190565b600060405180830381600087803b158015611e2e57600080fd5b505af1158015611e42573d6000803e3d6000fd5b505061015f5460405163958a12a160e01b81526001600160a01b03909116925063958a12a19150611e7b908f9060040190815260200190565b600060405180830381600087803b158015611e9557600080fd5b505af1158015611ea9573d6000803e3d6000fd5b50505060408501518d91506001600160a01b0316337f933fd70bdd191afd6196d0d8891f71c2e4ab02e1d296c7af48e8b99fac9df40b6001611eeb86896139ab565b60408051921515835260208301919091520160405180910390a450505050611f136001606555565b5050505050505050565b60408051838152821515602082015284917f47dcbf55c71c9c4f32d9a8e1a956947981998a1c3a474c9f431ac27afe9f62fa910161151a565b610160546040516331a9108f60e11b815260048101849052839133916001600160a01b03909116906000908290636352211e90602401602060405180830381865afa158015611fa9573d6000803e3d6000fd5b505050506040513d601f19601f82011682018060405250810190611fcd919061387d565b9050806001600160a01b0316836001600160a01b031614612001576040516330cd747160e01b815260040160405180910390fd5b61015f5460405163083d13a560e11b81526004810188905287916000916001600160a01b039091169063107a274a90602401608060405180830381865afa158015612050573d6000803e3d6000fd5b505050506040513d601f19601f820116820180604052508101906120749190613783565b905060008160200151116120b25761016054604051631a0c522360e21b81526001600160a01b03909116600482015260248101839052604401610a2b565b61015f5460405163d0483ee560e01b8152600481018a905288151560248201526001600160a01b039091169063d0483ee590604401600060405180830381600087803b15801561210157600080fd5b505af1158015612115573d6000803e3d6000fd5b5050610160546040518a151581528b93506001600160a01b03909116915033907fa7880b0602a875125ce66e792f80e2ac0a6cb1d907fe1206131e58ceaf352f4f9060200160405180910390a45050505050505050565b600054610100900460ff161580801561218c5750600054600160ff909116105b806121a65750303b1580156121a6575060005460ff166001145b6122095760405162461bcd60e51b815260206004820152602e60248201527f496e697469616c697a61626c653a20636f6e747261637420697320616c72656160448201526d191e481a5b9a5d1a585b1a5e995960921b6064820152608401610a2b565b6000805460ff19166001179055801561222c576000805461ff0019166101001790555b61223461303a565b61223c613069565b61016080546001600160a01b038087166001600160a01b031992831617909255610161805486841690831617905561015f805492851692909116919091179055612288336103e8613090565b80156122ce576000805461ff0019169055604051600181527f7f26b83ff96e1f2b6a682f133852f6798a09c465da95921460cefb38474024989060200160405180910390a15b50505050565b61015f5460405163083d13a560e11b81526004810184905283916000916001600160a01b039091169063107a274a90602401608060405180830381865afa158015612323573d6000803e3d6000fd5b505050506040513d601f19601f820116820180604052508101906123479190613783565b905060008160200151116123855761016054604051631a0c522360e21b81526001600160a01b03909116600482015260248101839052604401610a2b565b61238d612f24565b610160546040516331a9108f60e11b815260048101869052859133916001600160a01b03909116906000908290636352211e90602401602060405180830381865afa1580156123e0573d6000803e3d6000fd5b505050506040513d601f19601f82011682018060405250810190612404919061387d565b9050806001600160a01b0316836001600160a01b031614612438576040516330cd747160e01b815260040160405180910390fd5b600087116124835760405162461bcd60e51b81526020600482015260186024820152775072696365206d7573742062652061626f7665207a65726f60401b6044820152606401610a2b565b6101605460405163020604bf60e21b8152600481018a90526001600160a01b03909116903090829063081812fc90602401602060405180830381865afa1580156124d1573d6000803e3d6000fd5b505050506040513d601f19601f820116820180604052508101906124f5919061387d565b6001600160a01b03161461251b5760405162461bcd60e51b8152600401610a2b90613974565b61015f54604051630d3db80d60e31b8152600481018b9052602481018a9052336044820152600060648201526001600160a01b03909116906369edc06890608401600060405180830381600087803b15801561257657600080fd5b505af115801561258a573d6000803e3d6000fd5b5050610160546040518b81528c93506001600160a01b03909116915033907fa22ad62d9c32f1d64c578703c6973dd9a61657bdadb7b9d1563b95fb16a2b7ca9060200160405180910390a450505050506122ce6001606555565b6125ec612e78565b61015f546040516364cbede560e11b81526001600160a01b038381166004830152600060248301529091169063c997dbca90604401611924565b610160546040516331a9108f60e11b81526004810183905260009182916001600160a01b0390911690636352211e90602401602060405180830381865afa158015612675573d6000803e3d6000fd5b505050506040513d601f19601f82011682018060405250810190612699919061387d565b610161546001600160a01b039182169116149392505050565b61015f5460405163083d13a560e11b81526004810183905282916000916001600160a01b039091169063107a274a90602401608060405180830381865afa158015612701573d6000803e3d6000fd5b505050506040513d601f19601f820116820180604052508101906127259190613783565b905060008160200151116127635761016054604051631a0c522360e21b81526001600160a01b03909116600482015260248101839052604401610a2b565b610160546040516331a9108f60e11b815260048101859052849133916001600160a01b03909116906000908290636352211e90602401602060405180830381865afa1580156127b6573d6000803e3d6000fd5b505050506040513d601f19601f820116820180604052508101906127da919061387d565b9050806001600160a01b0316836001600160a01b03160361280e576040516365b023fd60e01b815260040160405180910390fd5b612816612f24565b61015f5460405163083d13a560e11b8152600481018990526000916001600160a01b03169063107a274a90602401608060405180830381865afa158015612861573d6000803e3d6000fd5b505050506040513d601f19601f820116820180604052508101906128859190613783565b905080602001513410156128c95760405162461bcd60e51b815260206004820152600b60248201526a141c9a58d9539bdd13595d60aa1b6044820152606401610a2b565b6128d1610864565b15801561295b575061016154610160546040516331a9108f60e11b8152600481018b90526001600160a01b039283169290911690636352211e90602401602060405180830381865afa15801561292b573d6000803e3d6000fd5b505050506040513d601f19601f8201168201806040525081019061294f919061387d565b6001600160a01b031614155b1561296d5761296d886104578a610791565b600081604001516001600160a01b03166129868a610791565b61299090346139ab565b604051600081818185875af1925050503d80600081146129cc576040519150601f19603f3d011682016040523d82523d6000602084013e6129d1565b606091505b5050905080612a145760405162461bcd60e51b815260206004820152600f60248201526e151c985b9cd9995c8819985a5b1959608a1b6044820152606401610a2b565b610160546040808401519051632142170760e11b81526001600160a01b03909216916342842e0e91612a4c9133908e906004016139be565b600060405180830381600087803b158015612a6657600080fd5b505af1158015612a7a573d6000803e3d6000fd5b505061015f54604051637314163760e11b8152600481018d90526001600160a01b03909116925063e6282c6e9150602401600060405180830381600087803b158015612ac557600080fd5b505af1158015612ad9573d6000803e3d6000fd5b505061015f5460405163958a12a160e01b8152600481018d90526001600160a01b03909116925063958a12a19150602401600060405180830381600087803b158015612b2457600080fd5b505af1158015612b38573d6000803e3d6000fd5b505050604080840151602080860151835160008152918201528c93506001600160a01b039091169133917f933fd70bdd191afd6196d0d8891f71c2e4ab02e1d296c7af48e8b99fac9df40b910160405180910390a45050612b996001606555565b50505050505050565b612baa612e78565b6001600160a01b038116612c0f5760405162461bcd60e51b815260206004820152602660248201527f4f776e61626c653a206e6577206f776e657220697320746865207a65726f206160448201526564647265737360d01b6064820152608401610a2b565b610c1481612ed2565b612c20612e78565b610161546040516370a0823160e01b8152306004820181905283926001600160a01b03808516936323b872dd9392919091169084906370a0823190602401602060405180830381865afa158015612c7b573d6000803e3d6000fd5b505050506040513d601f19601f82011682018060405250810190612c9f91906137f8565b6040518463ffffffff1660e01b8152600401612cbd939291906139be565b6020604051808303816000875af1158015612cdc573d6000803e3d6000fd5b505050506040513d601f19601f82011682018060405250810190612d009190613860565b505050565b610c14612e78565b7f4910fdfa16fed3260ed0e7147f7cc6da11a60208b5b9406d12a635614ffd91435460ff1615612d4057612d008361318d565b826001600160a01b03166352d1902d6040518163ffffffff1660e01b8152600401602060405180830381865afa925050508015612d9a575060408051601f3d908101601f19168201909252612d97918101906137f8565b60015b612dfd5760405162461bcd60e51b815260206004820152602e60248201527f45524331393637557067726164653a206e657720696d706c656d656e7461746960448201526d6f6e206973206e6f74205555505360901b6064820152608401610a2b565b600080516020613aa18339815191528114612e6c5760405162461bcd60e51b815260206004820152602960248201527f45524331393637557067726164653a20756e737570706f727465642070726f786044820152681a58589b195555525160ba1b6064820152608401610a2b565b50612d00838383613229565b60c9546001600160a01b031633146117015760405162461bcd60e51b815260206004820181905260248201527f4f776e61626c653a2063616c6c6572206973206e6f7420746865206f776e65726044820152606401610a2b565b60c980546001600160a01b038381166001600160a01b0319831681179093556040519116919082907f8be0079c531659141344cd1fd0a4f28419497f9722a3daafe3b4186f6b6457e090600090a35050565b600260655403612f765760405162461bcd60e51b815260206004820152601f60248201527f5265656e7472616e637947756172643a207265656e7472616e742063616c6c006044820152606401610a2b565b6002606555565b610161546040516323b872dd60e01b815284916001600160a01b03808416926323b872dd92612fb592339291169087906004016139be565b6020604051808303816000875af1158015612fd4573d6000803e3d6000fd5b505050506040513d601f19601f82011682018060405250810190612ff89190613860565b50604080518381526001602082015284917f47dcbf55c71c9c4f32d9a8e1a956947981998a1c3a474c9f431ac27afe9f62fa910160405180910390a250505050565b600054610100900460ff166130615760405162461bcd60e51b8152600401610a2b906139e2565b61170161324e565b600054610100900460ff166117015760405162461bcd60e51b8152600401610a2b906139e2565b6127106001600160601b03821611156130fe5760405162461bcd60e51b815260206004820152602a60248201527f455243323938313a20726f79616c7479206665652077696c6c206578636565646044820152692073616c65507269636560b01b6064820152608401610a2b565b6001600160a01b0382166131545760405162461bcd60e51b815260206004820152601960248201527f455243323938313a20696e76616c6964207265636569766572000000000000006044820152606401610a2b565b604080518082019091526001600160a01b039092168083526001600160601b039091166020909201829052600160a01b90910217603355565b6001600160a01b0381163b6131fa5760405162461bcd60e51b815260206004820152602d60248201527f455243313936373a206e657720696d706c656d656e746174696f6e206973206e60448201526c1bdd08184818dbdb9d1c9858dd609a1b6064820152608401610a2b565b600080516020613aa183398151915280546001600160a01b0319166001600160a01b0392909216919091179055565b6132328361327e565b60008251118061323f5750805b15612d00576122ce83836132be565b600054610100900460ff166132755760405162461bcd60e51b8152600401610a2b906139e2565b61170133612ed2565b6132878161318d565b6040516001600160a01b038216907fbc7cd75a20ee27fd9adebab32041f755214dbc6bffa90cc0225b39da2e5c2d3b90600090a250565b60606001600160a01b0383163b6133265760405162461bcd60e51b815260206004820152602660248201527f416464726573733a2064656c65676174652063616c6c20746f206e6f6e2d636f6044820152651b9d1c9858dd60d21b6064820152608401610a2b565b600080846001600160a01b0316846040516133419190613a51565b600060405180830381855af49150503d806000811461337c576040519150601f19603f3d011682016040523d82523d6000602084013e613381565b606091505b50915091506107af8282604051806060016040528060278152602001613ac160279139606083156133b357508161140a565b61140a83838151156133c85781518083602001fd5b8060405162461bcd60e51b8152600401610a2b9190613a6d565b6000602082840312156133f457600080fd5b81356001600160e01b03198116811461140a57600080fd5b60006020828403121561341e57600080fd5b5035919050565b81518152602080830151908201526040808301516001600160a01b03169082015260608083015115159082015260808101610689565b6000806040838503121561346e57600080fd5b50508035926020909101359150565b6001600160a01b0381168114610c1457600080fd5b6000602082840312156134a457600080fd5b813561140a8161347d565b6020808252825182820181905260009190848201906040850190845b8181101561351a5761350783855180518252602080820151908301526040808201516001600160a01b0316908301526060908101511515910152565b92840192608092909201916001016134cb565b50909695505050505050565b8015158114610c1457600080fd5b60008060006060848603121561354957600080fd5b8335925060208401359150604084013561356281613526565b809150509250925092565b634e487b7160e01b600052604160045260246000fd5b604051601f8201601f1916810167ffffffffffffffff811182821017156135ac576135ac61356d565b604052919050565b600080604083850312156135c757600080fd5b82356135d28161347d565b915060208381013567ffffffffffffffff808211156135f057600080fd5b818601915086601f83011261360457600080fd5b8135818111156136165761361661356d565b613628601f8201601f19168501613583565b9150808252878482850101111561363e57600080fd5b80848401858401376000848284010152508093505050509250929050565b6000806040838503121561366f57600080fd5b823561367a8161347d565b946020939093013593505050565b6000806040838503121561369b57600080fd5b82356136a68161347d565b915060208301356136b681613526565b809150509250929050565b6000806000606084860312156136d657600080fd5b8335925060208401356136e88161347d565b929592945050506040919091013590565b6000806040838503121561370c57600080fd5b8235915060208301356136b68161347d565b6000806040838503121561373157600080fd5b8235915060208301356136b681613526565b60008060006060848603121561375857600080fd5b83356137638161347d565b925060208401356137738161347d565b915060408401356135628161347d565b60006080828403121561379557600080fd5b6040516080810181811067ffffffffffffffff821117156137b8576137b861356d565b8060405250825181526020830151602082015260408301516137d98161347d565b604082015260608301516137ec81613526565b60608201529392505050565b60006020828403121561380a57600080fd5b5051919050565b634e487b7160e01b600052601160045260246000fd5b808202811582820484141761068957610689613811565b60008261385b57634e487b7160e01b600052601260045260246000fd5b500490565b60006020828403121561387257600080fd5b815161140a81613526565b60006020828403121561388f57600080fd5b815161140a8161347d565b6020808252602c908201527f46756e6374696f6e206d7573742062652063616c6c6564207468726f7567682060408201526b19195b1959d85d1958d85b1b60a21b606082015260800190565b6020808252602c908201527f46756e6374696f6e206d7573742062652063616c6c6564207468726f7567682060408201526b6163746976652070726f787960a01b606082015260800190565b634e487b7160e01b600052603260045260246000fd5b8082018082111561068957610689613811565b60006001820161396d5761396d613811565b5060010190565b6020808252601c908201527f4e6f7420617070726f76656420666f72206d61726b6574706c61636500000000604082015260600190565b8181038181111561068957610689613811565b6001600160a01b039384168152919092166020820152604081019190915260600190565b6020808252602b908201527f496e697469616c697a61626c653a20636f6e7472616374206973206e6f74206960408201526a6e697469616c697a696e6760a81b606082015260800190565b60005b83811015613a48578181015183820152602001613a30565b50506000910152565b60008251613a63818460208701613a2d565b9190910192915050565b6020815260008251806020840152613a8c816040850160208701613a2d565b601f01601f1916919091016040019291505056fe360894a13ba1a3210667c828492db98dca3e2076cc3735a920a3ca505d382bbc416464726573733a206c6f772d6c6576656c2064656c65676174652063616c6c206661696c6564a26469706673582212205e9a8a7244435b42f4d18ded4183e035e1f8e8ca1d67efdb0d85978d37681f2264736f6c63430008110033",
  "immutableReferences": {
    "746": [
      {
        "length": 32,
        "start": 2882
      },
      {
        "length": 32,
        "start": 2946
      },
      {
        "length": 32,
        "start": 4446
      },
      {
        "length": 32,
        "start": 4510
      },
      {
        "length": 32,
        "start": 4845
      }
    ]
  },
  "source": "// SPDX-License-Identifier: MIT\npragma solidity ^0.8.7;\n\nimport \"@openzeppelin/contracts-upgradeable/proxy/utils/Initializable.sol\";\n\nimport \"@openzeppelin/contracts-upgradeable/token/ERC721/IERC721Upgradeable.sol\";\nimport \"@openzeppelin/contracts-upgradeable/utils/introspection/IERC165Upgradeable.sol\";\nimport \"@openzeppelin/contracts-upgradeable/token/ERC20/IERC20Upgradeable.sol\";\nimport \"@openzeppelin/contracts-upgradeable/security/ReentrancyGuardUpgradeable.sol\";\nimport \"@openzeppelin/contracts-upgradeable/token/common/ERC2981Upgradeable.sol\";\nimport \"@openzeppelin/contracts-upgradeable/access/OwnableUpgradeable.sol\";\nimport \"@openzeppelin/contracts-upgradeable/proxy/utils/UUPSUpgradeable.sol\";\n\nimport \"./INftVendorStorage.sol\";\n\n// Check out https://github.com/Fantom-foundation/Artion-Contracts/blob/5c90d2bc0401af6fb5abf35b860b762b31dfee02/contracts/FantomMarketplace.sol\n// For a full decentralized nft marketplace\n\nerror PriceNotMet(address nftAddress, uint256 tokenId, uint256 price);\nerror NotListed(address nftAddress, uint256 tokenId);\nerror AlreadyListed(address nftAddress, uint256 tokenId);\nerror NoProceeds();\nerror NotOwner();\nerror IsNotOwner();\nerror NotApprovedForMarketplace();\nerror PriceMustBeAboveZero();\n\n// Error thrown for isNotOwner modifier\n// error IsNotOwner()\n\ncontract NftVendor is\n  Initializable,\n  ERC2981Upgradeable,\n  ReentrancyGuardUpgradeable,\n  OwnableUpgradeable,\n  UUPSUpgradeable\n{\n  INftVendorStorage private _vendorStorage;\n\n  address public collection;\n  address public creator;\n\n  event ItemListed(\n    address indexed from,\n    address indexed nftAddress,\n    uint256 indexed tokenId,\n    uint256 price\n  );\n\n  event ItemPiceUpdated(\n    address indexed from,\n    address indexed nftAddress,\n    uint256 indexed tokenId,\n    uint256 price\n  );\n\n  event ItemSaleStateUpdated(\n    address indexed from,\n    address indexed nftAddress,\n    uint256 indexed tokenId,\n    bool state\n  );\n\n  event ItemCanceled(\n    address indexed from,\n    address indexed nftAddress,\n    uint256 indexed tokenId\n  );\n\n  event ItemBought(\n    address indexed to,\n    address indexed from,\n    uint256 indexed tokenId,\n    bool isERC20,\n    uint256 price\n  );\n\n  event TxFeePaid(uint256 indexed tokenId, uint256 royalty, bool isERC20);\n\n  modifier notListed(uint256 tokenId) {\n    INftVendorStorage.Listing memory listing = _vendorStorage.getListing(\n      tokenId\n    );\n    if (listing.price > 0) {\n      revert AlreadyListed(collection, tokenId);\n    }\n    _;\n  }\n\n  modifier isListed(uint256 tokenId) {\n    INftVendorStorage.Listing memory listing = _vendorStorage.getListing(\n      tokenId\n    );\n    if (listing.price <= 0) {\n      revert NotListed(collection, tokenId);\n    }\n    _;\n  }\n\n  modifier isOwner(uint256 tokenId, address spender) {\n    IERC721Upgradeable nft = IERC721Upgradeable(collection);\n    address owner = nft.ownerOf(tokenId);\n    if (spender != owner) {\n      revert NotOwner();\n    }\n    _;\n  }\n\n  // IsNotOwner Modifier - Nft Owner can't buy his/her NFT\n  // Modifies buyItem function\n  // Owner should only list, cancel listing or update listing\n  modifier isNotOwner(uint256 tokenId, address spender) {\n    IERC721Upgradeable nft = IERC721Upgradeable(collection);\n    address owner = nft.ownerOf(tokenId);\n    if (spender == owner) {\n      revert IsNotOwner();\n    }\n    _;\n  }\n\n  function initialize(\n    address _collection,\n    address _creator,\n    address _storageAddress\n  ) public initializer {\n    __Ownable_init();\n    __UUPSUpgradeable_init();\n    collection = _collection;\n    creator = _creator;\n    _vendorStorage = INftVendorStorage(_storageAddress);\n    _setDefaultRoyalty(msg.sender, 1000);\n  }\n\n  function _authorizeUpgrade(address) internal override onlyOwner {}\n\n  /////////////////////\n  // Main Functions //\n  /////////////////////\n  /*\n   * @notice Method for listing NFT\n   * @param nftAddress Address of NFT contract\n   * @param tokenId Token ID of NFT\n   * @param price sale price for each item\n   */\n\n  /////////////////////\n  // Getter Functions //\n  /////////////////////\n\n  function getIsExcluded() public view returns (bool) {\n    return _vendorStorage.getIsExcluded();\n  }\n\n  function getIsOwnerSameAsCreator(\n    uint256 tokenId\n  ) external view returns (bool) {\n    address owner = IERC721Upgradeable(collection).ownerOf(tokenId);\n    return owner == creator;\n  }\n\n  function getPriceByToken(\n    address tokenAddress,\n    uint256 tokenId\n  ) public view returns (uint256) {\n    return _vendorStorage.getPriceByToken(tokenAddress, tokenId);\n  }\n\n  function getListing(\n    uint256 _tokenId\n  ) public view returns (INftVendorStorage.Listing memory) {\n    return _vendorStorage.getListing(_tokenId);\n  }\n\n  function getAllListedNFTs()\n    public\n    view\n    returns (INftVendorStorage.Listing[] memory)\n  {\n    uint allItemsCounts = _vendorStorage.getAllListedNftsLength();\n    uint listedItemsCounter = _vendorStorage.getCurrentListedItemsCounter();\n    uint currentIndex = 0;\n    INftVendorStorage.Listing[] memory items = new INftVendorStorage.Listing[](\n      listedItemsCounter\n    );\n\n    for (uint i = 0; i < allItemsCounts; i++) {\n      uint tokenId = tokenByIndex(i);\n      INftVendorStorage.Listing memory item = getListing(tokenId);\n      items[currentIndex] = item;\n      currentIndex += 1;\n    }\n\n    return items;\n  }\n\n  function getRoyalty(uint256 _tokenId) public view returns (uint256) {\n    INftVendorStorage.Listing memory listedItem = getListing(_tokenId);\n    (, uint256 royalty) = royaltyInfo(_tokenId, listedItem.price);\n    return royalty;\n  }\n\n  function emitTxFee(\n    uint256 tokenId,\n    uint256 royaltyAmount,\n    bool isERC20\n  ) external {\n    emit TxFeePaid(tokenId, royaltyAmount, isERC20);\n  }\n\n  function listItem(\n    uint256 tokenId,\n    uint256 price,\n    bool activeSell\n  ) external notListed(tokenId) isOwner(tokenId, msg.sender) {\n    // Check the value of `price` and revert if it's zero (since it cannot be negative)\n    require(price > 0, \"Price must be above zero\");\n\n    IERC721Upgradeable nft = IERC721Upgradeable(collection);\n    require(\n      nft.getApproved(tokenId) == address(this),\n      \"Not approved for marketplace\"\n    );\n\n    _vendorStorage.setListing(tokenId, price, msg.sender, activeSell);\n    _vendorStorage.addTokenToAllTokensEnumeration(tokenId);\n    emit ItemListed(msg.sender, collection, tokenId, price);\n  }\n\n  function updateStateForSale(\n    uint256 _tokenId,\n    bool state\n  ) external isOwner(_tokenId, msg.sender) isListed(_tokenId) {\n    _vendorStorage.updateSellState(_tokenId, state);\n    emit ItemSaleStateUpdated(msg.sender, collection, _tokenId, state);\n  }\n\n  /*\n   * @notice Method for cancelling listing\n   * @param collection Address of NFT contract\n   * @param tokenId Token ID of NFT\n   */\n  function cancelListing(\n    uint256 tokenId\n  ) external isOwner(tokenId, msg.sender) isListed(tokenId) {\n    _vendorStorage.deleteListing(tokenId);\n    _vendorStorage.removeTokenFromAllListedTokensEnumeration(tokenId);\n    emit ItemCanceled(msg.sender, collection, tokenId);\n  }\n\n  /*\n   * @notice Method for buying listing\n   * @notice The owner of an NFT could unapprove the marketplace,\n   * which would cause this function to fail\n   * Ideally you'd also have a `createOffer` functionality.\n   * @param collection Address of NFT contract\n   * @param tokenId Token ID of NFT\n   */\n  function buyItem(\n    uint256 tokenId\n  )\n    external\n    payable\n    isListed(tokenId)\n    isNotOwner(tokenId, msg.sender)\n    nonReentrant\n  {\n    INftVendorStorage.Listing memory listedItem = _vendorStorage.getListing(\n      tokenId\n    );\n\n    require(msg.value >= listedItem.price, \"PriceNotMet\");\n\n    if (\n      !getIsExcluded() &&\n      IERC721Upgradeable(collection).ownerOf(tokenId) != creator\n    ) {\n      _payTxFee(tokenId, getRoyalty(tokenId));\n    }\n\n    (bool success, ) = payable(listedItem.seller).call{\n      value: msg.value - getRoyalty(tokenId)\n    }(\"\");\n    require(success, \"Transfer failed\");\n\n    IERC721Upgradeable(collection).safeTransferFrom(\n      listedItem.seller,\n      msg.sender,\n      tokenId\n    );\n\n    _vendorStorage.deleteListing(tokenId);\n    _vendorStorage.removeTokenFromAllListedTokensEnumeration(tokenId);\n\n    emit ItemBought(\n      msg.sender,\n      listedItem.seller,\n      tokenId,\n      false,\n      listedItem.price\n    );\n  }\n\n  function buyNFTWithERC20(\n    uint256 tokenId,\n    address erc20Token\n  ) external isListed(tokenId) isNotOwner(tokenId, msg.sender) nonReentrant {\n    INftVendorStorage.Listing memory listedItem = getListing(tokenId);\n    uint256 nftPrice = getPriceByToken(erc20Token, tokenId);\n    IERC20Upgradeable token = IERC20Upgradeable(erc20Token);\n    uint256 royaltyAmount;\n\n    require(\n      token.allowance(msg.sender, address(this)) >= nftPrice,\n      \"Insufficient allowance.\"\n    );\n\n    if (!getIsExcluded()) {\n      address owner = IERC721Upgradeable(collection).ownerOf(tokenId);\n      if (owner != creator) {\n        (, royaltyAmount) = royaltyInfo(tokenId, nftPrice);\n        payERC20Royalties(erc20Token, tokenId, royaltyAmount);\n      }\n    }\n\n    token.transferFrom(msg.sender, listedItem.seller, nftPrice - royaltyAmount);\n\n    IERC721Upgradeable(collection).safeTransferFrom(\n      listedItem.seller,\n      msg.sender,\n      tokenId\n    );\n\n    _vendorStorage.deleteListing(tokenId);\n    _vendorStorage.setERC20PriceByTokenId(erc20Token, tokenId, 0);\n    _vendorStorage.removeTokenFromAllListedTokensEnumeration(tokenId);\n\n    emit ItemBought(\n      msg.sender,\n      listedItem.seller,\n      tokenId,\n      true,\n      nftPrice - royaltyAmount\n    );\n  }\n\n  function payERC20Royalties(\n    address _erc20Token,\n    uint256 _tokenId,\n    uint256 _royalty\n  ) private {\n    IERC20Upgradeable token = IERC20Upgradeable(_erc20Token);\n    token.transferFrom(msg.sender, creator, _royalty);\n    emit TxFeePaid(_tokenId, _royalty, true);\n  }\n\n  /*\n   * @notice Method for updating listing\n   * @param collection Address of NFT contract\n   * @param tokenId Token ID of NFT\n   * @param newPrice Price in Wei of the item\n   */\n  function updateListingPrice(\n    uint256 tokenId,\n    uint256 newPrice\n  ) external isListed(tokenId) nonReentrant isOwner(tokenId, msg.sender) {\n    // Check the value of `newPrice` and revert if it's zero (since it cannot be negative)\n    require(newPrice > 0, \"Price must be above zero\");\n\n    IERC721Upgradeable nft = IERC721Upgradeable(collection);\n    require(\n      nft.getApproved(tokenId) == address(this),\n      \"Not approved for marketplace\"\n    );\n\n    _vendorStorage.setListing(tokenId, newPrice, msg.sender, false);\n    emit ItemPiceUpdated(msg.sender, collection, tokenId, newPrice);\n  }\n\n  function withdrawERC20(address erc20Token) external onlyOwner {\n    IERC20Upgradeable token = IERC20Upgradeable(erc20Token);\n    token.transferFrom(address(this), creator, token.balanceOf(address(this)));\n  }\n\n  /*\n   * @notice Method for withdrawing proceeds from sales\n   */\n  function withdrawProceeds() external {\n    uint256 proceeds = _vendorStorage.getProcceds(msg.sender);\n    if (proceeds <= 0) {\n      revert NoProceeds();\n    }\n    _vendorStorage.setProcceds(msg.sender, 0);\n    (bool sent, ) = msg.sender.call{ value: proceeds }(\"\");\n    require(sent, \"Failed to withdraw\");\n  }\n\n  function totalSupply() public view returns (uint256) {\n    return _vendorStorage.getAllListedNftsLength();\n  }\n\n  function tokenByIndex(uint index) public view returns (uint) {\n    require(index < totalSupply(), \"Index out of bounds\");\n    return _vendorStorage.getListedNftsByIndex(index);\n  }\n\n  function setExcludedFromList(\n    address _address,\n    bool _excluded\n  ) external onlyOwner {\n    _vendorStorage.setExcludedFromList(_address, _excluded);\n  }\n\n  function addERC20Token(address erc20Token) external onlyOwner {\n    // Check if the given address is a valid ERC20 token contract\n    // require(_isERC20(erc20Token), \"Not a valid ERC20 token\");\n\n    _vendorStorage.setAcceptedToken(erc20Token, true);\n    _vendorStorage.pushToAllERC20Tokens(erc20Token);\n  }\n\n  function removeERC20Token(address erc20Token) external onlyOwner {\n    _vendorStorage.setAcceptedToken(erc20Token, false);\n  }\n\n  function updateERC20TokenPrice(\n    uint256 tokenId,\n    address erc20Token,\n    uint256 price\n  ) external isOwner(tokenId, msg.sender) {\n    IERC721Upgradeable nft = IERC721Upgradeable(collection);\n    require(\n      nft.getApproved(tokenId) == address(this),\n      \"Not approved for marketplace\"\n    );\n    _vendorStorage.setERC20PriceByTokenId(erc20Token, tokenId, price);\n  }\n\n  function calculateRoyaltyForAcceptedOffer(\n    uint256 _tokenId,\n    uint256 _highestBid\n  ) public view returns (uint256) {\n    (, uint256 royalty) = royaltyInfo(_tokenId, _highestBid);\n    return royalty;\n  }\n\n  // function _isERC20(address erc20Token) private view returns (bool) {\n  //   bytes4 expectedInterfaceId = 0x36372b07; // ERC20 interface ID: bytes4(keccak256(\"totalSupply()\")) ^ bytes4(keccak256(\"balanceOf(address)\")) ^ bytes4(keccak256(\"transfer(address,uint256)\")) ^ bytes4(keccak256(\"allowance(address,address)\")) ^ bytes4(keccak256(\"approve(address,uint256)\")) ^ bytes4(keccak256(\"transferFrom(address,address,uint256)\"))\n  //   IERC165Upgradeable token = IERC165Upgradeable(erc20Token);\n  //   return token.supportsInterface(expectedInterfaceId);\n  // }\n\n  function _payTxFee(uint256 tokenId, uint256 royalty) public {\n    (bool success1, ) = payable(creator).call{ value: royalty }(\"\");\n    require(success1);\n    emit TxFeePaid(tokenId, royalty, false);\n  }\n}\n",
  "sourcePath": "/Users/alberto/Desktop/Enalbis/caskchain-mono/apps/contracts/contracts/NftVendor/NftVendor.sol",
  "compiler": {
    "name": "solc",
    "version": "0.8.17+commit.8df45f5f.Emscripten.clang"
  },
  "schemaVersion": "3.4.11",
  "updatedAt": "2023-11-02T11:32:26.442Z",
  "networkType": "ethereum",
  "devdoc": {
    "kind": "dev",
    "methods": {
      "owner()": {
        "details": "Returns the address of the current owner."
      },
      "proxiableUUID()": {
        "details": "Implementation of the ERC1822 {proxiableUUID} function. This returns the storage slot used by the implementation. It is used to validate the implementation's compatibility when performing an upgrade. IMPORTANT: A proxy pointing at a proxiable contract should not be considered proxiable itself, because this risks bricking a proxy that upgrades to it, by delegating to itself until out of gas. Thus it is critical that this function revert if invoked through a proxy. This is guaranteed by the `notDelegated` modifier."
      },
      "renounceOwnership()": {
        "details": "Leaves the contract without owner. It will not be possible to call `onlyOwner` functions anymore. Can only be called by the current owner. NOTE: Renouncing ownership will leave the contract without an owner, thereby removing any functionality that is only available to the owner."
      },
      "royaltyInfo(uint256,uint256)": {
        "details": "Returns how much royalty is owed and to whom, based on a sale price that may be denominated in any unit of exchange. The royalty amount is denominated and should be paid in that same unit of exchange."
      },
      "supportsInterface(bytes4)": {
        "details": "See {IERC165-supportsInterface}."
      },
      "transferOwnership(address)": {
        "details": "Transfers ownership of the contract to a new account (`newOwner`). Can only be called by the current owner."
      },
      "upgradeTo(address)": {
        "details": "Upgrade the implementation of the proxy to `newImplementation`. Calls {_authorizeUpgrade}. Emits an {Upgraded} event."
      },
      "upgradeToAndCall(address,bytes)": {
        "details": "Upgrade the implementation of the proxy to `newImplementation`, and subsequently execute the function call encoded in `data`. Calls {_authorizeUpgrade}. Emits an {Upgraded} event."
      }
    },
    "version": 1
  },
  "userdoc": {
    "kind": "user",
    "methods": {},
    "version": 1
  }
}