{
  "contractName": "NftVendorStorage",
  "abi": [
    {
      "anonymous": false,
      "inputs": [
        {
          "indexed": true,
          "internalType": "address",
          "name": "previousOwner",
          "type": "address"
        },
        {
          "indexed": true,
          "internalType": "address",
          "name": "newOwner",
          "type": "address"
        }
      ],
      "name": "OwnershipTransferred",
      "type": "event"
    },
    {
      "inputs": [
        {
          "internalType": "address",
          "name": "",
          "type": "address"
        }
      ],
      "name": "allowedAddresses",
      "outputs": [
        {
          "internalType": "bool",
          "name": "",
          "type": "bool"
        }
      ],
      "stateMutability": "view",
      "type": "function",
      "constant": true
    },
    {
      "inputs": [],
      "name": "owner",
      "outputs": [
        {
          "internalType": "address",
          "name": "",
          "type": "address"
        }
      ],
      "stateMutability": "view",
      "type": "function",
      "constant": true
    },
    {
      "inputs": [],
      "name": "renounceOwnership",
      "outputs": [],
      "stateMutability": "nonpayable",
      "type": "function"
    },
    {
      "inputs": [
        {
          "internalType": "address",
          "name": "newOwner",
          "type": "address"
        }
      ],
      "name": "transferOwnership",
      "outputs": [],
      "stateMutability": "nonpayable",
      "type": "function"
    },
    {
      "inputs": [
        {
          "internalType": "address",
          "name": "_address",
          "type": "address"
        }
      ],
      "name": "addAllowedAddress",
      "outputs": [],
      "stateMutability": "nonpayable",
      "type": "function"
    },
    {
      "inputs": [
        {
          "internalType": "address",
          "name": "_address",
          "type": "address"
        }
      ],
      "name": "removeAllowedAddress",
      "outputs": [],
      "stateMutability": "nonpayable",
      "type": "function"
    },
    {
      "inputs": [
        {
          "internalType": "address",
          "name": "_address",
          "type": "address"
        }
      ],
      "name": "isAllowedAddress",
      "outputs": [
        {
          "internalType": "bool",
          "name": "",
          "type": "bool"
        }
      ],
      "stateMutability": "view",
      "type": "function",
      "constant": true
    },
    {
      "inputs": [],
      "name": "getIsExcluded",
      "outputs": [
        {
          "internalType": "bool",
          "name": "",
          "type": "bool"
        }
      ],
      "stateMutability": "view",
      "type": "function",
      "constant": true
    },
    {
      "inputs": [
        {
          "internalType": "address",
          "name": "tokenAddress",
          "type": "address"
        },
        {
          "internalType": "uint256",
          "name": "tokenId",
          "type": "uint256"
        }
      ],
      "name": "getPriceByToken",
      "outputs": [
        {
          "internalType": "uint256",
          "name": "",
          "type": "uint256"
        }
      ],
      "stateMutability": "view",
      "type": "function",
      "constant": true
    },
    {
      "inputs": [],
      "name": "getAcceptedERC20tokens",
      "outputs": [
        {
          "internalType": "address[]",
          "name": "",
          "type": "address[]"
        }
      ],
      "stateMutability": "view",
      "type": "function",
      "constant": true
    },
    {
      "inputs": [
        {
          "internalType": "uint256",
          "name": "tokenId",
          "type": "uint256"
        }
      ],
      "name": "getListing",
      "outputs": [
        {
          "components": [
            {
              "internalType": "uint256",
              "name": "tokenId",
              "type": "uint256"
            },
            {
              "internalType": "uint256",
              "name": "price",
              "type": "uint256"
            },
            {
              "internalType": "address",
              "name": "seller",
              "type": "address"
            },
            {
              "internalType": "bool",
              "name": "active",
              "type": "bool"
            }
          ],
          "internalType": "struct NftVendorStorage.Listing",
          "name": "",
          "type": "tuple"
        }
      ],
      "stateMutability": "view",
      "type": "function",
      "constant": true
    },
    {
      "inputs": [
        {
          "internalType": "address",
          "name": "_address",
          "type": "address"
        }
      ],
      "name": "getProcceds",
      "outputs": [
        {
          "internalType": "uint256",
          "name": "",
          "type": "uint256"
        }
      ],
      "stateMutability": "view",
      "type": "function",
      "constant": true
    },
    {
      "inputs": [],
      "name": "getAllListedNftsLength",
      "outputs": [
        {
          "internalType": "uint256",
          "name": "",
          "type": "uint256"
        }
      ],
      "stateMutability": "view",
      "type": "function",
      "constant": true
    },
    {
      "inputs": [
        {
          "internalType": "uint256",
          "name": "index",
          "type": "uint256"
        }
      ],
      "name": "getListedNftsByIndex",
      "outputs": [
        {
          "internalType": "uint256",
          "name": "tokenId",
          "type": "uint256"
        }
      ],
      "stateMutability": "view",
      "type": "function",
      "constant": true
    },
    {
      "inputs": [],
      "name": "getAllListedNftsId",
      "outputs": [
        {
          "internalType": "uint256[]",
          "name": "",
          "type": "uint256[]"
        }
      ],
      "stateMutability": "view",
      "type": "function",
      "constant": true
    },
    {
      "inputs": [
        {
          "internalType": "address",
          "name": "_tokenAddress",
          "type": "address"
        },
        {
          "internalType": "bool",
          "name": "_accepted",
          "type": "bool"
        }
      ],
      "name": "setAcceptedToken",
      "outputs": [],
      "stateMutability": "nonpayable",
      "type": "function"
    },
    {
      "inputs": [
        {
          "internalType": "address",
          "name": "_tokenAddress",
          "type": "address"
        },
        {
          "internalType": "uint256",
          "name": "_tokenId",
          "type": "uint256"
        },
        {
          "internalType": "uint256",
          "name": "_price",
          "type": "uint256"
        }
      ],
      "name": "setERC20PriceByTokenId",
      "outputs": [],
      "stateMutability": "nonpayable",
      "type": "function"
    },
    {
      "inputs": [
        {
          "internalType": "uint256",
          "name": "_tokenId",
          "type": "uint256"
        },
        {
          "internalType": "uint256",
          "name": "_price",
          "type": "uint256"
        },
        {
          "internalType": "address",
          "name": "_seller",
          "type": "address"
        },
        {
          "internalType": "bool",
          "name": "_activeSell",
          "type": "bool"
        }
      ],
      "name": "setListing",
      "outputs": [],
      "stateMutability": "nonpayable",
      "type": "function"
    },
    {
      "inputs": [
        {
          "internalType": "uint256",
          "name": "_tokenId",
          "type": "uint256"
        },
        {
          "internalType": "bool",
          "name": "state",
          "type": "bool"
        }
      ],
      "name": "updateSellState",
      "outputs": [],
      "stateMutability": "nonpayable",
      "type": "function"
    },
    {
      "inputs": [
        {
          "internalType": "address",
          "name": "_address",
          "type": "address"
        },
        {
          "internalType": "uint256",
          "name": "_amount",
          "type": "uint256"
        }
      ],
      "name": "setProcceds",
      "outputs": [],
      "stateMutability": "nonpayable",
      "type": "function"
    },
    {
      "inputs": [
        {
          "internalType": "address",
          "name": "_address",
          "type": "address"
        },
        {
          "internalType": "bool",
          "name": "_excluded",
          "type": "bool"
        }
      ],
      "name": "setExcludedFromList",
      "outputs": [],
      "stateMutability": "nonpayable",
      "type": "function"
    },
    {
      "inputs": [
        {
          "internalType": "address",
          "name": "_tokenAddress",
          "type": "address"
        }
      ],
      "name": "pushToAllERC20Tokens",
      "outputs": [],
      "stateMutability": "nonpayable",
      "type": "function"
    },
    {
      "inputs": [
        {
          "internalType": "uint256",
          "name": "tokenId",
          "type": "uint256"
        }
      ],
      "name": "addTokenToAllTokensEnumeration",
      "outputs": [],
      "stateMutability": "nonpayable",
      "type": "function"
    },
    {
      "inputs": [
        {
          "internalType": "uint256",
          "name": "tokenId",
          "type": "uint256"
        }
      ],
      "name": "removeTokenFromAllListedTokensEnumeration",
      "outputs": [],
      "stateMutability": "nonpayable",
      "type": "function"
    },
    {
      "inputs": [
        {
          "internalType": "uint256",
          "name": "_tokenId",
          "type": "uint256"
        }
      ],
      "name": "deleteListing",
      "outputs": [],
      "stateMutability": "nonpayable",
      "type": "function"
    }
  ],
  "bytecode": "0x608060405234801561001057600080fd5b5061001a3361001f565b61006f565b600080546001600160a01b038381166001600160a01b0319831681178455604051919092169283917f8be0079c531659141344cd1fd0a4f28419497f9722a3daafe3b4186f6b6457e09190a35050565b610f0b8061007e6000396000f3fe608060405234801561001057600080fd5b50600436106101735760003560e01c80638345245e116100de578063b397449211610097578063dbe0b21c11610071578063dbe0b21c14610422578063e6282c6e14610435578063e74e2e2e14610448578063f2fde38b1461045b57600080fd5b8063b3974492146103f4578063c997dbca146103fc578063d0483ee51461040f57600080fd5b80638345245e1461034b5780638da5cb5b14610377578063958a12a114610392578063a08e65f6146103a5578063a92d432f146103ce578063affaf369146103e157600080fd5b806358c1d7fe1161013057806358c1d7fe146102d45780635deba0e4146102f557806369edc06814610308578063715018a61461031b578063770fd7df1461032357806381788e2b1461033857600080fd5b80630c6ce41514610178578063107a274a1461018d5780631c0566051461025b5780632fa8f924146102705780633c9d93b81461029e5780634120657a146102b1575b600080fd5b61018b610186366004610c90565b61046e565b005b61021461019b366004610cc3565b60408051608081018252600080825260208201819052918101829052606081019190915250600090815260056020908152604091829020825160808101845281548152600182015492810192909252600201546001600160a01b03811692820192909252600160a01b90910460ff161515606082015290565b604051610252919081518152602080830151908201526040808301516001600160a01b03169082015260609182015115159181019190915260800190565b60405180910390f35b6102636104cc565b6040516102529190610cdc565b61028e3360009081526008602052604090205460ff16151560011490565b6040519015158152602001610252565b61018b6102ac366004610d20565b610524565b61028e6102bf366004610d20565b60046020526000908152604090205460ff1681565b6102e76102e2366004610d42565b61054d565b604051908152602001610252565b61018b610303366004610d7c565b610578565b61018b610316366004610daf565b6105d2565b61018b610675565b61032b610689565b6040516102529190610df5565b61018b610346366004610d20565b6106ea565b61028e610359366004610d20565b6001600160a01b031660009081526004602052604090205460ff1690565b6000546040516001600160a01b039091168152602001610252565b61018b6103a0366004610cc3565b610716565b6102e76103b3366004610d20565b6001600160a01b031660009081526006602052604090205490565b6102e76103dc366004610cc3565b610802565b61018b6103ef366004610d42565b610829565b6001546102e7565b61018b61040a366004610d7c565b610874565b61018b61041d366004610e36565b6108ce565b61018b610430366004610cc3565b61092b565b61018b610443366004610cc3565b6109a8565b61018b610456366004610d20565b610a03565b61018b610469366004610d20565b610a84565b3360009081526004602052604090205460ff166104a65760405162461bcd60e51b815260040161049d90610e59565b60405180910390fd5b6001600160a01b039092166000908152600a602090815260408083209383529290522055565b6060600180548060200260200160405190810160405280929190818152602001828054801561051a57602002820191906000526020600020905b815481526020019060010190808311610506575b5050505050905090565b61052c610afd565b6001600160a01b03166000908152600460205260409020805460ff19169055565b6001600160a01b0382166000908152600a602090815260408083208484529091529020545b92915050565b3360009081526004602052604090205460ff166105a75760405162461bcd60e51b815260040161049d90610e59565b6001600160a01b03919091166000908152600860205260409020805460ff1916911515919091179055565b3360009081526004602052604090205460ff166106015760405162461bcd60e51b815260040161049d90610e59565b6040805160808101825285815260208082019586526001600160a01b039485168284019081529315156060830190815260009788526005909152919095209451855592516001850155516002909301805492511515600160a01b026001600160a81b03199093169390911692909217179055565b61067d610afd565b6106876000610b57565b565b6060600280548060200260200160405190810160405280929190818152602001828054801561051a57602002820191906000526020600020905b81546001600160a01b031681526001909101906020018083116106c3575050505050905090565b6106f2610afd565b6001600160a01b03166000908152600460205260409020805460ff19166001179055565b3360009081526004602052604090205460ff166107455760405162461bcd60e51b815260040161049d90610e59565b6001805460009161075591610e88565b6000838152600760205260408120546001805493945090928490811061077d5761077d610ea9565b90600052602060002001549050806001838154811061079e5761079e610ea9565b60009182526020808320909101929092558281526007909152604090208290556107c6610ba7565b60008481526007602052604081205560018054806107e6576107e6610ebf565b6001900381819060005260206000200160009055905550505050565b60006001828154811061081757610817610ea9565b90600052602060002001549050919050565b3360009081526004602052604090205460ff166108585760405162461bcd60e51b815260040161049d90610e59565b6001600160a01b03909116600090815260066020526040902055565b3360009081526004602052604090205460ff166108a35760405162461bcd60e51b815260040161049d90610e59565b6001600160a01b03919091166000908152600960205260409020805460ff1916911515919091179055565b3360009081526004602052604090205460ff166108fd5760405162461bcd60e51b815260040161049d90610e59565b6000918252600560205260409091206002018054911515600160a01b0260ff60a01b19909216919091179055565b3360009081526004602052604090205460ff1661095a5760405162461bcd60e51b815260040161049d90610e59565b600154600082815260076020526040902055610974610be0565b6001805480820182556000919091527fb10e2d527612073b26eecdfd717e6a320cf44b4afac2b0732d9fcbe2b7fa0cf60155565b3360009081526004602052604090205460ff166109d75760405162461bcd60e51b815260040161049d90610e59565b6000908152600560205260408120818155600181019190915560020180546001600160a81b0319169055565b3360009081526004602052604090205460ff16610a325760405162461bcd60e51b815260040161049d90610e59565b600280546001810182556000919091527f405787fa12a823e0f2b7631cc41b3ba8828b3321ca811111fa75cd3aa3bb5ace0180546001600160a01b0319166001600160a01b0392909216919091179055565b610a8c610afd565b6001600160a01b038116610af15760405162461bcd60e51b815260206004820152602660248201527f4f776e61626c653a206e6577206f776e657220697320746865207a65726f206160448201526564647265737360d01b606482015260840161049d565b610afa81610b57565b50565b6000546001600160a01b031633146106875760405162461bcd60e51b815260206004820181905260248201527f4f776e61626c653a2063616c6c6572206973206e6f7420746865206f776e6572604482015260640161049d565b600080546001600160a01b038381166001600160a01b0319831681178455604051919092169283917f8be0079c531659141344cd1fd0a4f28419497f9722a3daafe3b4186f6b6457e09190a35050565b3360009081526004602052604090205460ff16610bd65760405162461bcd60e51b815260040161049d90610e59565b6106876003610c1d565b3360009081526004602052604090205460ff16610c0f5760405162461bcd60e51b815260040161049d90610e59565b610687600380546001019055565b805480610c6c5760405162461bcd60e51b815260206004820152601b60248201527f436f756e7465723a2064656372656d656e74206f766572666c6f770000000000604482015260640161049d565b600019019055565b80356001600160a01b0381168114610c8b57600080fd5b919050565b600080600060608486031215610ca557600080fd5b610cae84610c74565b95602085013595506040909401359392505050565b600060208284031215610cd557600080fd5b5035919050565b6020808252825182820181905260009190848201906040850190845b81811015610d1457835183529284019291840191600101610cf8565b50909695505050505050565b600060208284031215610d3257600080fd5b610d3b82610c74565b9392505050565b60008060408385031215610d5557600080fd5b610d5e83610c74565b946020939093013593505050565b80358015158114610c8b57600080fd5b60008060408385031215610d8f57600080fd5b610d9883610c74565b9150610da660208401610d6c565b90509250929050565b60008060008060808587031215610dc557600080fd5b8435935060208501359250610ddc60408601610c74565b9150610dea60608601610d6c565b905092959194509250565b6020808252825182820181905260009190848201906040850190845b81811015610d145783516001600160a01b031683529284019291840191600101610e11565b60008060408385031215610e4957600080fd5b82359150610da660208401610d6c565b60208082526015908201527410d85b1b195c881a5cc81b9bdd08185b1b1bddd959605a1b604082015260600190565b8181038181111561057257634e487b7160e01b600052601160045260246000fd5b634e487b7160e01b600052603260045260246000fd5b634e487b7160e01b600052603160045260246000fdfea2646970667358221220ec165345b055d91cd782bfd6de0bbcabc7d0ce56be545073b81c2085e265f9fe64736f6c63430008110033",
  "immutableReferences": {},
  "source": "// SPDX-License-Identifier: MIT\npragma solidity ^0.8.7;\n\nimport \"@openzeppelin/contracts/utils/Counters.sol\";\nimport \"@openzeppelin/contracts/access/Ownable.sol\";\n\ncontract NftVendorStorage is Ownable {\n  using Counters for Counters.Counter;\n\n  struct Listing {\n    uint256 tokenId;\n    uint256 price;\n    address seller;\n    bool active;\n  }\n\n  uint256[] internal _allListedNfts;\n  address[] internal _allERC20Tokens;\n\n  Counters.Counter internal _listedItems;\n\n  // Address => Boolean\n  mapping(address => bool) public allowedAddresses;\n\n  mapping(uint256 => Listing) internal s_listings;\n  mapping(address => uint256) internal s_proceeds;\n  // NFT id => Index\n  mapping(uint256 => uint256) internal _idToNftIndex;\n  // Address => Booelan\n  mapping(address => bool) internal s_excludedList;\n  // Accepted ERC20 Tokens\n  mapping(address => bool) internal s_acceptedTokens;\n  // Price ERC20 Tokens\n  mapping(address => mapping(uint256 => uint256)) internal s_priceTokens;\n\n  modifier onlyAllowed() {\n    require(allowedAddresses[msg.sender], \"Caller is not allowed\");\n    _;\n  }\n\n  /////////////////////\n  // ALLOWED ADDRESSES MANAGEMENT //\n  /////////////////////\n\n  function addAllowedAddress(address _address) public onlyOwner {\n    allowedAddresses[_address] = true;\n  }\n\n  function removeAllowedAddress(address _address) public onlyOwner {\n    allowedAddresses[_address] = false;\n  }\n\n  function isAllowedAddress(address _address) public view returns (bool) {\n    return allowedAddresses[_address];\n  }\n\n  /////////////////////\n  // GETTERS //\n  /////////////////////\n\n  function getIsExcluded() external view returns (bool) {\n    bool isExcluded = s_excludedList[msg.sender] == true;\n    return isExcluded;\n  }\n\n  function getPriceByToken(\n    address tokenAddress,\n    uint256 tokenId\n  ) external view returns (uint256) {\n    return s_priceTokens[tokenAddress][tokenId];\n  }\n\n  function getAcceptedERC20tokens() external view returns (address[] memory) {\n    return _allERC20Tokens;\n  }\n\n  function getListing(uint256 tokenId) external view returns (Listing memory) {\n    return s_listings[tokenId];\n  }\n\n  function getProcceds(address _address) external view returns (uint256) {\n    return s_proceeds[_address];\n  }\n\n  function getAllListedNftsLength() external view returns (uint256) {\n    return _allListedNfts.length;\n  }\n\n  function getListedNftsByIndex(\n    uint256 index\n  ) external view returns (uint256 tokenId) {\n    return _allListedNfts[index];\n  }\n\n  function getAllListedNftsId() external view returns (uint256[] memory) {\n    return _allListedNfts;\n  }\n\n  /////////////////////\n  // SETTERS //\n  /////////////////////\n\n  function setAcceptedToken(\n    address _tokenAddress,\n    bool _accepted\n  ) public onlyAllowed {\n    s_acceptedTokens[_tokenAddress] = _accepted;\n  }\n\n  function setERC20PriceByTokenId(\n    address _tokenAddress,\n    uint256 _tokenId,\n    uint256 _price\n  ) public onlyAllowed {\n    s_priceTokens[_tokenAddress][_tokenId] = _price;\n  }\n\n  function setListing(\n    uint256 _tokenId,\n    uint256 _price,\n    address _seller,\n    bool _activeSell\n  ) public onlyAllowed {\n    s_listings[_tokenId] = Listing(_tokenId, _price, _seller, _activeSell);\n  }\n\n  function updateSellState(uint256 _tokenId, bool state) public onlyAllowed {\n    s_listings[_tokenId].active = state;\n  }\n\n  function setProcceds(address _address, uint256 _amount) public onlyAllowed {\n    s_proceeds[_address] = _amount;\n  }\n\n  function setExcludedFromList(\n    address _address,\n    bool _excluded\n  ) public onlyAllowed {\n    s_excludedList[_address] = _excluded;\n  }\n\n  function pushToAllERC20Tokens(address _tokenAddress) public onlyAllowed {\n    _allERC20Tokens.push(_tokenAddress);\n  }\n\n  function addTokenToAllTokensEnumeration(uint tokenId) public onlyAllowed {\n    _idToNftIndex[tokenId] = _allListedNfts.length;\n    incrementListedItems();\n    _allListedNfts.push(tokenId);\n  }\n\n  function removeTokenFromAllListedTokensEnumeration(\n    uint tokenId\n  ) public onlyAllowed {\n    uint lastTokenIndex = _allListedNfts.length - 1;\n    uint tokenIndex = _idToNftIndex[tokenId];\n    uint lastTokenId = _allListedNfts[lastTokenIndex];\n\n    _allListedNfts[tokenIndex] = lastTokenId;\n    _idToNftIndex[lastTokenId] = tokenIndex;\n    decrementListedItems();\n\n    delete _idToNftIndex[tokenId];\n    _allListedNfts.pop();\n  }\n\n  function incrementListedItems() internal onlyAllowed {\n    _listedItems.increment();\n  }\n\n  function decrementListedItems() internal onlyAllowed {\n    _listedItems.decrement();\n  }\n\n  function deleteListing(uint256 _tokenId) public onlyAllowed {\n    delete s_listings[_tokenId];\n  }\n\n  function getCurrentListedItemsCounter()\n    internal\n    view\n    onlyAllowed\n    returns (uint256)\n  {\n    return _listedItems.current();\n  }\n}\n",
  "sourcePath": "/Users/alberto/Desktop/Proyectos/caskchain-monorepo/apps/contracts/contracts/NftVendor/NftVendorStorage.sol",
  "compiler": {
    "name": "solc",
    "version": "0.8.17+commit.8df45f5f.Emscripten.clang"
  },
  "schemaVersion": "3.4.16",
  "updatedAt": "2024-04-08T07:56:32.449Z",
  "networkType": "ethereum",
  "devdoc": {
    "kind": "dev",
    "methods": {
      "owner()": {
        "details": "Returns the address of the current owner."
      },
      "renounceOwnership()": {
        "details": "Leaves the contract without owner. It will not be possible to call `onlyOwner` functions anymore. Can only be called by the current owner. NOTE: Renouncing ownership will leave the contract without an owner, thereby removing any functionality that is only available to the owner."
      },
      "transferOwnership(address)": {
        "details": "Transfers ownership of the contract to a new account (`newOwner`). Can only be called by the current owner."
      }
    },
    "version": 1
  },
  "userdoc": {
    "kind": "user",
    "methods": {},
    "version": 1
  }
}