{
  "contractName": "PriceOracle",
  "abi": [
    {
      "inputs": [],
      "name": "priceOfDollarInETH",
      "outputs": [
        {
          "internalType": "uint256",
          "name": "",
          "type": "uint256"
        }
      ],
      "stateMutability": "view",
      "type": "function",
      "constant": true
    },
    {
      "inputs": [
        {
          "internalType": "uint256",
          "name": "_newPrice",
          "type": "uint256"
        }
      ],
      "name": "setPrice",
      "outputs": [],
      "stateMutability": "nonpayable",
      "type": "function"
    },
    {
      "inputs": [],
      "name": "getPriceOfDollarInETH",
      "outputs": [
        {
          "internalType": "uint256",
          "name": "",
          "type": "uint256"
        }
      ],
      "stateMutability": "view",
      "type": "function",
      "constant": true
    }
  ],
  "bytecode": "0x6080604052610ba460005534801561001657600080fd5b5060c2806100256000396000f3fe6080604052348015600f57600080fd5b5060043610603c5760003560e01c80636deb29d814604157806376f021b814605b57806391b7f5ed146062575b600080fd5b604960005481565b60405190815260200160405180910390f35b6000546049565b6072606d3660046074565b600055565b005b600060208284031215608557600080fd5b503591905056fea264697066735822122012c77bd1926014bc1742bd4d5ed4480391bb5b22e1093a3496080b0bec49c4da64736f6c63430008110033",
  "immutableReferences": {},
  "source": "// SPDX-License-Identifier: MIT\npragma solidity ^0.8.0;\n\ncontract PriceOracle {\n  // Precio del dólar en términos de la criptomoneda base (por ejemplo, ETH)\n  // 1 ETH = 2000 USD como ejemplo\n  uint256 public priceOfDollarInETH = 2980;\n\n  function setPrice(uint256 _newPrice) public {\n    priceOfDollarInETH = _newPrice;\n  }\n\n  function getPriceOfDollarInETH() public view returns (uint256) {\n    return priceOfDollarInETH;\n  }\n}\n",
  "sourcePath": "/Users/alberto/Desktop/Proyectos/caskchain-monorepo/apps/contracts/contracts/PriceOracle.sol",
  "compiler": {
    "name": "solc",
    "version": "0.8.17+commit.8df45f5f.Emscripten.clang"
  },
  "schemaVersion": "3.4.16",
  "updatedAt": "2024-04-17T20:59:45.076Z",
  "networkType": "ethereum",
  "devdoc": {
    "kind": "dev",
    "methods": {},
    "version": 1
  },
  "userdoc": {
    "kind": "user",
    "methods": {},
    "version": 1
  }
}